:10000000C0C20000EFC20000EDC20000EBC2000061
:10001000E9C20000E7C20000E5C20000E3C2000040
:10002000E1C20000DFC20000DDC20000DBC2000050
:10003000D9C200000C948721D5C20000D3C20000B1
:10004000D1C20000CFC20000CDC20000CBC2000070
:10005000C9C20000C7C20000C5C200000C94B3258D
:10006000C1C200000C943E240C941524BBC20000B5
:10007000B9C20000B7C20000B5C20000B3C20000A0
:10008000B1C20000AFC20000ADC20000ABC20000B0
:100090000C94EC230C94C323A5C2000071C600008D
:1000A000A1C200009FC200009DC200009BC20000D0
:1000B00099C2000097C2000095C2000093C20000E0
:1000C00091C200008FC200008DC200000C949A23E0
:1000D0000C94712387C2000085C2000083C2000017
:1000E00081C20000F008EA080009F808F508C40811
:1000F000E4088B08F824FB24EA24EE24F4243225B7
:10010000FF24032509250D25112517251B251F254E
:100110003225252529252D250D0A0053444B20760F
:10012000657273696F6E3A0041542B474D5200411E
:10013000542B4357444843503D312C310041542BFC
:1001400043574155544F434F4E4E3D300041542B81
:1001500043495044494E464F3D310041542B434999
:10016000504D55583D310041542B43574D4F444558
:100170003D3100415445300041542B525354004905
:100180006E6974696C697A6174696F6E20737563E6
:100190006365737366756C202D005761726E696EAE
:1001A000673A20556E737570706F7274656420665F
:1001B00069726D776172650043616E6E6F7420695C
:1001C0006E697469616C697A6520455350206D6F62
:1001D00064756C6500415400496E697469616C69AD
:1001E0007A696E6720455350206D6F64756C6500A9
:1001F000436F6E6E656374656420746F0046616959
:100200006C656420636F6E6E656374696E672074DD
:100210006F0041542B43574A41505F4355523D2292
:100220002573222C2225732200456E642074616799
:10023000206E6F7420666F756E64004E6F2074615F
:100240006720666F756E6400005EBCE2613FDD830F
:10025000C29C7E20A3FD1F419DC3217FFCA2401EA6
:100260005F01E3BD3E6082DC237D9FC1421CFEA096
:10027000E1BF5D0380DE3C62BEE0025CDF81633D86
:100280007C22C09E1D43A1FF4618FAA427799BC576
:1002900084DA3866E5BB5907DB856739BAE4065866
:1002A0001947A5FB7826C49A653BD987045AB8E656
:1002B000A7F91B45C6987A24F8A6441A99C7257B46
:1002C0003A6486D85B05E7B98CD2306EEDB3510F36
:1002D0004E10F2AC2F7193CD114FADF3702ECC9226
:1002E000D38D6F31B2EC0E50AFF1134DCE90722C16
:1002F0006D33D18F0C52B0EE326C8ED0530DEFB106
:10030000F0AE4C1291CF2D73CA947628ABF51749F5
:100310000856B4EA6937D58B5709EBB536688AD4E5
:1003200095CB2977F4AA4816E9B7550B88D6346AD5
:100330002B7597C94A14F6A8742AC896154BA9F7C5
:10034000B6E80A54D7896B35000022002500280042
:100350002B002E00310034000201000005010801CD
:100360000B01000020002300260029002C002F0094
:100370003200000100000301060109010505050521
:10038000070508080808020202020A0A080804040D
:10039000040401010101010101010303030303033B
:1003A0000303040707070C0C0C0C0C0C0C0C0202CA
:1003B000020206060606060606060B0B0B0B0B0BC7
:1003C0000B0B010210202008081020401020408054
:1003D0000201020108040201010204081020408009
:1003E0008040201008040201800402018040201097
:1003F00008040201080402010102040810204080E0
:10040000010204081020408000000A0B02090C0DB4
:100410000E080703040100000000000000000000B7
:1004200000000000000000000000000000000000CC
:100430000000000012111000000000000000000089
:10044000000000000000000000000000000054490F
:100450004D454F55543A0054616720434C4F534526
:1004600044206E6F7420666F756E64004E6F20734B
:100470006F636B657420617661696C61626C6500A5
:1004800041542B43495053544152543D25642C222E
:10049000544350222C222573222C257500436F6E65
:1004A0006E656374696E6720746F003E3E3E205433
:1004B000494D454F5554203E3E3E0025642E25644F
:1004C0002E25642E25640044617461207061636B85
:1004D00065742073656E64206572726F72202832B5
:1004E000290044617461207061636B6574207365D9
:1004F0006E64206572726F72202831290041542B7E
:1005000043495053454E443D25642C2575004661B2
:10051000696C656420746F20777269746520746FEC
:1005200020736F636B65740041542B434950434CF7
:100530004F53453D256400446973636F6E6E656378
:1005400074696E67200041542B4349505354415401
:100550005553002B4349505354415455533A256445
:100560002C000200002100240027002A002D00306A
:1005700000330001010000040107010A0100B22E4E
:10058000AA2E11241FBECFEFD1E2DEBFCDBF00E007
:100590000CBF29E0A4E1B6E001C01D92A435B2076A
:1005A000E1F716E0A0E0B2E0E0E9FFE600E00BBF13
:1005B00002C007900D92A431B107D9F712E0C0EC48
:1005C000D2E000E006C021970109802FFE010E94C1
:1005D0002235CF3BD10780E00807A9F70E94FD250F
:1005E0000C94B7370DCD089581E090E030911A0654
:1005F00020911906321710F480E090E091958195D2
:100600009109089580911A0690911906891730F47E
:100610008F5F80931A0680E090E008958FEF9FEF40
:1006200008958091190690E020911A06821B910985
:100630000895089580E090E0089585ED8093BC00D2
:100640008091BC0084FDFCCF109216060895409165
:100650008106262F30E0240F311D21323105DCF4D4
:10066000209116062430C9F4FC0180E090E0861742
:1006700058F4309181062191DC01A15AB94FA30FA2
:10068000B11D2C930196F3CF80918106680F609382
:10069000810680E0089581E0089582E00895CF9278
:1006A000DF92EF92FF920F931F93CF93DF937C0122
:1006B000262F972F8A018091D006882391F0C62F8C
:1006C000D72F6E01C40ED51ECC15DD0569F06991DA
:1006D000D701ED91FC910190F081E02DC7011995B2
:1006E000F3CF642F822FB3DFC801DF91CF911F9129
:1006F0000F91FF90EF90DF90CF900895CF93DF930D
:100700001F92CDB7DEB769832091D0062223D1F0A6
:1007100020911706203240F021E030E0FC013383C5
:10072000228380E090E014C080911806E82FF0E06A
:10073000EF52F94F998190838F5F809318068093D1
:10074000170604C061E0CE01019681DF81E090E0F0
:100750000F90DF91CF910895FC0126813781620FC0
:10076000731F848195818617970738F08281938162
:1007700077836683820F931F089580E090E0089549
:10078000DB01109749F0ED91FC9111970190F081F8
:10079000E02DBC01CD01199480E090E008950C9407
:1007A000D9350C94D9350C94D9350C94D9350C9491
:1007B000D9350C94D9350C94D9350C94D935EF92A0
:1007C000FF920F931F93CF93DF93EC01E880F980A2
:1007D000D7018D919C91FC010481158161157105F2
:1007E00051F0FB0101900020E9F73197AF01461B62
:1007F000570B0E94C320D701ED91FC918481958114
:100800002A813B81280F391F201B310B3B832A8310
:10081000DF91CF911F910F91FF90EF9008950F936B
:100820001F93CF93DF93CDB7DEB766970FB6F894DB
:10083000DEBF0FBECDBF8C01CB011E8AFE017696B6
:100840002AE030E0B9010E94F33490E3980F9293CC
:10085000CB010097B9F7BF01C801B1DF66960FB6AB
:10086000F894DEBF0FBECDBFDF91CF911F910F91E6
:1008700008958F929F92AF92BF92EF92FF920F9343
:100880001F93CF93DF93CDB7DEB766970FB6F8947B
:10089000DEBF0FBECDBF7C011E8A8E010A5E1F4FD8
:1008A0008AE0882E912CA12CB12CCB01BA01A50194
:1008B00094010E941A34942F852F605DF801629391
:1008C0008F01A901692F782F411551056105710527
:1008D00061F7BF01C70173DF66960FB6F894DEBFFC
:1008E0000FBECDBFDF91CF911F910F91FF90EF9081
:1008F000BF90AF909F908F9008950F931F93CF93C9
:10090000DF931F921F92CDB7DEB78C01DC01ED9112
:10091000FC918081918169831A8241E050E0BE019F
:100920006F5F7F4F0E94C320F801828193810196FF
:10093000938382830F900F90DF91CF911F910F913E
:100940000895FF920F931F93CF93DF936115710565
:1009500041F460E475E0DF91CF911F910F91FF901A
:100960002ECF8B01EC0162E2CE01C7DFF80161916D
:100970008F01662351F0E1E3F5E0F080FF20A1F361
:100980009181961751F03296F8CF62E2CE01DF9155
:10099000CF911F910F91FF90B0CF6CE5CE01ADDFED
:1009A0006F2DE2CFCF93DF93CDB7DEB7C85CD1090F
:1009B0000FB6F894DEBF0FBECDBF9E012E523F4F43
:1009C000C253DF4F48815981CE5CD04068EC70E063
:1009D000CE0101960E941F3081E00E94881DBE0159
:1009E0006F5F7F4F8091F7069091F8060E94502329
:1009F00041E060E070E0C053DF4F88819981C05DC5
:100A0000D0400E94A31DC853DF4F0FB6F894DEBF3D
:100A10000FBECDBFDF91CF910895AF92BF92CF921D
:100A2000DF92EF92FF920F931F93CF93DF935C01BE
:100A30006B017A01E901188281E00E94881DB501ED
:100A40008091F7069091F8060E94602341E0B6017C
:100A500088EE93E00E94A31D8530910509F04AC0FD
:100A60008091F9089091FA089093FE088093FD0810
:100A70004091F7085091F8084F5F5F4F60E070E0D9
:100A80000E94623741E0B70184EF91E00E94A31D0C
:100A9000059739F5A80141505109F701019000204F
:100AA000E9F73197CF018E199F096091F90870918C
:100AB000FA08E091FD08F091FE08E61BF70BE81B31
:100AC000F90B4E175F0708F0AF01CE010E9479378E
:100AD00041E060E070E080ED97E00E94A31D81E0BE
:100AE00018C061E873E086E498E00E94702369E230
:100AF00072E00AC0059760F061E873E086E498E070
:100B00000E9470236BE372E086E498E00E94602309
:100B100080E0DF91CF911F910F91FF90EF90DF90D8
:100B2000CF90BF90AF900895CF92DF92EF92FF9257
:100B30000F931F93CF93DF934091F3065091F406E8
:100B40006091F5067091F60614161506160617063E
:100B500044F49091F206981711F0911102C0CA0165
:100B600006C1182F8091F7069091F806DC01ED91EF
:100B7000FC910084F185E02D1995892B19F480E012
:100B800090E0F5C0E090F706F090F806C0E0D0E005
:100B9000C7010E94542297FD43C0FE01EB5BFA4F50
:100BA0002081022E000C330B8217930789F12097C6
:100BB00079F366E475E09E0121503109F901EB5BA0
:100BC000FA4F4081042E000C550B84179507E1F471
:100BD00021153105E9F2E5E4F5E040E050E001914E
:100BE0006B01C40ED51ED601DC900D1539F04217ED
:100BF000530771F26F5F7F4FE901DDCF4F5F5F4FAA
:100C00004217530760F3F3CF2115310599F7BECF93
:100C10002196C530D10509F0BBCF80E090E002C03D
:100C20008FEF9FEF892B09F0AACF8091F706909163
:100C3000F8060E9410186093F2068091F7069091D2
:100C4000F806DC01ED91FC910284F385E02D199505
:100C50008091F7069091F8060E9410186093F306B1
:100C60007093F4068093F5069093F6068091F7064C
:100C70009091F806DC01ED91FC910284F385E02D62
:100C800019958091F7069091F8060E9410186093CC
:100C9000A8068091F7069091F806DC01ED91FC9191
:100CA0000284F385E02D19958091F7069091F8065E
:100CB0000E9410186093A9068091F7069091F8069B
:100CC000DC01ED91FC910284F385E02D1995809172
:100CD000F7069091F8060E9410186093AA0680917A
:100CE000F7069091F806DC01ED91FC910284F38502
:100CF000E02D19958091F7069091F8060E94101842
:100D00006093AB068091F7069091F806DC01ED91B7
:100D1000FC910284F385E02D19958091F70690915E
:100D2000F806DC01ED91FC910284F385E02D199524
:100D30008091F7069091F8060E9410187093A7060C
:100D40006093A6068091F7069091F806DC01ED917C
:100D5000FC910284F385E02D19958091F2068117AC
:100D600011F011110CCF8091F3069091F406DF91F0
:100D7000CF911F910F91FF90EF90DF90CF9008954A
:100D80001F920F920FB60F9211240BB60F922F9352
:100D90003F934F935F936F937F938F939F93AF9303
:100DA000BF93EF93FF938091B900887F803609F459
:100DB0009CC068F5883209F45BC090F4803109F476
:100DC00054C038F4882309F4F6C0883009F44DC0C3
:100DD000F5C0883109F44CC0803209F45DC0EEC022
:100DE000803409F468C048F4803309F455C088336E
:100DF00009F0E4C08093CF06D8C0803509F44FC015
:100E0000883509F45DC0883409F0D8C0D6C0883967
:100E100009F4C7C0A8F4883709F467C038F48836E5
:100E200009F463C0803709F460C0C8C0883809F489
:100E3000B8C0803909F45FC0803809F0BFC05BC01A
:100E4000803B09F486C038F4803A09F466C0883AD9
:100E500009F47FC0B3C0803C09F4A7C0883C09F402
:100E6000A4C0883B09F48AC0A9C08091AC0610C018
:100E70009091CE068091CD06981770F5E091CE0640
:100E800081E08E0F8093CE06F0E0E355F94F80812C
:100E90008093BB0085EC86C08093CF068EC0E09126
:100EA000CE0681E08E0F8093CE068091BB00F0E0ED
:100EB000E355F94F80839091CE068091CD066EC0A8
:100EC000E091CE0681E08E0F8093CE068091BB002C
:100ED000F0E0E355F94F80838091150681116DC0D4
:100EE00081E08093140684EA61C083E08093160653
:100EF0001092A506CFCF8091A506803208F051C090
:100F0000E091A50681E08E0F8093A5068091BB003D
:100F1000F0E0EB57F94F8083BDCF85EC8093BC00A8
:100F2000109216068091A506803230F4E091A50655
:100F3000F0E0EB57F94F10826091A50670E0E09168
:100F40008306F091840685E896E019951092A5062F
:100F500035C084E0809316061092820610928106B6
:100F6000E0917F06F09180061995809181068111AC
:100F700005C081E08093810610925F06E0918206B1
:100F800081E08E0F80938206F0E0E15AF94F808174
:100F90008093BB009091820680918106981708F497
:100FA00079CF85E88093BC0009C085EC8093BC00B4
:100FB0001092160603C01092CF063FDBFF91EF910F
:100FC000BF91AF919F918F917F916F915F914F9161
:100FD0003F912F910F900BBE0F900FBE0F901F905F
:100FE0001895089508950895089508950895CF9344
:100FF000DF93EC01688179818AE090E0C1DB0097A2
:1010000029F0FC011182108215821482EA81FB8191
:10101000309751F0208131812115310511F0F9010E
:10102000F9CF9183808302C09B838A83DF91CF9124
:1010300008950F931F93CF93DF938B01FC01C2811F
:10104000D381209759F06A817B81C8010E9469375A
:10105000892B21F00990D881C02DF3CFCE01DF91EB
:10106000CF911F910F9108950F931F93CF93DF930B
:101070008C01EB016BE7CE0140DCF80102811381AA
:101080000115110591F0F80162817381CE0159DCDF
:101090006AE3CE0132DCBE01C801049611D0F8012A
:1010A000008111810115110539F46DE7CE01DF9141
:1010B000CF911F910F9121CC6CE2CE011EDCE0CFCD
:1010C0002F923F924F925F926F927F928F929F9258
:1010D000AF92BF92CF92DF92EF92FF920F931F9346
:1010E000CF93DF93CDB7DEB766970FB6F894DEBF28
:1010F0000FBECDBFDC01ED91FC9111973197E83027
:10110000F10508F0F5C11B018C018827EE58FF4F4F
:101110008F4F0C942235FD01C280D380E480F5808E
:10112000A7019601C701B6010E940133882319F077
:1011300066E575E073C020E030E0A901C701B601A3
:101140000E94013387FF07C06DE2C101D6DBF7FAC9
:10115000F094F7F8F09420E030E0A901C701B6015F
:101160000E940133882309F45CC0A7019601C701DE
:10117000B6010E945634A70196010E9401338111E5
:1011800050C06DE575E04AC0FD01028113816BE539
:10119000C101B3DBD80112960D911C911397011573
:1011A000110551F0B101C80102968ADFF8010081F2
:1011B00011810115110521F46DE5C1019EDB98C176
:1011C0006CE2C1019ADBEBCF12968D919C91139743
:1011D0004BDF8EC1FD0162817381C101B2DB88C129
:1011E00012966D917C91139719C06DE2C10185DB58
:1011F000F8014281538164817581C1013ADB78C174
:10120000FD0182819381A481B581892B8A2B8B2B4F
:1012100019F460E575E002C06BE475E0C101CFDA56
:1012200067C120E836E948E15BE4C701B6010E94E6
:10123000EB3487FD56C1A12CB12C00E210E01A8AD4
:10124000198AF501EB53FD4F248935894689578961
:10125000C701B6010E94EB3487FD13C0F501E355C9
:10126000FD4F2489358946895789C701B6010E94F7
:1012700066336B017C0189899A89800F911F9A8B53
:10128000898B1595079594E0A91AB108A8EEAA16BE
:10129000AFEFBA06B1F699249A9420E030E0A901A4
:1012A000C701B6010E94EB341816B4F52CEA35ECF0
:1012B00047E257E3C701B6010E940133181664F1F3
:1012C0009FEF991649F1B92DE4E0BE0250011124B7
:1012D000F501EB56FD4F2081318142815381C701D9
:1012E000B6010E94013387FF13C0F501EB53FD4F98
:1012F0002081318142815381C701B6010E9466334A
:101300006B017C0189899A89801B910B9A8B898B4F
:10131000159507959A94D4CFC701B6010E94BF34A2
:101320004B015C012B013C0106E080E492E4AFE05C
:10133000B0E08B8B9C8BAD8BBE8B102F0FEF010F12
:101340009AE04916510461047104C8F06B897C89E4
:101350008D899E892AE030E040E050E00E941A34F6
:101360002B8B3C8B4D8B5E8BC301B2012AE030E0AE
:1013700040E050E00E941A3429013A01DECFC50155
:10138000B4010E9405339B01AC01C701B6010E9464
:1013900055346B017C016B897C898D899E890E9403
:1013A00005339B01AC01C701B6010E9466332B01D6
:1013B0003C010E94BF346B017C010E9405339B01FC
:1013C000AC01C301B2010E9455349B01AC010E94E3
:1013D00056340E94BF34C60ED71EE81EF91E8B89F4
:1013E0009C89AD89BE89C816D906EA06FB06F8F0C5
:1013F0009FEF891A990AA90AB90AA989BA89AB2B58
:1014000099F0BAE08B169104A104B10468F0E9895F
:10141000FA893196FA8BE98BC12CD12C7601812C7B
:10142000912C5401839403C0C12CD12C76012AE065
:10143000422E512C612C712CC701B601A3019201DF
:101440000E941A34672B682B692B99F0012FB50184
:10145000A401C1010EDA112351F1188A4E01F0E105
:101460008F0E911C54019AE0492E512C612C712C45
:1014700006C011165CF769017A011150DDCF0150E9
:1014800068F0C701B601A30192010E941A34605DA1
:10149000D4016E934D0169017A01F1CFB501611B51
:1014A00071098EE2FB018293BF01C10188D989894C
:1014B0009A8997FF0AC06AE575E0C10180D96989F8
:1014C0007A8971956195710909C0A989BA89AB2B8F
:1014D00079F065E6C10111DA69897A89C1019FD97C
:1014E00007C000E210E085E0982E1A8A198AD5CE4E
:1014F00066960FB6F894DEBF0FBECDBFDF91CF91D9
:101500001F910F91FF90EF90DF90CF90BF90AF9021
:101510009F908F907F906F905F904F903F902F9013
:101520000895CF92DF92EF92FF920F931F93CF9384
:10153000DF937C018B01EA017CDDFC01892B39F40E
:10154000C70155DDFC01892B91F01383028388814B
:101550009981892B19F480E090E003C06E0187E047
:1015600090E095838483C682D78281E001C080E0C9
:10157000DF91CF911F910F91FF90EF90DF90CF906F
:101580000895EF92FF920F931F93CF93DF938C01F7
:10159000EB017A014EDDFC01892B39F4C80127DD0E
:1015A000FC01892BF9F0D383C283D7014D915C9163
:1015B00057FD07C0052E000C660B770B84E090E00A
:1015C00009C0519541955109052E000C660B770B0A
:1015D00085E090E095838483468357836087718795
:1015E00081E001C080E0DF91CF911F910F91FF90CA
:1015F000EF900895CF93DF93EC016881798188E0C3
:1016000090E0BED8009729F0FC011182108213826D
:101610001282EA81FB81309751F0208131812115BE
:10162000310511F0F901F9CF9183808302C09B83CA
:101630008A83DF91CF9108950895CF93DF93EC01D2
:10164000BC0184E090E09CD8FC01009729F0D18394
:10165000C0831382128211C08091FD0681110BC0DC
:101660001092FA061092F9061092FC061092FB06F0
:1016700081E08093FD0689EF96E0DF91CF91089598
:101680008091570681110BC0109254061092530698
:10169000109256061092550681E08093570683E516
:1016A00096E00895CF93DF93EC01BC0184E090E0D5
:1016B00067D8009741F0FC01D183C0831382128266
:1016C000DF91CF910895DF91CF91DACF08952F92D6
:1016D0003F924F925F926F927F928F929F92AF92C2
:1016E000BF92CF92DF92EF92FF920F931F93CF930F
:1016F000DF93CDB7DEB727970FB6F894DEBF0FBEE6
:10170000CDBF1B015E834D838901FC0182819381E2
:1017100020910802281721F02F3F09F0D0C205C000
:10172000E2E6F5E024912F8304C180930802E2E60B
:10173000F5E0E491EF3F09F4C2C2E23009F47EC063
:101740006CF5EE2309F459C0E13009F0F1C01092B4
:1017500080001092810020918100286020938100F8
:10176000209181002160209381009C013327F901A1
:10177000E458FC4FE491F0E0EE0FFF1FE85BFC4FF4
:101780004591549150933B0640933A06F901EE532C
:10179000FC4FE491E093390631E0C8C0E43009F42D
:1017A0009DC00CF473C0E53009F0C2C01092200156
:1017B0001092210120912101286020932101209184
:1017C00021012160209321019C013327F901E45874
:1017D000FC4FE491F0E0EE0FFF1FE85BFC4F4591FA
:1017E00054915093320640933106F901EE53FC4F69
:1017F000E491E093300635E099C014BC15BC24B5E3
:10180000226024BD25B5216025BD9C013327F90147
:10181000E458FC4FE491F0E0EE0FFF1FE85BFC4F53
:101820004591549150933E0640933D06F901EE5385
:10183000FC4FE491E0933C061F827EC01092B00002
:101840001092B1002091B00022602093B00020914E
:10185000B10021602093B1009C013327F901E458C5
:10186000FC4FE491F0E0EE0FFF1FE85BFC4F459169
:1018700054915093060740930507F901EE53FC4F2E
:10188000E491E0930707E2E0EF8356C010929000E6
:101890001092910020919100286020939100209156
:1018A00091002160209391009C013327F901E458B5
:1018B000FC4FE491F0E0EE0FFF1FE85BFC4F459119
:1018C00054915093380640933706F901EE53FC4F7C
:1018D000E491E0933606F3E0FF832EC01092A0005F
:1018E0001092A1002091A10028602093A1002091D6
:1018F000A10021602093A1009C013327F901E45845
:10190000FC4FE491F0E0EE0FFF1FE85BFC4F4591C8
:1019100054915093350640933406F901EE53FC4F31
:10192000E491E093330624E02F8306C03F8304C094
:10193000EF83EF81E7FDC3C12801012E000C66088B
:10194000770861E00E9433254101A12CB12C8F81E1
:101950008D7F09F0BDC060E072E18AE790E0A501EB
:1019600094010E94063529833A834B835C83690185
:101970007A01F1E0CF1AD108E108F1082FEFC21681
:10198000D104E104F10409F008F44DC060E472E40C
:101990008FE090E0A50194010E94063569017A016B
:1019A00081E0C81AD108E108F1089F81923001F561
:1019B000EFEFCE16D104E104F10409F008F4FCC104
:1019C00060E970ED83E090E0A50194010E94063586
:1019D00069017A01F1E0CF1AD108E108F1082FEF8F
:1019E000C216D104E104F10409F0E0F583E069C016
:1019F0003FEFC316D104E104F104B9F0B0F068E49C
:101A000078EE81E090E0A50194010E94063569011D
:101A10007A0181E0C81AD108E108F1089F81992371
:101A200009F46FC1C0C181E001C082E09F819923A8
:101A3000A1F047C089819A81AB81BC812AE0B5952C
:101A4000A795979587952A95D1F76C017D01E1E0DF
:101A5000CE1AD108E108F10885E095B5987F892B69
:101A600085BDA1C068E478EE81E090E0A501940115
:101A70000E94063569017A01F1E0CF1AD108E10828
:101A8000F1082FEFC216D104E104F10409F008F4C3
:101A900036C164E274EF80E090E0A50194010E94F9
:101AA000063569017A01E1E0CE1AD108E108F108B2
:101AB000FFEFCF16D104E104F10411F008F043C1A7
:101AC00085E09091B100987F892B8093B1006BC025
:101AD00060E072E18AE790E0A50194010E9406357A
:101AE00069017A01E1E0CE1AD108E108F108C114D8
:101AF000D104F1E0EF06F10488F068E478EE81E0CB
:101B000090E0A50194010E94063569017A0181E007
:101B1000C81AD108E108F10883E001C081E09F8183
:101B2000913071F490918100987F892B809381008E
:101B3000452846284728D9F52FEF3FEFA90168C06F
:101B4000EF81E33071F490919100987F892B80931D
:101B5000910045284628472851F52FEF3FEFA9016E
:101B600079C0FF81F43071F49091A100987F892BA6
:101B70008093A100452846284728C9F42FEF3FEF5E
:101B8000A9017AC02F81253071F490912101987FAD
:101B9000892B8093210145284628472841F42FEFBF
:101BA0003FEFA9017BC045284628472869F09101ED
:101BB000220F331FD8010E942A3528EE33E040E07F
:101BC00050E00E941A3403C02FEF3FEFA9018F812C
:101BD000823081F12CF4882361F08130C9F06FC02C
:101BE0009F81943009F448C0ACF1953009F456C097
:101BF00066C0C7BC20934F063093500640935106F1
:101C00005093520680916E00826080936E0057C0A0
:101C1000D0928900C092880020934B0630934C06E6
:101C200040934D0650934E0680916F0082608093E2
:101C30006F0045C0C092B300209308073093090796
:101C400040930A0750930B07809170008260809345
:101C5000700035C0D0929900C0929800209347063A
:101C6000309348064093490650934A06809171008C
:101C700082608093710023C0D092A900C092A80016
:101C800020934306309344064093450650934606FE
:101C90008091720082608093720011C0D0922901FD
:101CA000C092280120933F0630934006409341069E
:101CB0005093420680917300826080937300ED819F
:101CC000FE81BF01FF0F880B990B27960FB6F89482
:101CD000DEBF0FBECDBFDF91CF911F910F91FF905F
:101CE000EF90DF90CF90BF90AF909F908F907F90BC
:101CF0006F905F904F903F902F900C946F2584E0F1
:101D0000E0CEEFEFCE16D104E104F104D1F0C8F03B
:101D100062E17AE780E090E0A50194010E94063537
:101D200069017A0181E0C81AD108E108F1089FEF42
:101D3000C916D104E104F10411F008F07BCE84E06F
:101D40008CCE83E08ACE62E17AE780E090E0A50164
:101D500094010E94063569017A01F1E0CF1AD10899
:101D6000E108F1082FEFC216D104E104F104C9F033
:101D7000C0F089819A81AB81BC815AE0B595A79565
:101D8000979587955A95D1F76C017D0121E0C21A8C
:101D9000D108E108F1083F81332309F45DCE87E0E3
:101DA00090CE86E043CE3FEFC316D104E104F104A8
:101DB00009F048F684E03ACE82E083CE0895CF93CE
:101DC000DF93EC0189EE92E099838883CE01089637
:101DD0000E944121CE010296DF91CF910C944121C6
:101DE000CF93DF93EC0181EE92E099838883CE015B
:101DF0000C960E944121CE010696DF91CF910C9462
:101E000041216F927F928F929F92AF92BF92CF9219
:101E1000DF92EF92FF920F931F93CF93DF93EC012A
:101E20005B014A01690181EE92E0998388833E015A
:101E300086E0680E711C6FE375E0C3010E944E21BD
:101E40007E018CE0E80EF11C6FE375E0C7010E9493
:101E50004E21BB82AA829D828C82B601C3010E9460
:101E60001921B801C701DF91CF911F910F91FF9008
:101E7000EF90DF90CF90BF90AF909F908F907F902A
:101E80006F900C9419210C94D935CF93DF93EC010A
:101E9000A7DFCE01DF91CF910C94D9350C94D935C1
:101EA0000C94D9350C94D935CF92DF92EF92FF92F2
:101EB0000F931F93CF93DF938C017B01DC01159669
:101EC000CD91DC9116976B016C177D0708F46E01BC
:101ED000C60106960E944435FC01892BB1F0D382DD
:101EE000C282D80113968D919C911497918380831F
:101EF0001496FC93EE931397CC0FDD1F1696DC938C
:101F0000CE931597F582E4823696CF01DF91CF917B
:101F10001F910F91FF90EF90DF90CF900895DC011B
:101F20001396ED91FC911497309751F024813581EF
:101F3000AB01420F531FA281B381A417B50708F468
:101F4000B3CFC9010696558344838E0F9F1F089512
:101F500070D8FC01892B09F44BC0848195818330B2
:101F600091053CF4813091057CF4009709F447C059
:101F700038C0853091052CF0059799F566817781F9
:101F80002BC08681978108950680F781E02D3097D8
:101F900079F18081843779F18B3229F08D3221F407
:101FA000319691E002C0319690E060E070E03AE056
:101FB000819120ED280F2A3068F4369FA001379FC9
:101FC000500D1124682F880F770B60537109640F2F
:101FD000751FEECF992391F088279927861B970BC1
:101FE000089566817781808591850E94BA3406C004
:101FF00080E090E0089581E090E00895CB0108959D
:10200000FF920F931F93CF93DF93EC01F62E8881FD
:102010009981FC01A381B481109771F01496ED9120
:10202000FC9115979F012F5F3F4F12964D915C9148
:1020300013974217530750F52C813D81B9016F5F0B
:102040007F4F32DF8C016A817B816115710549F018
:102050000115110571F04C815D81C8010E9459374D
:1020600003C00115110529F0EC81FD81E00FF11F7E
:10207000F0821B830A838C819D8101969D838C83D2
:10208000DF91CF911F910F91FF9008953696EA0F3F
:10209000FB1F15963C932E93149760838C819D8132
:1020A000892B49F7FB83EA83E6CFCF92DF92EF9249
:1020B000FF920F931F93CF93DF93EC016B017A0193
:1020C00089EE92E0FE01819391938F016FE375E0B9
:1020D000CF010E944E2128966FE375E0CE010E9449
:1020E0004E21B601C8010E941921B701CE01DF912E
:1020F000CF911F910F91FF90EF90DF90CF900C94B4
:1021000019210895FC01A081B1818C918D3051F08D
:1021100024F489508230B8F505C0803219F08F322E
:1021200019F0089511962CC011968C9111978A324E
:1021300019F08F32D1F008951196B183A083A08158
:10214000B181CD0101969183808311968C91119775
:102150008823C9F08A3299F712968C9112978F32A0
:1021600071F713960DC08A3071F2A081B181CD0153
:1021700001969183808311968C918111F4CF03C0D5
:10218000B183A083C0CF08950F931F93CF93DF93A4
:102190001F92CDB7DEB78C016983B4DFD801ED9112
:1021A000FC91119780816981861305C03196ED936A
:1021B000FC9381E001C080E00F90DF91CF911F91EF
:1021C0000F9108950E941908009749F0FC0124819D
:1021D00035812730310519F486819781089550CAD9
:1021E000CF92DF92EF92FF920F931F93CF93DF93E3
:1021F000CDB7DEB72C970FB6F894DEBF0FBECDBFBC
:102200008C01CB01BA010E9419087C01009709F4E6
:102210004DC0FC01C480D580F1E0CF16D10461F43B
:10222000FC01668177816115710531F080E495E0EC
:102230000E946937892B69F0F1E0CF1AD10882E05A
:10224000C816D10430F4F7016681778161157105F4
:1022500079F56FE375E0CE0101966C010E944E2185
:10226000DC86CB86CE010B9698878F831A861986DB
:10227000BE01695F7F4FC70104960E946008898193
:102280009A81F801918380838B819C8193838283DF
:102290008D819E81958384831A8219821C821B8280
:1022A0001E821D82C6010E94412105C06FE375E0B8
:1022B000C8010E944E21C8012C960FB6F894DEBFCB
:1022C0000FBECDBFDF91CF911F910F91FF90EF9087
:1022D000DF90CF900895EF92FF921F93CF93DF93FB
:1022E00000D000D0CDB7DEB77C01DC0114968D9113
:1022F0009C9115979A8389831C821B821E821D8262
:10230000C7010296FFDED7011296ED91FC9113975B
:102310001081173231F1123221F180ED810F8A30B4
:1023200078F081EA810F8C3158F08FEB810F8A3180
:1023300038F01B3229F083ED810F823008F042C063
:10234000F70182819381019693838283612FCE016D
:10235000019656DED7011296ED91FC9113971081EC
:10236000DCCF3196D7011396FC93EE931297D701E9
:102370001296ED91FC9113976081662319F1CF01BC
:10238000019613969C938E9312976117D9F06C3532
:10239000A9F46181A5E3B5E08C91882339F0861317
:1023A00003C011966C9102C01296F6CF662351F0CD
:1023B0003296D7011396FC93EE931297CE010196B5
:1023C0001FDED5CF60E0CE0101961ADE8B819C81A5
:1023D00026960FB6F894DEBF0FBECDBFDF91CF912A
:1023E0001F91FF90EF9008959F92AF92BF92CF926E
:1023F000DF92EF92FF920F931F93CF93DF9300D062
:1024000000D0CDB7DEB7D82EC92E082F192FF8016E
:10241000819191918F0146D97C016BE7C801B4DEAF
:10242000882309F43DC06DE7C801AEDE81113AC0D2
:1024300086E0982E8D2D9C2D4EDF5C01892B81F13D
:102440006AE3C801A1DE882359F11A821982BE010C
:102450006F5F7F4F8D2D9C2D11D5882309F1B5011C
:10246000C7010E941908009741F4C7010E94F707AD
:102470000097B1F0FC01B382A282FE013196DC012B
:102480001496892D01900D928A95E1F76DE7C801A8
:102490007BDE811107C06CE2C80176DE8111CACFF4
:1024A000EFD801C0C70126960FB6F894DEBF0FBE65
:1024B000CDBFDF91CF911F910F91FF90EF90DF90F3
:1024C000CF90BF90AF909F9008950895AF92BF9224
:1024D000CF92DF92EF92FF920F931F93CF93DF93F0
:1024E000CDB7DEB768970FB6F894DEBF0FBECDBF8D
:1024F0007C018A0166E675E0CA012ADD6C016DE6A1
:1025000075E0C80125DD5C0144E755E0B801CE0166
:10251000079666DE4BE755E0B801CE01019660DE16
:10252000C60175D4C50173D4CE01079641D3CE013F
:1025300001963ED3BE016F5F7F4FCE0143960E944E
:102540004621BE01695F7F4FCE010D960E94462154
:102550008E010D5E1F4F9E01235F3F4FA501B60107
:10256000C7014FDCCE010D960E944121C8010E9497
:102570004121CE0101960E944121CE0107960E9481
:102580004121C70168960FB6F894DEBF0FBECDBFDC
:10259000DF91CF911F910F91FF90EF90DF90CF903F
:1025A000BF90AF900895089508956F927F928F9293
:1025B0009F92AF92BF92CF92DF92EF92FF920F93D2
:1025C0001F93CF93DF931F921F92CDB7DEB78C017D
:1025D0007A01FC018581968169837A830E94C21CFD
:1025E00069817A81882391F1F801858196810E9421
:1025F000731C40E06EEBF801858196810E94321CCD
:1026000037015701F9E0AF0EB11CF80185809680C3
:1026100088E0C82ED12CEE24E394F12CC4010E9452
:102620009E1C8111FE28EE0CF1E0CF1AD108B1F703
:10263000F301F1923F01EA15FB0539F7F8018581B5
:1026400096810E94C21C91E0813009F090E0892FB0
:102650000F900F90DF91CF911F910F91FF90EF900E
:10266000DF90CF90BF90AF909F908F907F906F90B2
:102670000895CF93FC01C48121E02093D006C0933C
:10268000F10610921806109217068385682B83EEC8
:1026900098E00E947E0380911706813208F046C0C0
:1026A000909116069111FCCF92E09093160691E05E
:1026B000909315069FEF9093CF061092CE068093CD
:1026C000CD06A1EDB6E02DEA36E0F9019E2F921B72
:1026D000981718F49D919193F9CF1092AC068091C0
:1026E000AC06CC0FC82BC093AC0680911406813089
:1026F00061F4109214068091AC068093BB00809127
:10270000BC0083FDF8CF85EC01C085EE8093BC0052
:10271000809116068230E1F38091CF068F3F31F031
:102720008091CF06803211F08091CF06109218066A
:10273000109217061092D006CF9108950F931F9311
:10274000CF938C01C62F95DF6C2F6460C80191DF99
:102750006C2F6B7FC8018DDF83EC90E00197F1F760
:10276000CF911F910F9108950F931F93CF93DF93F4
:102770008C01D62FC42F607F642BE0DF6D2F629514
:10278000607F6C2BC801DF91CF911F910F91D6CF45
:1027900041E0EADF81E090E0089540E061E0E4DFBD
:1027A0008BE39FE10197F1F70895DC01E0E06150D0
:1027B00038F08D91E827F0E0E85BFD4FE491F7CF2A
:1027C0008E2F0895CF93DF93CDB7DEB729970FB63D
:1027D000F894DEBF0FBECDBFFB012081203109F18F
:1027E000AE014F5F5F4FE1DE882371F068E0CE01FC
:1027F0000196DBDF9985891307C008C0803458F043
:102800008F3569F08F3769F080E00CC08D818F3390
:10281000A9F78AE007C08F31B9F789E003C08BE0E0
:1028200001C08CE029960FB6F894DEBF0FBECDBF75
:10283000DF91CF9108952F923F924F925F926F92C6
:102840007F928F929F92AF92BF92CF92DF92EF9240
:10285000FF920F931F93CF93DF93CDB7DEB7C6568A
:10286000D2400FB6F894DEBF0FBECDBF6C017B0126
:10287000CE0109969C838B8388E592E09E838D83AD
:1028800018861F8289EF92E09A838983CE01019690
:102890000E94520B8C01D70112968D919C91139737
:1028A000CF59DD4F99838883C156D240AE014F592D
:1028B0005D4F6AE875E0C8010E94C10AF7014480D3
:1028C0005580668077806EE875E0C8010E9419081F
:1028D000009761F4C8010E94F707009781F02EE885
:1028E00035E0DC0113963C932E93129728E030E0FC
:1028F000FC01358324834682578260867186F80105
:1029000080819181009781F48091FD06811131C011
:102910001092FA061092F9061092FC061092FB062D
:1029200081E08093FD0625C00E941D0B7C0163E9B8
:1029300075E0C8010E941908FC01892B51F4C801F7
:102940000E94F707FC01892BB9F083E995E0938396
:102950008283D7018D919C91892B19F480E090E0BE
:1029600003C0570186E090E095838483A682B782F6
:1029700003C089EF96E001C0C7010E94FA0A0097E0
:1029800049F022E030E0FC013383228327E935E07F
:1029900035832483CE0101960E94520B5C0182E2B2
:1029A000682E712CCF59DD4F79826882C156D24092
:1029B000AE014F595D4F66E973E0C5010E94C10A3F
:1029C00091E2892E912CCF59DD4F99828882C15690
:1029D000D240AE014F595D4F63EA75E0C5010E94D8
:1029E000C10A23E3222E322C29E6422E22E4522E63
:1029F000CF59DD4F288239824A825B82C156D2404C
:102A0000BE016F597D4FC5010E94672465EA75E0DC
:102A1000C5010E949324CE0101960E94520B7C01B5
:102A2000CF59DD4F79826882C156D240AE014F59ED
:102A30005D4F66E973E00E94C10ACF59DD4F99826C
:102A40008882C156D240AE014F595D4F63EA75E0AE
:102A5000C7010E94C10ACF59DD4F288239824A82BC
:102A60005B82C156D240BE016F597D4FC7010E94A3
:102A700067246BEA75E0C7010E949324CE0101969A
:102A80000E94520B4C01A50160EB75E00E94910A77
:102A9000A70164EB75E0C4010E94910AD8018D91F1
:102AA0009C91009719F40E94400B08C00E94520BA1
:102AB000AC0169EB75E0C8010E94910AA40169EBC1
:102AC00075E0C8010E94910A6FE375E0C6010E949B
:102AD0004E21FE01EB59FD4FD182C082CF59DD4F0F
:102AE000F983E883C156D240CD59DD4F198218824F
:102AF000C356D240BE016F597D4FC8010E943408B1
:102B0000F601448155816081718186E498E00E94DC
:102B10000C1FC601CA59DD4F0FB6F894DEBF0FBEB9
:102B2000CDBFDF91CF911F910F91FF90EF90DF907C
:102B3000CF90BF90AF909F908F907F906F905F905D
:102B40004F903F902F900895FC0101900020E9F7ED
:102B500031979F01281B390BE091FD08F091FE0889
:102B6000E21BF30B4091F9085091FA08E417F507BE
:102B700030F46091F7087091F808E60FF71F280FFE
:102B8000391F6091FB087091FC08DC0182179307E4
:102B900058F40196BC91A081BA1308C03196E6178B
:102BA000F70799F7FA01F1CF81E0089580E00895E1
:102BB000CF93DF93FC01448155816081718186E46C
:102BC00098E00E940C1FEC0186E498E00E944D23DF
:102BD0008C0F9D1FDF91CF910895CF93DF93EC0170
:102BE00081E096D7BE018091F7069091F8060E9489
:102BF000602341E060E070E088EE93E0DF91CF91E8
:102C0000A2C7EF92FF920F931F93CF93DF931F9270
:102C10001F92CDB7DEB77C01162F072F61E873E056
:102C200086E498E049835A830E9470236DE974E03A
:102C300086E498E00E94892260E075E086E498E0EE
:102C40000E947023612F702F86E498E00E94502329
:102C5000E8E0F2E023E030E05A81498192918291EC
:102C6000019621F021503109C8F72FEFF701248791
:102C70002F3F21F15F934F930F931F931F922F9339
:102C800083E18F9388E88F9380E894E09F938F93FC
:102C90000E94D2040FB6F894DEBF0FBECDBF892BC1
:102CA000C9F4F701848590E0FC01EE0FFF1FE050AE
:102CB000FE4F9183808381E090E00EC061E873E075
:102CC00086E498E00E9470236CE674E086E498E065
:102CD0000E94602380E090E00F900F90DF91CF91F1
:102CE0001F910F91FF90EF900895CF93DF93CDB791
:102CF000DEB728970FB6F894DEBF0FBECDBF28E031
:102D0000EDEEF2E0DE01119601900D922A95E1F7C9
:102D1000FC012085261710F46FEF620FFE0131963B
:102D2000E60FF11DE60FF11D6081606840E0289616
:102D30000FB6F894DEBF0FBECDBFDF91CF9114CD9B
:102D4000CF92DF92EF92FF920F931F93CF93DF9377
:102D5000EC016A017B01E889F98982E080834115F1
:102D6000514E61057105B1F060E079E08DE390E0CE
:102D7000A70196010E941A3489019A010150110994
:102D80002109310936952795179507959801011561
:102D90001041A8F0E889F989108260E874E88EE1B2
:102DA00090E0A70196010E941A34DA01C901019747
:102DB000A109B109B695A795979587959C01EC85D2
:102DC000FD853083EE85FF852083188EEC89FD8993
:102DD00086E08083EA89FB89808180618083EA893B
:102DE000FB89808188608083EA89FB898081806893
:102DF0008083EA89FB8980818F7D8083DF91CF91F9
:102E00001F910F91FF90EF90DF90CF900895CF9298
:102E1000DF92EF92FF92CF93DF936C01990FEE0850
:102E2000FF08F7FE16C06DE286E498E00E94822259
:102E3000EC0144275527BA014C195D096E097F0939
:102E40002AE086E498E00E94C2227C01EC0EFD1E7E
:102E500008C02AE0B701A60186E498E00E94C222D9
:102E60007C0186E498E00E944D238E0D9F1DDF912A
:102E7000CF91FF90EF90DF90CF9008959F92AF9207
:102E8000BF92CF92DF92EF92FF920F931F93CF9357
:102E9000DF93CDB7DEB727970FB6F894DEBF0FBE2E
:102EA000CDBFFC019681992309F4A6C07B018F0157
:102EB000915096836F0182E0C80ED11CC60122D9C1
:102EC000D8011296ED91FC91139780818B3521F0FA
:102ED0008B3709F459C06BC0F801808191810E9441
:102EE0001D0B5C016BE5C6014FD9882341F16DE5EF
:102EF000C6014AD9811133C086E0982E1A82198200
:102F0000BE016F5F7F4FC801B9DF8823C1F0C501E3
:102F10000E94FA0A009799F0FE013196DC011296A0
:102F2000892D01900D928A95E1F76DE5C6012CD9A6
:102F3000811115C06CE2C60127D98111DFCF8091C4
:102F4000FD0681110EC01092FA061092F906109239
:102F5000FC061092FB0681E08093FD0602C0F5019D
:102F600002C0E9EFF6E080819181892B11F420E025
:102F70003EC086E090E0D70111969C938E93139605
:102F8000FC93EE93129711C0C8012EDAFC01208148
:102F90003181232B61F327E030E0D70111963C9378
:102FA0002E9313969C938E93129721E020C021E0DC
:102FB000873219F0823209F020E0C8012F838BD9C3
:102FC0002F810097A1F2222341F042E050E0F70167
:102FD00051834083938382830AC021E030E0D7018C
:102FE00011963C932E9313969C938E931297F8010F
:102FF00086818F5F868301C020E0822F27960FB6DF
:10300000F894DEBF0FBECDBFDF91CF911F910F911E
:10301000FF90EF90DF90CF90BF90AF909F9008957A
:10302000AF92BF92CF92DF92EF92FF921F93CF9316
:10303000DF9300D01F92CDB7DEB75C01C5010E94BF
:103040002622FC0197FD0FC08D32910581F0C097BB
:103050000A9768F0D501ED91FC910284F385E02D8B
:10306000C5011995EBCF60E070E0CB014AC020E0CC
:1030700030E0A90110E0E130F105E9F0ED32F105B1
:10308000C9F0CF01C0970A97B0F4AAE0B0E00E945F
:103090003C346F01FF0FEE08FF08DC01CB018C0D03
:1030A0009D1DAE1DBF1D9C01AD012053310941097D
:1030B000510901C011E0D501ED91FC910284F38525
:1030C000E02DC50129833A834B835C831995C501A3
:1030D0000E942622FC01C09729813A814B815C81A4
:1030E0000A9748F2E130F10531F2112341F06627E9
:1030F0007727CB01621B730B840B950B02C0CA01AF
:10310000B9010F900F900F900F90DF91CF911F9109
:10311000FF90EF90DF90CF90BF90AF9008958F9287
:103120009F92AF92BF92CF92DF92EF92FF92CF9396
:10313000DF93F82EEB01E42E69010E94A7254B01D5
:103140005C018091F7069091F806DC01ED91FC910D
:103150000084F185E02D1995892B09F472C08091C6
:10316000F7069091F806DC01ED91FC91EE2031F02C
:103170000484F585E02D1995888318C00284F385B1
:10318000E02D199588838091F3069091F406A09123
:10319000F506B091F6060197A109B1098093F306EF
:1031A0009093F406A093F506B093F6068091F3068B
:1031B0009091F406A091F506B091F606892B8A2B22
:1031C0008B2B11F081E08CC065E070E080E090E036
:1031D0000E946F258091F7069091F806DC01ED9131
:1031E000FC910084F185E02D1995892B59F380918C
:1031F000F7069091F806DC01ED91FC910484F585C9
:10320000E02D19952F2D30E0205D3F4F8217930759
:10321000C9F640E06EEB75E084EF91E094D4059739
:1032200061F061E873E086E498E00E94702367E54E
:1032300074E086E498E00E94602381E0F6018083D8
:103240004FC00E94A725DC01CB0188199909AA0962
:10325000BB09803D9740A105B10508F472CF61E834
:1032600073E086E498E00E9470236EE474E086E4E4
:1032700098E00E94892260E075E086E498E00E9470
:103280007023C090F306D090F406E090F506F0901D
:10329000F606F7FE0EC06DE286E498E00E948222F8
:1032A00044275527BA014C195D096E097F092AE0A8
:1032B00003C02AE0B701A60186E498E00E94C2227A
:1032C00086E498E00E944D231092F3061092F406D3
:1032D0001092F5061092F6061092F206188280E01F
:1032E000DF91CF91FF90EF90DF90CF90BF90AF90A4
:1032F0009F908F900895CF93DF93282F30E0F901AE
:10330000E85FFB4F8491F901EE53FC4FD491F90132
:10331000E458FC4FC491CC2391F081110E94DD242C
:10332000EC2FF0E0EE0FFF1FEE59FC4FA591B4918A
:10333000EC91ED2381E090E021F480E002C080E098
:1033400090E0DF91CF9108951F93CF93DF93282FC3
:1033500030E0F901E85FFB4F8491F901EE53FC4F37
:10336000D491F901E458FC4FC491CC23C9F0162F35
:1033700081110E94DD24EC2FF0E0EE0FFF1FE85BCF
:10338000FC4FA591B4918FB7F894111105C09C9191
:10339000ED2FE095E92302C0EC91ED2BEC938FBF6C
:1033A000DF91CF911F910895FC0190810180F281FE
:1033B000E02D892F809560FF12C0F894228182232E
:1033C00082838181892B8183A3E2B0E01197F1F799
:1033D0008281982B9283789487ED90E011C0F894C5
:1033E0002281822382838181892B8183AFEFB0E0A8
:1033F0001197F1F78281982B928378948FE090E077
:103400000197F1F7089521E0FC0184858F3F09F4CD
:1034100020E0822F0895CF93DF93EC01E881F981BA
:103420000084F185E02DCE011995892B41F0E881CA
:10343000F9810284F385E02DCE011995EFCFDF915C
:10344000CF910895CF93DF931F92CDB7DEB76983F5
:10345000DC01ED91FC910280F381E02D41E050E030
:10346000BE016F5F7F4F19950F90DF91CF91089547
:10347000FC0184858F3F21F00E94940597FF02C0D4
:1034800080E090E00895CF92DF92EF92FF920F9349
:103490001F93CF93DF93CDB7DEB76E970FB6F89437
:1034A000DEBF0FBECDBFFC0184858F3FD1F17F0110
:1034B0000E949405892B11F094E034C0D7011C962A
:1034C0008C911F928F9383E595E09F938F93FE01DC
:1034D00031966F01FF93EF930E94F02F0AE010E006
:1034E0009E012B5E3F4F49E455E0B60186E495E02E
:1034F0000E940D050F900F900F900F900F900F905E
:103500008111DACFD7011C96EC911C97F0E0EE0FF9
:10351000FF1FE050FE4F8FEF9FEF918380831C963B
:103520008C9390E081E0943009F080E06E960FB6C5
:10353000F894DEBF0FBECDBFDF91CF911F910F91E9
:10354000FF90EF90DF90CF900895CF93DF93FC0131
:1035500024852F3FE1F1EC0161E873E086E498E017
:103560000E94702367E375E086E498E0D2D760E0BC
:1035700075E086E498E00E9470234C8550E060E09E
:1035800070E02AE086E498E0FDD786E498E00E94A7
:103590004D238C851F928F938FE08F9380EA8F93BA
:1035A00088E295E09F938F930E94D204EC85F0E02F
:1035B000EE0FFF1FE050FE4F8FEF9FEF9183808350
:1035C0008C870F900F900F900F900F900F90DF91BE
:1035D000CF9108950F931F93CF93DF931F921F9264
:1035E000CDB7DEB78C01DC01ED91FC910084F18553
:1035F000E02D1995892B21F11982F801848590918C
:10360000F206891308C09E012F5F3F4F40E0BE01C4
:103610006E5F7F4F84DD8981882379F0D8011C9605
:10362000EC911C97F0E0EE0FFF1FE050FE4F8FEF84
:103630009FEF918380831C968C938A8190E002C0D7
:103640008FEF9FEF0F900F90DF91CF911F910F9110
:1036500008950F931F93CF93DF931F921F92CDB7BF
:10366000DEB78C01DC01ED91FC910084F185E02D49
:103670001995892B21F11982F80184859091F20620
:10368000891308C09E012F5F3F4F41E0BE016E5F6E
:103690007F4F45DD8981882379F0D8011C96EC9114
:1036A0001C97F0E0EE0FFF1FE050FE4F8FEF9FEFF3
:1036B000918380831C968C938A8190E002C08FEF67
:1036C0009FEF0F900F90DF91CF911F910F91089571
:1036D0008F929F92AF92BF92CF92DF92EF92FF9222
:1036E0000F931F93CF93DF931F921F92CDB7DEB737
:1036F0007C018A01DC01ED91FC910084F185E02DD3
:1037000069837A83199569817A81892B19F48FEFFE
:103710009FEF58C0F70194858091F206981350C02E
:103720008091F3069091F406A091F506B091F6060B
:103730004801A12CB12C88159905AA05BB050CF4EC
:103740008C016B017B01E00EF11ECE14DF04B1F1A0
:103750000E94A7254B015C018091F7069091F80625
:10376000DC01ED91FC910284F385E02D199597FF22
:103770000EC00E94A725DC01CB0188199909AA096E
:10378000BB09883E9340A105B10530F3C0CFD601F7
:103790008D936D018091F3069091F406A091F5064A
:1037A000B091F6060197A109B1098093F3069093B1
:1037B000F406A093F506B093F606C7CFC80102C081
:1037C00080E090E00F900F90DF91CF911F910F91CB
:1037D000FF90EF90DF90CF90BF90AF909F908F9031
:1037E0000895EF92FF920F931F93CF93DF93CDB77E
:1037F000DEB762970FB6F894DEBF0FBECDBF7C0177
:10380000FB0185811F928F9384811F928F93838107
:103810001F928F9382811F928F932BEB34E03F9303
:103820002F938E010F5F1F4F1F930F93498B5A8B5E
:103830000E94F02F49895A89B801C701E2D90FB611
:10384000F894DEBF0FBECDBF62960FB6F894DEBF10
:103850000FBECDBFDF91CF911F910F91FF90EF90E1
:103860000895CFC9CF92DF92EF92FF920F931F93EB
:10387000CF93DF931F92CDB7DEB76C01E62E08E041
:1038800010E0FF24F39461E08F2D8E2109F460E0B5
:10389000C601498389DDFF0C0150110949810115D9
:1038A000110589F7411115C0F894D6011196ED91D3
:1038B000FC91129791818C91809589238183119637
:1038C000ED91FC91129792818C918095892382834E
:1038D00078940F90DF91CF911F910F91FF90EF900F
:1038E000DF90CF900895CF92DF92EF92FF920F93E7
:1038F0001F93CF93DF931F92CDB7DEB78C01F62EC7
:1039000040E065E57983AEDFCF2C7981D72E760153
:1039100088E0E80EF11CF60161916F0140E0C801FA
:10392000A1DFCE14DF04B9F70F90DF91CF911F9183
:103930000F91FF90EF90DF90CF900895FC01908160
:103940000180F281E02DF8948181892B818322818D
:10395000892F809528232283A7E0B0E01197F1F703
:10396000218182238183A3E2B0E01197F1F7808166
:103970007894EFECF0E03197F1F7982381E009F4C7
:1039800080E00895FC0190810180F281E02DF8949F
:103990008181292F20958223818378948DE743E0CC
:1039A00050E0815021F1DA011197F1F7308139238C
:1039B000C1F3F8948281822382838181892B818360
:1039C0007894ABE7B7E01197F1F7F8948181282359
:1039D0002183A3E1B1E01197F1F78081982381E081
:1039E00009F080E07894E3E6F6E03197F1F7089586
:1039F000AF92BF92CF92DF92EF92FF920F931F93FD
:103A0000CF93DF931F92CDB7DEB75C01E62ED72EA2
:103A1000FC018585811158C0C501B4DF811105C045
:103A2000F50113861586148667C040E060EFC50176
:103A300019DF01E0F12CC12C11E0C5017FDF682FF7
:103A4000C50169837BDF6981613019F48130B9F484
:103A500032C04F2D50E068131BC0F5018385181745
:103A600030F4E40FF51F8381802349F402C0181756
:103A700031F060E0193058F4F501148708C0F50101
:103A8000EF0DF11D8381802B838361E009C0C12E7E
:103A9000F501E40FF51F9381802F8095892383839F
:103AA000C50182DC1F5F000F11F4F39401E0F7E021
:103AB000FF1508F0C2CF113438F0F501C386C110EC
:103AC00015C081E0858712C0F5011386158614861E
:103AD00080E0D5011396EE2DFD2D9501255F3F4F1A
:103AE0009D919193A217B307D9F706C0F501838181
:103AF000882351F381E0EDCF0F90DF91CF911F919B
:103B00000F91FF90EF90DF90CF90BF90AF9008950E
:103B10008091F7069091F806DC01ED91FC9100840C
:103B2000F185E02D19951816190664F48091F706B1
:103B30009091F806DC01ED91FC910284F385E02D73
:103B40001995E6CF08953F924F925F926F927F92C0
:103B50008F929F92AF92BF92CF92DF92EF92FF929D
:103B60000F931F93CF93DF936C015B01342E8091F1
:103B7000F9089091FA089093FE088093FD08E7D722
:103B80002B013C01CFEFDFEF0D2C000CEE08FF08FE
:103B9000DED7DC01CB0184199509A609B7098C157C
:103BA0009D05AE05BF0508F05DC0CF3FFFEFDF0705
:103BB00009F058C08091F7069091F806DC01ED916C
:103BC000FC910084F185E02D1995892B09F38091F2
:103BD000F7069091F806DC01ED91FC910284F385E3
:103BE000E02D1995E091FD08F091FE088083809109
:103BF000FD089091FE0801969093FE088093FD08C1
:103C00002091FB083091FC088217930740F08091C7
:103C1000F9089091FA089093FE088093FD08A1148A
:103C2000B10439F0C5010E94A415882311F0C5E044
:103C3000D0E0332009F4ACCF81E0882E83E0982EC9
:103C400000E010E0F401819191914F010E94A415D0
:103C5000811106C00F5F1F4F0530110599F798CFEE
:103C6000E80196CF74D7DC01CB0184199509A60928
:103C7000B7098C159D05AE05BF0550F061E873E0EE
:103C800086E498E02DD56BEA74E086E498E018D5D8
:103C9000CE01DF91CF911F910F91FF90EF90DF90B8
:103CA000CF90BF90AF909F908F907F906F905F90DC
:103CB0004F903F900895AF92BF92CF92DF92EF92D4
:103CC000FF920F931F93CF93DF93CDB7DEB7649727
:103CD0000FB6F894DEBF0FBECDBF7C015B018A0139
:103CE000DC011C968C91843018F44115510531F497
:103CF00081E090E0F7019383828379C01F934F9313
:103D00001F928F938DEF94E09F938F939E012F5F6F
:103D10003F4F69013F932F930E94F02FB60180918E
:103D2000F7069091F806BCD440E068EC75E088EEA8
:103D300093E009DF0FB6F894DEBF0FBECDBF059745
:103D400041F061E873E086E498E0CAD462EE74E082
:103D50001DC08091F7069091F806DC01ED91FC9171
:103D60000280F381E02DA801B501199541E060E0E2
:103D700070E080ED97E0E7DE039709F43BC061E86F
:103D800073E086E498E0ACD467EC74E086E498E0F5
:103D900097D481E090E0F7019383828361E873E038
:103DA00086E498E09DD46EE075E086E498E0B1D3B7
:103DB00060E075E086E498E093D4D7011C964C91BE
:103DC00050E060E070E02AE086E498E0DBD386E42F
:103DD00098E063D460EA7FE080E090E080D6D7018D
:103DE000ED91FC910488F589E02DC701199580E0DB
:103DF00090E001C0C80164960FB6F894DEBF0FBE14
:103E0000CDBFDF91CF911F910F91FF90EF90DF9089
:103E1000CF90BF90AF900895CF92DF92EF92FF9234
:103E20000F931F93CF93DF936C017A018B01C0E056
:103E3000D0E0CE15DF0589F0D8016D918D01D60156
:103E4000ED91FC910190F081E02DC6011995892B2F
:103E500011F47E0102C02196ECCFC701DF91CF9112
:103E60001F910F91FF90EF90DF90CF900895FC018C
:103E7000A089B1898C91A689B78982FD0FC09C91D8
:103E8000818D8F5F8F73228D821749F0218DDF0125
:103E9000A20FB11D5D969C93818F08958C9108951A
:103EA000FC01538D448D252F30E0842F90E0821B40
:103EB000930B541710F0CF96089501970895FC01C5
:103EC000918D828D981761F0828DDF01A80FB11D51
:103ED0005D968C91928D9F5F9F73928F90E0089575
:103EE0008FEF9FEF0895FC01918D828D981731F02F
:103EF000828DE80FF11D858D90E008958FEF9FEF83
:103F00000895FC01918D228D892F90E0805C9F4F58
:103F1000821B91098F73992708958CE097E0F1DF58
:103F200021E0892B09F420E0822F089589EA97E0A7
:103F3000E8DF21E0892B09F420E0822F089586E450
:103F400098E0DFDF21E0892B09F420E0822F08953B
:103F5000FC01848DDF01A80FB11DA35ABF4F2C9126
:103F6000848D90E001968F739927848FA689B789F5
:103F70002C93A089B1898C9180648C93938D848DCE
:103F8000981306C00288F389E02D80818F7D80839D
:103F90000895EF92FF920F931F93CF93DF93EC015D
:103FA00081E0888F9B8D8C8D981305C0E889F989F5
:103FB000808185FD23C0F62E0B8D10E00F5F1F4F13
:103FC0000F731127E02E8C8DE8120BC00FB607FC83
:103FD000FACFE889F989808185FFF5CFCE01B8DF76
:103FE000F2CF8B8DFE01E80FF11DE35AFF4FF082F7
:103FF0000B8FEA89FB898081806207C0EE89FF8987
:104000006083E889F98980818064808381E090E021
:10401000DF91CF911F910F91FF90EF900895CF9373
:10402000DF93EC01888D8823C1F0EA89FB898081C8
:1040300085FD05C0A889B9898C9186FD0EC00FB693
:1040400007FCF5CF808185FFF2CFA889B9898C91D3
:1040500085FFEDCFCE017CDFE8CFDF91CF910895D2
:1040600080E090E0892B19F06ADF81111BC080E0AD
:1040700090E0892B19F05ADF811117C080E090E0A1
:10408000892B19F04ADF811113C080E090E0892B61
:10409000A1F080E090E0892B81F00E940000811166
:1040A0000AC008950E940000E2CF0E940000E6CFFF
:1040B0000E940000EACF0C94000008950E9455373A
:1040C0000F931F93CF93DF93EC0188819981009721
:1040D00029F02A813B812617370788F48B016F5F0F
:1040E0007F4F0E947136009761F0998388831B830C
:1040F0000A832C813D81232B11F4FC01108281E085
:1041000001C080E0DF91CF911F910F910895CF936F
:10411000DF93EC010E94DF0ECE01DF91CF910C9472
:10412000D935FC0124813581FB0144815581241757
:10413000350721F5FC0180819181FB01608171814E
:10414000009719F061157105A1F46115710549F029
:10415000232BB1F0FB01808190E09195819591092D
:104160000AC0009769F0232B59F0FC01808190E090
:1041700002C00E94693721E0892B19F020E001C0BC
:1041800021E0822F0895EF92FF920F931F93CF9318
:10419000DF93FC01248135816115710511F480E004
:1041A00018C041155105A1F07B01EC018A01020FF5
:1041B000131FB80185DF882391F3288139818C8111
:1041C0009D81B701820F931F0E9472371D830C835C
:1041D00081E0DF91CF911F910F91FF90EF900895B3
:1041E000CF93DF93EC0188819981009711F00E94B1
:1041F000D935198218821D821C821B821A82DF9196
:10420000CF910895CF93DF93EC016115710559F0BB
:10421000FB0101900020E9F73197AF01461B570BD6
:10422000B2DF811102C0CE01DBDFCE01DF91CF9181
:104230000895EF92FF920F931F93CF93DF93EC01BA
:10424000FB0186179707A9F000811181011511055F
:1042500031F0E480F580B70133DF811103C0CE0176
:10426000BFDF07C0FD82EC82B801888199810E947E
:104270007237CE01DF91CF911F910F91FF90EF9098
:104280000895FC01808191810C94D935FC01118243
:1042900010821382128215821482CBCFEF92FF928A
:1042A0000F931F93CF93DF93EC01198218821B8227
:1042B0001A821D821C826115710511F18B01FB01AF
:1042C00001900020E9F731977F01E61AF70AB7015C
:1042D000F7DE811108C0CE01DF91CF911F910F91C0
:1042E000FF90EF907DCFFD82EC82B80188819981AB
:1042F000DF91CF911F910F91FF90EF900C94723747
:10430000DF91CF911F910F91FF90EF9008951F9231
:104310000F920FB60F9211240BB60F922F933F936B
:104320004F935F936F937F938F939F93AF93BF93BD
:10433000EF93FF938091080790910907A0910A07D6
:10434000B0910B07892B8A2B8B2B59F18091070792
:10435000E0910507F091060790818927808380917D
:10436000080790910907A0910A07B0910B0718164A
:1043700019061A061B060CF056C08091080790918A
:104380000907A0910A07B0910B070197A109B1098C
:104390008093080790930907A0930A07B0930B072F
:1043A00042C080910802E2E6F5E0E4919FEF90932D
:1043B0000802E230C9F050F4EE2399F0E13081F5C3
:1043C00090916F009D7F90936F002AC0E43019F1A7
:1043D000E0F0E53029F5909173009D7F9093730094
:1043E0001FC010926E001CC0909170009D7F909332
:1043F000700091E09093B0009091B100987F94602C
:104400009093B1001092B3000BC0909171009D7F0A
:104410009093710005C0909172009D7F90937200FF
:1044200060E00E94A419FF91EF91BF91AF919F911D
:104430008F917F916F915F914F913F912F910F904D
:104440000BBE0F900FBE0F901F9018950F931F93E8
:10445000CF93DF93EC017BD3688779878A879B872B
:10446000E881F9810484F585E02DCE01199597FF47
:1044700016C06DD3088519852A853B85DC01CB01E3
:10448000801B910BA20BB30B0C811D812E813F81F0
:1044900080179107A207B30718F38FEF9FEFDF9103
:1044A000CF911F910F9108950F931F93CF93DF9397
:1044B000EC014DD3688779878A879B87E881F981EA
:1044C0000284F385E02DCE01199597FF16C03FD3E6
:1044D000088519852A853B85DC01CB01801B910B62
:1044E000A20BB30B0C811D812E813F818017910798
:1044F000A207B30718F38FEF9FEFDF91CF911F91C2
:104500000F910895DC01ED91FC910190F081E02D77
:104510001994EF92FF920F931F93CF93DF938C0127
:104520007B01C0E0D0E0F701EC0FFD1F6491662332
:1045300061F0D801ED91FC910190F081E02DC8016E
:104540001995892B11F02196EECFCE01DF91CF91F5
:104550001F910F91FF90EF9008956115710579F00B
:10456000FB0101900020E9F73197AF01461B570B83
:10457000DC01ED91FC910280F381E02D199480E043
:1045800090E008954F925F926F927F92EF92FF9228
:104590000F931F93CF93DF93CDB7DEB7A1970FB6DD
:1045A000F894DEBF0FBECDBF7C01FA01CB0119A28A
:1045B000223008F42AE08E010F5D1F4F422E512C4D
:1045C000612C712CBF01A30192010E941A34F901E0
:1045D000CA01015011096A3014F4605D01C0695CC0
:1045E000D8016C93232B242B252B61F7B801C7012D
:1045F000B4DFA1960FB6F894DEBF0FBECDBFDF913A
:10460000CF911F910F91FF90EF907F906F905F90EF
:104610004F9008958F929F92AF92BF92CF92DF9268
:10462000EF92FF920F931F93CF93DF937C018B0147
:104630006C0182E0C80ED11C4701E5E08E0E911C92
:10464000C0E0D0E0F60141916F0150E060E070E021
:104650002AE0C80197DF5C016EE2C80153DF8A0DD2
:104660009B1DC80FD91FC814D90461F7F7014581F4
:1046700050E060E070E02AE0C80184DF8C0F9D1FED
:10468000DF91CF911F910F91FF90EF90DF90CF902E
:10469000BF90AF909F908F90089564EA74E05DCFD3
:1046A0000F931F93CF93DF93EC0157DF8C01CE0163
:1046B000F4DF800F911FDF91CF911F910F9108952B
:1046C0000F931F93CF93DF93EC0123DF8C01CE0177
:1046D000E4DF800F911FDF91CF911F910F9108951B
:1046E0003CCF1F920F920FB60F9211240BB60F9270
:1046F0002F933F934F935F936F937F938F939F93EA
:10470000AF93BF93EF93FF938CE097E021DCFF9191
:10471000EF91BF91AF919F918F917F916F915F9139
:104720004F913F912F910F900BBE0F900FBE0F90A6
:104730001F9018951F920F920FB60F9211240BB66F
:104740000F922F933F934F935F936F937F938F932A
:104750009F93AF93BF93EF93FF938CE097E087DB3A
:10476000FF91EF91BF91AF919F918F917F916F9149
:104770005F914F913F912F910F900BBE0F900FBE05
:104780000F901F9018951F920F920FB60F92112441
:104790000BB60F922F933F934F935F936F937F933B
:1047A0008F939F93AF93BF93EF93FF9389EA97E023
:1047B000CFDBFF91EF91BF91AF919F918F917F914F
:1047C0006F915F914F913F912F910F900BBE0F9082
:1047D0000FBE0F901F9018951F920F920FB60F9259
:1047E00011240BB60F922F933F934F935F936F93C8
:1047F0007F938F939F93AF93BF93EF93FF9389EA38
:1048000097E035DBFF91EF91BF91AF919F918F9131
:104810007F916F915F914F913F912F910F900BBEC0
:104820000F900FBE0F901F9018951F920F920FB60A
:104830000F9211240BB60F922F933F934F935F93D8
:104840006F937F938F939F93AF93BF93EF93FF9358
:1048500086E498E07DDBFF91EF91BF91AF919F914E
:104860008F917F916F915F914F913F912F910F9019
:104870000BBE0F900FBE0F901F9018951F920F92B6
:104880000FB60F9211240BB60F922F933F934F93B5
:104890005F936F937F938F939F93AF93BF93EF93A8
:1048A000FF9386E498E0E3DAFF91EF91BF91AF9137
:1048B0009F918F917F916F915F914F913F912F9138
:1048C0000F900BBE0F900FBE0F901F9018950F9377
:1048D0001F93CF93DF93EC018B0163EA73E00E9497
:1048E0001908FC01892B51F4CE010E94F707FC0145
:1048F000892B99F083EA93E093838283E80188818E
:104900009981AA81BB8128E030E0358324838683A6
:104910009783A087B18781E001C080E0DF91CF91CC
:104920001F910F9108950F931F93CF93DF93EC0185
:104930008B0160E176E00E941908FC01892B51F49B
:10494000CE010E94F707FC01892B61F080E196E01F
:104950009383828382E090E0958384831783068328
:1049600081E001C080E0DF91CF911F910F91089508
:104970003FB7F89480914C0990914D09A0914E0950
:10498000B0914F0926B5A89B05C02F3F19F001969D
:10499000A11DB11D3FBFBA2FA92F982F8827820FC5
:1049A000911DA11DB11DBC01CD0142E0660F771F15
:1049B000881F991F4A95D1F7089590E0FC0131971F
:1049C000E231F10508F04EC08827E658FF4F8F4FBF
:1049D0000C942235809180008F7703C080918000F5
:1049E0008F7D80938000089580918000877FF9CF2C
:1049F00084B58F7702C084B58F7D84BD0895809182
:104A0000B0008F7703C08091B0008F7D8093B0009D
:104A10000895809190008F7707C0809190008F7DDE
:104A200003C080919000877F8093900008958091CB
:104A3000A0008F7707C08091A0008F7D03C0809178
:104A4000A000877F8093A0000895809120018F7738
:104A500007C0809120018F7D03C080912001877F56
:104A6000809320010895CF93DF9390E0FC01EE53F3
:104A7000FC4F2491FC01E458FC4F8491882361F1A0
:104A800090E0880F991FFC01ED59FA4FC591D49120
:104A9000FC01E85BFC4FA591B491611109C09FB77F
:104AA000F8948881209582238883EC912E230BC073
:104AB000623061F49FB7F8943881822F8095832308
:104AC0008883EC912E2B2C939FBF06C08FB7F89450
:104AD000E8812E2B28838FBFDF91CF9108958F928D
:104AE0009F92AF92BF92CF92DF92EF92FF926B01B3
:104AF0007C013EDF4B015C01C114D104E104F104EF
:104B0000E9F036DFDC01CB0188199909AA09BB0954
:104B1000883E9340A105B10578F321E0C21AD1087F
:104B2000E108F10888EE880E83E0981EA11CB11CF4
:104B3000C114D104E104F10421F7DECFFF90EF901E
:104B4000DF90CF90BF90AF909F908F9008952FB738
:104B5000F894609148097091490980914A099091AF
:104B60004B092FBF08951F920F920FB60F92112479
:104B70002F933F938F939F93AF93BF938091480957
:104B800090914909A0914A09B0914B093091470988
:104B900023E0230F2D3720F40196A11DB11D05C080
:104BA00026E8230F0296A11DB11D2093470980938B
:104BB000480990934909A0934A09B0934B09809101
:104BC0004C0990914D09A0914E09B0914F09019661
:104BD000A11DB11D80934C0990934D09A0934E09DE
:104BE000B0934F09BF91AF919F918F913F912F91BA
:104BF0000F900FBE0F901F901895CF93DF93CDB7F6
:104C0000DEB7C556D1090FB6F894DEBF0FBECDBFD3
:104C1000789484B5826084BD84B5816084BD85B597
:104C2000826085BD85B5816085BD80916E008160A3
:104C300080936E0010928100809181008260809349
:104C4000810080918100816080938100809180004B
:104C50008160809380008091B10084608093B10076
:104C60008091B00081608093B0008091910082605B
:104C70008093910080919100816080939100809158
:104C800090008160809390008091A1008260809369
:104C9000A1008091A10081608093A1008091A0007B
:104CA00081608093A0008091210182608093210126
:104CB0008091210181608093210180912001816098
:104CC0008093200180917A00846080937A008091A3
:104CD0007A00826080937A0080917A00816080936C
:104CE0007A0080917A00806880937A001092C100E7
:104CF00086E090E00E9444357C0183E192E0D70198
:104D000011969C938E9380E490E013969C938E93DF
:104D1000129789E290E015969C938E93149760E029
:104D2000A2DE60E080E49FDEF0922D06E0922C0689
:104D300086E090E00E9444356C018BE192E0F60140
:104D40009183808381E490E09383828387E290E083
:104D50009583848360E087DE60E081E484DED09226
:104D60002B06C0922A0684E090E00E9444355C0144
:104D700083E292E0D5018D939C938EE090E00E94B7
:104D800044354C0160E086E36EDEE8EFF3E0E49149
:104D9000D401EC93E2EBF3E0E491F0E0EE0FFF1FBF
:104DA000EE59FC4F85919491F4019283818313868F
:104DB000158614863401FBE06F0E711C240123E07C
:104DC000420E511CF3011292E415F505E1F783E15F
:104DD00090E00E9444358C018EED9EE0D801529601
:104DE0009C938E93519716969C928E9215971C9237
:104DF00089E011968C93119781E012968C9312970B
:104E000013968C93F50113830283D3011E923D0107
:104E1000A415B505D1F7F80114822E01F3E14F0E68
:104E2000511C99249394B201D80115968D919C91AF
:104E300016970E94F81C882309F44DC067E0C20150
:104E40000E94D5139A8D8913EECFD8018C918111D0
:104E500025C015968D919C9116970E94C21CB20197
:104E6000F801858196810E94731C40E064EBD801B3
:104E700015968D919C9116970E94321CF8018581A0
:104E800096810E949E1C882ED80115968D919C912A
:104E900016970E94C21C882009F463C1AE014F5FBF
:104EA0005F4FB201C8010E94D512F8018180B201A2
:104EB000C8010E94E213881520F4D80111968C9144
:104EC00004C0B201C8010E94E213F8018183848109
:104ED0008F5F8483A8CFB0922906A092280688E02D
:104EE00090E00E944435FC018BE292E09183808344
:104EF000F782E682D582C482B382A282F0932F0623
:104F0000E0932E0640E855E260E070E086E498E029
:104F10000E94A01640E855E260E070E089EA97E060
:104F20000E94A01640E052EC61E070E08CE097E057
:104F30000E94A01618A61FA283E392E09EA38DA351
:104F400087E289A780E18EA782E08FA718AA84E074
:104F500090E00E9444358C018FE392E0F801918348
:104F600080834E01F5E28F0E911CD80113969C921E
:104F70008E92129710921A06109219061092180625
:104F8000109217061092160681E080931506109273
:104F9000140661E084E10E94A41961E085E10E94A9
:104FA000A4198091B9008E7F8093B9008091B900D7
:104FB0008D7F8093B90088E48093B80085E4809366
:104FC000BC001AA68FA5823010F098E09AA78DA792
:104FD0008BE39DE00197F1F768A9C4010E943913A2
:104FE00068EE73E080E090E07ADD60E3C4010E9447
:104FF0009E132BE4E22E26E4F22EC7010197F1F76F
:1050000060E3C4010E949E13C7010197F1F760E3BA
:10501000C4010E949E1383E592E00197F1F760E2DC
:10502000C4010E949E136AA5606240E0C4010E9410
:10503000B41384E08BA740E06CE0C4010E94B41379
:10504000C4010E94CD1382E08CA740E066E0C40159
:105050000E94B41340E062E0C4010E94B4138BE3E9
:105060009FE10197F1F7F8018281938128E0DC014B
:105070001B962C9360E00E9439131093270600932F
:105080002606F801828193810E94CD1363E673E0C6
:10509000D80112968D919C91139722DB61E0F80163
:1050A000828193810E94751660E773E0D8011296A1
:1050B0008D919C91139714DB84E090E00E9444351D
:1050C0008C0187E492E0F8019183808382E090E094
:1050D0009383828361E0C7DC109325060093240646
:1050E00080912606909127067E01F7E5EF0EF11CD0
:1050F00025E632E0D70111963C932E9313969C93AC
:105100008E93129761E873E086E498E0E9DA68ED3F
:1051100071E086E498E0D4DA8CE097E09093F806AA
:105120008093F70605E010E085ED91E00E94ED1513
:10513000892BD1F068EE73E080E090E0D0DC015084
:10514000110991F761E873E086E498E0C9DA68EB49
:1051500071E086E498E0B4DA68E873E180E090E01A
:105160006AC0F80190829ACE88E791E00E94ED151E
:1051700068EB7BE080E090E0B2DC80E00E94881D7C
:1051800083E791E00E94ED1587E691E00E94ED151E
:1051900068EC70E080E090E0A2DC8BE591E00E949A
:1051A000ED158DE491E00E94ED158DE391E00E94F4
:1051B000ED158FE291E00E94ED1568EC70E080E063
:1051C00090E08DDC10921B066BE171E0CE01019640
:1051D000E7D668E171E0C201E3D606E010E02BE11A
:1051E00036E0A201BE016F5F7F4F88E291E00E942E
:1051F0000D0580911B068153823028F480911C0696
:105200008E3209F478C261E873E086E498E068DAE7
:105210006AE971E086E498E07CD960E075E086E4B4
:1052200098E05EDA6BE176E086E498E039DA60EAED
:105230007FE080E090E053DC809124069091250689
:1052400020912606309127064DE552E05AAB49AB36
:105250003CAB2BAB9EAB8DABF8AEEFAA6E961FAE00
:105260006E97A2961FAEA297A3961FAEA397A49681
:105270001FAEA4978E010F5F1F4FFE01E55BFF4F2E
:105280006D96FFAFEEAF6D978091230681112DC211
:1052900089EA97E00E94811F892BB1F36FE375E0E3
:1052A000CE01C9960E944E2189EA97E0FDD897FD6C
:1052B0000AC089831A8241E050E0B801CE01C99644
:1052C0000E94C320F1CF8FE492E09C8B8B8B1F8ACE
:1052D0001E8A80E092E0998F888FCE01C9960E9445
:1052E000D81589AD9AAD009711F48FE395E05A82F5
:1052F00049829C838B835E824D828AE08F83C801C2
:105300000E94F4117C018FE492E09C8B8B8BEE89E0
:10531000FF89309759F082819381998F888FC0805F
:10532000D180CF010E94D935F601F3CFCE01C996C5
:105330000E9441214CE853E0B701CE018F5A9F4FA4
:105340000E94F01065E079E0CE018F5A9F4F0E94D5
:105350009120882309F464C143E953E0B701CE01E9
:105360008B5B9F4F0E94F01048E953E0B701CE01DC
:10537000CF960E94F010CE018F5A9F4F0E94D815F1
:10538000CE018B5B9F4F0E94D815CE01CF960E9415
:10539000D81564E670E080E090E0A1DBBE01615CBE
:1053A0007F4FC2010E944621BE016B5B7F4FCE0141
:1053B000C9960E944621A201BE01675C7F4FC801C9
:1053C0000E945510CE01C9960E944121C2010E943F
:1053D0004121CFA8D8ACBE016D5F7F4FC2010E94B2
:1053E00046218F89988D0E944435382E292E31010F
:1053F000C2010E944121BE016D5F7F4FC2010E9428
:1054000046218C898F938B898F93B1EAAB2EB3E0C1
:10541000BB2EBF92AF922F923F920E948837C2015B
:105420000E944121BE01675F7F4FC2010E94462159
:105430008F89988D0E944435382E292EA5968FAFDE
:10544000A597A6969FAFA697C2010E944121BE01D3
:10545000675F7F4FC2010E9446218C898F938B89A1
:105460008F93BF92AF922F923F920E948837C201D2
:105470000E944121D6011296CD90DC90139760E0F6
:10548000F601828193810E94751665EA73E0D60168
:1054900012968D919C91139723D90FB6F894DEBF85
:1054A0000FBECDBFC12CD12C8EE4282E90E2392E18
:1054B00066EB73E086E498E0F3D8F1E0F093210620
:1054C000A6962FADA6972F93A5963FADA5973F9390
:1054D0006F927F922F923F92A2E1B2E0BF93AF937F
:1054E0000E94D2040FB6F894DEBF0FBECDBF61E8B4
:1054F00073E0892BB1F486E498E0F2D860EF71E0B4
:1055000086E498E006D860E075E086E498E0E8D8A4
:10551000672D762D86E498E0C3D8AA24A394B12CF5
:105520001EC086E498E0DCD86DEF71E086E498E078
:105530000E94892260E075E086E498E0D1D8672D6A
:10554000762D86E498E0ACD868EE73E080E090E0D9
:10555000C6DA80E00E94881DF2E0AF2EB12C64E62E
:1055600070E080E090E0BBDA3FEFC31AD30A61EC51
:1055700073E086E498E0B4D8C6010E9407176AEC8D
:1055800073E086E498E0ACD881E090E041E0A416B6
:10559000B10411F080E090E00E940717AA94AB28B4
:1055A00009F4C2C083E0C816D10409F081CFCBA8AA
:1055B000DCA860E0D60112968D919C9113970E9411
:1055C000751662E075E0F6018281938189D8CDA8D5
:1055D000DEA828EE33E048EE53E060ED77E0C60148
:1055E0000E94670B28EE33E048EE53E060ED77E071
:1055F000C6010E94670B28EE33E048EE53E060EDF1
:1056000077E0C6010E94670BC8010E94DF0ECE0141
:10561000CF960E944121CE018B5B9F4F0E9441217A
:105620006FEF78E0CE018F5A9F4F0E949120882320
:1056300009F455C063ED73E0C7010E94E210AC01AC
:10564000BE016F5C7F4FC2010E9466126CED73E079
:10565000C7010E94E210AC01BE016F5C7F4FC80120
:105660000E94661285E592E02D969FAF8EAF2D9732
:105670002F965FAE4EAE2F9761961FAF0EAF61971C
:1056800081E080932206EBA8FCA861E0D701129686
:105690008D919C9113970E94751666EE73E0F70149
:1056A000828193811DD828EC30E040E050E068E230
:1056B00073E28DA99EA90E94670BC8010E94F00E9B
:1056C000C2010E94F00E6C96FFAD6C976E96FFAF14
:1056D0006E976D962FAD6D97A2962FAFA297CE01C4
:1056E0008F5A9F4F0E944121CFCD8091220688235F
:1056F00009F4CECD3EC061E873E086E498E00E94F4
:1057000070236FE771E086E498E00E94892260E0F0
:1057100075E086E498E00E9470236BE176E086E411
:1057200098E00E94502388CD81E080932306CBA887
:10573000DCA860E0D60112968D919C9113970E948F
:10574000751661EF74E0F601828193810E947023E7
:1057500028EC30E040E050E068E273E28DA99EA9B9
:105760000E94670BA3960FAFA397A4961FAFA497B1
:105770004BCF63E175E086E498E00E9450230BA9CB
:105780001CA9D80112968D919C9113970E94CD135C
:1057900064E275E0F801828193810E9470230DA973
:1057A0001EA928EC30E044EF51E068E273E2C80142
:1057B0000E94670B28EC30E044EF51E068E273E2AE
:1057C000C8010E94670BA396FFADA397F093F3085F
:1057D000A4962FADA4972093F4086E963FAD6E97D4
:1057E0003093F508A2964FADA2974093F6088091AA
:1057F000230681118091220690E00E94071771E92B
:10580000672E72E0772EE3E7AE2EE2E0BE2EE09048
:105810002E06F0902F06D7011696ED91FC91179762
:1058200084810E947B1922242394019709F0212C62
:10583000D7011496ED91FC91159784810E947B19F4
:1058400033243394892B09F0312CF701C280D380A3
:10585000D60112960D911C911397F80185819681BE
:105860000E94C21C40E06CECD80115968D919C9171
:1058700016970E94321CF801408164E4858196816C
:105880000E94321CD80112968C9112978823A1F0A5
:105890001196EC91E950E33040F4F0E0EE0FFF1F79
:1058A000E759FD4F6081718102C06EEE72E0072EF4
:1058B000000C880B990B13D9F60102811381D801D2
:1058C0001596ED91FC911697138615861486DF01C7
:1058D0001B9633961E92AE17BF07E1F7B201F8018F
:1058E000858196810E94F81C882341F067E0C201FF
:1058F0000E94D5139A8D891709F4DDC160E070E02C
:105900008EEF92ECD7011496ED91FC9115973281B0
:10591000363308F0365340917B00232F2870477FA1
:10592000242B20937B00232F2770206420937C005E
:1059300020917A00206420937A0020917A0026FD3D
:10594000FCCF30917800209179007C8A6B8A6F8B34
:10595000788F898F9A8F832F90E0922B9E8B8D8BDF
:105960003C8E2B8E67EF73E086E498E00E947023F4
:105970008D899E890E9407176CEF73E086E498E09A
:105980000E947023CF88D88CE98CFA8CA7019601ED
:10599000C701B6010E94EF34882319F069E074E072
:1059A00026C0A70196015F77A1962CAF3DAF4EAF01
:1059B0005FAFA1972FEF3FEF4FE75FE7A1966CAD89
:1059C0007DAD8EAD9FADA1970E94EF34811114C0C3
:1059D0002FEF3FEF4FE75FE7A1966CAD7DAD8EAD4A
:1059E0009FADA1970ED618163CF46DE074E086E4E6
:1059F00098E00E94AD228EC02FEF3FEF4FE75FE4AB
:105A0000C701B601E8D718161CF461E174E0EFCFC6
:105A10002FEF3FEF4FE75FECC701B601F2D587FDEF
:105A2000F4CF20E030E0A901C701B601EAD587FF35
:105A300009C06DE286E498E00E948222F7FAF094B1
:105A4000F7F8F0942AE037ED43EA5BE3C701B601CB
:105A50002DD7A1966CAF7DAF8EAF9FAFA1978FD79B
:105A60006B017C01D2D59B01AC01A1966CAD7DADE3
:105A70008EAD9FADA19719D7A1966CAF7DAF8EAFBC
:105A80009FAFA1972AE0B701A60186E498E00E94A3
:105A9000C2226EE286E498E00E94822220E030E09A
:105AA00040E251E4A1966CAD7DAD8EAD9FADA19766
:105AB0000DD66B017C0163D79B0140E050E0A196BD
:105AC0002CAF3DAF4EAF5FAFA1972AE0A1964CAD92
:105AD0005DAD6EAD7FADA19786E498E00E94C222D5
