:10000000DDC200000CC300000AC3000008C30000EA
:1000100006C3000004C3000002C3000000C30000C8
:10002000FEC20000FCC20000FAC20000F8C20000DC
:10003000F6C200000C944D1FF2C20000F0C2000096
:10004000EEC20000ECC20000EAC20000E8C20000FC
:10005000E6C20000E4C20000E2C200000C9448289E
:10006000DEC200000C9403220C94DA21D8C20000F6
:10007000D6C20000D4C20000D2C20000D0C200002C
:10008000CEC20000CCC20000CAC20000C8C200003C
:100090000C94B1210C948821C2C200000C940C165F
:1000A000BEC20000BCC20000BAC20000B8C200005C
:1000B000B6C20000B4C20000B2C20000B0C200006C
:1000C000AEC20000ACC20000AAC200000C945F21C6
:1000D0000C943621A4C20000A2C20000A0C20000FD
:1000E0009EC2000075056F0585057D057A054905E9
:1000F00069051005DE24E124D024D424DA2418254F
:10010000E524E924EF24F324F724FD240125052523
:1001100018250B250F2513254E414E494E4954599C
:10012000494E46CDCCCC3D0AD7233C17B7D13877C2
:10013000CC2B329595E6241FB14F0A0000204100D8
:1001400000C84200401C4620BCBE4CCA1B0E5AAE22
:10015000C59D740D0A0053444B2076657273696F18
:100160006E3A0041542B474D520041542B435744A3
:100170004843503D312C310041542B435741555495
:100180004F434F4E4E3D300041542B43495044495C
:100190004E464F3D310041542B4349504D55583D3B
:1001A000310041542B43574D4F44453D310041549C
:1001B00045300041542B52535400496E6974696CA8
:1001C000697A6174696F6E207375636365737366B2
:1001D000756C202D005761726E696E673A20556EFE
:1001E000737570706F72746564206669726D776183
:1001F00072650043616E6E6F7420696E6974696127
:100200006C697A6520455350206D6F64756C65008C
:10021000415400496E697469616C697A696E67203E
:10022000455350206D6F64756C6500436F6E6E654D
:100230006374656420746F004661696C6564206353
:100240006F6E6E656374696E6720746F0041542B26
:1002500043574A41505F4355523D222573222C2279
:10026000257322004E6F20736F636B657420617677
:1002700061696C61626C650041542B434950535471
:100280004152543D25642C22544350222C22257384
:10029000222C257500436F6E6E656374696E67204E
:1002A000746F00456E6420746167206E6F74206601
:1002B0006F756E64004E6F2074616720666F756E97
:1002C00064003E3E3E2054494D454F5554203E3E2D
:1002D0003E0025642E25642E25642E25640044618D
:1002E0007461207061636B65742073656E64206552
:1002F00072726F722028322900446174612070612B
:10030000636B65742073656E64206572726F722012
:100310002831290041542B43495053454E443D2533
:10032000642C2575004661696C656420746F2077C4
:100330007269746520746F20736F636B657400411C
:10034000542B434950434C4F53453D256400446969
:1003500073636F6E6E656374696E67200041542B22
:10036000434950535441545553002B43495053541F
:10037000415455533A25642C00005EBCE2613FDDD8
:1003800083C29C7E20A3FD1F419DC3217FFCA24010
:100390001E5F01E3BD3E6082DC237D9FC1421CFEE7
:1003A000A0E1BF5D0380DE3C62BEE0025CDF8163F2
:1003B0003D7C22C09E1D43A1FF4618FAA427799BCD
:1003C000C584DA3866E5BB5907DB856739BAE406C8
:1003D000581947A5FB7826C49A653BD987045AB8B3
:1003E000E6A7F91B45C6987A24F8A6441A99C725AA
:1003F0007B3A6486D85B05E7B98CD2306EEDB35199
:100400000F4E10F2AC2F7193CD114FADF3702ECC77
:1004100092D38D6F31B2EC0E50AFF1134DCE90727E
:100420002C6D33D18F0C52B0EE326C8ED0530DEF59
:10043000B1F0AE4C1291CF2D73CA947628ABF5175C
:10044000490856B4EA6937D58B5709EBB536688A3F
:10045000D495CB2977F4AA4816E9B7550B88D6343A
:100460006A2B7597C94A14F6A8742AC896154BA921
:10047000F7B6E80A54D7896B350200002100240042
:1004800027002A002D003000330001010000040184
:1004900007010A0100002200250028002B002E0081
:1004A0003100340002010000050108010B010000C9
:1004B00020002300260029002C002F00320000011C
:1004C00000000301060109010505050507050808E7
:1004D0000808020202020A0A0808040404040101CE
:1004E00001010101010103030303030303030407E3
:1004F00007070C0C0C0C0C0C0C0C0202020206067A
:100500000606060606060B0B0B0B0B0B0B0B01026C
:100510001020200808102040102040800201020115
:1005200008040201010204081020408080402010CD
:100530000804020180040201804020100804020126
:10054000080402010102040810204080010204088E
:100550001020408000000A0B02090C0D0E08070352
:100560000401000000000000000000000000000086
:10057000000000000000000000000000000000007B
:100580001211100000000000000000000000000038
:100590000000000000000000000054494D454F5588
:1005A000543A0054616720434C4F534544206E6FCA
:1005B0007420666F756E64001E30163011241FBEE5
:1005C000CFEFD1E2DEBFCDBF00E00CBF29E0A2E655
:1005D000B6E001C01D92A03AB207E1F716E0A0E034
:1005E000B2E0EAEFF5E700E00BBF02C007900D9222
:1005F000A236B107D9F712E0CDEDD2E000E006C097
:1006000021970109802FFE010E944B38CC3DD10774
:1006100080E00807A9F70E9492280C94EC3AF0CCED
:10062000FC0126813781620F731F848195818617B3
:10063000970738F08281938177836683820F931FB7
:10064000089580E090E00895DB01109749F0ED9166
:10065000FC9111970190F081E02DBC01CD0119941E
:1006600080E090E008950C9402390C9402390C94C7
:1006700002390C9402390C9402390C9402390C940E
:1006800002390C940239EF92FF920F931F93CF938C
:10069000DF93EC01E880F980D7018D919C91FC01FA
:1006A000048115816115710551F0FB010190002055
:1006B000E9F73197AF01461B570B0E945F1ED70128
:1006C000ED91FC91848195812A813B81280F391F0E
:1006D000201B310B3B832A83DF91CF911F910F9118
:1006E000FF90EF9008950F931F93CF93DF93CDB7B3
:1006F000DEB766970FB6F894DEBF0FBECDBF8C0194
:10070000CB011E8AFE0176962AE030E0B9010E94F4
:100710001C3890E3980F9293CB010097B9F7BF0173
:10072000C801B1DF66960FB6F894DEBF0FBECDBF2D
:10073000DF91CF911F910F9108958F929F92AF9269
:10074000BF92EF92FF920F931F93CF93DF93CDB79A
:10075000DEB766970FB6F894DEBF0FBECDBF7C0143
:100760001E8A8E010A5E1F4F8AE0882E912CA12CD2
:10077000B12CCB01BA01A50194010E944337942FFB
:10078000852F605DF80162938F01A901692F782F91
:10079000411551056105710561F7BF01C70173DF9F
:1007A00066960FB6F894DEBF0FBECDBFDF91CF9136
:1007B0001F910F91FF90EF90BF90AF909F908F90FF
:1007C0000895CF93DF93EC01E881F98180819181D5
:1007D0000E948C1E8A819B8101969B838A83DF9174
:1007E000CF910895FF920F931F93CF93DF936115DD
:1007F000710541F46FEB74E0DF91CF911F910F9180
:10080000FF9041CF8B01EC0162E2CE01DADFF8010B
:1008100061918F01662351F0E0EBF4E0F080FF205E
:10082000A1F39181961751F03296F8CF62E2CE0192
:10083000DF91CF911F910F91FF90C3CF6CE5CE0157
:10084000C0DF6F2DE2CF85ED8093BC008091BC00AE
:1008500084FDFCCF1092640608954091DD06262F9A
:1008600030E0240F311D21323105DCF42091640683
:100870002430C9F4FC0180E090E0861758F43091F0
:10088000DD062191DC01A354B94FA30FB11D2C93B8
:100890000196F3CF8091DD06680F6093DD0680E05E
:1008A000089581E0089582E00895089508950895D7
:1008B000CF93DF93EC0164EC74E081E998E00E944F
:1008C0001521EA81FB81828193810E949024EA8133
:1008D000FB81848195810E9490248A819B81069668
:1008E0000E94B0238A819B810C96DF91CF910C945A
:1008F000B023089508950895CF93DF93EC016881A4
:1009000079818AE090E0A0DE009729F0FC01118255
:10091000108215821482EA81FB81309751F0208188
:1009200031812115310511F0F901F9CF91838083CF
:1009300002C09B838A83DF91CF9108950F931F9309
:10094000CF93DF938B01FC01C281D381209759F0B3
:100950006A817B81C8010E949D3A892B21F0099010
:10096000D881C02DF3CFCE01DF91CF911F910F9190
:1009700008950F931F93CF93DF938C01EB016BE7E7
:10098000CE011FDFF801028113810115110591F0DD
:10099000F80162817381CE0125DF6AE3CE0111DFA8
:1009A000BE01C801049611D0F80100811181011522
:1009B000110539F46DE7CE01DF91CF911F910F91B1
:1009C00000CF6CE2CE01FDDEE0CF2F923F924F923E
:1009D0005F926F927F928F929F92AF92BF92CF92CF
:1009E000DF92EF92FF920F931F93CF93DF93CDB7D8
:1009F000DEB766970FB6F894DEBF0FBECDBFDC0141
:100A0000ED91FC9111973197E830F10508F0F5C1AF
:100A10001B018C018827EE58FF4F8F4F0C944B38E9
:100A2000FD01C280D380E480F580A7019601C70153
:100A3000B6010E942A36882319F067EE74E073C06D
:100A400020E030E0A901C701B6010E942A3687FFE5
:100A500007C06DE2C101B5DEF7FAF094F7F8F09443
:100A600020E030E0A901C701B6010E942A368823A0
:100A700009F45CC0A7019601C701B6010E947F3747
:100A8000A70196010E942A36811150C06EEE74E0D3
:100A90004AC0FD01028113816BE5C10192DED801DC
:100AA00012960D911C9113970115110551F0B1018A
:100AB000C80102968ADFF801008111810115110534
:100AC00021F46DE5C1017DDE98C16CE2C10179DEE2
:100AD000EBCF12968D919C9113974BDF8EC1FD0148
:100AE00062817381C1017EDE88C112966D917C9115
:100AF000139719C06DE2C10164DEF8014281538190
:100B000064817581C10119DE78C1FD018281938103
:100B1000A481B581892B8A2B8B2B19F461EE74E0AB
:100B200002C06CED74E0C101AEDD67C120E836E9BA
:100B300048E15BE4C701B6010E94143887FD56C145
:100B4000A12CB12C00E210E01A8A198AF501E955AE
:100B5000FD4F2489358946895789C701B6010E940E
:100B6000143887FD13C0F501E157FD4F24893589FD
:100B700046895789C701B6010E948F366B017C01F7
:100B800089899A89800F911F9A8B898B1595079572
:100B900094E0A91AB108A8EEAA16AFEFBA06B1F60A
:100BA00099249A9420E030E0A901C701B6010E947F
:100BB00014381816B4F52CEA35EC47E257E3C701B0
:100BC000B6010E942A36181664F19FEF991649F172
:100BD000B92DE4E0BE0250011124F501E958FD4FA2
:100BE0002081318142815381C701B6010E942A369A
:100BF00087FF13C0F501E955FD4F20813181428106
:100C00005381C701B6010E948F366B017C0189892F
:100C10009A89801B910B9A8B898B159507959A94CD
:100C2000D4CFC701B6010E94E8374B015C012B010C
:100C30003C0106E080E492E4AFE0B0E08B8B9C8B5B
:100C4000AD8BBE8B102F0FEF010F9AE049165104A8
:100C500061047104C8F06B897C898D899E892AE0C2
:100C600030E040E050E00E9443372B8B3C8B4D8BB3
:100C70005E8BC301B2012AE030E040E050E00E9408
:100C8000433729013A01DECFC501B4010E942E3657
:100C90009B01AC01C701B6010E947E376B017C014C
:100CA0006B897C898D899E890E942E369B01AC01BF
:100CB000C701B6010E948F362B013C010E94E83724
:100CC0006B017C010E942E369B01AC01C301B20175
:100CD0000E947E379B01AC010E947F370E94E8375B
:100CE000C60ED71EE81EF91E8B899C89AD89BE8968
:100CF000C816D906EA06FB06F8F09FEF891A990A8A
:100D0000A90AB90AA989BA89AB2B99F0BAE08B165E
:100D10009104A104B10468F0E989FA893196FA8B4B
:100D2000E98BC12CD12C7601812C912C5401839418
:100D300003C0C12CD12C76012AE0422E512C612C0B
:100D4000712CC701B601A30192010E944337672BA2
:100D5000682B692B99F0012FB501A401C101EDDCCD
:100D6000112351F1188A4E01F0E18F0E911C5401AC
:100D70009AE0492E512C612C712C06C011165CF79B
:100D800069017A011150DDCF015068F0C701B60149
:100D9000A30192010E944337605DD4016E934D011F
:100DA00069017A01F1CFB501611B71098EE2FB0186
:100DB0008293BF01C10167DC89899A8997FF0AC0C4
:100DC0006BEE74E0C1015FDC69897A897195619588
:100DD000710909C0A989BA89AB2B79F065E6C1010F
:100DE000F0DC69897A89C1017EDC07C000E210E08D
:100DF00085E0982E1A8A198AD5CE66960FB6F89491
:100E0000DEBF0FBECDBFDF91CF911F910F91FF903D
:100E1000EF90DF90CF90BF90AF909F908F907F909A
:100E20006F905F904F903F902F900895CF92DF92F8
:100E3000EF92FF920F931F93CF93DF937C018B016F
:100E4000EA017CDDFC01892B39F4C70155DDFC0189
:100E5000892B91F01383028388819981892B19F45E
:100E600080E090E003C06E0187E090E0958384838A
:100E7000C682D78281E001C080E0DF91CF911F91CF
:100E80000F91FF90EF90DF90CF900895EF92FF9237
:100E90000F931F93CF93DF938C01EB017A014EDD0B
:100EA000FC01892B39F4C80127DDFC01892BF9F0FD
:100EB000D383C283D7014D915C9157FD07C0052EA6
:100EC000000C660B770B84E090E009C051954195CA
:100ED0005109052E000C660B770B85E090E0958399
:100EE0008483468357836087718781E001C080E0F7
:100EF000DF91CF911F910F91FF90EF900895CF93C5
:100F0000DF93EC016881798188E090E09DDB0097B8
:100F100029F0FC011182108213821282EA81FB8186
:100F2000309751F0208131812115310511F0F901FF
:100F3000F9CF9183808302C09B838A83DF91CF9115
:100F400008950895CF93DF93EC01BC0184E090E015
:100F50007BDBFC01009729F0D183C08313821282CE
:100F600011C08091B50681110BC01092B20610928B
:100F7000B1061092B4061092B30681E08093B506D4
:100F800081EB96E0DF91CF9108958091A7068111C2
:100F90000BC01092A4061092A3061092A6061092FF
:100FA000A50681E08093A70683EA96E00895CF9393
:100FB000DF93EC01BC0184E090E046DB009741F058
:100FC000FC01D183C08313821282DF91CF910895F7
:100FD000DF91CF91DACF08952F923F924F925F9297
:100FE0006F927F928F929F92AF92BF92CF92DF9239
:100FF000EF92FF920F931F93CF93DF93CDB7DEB79E
:1010000027970FB6F894DEBF0FBECDBF1B015E83DE
:101010004D838901FC018281938120910802281768
:1010200021F02F3F09F0D0C205C0E9E7F4E0249198
:101030002F8304C180930802E9E7F4E0E491EF3FD5
:1010400009F4C2C2E23009F47EC06CF5EE2309F463
:1010500059C0E13009F0F1C0109280001092810077
:1010600020918100286020938100209181002160DF
:10107000209381009C013327F901E853FB4FE49151
:10108000F0E0EE0FFF1FEC56FB4F4591549150934B
:101090008B0640938A06F901E25FFA4FE491E093F0
:1010A000890631E0C8C0E43009F49DC00CF473C077
:1010B000E53009F0C2C01092200110922101209168
:1010C000210128602093210120912101216020939A
:1010D00021019C013327F901E853FB4FE491F0E033
:1010E000EE0FFF1FEC56FB4F459154915093820633
:1010F00040938106F901E25FFA4FE491E0938006A4
:1011000035E099C014BC15BC24B5226024BD25B5BA
:10111000216025BD9C013327F901E853FB4FE49181
:10112000F0E0EE0FFF1FEC56FB4F459154915093AA
:101130008E0640938D06F901E25FFA4FE491E09349
:101140008C061F827EC01092B0001092B1002091D8
:10115000B00022602093B0002091B1002160209364
:10116000B1009C013327F901E853FB4FE491F0E013
:10117000EE0FFF1FEC56FB4F4591549150935107D2
:1011800040935007F901E25FFA4FE491E093520770
:10119000E2E0EF8356C010929000109291002091EF
:1011A000910028602093910020919100216020936C
:1011B00091009C013327F901E853FB4FE491F0E0E3
:1011C000EE0FFF1FEC56FB4F45915491509388064C
:1011D00040938706F901E25FFA4FE491E0938606B7
:1011E000F3E0FF832EC01092A0001092A100209186
:1011F000A10028602093A1002091A10021602093EC
:10120000A1009C013327F901E853FB4FE491F0E082
:10121000EE0FFF1FEC56FB4F4591549150938506FE
:1012200040938406F901E25FFA4FE491E09383066C
:1012300024E02F8306C03F8304C0EF83EF81E7FDE6
:10124000C3C12801012E000C6608770861E00E94E6
:10125000E6264101A12CB12C8F818D7F09F0BDC004
:1012600060E072E18AE790E0A50194010E942F38C6
:1012700029833A834B835C8369017A01F1E0CF1AB9
:10128000D108E108F1082FEFC216D104E104F104FE
:1012900009F008F44DC060E472E48FE090E0A5012D
:1012A00094010E942F3869017A0181E0C81AD1089F
:1012B000E108F1089F81923001F5EFEFCE16D104DD
:1012C000E104F10409F008F4FCC160E970ED83E089
:1012D00090E0A50194010E942F3869017A01F1E0A4
:1012E000CF1AD108E108F1082FEFC216D104E104AA
:1012F000F10409F0E0F583E069C03FEFC316D104C3
:10130000E104F104B9F0B0F068E478EE81E090E037
:10131000A50194010E942F3869017A0181E0C81A61
:10132000D108E108F1089F81992309F46FC1C0C178
:1013300081E001C082E09F819923A1F047C08981AB
:101340009A81AB81BC812AE0B595A7959795879541
:101350002A95D1F76C017D01E1E0CE1AD108E108B0
:10136000F10885E095B5987F892B85BDA1C068E41B
:1013700078EE81E090E0A50194010E942F38690188
:101380007A01F1E0CF1AD108E108F1082FEFC21677
:10139000D104E104F10409F008F436C164E274EF09
:1013A00080E090E0A50194010E942F3869017A0144
:1013B000E1E0CE1AD108E108F108FFEFCF16D10421
:1013C000E104F10411F008F043C185E09091B1000F
:1013D000987F892B8093B1006BC060E072E18AE74F
:1013E00090E0A50194010E942F3869017A01E1E0A3
:1013F000CE1AD108E108F108C114D104F1E0EF06DA
:10140000F10488F068E478EE81E090E0A5019401B1
:101410000E942F3869017A0181E0C81AD108E108D9
:10142000F10883E001C081E09F81913071F49091D7
:101430008100987F892B8093810045284628472882
:10144000D9F52FEF3FEFA90168C0EF81E33071F4C8
:1014500090919100987F892B809391004528462890
:10146000472851F52FEF3FEFA90179C0FF81F430F4
:1014700071F49091A100987F892B8093A100452859
:1014800046284728C9F42FEF3FEFA9017AC02F81E2
:10149000253071F490912101987F892B809321014F
:1014A00045284628472841F42FEF3FEFA9017BC08C
:1014B00045284628472869F09101220F331FD8019B
:1014C0000E94533828EE33E040E050E00E9443375A
:1014D00003C02FEF3FEFA9018F81823081F12CF4FF
:1014E000882361F08130C9F06FC09F81943009F486
:1014F00048C0ACF1953009F456C066C0C7BC209313
:101500009F063093A0064093A1065093A2068091B7
:101510006E00826080936E0057C0D0928900C092A6
:10152000880020939B0630939C0640939D06509321
:101530009E0680916F00826080936F0045C0C092CC
:10154000B3002093530730935407409355075093AB
:1015500056078091700082608093700035C0D092F1
:101560009900C09298002093970630939806409374
:10157000990650939A068091710082608093710061
:1015800023C0D092A900C092A80020939306309364
:10159000940640939506509396068091720082605F
:1015A0008093720011C0D0922901C092280120932B
:1015B0008F06309390064093910650939206809147
:1015C0007300826080937300ED81FE81BF01FF0F85
:1015D000880B990B27960FB6F894DEBF0FBECDBFD0
:1015E000DF91CF911F910F91FF90EF90DF90CF90FF
:1015F000BF90AF909F908F907F906F905F904F9033
:101600003F902F900C94222784E0E0CEEFEFCE168F
:10161000D104E104F104D1F0C8F062E17AE780E09E
:1016200090E0A50194010E942F3869017A0181E0C0
:10163000C81AD108E108F1089FEFC916D104E104E6
:10164000F10411F008F07BCE84E08CCE83E08ACEEA
:1016500062E17AE780E090E0A50194010E942F38D2
:1016600069017A01F1E0CF1AD108E108F1082FEF02
:10167000C216D104E104F104C9F0C0F089819A8155
:10168000AB81BC815AE0B595A795979587955A95FA
:10169000D1F76C017D0121E0C21AD108E108F108FF
:1016A0003F81332309F45DCE87E090CE86E043CEC0
:1016B0003FEFC316D104E104F10409F048F684E0D9
:1016C0003ACE82E083CE8F929F92AF92BF92CF921A
:1016D000DF92EF92FF920F931F93CF93DF931F92AE
:1016E0001F92CDB7DEB76B0162DC8C01D60112967A
:1016F0008D919C9113979A838983AE014F5F5F4FC1
:1017000066E973E0C801C2DBF601848195819A83A2
:101710008983AE014F5F5F4F67EF74E0C801B6DBAE
:10172000D60116968D919C911797009729F00E94EB
:1017300032314B015C0103C0812C912C540163EACE
:1017400073E0C801FBD8009749F4C801D5D80097C9
:1017500089F023EA33E0FC013383228328E030E080
:10176000DC0115963C932E931497FC018682978298
:10177000A086B18669EF74E0C801E0D87C01892BAE
:1017800061F4C801B9D87C01892BE1F189EF94E0BB
:10179000D70113969C938E931297F80180819181C3
:1017A000D6011C962D913C911D97232B21F150962B
:1017B000AD90BC905197BFEFAB1ABB0ADC01ED9125
:1017C000FC910190F081E02DB50119954C01009735
:1017D000C9F0F60164857585A5010E94823A82E010
:1017E00090E0D70115969C938E93149717969C9230
:1017F0008E92169707C082E090E0F701958384836C
:1018000017821682C8010F900F90DF91CF911F9120
:101810000F91FF90EF90DF90CF90BF90AF909F908F
:101820008F9008954F925F926F927F928F929F92C6
:10183000AF92BF92CF92DF92EF92FF920F931F93DE
:10184000CF93DF93CDB7DEB7C656D2400FB6F8942C
:10185000DEBF0FBECDBF6C017B015A01CE010996E0
:101860009C838B8388E592E09E838D8318861F82FC
:1018700089EE92E09A838983CE01019698DB8C01F0
:10188000F70182819381CF59DD4F99838883C156B7
:10189000D240AE014F595D4F6CEF74E0C801F6DAEB
:1018A000F701448055806680778060E075E0C8016C
:1018B00045D8009749F4C8011FD8009771F020E07F
:1018C00035E0FC013383228328E030E0FC013583DE
:1018D00024834682578260867186F80180819181D7
:1018E000009781F48091B50681112FC01092B20645
:1018F0001092B1061092B4061092B30681E0809364
:10190000B50623C01FDB7C0165E075E0C80116D871
:10191000009751F4C8010E947C040097C9F025E0AB
:1019200035E0FC0133832283F70120813181232BB1
:1019300019F420E030E003C0470126E030E0FC016C
:10194000358324838682978203C081EB96E001C0B1
:10195000C701D5DA009749F022E030E0FC0133837B
:10196000228329E035E035832483F501828093804A
:10197000E480F58065E175E081E998E00E94152139
:10198000F401828193810E949024F40184819581E5
:101990000E949024F40186819781009719F00E949B
:1019A000323103C060E070E0CB010E94C323C40168
:1019B0000C960E94B023F701828193810E949024AB
:1019C000F701848195810E949024F7018681978197
:1019D000009719F00E94323103C060E070E0CB0143
:1019E0000E94C323C7010C960E94B023F5016281B7
:1019F0007381CE01019667DE4C01F501648175812A
:101A0000CE01019660DE5C01CE010196D0DA7C0148
:101A1000A40167E375E00ADAA5016BE375E0C7018D
:101A200005DAF80180819181009711F4AEDA06C0E1
:101A3000BEDAAC0160E475E0C801F8D9A70160E442
:101A400075E0C801F3D96EEB74E0C6010E94391F3E
:101A5000FE01EB59FD4FD182C082CF59DD4FF98392
:101A6000E883C156D240CD59DD4F19821882C35642
:101A7000D240BE016F597D4FC8010E94B904F601E2
:101A8000448155816081718181E998E00E945C1CEC
:101A9000C601CA59DD4F0FB6F894DEBF0FBECDBFE9
:101AA000DF91CF911F910F91FF90EF90DF90CF903A
:101AB000BF90AF909F908F907F906F905F904F906E
:101AC0000895FC0101900020E9F731979F01281B40
:101AD000390BE0914209F0914309E21BF30B40916D
:101AE0003E0950913F09E417F50730F460913C0935
:101AF00070913D09E60FF71F280F391F60914009CB
:101B000070914109DC018217930758F40196BC914A
:101B1000A081BA1308C03196E617F70799F7FA01C2
:101B2000F1CF81E0089580E00895CF93DF93EC0139
:101B300081E0A9D4BE018091AF069091B0060E94C9
:101B4000252141E060E070E088EE93E0DF91CF91E5
:101B5000B5C4EF92FF920F931F93CF93DF931F9221
:101B60001F92CDB7DEB77C01162F072F61E873E017
:101B700081E998E049835A830E94352165E972E042
:101B800081E998E00E944E206FE774E081E998E0D7
:101B90000E943521612F702F81E998E00E94152164
:101BA000E8E0F2E023E030E05A81498192918291AD
:101BB000019621F021503109C8F72FEFF701248752
:101BC0002F3F19F15F934F930F931F931F922F9302
:101BD00083E18F9388E88F9388E792E09F938F93B8
:101BE000E3D50FB6F894DEBF0FBECDBF892BC9F485
:101BF000F701848590E0FC01EE0FFF1FE050FE4FDF
:101C00009183808381E090E00EC061E873E081E918
:101C100098E00E94352164E672E081E998E00E9434
:101C2000252180E090E00F900F90DF91CF911F91E0
:101C30000F91FF90EF9008952F923F924F925F92F5
:101C40006F927F928F929F92AF92BF92CF92DF92CC
:101C5000EF92FF920F931F93CF93DF93CDB7DEB731
:101C6000A6970FB6F894DEBF0FBECDBF4C015B0147
:101C70001C821B8288EE93E0A0E0B0E08D839E83FF
:101C8000AF83B8878BEC92E09A8389838FEF8D873F
:101C900040E95FE165E475E0CE01019694D3892BBC
:101CA00039F461E575E081E998E00E9415213FC1B2
:101CB00096E0C92ED12C25EF622E22E0722E8E01E5
:101CC000025F1F4F7F866E86F50182819381998B1B
:101CD000888B848195819B8B8A8BA801B401CE016E
:101CE0008196A0DD4DA05EA06CE675E0CE01459624
:101CF0000E94391FBE016B5E7F4FCE014B960E9442
:101D0000311F62E775E0CE014B960E94B11E69E774
:101D100075E00E94B11E65E875E00E94B11E6CE896
:101D200075E00E94B11E62E875E00E94B11E6DE987
:101D300075E00E94B11E6EEB75E00E94B11E7C0141
:101D40004AE0B801C2010E947F31F80101900020F1
:101D5000E9F73197AF01401B510BB801C7010E9451
:101D60005F1E811103C0C7010E949F1E62E875E0DB
:101D7000C7010E94B11E62E875E00E94B11E7C019D
:101D80004DA15EA169A17AA10E945F1E811103C0CD
:101D9000C7010E949F1E63E875E0C7010E94B11E43
:101DA000FC014481558160817181CE01019641D44D
:101DB000CE014B960E94FC1ECE0145960E94FC1E51
:101DC000CE0181960E94B02360EA7FE080E090E03F
:101DD0000E942227CE01019615D7892B09F494C0C1
:101DE0006EEB74E0CE0145960E94391FCE0101963C
:101DF0000E94192097FD09C08D30910531F0682FA0
:101E0000CE0145960E948C1EF1CF6FEC75E0C801A3
:101E10000E94391F498D5A8D6D897E89C8010E94A3
:101E20005F1E811103C0C8010E949F1EC8010E944D
:101E3000B023C8010E94FC1EE98CFA8CE114F10465
:101E400061F02D883E8860E270E0C1010E94923A04
:101E5000009719F08219930902C08FEF9FEF2C01B0
:101E6000FFEF4F1A5F0AE414F50428F4942D852D32
:101E70002701E92EF82E6EEB74E0C8010E94391F8D
:101E8000898D9A8D4816590630F58E159F0508F4F0
:101E90007C01ED89FE89EE0DFF1D308010826D8979
:101EA0007E89640D751D6115710561F0FB0101905E
:101EB0000020E9F73197AF01461B570BC8010E947C
:101EC000C81E03C0C8010E949F1E8D899E89FC0107
:101ED000EE0DFF1D3082C8010E94B0238E859F85C4
:101EE000009719F00E94353103C060E070E0CB012B
:101EF0007B01CE010196C7D0C8010E94FC1ECE0115
:101F000045960E94FC1E03C084E6E82EF12CCE010B
:101F1000019683D4CE0181960E94FC1E21E0C21A54
:101F2000D10829F088ECE816F10409F0CBCEA6968A
:101F30000FB6F894DEBF0FBECDBFDF91CF911F91DA
:101F40000F91FF90EF90DF90CF90BF90AF909F9058
:101F50008F907F906F905F904F903F902F9008955B
:101F6000CF93DF93CDB7DEB728970FB6F894DEBFD7
:101F70000FBECDBF28E0EFEBF2E0DE01119601903D
:101F80000D922A95E1F7FC012085261710F46FEFDA
:101F9000620FFE013196E60FF11DE60FF11D608123
:101FA000606840E028960FB6F894DEBF0FBECDBF44
:101FB000DF91CF910C94401ACF92DF92EF92FF9273
:101FC0000F931F93CF93DF93EC016A017B01E889A4
:101FD000F98982E080834115514E61057105B1F0A8
:101FE00060E079E08DE390E0A70196010E9443371D
:101FF00089019A0101501109210931093695279566
:1020000017950795980101151041A8F0E889F989FD
:10201000108260E874E88EE190E0A70196010E94CA
:102020004337DA01C9010197A109B109B695A7950E
:10203000979587959C01EC85FD853083EE85FF851E
:102040002083188EEC89FD8986E08083EA89FB89EC
:10205000808180618083EA89FB89808188608083B8
:10206000EA89FB89808180688083EA89FB89808195
:102070008F7D8083DF91CF911F910F91FF90EF9023
:10208000DF90CF900895CF93DF93EC01E881F98141
:102090000084F185E02DCE011995892B41F0E8816E
:1020A000F9810284F385E02DCE011995EFCFDF9100
:1020B000CF910895CF93DF931F92CDB7DEB7698399
:1020C000DC01ED91FC910280F381E02D41E050E0D4
:1020D000BE016F5F7F4F19950F90DF91CF910895EB
:1020E000089581E090E030916806209167063217EC
:1020F00010F480E090E09195819591090895809188
:10210000680690916706891730F48F5F80936806A0
:1021100080E090E008958FEF9FEF0895809167062B
:1021200090E020916806821B91090895089580E04F
:1021300090E008950F931F93CF93DF931F921F9208
:10214000CDB7DEB78C01DC01ED91FC910084F18507
:10215000E02D1995892B29F11982F8018485909138
:102160008C09891309C09E012F5F3F4F40E0BE01DB
:102170006E5F7F4F0E9466278981882379F0D8019E
:102180001C96EC911C97F0E0EE0FFF1FE050FE4F05
:102190008FEF9FEF918380831C968C938A8190E0D0
:1021A00002C08FEF9FEF0F900F90DF91CF911F91A3
:1021B0000F9108950F931F93CF93DF931F921F9258
:1021C000CDB7DEB78C01DC01ED91FC910084F18587
:1021D000E02D1995892B29F11982F80184859091B8
:1021E0008C09891309C09E012F5F3F4F41E0BE015A
:1021F0006E5F7F4F0E9466278981882379F0D8011E
:102200001C96EC911C97F0E0EE0FFF1FE050FE4F84
:102210008FEF9FEF918380831C968C938A8190E04F
:1022200002C08FEF9FEF0F900F90DF91CF911F9122
:102230000F9108958F929F92AF92BF92CF92DF92AB
:10224000EF92FF920F931F93CF93DF931F921F92F2
:10225000CDB7DEB77C018A01DC01ED91FC910084F1
:10226000F185E02D69837A83199569817A81892BBB
:1022700019F48FEF9FEF58C0F701948580918C0976
:10228000981350C080918D0990918E09A0918F096B
:10229000B09190094801A12CB12C88159905AA0587
:1022A000BB050CF48C016B017B01E00EF11ECE141A
:1022B000DF04B1F10E945A274B015C018091AF0607
:1022C0009091B006DC01ED91FC910284F385E02D44
:1022D000199597FF0EC00E945A27DC01CB0188197F
:1022E0009909AA09BB09883E9340A105B10530F3BD
:1022F000C0CFD6018D936D0180918D0990918E098B
:10230000A0918F09B09190090197A109B10980931B
:102310008D0990938E09A0938F09B0939009C7CF30
:10232000C80102C080E090E00F900F90DF91CF9144
:102330001F910F91FF90EF90DF90CF90BF90AF90E3
:102340009F908F900895EF92FF920F931F93CF93DA
:10235000DF93CDB7DEB762970FB6F894DEBF0FBE3E
:10236000CDBF7C01FB0185811F928F9384811F92D9
:102370008F9383811F928F9382811F928F9322ED7F
:1023800032E03F932F938E010F5F1F4F1F930F93E8
:10239000498B5A8B0E94983149895A89B801C701E3
:1023A000D8DB0FB6F894DEBF0FBECDBF62960FB676
:1023B000F894DEBF0FBECDBFDF91CF911F910F917B
:1023C000FF90EF900895C5CBCF92DF92EF92FF92EE
:1023D0000F931F93CF93DF937C01262F972F8A01B2
:1023E00080912E07882391F0C62FD72F6E01C40E3F
:1023F000D51ECC15DD0571F06991D701ED91FC91E9
:102400000190F081E02DC7011995F3CF642F822F41
:102410000E942D04C801DF91CF911F910F91FF9071
:10242000EF90DF90CF900895CF93DF931F92CDB7B9
:10243000DEB7698320912E072223D1F02091650613
:10244000203240F021E030E0FC013383228380E041
:1024500090E015C080916606E82FF0E0E15DF84F4E
:10246000998190838F5F809366068093650605C08F
:1024700061E0CE0101960E942D0481E090E00F9072
:10248000DF91CF9108958091AF069091B006DC0165
:10249000ED91FC910084F185E02D1995181619062F
:1024A00064F48091AF069091B006DC01ED91FC914F
:1024B0000284F385E02D1995E6CF08953F924F925F
:1024C0005F926F927F928F929F92AF92BF92CF92C4
:1024D000DF92EF92FF920F931F93CF93DF936C01E4
:1024E0005B01342E80913E0990913F0990934309FE
:1024F000809342090E945A272B013C01CFEFDFEF66
:102500000D2C000CEE08FF080E945A27DC01CB01BD
:1025100084199509A609B7098C159D05AE05BF0557
:1025200008F05BC0CF3FFFEFDF0709F056C0809196
:10253000AF069091B006DC01ED91FC910084F1852D
:10254000E02D1995892B01F38091AF069091B0068B
:10255000DC01ED91FC910284F385E02D1995E09169
:102560004209F09143098083809142099091430987
:10257000019690934309809342092091400930913C
:1025800041098217930740F080913E0990913F09DD
:102590009093430980934209A114B10431F0C5011D
:1025A00090DA882311F0C5E0D0E0332009F4ACCFF5
:1025B00089EF882E82E0982E00E010E0F4018191EE
:1025C00091914F017EDA811106C00F5F1F4F0530D8
:1025D0001105A1F799CFE80197CF0E945A27DC0196
:1025E000CB0184199509A609B7098C159D05AE057F
:1025F000BF0560F061E873E081E998E00E94352151
:1026000062EC72E081E998E00E942521CE01DF9121
:10261000CF911F910F91FF90EF90DF90CF90BF90DF
:10262000AF909F908F907F906F905F904F903F9072
:102630000895AF92BF92CF92DF92EF92FF920F93E5
:102640001F93CF93DF93CDB7DEB764970FB6F8949F
:10265000DEBF0FBECDBF7C015B018A01DC011C9691
:102660008C91843018F44115510531F481E090E0EB
:10267000F7019383828383C01F934F931F928F939D
:1026800084E193E09F938F939E012F5F3F4F6901F9
:102690003F932F930E949831B6018091AF0690919D
:1026A000B0060E94152140E069ED75E088EE93E0E8
:1026B00005DF0FB6F894DEBF0FBECDBF059749F01A
:1026C00061E873E081E998E00E94352169EF72E0EA
:1026D0001EC08091AF069091B006DC01ED91FC9197
:1026E0000280F381E02DA801B501199541E060E079
:1026F00070E080ED97E0E2DE039709F443C061E803
:1027000073E081E998E00E9435216EED72E081E985
:1027100098E00E94252181E090E0F7019383828375
:1027200061E873E081E998E00E94352165E273E099
:1027300081E998E00E944E206FE774E081E998E01B
:102740000E943521D7011C964C9150E060E070E06A
:102750002AE081E998E00E94872081E998E00E94C0
:10276000122160EA7FE080E090E00E942227D701FA
:10277000ED91FC910488F589E02DC701199580E061
:1027800090E001C0C80164960FB6F894DEBF0FBE9A
:10279000CDBFDF91CF911F910F91FF90EF90DF9010
:1027A000CF90BF90AF900895CF93DF93CDB7DEB7B2
:1027B000C85CD1090FB6F894DEBF0FBECDBF9E0135
:1027C0002E523F4FC253DF4F48815981CE5CD040DB
:1027D00068EC70E0CE0101960E94C73181E053DEC3
:1027E000BE016F5F7F4F8091AF069091B0060E944F
:1027F000152141E060E070E0C053DF4F888199818E
:10280000C05DD0405BDEC853DF4F0FB6F894DEBF2B
:102810000FBECDBFDF91CF910895CF93DF93FC0121
:1028200024852F3FE9F1EC0161E873E081E998E04C
:102830000E9435216EE473E081E998E00E944E2009
:102840006FE774E081E998E00E9435214C8550E003
:1028500060E070E02AE081E998E00E94872081E949
:1028600098E00E9412218C851F928F938FE08F93A6
:1028700080EA8F938FE393E09F938F9395DFEC85AE
:10288000F0E0EE0FFF1FE050FE4F8FEF9FEF9183C0
:1028900080838C870F900F900F900F900F900F9068
:1028A000DF91CF910895AF92BF92CF92DF92EF92D6
:1028B000FF920F931F93CF93DF935C016B017A011B
:1028C000E901188281E0DFDDB5018091AF069091CA
:1028D000B0060E94252141E0B60188EE93E0EEDDCE
:1028E0008530910509F048C080913E0990913F09DB
:1028F000909343098093420940913C0950913D09CE
:102900004F5F5F4F60E070E00E948B3A41E0B7019B
:1029100084EF91E0D3DD059731F5A80141505109CD
:10292000F70101900020E9F73197CF018E199F0937
:1029300060913E0970913F09E0914209F09143098D
:10294000E61BF70BE81BF90B4E175F0708F0AF010A
:10295000CE010E94AD3A41E060E070E080ED97E08A
:10296000ADDD81E018C061E873E081E998E00E9484
:10297000352163EA72E00AC0059760F061E873E010
:1029800081E998E00E94352165EB72E081E998E0E9
:102990000E94252180E0DF91CF911F910F91FF9040
:1029A000EF90DF90CF90BF90AF900895CF92DF92DD
:1029B000EF92FF920F931F93CF93DF9340918D0976
:1029C00050918E0960918F09709190091416150627
:1029D0001606170644F490918C09981711F091117E
:1029E00002C0CA0106C1182F8091AF069091B006AF
:1029F000DC01ED91FC910084F185E02D1995892B86
:102A000019F480E090E0F5C0E090AF06F090B006D9
:102A1000C0E0D0E0C7010E94192097FD43C0FE012D
:102A2000E552FA4F2081022E000C330B82179307D8
:102A300089F1209779F36CED75E09E012150310901
:102A4000F901E552FA4F4081042E000C550B841712
:102A50009507E1F421153105E9F2EBEDF5E040E0F1
:102A600050E001916B01C40ED51ED601DC900D150E
:102A700039F04217530771F26F5F7F4FE901DDCFE5
:102A80004F5F5F4F4217530760F3F3CF21153105B6
:102A900099F7BECF2196C530D10509F0BBCF80E0B4
:102AA00090E002C08FEF9FEF892B09F0AACF8091B1
:102AB000AF069091B0060E94122660938C09809117
:102AC000AF069091B006DC01ED91FC910284F38594
:102AD000E02D19958091AF069091B0060E941226C4
:102AE00060938D0970938E0980938F09909390095C
:102AF0008091AF069091B006DC01ED91FC910284CB
:102B0000F385E02D19958091AF069091B0060E9453
:102B10001226609306078091AF069091B006DC0103
:102B2000ED91FC910284F385E02D19958091AF061B
:102B30009091B0060E941226609307078091AF061D
:102B40009091B006DC01ED91FC910284F385E02DBB
:102B500019958091AF069091B0060E94122660935D
:102B600008078091AF069091B006DC01ED91FC91D1
:102B70000284F385E02D19958091AF069091B006FF
:102B80000E941226609309078091AF069091B006CB
:102B9000DC01ED91FC910284F385E02D1995809183
:102BA000AF069091B006DC01ED91FC910284F385B3
:102BB000E02D19958091AF069091B0060E941226E3
:102BC00070930507609304078091AF069091B0065B
:102BD000DC01ED91FC910284F385E02D1995809143
:102BE0008C09811711F011110CCF80918D099091F2
:102BF0008E09DF91CF911F910F91FF90EF90DF90A1
:102C0000CF900895FC0184858F3F19F0CFDE97FFA8
:102C100002C080E090E008951F920F920FB60F92CD
:102C200011240BB60F922F933F934F935F936F93A3
:102C30007F938F939F93AF93BF93EF93FF93809175
:102C4000B900887F803609F49CC068F5883209F4A1
:102C50005BC090F4803109F454C038F4882309F43F
:102C6000F6C0883009F44DC0F6C0883109F44CC074
:102C7000803209F45DC0EFC0803409F468C048F4C4
:102C8000803309F455C0883309F0E5C080932D07DF
:102C9000D8C0803509F44FC0883509F45DC0883448
:102CA00009F0D9C0D6C0883909F4C7C0A8F488375C
:102CB00009F467C038F4883609F463C0803709F432
:102CC00060C0C9C0883809F4B8C0803909F45FC051
:102CD000803809F0C0C05BC0803B09F486C038F47E
:102CE000803A09F466C0883A09F47FC0B4C0803CD9
:102CF00009F4A7C0883C09F4A4C0883B09F48AC041
:102D0000AAC080910A0710C090912C0780912B07D0
:102D1000981770F5E0912C0781E08E0F80932C07B7
:102D2000F0E0E55FF84F80818093BB0085EC86C0C2
:102D300080932D078EC0E0912C0781E08E0F809349
:102D40002C078091BB00F0E0E55FF84F8083909105
:102D50002C0780912B076EC0E0912C0781E08E0F2D
:102D600080932C078091BB00F0E0E55FF84F8083F3
:102D70008091630681116DC081E08093620684EAD0
:102D800061C083E08093640610920307CFCF8091E7
:102D90000307803208F051C0E091030781E08E0FF5
:102DA000809303078091BB00F0E0ED51F94F8083E1
:102DB000BDCF85EC8093BC00109264068091030720
:102DC000803230F4E0910307F0E0ED51F94F1082CA
:102DD0006091030770E0E091E106F091E20683EE76
:102DE00096E019951092030736C084E0809364063C
:102DF0001092E0061092DD06E091DE06F091DF060B
:102E000019958091DD06811105C081E08093DD0672
:102E10001092BD06E091E00681E08E0F8093E006FF
:102E2000F0E0E354F94F80818093BB009091E0067D
:102E30008091DD06981708F479CF85E88093BC006F
:102E40000AC085EC8093BC001092640604C0109206
:102E50002D070E942304FF91EF91BF91AF919F91A5
:102E60008F917F916F915F914F913F912F910F9033
:102E70000BBE0F900FBE0F901F9018950895FC0188
:102E800090810180F281E02D892F809560FF12C032
:102E9000F8942281822382838181892B8183A3E21A
:102EA000B0E01197F1F78281982B9283789487EDA7
:102EB00090E011C0F8942281822382838181892B42
:102EC0008183AFEFB0E01197F1F78281982B928365
:102ED00078948FE090E00197F1F7089521E0FC01EC
:102EE00084858F3F09F420E0822F08950C940239E5
:102EF0000C9402390C940239CF92DF92EF92FF9238
:102F00000F931F93CF93DF93CDB7DEB76E970FB6B6
:102F1000F894DEBF0FBECDBFFC0184858F3FC1F1A9
:102F20007F0144DD892B11F094E033C0D7011C965A
:102F30008C911F928F938AE693E09F938F93FE016B
:102F400031966F01FF93EF930E9498310AE010E0F1
:102F50009E012B5E3F4F4FED55E0B6018DE593E0AE
:102F6000A2DC0F900F900F900F900F900F90811197
:102F7000DBCFD7011C96EC911C97F0E0EE0FFF1F02
:102F8000E050FE4F8FEF9FEF918380831C968C93D0
:102F900090E081E0943009F080E06E960FB6F894EE
:102FA000DEBF0FBECDBFDF91CF911F910F91FF907C
:102FB000EF90DF90CF900895CF92DF92EF92FF9243
:102FC0000F931F93CF93DF93CDB7DEB72C970FB638
:102FD000F894DEBF0FBECDBF8C01CB01BA010E94B9
:102FE0009E047C01009709F44BC0FC01C480D5808D
:102FF000F1E0CF16D10461F4FC016681778161159F
:10300000710531F08FEB94E00E949D3A892B69F0B5
:10301000F1E0CF1AD10882E0C816D10430F4F701EC
:10302000668177816115710569F56EEB74E0CE01FB
:1030300001966C011ED7DC86CB86CE010B96988755
:103040008F831A861986BE01695F7F4FC701049678
:103050000E94E50489819A81F801918380838B81A4
:103060009C81938382838D819E81958384831A8240
:1030700019821C821B821E821D82C601BDD604C01D
:103080006EEB74E0C801F5D6C8012C960FB6F89423
:10309000DEBF0FBECDBFDF91CF911F910F91FF908B
:1030A000EF90DF90CF900895EF92FF921F93CF9310
:1030B000DF9300D000D0CDB7DEB77C01DC011496E1
:1030C0008D919C9115979A8389831C821B821E8205
:1030D0001D82C70102960E944123D7011296ED91ED
:1030E000FC9113971081173239F1123229F180EDDA
:1030F000810F8A3078F081EA810F8C3158F08FEBA4
:10310000810F8A3138F01B3229F083ED810F823034
:1031100008F044C0F70182819381019693838283F2
:10312000612FCE0101960E94EC22D7011296ED91FB
:10313000FC9113971081DBCF3196D7011396FC9346
:10314000EE931297D7011296ED91FC91139760813F
:10315000662321F1CF01019613969C938E931297CB
:103160006117E1F06C35A9F46181A4EBB4E08C91B6
:10317000882339F0861303C011966C9102C0129611
:10318000F6CF662359F03296D7011396FC93EE934F
:103190001297CE0101960E94EC22D4CF60E0CE01BE
:1031A00001960E94EC228B819C8126960FB6F894A2
:1031B000DEBF0FBECDBFDF91CF911F91FF90EF908B
:1031C00008959F92AF92BF92CF92DF92EF92FF92BB
:1031D0000F931F93CF93DF9300D000D0CDB7DEB70E
:1031E000D82EC92E082F192FF801819191918F01A6
:1031F0000E94D7077C016BE7C8010E9483238823C4
:1032000009F442C06DE7C8010E94832381113FC0C9
:1032100086E0982E8D2D9C2D47DF5C01892BA1F136
:103220006AE3C8010E948323882371F11A821982FC
:10323000BE016F5F7F4F8D2D9C2D0E943E25882300
:1032400019F1B501C7010E949E04009741F4C7011E
:103250000E947C040097C1F0FC01B382A282FE01AF
:103260003196DC011496892D01900D928A95E1F733
:103270006DE7C8010E948323811109C06CE2C80177
:103280000E9483238111C6CF0E94C50701C0C701D8
:1032900026960FB6F894DEBF0FBECDBFDF91CF915B
:1032A0001F910F91FF90EF90DF90CF90BF90AF9064
:1032B0009F9008950895AF92BF92CF92DF92EF92C0
:1032C000FF920F931F93CF93DF93CDB7DEB768972D
:1032D0000FB6F894DEBF0FBECDBF8B0162E176E082
:1032E000C8010E9493226C0169E176E0C8010E9446
:1032F00093225C0140E256E0B801CE0143965CDEC9
:1033000047E256E0B801CE010D9656DEC6010E9496
:103310009024C5010E949024BE016D5E7F4FCE01B6
:1033200007969FD5BE01635F7F4FCE01019699D569
:1033300082E190E00E946D387C018E010F5F1F4F8B
:103340009E01295F3F4FA501B6010E945522C80189
:1033500053D5CE01079650D5CE010D964DD5CE0151
:1033600043964AD5C70168960FB6F894DEBF0FBEE4
:10337000CDBFDF91CF911F910F91FF90EF90DF9024
:10338000CF90BF90AF90089508950895CF93FC011A
:10339000C48121E020932E07C0934F071092660648
:1033A000109265068385682B8EE299E03DD8809166
:1033B0006506813208F046C0909164069111FCCFF9
:1033C00092E09093640691E0909363069FEF909350
:1033D0002D0710922C0780932B07AFE2B7E02BE06C
:1033E00037E0F9019E2F921B981718F49D91919345
:1033F000F9CF10920A0780910A07CC0FC82BC0930F
:103400000A0780916206813061F410926206809111
:103410000A078093BB008091BC0083FDF8CF85EC48
:1034200001C085EE8093BC00809164068230E1F398
:1034300080912D078F3F31F080912D07803211F060
:1034400080912D07109266061092650610922E0745
:10345000CF9108950F931F93CF938C01C62F96DFC2
:103460006C2F6460C80192DF6C2F6B7FC8018EDF08
:1034700083EC90E00197F1F7CF911F910F910895A0
:103480000F931F93CF93DF938C01D62FC42F607FB0
:10349000642BE0DF6D2F6295607F6C2BC801DF919C
:1034A000CF911F910F91D6CF41E0EADF81E090E00C
:1034B000089540E061E0E4DF8BE39FE10197F1F7DD
:1034C0000895DC01E0E0615038F08D91E827F0E0EC
:1034D000E758FC4FE491F7CF8E2F0895CF92DF92FB
:1034E000EF92FF920F931F93CF93DF931F92CDB76D
:1034F000DEB76C01E62E08E010E0FF24F39461E0F3
:103500008F2D8E2109F460E0C6014983B8DCFF0CE1
:103510000150110949810115110589F7411115C0A3
:10352000F894D6011196ED91FC91129791818C91AE
:103530008095892381831196ED91FC911297928158
:103540008C9180958923828378940F90DF91CF911D
:103550001F910F91FF90EF90DF90CF900895CF9241
:10356000DF92EF92FF920F931F93CF93DF931F92FF
:10357000CDB7DEB78C01F62E40E065E57983AEDF8E
:10358000CF2C7981D72E760188E0E80EF11CF60168
:1035900061916F0140E0C801A1DFCE14DF04B9F7EB
:1035A0000F90DF91CF911F910F91FF90EF90DF90DF
:1035B000CF900895FC0190810180F281E02DF89474
:1035C0008181892B81832281892F809528232283E1
:1035D000A7E0B0E01197F1F7218182238183A3E274
:1035E000B0E01197F1F780817894EFECF0E031973B
:1035F000F1F7982381E009F480E00895FC019081BF
:103600000180F281E02DF8948181292F2095822379
:10361000818378948DE743E050E0815021F1DA0115
:103620001197F1F730813923C1F3F8948281822315
:1036300082838181892B81837894ABE7B7E01197EE
:10364000F1F7F894818128232183A3E1B1E0119758
:10365000F1F78081982381E009F080E07894E3E637
:10366000F6E03197F1F708956F927F928F929F92D3
:10367000AF92BF92CF92DF92EF92FF920F931F9380
:10368000CF93DF931F921F92CDB7DEB78C017A01E3
:10369000FC018581968169837A83B0DF69817A81B3
:1036A000882371F1F8018581968159DF40E06EEB46
:1036B000F8018581968112DF37015701F9E0AF0EDD
:1036C000B11CF8018580968088E0C82ED12CEE24AC
:1036D000E394F12CC4016EDF8111FE28EE0CF1E0C1
:1036E000CF1AD108B9F7F301F1923F01EA15FB05B2
:1036F00041F7F8018581968181DF91E0813009F001
:1037000090E0892F0F900F90DF91CF911F910F9133
:10371000FF90EF90DF90CF90BF90AF909F908F90F1
:103720007F906F900895CF93DF93CDB7DEB7299741
:103730000FB6F894DEBF0FBECDBFFB012081203154
:1037400009F1AE014F5F5F4F8FDF882371F068E0B2
:10375000CE010196B6DE9985891307C008C0803472
:1037600058F08F3569F08F3769F080E00CC08D819B
:103770008F33A9F78AE007C08F31B9F789E003C01A
:103780008BE001C08CE029960FB6F894DEBF0FBE27
:10379000CDBFDF91CF910895AF92BF92CF92DF92CC
:1037A000EF92FF920F931F93CF93DF931F92CDB7AA
:1037B000DEB75C01E62ED72EFC018585811158C04D
:1037C000C5011CDF811105C0F5011386158614861D
:1037D00067C040E060EFC50181DE01E0F12CC12C43
:1037E00011E0C501E7DE682FC5016983E3DE698169
:1037F000613019F48130B9F432C04F2D50E06813B4
:103800001BC0F5018385181730F4E40FF51F838181
:10381000802349F402C0181731F060E0193058F4E1
:10382000F501148708C0F501EF0DF11D8381802B90
:10383000838361E009C0C12EF501E40FF51F938178
:10384000802F809589238383C50119DB1F5F000FBB
:1038500011F4F39401E0F7E0FF1508F0C2CF113442
:1038600038F0F501C386C11015C081E0858712C00C
:10387000F50113861586148680E0D5011396EE2D8A
:10388000FD2D9501255F3F4F9D919193A217B307A1
:10389000D9F706C0F5018381882351F381E0EDCF8C
:1038A0000F90DF91CF911F910F91FF90EF90DF90DC
:1038B000CF90BF90AF900895CF92DF92EF92FF929A
:1038C0000F931F93CF93DF936C017A018B01C0E0BC
:1038D000D0E0CE15DF0589F0D8016D918D01D601BC
:1038E000ED91FC910190F081E02DC6011995892B95
:1038F00011F47E0102C02196ECCFC701DF91CF9178
:103900001F910F91FF90EF90DF90CF900895FC01F1
:10391000A089B1898C91A689B78982FD0FC09C913D
:10392000818D8F5F8F73228D821749F0218DDF018A
:10393000A20FB11D5D969C93818F08958C9108957F
:10394000FC01538D448D252F30E0842F90E0821BA5
:10395000930B541710F0CF96089501970895FC012A
:10396000918D828D981761F0828DDF01A80FB11DB6
:103970005D968C91928D9F5F9F73928F90E00895DA
:103980008FEF9FEF0895FC01918D828D981731F094
:10399000828DE80FF11D858D90E008958FEF9FEFE8
:1039A0000895FC01918D228D892F90E0805C9F4FBE
:1039B000821B91098F739927089587E597E0F1DFBE
:1039C00021E0892B09F420E0822F089584EF97E00D
:1039D000E8DF21E0892B09F420E0822F089581E9B6
:1039E00098E0DFDF21E0892B09F420E0822F0895A1
:1039F000FC01848DDF01A80FB11DA35ABF4F2C918C
:103A0000848D90E001968F739927848FA689B7895A
:103A10002C93A089B1898C9180648C93938D848D33
:103A2000981306C00288F389E02D80818F7D808302
:103A30000895EF92FF920F931F93CF93DF93EC01C2
:103A400081E0888F9B8D8C8D981305C0E889F9895A
:103A5000808185FD23C0F62E0B8D10E00F5F1F4F78
:103A60000F731127E02E8C8DE8120BC00FB607FCE8
:103A7000FACFE889F989808185FFF5CFCE01B8DFDB
:103A8000F2CF8B8DFE01E80FF11DE35AFF4FF0825C
:103A90000B8FEA89FB898081806207C0EE89FF89EC
:103AA0006083E889F98980818064808381E090E087
:103AB000DF91CF911F910F91FF90EF900895CF93D9
:103AC000DF93EC01888D8823C1F0EA89FB8980812E
:103AD00085FD05C0A889B9898C9186FD0EC00FB6F9
:103AE00007FCF5CF808185FFF2CFA889B9898C9139
:103AF00085FFEDCFCE017CDFE8CFDF91CF91089538
:103B000080E090E0892B19F06ADF81111BC080E012
:103B100090E0892B19F05ADF811117C080E090E006
:103B2000892B19F04ADF811113C080E090E0892BC6
:103B3000A1F080E090E0892B81F00E9400008111CB
:103B40000AC008950E940000E2CF0E940000E6CF64
:103B50000E940000EACF0C94000008950E947E3A73
:103B60000F931F93CF93DF93EC0188819981009786
:103B700029F02A813B812617370788F48B016F5F74
:103B80007F4F0E949A39009761F0998388831B8345
:103B90000A832C813D81232B11F4FC01108281E0EA
:103BA00001C080E0DF91CF911F910F9108950C9497
:103BB0000239CF92DF92EF92FF920F931F93CF9330
:103BC000DF938C017B01DC011596CD91DC9116977A
:103BD0006B016C177D0708F46E01C60106960E9402
:103BE0006D38FC01892BB1F0D382C282D8011396C3
:103BF0008D919C911497918380831496FC93EE93FE
:103C00001397CC0FDD1F1696DC93CE931597F58294
:103C1000E4823696CF01DF91CF911F910F91FF90F3
:103C2000EF90DF90CF900895DC011396ED91FC9119
:103C30001497309751F024813581AB01420F531F07
:103C4000A281B381A417B50708F4B3CFC9010696C2
:103C5000558344838E0F9F1F0895FC012481358175
:103C6000FB01448155812417350721F5FC01808132
:103C70009181FB0160817181009719F061157105D7
:103C8000A1F46115710549F0232BB1F0FB0180818E
:103C900090E09195819591090AC0009769F0232BD6
:103CA00059F0FC01808190E002C00E949D3A21E021
:103CB000892B19F020E001C021E0822F0895EF92B6
:103CC000FF920F931F93CF93DF93FC0124813581E3
:103CD0006115710511F480E018C041155105A1F07E
:103CE0007B01EC018A01020F131FB80139DF882321
:103CF00091F3288139818C819D81B701820F931FB7
:103D00000E94A63A1D830C8381E0DF91CF911F9121
:103D10000F91FF90EF900895CF93DF931F921F9222
:103D2000CDB7DEB769831A8241E050E0BE016F5F14
:103D30007F4FC5DF0F900F90DF91CF910895CF9304
:103D4000DF93EC0188819981009711F00E9402397C
:103D5000198218821D821C821B821A82DF91CF91E8
:103D60000895CF93DF93EC016115710559F0FB01C4
:103D700001900020E9F73197AF01461B570B9FDFF9
:103D8000811102C0CE01DBDFCE01DF91CF9108951A
:103D9000EF92FF920F931F93CF93DF93EC017B0180
:103DA0008A01BA01DDDE811103C0CE01C8DF07C080
:103DB0001D830C83B701888199810E94A63ACE01A8
:103DC000DF91CF911F910F91FF90EF900895CF93C6
:103DD000DF93EC01FB018617970751F06081718139
:103DE0006115710521F044815581D2DF01C0A7DF43
:103DF000CE01DF91CF910895FC01808191810C94D7
:103E00000239CF93DF93EC018FE093E099838883AD
:103E1000CE010896F1DFCE010296DF91CF91ECCF73
:103E2000CF93DF93EC01EDDFCE01DF91CF910C94C6
:103E30000239CF93DF93EC0187E093E09983888385
:103E4000CE010C96D9DFCE010696DF91CF91D4CF6B
:103E5000CF93DF93EC01EDDFCE01DF91CF910C9496
:103E60000239FC011182108213821282158214829F
:103E7000AECFFC011182108213821282158214824D
:103E80006115710549F0FB0101900020E9F73197B8
:103E9000AF01461B570B7CCF08951F920F920FB6B0
:103EA0000F9211240BB60F922F933F934F935F9372
:103EB0006F937F938F939F93AF93BF93EF93FF93F2
:103EC0008091530790915407A0915507B0915607E0
:103ED000892B8A2B8B2B59F180915207E091500747
:103EE000F0915107908189278083809153079091A9
:103EF0005407A0915507B0915607181619061A06CF
:103F00001B060CF055C08091530790915407A09167
:103F10005507B09156070197A109B109809353073E
:103F200090935407A0935507B093560741C08091D2
:103F30000802E9E7F4E0E4919FEF90930802E23091
:103F4000C9F050F4EE2399F0E13081F590916F00C3
:103F50009D7F90936F002AC0E43019F1E0F0E530C6
:103F600029F5909173009D7F909373001FC010926C
:103F70006E001CC0909170009D7F9093700091E046
:103F80009093B0009091B100987F94609093B100AD
:103F90001092B3000BC0909171009D7F90937100BF
:103FA00005C0909172009D7F9093720060E0DFD613
:103FB000FF91EF91BF91AF919F918F917F916F9101
:103FC0005F914F913F912F910F900BBE0F900FBEBD
:103FD0000F901F9018950F931F93CF93DF93EC01D1
:103FE00069D7688779878A879B87E881F981048404
:103FF000F585E02DCE01199597FF16C05BD7088592
:1040000019852A853B85DC01CB01801B910BA20B16
:10401000B30B0C811D812E813F8180179107A20770
:10402000B30718F38FEF9FEFDF91CF911F910F919F
:1040300008950F931F93CF93DF93EC013BD76887CD
:1040400079878A879B87E881F9810284F385E02D4F
:10405000CE01199597FF16C02DD7088519852A8599
:104060003B85DC01CB01801B910BA20BB30B0C81B8
:104070001D812E813F8180179107A207B30718F396
:104080008FEF9FEFDF91CF911F910F910895DC018A
:10409000ED91FC910190F081E02D1994EF92FF9247
:1040A0000F931F93CF93DF938C017B01C0E0D0E08F
:1040B000F701EC0FFD1F6491662361F0D801ED91CB
:1040C000FC910190F081E02DC8011995892B11F028
:1040D0002196EECFCE01DF91CF911F910F91FF90EE
:1040E000EF9008956115710579F0FB0101900020B2
:1040F000E9F73197AF01461B570BDC01ED91FC91BD
:104100000280F381E02D199480E090E008954F92B1
:104110005F926F927F92EF92FF920F931F93CF93D4
:10412000DF93CDB7DEB7A1970FB6F894DEBF0FBE11
:10413000CDBF7C01FA01CB0119A2223008F42AE09C
:104140008E010F5D1F4F422E512C612C712CBF012F
:10415000A30192010E944337F901CA0101501109DC
:104160006A3014F4605D01C0695CD8016C93232B44
:10417000242B252B61F7B801C701B4DFA1960FB638
:10418000F894DEBF0FBECDBFDF91CF911F910F918D
:10419000FF90EF907F906F905F904F9008958F9277
:1041A0009F92AF92BF92CF92DF92EF92FF920F93C6
:1041B0001F93CF93DF937C018B016C0182E0C80ECB
:1041C000D11C4701E5E08E0E911CC0E0D0E0F60165
:1041D00041916F0150E060E070E02AE0C80197DF94
:1041E0005C016EE2C80153DF8A0D9B1DC80FD91F09
:1041F000C814D90461F7F701458150E060E070E030
:104200002AE0C80184DF8C0F9D1FDF91CF911F91A1
:104210000F91FF90EF90DF90CF90BF90AF909F9065
:104220008F90089562E875E05DCF0F931F93CF9351
:10423000DF93EC0157DF8C01CE01F4DF800F911F7B
:10424000DF91CF911F910F9108950F931F93CF93FB
:10425000DF93EC0123DF8C01CE01E4DF800F911F9F
:10426000DF91CF911F910F9108953CCF1F920F9234
:104270000FB60F9211240BB60F922F933F934F93CB
:104280005F936F937F938F939F93AF93BF93EF93BE
:10429000FF9387E597E0ACDBFF91EF91BF91AF9182
:1042A0009F918F917F916F915F914F913F912F914E
:1042B0000F900BBE0F900FBE0F901F9018951F927E
:1042C0000F920FB60F9211240BB60F922F933F93BC
:1042D0004F935F936F937F938F939F93AF93BF930E
:1042E000EF93FF9387E597E012DBFF91EF91BF918A
:1042F000AF919F918F917F916F915F914F913F917E
:104300002F910F900BBE0F900FBE0F901F9018951E
:104310001F920F920FB60F9211240BB60F922F938C
:104320003F934F935F936F937F938F939F93AF933D
:10433000BF93EF93FF9384EF97E05ADBFF91EF91E8
:10434000BF91AF919F918F917F916F915F914F91AD
:104350003F912F910F900BBE0F900FBE0F901F90AB
:1043600018951F920F920FB60F9211240BB60F9251
:104370002F933F934F935F936F937F938F939F936D
:10438000AF93BF93EF93FF9384EF97E0C0DAFF9171
:10439000EF91BF91AF919F918F917F916F915F91BD
:1043A0004F913F912F910F900BBE0F900FBE0F902A
:1043B0001F9018951F920F920FB60F9211240BB6F3
:1043C0000F922F933F934F935F936F937F938F93AE
:1043D0009F93AF93BF93EF93FF9381E998E008DB3E
:1043E000FF91EF91BF91AF919F918F917F916F91CD
:1043F0005F914F913F912F910F900BBE0F900FBE89
:104400000F901F9018951F920F920FB60F921124C4
:104410000BB60F922F933F934F935F936F937F93BE
:104420008F939F93AF93BF93EF93FF9381E998E0AE
:104430006EDAFF91EF91BF91AF919F918F917F9134
:104440006F915F914F913F912F910F900BBE0F9005
:104450000FBE0F901F901895CF92DF92EF92FF92B0
:104460000F931F93CF93DF93EC016B017A018FE0E1
:1044700093E0FE01819391938F016EEB74E0CF0185
:10448000F8DC28966EEB74E0CE01F3DCB601C801CF
:104490009EDCB701CE01DF91CF911F910F91FF906C
:1044A000EF90DF90CF9093CC08956F927F928F9290
:1044B0009F92AF92BF92CF92DF92EF92FF920F93B3
:1044C0001F93CF93DF93EC015B014A01690187E001
:1044D00093E0998388833E0186E0680E711C6EEB41
:1044E00074E0C301C6DC7E018CE0E80EF11C6EEBCB
:1044F00074E0C701BEDCBB82AA829D828C82B601B9
:10450000C30165DCB801C701DF91CF911F910F9105
:10451000FF90EF90DF90CF90BF90AF909F908F90E3
:104520007F906F9054CC0E949E04FC01892B09F46B
:104530004BC084819581833091053CF48130910595
:104540007CF4009709F447C038C0853091052CF001
:10455000059799F5668177812BC0868197810895AB
:104560000680F781E02D309779F18081843779F1E9
:104570008B3229F08D3221F4319691E002C03196D0
:1045800090E060E070E03AE0819120ED280F2A3061
:1045900068F4369FA001379F500D1124682F880FB3
:1045A000770B60537109640F751FEECF992391F05B
:1045B00088279927861B970B0895668177818085C8
:1045C00091850E94E33706C080E090E0089581E085
:1045D00090E00895CB010895FF920F931F93CF931E
:1045E000DF93EC01F62E88819981FC01A381B481CF
:1045F000109771F01496ED91FC9115979F012F5F24
:104600003F4F12964D915C9113974217530750F507
:104610002C813D81B9016F5F7F4FCBDA8C016A81BC
:104620007B816115710549F00115110571F04C810F
:104630005D81C8010E94823A03C00115110529F06D
:10464000EC81FD81E00FF11FF0821B830A838C81D6
:104650009D8101969D838C83DF91CF911F910F9156
:10466000FF9008953696EA0FFB1F15963C932E9304
:10467000149760838C819D81892B49F7FB83EA83A2
:10468000E6CFFC01A081B1818C918D3051F024F4F2
:1046900089508230B8F505C0803219F08F3219F098
:1046A000089511962CC011968C9111978A3219F0A9
:1046B0008F32D1F008951196B183A083A081B1818A
:1046C000CD0101969183808311968C911197882357
:1046D000C9F08A3299F712968C9112978F3271F73E
:1046E00013960DC08A3071F2A081B181CD0101967F
:1046F0009183808311968C918111F4CF03C0B18393
:10470000A083C0CF08950F931F93CF93DF931F9281
:10471000CDB7DEB78C016983B4DFD801ED91FC9190
:10472000119780816981861305C03196ED93FC93C2
:1047300081E001C080E00F90DF91CF911F910F9138
:1047400008950E949E04009749F0FC012481358160
:104750002730310519F48681978108950C94C50797
:10476000CF93DF93FC01448155816081718181E9A0
:1047700098E0A2D8EC0181E998E054DD8C0F9D1FF0
:10478000DF91CF9108954F925F926F927F928F92B7
:104790009F92AF92BF92CF92DF92EF92FF926B0106
:1047A0007C019B01AC010E941838882319F06BE44E
:1047B00076E01AC046015701E894B7F82FEF3FEFB3
:1047C0004FE75FE7C501B4010E941838811111C09D
:1047D0002FEF3FEF4FE75FE7C501B4010E942A3694
:1047E00018163CF46FE476E081E998E07BDC7C010C
:1047F00085C02FEF3FEF4FE75FE4C701B6010E948E
:10480000143818161CF463E576E0EECF2FEF3FEF77
:104810004FE75FECC701B6010E942A3687FDF3CF50
:1048200020E030E0A901C701B6010E942A3687FFC7
:104830000AC06DE281E998E02ADC5C01F7FAF094A5
:10484000F7F8F09402C0A12CB12C2AE037ED43EA2E
:104850005BE3C701B6010E947F372B013C010E9438
:10486000E8376B017C010E942E369B01AC01C3012D
:10487000B2010E947E372B013C012AE0B701A6015C
:1048800081E998E044DC7C01EA0CFB1C6EE281E9E2
:1048900098E0FDDBE80EF91E20E030E040E251E454
:1048A000C301B2010E948F362B013C010E94E83700
:1048B0004B01A12CB12C2AE0B501A40181E998E0BB
:1048C00026DCE80EF91EC501B4010E942E369B01BC
:1048D000AC01C301B2010E947E3720E030E040E22B
:1048E00051E40E948F360E94E837AB0160E070E02F
:1048F0002AE081E998E00BDCE80EF91E81E998E0F6
:1049000091DC8E0D9F1DFF90EF90DF90CF90BF90B8
:10491000AF909F908F907F906F905F904F90089591
:10492000CF92DF92EF92FF92CF93DF936C01990FBA
:10493000EE08FF08F7FE14C06DE281E998E0A7DBFE
:10494000EC0144275527BA014C195D096E097F090E
:104950002AE081E998E0DBDB7C01EC0EFD1E07C05C
:104960002AE0B701A60181E998E0D1DB7C0181E969
:1049700098E058DC8E0D9F1DDF91CF91FF90EF9056
:10498000DF90CF90089590E0FC013197E231F1057E
:1049900008F04EC08827E658FF4F8F4F0C944B38D5
:1049A000809180008F7703C0809180008F7D8093FD
:1049B0008000089580918000877FF9CF84B58F773C
:1049C00002C084B58F7D84BD08958091B0008F773B
:1049D00003C08091B0008F7D8093B00008958091D6
:1049E00090008F7707C0809190008F7D03C08091E9
:1049F0009000877F8093900008958091A0008F772A
:104A000007C08091A0008F7D03C08091A000877FA8
:104A10008093A0000895809120018F7707C0809136
:104A200020018F7D03C080912001877F809320012A
:104A300008953FB7F8948091960990919709A091B5
:104A40009809B091990926B5A89B05C02F3F19F088
:104A50000196A11DB11D3FBFBA2FA92F982F8827FE
:104A6000820F911DA11DB11DBC01CD0142E0660F59
:104A7000771F881F991F4A95D1F708959F92AF928B
:104A8000BF92CF92DF92EF92FF920F931F93CF933B
:104A9000DF93CDB7DEB727970FB6F894DEBF0FBE12
:104AA000CDBFFC019681992309F4A8C07B018F0139
:104AB000915096836F0182E0C80ED11CC601E1DDE2
:104AC000D8011296ED91FC91139780818B3521F0DE
:104AD0008B3709F459C06CC0F801808191810E9424
:104AE000A2075C016BE5C6010EDE882341F16DE58E
:104AF000C60109DE811133C086E0982E1A82198220
:104B0000BE016F5F7F4FC801B9DF8823C1F0C501C7
:104B10000E947F07009799F0FE013196DC01129602
:104B2000892D01900D928A95E1F76DE5C601EBDDC7
:104B3000811115C06CE2C601E6DD8111DFCF8091E5
:104B4000B50681110EC01092B2061092B1061092F5
:104B5000B4061092B30681E08093B50602C0F50159
:104B600002C0E1EBF6E080819181892B11F420E015
:104B700040C086E090E0D70111969C938E931396E7
:104B8000FC93EE93129712C0C8010E94E118FC0139
:104B900020813181232B59F327E030E0D701119692
:104BA0003C932E9313969C938E93129721E021C0F1
:104BB00021E0873219F0823209F020E0C8012F830A
:104BC0000E9454182F81009791F2222341F042E075
:104BD00050E0F70151834083938382830AC021E030
:104BE00030E0D70111963C932E9313969C938E93AD
:104BF0001297F80186818F5F868301C020E0822FA3
:104C000027960FB6F894DEBF0FBECDBFDF91CF91D0
:104C10001F910F91FF90EF90DF90CF90BF90AF90DA
:104C20009F900895AF92BF92CF92DF92EF92FF9242
:104C30001F93CF93DF9300D01F92CDB7DEB75C01F7
:104C4000C501C9D9FC0197FD0FC08D32910581F0D6
:104C5000C0970A9768F0D501ED91FC910284F38525
:104C6000E02DC5011995ECCF60E070E0CB0149C0A3
:104C700020E030E0A90110E0E130F105E9F0ED328B
:104C8000F105C9F0CF01C0970A97B0F4AAE0B0E0EF
:104C90000E9465376F01FF0FEE08FF08DC01CB01B2
:104CA0008C0D9D1DAE1DBF1D9C01AD012053310912
:104CB0004109510901C011E0D501ED91FC91028437
:104CC000F385E02DC50129833A834B835C831995D5
:104CD000C50181D9FC01C09729813A814B815C8152
:104CE0000A9750F2E130F10539F2112341F06627BD
:104CF0007727CB01621B730B840B950B02C0CA0193
:104D0000B9010F900F900F900F90DF91CF911F91ED
:104D1000FF90EF90DF90CF90BF90AF900895CF932A
:104D2000DF93282F30E0F901EC5AFA4F8491F90112
:104D3000E25FFA4FD491F901E853FB4FC491CC23C1
:104D400089F0811120DEEC2FF0E0EE0FFF1FE2551D
:104D5000FB4FA591B491EC91ED2381E090E021F41B
:104D600080E002C080E090E0DF91CF9108951F9332
:104D7000CF93DF93282F30E0F901EC5AFA4F84915A
:104D8000F901E25FFA4FD491F901E853FB4FC49166
:104D9000CC23C1F0162F8111F6DDEC2FF0E0EE0FE1
:104DA000FF1FEC56FB4FA591B4918FB7F8941111EA
:104DB00005C09C91ED2FE095E92302C0EC91ED2B0D
:104DC000EC938FBFDF91CF911F910895CF93DF9325
:104DD00090E0FC01E25FFA4F2491FC01E853FB4FA5
:104DE0008491882361F190E0880F991FFC01E658B7
:104DF000FB4FC591D491FC01EC56FB4FA591B491AA
:104E0000611109C09FB7F894888120958223888317
:104E1000EC912E230BC0623061F49FB7F894388177
:104E2000822F809583238883EC912E2B2C939FBF18
:104E300006C08FB7F894E8812E2B28838FBFDF91AF
:104E4000CF9108958F929F92AF92BF92CF92DF92AF
:104E5000EF92FF926B017C01ECDD4B015C01C11410
:104E6000D104E104F104E9F0E4DDDC01CB018819AF
:104E70009909AA09BB09883E9340A105B10578F3B9
:104E800021E0C21AD108E108F10888EE880E83E01B
:104E9000981EA11CB11CC114D104E104F10421F736
:104EA000DECFFF90EF90DF90CF90BF90AF909F90BC
:104EB0008F9008952FB7F89460919209709193099B
:104EC00080919409909195092FBF08958F929F9298
:104ED000AF92BF92CF92DF92EF92FF92CF93DF9388
:104EE000F82EEB01E42E6901E5DF4B015C018091B6
:104EF000AF069091B006DC01ED91FC910084F18544
:104F0000E02D1995892B09F470C08091AF0690911E
:104F1000B006DC01ED91FC91EE2031F00484F585C2
:104F2000E02D1995888318C00284F385E02D19952A
:104F3000888380918D0990918E09A0918F09B091FD
:104F400090090197A109B10980938D0990938E0969
:104F5000A0938F09B093900980918D0990918E094B
:104F6000A0918F09B0919009892B8A2B8B2B11F07E
:104F700081E083C065E070E080E090E063DF8091D5
:104F8000AF069091B006DC01ED91FC910084F185B3
:104F9000E02D1995892B61F38091AF069091B006B1
:104FA000DC01ED91FC910484F585E02D19952F2D00
:104FB00030E0205D3F4F82179307D1F640E067E570
:104FC00076E084EF91E00E945E12059751F061E86F
:104FD00073E081E998E049D963EA75E081E998E0F6
:104FE00034D981E0F601808348C064DFDC01CB0165
:104FF00088199909AA09BB09803D9740A105B10507
:1050000008F475CF61E873E081E998E02ED96AE988
:1050100075E081E998E042D86FE774E081E998E0B3
:1050200024D9C0908D09D0908E09E0908F09F0901E
:105030009009F7FE0DC06DE281E998E028D8442779
:105040005527BA014C195D096E097F092AE003C092
:105050002AE0B701A60181E998E059D881E998E0F2
:10506000E1D810928D0910928E0910928F0910923A
:10507000900910928C09188280E0DF91CF91FF9007
:10508000EF90DF90CF90BF90AF909F908F9008955A
:105090001F920F920FB60F9211242F933F938F936D
:1050A0009F93AF93BF938091920990919309A091A0
:1050B0009409B09195093091910923E0230F2D3780
:1050C00020F40196A11DB11D05C026E8230F02960C
:1050D000A11DB11D2093910980939209909393098A
:1050E000A0939409B093950980919609909197099E
:1050F000A0919809B09199090196A11DB11D8093C5
:10510000960990939709A0939809B0939909BF9134
:10511000AF919F918F913F912F910F900FBE0F9064
:105120001F901895CF93DF93CDB7DEB7C954D1093F
:105130000FB6F894DEBF0FBECDBF789484B5826001
:1051400084BD84B5816084BD85B5826085BD85B52B
:10515000816085BD80916E00816080936E001092A9
:105160008100809181008260809381008091810024
:1051700081608093810080918000816080938000B5
:105180008091B10084608093B1008091B000816013
:105190008093B00080919100826080939100809113
:1051A0009100816080939100809190008160809354
:1051B00090008091A10082608093A1008091A10065
:1051C00081608093A1008091A00081608093A00005
:1051D0008091210182608093210180912101816071
:1051E0008093210180912001816080932001809132
:1051F0007A00846080937A0080917A008260809344
:105200007A0080917A00816080937A0080917A00A0
:10521000806880937A001092C10086E090E00E943E
:105220006D386C0183E192E0D60111969C938E93C8
:1052300080E490E013969C938E93129789E290E01D
:1052400015969C938E93149760E0C0DD60E080E437
:10525000BDDDD0927B06C0927A0686E090E00E9487
:105260006D385C018BE192E0F5019183808381E4EC
:1052700090E09383828387E290E09583848360E06B
:10528000A5DD60E081E4A2DDB0927906A092780607
:1052900084E090E00E946D384C0183E292E0D401FA
:1052A0008D939C938EE090E00E946D387C0160E0CD
:1052B00086E38CDDE4E4F5E0E491D701EC93EEEFD6
:1052C000F4E0E491F0E0EE0FFF1FE255FB4F859113
:1052D0009491F70192838183138615861486370192
:1052E000FBE06F0E711C270123E0420E511CF301FD
:1052F0001292E415F505E1F783E190E00E946D3824
:105300008C018EE397E1D80152969C938E9351972E
:105310001696FC92EE9215971C9289E011968C934A
:10532000119781E012968C93129713968C93F40147
:1053300013830283D3011E923D01A415B505D1F755
:10534000F80114827E01FFE0EF0EF11C77247394C4
:10535000B701D80115968D919C9116970E94CC1B90
:10536000882309F44DC067E0C7010E94611A9E8935
:105370008913EECFD8018C91811125C015968D919E
:105380009C9116970E94FE1AB701F80185819681BB
:105390000E94AF1A40E064EBD80115968D919C9164
:1053A00016970E946E1AF801858196810E94DA1A7A
:1053B000682ED80115968D919C9116970E94FE1A21
:1053C000662009F461C1AE014F5F5F4FB701C801AC
:1053D0000E94341BF8016180B701C8010E94931B31
:1053E000861520F4D80111968C9104C0B701C8012C
:1053F0000E94931BF801818384818F5F8483A8CFEF
:10540000909277068092760688E090E00E946D3850
:10541000FC018BE292E091838083D782C682B582C1
:10542000A48293828282F0937F06E0937E0640E816
:1054300055E260E070E081E998E00E94DC0F40E80E
:1054400055E260E070E084EF97E00E94DC0F40E0FE
:1054500052EC61E070E087E597E00E94DC0F1A8A69
:10546000198A83E392E0988B8F8787E28B8B80E1A8
:10547000888F82E0898F1A8E84E090E00E946D38D8
:105480008C018FE392E0F80191838083F382E282C2
:1054900010926806109267061092660610926506D2
:1054A0001092640681E0809363061092620661E0C8
:1054B00084E15DDC61E085E15ADC8091B9008E7F9A
:1054C0008093B9008091B9008D7F8093B90088E402
:1054D0008093B80085E48093BC001C8A898D82305B
:1054E00010F098E09C8B8F8B8BE39DE00197F1F798
:1054F0006A8DC7010E94C61968EE73E080E090E0F3
:10550000A1DC60E3C7010E942A1A8BE4C82E86E45E
:10551000D82EC6010197F1F760E3C7010E942A1A4D
:10552000C6010197F1F760E3C7010E942A1A83E5DB
:1055300092E00197F1F760E2C7010E942A1A6C8994
:10554000606240E0C7010E94401A84E08D8B40E019
:105550006CE0C7010E94401AC7010E94591A82E0FC
:105560008E8B40E066E0C7010E94401A40E062E096
:10557000C7010E94401A8BE39FE10197F1F7D80120
:1055800012968D919C91139728E0FC01238760E08F
:105590000E94C6191093750600937406D8011296DE
:1055A0008D919C9113970E94591A63E673E0F8015C
:1055B000828193810E94352161E0D80112968D91FC
:1055C0009C9113970E94B00F60E773E0F80182810D
:1055D00093810E94352184E090E00E946D388C0117
:1055E00087E492E0D80111969C938E9382E090E03C
:1055F00013969C938E93129761E0E8DB10937306E9
:105600000093720680917406909175066E01B2E463
:10561000CB0ED11C25E632E0F60131832083938343
:10562000828361E873E081E998E00E94352163E1BB
:1056300072E081E998E00E94252187E597E0909348
:10564000B0068093AF0605E010E080E192E00E9492
:10565000950D892BE1F068EE73E080E090E0F2DBDD
:105660000150110991F761E873E081E998E00E9427
:10567000352163EF71E081E998E00E94252168E817
:1056800073E180E090E071C0F80170829CCE83EB02
:1056900091E00E94950D68EB7BE080E090E0D2DB2A
:1056A00080E00E9443128EEA91E00E94950D82EA0A
:1056B00091E00E94950D68EC70E080E090E0C2DB24
:1056C00086E991E00E94950D88E891E00E94950D91
:1056D00088E791E00E94950D8AE691E00E94950D81
:1056E00068EC70E080E090E0ADDB1092690666E562
:1056F00071E0CE010196E7D563E571E0CE014B96EE
:10570000E2D506E010E029E636E0AE01455E5F4FE7
:10571000BE016F5F7F4F83E691E00E94531480913A
:1057200069068153823028F480916A068E3209F42A
:10573000A7C261E873E081E998E00E94352165ED38
:1057400071E081E998E00E944E206FE774E081E902
:1057500098E00E94352169E676E081E998E00E94B0
:10576000152160EA7FE080E090E06CDB80917206BA
:105770009091730620917406309175064DE552E0C4
:105780005C8F4B8F3E8F2D8F98A38F8FDAA2C9A28B
:1057900086E090E00E946D386C018FE492E0D601C3
:1057A00011969C938E9313961C921E9212971596A7
:1057B0001C921E9214978E010D5D1F4FFE013196B3
:1057C0003F0180917106811155C284EF97E00E94DC
:1057D000D11C892BB1F36EEB74E0CE018A960E9446
:1057E000391F84EF97E00E94192097FD06C0682FAB
:1057F000CE018A960E948C1EF4CF87E592E09CA38E
:105800008BA31FA21EA280E092E099A788A7CE01D9
:105810008A960E94B0238AA59BA5009711F48EEB6F
:1058200094E01A8309839C838B831E830D838AE013
:105830008F83C3010E94E1185C0187E592E09CA37D
:105840008BA3EEA1FFA1309759F08281938199A794
:1058500088A780809180CF010E940239F401F3CFA4
:10586000CE018A960E94FC1E4CE853E0B501CE01A1
:10587000CC960E94DC176AE479E0CE01CC960E94B7
:105880002D1E882309F4A2C143E953E0B501CE01DE
:10589000C6960E94DC1748E953E0B501CE01C096D8
:1058A0000E94DC17CE01CC960E94B023CE01C69692
:1058B0000E94B023CE01C0960E94B02364E670E03F
:1058C00080E090E0BFDABE01605D7F4FC8010E94BA
:1058D000311FBE016A5C7F4FCE018A960E94311F44
:1058E000A801BE01665D7F4FC3010E942C22CE013C
:1058F0008A960E94FC1EC8010E94FC1E49A05AA064
:10590000BE016D5F7F4FC8010E94311F8FA198A516
:105910000E946D389C01382E232EC80129962FAF86
:1059200029972A963FAF2A970E94FC1EBE016D5F01
:105930007F4FC8010E94311F8CA18F938BA18F9341
:10594000B1EA8B2EB3E09B2E9F928F922A963FADA9
:105950002A973F9329962FAD29972F930E94BC3AFF
:10596000C8010E94FC1EBE01675F7F4FC8010E94F4
:10597000311F8FA198A50E946D389C0127968FAF8B
:10598000279728963FAF2897C80129962FAF2997C8
:105990002A963FAF2A970E94FC1EBE01675F7F4F89
:1059A000C8010E94311F8CA18F938BA18F939F926E
:1059B0008F922A963FAD2A973F9329962FAD29972C
:1059C0002F930E94BC3AC8010E94FC1ED20112967D
:1059D0008D909C90139760E0F401828193810E94E6
:1059E000B00F65EA73E0D40112968D919C911397E4
:1059F0000E9435210FB6F894DEBF0FBECDBF812CBB
:105A0000912C66EB73E081E998E00E941521F1E0AA
:105A1000F0936F0628962FAD28972F9327963FADCA
:105A200027973F932F923F924EE44F9350E25F931C
:105A3000ADE4B2E0BF93AF930E94D4130FB6F894D5
:105A4000DEBF0FBECDBF61E873E0892BD1F481E9E1
:105A500098E00E9435216BE272E081E998E00E94B3
:105A60004E206FE774E081E998E00E943521632DB4
:105A7000722D81E998E00E94152144244394512C11
:105A800021C081E998E00E94352168E372E081E954
:105A900098E00E944E206FE774E081E998E00E9450
:105AA0003521632D722D81E998E00E94152168EE61
:105AB00073E080E090E0C6D980E00E944312F2E0FB
:105AC0004F2E512C64E670E080E090E0BBD93FEFB0
:105AD000831A930A61EC73E081E998E00E94352112
