:100000007BC00000AAC00000A8C00000A6C000007D
:10001000A4C00000A2C00000A0C000009EC000005C
:100020009CC000009AC0000098C0000096C000006C
:1000300094C0000092C0000090C000008EC000007C
:100040008CC000008AC0000088C0000086C000008C
:1000500084C0000082C0000080C000000C945D0DD0
:100060007CC000000C94260B0C94FD0A76C00000A6
:1000700074C0000072C0000070C000006EC00000BC
:100080006CC000006AC0000068C0000066C00000CC
:100090000C94D40A0C94AB0A60C000005EC000004F
:1000A0005CC000005AC0000058C0000056C00000EC
:1000B00054C0000052C0000050C000004EC00000FC
:1000C0004CC000004AC0000048C0000046C000000C
:1000D00044C0000042C0000040C000003EC000001C
:1000E0003CC0000068036203780370036D031D03C6
:1000F0003A03E402440F3E0F11241FBECFEFD1E2BA
:10010000DEBFCDBF00E00CBF24E0A2E3B3E001C03E
:100110001D92A53AB207E1F713E0A0E0B2E0ECEDE2
:10012000F7E200E00BBF02C007900D92A233B107C7
:10013000D9F710E0CBE7D0E000E006C02197010935
:10014000802FFE010E949311CA37D10780E0080773
:10015000A9F70E94A70D0C94DD1352CF089580E0FB
:1001600090E00895FC01538D448D252F30E0842FBD
:1001700090E0821B930B541710F0CF9608950197CF
:100180000895FC01918D828D981761F0828DDF01B9
:10019000A80FB11D5D968C91928D9F5F9F73928F7A
:1001A00090E008958FEF9FEF0895FC01918D828D6F
:1001B000981731F0828DE80FF11D858D90E008953C
:1001C0008FEF9FEF0895FC01918D228D892F90E094
:1001D000805C9F4F821B91098F739927089580E05F
:1001E00090E0892B21F00E94B609811121C080E0A6
:1001F00090E0892B21F00E94AC0981111CC080E0A5
:1002000090E0892B41F080E090E0892B21F00E9462
:100210000000811113C080E090E0892BA1F080E004
:1002200090E0892B81F00E94000081110AC008959E
:100230000E940000DCCF0E940000E1CF0E9400007D
:10024000EACF0C94000008958091360381110BC011
:10025000109233031092320310923503109234033C
:1002600081E08093360382E393E008950C94441276
:100270000C9444120C944412CF93DF93EC018AE562
:1002800092E099838883CE0108960E94930ACE015A
:100290000296DF91CF910C94930ACF93DF93EC01F8
:1002A000EBDFCE01DF91CF910C944412CF93DF931B
:1002B000EC0182E592E099838883CE010C960E943E
:1002C000930ACE010696DF91CF910C94930ACF93B7
:1002D000DF93EC01EBDFCE01DF91CF910C94441260
:1002E0006F927F928F929F92AF92BF92CF92DF9246
:1002F000EF92FF920F931F93CF93DF93EC015B017B
:100300004A01690182E592E0998388833E0186E093
:10031000680E711C6CE972E0C3010E94970A7E01AD
:100320008CE0E80EF11C6CE972E0C7010E94970AAC
:10033000BB82AA829D828C82B601C3010E94740A8C
:10034000B801C701DF91CF911F910F91FF90EF90FE
:10035000DF90CF90BF90AF909F908F907F906F90E5
:100360000C94740ACF93DF93EC01E881F9818081CA
:1003700091810E941B0A8A819B8101969B838A83BB
:10038000DF91CF9108958F929F92AF92BF92CF92BB
:10039000DF92EF92FF920F931F93CF93DF937C0135
:1003A0004B01DC01AD90BC90F50100811181D801B9
:1003B0001496CD90DC9015976115710501F1FB0144
:1003C00001900020E9F73197E61BF70BC1F0EF0130
:1003D000CC0DDD1DBE01C8010E94F409882379F00F
:1003E000F8012081318184819581B401820F931FAE
:1003F0000E94D613D8011596DC93CE931497D5019D
:10040000ED91FC9124813581F70182819381820FE6
:10041000931F8C199D0993838283DF91CF911F9144
:100420000F91FF90EF90DF90CF90BF90AF909F9093
:100430008F9008950F931F93CF93DF93CDB7DEB7BF
:1004400066970FB6F894DEBF0FBECDBF8C01CB010F
:100450001E8AFE0176962AE030E0B9010E945E1104
:1004600090E3980F9293CB010097B9F7BF01C801B1
:100470008ADF66960FB6F894DEBF0FBECDBFDF9160
:10048000CF911F910F9108958F929F92AF92BF923B
:10049000EF92FF920F931F93CF93DF93CDB7DEB709
:1004A00066970FB6F894DEBF0FBECDBF7C011E8AE3
:1004B0008E010A5E1F4F8AE0882E912CA12CB12C50
:1004C000CB01BA01A50194010E947111942F852FCF
:1004D000605DF80162938F01A901692F782F4115A2
:1004E00051056105710561F7BF01C7014CDF6696D3
:1004F0000FB6F894DEBF0FBECDBFDF91CF911F9135
:100500000F91FF90EF90BF90AF909F908F900895C4
:10051000FF920F931F93CF93DF936115710541F401
:100520006DE972E0DF91CF911F910F91FF902BCF7A
:100530008B01EC0162E2CE0115DFF80161918F01C0
:10054000662351F0EEE8F2E0F080FF20A1F3918104
:10055000961751F03296F8CF62E2CE01DF91CF913B
:100560001F910F91FF90FECE6CE5CE01FBDE6F2D4B
:10057000E2CF2F923F924F925F926F927F928F9233
:100580009F92AF92BF92CF92DF92EF92FF920F9322
:100590001F93CF93DF93CDB7DEB76A970FB6F8946A
:1005A000DEBF0FBECDBFDC01ED91FC9111973197FD
:1005B000E830F10508F014C28B017C018827EE5861
:1005C000FF4F8F4F0C949311FD01C280D380E480C4
:1005D000F580A7019601C701B6010E94AB0F8823E1
:1005E00019F06DEA72E092C020E030E0A901C70185
:1005F000B6010E94AB0F87FF07C06DE2C801B2DEF3
:10060000F7FAF094F7F8F09420E030E0A901C70180
:10061000B6010E94AB0F882309F47BC0A7019601A5
:10062000C701B6010E94C510A70196010E94AB0F39
:1006300081116FC064EB72E069C01296ED90FC907E
:1006400013976BE5C8018EDEF701E280F380E114B9
:10065000F10451F0B801C70102968BDFD701ED908C
:10066000FC90E114F10411F46DE529C06CE2C801BD
:1006700079DEEDCFFD01E280F3806BE7C80172DE29
:10068000D7011296ED90FC90139703C06CE2C8015D
:1006900069DEE114F10491F0F70162817381C80110
:1006A00037DF6AE3C8015EDEB801C701049661DF87
:1006B000D701ED90FC90E114F10441F76DE7C8011A
:1006C00051DE8EC1FD0162817381C80121DF88C1C5
:1006D00012966D917C91139719C06DE2C80142DEAC
:1006E000F7014281538164817581C801CDDE78C1F3
:1006F000FD0182819381A481B581892B8A2B8B2B6B
:1007000019F467EA72E002C062EA72E0C8013BDEF7
:1007100067C120E836E948E15BE4C701B6010E9401
:100720005A1187FD55C1412C512C70E2672E712C56
:10073000812C912CF201EA5CFD4F24893589468990
:100740005789C701B6010E945A1187FD0FC0F201F7
:10075000E25EFD4F2489358946895789C701B60174
:100760000E9410106B017C01860C971C7594679495
:10077000F4E04F1A510888EE48168FEF5806D1F66C
:1007800055245A9420E030E0A901C701B6010E9427
:100790005A11181694F52CEA35EC47E257E3C701D5
:1007A000B6010E94AB0F181644F1BFEF5B1629F19A
:1007B000952DA4E09A0250011124F501EA5FFD4F46
:1007C0002081318142815381C701B6010E94AB0F64
:1007D00087FF0FC0F501EA5CFD4F20813181428126
:1007E0005381C701B6010E9410106B017C0186186D
:1007F0009708759467945A94D8CFC701B6010E94A0
:100800002E112B013C016B8B7C8B8D8B9E8B46E0DC
:10081000A42E80E492E4AFE0B0E08F8B988FA98F94
:10082000BA8FBA2CAA24AA94AB0C8B899C89AD8967
:10083000BE890A97A105B105E8F06F89788D898D89
:100840009A8D2AE030E040E050E00E9471112F8B39
:10085000388F498F5A8F6B897C898D899E892AE0D0
:1008600030E040E050E00E9471112B8B3C8B4D8BAF
:100870005E8BD7CFC301B2010E94AF0F9B01AC01C9
:10088000C701B6010E94C4106B017C016F89788D8D
:10089000898D9A8D0E94AF0F9B01AC01C701B601F3
:1008A0000E9410106B8B7C8B8D8B9E8B0E942E1167
:1008B0006B017C010E94AF0F9B01AC016B897C89AD
:1008C0008D899E890E94C4109B01AC010E94C510B5
:1008D0000E942E11C60ED71EE81EF91E8F89988D14
:1008E000A98DBA8DC816D906EA06FB0610F19FEF4E
:1008F000491A590A690A790A8114910489F0AAE00F
:100900004A1651046104710458F0BFEF8B1A9B0A18
:10091000C12CD12C7601412C512C3201439409C0B9
:10092000C12CD12C760105C01B147CF469017A011D
:10093000BA94C701B6012AE030E040E050E00E94DE
:100940007111672B682B692B79F3AB2CB301A201D2
:10095000C8019ADDBB2039F1188A3E01E0E16E0E34
:10096000711C7A8A698A2AE0222E312C412C512C62
:10097000AA94BFEFAB1669F0C701B601A2019101BD
:100980000E947111605DD3016E933D0169017A018E
:10099000EFCF69897A896B1971098EE2FB01829325
:1009A000BF01C801F0DC97FE09C061EB72E0C8012D
:1009B000EADC662777276819790907C08114910452
:1009C00079F065E6C801CEDCB401C80133DD08C0AA
:1009D00080E2682E712C95E0592E812C912CD2CE7C
:1009E0006A960FB6F894DEBF0FBECDBFDF91CF91F0
:1009F0001F910F91FF90EF90DF90CF90BF90AF903D
:100A00009F908F907F906F905F904F903F902F902E
:100A100008950F931F93CF93DF938B01FC01C28145
:100A2000D381209759F06A817B81C8010E94CD1340
:100A3000892B21F00990D881C02DF3CFCE01DF9111
:100A4000CF911F910F910895E4DFFC01892B09F4E8
:100A50004BC084819581833091053CF481309105B0
:100A60007CF4009709F447C038C0853091052CF01C
:100A7000059799F5668177812BC0868197810895C6
:100A80000680F781E02D309779F18081843779F104
:100A90008B3229F08D3221F4319691E002C03196EB
:100AA00090E060E070E03AE0819120ED280F2A307C
:100AB00068F4369FA001379F500D1124682F880FCE
:100AC000770B60537109640F751FEECF992391F076
:100AD00088279927861B970B0895668177818085E3
:100AE00091850E94291106C080E090E0089581E080
:100AF00090E00895CB010895CF92DF92EF92FF929C
:100B00000F931F93CF93DF938C017B01DC0115962C
:100B1000CD91DC9116976B016C177D0708F46E017F
:100B2000C60106960E94AF11FC01892BB1F0D38259
:100B3000C282D80113968D919C91149791838083E2
:100B40001496FC93EE931397CC0FDD1F1696DC934F
:100B5000CE931597F582E4823696CF01DF91CF913F
:100B60001F910F91FF90EF90DF90CF900895DC01DF
:100B70001396ED91FC911497309751F024813581B3
:100B8000AB01420F531FA281B381A417B50708F42C
:100B9000B3CFC9010696558344838E0F9F1F0895D6
:100BA000FF920F931F93CF93DF93EC01F62E888172
:100BB0009981FC01A381B481109771F01496ED9195
:100BC000FC9115979F012F5F3F4F12964D915C91BD
:100BD00013974217530750F52C813D81B9016F5F80
:100BE0007F4F8ADF8C016A817B816115710549F035
:100BF0000115110571F04C815D81C8010E94C4137B
:100C000003C00115110529F0EC81FD81E00FF11FF2
:100C1000F0821B830A838C819D8101969D838C8346
:100C2000DF91CF911F910F91FF9008953696EA0FB3
:100C3000FB1F15963C932E93149760838C819D81A6
:100C4000892B49F7FB83EA83E6CFFC01A089B189B0
:100C50008C91A689B78982FD0FC09C91818D8F5F91
:100C60008F73228D821749F0218DDF01A20FB11DF4
:100C70005D969C93818F08958C910895FC01848DDD
:100C8000DF01A80FB11DA35ABF4F2C91848D90E0B6
:100C900001968F739927848FA689B7892C93A08991
:100CA000B1898C9180648C93938D848D981306C048
:100CB0000288F389E02D80818F7D80830895EF92F3
:100CC000FF920F931F93CF93DF93EC0181E0888F06
:100CD0009B8D8C8D981305C0E889F989808185FDED
:100CE00023C0F62E0B8D10E00F5F1F4F0F731127DF
:100CF000E02E8C8DE8120BC00FB607FCFACFE88906
:100D0000F989808185FFF5CFCE01B8DFF2CF8B8DD9
:100D1000FE01E80FF11DE35AFF4FF0820B8FEA89C5
:100D2000FB898081806207C0EE89FF896083E88942
:100D3000F98980818064808381E090E0DF91CF91A8
:100D40001F910F91FF90EF900895CF93DF93EC01E7
:100D5000888D8823C1F0EA89FB89808185FD05C0E3
:100D6000A889B9898C9186FD0EC00FB607FCF5CF16
:100D7000808185FFF2CFA889B9898C9185FFEDCF5D
:100D8000CE017CDFE8CFDF91CF910895CF92DF9243
:100D9000EF92FF920F931F93CF93DF93EC016B01C0
:100DA0007A018AE592E0FE01819391938F016CE9CB
:100DB00072E0CF01BCD328966CE972E0CE01B7D3C4
:100DC000B601C80191D3B701CE01DF91CF911F9138
:100DD0000F91FF90EF90DF90CF9086C3089519DEBA
:100DE000009749F0FC01248135812730310519F441
:100DF00086819781089528CACF92DF92EF92FF9261
:100E00000F931F93CF93DF93CDB7DEB72C970FB619
:100E1000F894DEBF0FBECDBF8C01CB01BA01F9DD66
:100E20007C01009709F44AC0FC01C480D580F1E040
:100E3000CF16D10461F4FC016681778161157105DB
:100E400031F08DE992E00E94CD13892B69F0F1E039
:100E5000CF1AD10882E0C816D10430F4F7016681B8
:100E600077816115710561F56CE972E0CE0101963B
:100E70006C015DD3DC86CB86CE010B9698878F8381
:100E80001A861986BE01695F7F4FC701049671DB20
:100E900089819A81F801918380838B819C819383DE
:100EA00082838D819E81958384831A8219821C821C
:100EB0001B821E821D82C60136D304C06CE972E01B
:100EC000C80135D3C8012C960FB6F894DEBF0FBE0B
:100ED000CDBFDF91CF911F910F91FF90EF90DF90E9
:100EE000CF900895FC01A081B1818C918D3051F09B
:100EF00024F489508230B8F505C0803219F08F3261
:100F000019F0089511962CC011968C9111978A3280
:100F100019F08F32D1F008951196B183A083A0818A
:100F2000B181CD0101969183808311968C911197A7
:100F30008823C9F08A3299F712968C9112978F32D2
:100F400071F713960DC08A3071F2A081B181CD0185
:100F500001969183808311968C918111F4CF03C007
:100F6000B183A083C0CF08950F931F93CF93DF93D6
:100F70001F92CDB7DEB78C016983B4DFD801ED9144
:100F8000FC91119780816981861305C03196ED939C
:100F9000FC9381E001C080E00F90DF91CF911F9121
:100FA0000F910895EF92FF921F93CF93DF9300D09C
:100FB00000D0CDB7DEB77C01DC0114968D919C91F9
:100FC00015979A8389831C821B821E821D82C7010A
:100FD000029688DFD7011296ED91FC91139710814C
:100FE000173231F1123221F180ED810F8A3078F021
:100FF00081EA810F8C3158F08FEB810F8A3138F004
:101000001B3229F083ED810F823008F042C0F701D6
:1010100082819381019693838283612FCE01019611
:10102000BFDDD7011296ED91FC9113971081DCCFB3
:101030003196D7011396FC93EE931297D70112962F
:10104000ED91FC9113976081662319F1CF01019610
:1010500013969C938E9312976117D9F06C35A9F46F
:101060006181A2E9B2E08C91882339F0861303C034
:1010700011966C9102C01296F6CF662351F032960B
:10108000D7011396FC93EE931297CE01019688DD5B
:10109000D5CF60E0CE01019683DD8B819C812696C1
:1010A0000FB6F894DEBF0FBECDBFDF91CF911F9179
:1010B000FF90EF900895AF92BF92CF92DF92EF92A0
:1010C000FF920F931F93CF93DF93CDB7DEB768974F
:1010D0000FB6F894DEBF0FBECDBF7C018A016DEB69
:1010E00072E0CA01B1DC6C0164EC72E0C801ACDCF6
:1010F0005C014BEC52E0B801CE0107967DDE42ED7B
:1011000052E0B801CE01019677DEC60100D3C501D9
:10111000FED2CE01079678D3CE01019675D31C8AF4
:101120001B8A1E8A1D8A188E1F8ABE016F5F7F4F21
:10113000CE014396D9D11E861D86188A1F861A8A2B
:10114000198ABE01695F7F4FCE010D96CDD18E0108
:101150000D5E1F4F9E01235F3F4FA501B601C701E2
:10116000BFD8CE010D96DFD1C801DDD1CE010196E9
:10117000DAD1CE010796D7D1C70168960FB6F89499
:10118000DEBF0FBECDBFDF91CF911F910F91FF90BA
:10119000EF90DF90CF90BF90AF9008950895DB015E
:1011A000109749F0ED91FC9111970190F081E02D9D
:1011B000BC01CD01199480E090E008959F92AF9218
:1011C000BF92CF92DF92EF92FF920F931F93CF9334
:1011D000DF9300D000D0CDB7DEB76C01FC010081F9
:1011E0001181B80184E090E0DADF009709F472C061
:1011F000FC0111830083138212828C017601F2E0DC
:10120000EF0EF11C6BE7C701AFDE882309F45EC067
:101210006DE7C701A9DE811160C086E0982EC60186
:10122000C1DE5C01892B09F451C06AE3C7019CDE71
:10123000882309F44BC01A821982BE016F5F7F4F69
:10124000C601F5D2882309F441C0B501C801E1DB2C
:10125000DC01892B49F5F801608171818AE090E019
:101260009EDFDC01892B39F011961C921E92159697
:101270001C921E921497F8012281338121153105A9
:1012800051F0F90180819181009711F09C01F9CF13
:10129000B183A08303C0F801B383A2831097B1F098
:1012A0001396BC92AE921297FE0131961496892D38
:1012B00001900D928A95E1F76DE7C70155DE811126
:1012C0000CC06CE2C70150DE8111A9CF0E9424013D
:1012D0008C0103C00E94240190CFC80126960FB64E
:1012E000F894DEBF0FBECDBFDF91CF911F910F915C
:1012F000FF90EF90DF90CF90BF90AF909F900895B8
:101300000895CF92DF92EF92FF920F931F93CF93A6
:10131000DF936C017A018B01C0E0D0E0CE15DF05D0
:1013200089F0D8016D918D01D601ED91FC9101906C
:10133000F081E02DC6011995892B11F47E0102C0C0
:101340002196ECCFC701DF91CF911F910F91FF90B4
:10135000EF90DF90CF90089580E493E00E94E30047
:1013600021E0892B09F420E0822F08958DED93E090
:101370000E94E30021E0892B09F420E0822F0895E8
:101380000E94C013FC0124813581FB0144815581F9
:101390002417350721F5FC0180819181FB016081D3
:1013A0007181009719F061157105A1F4611571053E
:1013B00049F0232BB1F0FB01808190E0919581955C
:1013C00091090AC0009769F0232B59F0FC01808134
:1013D00090E002C00E94CD1321E0892B19F020E09B
:1013E00001C021E0822F08950F931F93CF93DF93C5
:1013F000EC0188819981009729F02A813B81261789
:10140000370788F48B016F5F7F4F0E94DC120097D3
:1014100061F0998388831B830A832C813D81232B70
:1014200011F4FC01108281E001C080E0DF91CF91D6
:101430001F910F910895EF92FF920F931F93CF93F7
:10144000DF931F921F92CDB7DEB78C0169831A829A
:10145000FC01E480F580FFEFEF1AFF0AB701C4DF5B
:10146000882381F0F8012081318184819581BE013A
:101470006F5F7F4F820F931F0E94D613F801F58292
:10148000E48281E00F900F90DF91CF911F910F9137
:10149000FF90EF900895EF92FF920F931F93CF93D9
:1014A000DF93EC017B018A01BA019EDF288139813B
:1014B00081110CC02115310511F0C901E5D7198240
:1014C00018821D821C821B821A8206C01D830C8317
:1014D000B701C9010E94D613CE01DF91CF911F91B0
:1014E0000F91FF90EF900895CF93DF93EC01FB01F4
:1014F00086179707A1F0608171816115710521F050
:1015000044815581C8DF0BC088819981009709F01B
:10151000BBD7198218821D821C821B821A82CE01BF
:10152000DF91CF910895FC0180819181ADC7FC01CD
:101530001182108213821282158214826115710544
:1015400049F0FB0101900020E9F73197AF01461BFC
:10155000570BA1CF08951F920F920FB60F9211242F
:101560000BB60F922F933F934F935F936F937F939D
:101570008F939F93AF93BF93EF93FF9380E493E098
:101580007DDBFF91EF91BF91AF919F918F917F9103
:101590006F915F914F913F912F910F900BBE0F90E4
:1015A0000FBE0F901F9018951F920F920FB60F92BB
:1015B00011240BB60F922F933F934F935F936F932A
:1015C0007F938F939F93AF93BF93EF93FF9380E4A9
:1015D00093E03BDBFF91EF91BF91AF919F918F9192
:1015E0007F916F915F914F913F912F910F900BBE23
:1015F0000F900FBE0F901F9018951F920F920FB66D
:101600000F9211240BB60F922F933F934F935F933A
:101610006F937F938F939F93AF93BF93EF93FF93BA
:101620008DED93E02BDBFF91EF91BF91AF919F91F7
:101630008F917F916F915F914F913F912F910F907B
:101640000BBE0F900FBE0F901F9018951F920F9218
:101650000FB60F9211240BB60F922F933F934F9317
:101660005F936F937F938F939F93AF93BF93EF930A
:10167000FF938DED93E0E9DAFF91EF91BF91AF9188
:101680009F918F917F916F915F914F913F912F919A
:101690000F900BBE0F900FBE0F901F901895FC017E
:1016A000A089B18982E08C93A485B5851C92A6851A
:1016B000B7858FEC8C93108EA489B58986E08C93C6
:1016C000A289B3898C9180618C93A289B3898C9112
:1016D00088608C93A289B3898C9180688C930288EE
:1016E000F389E02D80818F7D80830895009761F0DC
:1016F000FC0101900020E9F73197AF01481B590B1D
:10170000BC018DED93E0FDCD80E090E008958F92D7
:101710009F92AF92BF92CF92DF92EF92FF920F9380
:101720001F93CF93DF93CDB7DEB7A1970FB6F89491
:10173000DEBF0FBECDBF6C01990FEE08FF08F7FEAC
:101740002FC0E091DD03F091DE030190F081E02DE8
:101750006DE28DED93E019958C0122273327A901C5
:101760002C193D094E095F0919A2CE0181967C0111
:101770009AE0892E912CA12CB12CCA01B901A501A6
:101780009401AFD5605DF70162937F0121153105AA
:101790004105510591F7CF01A9DF080F191F1CC0A2
:1017A000A701960119A28E010F5D1F4F8AE0C82E76
:1017B000D12CE12CF12CCA01B901A701960191D5D8
:1017C000605DF80162938F012115310541055105D6
:1017D00091F7CF018BDF8C018AE193E087DF800FE7
:1017E000911FA1960FB6F894DEBF0FBECDBFDF915B
:1017F000CF911F910F91FF90EF90DF90CF90BF900E
:10180000AF909F908F900895CF93DF93FC01448118
:101810005581608171818DED93E073DDEC018AE18A
:1018200093E064DF8C0F9D1FDF91CF9108959F920D
:10183000AF92BF92CF92DF92EF92FF920F931F93DE
:10184000CF93DF9300D000D0CDB7DEB7FC019681F7
:10185000992309F4D8C06B017F01915096835F01F1
:1018600082E0A80EB11CC5013DDBD7011296ED91B7
:10187000FC91139780818B3521F08B3709F492C04E
:101880009BC0F70100811181B80184E090E087DC02
:10189000009751F0DC0111961C930E9313961C9245
:1018A0001E9212978C0111C08091990481110BC076
:1018B0001092960410929504109298041092970436
:1018C00081E08093990405E914E06BE5C5014CDBE8
:1018D000882309F447C06DE5C50146DB811153C07B
:1018E00086E0982E1A821982BE016F5F7F4FC70172
:1018F0009EDF8823B9F1F8016081718188E090E072
:101900004EDCDC01892B39F011961C921E92139645
:101910001C921E921297F801228133812115310504
:1019200051F0F90180819181009711F09C01F9CF6C
:10193000B183A08303C0F801B383A283109791F011
:10194000FE0131961296892D01900D928A95E1F74C
:101950006DE5C50109DB811116C06CE2C50104DB30
:101960008111C0CF8091990481110BC0109296040F
:1019700010929504109298041092970481E080933D
:10198000990405E914E0D8018D919C91892B11F4FB
:1019900010E031C086E090E0F601918380831383EC
:1019A000028328C0C7010ADCDC012D913C91232B66
:1019B00079F327E030E019C011E0873219F0823264
:1019C00009F010E0C701EEDA009711F3112359F086
:1019D00022E030E0D60111963C932E9313969C930F
:1019E0008E93129708C021E030E0F6013183208306
:1019F0009383828311E0D70116968C9116978F5F9F
:101A000016968C9301C010E0812F26960FB6F8949D
:101A1000DEBF0FBECDBFDF91CF911F910F91FF9021
:101A2000EF90DF90CF90BF90AF909F9008952FB729
:101A3000F8948091910490919204A0919304B091B4
:101A400094042FBF8093480390934903A0934A03C3
:101A5000B0934B03E0914003F09141030284F3857E
:101A6000E02D80E493E0199597FF26C02FB7F894F6
:101A70008091910490919204A0919304B091940468
:101A80002FBF409148035091490360914A037091E0
:101A90004B03841B950BA60BB70B4091440350914D
:101AA0004503609146037091470384179507A60785
:101AB000B70780F28FEF9FEF08951F920F920FB636
:101AC0000F9211242F933F938F939F93AF93BF93C4
:101AD0008091910490919204A0919304B091940408
:101AE0003091900423E0230F2D3720F40196A11D9F
:101AF000B11D05C026E8230F0296A11DB11D20933C
:101B000090048093910490939204A0939304B093D3
:101B1000940480918C0490918D04A0918E04B091D6
:101B20008F040196A11DB11D80938C0490938D04A8
:101B3000A0938E04B0938F04BF91AF919F918F912A
:101B40003F912F910F900FBE0F901F901895CF933C
:101B5000DF93CDB7DEB7C955D1090FB6F894DEBF14
:101B60000FBECDBF789484B5826084BD84B581609A
:101B700084BD85B5826085BD85B5816085BD809158
:101B80006E00816080936E001092810080918100D0
:101B900082608093810080918100816080938100C8
:101BA000809180008160809380008091B10084608A
:101BB0008093B1008091B00081608093B0008091EB
:101BC0009100826080939100809191008160809368
:101BD0009100809190008160809390008091A1009D
:101BE00082608093A1008091A10081608093A10018
:101BF0008091A00081608093A0008091210182608B
:101C00008093210180912101816080932101809145
:101C1000200181608093200180917A00846080930C
:101C20007A0080917A00826080937A0080917A00B5
:101C3000816080937A0080917A00806880937A0036
:101C40001092C1008DED93E02ADD80E493E027DD62
:101C500080E792E06A969FAF8EAF6A97512C212C55
:101C6000312C412C8AE6C82E82E0D82E612C92E0DD
:101C7000792E5E0183E3A80EB11C7E0185E2E80E99
:101C8000F11C4E018AE3880E911C80913F03811163
:101C9000D8C080E493E00E94E300892BB1F3DCAA72
:101CA000CBAA1FAA1EAA79AE68AE6CE972E0CE017B
:101CB0008E5A9F4F3CDCBBDE97FD06C0682FCE01DD
:101CC0008E5A9F4FB8DBF7CFCE018E5A9F4F9CDDC7
:101CD00064968EAD9FAD6497009711F48CE992E005
:101CE000BA82A9829C838B83BE82AD828AE08F8375
:101CF000CE01019663DA8C0141EE52E0BC01CE01C7
:101D0000845B9F4F79D866E874E0CE01845B9F4F77
:101D100039DB882309F450C048EE52E0B801CE0107
:101D20008A5B9F4F69D84DEE52E0B801CE01805CCE
:101D30009F4F62D8CE01845B9F4F66DDCE018A5BE8
:101D40009F4F62DDCE01805C9F4F5EDD1A8219825B
:101D50001C821B821E821D82BE01605C7F4FCE01F1
:101D60000196C2DB1C8A1B8A1E8A1D8A188E1F8A56
:101D7000BE016A5B7F4FCE014396B6DBAE014F5F7B
:101D80005F4FBE016D5E7F4FC70100D881E0809339
:101D90003F03C7010E943C01CE014396C4DBCE0144
:101DA0000196C1DBCE01805C9F4FBDDBCE018A5B1B
:101DB0009F4FB9DB3E2C4F2C60E874E0CE01845B72
:101DC0009F4FE0DA882321F166EF72E0C80107D85F
:101DD000AC01BE01685A7F4FCE0143966CD96FEFBC
:101DE00072E0C8010E94EF06AC01BE01685A7F4F45
:101DF000CE01019660D981E080933E03CE01019629
:101E00000E945601CE0143960E945601582C292C5F
:101E1000CE01845B9F4F87DBCE018E5A9F4F83DBC1
:101E2000DCAACBAAEEA9FFA9309709F42ECF8281B4
:101E3000938199AF88AF00811181CF0125D3F8013B
:101E4000F3CF80913E03882309F423CF89E093E008
:101E50004DDC8AE193E04ADC30927C0440927D04C0
:101E600050927E0420927F0480913F0381118091E3
:101E70003E0390E04CDC0E94EF00FDCF80E894E050
:101E800052DB86E894E04FCBE0E4F3E01382128269
:101E900048EE53E060E070E04483558366837783C7
:101EA00088E792E0918380832DEC30E035872487AA
:101EB0002CEC30E03787268728EC30E0318B208B04
:101EC00029EC30E0338B228B2AEC30E0358B248BED
:101ED0002EEC30E0378B268B118E128E138E148EE3
:101EE000EDEDF3E01382128244835583668377839A
:101EF0009183808385EC90E09587848784EC90E0E3
:101F00009787868780EC90E0918B808B81EC90E0C6
:101F1000938B828B82EC90E0958B848B86EC90E0A7
:101F2000978B868B118E128E138E148E6DE173E05B
:101F300086E894E0FCDA65E273E080E894E0F7DAA2
:101F4000EAE7F4E08AE892E09183808313821282C8
:101F500015821482089540D008F481E00895E89431
:101F600009C097FB3EF490958095709561957F4FE1
:101F70008F4F9F4F9923A9F0F92F96E9BB2793958F
:101F8000F695879577956795B795F111F8CFFAF49F
:101F9000BB0F11F460FF1BC06F5F7F4F8F4F9F4FD0
:101FA00016C0882311F096E911C0772321F09EE82E
:101FB000872F762F05C0662371F096E8862F70E094
:101FC00060E02AF09A95660F771F881FDAF7880F6E
:101FD0009695879597F90895990F0008550FAA0BC4
:101FE000E0E8FEEF16161706E807F907C0F012162C
:101FF0001306E407F50798F0621B730B840B950B2F
:1020000039F40A2661F0232B242B252B21F4089583
:102010000A2609F4A140A6958FEF811D811D089520
:102020000BD078C069D028F06ED018F0952309F055
:102030005AC05FC01124A2C07ED0A0F3959FD1F3F7
:10204000950F50E0551F629FF001729FBB27F00D66
:10205000B11D639FAA27F00DB11DAA1F649F6627BB
:10206000B00DA11D661F829F2227B00DA11D621F0A
:10207000739FB00DA11D621F839FA00D611D221FC4
:10208000749F3327A00D611D231F849F600D211DA8
:10209000822F762F6A2F11249F5750408AF0E1F04B
:1020A00088234AF0EE0FFF1FBB1F661F771F881F94
:1020B00091505040A9F79E3F510570F014C05EC08A
:1020C0005F3FECF3983EDCF3869577956795B7957F
:1020D000F795E7959F5FC1F7FE2B880F911D9695A9
:1020E000879597F9089597F99F6780E870E060E019
:1020F00008959FEF80EC089500240A9416161706A1
:1021000018060906089500240A94121613061406E8
:1021100005060895092E0394000C11F4882352F04B
:10212000BB0F40F4BF2B11F460FF04C06F5F7F4F03
:102130008F4F9F4F089557FD9058440F551F59F0EA
:102140005F3F71F04795880F97FB991F61F09F3FA4
:1021500079F087950895121613061406551FF2CFCD
:102160004695F1DF08C0161617061806991FF1CF1D
:1021700086957105610508940895E894BB27662744
:102180007727CB0197F908955058BB27AA270ED07F
:10219000C1CFB2DF30F0B7DF20F031F49F3F11F450
:1021A0001EF4A7CF0EF4E095E7FB9DCFE92FC3DF28
:1021B00080F3BA17620773078407950718F071F464
:1021C0009EF5DBCF0EF4E0950B2EBA2FA02D0B0160
:1021D000B90190010C01CA01A0011124FF27591B6C
:1021E00099F0593F50F4503E68F11A16F040A22F72
:1021F000232F342F4427585FF3CF469537952795E3
:10220000A795F0405395C9F77EF41F16BA0B620BE1
:10221000730B840BBAF09150A1F0FF0FBB1F661F28
:10222000771F881FC2F70EC0BA0F621F731F841F6B
:1022300048F4879577956795B795F7959E3F08F091
:10224000B3CF9395880F08F09927EE0F9795879550
:10225000089504D06894B11191CF089574DF88F087
:102260009F5790F0B92F9927B751A0F0D1F0660F82
:10227000771F881F991F1AF0BA95C9F712C0B1309D
:1022800081F07BDFB1E0089578CF672F782F882722
:10229000B85F39F0B93FCCF3869577956795B395DC
:1022A000D9F73EF490958095709561957F4F8F4F4B
:1022B0009F4F089591DE08F48FEF089597FB072E46
:1022C00016F4009406D077FD08D035D007FC05D071
:1022D0003EF4909581959F4F0895709561957F4F3D
:1022E0000895A1E21A2EAA1BBB1BFD010DC0AA1F57
:1022F000BB1FEE1FFF1FA217B307E407F50720F06F
:10230000A21BB30BE40BF50B661F771F881F991FE9
:102310001A9469F760957095809590959B01AC0132
:10232000BD01CF010895EE0FFF1F881F8BBF0790DF
:10233000F691E02D1994AA1BBB1B51E107C0AA1FFF
:10234000BB1FA617B70710F0A61BB70B881F991F56
:102350005A95A9F780959095BC01CD010895CF932A
:10236000DF938230910510F482E090E0E091A304C5
:10237000F091A40420E030E0C0E0D0E0309711F10B
:102380004081518148175907C0F04817590761F437
:1023900082819381209719F09B838A832BC090932D
:1023A000A4048093A30426C02115310519F0421717
:1023B000530718F49A01BE01DF01EF010280F38197
:1023C000E02DDCCF2115310509F1281B390B243014
:1023D000310590F412968D919C91139761157105BA
:1023E00021F0FB019383828304C09093A404809323
:1023F000A304FD01329644C0FD01E20FF31F819357
:102400009193225031092D933C933AC02091A1041D
:102410003091A204232B41F4209102023091030257
:102420003093A2042093A104209100023091010274
:102430002115310541F42DB73EB74091040250916A
:102440000502241B350BE091A104F091A204E217D0
:10245000F307A0F42E1B3F0B2817390778F0AC01C7
:102460004E5F5F4F2417350748F04E0F5F1F5093A4
:10247000A2044093A1048193919302C0E0E0F0E0B4
:10248000CF01DF91CF9108950F931F93CF93DF93E7
:10249000009709F48CC0FC013297138212820091DC
:1024A000A3041091A4040115110581F42081318148
:1024B000820F931F2091A1043091A204281739079D
:1024C00079F5F093A204E093A10471C0D80140E033
:1024D00050E0AE17BF0750F412962D913C91139720
:1024E000AD012115310509F1D901F3CF9D01DA01C3
:1024F0003383228360817181860F971F8217930730
:1025000069F4EC0128813981260F371F2E5F3F4F78
:10251000318320838A819B8193838283452B29F495
:10252000F093A404E093A30442C01396FC93EE93AB
:102530001297ED01499159919E01240F351FE21721
:10254000F30771F480819181840F951F0296119693
:102550009C938E938281938113969C938E93129772
:10256000E0E0F0E0D80112968D919C9113970097CE
:1025700019F0F8018C01F6CF8D919C9198012E5F96
:102580003F4F820F931F2091A1043091A20428177E
:10259000390769F4309729F41092A4041092A30427
:1025A00002C0138212821093A2040093A104DF914F
:1025B000CF911F910F9108956F927F928F929F926A
:1025C000AF92BF92CF92DF92EF92FF920F931F9341
:1025D000CF93DF93EC01009781F4CB01DF91CF9192
:1025E0001F910F91FF90EF90DF90CF90BF90AF9031
:1025F0009F908F907F906F90B2CEFC01E60FF71FF7
:102600009C0122503109E217F30708F4A8C0D90150
:102610000D911C91119706171707A8F005301105A9
:1026200008F49BC0C80104978617970708F495C063
:1026300002501109061B170B019311936D937C93A4
:10264000CF0122DF8AC05B01A01AB10A4C01800EC3
:10265000911EA091A304B091A40440E050E0E12CAD
:10266000F12C109709F44AC0A815B905D1F56D9061
:102670007C901197630182E0C80ED11CCA14DB0460
:1026800080F1A3014A195B096A0182E0C80ED11CDE
:102690001296BC9012971396AC91B5E0CB16D1046C
:1026A00040F0B282A38351834083D9016D937C9320
:1026B0000AC00E5F1F4FC301800F911FF901918364
:1026C0008083EB2DFA2FE114F10431F0D70113963A
:1026D000FC93EE93129741C0F093A404E093A304FB
:1026E0003CC08D919C9111974817590708F4AC0193
:1026F0007D0112960D90BC91A02DB3CF8091A104C5
:102700009091A20488159905E1F446175707C8F47B
:102710008091000290910102009741F48DB79EB71D
:102720004091040250910502841B950BE817F907AC
:10273000B0F4F093A204E093A104F90171836083E3
:102740000CC0CB010CDE7C01009749F0A801BE0152
:102750001BD0CE0199DEC70104C0CE0102C080E0CB
:1027600090E0DF91CF911F910F91FF90EF90DF905C
:10277000CF90BF90AF909F908F907F906F90089573
:1027800081E090E0F89419C0FB01DC0102C00190E7
:102790000D9241505040D8F70895FB01DC018D9116
:1027A000019080190110D9F3990B0895FB01DC0108
:1027B00001900D920020E1F7089510E0CBE7D0E002
:1027C00000E005C0802FFE01AEDD2196011DCC3753
:0C27D000D10780E00807B1F7F894FFCFB4
:1027DC000000A50480000000803FCDCCCC3D6F12E2
:1027EC00833A95BFD6337D1D9026B3CE010CCDCC4C
:1027FC00CC3D0AD7233C17B7D13877CC2B329595E3
:10280C00E6241FB14F0A000020410000C8420040DE
:10281C001C4620BCBE4CCA1B0E5AAEC59D74000093
:10282C00000056016701000000003C014D01000052
:10283C000000EE06380100000000B70500000000A3
:10284C00CE083601000000005F068109B200A50623
:10285C00E300C100D5000000000080093A012222EB
:10286C005C5C6208660C6E0A720D7409006E756C05
:10287C006C00747275650066616C7365004E614E18
:10288C0000652D00496E66696E6974790064656730
:10289C00726565006D696E757465007365636F6E46
:1028AC00640063617264696E616C5F706F696E74F1
:1028BC0000616374696F6E00737369640070617397
:1028CC0073776F7264006C61746974756465006C05
:1028DC006F6E67697475646500414C41524D2043BD
:1028EC004F4E46494755524544000D0A00434F4E42
:1028FC004E454354005345545F4C4F434154494F4C
:02290C004E007B
:00000001FF
