:1000000003C1000032C1000030C100002EC1000059
:100010002CC100002AC1000028C1000026C1000038
:1000200024C1000022C1000020C100001EC1000048
:100030001CC100001AC1000018C1000016C1000058
:1000400014C1000012C1000010C100000EC1000068
:100050000CC100000AC1000008C100000C94710B23
:1000600004C100000C94D30E0C94AA0EFEC0000034
:10007000FCC00000FAC00000F8C00000F6C000009C
:10008000F4C00000F2C00000F0C00000EEC00000AC
:100090000C94810E0C94580EE8C000000C949B0840
:1000A000E4C00000E2C00000E0C00000DEC00000CC
:1000B000DCC00000DAC00000D8C00000D6C00000DC
:1000C000D4C00000D2C00000D0C00000CEC00000EC
:1000D000CCC00000CAC00000C8C00000C6C00000FC
:1000E000C4C00000B902B202CB02C202BE02660264
:1000F00085022C0293109610851089108D10CD105A
:100100009A109E10A410A810AC10B210B610BA101D
:10011000CD10C010C410C810000022002500280017
:100120002B002E00310034000201000005010801FF
:100130000B0105050505070508080808020202026B
:100140000A0A080804040404010101010101010173
:100150000303030303030303040707070C0C0C0C3E
:100160000C0C0C0C02020202060606060606060627
:100170000B0B0B0B0B0B0B0B0102102020080810B4
:100180002040102040800201020108040201010207
:1001900004081020408080402010080402018004E0
:1001A000020180402010080402010804020101023B
:1001B0000408102040800102040810204080000044
:1001C0000A0B02090C0D0E080703040100000000D1
:1001D000000000000000000000000000000000001F
:1001E00000000000000000000000121110000000DC
:1001F00000000000000000000000000000000000FF
:10020000000000006614601411241FBECFEFD1E27D
:10021000DEBFCDBF00E00CBF25E0AAEBB3E001C01C
:100220001D92AD3CB207E1F713E0A0E0B2E0ECE4D0
:10023000F2E300E00BBF02C007900D92AA3BB107AA
:10024000D9F711E0C3E0D1E000E006C02197010931
:10025000802FFE010E94CB16C230D10780E0080734
:10026000A9F70E94C7110C941519CACE80914B04AE
:1002700081110BC0109248041092470410924A0456
:100280001092490481E080934B0487E494E0089540
:10029000089581E090E0309159042091580432177C
:1002A00010F480E090E091958195910908958091F6
:1002B000590490915804891730F48F5F8093590442
:1002C00080E090E008958FEF9FEF089580915804AB
:1002D00090E020915904821B91090895089580E0CF
:1002E00090E0089585ED8093BC008091BC0084FD72
:1002F000FCCF1092550408954091DC03262F30E086
:10030000240F311D21323105DCF4209155042430B5
:10031000C9F4FC0180E090E0861758F43091DC03CA
:100320002191DC01A654BC4FA30FB11D2C93019663
:10033000F3CF8091DC03680F6093DC0380E00895C5
:1003400081E0089582E00895CF92DF92EF92FF92CC
:100350000F931F93CF93DF937C01262F972F8A0152
:1003600080912504882391F0C62FD72F6E01C40EEB
:10037000D51ECC15DD0569F06991D701ED91FC9191
:100380000190F081E02DC7011995F3CF642F822FE2
:10039000B3DFC801DF91CF911F910F91FF90EF90D4
:1003A000DF90CF900895CF93DF931F92CDB7DEB744
:1003B0006983209125042223D1F020915604203214
:1003C00040F021E030E0FC013383228380E090E0C4
:1003D00014C080915704E82FF0E0EA5DFB4F99814B
:1003E00090838F5F809357048093560404C061E02C
:1003F000CE01019681DF81E090E00F90DF91CF91F7
:1004000008952F923F924F925F926F927F928F92B8
:100410009F92AF92BF92CF92DF92EF92FF920F9393
:100420001F93CF93DF93CDB7DEB76A970FB6F894DB
:10043000DEBF0FBECDBFDC01ED91FC91119731976E
:10044000E830F10508F025C28B017C018827EE58C1
:10045000FF4F8F4F0C94CB16FD01C280D380E480F8
:10046000F580A7019601C701B6010E94E314882315
:1004700019F063ED72E09DC020E030E0A901C701F2
:10048000B6010E94E31487FF08C06DE2C8010E9414
:10049000630FF7FAF094F7F8F09420E030E0A90148
:1004A000C701B6010E94E314882309F486C0A7019E
:1004B0009601C701B6010E94FD15A70196010E9491
:1004C000E31481117AC06AED72E073C01296ED9068
:1004D000FC9013976BE5C8010E94630FF701E2805F
:1004E000F380E114F10451F0B801C701029689DFED
:1004F000D701ED90FC90E114F10411F46DE52EC0EC
:100500006CE2C8010E94630FECCFFD01E280F38032
:100510006BE7C8010E94630FD7011296ED90FC9023
:10052000139704C06CE2C8010E94630FE114F10448
:10053000A1F0F70162817381C8010E9435106AE35E
:10054000C8010E94630FB801C70104965ADFD701A2
:10055000ED90FC90E114F10429F76DE7C8010E94C9
:10056000630F97C1FD0162817381C8010E9435103C
:1005700090C112966D917C9113971BC06DE2C801DA
:100580000E94630FF7014281538164817581C80124
:100590000E94F20F7EC1FD0182819381A481B58109
:1005A000892B8A2B8B2B19F46DEC72E002C068EC5E
:1005B00072E0C8010E94730F6CC120E836E948E17F
:1005C0005BE4C701B6010E94921687FD5AC1412C17
:1005D000512C70E2672E712C812C912CF201EA5C77
:1005E000FD4F2489358946895789C701B6010E9484
:1005F000921687FD0FC0F201E25EFD4F2489358916
:1006000046895789C701B6010E9448156B017C01D4
:10061000860C971C75946794F4E04F1A510888EE85
:1006200048168FEF5806D1F655245A9420E030E052
:10063000A901C701B6010E949216181694F52CEA7A
:1006400035EC47E257E3C701B6010E94E3141816E0
:1006500044F1BFEF5B1629F1952DA4E09A025001F9
:100660001124F501EA5FFD4F2081318142815381E0
:10067000C701B6010E94E31487FF0FC0F501EA5CD1
:10068000FD4F2081318142815381C701B6010E9413
:1006900048156B017C0186189708759467945A94E5
:1006A000D8CFC701B6010E9466162B013C016B8BA7
:1006B0007C8B8D8B9E8B46E0A42E80E492E4AFE091
:1006C000B0E08F8B988FA98FBA8FBA2CAA24AA94E6
:1006D000AB0C8B899C89AD89BE890A97A105B105B0
:1006E000E8F06F89788D898D9A8D2AE030E040E0BE
:1006F00050E00E94A9162F8B388F498F5A8F6B8933
:100700007C898D899E892AE030E040E050E00E949B
:10071000A9162B8B3C8B4D8B5E8BD7CFC301B201BF
:100720000E94E7149B01AC01C701B6010E94FC15B1
:100730006B017C016F89788D898D9A8D0E94E714F9
:100740009B01AC01C701B6010E9448156B8B7C8BE5
:100750008D8B9E8B0E9466166B017C010E94E714B4
:100760009B01AC016B897C898D899E890E94FC1557
:100770009B01AC010E94FD150E946616C60ED71E95
:10078000E81EF91E8F89988DA98DBA8DC816D906D5
:10079000EA06FB0610F19FEF491A590A690A790A1D
:1007A0008114910489F0AAE04A165104610471048D
:1007B00058F0BFEF8B1A9B0AC12CD12C7601412C2B
:1007C000512C3201439409C0C12CD12C760105C0B3
:1007D0001B147CF469017A01BA94C701B6012AE0BE
:1007E00030E040E050E00E94A916672B682B692B8F
:1007F00079F3AB2CB301A201C8010E94F20FBB2018
:1008000041F1188A3E01E0E16E0E711C7A8A698A14
:100810002AE0222E312C412C512CAA94BFEFAB168A
:1008200069F0C701B601A20191010E94A916605D9D
:10083000D3016E933D0169017A01EFCF69897A890D
:100840006B1971098EE2FB018293BF01C8010E94FE
:10085000730F97FE0AC067ED72E0C8010E94730F24
:10086000662777276819790908C08114910489F0EF
:1008700065E6C8010E94630FB401C8010E94C90F58
:1008800008C080E2682E712C95E0592E812C912CA5
:10089000CDCE6A960FB6F894DEBF0FBECDBFDF9106
:1008A000CF911F910F91FF90EF90DF90CF90BF906D
:1008B000AF909F908F907F906F905F904F903F9000
:1008C0002F9008950F931F93CF93DF938B01FC011B
:1008D000C281D381209759F06A817B81C8010E942F
:1008E0000519892B21F00990D881C02DF3CFCE01B5
:1008F000DF91CF911F910F910895E4DFFC01892BC7
:1009000009F44BC084819581833091053CF481309A
:1009100091057CF4009709F447C038C085309105F3
:100920002CF0059799F5668177812BC08681978198
:1009300008950680F781E02D309779F18081843722
:1009400079F18B3229F08D3221F4319691E002C099
:10095000319690E060E070E03AE0819120ED280F60
:100960002A3068F4369FA001379F500D1124682F5C
:10097000880F770B60537109640F751FEECF9923B1
:1009800091F088279927861B970B089566817781B8
:10099000808591850E94611606C080E090E00895F0
:1009A00081E090E00895CB0108950C947C170C949D
:1009B0007C170C947C17CF92DF92EF92FF920F93EB
:1009C0001F93CF93DF938C017B01DC011596CD91B2
:1009D000DC9116976B016C177D0708F46E01C60158
:1009E00006960E94E716FC01892BB1F0D382C282E1
:1009F000D80113968D919C911497918380831496BE
:100A0000FC93EE931397CC0FDD1F1696DC93CE93D9
:100A10001597F582E4823696CF01DF91CF911F9131
:100A20000F91FF90EF90DF90CF900895FF920F937A
:100A30001F93CF93DF93EC01F62E88819981FC01FF
:100A4000A381B481109771F01496ED91FC911597E4
:100A50009F012F5F3F4F12964D915C911397421764
:100A6000530750F52C813D81B9016F5F7F4FA3DFA4
:100A70008C016A817B816115710549F001151105B1
:100A800071F04C815D81C8010E94FC1803C0011502
:100A9000110529F0EC81FD81E00FF11FF0821B832D
:100AA0000A838C819D8101969D838C83DF91CF91F8
:100AB0001F910F91FF9008953696EA0FFB1F159630
:100AC0003C932E93149760838C819D81892B49F7E9
:100AD000FB83EA83E6CFFC01A081B1818C918D304C
:100AE00051F024F489508230B8F505C0803219F0F5
:100AF0008F3219F0089511962CC011968C91119790
:100B00008A3219F08F32D1F008951196B183A08303
:100B1000A081B181CD0101969183808311968C9142
:100B200011978823C9F08A3299F712968C911297FF
:100B30008F3271F713960DC08A3071F2A081B181A6
:100B4000CD0101969183808311968C918111F4CF10
:100B500003C0B183A083C0CF08950F931F93CF9399
:100B6000DF931F92CDB7DEB78C016983B4DFD80164
:100B7000ED91FC91119780816981861305C03196B2
:100B8000ED93FC9381E001C080E00F90DF91CF9165
:100B90001F910F91089596DE009749F0FC01248182
:100BA00035812730310519F48681978108955ECB10
:100BB000CF92DF92EF92FF920F931F93CF93DF9329
:100BC000CDB7DEB72C970FB6F894DEBF0FBECDBF02
:100BD0008C01CB01BA0176DE7C01009709F44BC091
:100BE000FC01C480D580F1E0CF16D10461F4FC0192
:100BF000668177816115710531F083EE92E00E9484
:100C00000519892B69F0F1E0CF1AD10882E0C816E6
:100C1000D10430F4F701668177816115710569F5BA
:100C200066EF72E0CE0101966C010E942F0EDC8609
:100C3000CB86CE010B9698878F831A861986BE01C4
:100C4000695F7F4FC7010496DCDB89819A81F801D7
:100C5000918380838B819C81938382838D819E810C
:100C6000958384831A8219821C821B821E821D82B4
:100C7000C601C0D704C066EF72E0C801F0D7C80152
:100C80002C960FB6F894DEBF0FBECDBFDF91CF918B
:100C90001F910F91FF90EF90DF90CF900895EF920A
:100CA000FF921F93CF93DF9300D000D0CDB7DEB774
:100CB0007C01DC0114968D919C9115979A83898310
:100CC0001C821B821E821D82C701029604DFD7018F
:100CD0001296ED91FC9113971081173231F1123277
:100CE00021F180ED810F8A3078F081EA810F8C311B
:100CF00058F08FEB810F8A3138F01B3229F083EDE9
:100D0000810F823008F042C0F70182819381019601
:100D100093838283612FCE01019688DED7011296DC
:100D2000ED91FC9113971081DCCF3196D70113968A
:100D3000FC93EE931297D7011296ED91FC911397C5
:100D40006081662319F1CF01019613969C938E93CF
:100D500012976117D9F06C35A9F46181ACEEB2E05D
:100D60008C91882339F0861303C011966C9102C0D0
:100D70001296F6CF662351F03296D7011396FC9364
:100D8000EE931297CE01019651DED5CF60E0CE01F1
:100D900001964CDE8B819C8126960FB6F894DEBFBF
:100DA0000FBECDBFDF91CF911F91FF90EF900895BF
:100DB0000895AF92BF92CF92DF92EF92FF920F937E
:100DC0001F93CF93DF93CDB7DEB768970FB6F89434
:100DD000DEBF0FBECDBF7C018A0167EF72E0CA01A2
:100DE0008CDD6C016EEF72E0C80187DD5C0145E0CF
:100DF00053E0B801CE010796DBDE4CE053E0B801CA
:100E0000CE010196D5DEC6010E942F11C5010E94B8
:100E10002F11CE0107960E94B211CE0101960E94B9
:100E2000B2111C8A1B8A1E8A1D8A188E1F8ABE0157
:100E30006F5F7F4FCE014396BDD61E861D86188AF2
:100E40001F861A8A198ABE01695F7F4FCE010D96EF
:100E5000B1D68E010D5E1F4F9E01235F3F4FA5014E
:100E6000B601C701F2D7CE010D96C4D6C801C2D6CD
:100E7000CE010196BFD6CE010796BCD6C7016896B3
:100E80000FB6F894DEBF0FBECDBFDF91CF911F919B
:100E90000F91FF90EF90DF90CF90BF90AF900895AB
:100EA000DB01109749F0ED91FC9111970190F081D1
:100EB000E02DBC01CD01199480E090E008959F924F
:100EC000AF92BF92CF92DF92EF92FF920F931F9358
:100ED000CF93DF9300D000D0CDB7DEB76C01FC011B
:100EE00000811181B80184E090E0DADF009709F415
:100EF00071C0FC0111830083138212828C01760180
:100F0000F2E0EF0EF11C6BE7C70127DE882309F43E
:100F10005EC06DE7C70121DE81115EC086E0982EBC
:100F2000C601BDDE5C01892B09F451C06AE3C7012B
:100F300014DE882309F44BC01A821982BE016F5F48
:100F40007F4FC601CED2882309F441C0B501C80144
:100F5000B9DCDC01892B49F5F801608171818AE0F7
:100F600090E09EDFDC01892B39F011961C921E92D5
:100F700015961C921E921497F80122813381211537
:100F8000310551F0F90180819181009711F09C01A8
:100F9000F9CFB183A08303C0F801B383A283109774
:100FA000B1F01396BC92AE921297FE013196149650
:100FB000892D01900D928A95E1F76DE7C701CDDD8E
:100FC00081110AC06CE2C701C8DD8111A9CF4ED9D9
:100FD0008C0102C04BD992CFC80126960FB6F89467
:100FE000DEBF0FBECDBFDF91CF911F910F91FF905C
:100FF000EF90DF90CF90BF90AF909F9008950895AD
:10100000CF93FC01C48121E020932504C0934604C2
:1010100010925704109256048385682B8BEA95E052
:10102000C2D980915604813208F046C0909155048F
:101030009111FCCF92E09093550491E09093540469
:101040009FEF909324041092230480932204A6E23D
:10105000B4E022E034E0F9019E2F921B981718F4B7
:101060009D919193F9CF1092010480910104CC0FCE
:10107000C82BC093010480915304813061F4109215
:101080005304809101048093BB008091BC0083FDD8
:10109000F8CF85EC01C085EE8093BC0080915504AB
:1010A0008230E1F3809124048F3F31F08091240459
:1010B000803211F08091240410925704109256044B
:1010C00010922504CF9108950F931F93CF938C0115
:1010D000C62F96DF6C2F6460C80192DF6C2F6B7F88
:1010E000C8018EDF83EC90E00197F1F7CF911F915B
:1010F0000F9108950F931F93CF93DF938C01D62FF9
:10110000C42F607F642BE0DF6D2F6295607F6C2BB6
:10111000C801DF91CF911F910F91D6CF41E0EADF57
:1011200081E090E0089540E061E0E4DF8BE39FE13F
:101130000197F1F708951F920F920FB60F921124A5
:101140000BB60F922F933F934F935F936F937F93C1
:101150008F939F93AF93BF93EF93FF938091B900C9
:10116000887F803609F49CC068F5883209F45BC03A
:1011700090F4803109F454C038F4882309F4F6C09F
:10118000883009F44DC0F6C0883109F44CC0803273
:1011900009F45DC0EFC0803409F468C048F48033BE
:1011A00009F455C0883309F0E5C080932404D8C001
:1011B000803509F44FC0883509F45DC0883409F0E2
:1011C000D9C0D6C0883909F4C7C0A8F4883709F453
:1011D00067C038F4883609F463C0803709F460C00A
:1011E000C9C0883809F4B8C0803909F45FC08038B4
:1011F00009F0C0C05BC0803B09F486C038F4803A77
:1012000009F466C0883A09F47FC0B4C0803C09F490
:10121000A7C0883C09F4A4C0883B09F48AC0AAC0CE
:101220008091010410C090912304809122049817AA
:1012300070F5E091230481E08E0F80932304F0E0A9
:10124000EE5FFB4F80818093BB0085EC86C080936E
:1012500024048EC0E091230481E08E0F8093230448
:101260008091BB00F0E0EE5FFB4F80839091230400
:10127000809122046EC0E091230481E08E0F809360
:1012800023048091BB00F0E0EE5FFB4F80838091F0
:10129000540481116DC081E08093530484EA61C0DD
:1012A00083E08093550410920004CFCF8091000416
:1012B000803208F051C0E091000481E08E0F8093ED
:1012C00000048091BB00F0E0E052FC4F8083BDCF72
:1012D00085EC8093BC00109255048091000480320C
:1012E00030F4E0910004F0E0E052FC4F1082609195
:1012F000000470E0E091DE03F091DF0380EE93E004
:1013000019951092000436C084E080935504109221
:10131000DD031092DC03E091DA03F091DB03199511
:101320008091DC03811105C081E08093DC03109281
:10133000BA03E091DD0381E08E0F8093DD03F0E0DE
:10134000E654FC4F80818093BB009091DD03809137
:10135000DC03981708F479CF85E88093BC000AC0B5
:1013600085EC8093BC001092550404C010922404B4
:101370000E947201FF91EF91BF91AF919F918F9168
:101380007F916F915F914F913F912F910F900BBE85
:101390000F900FBE0F901F90189508952FB7F894D7
:1013A0008091610490916204A0916304B0916404FF
:1013B0002FBF8093790490937A04A0937B04B09319
:1013C0007C04E0917104F09172040284F385E02DB5
:1013D00081E794E0199597FF26C02FB7F894809184
:1013E000610490916204A0916304B09164042FBFE2
:1013F0004091790450917A0460917B0470917C044F
:10140000841B950BA60BB70B409175045091760485
:10141000609177047091780484179507A607B70741
:1014200080F28FEF9FEF08953FB7F89480915D04AD
:1014300090915E04A0915F04B091600426B5A89BD2
:1014400005C02F3F19F00196A11DB11D3FBFBA2F56
:10145000A92F982F8827820F911DA11DB11DBC01B6
:10146000CD0142E0660F771F881F991F4A95D1F77B
:1014700008958F929F92AF92BF92CF92DF92EF9298
:10148000FF926B017C01D0DF4B015C01C114D104E0
:10149000E104F104E9F0C8DFDC01CB018819990906
:1014A000AA09BB09883E9340A105B10578F321E064
:1014B000C21AD108E108F10888EE880E83E0981E70
:1014C000A11CB11CC114D104E104F10421F7DECF49
:1014D000FF90EF90DF90CF90BF90AF909F908F9054
:1014E00008959F92AF92BF92CF92DF92EF92FF92B8
:1014F0000F931F93CF93DF9300D000D0CDB7DEB70B
:10150000FC019681992309F4D8C06B017F019150A9
:1015100096835F0182E0A80EB11CC501DCDAD70119
:101520001296ED91FC91139780818B3521F08B37CA
:1015300009F492C09BC0F70100811181B80184E0D9
:1015400090E0AEDC009751F0DC0111961C930E93F5
:1015500013961C921E9212978C0111C080916904FF
:1015600081110BC0109266041092650410926804F9
:101570001092670481E08093690405E614E06BE54E
:10158000C501EBDA882309F447C06DE5C501E5DA4A
:10159000811153C086E0982E1A821982BE016F5FB6
:1015A0007F4FC7019EDF8823B9F1F8016081718107
:1015B00088E090E075DCDC01892B39F011961C92F3
:1015C0001E9213961C921E921297F801228133816B
:1015D0002115310551F0F90180819181009711F0B9
:1015E0009C01F9CFB183A08303C0F801B383A28328
:1015F000109791F0FE0131961296892D01900D926F
:101600008A95E1F76DE5C501A8DA811116C06CE293
:10161000C501A3DA8111C0CF8091690481110BC08B
:101620001092660410926504109268041092670488
:1016300081E08093690405E614E0D8018D919C91C6
:10164000892B11F410E031C086E090E0F60191831F
:1016500080831383028328C0C70131DCDC012D9114
:101660003C91232B79F327E030E019C011E0873259
:1016700019F0823209F010E0C70111DB009711F375
:10168000112359F022E030E0D60111963C932E93BD
:1016900013969C938E93129708C021E030E0F601D8
:1016A000318320839383828311E0D70116968C9136
:1016B00016978F5F16968C9301C010E0812F2696A7
:1016C0000FB6F894DEBF0FBECDBFDF91CF911F9153
:1016D0000F91FF90EF90DF90CF90BF90AF909F90D1
:1016E00008951F920F920FB60F9211242F933F93DC
:1016F0008F939F93AF93BF93809161049091620405
:10170000A0916304B091640430915C0423E0230F42
:101710002D3720F40196A11DB11D05C026E8230F29
:101720000296A11DB11D20935C04809361049093E7
:101730006204A0936304B093640480915D0490916B
:101740005E04A0915F04B09160040196A11DB11DDB
:1017500080935D0490935E04A0935F04B093600453
:10176000BF91AF919F918F913F912F910F900FBE9D
:101770000F901F901895CF92DF92EF92FF920F93E8
:101780001F93CF93DF936C017A018B01C0E0D0E00F
:10179000CE15DF0589F0D8016D918D01D601ED914F
:1017A000FC910190F081E02DC6011995892B11F46F
:1017B0007E0102C02196ECCFC701DF91CF911F912E
:1017C0000F91FF90EF90DF90CF900895FC01A089DA
:1017D000B1898C91A689B78982FD0FC09C91818DBA
:1017E0008F5F8F73228D821749F0218DDF01A20F49
:1017F000B11D5D969C93818F08958C910895FC0195
:10180000538D448D252F30E0842F90E0821B930B65
:10181000541710F0CF96089501970895FC01918D0B
:10182000828D981761F0828DDF01A80FB11D5D9642
:101830008C91928D9F5F9F73928F90E008958FEFB0
:101840009FEF0895FC01918D828D981731F0828D64
:10185000E80FF11D858D90E008958FEF9FEF0895BB
:10186000FC01918D228D892F90E0805C9F4F821B1F
:1018700091098F739927089581E794E0F1DF21E0C2
:10188000892B09F420E0822F08958EE095E0E8DFAF
:1018900021E0892B09F420E0822F0895FC01848D3A
:1018A000DF01A80FB11DA35ABF4F2C91848D90E08A
:1018B00001968F739927848FA689B7892C93A08965
:1018C000B1898C9180648C93938D848D981306C01C
:1018D0000288F389E02D80818F7D80830895EF92C7
:1018E000FF920F931F93CF93DF93EC0181E0888FDA
:1018F0009B8D8C8D981305C0E889F989808185FDC1
:1019000023C0F62E0B8D10E00F5F1F4F0F731127B2
:10191000E02E8C8DE8120BC00FB607FCFACFE889D9
:10192000F989808185FFF5CFCE01B8DFF2CF8B8DAD
:10193000FE01E80FF11DE35AFF4FF0820B8FEA8999
:10194000FB898081806207C0EE89FF896083E88916
:10195000F98980818064808381E090E0DF91CF917C
:101960001F910F91FF90EF900895CF93DF93EC01BB
:10197000888D8823C1F0EA89FB89808185FD05C0B7
:10198000A889B9898C9186FD0EC00FB607FCF5CFEA
:10199000808185FFF2CFA889B9898C9185FFEDCF31
:1019A000CE017CDFE8CFDF91CF91089580E090E019
:1019B000892B19F06ADF811120C080E090E0892B2B
:1019C00019F05ADF81111CC080E090E0892B41F0B2
:1019D00080E090E0892B21F00E940000811113C06B
:1019E00080E090E0892BA1F080E090E0892B81F0ED
:1019F0000E94000081110AC008950E940000DDCFFE
:101A00000E940000E1CF0E940000EACF0C94000089
:101A100008950E94F8180C947C170F931F93CF938E
:101A2000DF93EC0188819981009729F02A813B811D
:101A30002617370788F48B016F5F7F4F0E941418B9
:101A4000009761F0998388831B830A832C813D81F1
:101A5000232B11F4FC01108281E001C080E0DF91B2
:101A6000CF911F910F910895EF92FF920F931F93C3
:101A7000CF93DF93EC017B018A01BA01CEDF28818D
:101A8000398181110DC02115310519F0C9010E945C
:101A90007C17198218821D821C821B821A8206C042
:101AA0001D830C83B701C9010E940E19CE01DF917D
:101AB000CF911F910F91FF90EF900895DC01139645
:101AC000ED91FC911497309751F024813581AB0151
:101AD000420F531FA281B381A417B50710F40C94D1
:101AE000DB04C9010696558344838E0F9F1F08951A
:101AF000FC0124813581FB01448155812417350780
:101B000021F5FC0180819181FB0160817181009749
:101B100019F061157105A1F46115710549F0232BC8
:101B2000B1F0FB01808190E09195819591090AC007
:101B3000009769F0232B59F0FC01808190E002C0EE
:101B40000E94051921E0892B19F020E001C021E055
:101B5000822F0895EF92FF920F931F93CF93DF93FD
:101B60001F921F92CDB7DEB78C0169831A82FC01E8
:101B7000E480F580FFEFEF1AFF0AB7014EDF8823FC
:101B800081F0F8012081318184819581BE016F5FF0
:101B90007F4F820F931F0E940E19F801F582E48295
:101BA00081E00F900F90DF91CF911F910F91FF90E7
:101BB000EF900895CF93DF93EC01FB018617970711
:101BC000A9F0608171816115710521F04481558111
:101BD0004BDF0CC088819981009711F00E947C171F
:101BE000198218821D821C821B821A82CE01DF910B
:101BF000CF910895FC01808191810C947C17CF9343
:101C0000DF93EC0184E892E099838883CE01089603
:101C1000F1DFCE010296DF91CF91ECCFCF93DF932E
:101C2000EC01EDDFCE01DF91CF910C947C17CF93C7
:101C3000DF93EC018CE792E099838883CE010C96C8
:101C4000D9DFCE010696DF91CF91D4CFCF93DF932A
:101C5000EC01EDDFCE01DF91CF910C947C17FC01FC
:101C6000118210821382128215821482611571050D
:101C700049F0FB0101900020E9F73197AF01461BC5
:101C8000570BF2CE08956115710579F0FB010190B3
:101C90000020E9F73197AF01461B570BDC01ED91AE
:101CA000FC910280F381E02D199480E090E008958A
:101CB0001F920F920FB60F9211240BB60F922F9313
:101CC0003F934F935F936F937F938F939F93AF93C4
:101CD000BF93EF93FF9381E794E0E0DDFF91EF91F5
:101CE000BF91AF919F918F917F916F915F914F9134
:101CF0003F912F910F900BBE0F900FBE0F901F9032
:101D000018951F920F920FB60F9211240BB60F92D7
:101D10002F933F934F935F936F937F938F939F93F3
:101D2000AF93BF93EF93FF9381E794E04FDDFF9173
:101D3000EF91BF91AF919F918F917F916F915F9143
:101D40004F913F912F910F900BBE0F900FBE0F90B0
:101D50001F9018951F920F920FB60F9211240BB679
:101D60000F922F933F934F935F936F937F938F9334
:101D70009F93AF93BF93EF93FF938EE095E08EDD3B
:101D8000FF91EF91BF91AF919F918F917F916F9153
:101D90005F914F913F912F910F900BBE0F900FBE0F
:101DA0000F901F9018951F920F920FB60F9211244B
:101DB0000BB60F922F933F934F935F936F937F9345
:101DC0008F939F93AF93BF93EF93FF938EE095E034
:101DD000FDDCFF91EF91BF91AF919F918F917F912A
:101DE0006F915F914F913F912F910F900BBE0F908C
:101DF0000FBE0F901F901895CF92DF92EF92FF9237
:101E00000F931F93CF93DF93EC016B017A0184E86A
:101E100092E0FE01819391938F0166EF72E0CF0112
:101E20001EDF289666EF72E0CE0119DFB601C80109
:101E3000C1DEB701CE01DF91CF911F910F91FF90CD
:101E4000EF90DF90CF90B6CE08956F927F928F92F1
:101E50009F92AF92BF92CF92DF92EF92FF920F9339
:101E60001F93CF93DF93EC015B014A0169018CE77B
:101E700092E0998388833E0186E0680E711C66EFCC
:101E800072E0C301ECDE7E018CE0E80EF11C66EF2F
:101E900072E0C701E4DEBB82AA829D828C82B60119
:101EA000C30188DEB801C701DF91CF911F910F9167
:101EB000FF90EF90DF90CF90BF90AF909F908F906A
:101EC0007F906F9077CECF93DF93EC01E881F9811B
:101ED000808191813FDE8A819B8101969B838A83E9
:101EE000DF91CF9108958F929F92AF92BF92CF9240
:101EF000DF92EF92FF920F931F93CF93DF937C01BA
:101F00004B01DC01AD90BC90F50100811181D8013D
:101F10001496CD90DC90159761157105F9F0FB01D1
:101F200001900020E9F73197E61BF70BB9F0EF01BC
:101F3000CC0DDD1DBE01C80170DD882379F0F801EC
:101F40002081318184819581B401820F931F0E9489
:101F50000E19D8011596DC93CE931497D501ED9107
:101F6000FC9124813581F70182819381820F931F37
:101F70008C199D0993838283DF91CF911F910F91DB
:101F8000FF90EF90DF90CF90BF90AF909F908F9099
:101F900008950F931F93CF93DF93CDB7DEB7669766
:101FA0000FB6F894DEBF0FBECDBF8C01CB011E8AE9
:101FB000FE0176962AE030E0B901B8D690E3980F9A
:101FC0009293CB010097C1F7BF01C8018CDF6696E1
:101FD0000FB6F894DEBF0FBECDBFDF91CF911F913A
:101FE0000F9108958F929F92AF92BF92EF92FF92BE
:101FF0000F931F93CF93DF93CDB7DEB766970FB6DE
:10200000F894DEBF0FBECDBF7C011E8A8E010A5E32
:102010001F4F8AE0882E912CA12CB12CCB01BA0144
:10202000A501940196D6942F852F605DF8016293E7
:102030008F01A901692F782F41155105610571059F
:1020400069F7BF01C7014FDF66960FB6F894DEBF90
:102050000FBECDBFDF91CF911F910F91FF90EF90F9
:10206000BF90AF909F908F900895FF920F931F9312
:10207000CF93DF936115710541F463EE72E0DF9158
:10208000CF911F910F91FF902ECF8B01EC0162E257
:10209000CE0119DFF80161918F01662351F0E8EE5E
:1020A000F2E0F080FF20A1F39181961751F0329673
:1020B000F8CF62E2CE01DF91CF911F910F91FF9097
:1020C00002CF6CE5CE01FFDE6F2DE2CF90E0FC0188
:1020D000E254FE4F4491FC01E858FE4F2491FC016C
:1020E000EE5CFE4F9491992309F465C0442309F4F2
:1020F00054C050E0FA013197E231F10508F04DC0CB
:102100008827E658FF4F8F4F46C6809180008F7713
:1021100007C0809180008F7D03C080918000877F01
:10212000809380003AC084B58F7702C084B58F7DDC
:1021300084BD33C08091B0008F7703C08091B00020
:102140008F7D8093B00029C0809190008F7707C069
:10215000809190008F7D03C080919000877F809355
:1021600090001BC08091A0008F7707C08091A000D5
:102170008F7D03C08091A000877F8093A0000DC059
:10218000809120018F7707C0809120018F7D03C04F
:1021900080912001877F80932001E92FF0E0EE0FEE
:1021A000FF1FE85EFE4FA591B4918FB7F894EC91B4
:1021B0002E2B2C938FBF0895CF93DF93CDB7DEB72F
:1021C00028970FB6F894DEBF0FBECDBF28E0E8E831
:1021D000F2E0DE01119601900D922A95E1F7FC01E3
:1021E0002085261710F46FEF620FFE013196E60F7F
:1021F000F11DE60FF11D6081606840E028960FB682
:10220000F894DEBF0FBECDBFDF91CF910C947A085A
:10221000FC01A089B18982E08C93A485B5851C92CC
:10222000A685B7858FEC8C93108EA489B58986E03E
:102230008C93A289B3898C9180618C93A289B38994
:102240008C9188608C93A289B3898C9180688C93DF
:102250000288F389E02D80818F7D808308958F929D
:102260009F92AF92BF92CF92DF92EF92FF920F9325
:102270001F93CF93DF93CDB7DEB7A1970FB6F89436
:10228000DEBF0FBECDBF6C01990FEE08FF08F7FE51
:1022900031C0E0910E05F0910F050190F081E02D25
:1022A0006DE28EE095E019958C0122273327A90174
:1022B0002C193D094E095F0919A2CE0181967C01B6
:1022C0009AE0892E912CA12CB12CCA01B901A5014B
:1022D00094013FD5605DF70162937F0121153105BF
:1022E0004105510591F7BF018EE095E0CCDC080F68
:1022F000191F1EC0A701960119A28E010F5D1F4F65
:102300008AE0C82ED12CE12CF12CCA01B901A70119
:1023100096011FD5605DF80162938F01211531058B
:102320004105510591F7BF018EE095E0ACDC8C01D1
:1023300064E973E08EE095E0A6DC800F911FA19622
:102340000FB6F894DEBF0FBECDBFDF91CF911F91C6
:102350000F91FF90EF90DF90CF90BF90AF909F9044
:102360008F900895CF93DF93FC0144815581608164
:1023700071818EE095E0FFD9EC0164E973E08EE0B5
:1023800095E081DC8C0F9D1FDF91CF910895CF9355
:10239000DF93CDB7DEB7C256D1090FB6F894DEBFD2
:1023A0000FBECDBF789484B5826084BD84B5816052
:1023B00084BD85B5826085BD85B5816085BD809110
:1023C0006E00816080936E00109281008091810088
:1023D0008260809381008091810081608093810080
:1023E000809180008160809380008091B100846042
:1023F0008093B1008091B00081608093B0008091A3
:10240000910082608093910080919100816080931F
:102410009100809190008160809390008091A10054
:1024200082608093A1008091A10081608093A100CF
:102430008091A00081608093A00080912101826042
:1024400080932101809121018160809321018091FD
:10245000200181608093200180917A0084608093C4
:102460007A0080917A00826080937A0080917A006D
:10247000816080937A0080917A00806880937A00EE
:102480001092C1001EAA1DAA82E592E09CAB8BAB04
:1024900087E28FAB80E18CAF82E08DAF1EAE7E0114
:1024A0008BE5E80EF11C84E792E0F70191838083CD
:1024B0008E010D5C1F4F13830283109259041092FA
:1024C000580410925704109256041092550481E05B
:1024D000809354041092530484E1F8DD85E1F6DD25
:1024E0008091B9008E7F8093B9008091B9008D7F73
:1024F0008093B90088E48093B80085E48093BC00A1
:1025000018AE8DAD823010F098E098AF8BAF8BE3B2
:102510009DE00197F1F76EADC8010E94000868EEDA
:1025200073E080E090E00E94390A60E3C8010E94F5
:1025300064088BE4C82E86E4D82EC6010197F1F713
:1025400060E3C8010E946408C6010197F1F760E3E7
:10255000C8010E94640883E592E00197F1F760E208
:10256000C8010E94640868AD606240E0C8010E9432
:102570007A0884E089AF40E06CE0C8010E947A08E4
:10258000C8010E94930882E08AAF40E066E0C8017B
:102590000E947A0840E062E0C8010E947A088BE35A
:1025A0009FE10197F1F7F7018281938128E0FC0117
:1025B000238760E00E9400088EE095E029DE81E735
:1025C00094E026DEF701828193810E9493086BE1FB
:1025D00073E0F7018281938156DB61E0F70182812C
:1025E0009381EADD68E273E0F701828193814BDB3E
:1025F0008CE692E069969FAF8EAF69976B96FFAEBF
:10260000EEAE6B97A0961FAEA097A1961FAEA197B6
:10261000A2961FAEA297A3961FAEA3979EE5692E22
:1026200092E0792E212C22E0322E8E010D5E1F4F7A
:10263000CE0101967C014E0195E2890E911C6E013E
:10264000EBE4CE0ED11C80915B048111FEC081E7CA
:1026500094E006D9892BB9F366EF72E0CE01CF96EC
:10266000FEDA0E94CE0997FD05C0682FCE01CF96F5
:1026700071DAF7CF7C8A6B8A1F8A1E8A398E288E80
:10268000CE01CF966FDE21968EAD9FAD219700973C
:1026900011F486EF92E01A8309839C838B831E8357
:1026A0000D83FAE0FF83C7010E945F075C017C8A0B
:1026B0006B8AEE89FF89309751F082819381998FDF
:1026C000888F40805180CF0117D4F201F4CFCE0122
:1026D000CF9690DA49E353E0B501CE018F5A9F4F70
:1026E0000E94D80563EC75E0CE018F5A9F4F00DA47
:1026F000882309F45FC040E453E0B501CE018B5B51
:102700009F4F0E94D80545E453E0B501CE01CF9616
:102710000E94D805CE018F5A9F4F24DECE018B5BDD
:102720009F4F20DECE01CF961DDE64E670E080E094
:1027300090E00E94390A1A8219821C821B821E8232
:102740001D82BE01615C7F4FC70134DA1C8A1B8A7F
:102750001E8A1D8A188E1F8ABE016B5B7F4FC801BF
:1027600029DAA701B801C40147DBC80143DAC70170
:1027700041DA81E080935B046B964EAC5FAC6B9763
:1027800060E0F2018281938117DD6EE473E0F20173
:102790008281938178DAC40132DACE01CF962ADAC7
:1027A000CE018B5B9F4F26DAA2968FAEA297A3969F
:1027B0009FAEA3976DEB75E0CE018F5A9F4F98D9CE
:1027C000882309F43DC06FE573E0C5010E94CB0585
:1027D000AC01BE01695A7F4FC8010E94D90668E664
:1027E00073E0C5010E94CB05AC01BE01695A7F4F61
:1027F000C7010E94D90684E692E0F60191838083A6
:1028000013830283F582E48291E090935A046B96DD
:10281000AEACBFAC6B9761E0F50182819381CCDCFB
:1028200062E773E0F501828193812DDAC701FFD958
:10283000C801FDD9A096CFAEA097A196DFAEA19713
:10284000CE018F5A9F4FD6D9FECE80915A0488234D
:1028500009F4FDCE63E873E08EE095E014DA64E9F4
:1028600073E08EE095E00FDA6B960EAD1FAD6B97BF
:10287000F801828193810E94930867E973E0F8016F
:102880008281938100DAA296FFADA297F093B905F9
:10289000A3968FADA3978093BA05A0969FADA097FE
:1028A0009093BB05A196EFADA197E093BC058091F5
:1028B0005B04811180915A0490E0D1DC77D8FECF7F
:1028C0008DEB95E097D983EC95E094C9CF92DF9298
:1028D000EF92FF92E1E7F4E01382128288EEC82EB5
:1028E00083E0D82EE12CF12CC482D582E682F782D7
:1028F00084E992E0918380832DEC30E03587248752
:102900002CEC30E03787268728EC30E0318B208BA9
:1029100029EC30E0338B228B2AEC30E0358B248B92
:102920002EEC30E0378B268B118E128E138E148E88
:10293000EEE0F5E013821282C482D582E682F7824D
:102940009183808385EC90E09587848784EC90E088
:102950009787868780EC90E0918B808B81EC90E06C
:10296000938B828B82EC90E0958B848B86EC90E04D
:10297000978B868B118E128E138E148E64EA73E001
:1029800083EC95E06CD96CEA73E08DEB95E067D948
:10299000EBEAF5E013821282C482D582E682F782E6
:1029A00086EA92E091838083E7EBF5E084EC92E0A5
:1029B000918380831382128215821482FF90EF909C
:1029C000DF90CF90089540D008F481E00895E89416
:1029D00009C097FB3EF490958095709561957F4F67
:1029E0008F4F9F4F9923A9F0F92F96E9BB27939515
:1029F000F695879577956795B795F111F8CFFAF425
:102A0000BB0F11F460FF1BC06F5F7F4F8F4F9F4F55
:102A100016C0882311F096E911C0772321F09EE8B3
:102A2000872F762F05C0662371F096E8862F70E019
:102A300060E02AF09A95660F771F881FDAF7880FF3
:102A40009695879597F90895990F0008550FAA0B49
:102A5000E0E8FEEF16161706E807F907C0F01216B1
:102A60001306E407F50798F0621B730B840B950BB4
:102A700039F40A2661F0232B242B252B21F4089509
:102A80000A2609F4A140A6958FEF811D811D0895A6
:102A90000BD078C069D028F06ED018F0952309F0DB
:102AA0005AC05FC01124A2C07ED0A0F3959FD1F37D
:102AB000950F50E0551F629FF001729FBB27F00DEC
:102AC000B11D639FAA27F00DB11DAA1F649F662741
:102AD000B00DA11D661F829F2227B00DA11D621F90
:102AE000739FB00DA11D621F839FA00D611D221F4A
:102AF000749F3327A00D611D231F849F600D211D2E
:102B0000822F762F6A2F11249F5750408AF0E1F0D0
:102B100088234AF0EE0FFF1FBB1F661F771F881F19
:102B200091505040A9F79E3F510570F014C05EC00F
:102B30005F3FECF3983EDCF3869577956795B79504
:102B4000F795E7959F5FC1F7FE2B880F911D96952E
:102B5000879597F9089597F99F6780E870E060E09E
:102B600008959FEF80EC089500240A941616170626
:102B700018060906089500240A941216130614066E
:102B800005060895092E0394000C11F4882352F0D1
:102B9000BB0F40F4BF2B11F460FF04C06F5F7F4F89
:102BA0008F4F9F4F089557FD9058440F551F59F070
:102BB0005F3F71F04795880F97FB991F61F09F3F2A
:102BC00079F087950895121613061406551FF2CF53
:102BD0004695F1DF08C0161617061806991FF1CFA3
:102BE00086957105610508940895E894BB276627CA
:102BF0007727CB0197F908955058BB27AA270ED005
:102C0000C1CFB2DF30F0B7DF20F031F49F3F11F4D5
:102C10001EF4A7CF0EF4E095E7FB9DCFE92FC3DFAD
:102C200080F3BA17620773078407950718F071F4E9
:102C30009EF5DBCF0EF4E0950B2EBA2FA02D0B01E5
:102C4000B90190010C01CA01A0011124FF27591BF1
:102C500099F0593F50F4503E68F11A16F040A22FF7
:102C6000232F342F4427585FF3CF46953795279568
:102C7000A795F0405395C9F77EF41F16BA0B620B67
:102C8000730B840BBAF09150A1F0FF0FBB1F661FAE
:102C9000771F881FC2F70EC0BA0F621F731F841FF1
:102CA00048F4879577956795B795F7959E3F08F017
:102CB000B3CF9395880F08F09927EE0F97958795D6
:102CC000089504D06894B11191CF089574DF88F00D
:102CD0009F5790F0B92F9927B751A0F0D1F0660F08
:102CE000771F881F991F1AF0BA95C9F712C0B13023
:102CF00081F07BDFB1E0089578CF672F782F8827A8
:102D0000B85F39F0B93FCCF3869577956795B39561
:102D1000D9F73EF490958095709561957F4F8F4FD0
:102D20009F4F089591DE08F48FEF089597FB072ECB
:102D300016F4009406D077FD08D035D007FC05D0F6
:102D40003EF4909581959F4F0895709561957F4FC2
:102D50000895A1E21A2EAA1BBB1BFD010DC0AA1FDC
:102D6000BB1FEE1FFF1FA217B307E407F50720F0F4
:102D7000A21BB30BE40BF50B661F771F881F991F6F
:102D80001A9469F760957095809590959B01AC01B8
:102D9000BD01CF010895EE0FFF1F881F8BBF079065
:102DA000F691E02D1994AA1BBB1B51E107C0AA1F85
:102DB000BB1FA617B70710F0A61BB70B881F991FDC
:102DC0005A95A9F780959095BC01CD010895CF93B0
:102DD000DF938230910510F482E090E0E091CB0522
:102DE000F091CC0520E030E0C0E0D0E0309711F168
:102DF0004081518148175907C0F04817590761F4BD
:102E000082819381209719F09B838A832BC09093B2
:102E1000CC058093CB0526C02115310519F042174A
:102E2000530718F49A01BE01DF01EF010280F3811C
:102E3000E02DDCCF2115310509F1281B390B243099
:102E4000310590F412968D919C911397611571053F
:102E500021F0FB019383828304C09093CC0580937F
:102E6000CB05FD01329644C0FD01E20FF31F8193B3
:102E70009193225031092D933C933AC02091C9057A
:102E80003091CA05232B41F42091020230910302B4
:102E90003093CA052093C9052091000230910102A8
:102EA0002115310541F42DB73EB7409104025091F0
:102EB0000502241B350BE091C905F091CA05E21704
:102EC000F307A0F42E1B3F0B2817390778F0AC014D
:102ED0004E5F5F4F2417350748F04E0F5F1F50932A
:102EE000CA054093C9058193919302C0E0E0F0E0E8
:102EF000CF01DF91CF9108950F931F93CF93DF936D
:102F0000009709F48CC0FC01329713821282009161
:102F1000CB051091CC050115110581F4208131817B
:102F2000820F931F2091C9053091CA0528173907D0
:102F300079F5F093CA05E093C90571C0D80140E066
:102F400050E0AE17BF0750F412962D913C911397A5
:102F5000AD012115310509F1D901F3CF9D01DA0148
:102F60003383228360817181860F971F82179307B5
:102F700069F4EC0128813981260F371F2E5F3F4FFE
:102F8000318320838A819B8193838283452B29F41B
:102F9000F093CC05E093CB0542C01396FC93EE93DF
:102FA0001297ED01499159919E01240F351FE217A7
:102FB000F30771F480819181840F951F0296119619
:102FC0009C938E938281938113969C938E931297F8
:102FD000E0E0F0E0D80112968D919C911397009754
:102FE00019F0F8018C01F6CF8D919C9198012E5F1C
:102FF0003F4F820F931F2091C9053091CA052817B2
:10300000390769F4309729F41092CC051092CB055A
:1030100002C0138212821093CA050093C905DF9182
:10302000CF911F910F9108956F927F928F929F92EF
:10303000AF92BF92CF92DF92EF92FF920F931F93C6
:10304000CF93DF93EC01009781F4CB01DF91CF9117
:103050001F910F91FF90EF90DF90CF90BF90AF90B6
:103060009F908F907F906F90B2CEFC01E60FF71F7C
:103070009C0122503109E217F30708F4A8C0D901D6
:103080000D911C91119706171707A8F0053011052F
:1030900008F49BC0C80104978617970708F495C0E9
:1030A00002501109061B170B019311936D937C932A
:1030B000CF0122DF8AC05B01A01AB10A4C01800E49
:1030C000911EA091CB05B091CC0540E050E0E12CE1
:1030D000F12C109709F44AC0A815B905D1F56D90E7
:1030E0007C901197630182E0C80ED11CCA14DB04E6
:1030F00080F1A3014A195B096A0182E0C80ED11C64
:103100001296BC9012971396AC91B5E0CB16D104F1
:1031100040F0B282A38351834083D9016D937C93A5
:103120000AC00E5F1F4FC301800F911FF9019183E9
:103130008083EB2DFA2FE114F10431F0D7011396BF
:10314000FC93EE93129741C0F093CC05E093CB052E
:103150003CC08D919C9111974817590708F4AC0118
:103160007D0112960D90BC91A02DB3CF8091C90521
:103170009091CA0588159905E1F446175707C8F4D8
:103180008091000290910102009741F48DB79EB7A3
:103190004091040250910502841B950BE817F90732
:1031A000B0F4F093CA05E093C905F9017183608317
:1031B0000CC0CB010CDE7C01009749F0A801BE01D8
:1031C0001BD0CE0199DEC70104C0CE0102C080E051
:1031D00090E0DF91CF911F910F91FF90EF90DF90E2
:1031E000CF90BF90AF909F908F907F906F900895F9
:1031F00081E090E0F89419C0FB01DC0102C001906D
:103200000D9241505040D8F70895FB01DC018D919B
:10321000019080190110D9F3990B0895FB01DC018D
:1032200001900D920020E1F7089511E0C3E0D1E094
:1032300000E005C0802FFE01AEDD2196011DC430E7
:0C324000D10780E00807B1F7F894FFCF39
:10324C000000CD0580000000803FCDCCCC3D6F123E
:10325C00833A95BFD6337D1D9026B3CE010CCDCCD1
:10326C00CC3D0AD7233C17B7D13877CC2B32959568
:10327C00E6241FB14F0A000020410000C842004064
:10328C001C4620BCBE4CCA1B0E5AAEC59D74000019
:10329C0000008E08BB0B6F016E01000000005E0D7C
:1032AC0000000000240F0B0D00000000D806D50410
:1032BC0000000000CD09D90400000000170E260EF6
:1032CC0000000000FF0D0E0E000040001400540022
:1032DC00000000006F0CBB0BFF0BB50C300C0E0C80
:1032EC00220C00000000D301A4016F01480166010B
:1032FC005701490100000000090DBB0B6F016E0165
:10330C0000000000FF07D704747275650066616CDD
:10331C007365004E614E00652D00496E66696E69DD
:10332C007479006E756C6C0022225C5C6208660C11
:10333C006E0A720D740900646567726565006D69CB
:10334C006E757465007365636F6E6400636172649F
:10335C00696E616C5F706F696E7400576966692085
:10336C006F66666C696E65004C6F636174696F6E35
:10337C00206F66666C696E6500616374696F6E00C0
:10338C00737369640070617373776F72640057496B
:10339C004649204F4B202020202020202020006C4C
:1033AC0061746974756465006C6F6E6769747564BB
:1033BC0065004C4F434154494F4E204F4B20202029
:1033CC00202000414C41524D20434F4E4649475519
:1033DC00524544000D0A00414C41524D204F4E4C79
:1033EC00494E4500434F4E4E454354005345545FA0
:0A33FC004C4F434154494F4E00006E
:00000001FF
