:1000000019C2000048C2000046C2000044C20000FD
:1000100042C2000040C200003EC200003CC20000DC
:100020003AC2000038C2000036C2000034C20000EC
:1000300032C20000C2C400002EC200002CC2000068
:100040002AC2000028C2000026C2000024C200000C
:1000500022C2000020C200001EC200000C943E0E0E
:100060001AC2000006C70000DBC6000014C2000070
:1000700012C2000010C200000EC200000CC200003C
:100080000AC2000008C2000006C2000004C200004C
:100090009EC6000073C60000FEC100000C94DC0A7E
:1000A000FAC10000F8C10000F6C10000F4C1000070
:1000B000F2C10000F0C10000EEC10000ECC1000080
:1000C000EAC10000E8C10000E6C100002EC6000041
:1000D00003C60000E0C10000DEC10000DCC100007A
:1000E000DAC10000300C330C220C260C2C0C6A0CEC
:1000F000370C3B0C410C450C490C4F0C530C570C66
:100100006A0C5D0C610C650C3E3E3E2054494D4529
:100110004F5554203E3E3E00005EBCE2613FDD8311
:10012000C29C7E20A3FD1F419DC3217FFCA2401ED7
:100130005F01E3BD3E6082DC237D9FC1421CFEA0C7
:10014000E1BF5D0380DE3C62BEE0025CDF81633DB7
:100150007C22C09E1D43A1FF4618FAA427799BC5A7
:1001600084DA3866E5BB5907DB856739BAE4065897
:100170001947A5FB7826C49A653BD987045AB8E687
:10018000A7F91B45C6987A24F8A6441A99C7257B77
:100190003A6486D85B05E7B98CD2306EEDB3510F67
:1001A0004E10F2AC2F7193CD114FADF3702ECC9257
:1001B000D38D6F31B2EC0E50AFF1134DCE90722C47
:1001C0006D33D18F0C52B0EE326C8ED0530DEFB137
:1001D000F0AE4C1291CF2D73CA947628ABF5174927
:1001E0000856B4EA6937D58B5709EBB536688AD417
:1001F00095CB2977F4AA4816E9B7550B88D6346A07
:100200002B7597C94A14F6A8742AC896154BA9F7F6
:10021000B6E80A54D7896B3502456E64207461676D
:10022000206E6F7420666F756E64004E6F2074616F
:100230006720666F756E64000D0A0053444B20768C
:10024000657273696F6E3A0041542B474D520041FD
:10025000542B4357444843503D312C310041542BDB
:1002600043574155544F434F4E4E3D300041542B60
:1002700043495044494E464F3D310041542B434978
:10028000504D55583D310041542B43574D4F444537
:100290003D3100415445300041542B5253540049E4
:1002A0006E6974696C697A6174696F6E20737563C5
:1002B0006365737366756C202D005761726E696E8D
:1002C000673A20556E737570706F7274656420663E
:1002D00069726D776172650043616E6E6F7420693B
:1002E0006E697469616C697A6520455350206D6F41
:1002F00064756C6500415400496E697469616C698C
:100300007A696E6720455350206D6F64756C650087
:1003100000002100240027002A002D0030003300B7
:1003200001010000040107010A010000220025006C
:1003300028002B002E0031003400020100000501CE
:1003400008010B01000020002300260029002C00DA
:100350002F0032000001000003010601090105051C
:100360000505070508080808020202020A0A08082B
:100370000404040401010101010101010303030359
:1003800003030303040707070C0C0C0C0C0C0C0CE8
:100390000202020206060606060606060B0B0B0BF9
:1003A0000B0B0B0B0102102020080810204010201E
:1003B0004080020102010804020101020408102029
:1003C0004080804020100804020180040201804027
:1003D0002010080402010804020101020408102090
:1003E0004080010204081020408000000A0B02092E
:1003F0000C0D0E08070304010000000000000000BF
:1004000000000000000000000000000000000000EC
:1004100000000000000012111000000000000000A9
:1004200000000000000000000000000000000000CC
:10043000EC13E21311241FBECFEFD1E2DEBFCDBF1C
:1004400000E00CBF26E0A0E9B3E001C01D92A8398E
:10045000B207E1F713E0A0E0B2E0E8ECF2E300E07D
:100460000BBF02C007900D92A039B107D9F712E077
:10047000C9E1D2E000E006C021970109802FFE010A
:100480000E94FC16C831D10780E00807A9F70E9436
:10049000880E0C945319B4CDCF92DF92EF92FF9255
:1004A0000F931F93CF93DF936C017A018B01C0E010
:1004B000D0E0CE15DF0589F0D8016D918D01D60110
:1004C000ED91FC910190F081E02DC6011995892BE9
:1004D00011F47E0102C02196ECCFC701DF91CF91CC
:1004E0001F910F91FF90EF90DF90CF900895FC0146
:1004F000A089B1898C91A689B78982FD0FC09C9192
:10050000818D8F5F8F73228D821749F0218DDF01DE
:10051000A20FB11D5D969C93818F08958C910895D3
:10052000FC01538D448D252F30E0842F90E0821BF9
:10053000930B541710F0CF96089501970895FC017E
:10054000918D828D981761F0828DDF01A80FB11D0A
:100550005D968C91928D9F5F9F73928F90E008952E
:100560008FEF9FEF0895FC01918D828D981731F0E8
:10057000828DE80FF11D858D90E008958FEF9FEF3C
:100580000895FC01918D228D892F90E0805C9F4F12
:10059000821B91098F739927089588E594E0F1DF14
:1005A00021E0892B09F420E0822F089585EF94E063
:1005B000E8DF21E0892B09F420E0822F089582E909
:1005C00095E0DFDF21E0892B09F420E0822F0895F8
:1005D000FC01848DDF01A80FB11DA35ABF4F2C91E0
:1005E000848D90E001968F739927848FA689B789AF
:1005F0002C93A089B1898C9180648C93938D848D88
:10060000981306C00288F389E02D80818F7D808356
:100610000895EF92FF920F931F93CF93DF93EC0116
:1006200081E0888F9B8D8C8D981305C0E889F989AE
:10063000808185FD23C0F62E0B8D10E00F5F1F4FCC
:100640000F731127E02E8C8DE8120BC00FB607FC3C
:10065000FACFE889F989808185FFF5CFCE01B8DF2F
:10066000F2CF8B8DFE01E80FF11DE35AFF4FF082B0
:100670000B8FEA89FB898081806207C0EE89FF8940
:100680006083E889F98980818064808381E090E0DB
:10069000DF91CF911F910F91FF90EF900895CF932D
:1006A000DF93EC01888D8823C1F0EA89FB89808182
:1006B00085FD05C0A889B9898C9186FD0EC00FB64D
:1006C00007FCF5CF808185FFF2CFA889B9898C918D
:1006D00085FFEDCFCE017CDFE8CFDF91CF9108958C
:1006E00080E090E0892B19F06ADF81111BC080E067
:1006F00090E0892B19F05ADF811117C080E090E05B
:10070000892B19F04ADF811113C080E090E0892B1A
:10071000A1F080E090E0892B81F00E94000081111F
:100720000AC008950E940000E2CF0E940000E6CFB8
:100730000E940000EACF0C94000008950895FC0187
:1007400090810180F281E02D892F809560FF12C099
:10075000F8942281822382838181892B8183A3E281
:10076000B0E01197F1F78281982B9283789487ED0E
:1007700090E011C0F8942281822382838181892BA9
:100780008183AFEFB0E01197F1F78281982B9283CC
:1007900078948FE090E00197F1F70895089581E053
:1007A00090E03091430420914204321710F480E02D
:1007B00090E09195819591090895809143049091DD
:1007C0004204891730F48F5F8093430480E090E007
:1007D00008958FEF9FEF08958091420490E020915B
:1007E0004304821B91090895089580E090E00895E4
:1007F00085ED8093BC008091BC0084FDFCCF1092FD
:100800003F0408954091CB03262F30E0240F311D83
:1008100021323105DCF420913F042430C9F4FC017D
:1008200080E090E0861758F43091CB032191DC01F1
:10083000A755BC4FA30FB11D2C930196F3CF809108
:10084000CB03680F6093CB0380E0089581E00895A7
:1008500082E00895CF92DF92EF92FF920F931F9361
:10086000CF93DF937C01262F972F8A018091140468
:10087000882391F0C62FD72F6E01C40ED51ECC153C
:10088000DD0569F06991D701ED91FC910190F0814E
:10089000E02DC7011995F3CF642F822FB3DFC80174
:1008A000DF91CF911F910F91FF90EF90DF90CF904C
:1008B0000895CF93DF931F92CDB7DEB76983209160
:1008C00014042223D1F020914004203240F021E092
:1008D00030E0FC013383228380E090E014C08091FB
:1008E0004104E82FF0E0EB5EFB4F998190838F5F2E
:1008F000809341048093400404C061E0CE010196DE
:1009000081DF81E090E00F90DF91CF9108950E9408
:1009100029190C94AD170C94AD170C94AD170C94C9
:10092000AD170C94AD170C94AD170C94AD170C9437
:10093000AD170C94AD170C94AD17EF92FF920F9377
:100940001F93CF93DF93EC017B018A01888199810A
:10095000009729F02A813B8124173507F8F4B80164
:100960006F5F7F4F0E944518009759F099838883E5
:100970001B830A832C813D81232B81F4FC0110828F
:100980000DC088819981009711F00E94AD171982DE
:1009900018821D821C821B821A8207C01D830C8351
:1009A000B701888199810E943D19CE01DF91CF91D5
:1009B0001F910F91FF90EF9008951F920F920FB625
:1009C0000F9211240BB60F922F933F934F935F9387
:1009D0006F937F938F939F93AF93BF93EF93FF9307
:1009E0008091390490913A04A0913B04B0913C0469
:1009F000892B8A2B8B2B59F180913804E091360496
:100A0000F0913704908189278083809139049091F7
:100A10003A04A0913B04B0913C04181619061A063A
:100A20001B060CF056C08091390490913A04A091B5
:100A30003B04B0913C040197A109B10980933904AA
:100A400090933A04A0933B04B0933C0442C080913D
:100A50000002E8E1F2E0E4919FEF90930002E230BF
:100A6000C9F050F4EE2399F0E13081F590916F00D8
:100A70009D7F90936F002AC0E43019F1E0F0E530DB
:100A800029F5909173009D7F909373001FC0109281
:100A90006E001CC0909170009D7F9093700091E05B
:100AA0009093B0009091B100987F94609093B100C2
:100AB0001092B3000BC0909171009D7F90937100D4
:100AC00005C0909172009D7F9093720060E00E943B
:100AD000760DFF91EF91BF91AF919F918F917F9193
:100AE0006F915F914F913F912F910F900BBE0F909F
:100AF0000FBE0F901F901895DC01ED91FC910190B5
:100B0000F081E02D1994EF92FF920F931F93CF93F2
:100B1000DF938C017B01C0E0D0E0F701EC0FFD1FFB
:100B20006491662361F0D801ED91FC910190F08110
:100B3000E02DC8011995892B11F02196EECFCE0139
:100B4000DF91CF911F910F91FF90EF900895611564
:100B5000710579F0FB0101900020E9F73197AF01B1
:100B6000461B570BDC01ED91FC910280F381E02DD7
:100B7000199480E090E008954F925F926F927F9277
:100B8000EF92FF920F931F93CF93DF93CDB7DEB712
:100B9000A1970FB6F894DEBF0FBECDBF7C01FA015E
:100BA000CB0119A2223008F42AE08E010F5D1F4FFD
:100BB000422E512C612C712CBF01A30192010E9485
:100BC0002E16F901CA01015011096A3014F4605D52
:100BD00001C0695CD8016C93232B242B252B61F772
:100BE000B801C701B4DFA1960FB6F894DEBF0FBEFF
:100BF000CDBFDF91CF911F910F91FF90EF907F902C
:100C00006F905F904F9008958F929F92AF92BF9296
:100C1000CF92DF92EF92FF920F931F93CF93DF93C8
:100C20007C018B016C0182E0C80ED11C4701E5E01C
:100C30008E0E911CC0E0D0E0F60141916F0150E0B2
:100C400060E070E02AE0C80197DF5C016EE2C80155
:100C500053DF8A0D9B1DC80FD91FC814D90461F733
:100C6000F701458150E060E070E02AE0C80184DFD0
:100C70008C0F9D1FDF91CF911F910F91FF90EF90EF
:100C8000DF90CF90BF90AF909F908F9008950F937B
:100C90001F93CF93DF93EC0136DF8C0160EC72E0A1
:100CA000CE0155DF800F911FDF91CF911F910F91E2
:100CB00008950F931F93CF93DF93EC0148DF8C01CE
:100CC00060EC72E0CE0143DF800F911FDF91CF9186
:100CD0001F910F9108953BCF1F920F920FB60F9265
:100CE00011240BB60F922F933F934F935F936F9303
:100CF0007F938F939F93AF93BF93EF93FF9388E579
:100D000094E066DCFF91EF91BF91AF919F918F913D
:100D10007F916F915F914F913F912F910F900BBEFB
:100D20000F900FBE0F901F9018951F920F920FB645
:100D30000F9211240BB60F922F933F934F935F9313
:100D40006F937F938F939F93AF93BF93EF93FF9393
:100D500088E594E0CCDBFF91EF91BF91AF919F913B
:100D60008F917F916F915F914F913F912F910F9054
:100D70000BBE0F900FBE0F901F9018951F920F92F1
:100D80000FB60F9211240BB60F922F933F934F93F0
:100D90005F936F937F938F939F93AF93BF93EF93E3
:100DA000FF9385EF94E014DCFF91EF91BF91AF9139
:100DB0009F918F917F916F915F914F913F912F9173
:100DC0000F900BBE0F900FBE0F901F9018951F92A3
:100DD0000F920FB60F9211240BB60F922F933F93E1
:100DE0004F935F936F937F938F939F93AF93BF9333
:100DF000EF93FF9385EF94E07ADBFF91EF91BF9142
:100E0000AF919F918F917F916F915F914F913F91A2
:100E10002F910F900BBE0F900FBE0F901F90189543
:100E20001F920F920FB60F9211240BB60F922F93B1
:100E30003F934F935F936F937F938F939F93AF9362
:100E4000BF93EF93FF9382E995E0C2DBFF91EF91AF
:100E5000BF91AF919F918F917F916F915F914F91D2
:100E60003F912F910F900BBE0F900FBE0F901F90D0
:100E700018951F920F920FB60F9211240BB60F9276
:100E80002F933F934F935F936F937F938F939F9392
:100E9000AF93BF93EF93FF9382E995E028DBFF9137
:100EA000EF91BF91AF919F918F917F916F915F91E2
:100EB0004F913F912F910F900BBE0F900FBE0F904F
:100EC0001F901895089508950895CF93FC01C4814B
:100ED00021E020931404C093350410924104109231
:100EE00040048385682B8FE296E0E3DC8091400428
:100EF000813208F046C090913F049111FCCF92E0FE
:100F000090933F0491E090933E049FEF90931304DD
:100F10001092120480931104A5E1B4E021EF33E0B4
:100F2000F9019E2F921B981718F49D919193F9CF78
:100F30001092F0038091F003CC0FC82BC093F00304
:100F400080913D04813061F410923D048091F00362
:100F50008093BB008091BC0083FDF8CF85EC01C07D
:100F600085EE8093BC0080913F048230E1F3809154
:100F700013048F3F31F080911304803211F080917F
:100F80001304109241041092400410921404CF9163
:100F900008950F931F93CF938C01C62F96DF6C2F6C
:100FA0006460C80192DF6C2F6B7FC8018EDF83EC19
:100FB00090E00197F1F7CF911F910F9108950F9352
:100FC0001F93CF93DF938C01D62FC42F607F642BA8
:100FD000E0DF6D2F6295607F6C2BC801DF91CF91B0
:100FE0001F910F91D6CF41E0EADF81E090E00895B4
:100FF000DC01E0E0615038F08D91E827F0E0E85E38
:10100000FE4FE491F7CF8E2F0895CF92DF92EF92AB
:10101000FF920F931F93CF93DF931F92CDB7DEB74D
:101020006C01E62E08E010E0FF24F39461E08F2DC0
:101030008E2109F460E0C601498381DBFF0C015079
:10104000110949810115110589F7411115C0F8945D
:10105000D6011196ED91FC91129791818C9180951A
:10106000892381831196ED91FC91129792818C9145
:1010700080958923828378940F90DF91CF911F917F
:101080000F91FF90EF90DF90CF900895CF92DF9275
:10109000EF92FF920F931F93CF93DF931F92CDB7E1
:1010A000DEB78C01F62E40E065E57983AEDFCF2C0C
:1010B0007981D72E760188E0E80EF11CF601619166
:1010C0006F0140E0C801A1DFCE14DF04B9F70F9033
:1010D000DF91CF911F910F91FF90EF90DF90CF9014
:1010E0000895FC0190810180F281E02DF8948181C6
:1010F000892B81832281892F809528232283A7E051
:10110000B0E01197F1F7218182238183A3E2B0E05F
:101110001197F1F780817894EFECF0E03197F1F7D7
:10112000982381E009F480E00895FC01908101801A
:10113000F281E02DF8948181292F209582238183EB
:1011400078948DE743E050E0815021F1DA01119766
:10115000F1F730813923C1F3F894828182238283AD
:101160008181892B81837894ABE7B7E01197F1F700
:10117000F894818128232183A3E1B1E01197F1F74D
:101180008081982381E009F080E07894E3E6F6E03E
:101190003197F1F708956F927F928F929F92AF925D
:1011A000BF92CF92DF92EF92FF920F931F93CF9354
:1011B000DF931F921F92CDB7DEB78C017A01FC013D
:1011C0008581968169837A83B0DF69817A818823FA
:1011D00071F1F8018581968159DF40E06EEBF801ED
:1011E0008581968112DF37015701F9E0AF0EB11CFE
:1011F000F8018580968088E0C82ED12CEE24E394F7
:10120000F12CC4016EDF8111FE28EE0CF1E0CF1A43
:10121000D108B9F7F301F1923F01EA15FB0541F757
:10122000F8018581968181DF91E0813009F090E0BD
:10123000892F0F900F90DF91CF911F910F91FF9009
:10124000EF90DF90CF90BF90AF909F908F907F9066
:101250006F900895CF93DF93CDB7DEB729970FB680
:10126000F894DEBF0FBECDBFFB012081203109F114
:10127000AE014F5F5F4F8FDF882371F068E0CE01D2
:101280000196B6DE9985891307C008C0803458F0EE
:101290008F3569F08F3769F080E00CC08D818F3316
:1012A000A9F78AE007C08F31B9F789E003C08BE066
:1012B00001C08CE029960FB6F894DEBF0FBECDBFFB
:1012C000DF91CF910895AF92BF92CF92DF92EF92CC
:1012D000FF920F931F93CF93DF931F92CDB7DEB78B
:1012E0005C01E62ED72EFC018585811158C0C50111
:1012F0001CDF811105C0F50113861586148667C0B1
:1013000040E060EFC50181DE01E0F12CC12C11E06D
:10131000C501E7DE682FC5016983E3DE69816130BD
:1013200019F48130B9F432C04F2D50E068131BC05E
:10133000F5018385181730F4E40FF51F83818023AE
:1013400049F402C0181731F060E0193058F4F50183
:10135000148708C0F501EF0DF11D8381802B838375
:1013600061E009C0C12EF501E40FF51F9381802FC4
:10137000809589238383C501E2D91F5F000F11F493
:10138000F39401E0F7E0FF1508F0C2CF113438F014
:10139000F501C386C11015C081E0858712C0F50133
:1013A00013861586148680E0D5011396EE2DFD2D4B
:1013B0009501255F3F4F9D919193A217B307D9F7F0
:1013C00006C0F5018381882351F381E0EDCF0F90B2
:1013D000DF91CF911F910F91FF90EF90DF90CF9011
:1013E000BF90AF9008958091560490915704DC010E
:1013F000ED91FC910084F185E02D199518161906E0
:1014000064F48091560490915704DC01ED91FC91B5
:101410000284F385E02D1995E6CF08953F924F920F
:101420005F926F927F928F929F92AF92BF92CF9274
:10143000DF92EF92FF920F931F93CF93DF936C0194
:101440005B01342E80913D0690913E0690934206BA
:10145000809341068FB7F89440908B0650908C068D
:1014600060908D0670908E068FBFCFEFDFEF0D2C52
:10147000000CEE08FF082FB7F89480918B0690912E
:101480008C06A0918D06B0918E062FBF8419950908
:10149000A609B7098C159D05AE05BF0508F05BC010
:1014A000CF3FFFEFDF0709F056C0809156049091BF
:1014B0005704DC01ED91FC910084F185E02D199534
:1014C000892BC9F28091560490915704DC01ED916B
:1014D000FC910284F385E02D1995E0914106F0918D
:1014E0004206808380914106909142060196909336
:1014F00042068093410620913F06309140068217B4
:10150000930740F080913D0690913E0690934206ED
:1015100080934106A114B10431F0C50143D2882360
:1015200011F0C5E0D0E0332009F4A5CF87E0882E84
:1015300082E0982E00E010E0F401819191914F013A
:1015400031D2811106C00F5F1F4F05301105A1F781
:1015500092CFE80190CF2FB7F89480918B069091AD
:101560008C06A0918D06B0918E062FBF8419950927
:10157000A609B7098C159D05AE05BF0550F061EBB6
:1015800072E082E995E0A7DB68E071E082E995E02E
:101590007EDBCE01DF91CF911F910F91FF90EF90F5
:1015A000DF90CF90BF90AF909F908F907F906F9083
:1015B0005F904F903F9008951F920F920FB60F9239
:1015C00011240BB60F922F933F934F935F936F931A
:1015D0007F938F939F93AF93BF93EF93FF938091EC
:1015E000B900887F803609F49CC068F5883209F418
:1015F0005BC090F4803109F454C038F4882309F4B6
:10160000F6C0883009F44DC0F6C0883109F44CC0EA
:10161000803209F45DC0EFC0803409F468C048F43A
:10162000803309F455C0883309F0E5C08093130472
:10163000D8C0803509F44FC0883509F45DC08834BE
:1016400009F0D9C0D6C0883909F4C7C0A8F48837D2
:1016500009F467C038F4883609F463C0803709F4A8
:1016600060C0C9C0883809F4B8C0803909F45FC0C7
:10167000803809F0C0C05BC0803B09F486C038F4F4
:10168000803A09F466C0883A09F47FC0B4C0803C4F
:1016900009F4A7C0883C09F4A4C0883B09F48AC0B7
:1016A000AAC08091F00310C090911204809111049F
:1016B000981770F5E091120481E08E0F8093120468
:1016C000F0E0EF50FC4F80818093BB0085EC86C03A
:1016D000809313048EC0E091120481E08E0F8093FA
:1016E00012048091BB00F0E0EF50FC4F808390919A
:1016F0001204809111046EC0E091120481E08E0FFB
:10170000809312048091BB00F0E0EF50FC4F808387
:1017100080913E0481116DC081E080933D0484EA94
:1017200061C083E080933F041092EF03CFCF80919C
:10173000EF03803208F051C0E091EF0381E08E0F9B
:101740008093EF038091BB00F0E0E153FC4F808376
:10175000BDCF85EC8093BC0010923F048091EF03D5
:10176000803230F4E091EF03F0E0E153FC4F10825F
:101770006091EF0370E0E091CD03F091CE038FEC28
:1017800093E019951092EF0336C084E080933F04F4
:101790001092CC031092CB03E091C903F091CA03DD
:1017A00019958091CB03811105C081E08093CB0313
:1017B0001092A903E091CC0381E08E0F8093CC03BB
:1017C000F0E0E755FC4F80818093BB009091CC0303
:1017D0008091CB03981708F479CF85E88093BC00FB
:1017E0000AC085EC8093BC0010923F0404C01092A4
:1017F00013040E94F803FF91EF91BF91AF919F9165
:101800008F917F916F915F914F913F912F910F90A9
:101810000BBE0F900FBE0F901F901895089508955E
:101820000895089508950895089590E0FC01319772
:10183000E231F10508F04EC08827EE58FF4F8F4F78
:101840000C94FC16809180008F7703C080918000FB
:101850008F7D80938000089580918000877FF9CFED
:1018600084B58F7702C084B58F7D84BD0895809143
:10187000B0008F7703C08091B0008F7D8093B0005F
:101880000895809190008F7707C0809190008F7DA0
:1018900003C080919000877F80939000089580918D
:1018A000A0008F7707C08091A0008F7D03C080913A
:1018B000A000877F8093A0000895809120018F77FA
:1018C00007C0809120018F7D03C080912001877F18
:1018D000809320010895CF92DF92EF92FF920F93B1
:1018E0001F93CF93DF93EC016A017B01E889F989AB
:1018F00082E080834115514E61057105B1F060E0D1
:1019000079E08DE390E0A70196010E942E168901EF
:101910009A0101501109210931093695279517952A
:101920000795980101151041A8F0E889F9891082FE
:1019300060E874E88EE190E0A70196010E942E16FF
:10194000DA01C9010197A109B109B695A795979543
:1019500087959C01EC85FD853083EE85FF8520838E
:10196000188EEC89FD8986E08083EA89FB89808175
:1019700080618083EA89FB89808188608083EA892D
:10198000FB89808180688083EA89FB8980818F7DE3
:101990008083DF91CF911F910F91FF90EF90DF90A7
:1019A000CF900895FC0101900020E9F731979F0145
:1019B000281B390BE0914106F0914206E21BF30B24
:1019C00040913D0650913E06E417F50730F46091D2
:1019D0003B0670913C06E60FF71F280F391F6091F8
:1019E0003F0670914006DC018217930758F4019678
:1019F000BC91A081BA1308C03196E617F70799F792
:101A0000FA01F1CF81E0089580E00895CF93DF934C
:101A1000EC0181E0E8DCBE0180915604909157040E
:101A200036D941E060E070E088EE93E0DF91CF913D
:101A3000F5CCCF92DF92EF92FF92CF93DF936C01C0
:101A4000990FEE08FF08F7FE14C06DE282E995E0F9
:101A500053D8EC0144275527BA014C195D096E098A
:101A60007F092AE082E995E087D87C01EC0EFD1E13
:101A700007C02AE0B701A60182E995E07DD87C0184
:101A800060EC72E082E995E062D88E0D9F1DDF91D7
:101A9000CF91FF90EF90DF90CF900895CF93DF9399
:101AA000282F30E0F901E651FC4F8491F901EC5503
:101AB000FC4FD491F901E25AFC4FC491CC2389F038
:101AC0008111B3DEEC2FF0E0EE0FFF1FEC5BFC4F5B
:101AD000A591B491EC91ED2381E090E021F480E0B8
:101AE00002C080E090E0DF91CF9108951F93CF93E3
:101AF000DF93282F30E0F901E651FC4F8491F90182
:101B0000EC55FC4FD491F901E25AFC4FC491CC231F
:101B1000C1F0162F811189DEEC2FF0E0EE0FFF1FD0
:101B2000E65DFC4FA591B4918FB7F894111105C0F3
:101B30009C91ED2FE095E92302C0EC91ED2BEC9305
:101B40008FBFDF91CF911F910895CF93DF9390E0E6
:101B5000FC01EC55FC4F2491FC01E25AFC4F8491AE
:101B6000882361F190E0880F991FFC01E05FFC4F32
:101B7000C591D491FC01E65DFC4FA591B491611132
:101B800009C09FB7F8948881209582238883EC91BF
:101B90002E230BC0623061F49FB7F8943881822FF6
:101BA000809583238883EC912E2B2C939FBF06C0B6
:101BB0008FB7F894E8812E2B28838FBFDF91CF91C8
:101BC00008958F929F92AF92BF92CF92DF92EF9241
:101BD000FF926B017C012DD04B015C01C114D1043B
:101BE000E104F104E9F025D0DC01CB018819990961
:101BF000AA09BB09883E9340A105B10578F321E00D
:101C0000C21AD108E108F10888EE880E83E0981E18
:101C1000A11CB11CC114D104E104F10421F7DECFF1
:101C2000FF90EF90DF90CF90BF90AF909F908F90FC
:101C300008953FB7F8948091900690919106A091F5
:101C40009206B091930626B5A89B05C02F3F19F0C8
:101C50000196A11DB11D3FBFBA2FA92F982F88272C
:101C6000820F911DA11DB11DBC01CD0142E0660F87
:101C7000771F881F991F4A95D1F708951F920F92D9
:101C80000FB60F9211242F933F938F939F93AF938F
:101C9000BF9380918B0690918C06A0918D06B09198
:101CA0008E0630918F0623E0230F2D3720F4019606
:101CB000A11DB11D05C026E8230F0296A11DB11D6F
:101CC00020938F0680938B0690938C06A0938D06AD
:101CD000B0938E068091900690919106A091920605
:101CE000B09193060196A11DB11D8093900690932B
:101CF0009106A0939206B0939306BF91AF919F91E6
:101D00008F913F912F910F900FBE0F901F901895BC
:101D1000CF93DF93CDB7DEB76C970FB6F894DEBFE5
:101D20000FBECDBF789484B5826084BD84B58160D8
:101D300084BD85B5826085BD85B5816085BD809196
:101D40006E00816080936E0010928100809181000E
:101D50008260809381008091810081608093810006
:101D6000809180008160809380008091B1008460C8
:101D70008093B1008091B00081608093B000809129
:101D800091008260809391008091910081608093A6
:101D90009100809190008160809390008091A100DB
:101DA00082608093A1008091A10081608093A10056
:101DB0008091A00081608093A000809121018260C9
:101DC0008093210180912101816080932101809184
:101DD000200181608093200180917A00846080934B
:101DE0007A0080917A00826080937A0080917A00F4
:101DF000816080937A0080917A00806880937A0075
:101E00001092C10086E090E00E9418176C018DE1ED
:101E100092E0D60111969C938E9380E490E0139605
:101E20009C938E93129789E290E015969C938E93E3
:101E3000149760E08ADE60E080E487DED09253048D
:101E4000C092520486E090E0F3D75C0185E292E014
:101E5000F5019183808381E490E09383828387E21C
:101E600090E09583848360E070DE60E081E46DDE65
:101E7000B0925104A092500484E090E0D9D74C0174
:101E80008DE292E0D4018D939C938EE090E0D0D7C8
:101E90007C0160E086E359DEEAEDF3E0E491D701EE
:101EA000EC93E4E9F3E0E491F0E0EE0FFF1FEC5B6C
:101EB000FC4F85919491F701928381831386158657
:101EC00014863701FBE06F0E711C270143E0440EBE
:101ED000511CF3011292E415F505E1F783E190E05E
:101EE000A7D78C018EE993E0D80152969C938E93EC
:101EF00051971696FC92EE92159714961C92149791
:101F00001C9289E011968C93119781E012968C9324
:101F1000129713968C93F40113830283D3011E92BC
:101F20003D01A415B505D1F77E01BEE0EB0EF11C15
:101F300077247394B701F80185819681C4D98823E9
:101F400009F447C067E0C70153D89D898913F2CFD0
:101F5000F801808181111EC085819681E6D8B70184
:101F6000D80115968D919C91169790D840E064EB1E
:101F7000F8018581968149D8D80115968D919C915B
:101F80001697AFD8682EF80185819681CED8662045
:101F900009F470C1AE014F5F5F4FB701C801FBD8B4
:101FA000D80111966C90B701C80154D9861518F460
:101FB000F801818103C0B701C8014CD9D80111963D
:101FC0008C93119714968C9114978F5F14968C9321
:101FD000B1CF90924F0480924E0488E090E028D7D1
:101FE000FC0185E392E091838083D782C682B5822B
:101FF000A48293828282F0935504E093540440E8D3
:1020000055E260E070E082E995E065DC40E855E289
:1020100060E070E085EF94E05EDC40E052EC61E06F
:1020200070E088E594E057DC198A188A8DE392E025
:102030009F878E8787E28A8B80E18F8B82E0888FF3
:10204000198E84E090E0F4D66C0189E492E0D60128
:1020500011969C938E931396FC92EE921297109287
:1020600043041092420410924104109240041092D2
:102070003F0481E080933E0410923D0461E084E1DE
:1020800035DD61E085E132DD8091B9008E7F80939E
:10209000B9008091B9008D7F8093B90088E4809366
:1020A000B80085E48093BC001B8A888D823010F0D4
:1020B00098E09B8B8E8B8BE39DE00197F1F7698D08
:1020C000C7010E94650768EE73E080E090E079DD6B
:1020D00060E3C7010E94C9070BE416E4C801019739
:1020E000F1F760E3C7010E94C907C8010197F1F742
:1020F00060E3C7010E94C90783E592E00197F1F709
:1021000060E2C7010E94C9076B89606240E0C701B5
:102110000E94DF0784E08C8B40E06CE0C7010E94E6
:10212000DF0740E061E0C7010E94DF070BE31FE12A
:10213000C8010197F1F782E08D8B40E066E0C701AE
:102140000E94DF0740E062E0C7010E94DF07C8018C
:102150000197F1F7F6018281938178E0B72EDC01D7
:102160001B96BC9260E00E946507D0924D04C0921D
:102170004C0440E061E0F601828193810E94DF0718
:10218000F8013197F1F76DEE72E0D60112968D915C
:102190009C9113970E946B06F60122813381E1E145
:1021A000F2E0DE01119601900D92BA94E1F7D901A7
:1021B00018968C91811102C09FEF01C091E0FE0141
:1021C0003196E90FF11DE90FF11D6081606840E073
:1021D000C9010E94DF076AEF72E0F60182819381F4
:1021E0000E946B0684E090E023D68C0181E592E0AA
:1021F000D80111969C938E9382E090E013969C9365
:102200008E93129761E0A1DC10934B0400934A0473
:1022100061EB72E082E995E00E946B0668EF72E084
:1022200082E995E00E94470688E594E09093570480
:102230008093560405E010E085EF92E0E7DB892B00
:10224000E1F068EE73E080E090E0BBDC0150110942
:1022500099F761EB72E082E995E00E946B0668ED08
:1022600072E082E995E00E94470668E873E180E049
:1022700090E0B0C0F80170828DCE88E992E0C6DBB4
:1022800068EB7BE080E090E09CDC80E0ACD883E908
:1022900092E0BCDB87E892E0B9DB68EC70E080E0BC
:1022A00090E08FDC8BE792E0B1DB8DE692E0AEDB75
:1022B0008DE592E0ABDB8FE492E0A8DB68EC70E0A8
:1022C00080E090E07EDC109244046BE372E0CE018B
:1022D0000196A4D36E01FAE1CF0ED11C68E372E03F
:1022E000C6019CD31092440481E07DD868E472E07A
:1022F00080915604909157040E94470641E0BE0128
:102300006F5F7F4F88EE93E089D88530910509F0A3
:10231000DBC180913D0690913E06909342068093EA
:10232000410640913B0650913C064F5F5F4F60E095
:1023300070E09CD741E0B60184EF91E06FD805973B
:1023400009F0B9C1F60101900020E9F73197EC19C5
:10235000FD0960913D0670913E0640914106509105
:102360004206461B570B4E1B5F0B4630510510F0C3
:1023700045E050E084E494E087D741E060E070E01D
:1023800080ED97E04BD80FB6F894DEBF0FBECDBFFF
:1023900080914404815361EB72E0823008F4A4C15F
:1023A00082E995E00E946B066AEB72E082E995E0B3
:1023B0000E9483056AEB72E082E995E00E946B0659
:1023C00064E474E082E995E00E94590660EA7FE0E7
:1023D00080E090E0F6DB0091540410915504D801A0
:1023E0001696ED91FC911797848158DBDD24D394E8
:1023F000019709F0D12CD8011496ED91FC91159715
:1024000084814CDBCC24C394019709F0C12CF801E2
:10241000A280B380D50112968D909C901397F40101
:10242000858196810E94950840E06CECD401159658
:102430008D919C9116970E940508F401408164E4F7
:10244000858196810E940508D40112968C9112977D
:102450008823A1F01196EC91E950E33040F4F0E0CC
:10246000EE0FFF1FEB59FD4F6081718102C06EEED0
:1024700072E0072E000C880B990BA3DBF501A280FC
:10248000B380D5011596ED91FC91169713861586AC
:102490001486DF011B9633961E92AE17BF07E1F735
:1024A000B701F501858196810E946309882341F077
:1024B00067E0C7010E94F8079D89891709F430C1B8
:1024C000812C912C9EEFA92E92ECB92ED801149656
:1024D000ED91FC9115978281863308F08653909197
:1024E0007B00282F2870977F922B90937B0087701A
:1024F000806480937C0080917A00806480937A006D
:1025000080917A0086FDFCCF00917800809179005F
:1025100010E0182B6BE073E082E995E00E946B06F7
:10252000C80187DA60E173E082E995E00E946B06FA
:10253000A5019401C501B40148D4882319F06DE1C7
:1025400073E018C024013501E89477F82FEF3FEFCE
:102550004FE75FE7C301B20138D4811110C02FEFFC
:102560003FEF4FE75FE7C301B2015FD218163CF4BB
:1025700061E273E082E995E00E94A70570C02FEF49
:102580003FEF4FE75FE4C501B4011BD418161CF4FC
:1025900065E273E0EFCF2FEF3FEF4FE75FECC50150
:1025A000B40143D287FDF4CF20E030E0A901C5019A
:1025B000B4013BD287FF09C06DE282E995E00E9439
:1025C0007C05B7FAB094B7F8B0942AE037ED43EA47
:1025D0005BE3C501B40165D32B013C01C6D34B01BC
:1025E0005C0127D29B01AC01C301B20159D32B017D
:1025F0003C012AE0B501A40182E995E00E94BC05F6
:102600006EE282E995E00E947C0520E030E040E245
:1026100051E4C301B2016ED22B013C01A6D34B01A0
:10262000A12CB12C2AE0B501A40182E995E00E9419
:10263000BC05C501B401FDD19B01AC01C301B201D0
:102640002FD320E030E040E251E454D28ED3AB01EE
:1026500060E070E02AE082E995E00E94BC0560EC51
:1026600072E082E995E00E94A70569E273E082E9E1
:1026700095E00E946B068D2D90E0DBD968E373E056
:1026800082E995E00E946B068C2D90E0D2D960EC37
:1026900072E082E995E00E94A70568E473E082E9B0
:1026A00095E00E94590668E873E180E090E089DADD
:1026B0000E94700390CE61EB72E082E995E00E9487
:1026C0006B0669E172E00BC0059708F45CCE61EB24
:1026D00072E082E995E00E946B066BE272E082E9AB
:1026E00095E00E9447064FCE809145048E3209F056
:1026F00057CE82E995E00E946B066FE972E082E9AD
:1027000095E00E9483056AEB72E082E995E00E9401
:102710006B0664E474E082E995E00E9459065BCEA2
:10272000AE014F5F5F4FB701C5010E94CB08882300
:1027300009F445C068E0CE0101960E94F80799852A
:1027400089133DC0698148E0649FB00111248A81EA
:10275000282F30E0322F2227330F330F330F262B51
:10276000372B8E85803149F5688570E08F81AB010C
:10277000481B5109CA019695982F882797958795E8
:1027800028D360517109207F53E0220F331F5A95DF
:10279000E1F7620F731F613854EE75070CF490CEA9
:1027A000072E000C880B990B46D120E030E040E06A
:1027B0005CE3A0D14B015C0189CEB901ECCF60E8AC
:1027C00074EEE9CF8091790690917A06C6D3809114
:1027D0007F0690918006C1C3CF92DF92EF92FF9265
:1027E0000F931F93CF93DF93E3E4F6E0CFEAD2E0B9
:1027F000D183C0831282138214821582E8E5F4E04B
:102800001382128288EEC82E83E0D82EE12CF12CA0
:10281000C482D582E682F78287E792E09183808343
:1028200025ED30E03587248724ED30E03787268793
:1028300020ED30E0318B208B21ED30E0338B228B8B
:1028400022ED30E0358B248B26ED30E0378B268B64
:10285000118E128E138E148EE5EFF4E01382128225
:10286000C482D582E682F782918380832DEC30E0AA
:10287000358724872CEC30E03787268728EC30E03A
:10288000318B208B29EC30E0338B228B2AEC30E02B
:10289000358B248B2EEC30E0378B268B118E128EED
:1028A000138E148EE2E9F5E013821282C482D5827F
:1028B000E682F7829183808385EC90E09587848718
:1028C00084EC90E09787868780EC90E0918B808BFA
:1028D00081EC90E0938B828B82EC90E0958B848BE3
:1028E00086EC90E0978B868B118E128E138E148E51
:1028F000E5E8F6E0D183C083128213821482158248
:10290000EFE7F6E0118210821382128215821482A0
:1029100047E050E06BE773E0CF010E949D04E9E7D8
:10292000F6E01182108213821282158214824CE02A
:1029300050E063E873E0CF010E949D04E9E4F6E013
:10294000D183C0831282138214821582EFE4F6E0F1
:10295000D183C0831282138214821582E5E5F6E0EA
:10296000D183C0831282138214821582EBE5F6E0D4
:10297000D183C0831282138214821582E1E6F6E0CD
:10298000D183C0831282138214821582E3E7F6E0BA
:10299000D183C08312821382148215820BE316E066
:1029A00080E290E0F8019183808381E290E040D260
:1029B000F801938382839C01205E3F4F35832483FB
:1029C0009783868321E2FC0111922A95E9F7EFE2D1
:1029D000F6E013821282C482D582E682F78289E809
:1029E00092E091838083EDE6F6E0D183C08312828A
:1029F000138214821582E7E6F6E087EA92E091837B
:102A000080831382128215821482DF91CF911F91ED
:102A10000F91FF90EF90DF90CF900895FB01DC01C4
:102A200005900D920020E1F7089540D008F481E070
:102A30000895E89409C097FB3EF4909580957095B1
:102A400061957F4F8F4F9F4F9923A9F0F92F96E9FA
:102A5000BB279395F695879577956795B795F1116F
:102A6000F8CFFAF4BB0F11F460FF1BC06F5F7F4F0C
:102A70008F4F9F4F16C0882311F096E911C077231E
:102A800021F09EE8872F762F05C0662371F096E827
:102A9000862F70E060E02AF09A95660F771F881FF6
:102AA000DAF7880F9695879597F90895990F00089A
:102AB000550FAA0BE0E8FEEF16161706E807F90710
:102AC000C0F012161306E407F50798F0621B730BAB
:102AD000840B950B39F40A2661F0232B242B252B2C
:102AE00021F408950A2609F4A140A6958FEF811DCF
:102AF000811D08950BD078C069D028F06ED018F0F1
:102B0000952309F05AC05FC01124A2C07ED0A0F363
:102B1000959FD1F3950F50E0551F629FF001729F72
:102B2000BB27F00DB11D639FAA27F00DB11DAA1F91
:102B3000649F6627B00DA11D661F829F2227B00DDE
:102B4000A11D621F739FB00DA11D621F839FA00D69
:102B5000611D221F749F3327A00D611D231F849FB9
:102B6000600D211D822F762F6A2F11249F57504010
:102B70008AF0E1F088234AF0EE0FFF1FBB1F661FAB
:102B8000771F881F91505040A9F79E3F510570F064
:102B900014C05EC05F3FECF3983EDCF386957795FA
:102BA0006795B795F795E7959F5FC1F7FE2B880F5F
:102BB000911D9695879597F9089597F99F6780E8F5
:102BC00070E060E008959FEF80EC089500240A947F
:102BD0001616170618060906089500240A941216F8
:102BE0001306140605060895092E0394000C11F42B
:102BF000882352F0BB0F40F4BF2B11F460FF04C0D8
:102C00006F5F7F4F8F4F9F4F089557FD9058440F30
:102C1000551F59F05F3F71F04795880F97FB991F3B
:102C200061F09F3F79F087950895121613061406F8
:102C3000551FF2CF4695F1DF08C016161706180685
:102C4000991FF1CF86957105610508940895E89460
:102C5000BB2766277727CB0197F90895A1E21A2EA3
:102C6000AA1BBB1BFD010DC0AA1FBB1FEE1FFF1F30
:102C7000A217B307E407F50720F0A21BB30BE40B80
:102C8000F50B661F771F881F991F1A9469F76095C7
:102C90007095809590959B01AC01BD01CF01089581
:102CA0005058BB27AA270ED09FCF90DF30F095DF7A
:102CB00020F031F49F3F11F41EF485CF0EF4E0951F
:102CC000E7FB7BCFE92FA1DF80F3BA176207730719
:102CD0008407950718F071F49EF5B9CF0EF4E095CE
:102CE0000B2EBA2FA02D0B01B90190010C01CA01C6
:102CF000A0011124FF27591B99F0593F50F4503E71
:102D000068F11A16F040A22F232F342F4427585F62
:102D1000F3CF469537952795A795F0405395C9F77A
:102D20007EF41F16BA0B620B730B840BBAF0915032
:102D3000A1F0FF0FBB1F661F771F881FC2F70EC0D1
:102D4000BA0F621F731F841F48F4879577956795A4
:102D5000B795F7959E3F08F0B3CF9395880F08F08D
:102D60009927EE0F97958795089557DF88F09F571D
:102D700090F0B92F9927B751A0F0D1F0660F771FC7
:102D8000881F991F1AF0BA95C9F712C0B13081F0A7
:102D90005EDFB1E008955BCF672F782F8827B85F9B
:102DA00039F0B93FCCF3869577956795B395D9F708
:102DB0003EF490958095709561957F4F8F4F9F4F12
:102DC000089574DE08F48FEF089570DE880B990B78
:102DD000089597FB072E16F4009406D077FD08D0CF
:102DE00013D007FC05D03EF4909581959F4F089530
:102DF000709561957F4F0895EE0FFF1F881F8BBF61
:102E00000790F691E02D1994AA1BBB1B51E107C056
:102E1000AA1FBB1FA617B70710F0A61BB70B881F6A
:102E2000991F5A95A9F780959095BC01CD010895F9
:102E3000CF93DF938230910510F482E090E0E0912F
:102E40009606F091970620E030E0C0E0D0E03097A1
:102E500011F14081518148175907C0F048175907AF
:102E600061F482819381209719F09B838A832BC020
:102E7000909397068093960626C02115310519F088
:102E80004217530718F49A01BE01DF01EF010280D7
:102E9000F381E02DDCCF2115310509F1281B390B19
:102EA0002430310590F412968D919C911397611501
:102EB000710521F0FB019383828304C090939706F0
:102EC00080939606FD01329644C0FD01E20FF31F88
:102ED00081939193225031092D933C933AC02091D4
:102EE000940630919506232B41F4209103023091F2
:102EF00004023093950620939406209101023091AC
:102F000002022115310541F42DB73EB7409105026B
:102F100050910602241B350BE0919406F091950622
:102F2000E217F307A0F42E1B3F0B2817390778F0A0
:102F3000AC014E5F5F4F2417350748F04E0F5F1FFF
:102F400050939506409394068193919302C0E0E0DC
:102F5000F0E0CF01DF91CF9108950F931F93CF93AE
:102F6000DF93009709F48CC0FC0132971382128220
:102F700000919606109197060115110581F42081A4
:102F80003181820F931F2091940630919506281766
:102F9000390779F5F0939506E093940671C0D8014E
:102FA00040E050E0AE17BF0750F412962D913C91CF
:102FB0001397AD012115310509F1D901F3CF9D0119
:102FC000DA013383228360817181860F971F821714
:102FD000930769F4EC0128813981260F371F2E5F92
:102FE0003F4F318320838A819B8193838283452B4A
:102FF00029F4F0939706E093960642C01396FC934B
:10300000EE931297ED01499159919E01240F351FBE
:10301000E217F30771F480819181840F951F029666
:1030200011969C938E938281938113969C938E9399
:103030001297E0E0F0E0D80112968D919C911397E1
:10304000009719F0F8018C01F6CF8D919C919801B1
:103050002E5F3F4F820F931F20919406309195066B
:103060002817390769F4309729F4109297061092BF
:10307000960602C01382128210939506009394065E
:10308000DF91CF911F910F9108956F927F928F9250
:103090009F92AF92BF92CF92DF92EF92FF920F93E7
:1030A0001F93CF93DF93EC01009781F4CB01DF9165
:1030B000CF911F910F91FF90EF90DF90CF90BF9035
:1030C000AF909F908F907F906F90B2CEFC01E60FF3
:1030D000F71F9C0122503109E217F30708F4A8C03A
:1030E000D9010D911C91119706171707A8F005300B
:1030F000110508F49BC0C80104978617970708F4C8
:1031000095C002501109061B170B019311936D9383
:103110007C93CF0122DF8AC05B01A01AB10A4C0167
:10312000800E911EA0919606B091970640E050E067
:10313000E12CF12C109709F44AC0A815B905D1F576
:103140006D907C901197630182E0C80ED11CCA1467
:10315000DB0480F1A3014A195B096A0182E0C80E11
:10316000D11C1296BC9012971396AC91B5E0CB1679
:10317000D10440F0B282A38351834083D9016D937F
:103180007C930AC00E5F1F4FC301800F911FF9018E
:1031900091838083EB2DFA2FE114F10431F0D701F4
:1031A0001396FC93EE93129741C0F0939706E09329
:1031B00096063CC08D919C9111974817590708F4C9
:1031C000AC017D0112960D90BC91A02DB3CF8091E2
:1031D00094069091950688159905E1F446175707CE
:1031E000C8F48091010290910202009741F48DB7DA
:1031F0009EB74091050250910602841B950BE8177B
:10320000F907B0F4F0939506E0939406F901718301
:1032100060830CC0CB010CDE7C01009749F0A80153
:10322000BE011BD0CE0199DEC70104C0CE0102C091
:1032300080E090E0DF91CF911F910F91FF90EF9090
:10324000DF90CF90BF90AF909F908F907F906F90C6
:10325000089581E090E0F89426C0FB01DC0102C0F3
:1032600001900D9241505040D8F70895DC0101C003
:103270006D9341505040E0F70895FB01DC0101904F
:103280000D920020E1F70895FB01DC014150504010
:1032900048F001900D920020C9F701C01D924150E5
:1032A0005040E0F7089512E0C9E1D2E000E005C027
:1032B000802FFE01A1DD2196011DCA31D10780E0DA
:0832C0000807B1F7F894FFCFF5
:1032C800FF000098068000BC02C302CD02D602E2CD
:1032D80002000040001400540000000000100C938D
:1032E80004000000000F0C9104000000000E0C897F
:1032F8000400000000120C970400000000F3074CC3
:1033080002F503F40300000000110C95040000000E
:1033180000140C9B040000000062078B04000000EE
:103328000064078F045E00BC0077010000000013F2
:103338000C99040000000009034C0290024F03C1DD
:10334800029F02B3020000000059042A04F503CECC
:1033580003EC03DD03CF030000000087044C02F5F3
:1033680003F4030000000063078D0400000000045C
:10337800065B576946694573705D20000D0A4F4B1F
:103388000D0A000D0A4552524F520D0A000D0A4609
:1033980041494C0D0A000D0A53454E44204F4B0D30
:1033A8000A0020434F4E4E4543540D0A00576966A4
:1033B80069206F66666C696E65004C6F636174693D
:1033C8006F6E206F66666C696E65006761733A00A0
:1033D80074656D70657261747572653A006E616EC0
:1033E80000696E66006F76660066697265206465BE
:1033F8007465637465643A00736D6F6B652064650A
:103408007465637465643A002A2A2A2A2A2A2A2AB1
:103418002A2A2A2A2A2A2A2A2A2A2A2A2A2A2A2A04
:103428002A2A2A2A2A2A2A2A2A2A2A2A2A2A2A2AF4
:103438002A2A2A2A2A2A2A2A2A2A00434F4E4E456D
:103448004354005345545F4C4F434154494F4E0039
:00000001FF
