:10000000E9C2000018C3000016C3000014C30000BA
:1000100012C3000010C300000EC300000CC3000098
:100020000AC3000008C3000006C3000004C30000A8
:1000300002C300000C940718FEC20000FCC20000BE
:10004000FAC20000F8C20000F6C20000F4C20000CC
:10005000F2C20000F0C20000EEC200000C94FE2AC2
:10006000EAC200000C94C21A0C94991AE4C200006F
:10007000E2C20000E0C20000DEC20000DCC20000FC
:10008000DAC20000D8C20000D6C20000D4C200000C
:100090000C94701A0C94471ACEC200000C94E7120C
:1000A000CAC20000C8C20000C6C20000C4C200002C
:1000B000C2C20000C0C20000BEC20000BCC200003C
:1000C000BAC20000B8C20000B6C200000C941E1AEA
:1000D0000C94F519B0C20000AEC20000ACC2000022
:1000E000AAC200008F0689069F069706940663063B
:1000F00083062A06DD28E028CF28D328D928172907
:10010000E428E828EE28F228F628FC28002904290B
:1001100017290A290E2912294E414E494E49545990
:10012000494E46CDCCCC3D0AD7233C17B7D13877C2
:10013000CC2B329595E6241FB14F0A0000204100D8
:1001400000C84200401C4620BCBE4CCA1B0E5AAE22
:10015000C59D740D0A0053444B2076657273696F18
:100160006E3A0041542B474D520041542B435744A3
:100170004843503D312C310041542B435741555495
:100180004F434F4E4E3D300041542B43495044495C
:100190004E464F3D310041542B4349504D55583D3B
:1001A000310041542B43574D4F44453D310041549C
:1001B00045300041542B52535400496E6974696CA8
:1001C000697A6174696F6E207375636365737366B2
:1001D000756C202D005761726E696E673A20556EFE
:1001E000737570706F72746564206669726D776183
:1001F00072650043616E6E6F7420696E6974696127
:100200006C697A6520455350206D6F64756C65008C
:10021000415400496E697469616C697A696E67203E
:10022000455350206D6F64756C65000D0A00535482
:10023000415455533A0041542B434950535441546F
:10024000555300456E6420746167206E6F7420669C
:100250006F756E64004E6F2074616720666F756EF7
:1002600064003E3E3E2054494D454F5554203E3E8D
:100270003E0025642E25642E25642E2564004461ED
:100280007461207061636B65742073656E642065B2
:1002900072726F722028322900446174612070618B
:1002A000636B65742073656E64206572726F722073
:1002B0002831290041542B43495053454E443D2594
:1002C000642C2575004661696C656420746F207725
:1002D0007269746520746F20736F636B65740002BC
:1002E00041542B434950434C4F53453D25640044F2
:1002F0006973636F6E6E656374696E672000415445
:100300002B434950535441545553002B43495053A8
:1003100054415455533A25642C00005EBCE2613FC1
:10032000DD83C29C7E20A3FD1F419DC3217FFCA2D3
:10033000401E5F01E3BD3E6082DC237D9FC1421C05
:10034000FEA0E1BF5D0380DE3C62BEE0025CDF81B7
:10035000633D7C22C09E1D43A1FF4618FAA4277965
:100360009BC584DA3866E5BB5907DB856739BAE493
:1003700006581947A5FB7826C49A653BD987045AC5
:10038000B8E6A7F91B45C6987A24F8A6441A99C777
:10039000257B3A6486D85B05E7B98CD2306EEDB325
:1003A000510F4E10F2AC2F7193CD114FADF3702E53
:1003B000CC92D38D6F31B2EC0E50AFF1134DCE9085
:1003C000722C6D33D18F0C52B0EE326C8ED0530D37
:1003D000EFB1F0AE4C1291CF2D73CA947628ABF5E5
:1003E00017490856B4EA6937D58B5709EBB5366813
:1003F0008AD495CB2977F4AA4816E9B7550B88D645
:10040000346A2B7597C94A14F6A8742AC896154BF6
:10041000A9F7B6E80A54D7896B35436F6E6E6563EA
:1004200074656420746F004661696C656420636F55
:100430006E6E656374696E6720746F0041542B4360
:10044000574A41505F4355523D222573222C2225A5
:100450007322004E6F20736F636B65742061766149
:10046000696C61626C650041542B4349505354419F
:1004700052543D25642C22544350222C22257322B1
:100480002C257500436F6E6E656374696E6720740A
:100490006F0000002100240027002A002D003000FA
:1004A000330001010000040107010A0100002200DD
:1004B000250028002B002E0031003400020100002E
:1004C000050108010B01000020002300260029007F
:1004D0002C002F0032000001000003010601090179
:1004E00005050505070508080808020202020A0AB0
:1004F00008080404040401010101010101010303CE
:10050000030303030303040707070C0C0C0C0C0C78
:100510000C0C0202020206060606060606060B0B75
:100520000B0B0B0B0B0B01021020200808102040B6
:1005300010204080020102010804020101020408A7
:100540001020408080402010080402018004020135
:10055000804020100804020108040201010204087E
:1005600010204080010204081020408000000A0B87
:1005700002090C0D0E080703040100000000000032
:10058000000000000000000000000000000000006B
:100590000000000000000000121110000000000028
:1005A000000000000000000000000000000000004B
:1005B000000054494D454F55543A0054616720435B
:1005C0004C4F534544206E6F7420666F756E640007
:1005D0006F32573211241FBECFEFD1E2DEBFCDBF45
:1005E00000E00CBF2AE0ACECB6E001C01D92A732DF
:1005F000B207E1F716E0A0E0B2E0E6E2FBE700E0D8
:100600000BBF02C007900D92AC3CB107D9F712E0C6
:10061000C9EED2E000E006C021970109802FFE015B
:100620000E94E13AC83ED10780E00807A9F70E947E
:10063000482B0C94823DE4CCFC0126813781620F6B
:10064000731F848195818617970738F08281938183
:1006500077836683820F931F089580E090E008956A
:10066000DB01109749F0ED91FC9111970190F08119
:10067000E02DBC01CD01199480E090E008950C9428
:10068000983B0C94983B0C94983B0C94983B0C949E
:10069000983B0C94983B0C94983B0C94983B0C948E
:1006A000983B0C94983BCF93DF93EC01E881F98160
:1006B000808191810E9408178A819B8101969B838A
:1006C0008A83DF91CF910895EF92FF920F931F934A
:1006D000CF93DF93EC01E880F980D7018D919C9155
:1006E000FC01048115816115710551F0FB01019038
:1006F0000020E9F73197AF01461B570B0E94DB162C
:10070000D701ED91FC91848195812A813B81280F4D
:10071000391F201B310B3B832A83DF91CF911F911F
:100720000F91FF90EF9008950F931F93CF93DF9356
:10073000CDB7DEB766970FB6F894DEBF0FBECDBF5C
:100740008C01CB011E8AFE0176962AE030E0B901C9
:100750000E94B23A90E3980F9293CB010097B9F7B9
:10076000BF01C801B1DF66960FB6F894DEBF0FBEB9
:10077000CDBFDF91CF911F910F9108958F929F92DE
:10078000AF92BF92EF92FF920F931F93CF93DF939D
:10079000CDB7DEB766970FB6F894DEBF0FBECDBFFC
:1007A0007C011E8A8E010A5E1F4F8AE0882E912CE2
:1007B000A12CB12CCB01BA01A50194010E94D93919
:1007C000942F852F605DF80162938F01A901692F35
:1007D000782F411551056105710561F7BF01C7010A
:1007E00073DF66960FB6F894DEBF0FBECDBFDF9104
:1007F000CF911F910F91FF90EF90BF90AF909F907E
:100800008F900895FF920F931F93CF93DF936115FD
:10081000710541F46FEB74E0DF91CF911F910F915F
:10082000FF9052CF8B01EC0162E2CE013CDFF80178
:1008300061918F01662351F0E0EBF4E0F080FF203E
:10084000A1F39181961751F03296F8CF62E2CE0172
:10085000DF91CF911F910F91FF9025CF6CE5CE01D5
:1008600022DF6F2DE2CFEF92FF921F93CF93DF93A2
:1008700000D000D0CDB7DEB77C01DC0114968D919D
:100880009C9115979A8389831C821B821E821D82EC
:10089000C70102960E946D14D7011296ED91FC914A
:1008A00013971081173239F1123229F180ED810F3F
:1008B0008A3078F081EA810F8C3158F08FEB810F0C
:1008C0008A3138F01B3229F083ED810F823008F035
:1008D00044C0F70182819381019693838283612FC3
:1008E000CE0101960E941814D7011296ED91FC9149
:1008F00013971081DBCF3196D7011396FC93EE93BB
:100900001297D7011296ED91FC911397608166239F
:1009100021F1CF01019613969C938E931297611744
:10092000E1F06C35A9F46181A4EBB4E08C918823EB
:1009300039F0861303C011966C9102C01296F6CF5F
:10094000662359F03296D7011396FC93EE931297D3
:10095000CE0101960E941814D4CF60E0CE0101961A
:100960000E9418148B819C8126960FB6F894DEBFE6
:100970000FBECDBFDF91CF911F91FF90EF900895F3
:100980000895089508950895CF93DF93EC0164ECE2
:1009900074E084EF98E00E94D419EA81FB8182819F
:1009A00093810E940D28EA81FB81848195810E94B8
:1009B0000D288A819B8106960E9424278A819B812B
:1009C0000C96DF91CF910C942427089508950895F3
:1009D000CF93DF93EC01688179818AE090E040DE7B
:1009E000009729F0FC011182108215821482EA819D
:1009F000FB81309751F0208131812115310511F0B3
:100A0000F901F9CF9183808302C09B838A83DF91B0
:100A1000CF910895CF92DF92EF92FF920F931F93A1
:100A2000CF93DF93DA012D913C91232B01F18A01C1
:100A3000EB01FA01E480F580FFEFEF1AFF0ADC0119
:100A4000ED91FC910190F081E02DB70119956C01B9
:100A50000097C9F0F80160817181A7010E94183DDB
:100A600082E090E099838883DB82CA820AC082E0B8
:100A700090E0DB0111969C938E9313961C921E922C
:100A8000129781E001C080E0DF91CF911F910F911B
:100A9000FF90EF90DF90CF900895CF93DF93EC011C
:100AA0006881798188E090E0DBDD009729F0FC0126
:100AB0001182108213821282EA81FB81309751F0F9
:100AC000208131812115310511F0F901F9CF918390
:100AD000808302C09B838A83DF91CF9108950F9317
:100AE0001F93CF93DF93EC018B01D7DF009759F071
:100AF000BC016E5F7F4FA80188819981DF91CF9102
:100B00001F910F9187CF80E0DF91CF911F910F91BF
:100B100008950895CF93DF93EC01BC0184E090E049
:100B20009FDDFC01009729F0D183C08313821282DC
:100B300011C080910B0A81110BC01092080A10920B
:100B4000070A10920A0A1092090A81E080930B0AA0
:100B500087E09AE0DF91CF91089580911507811188
:100B60000BC01092120710921107109214071092E6
:100B7000130781E08093150781E197E00895CF93F3
:100B8000DF93EC01BC0184E090E06ADD009741F066
:100B9000FC01D183C08313821282DF91CF9108952B
:100BA000DF91CF91DACF0F931F93CF93DF938C0117
:100BB000EB016BE7CE0177DDF801028113810115AE
:100BC000110591F0F80162817381CE011BDE6AE3A9
:100BD000CE0169DDBE01C801049611D0F801008183
:100BE00011810115110539F46DE7CE01DF91CF9127
:100BF0001F910F9158CD6CE2CE0155DDE0CF2F92C1
:100C00003F924F925F926F927F928F929F92AF929C
:100C1000BF92CF92DF92EF92FF920F931F93CF93E9
:100C2000DF93CDB7DEB766970FB6F894DEBF0FBE81
:100C3000CDBFDC01ED91FC9111973197E830F105C2
:100C400008F0F5C11B018C018827EE58FF4F8F4F2C
:100C50000C94E13AFD01C280D380E480F580A701C5
:100C60009601C701B6010E94C038882319F067EECB
:100C700074E073C020E030E0A901C701B6010E9412
:100C8000C03887FF07C06DE2C1010DDDF7FAF094AF
:100C9000F7F8F09420E030E0A901C701B6010E9406
:100CA000C038882309F45CC0A7019601C701B601CA
:100CB0000E94153AA70196010E94C038811150C0C8
:100CC0006EEE74E04AC0FD01028113816BE5C10143
:100CD000EADCD80112960D911C91139701151105AC
:100CE00051F0B101C80102968ADFF801008111813B
:100CF0000115110521F46DE5C101D5DC98C16CE247
:100D0000C101D1DCEBCF12968D919C9113974BDFF3
:100D10008EC1FD0162817381C10174DD88C11296AB
:100D20006D917C91139719C06DE2C101BCDCF80193
:100D30004281538164817581C10120DD78C1FD014B
:100D400082819381A481B581892B8A2B8B2B19F405
:100D500061EE74E002C06CED74E0C101B5DC67C106
:100D600020E836E948E15BE4C701B6010E94AA3AEF
:100D700087FD56C1A12CB12C00E210E01A8A198A15
:100D8000F501E754FD4F2489358946895789C70104
:100D9000B6010E94AA3A87FD13C0F501EF55FD4F39
:100DA0002489358946895789C701B6010E942539AA
:100DB0006B017C0189899A89800F911F9A8B898B9D
:100DC0001595079594E0A91AB108A8EEAA16AFEFF9
:100DD000BA06B1F699249A9420E030E0A901C7013F
:100DE000B6010E94AA3A1816B4F52CEA35EC47E28F
:100DF00057E3C701B6010E94C038181664F19FEF8F
:100E0000991649F1B92DE4E0BE0250011124F50113
:100E1000E757FD4F2081318142815381C701B601DF
:100E20000E94C03887FF13C0F501E754FD4F2081B1
:100E3000318142815381C701B6010E9425396B017E
:100E40007C0189899A89801B910B9A8B898B1595D6
:100E500007959A94D4CFC701B6010E947E3A4B0100
:100E60005C012B013C0106E080E492E4AFE0B0E0DD
:100E70008B8B9C8BAD8BBE8B102F0FEF010F9AE0ED
:100E80004916510461047104C8F06B897C898D890D
:100E90009E892AE030E040E050E00E94D9392B8B57
:100EA0003C8B4D8B5E8BC301B2012AE030E040E009
:100EB00050E00E94D93929013A01DECFC501B401C1
:100EC0000E94C4389B01AC01C701B6010E94143ACC
:100ED0006B017C016B897C898D899E890E94C43855
:100EE0009B01AC01C701B6010E9425392B013C01D1
:100EF0000E947E3A6B017C010E94C4389B01AC01C8
:100F0000C301B2010E94143A9B01AC010E94153A40
:100F10000E947E3AC60ED71EE81EF91E8B899C8958
:100F2000AD89BE89C816D906EA06FB06F8F09FEF20
:100F3000891A990AA90AB90AA989BA89AB2B99F021
:100F4000BAE08B169104A104B10468F0E989FA892A
:100F50003196FA8BE98BC12CD12C7601812C912C06
:100F60005401839403C0C12CD12C76012AE0422E77
:100F7000512C612C712CC701B601A30192010E9472
:100F8000D939672B682B692B99F0012FB501A40182
:100F9000C101F4DB112351F1188A4E01F0E18F0EEB
:100FA000911C54019AE0492E512C612C712C06C0E1
:100FB00011165CF769017A011150DDCF015068F01C
:100FC000C701B601A30192010E94D939605DD40125
:100FD0006E934D0169017A01F1CFB501611B710971
:100FE0008EE2FB018293BF01C1016EDB89899A8980
:100FF00097FF0AC06BEE74E0C10166DB69897A89EC
:1010000071956195710909C0A989BA89AB2B79F0ED
:1010100065E6C10148DB69897A89C10185DB07C0C2
:1010200000E210E085E0982E1A8A198AD5CE6696DD
:101030000FB6F894DEBF0FBECDBFDF91CF911F91E9
:101040000F91FF90EF90DF90CF90BF90AF909F9067
:101050008F907F906F905F904F903F902F9008956A
:101060000F931F93CF93DF938B01FC01C281D38138
:10107000209759F06A817B81C8010E94333D892BFA
:1010800021F00990D881C02DF3CFCE01DF91CF910F
:101090001F910F9108959F92AF92BF92CF92DF92CE
:1010A000EF92FF920F931F93CF93DF9300D000D066
:1010B000CDB7DEB7D82EC92E082F192FF801819190
:1010C00091918F015CDD7C016BE7C8010E94AF1438
:1010D000882309F440C06DE7C8010E94AF14811154
:1010E0003CC086E0982E8D2D9C2DBDDB5C01892BAC
:1010F00091F16AE3C8010E94AF14882361F11A825A
:101100001982BE016F5F7F4F8D2D9C2D0E944B2653
:10111000882309F1B501C701A3DF009739F4C7019E
:1011200057DC0097C1F0FC01B382A282FE01319628
:10113000DC011496892D01900D928A95E1F76DE7F7
:10114000C8010E94AF14811108C06CE2C8010E945E
:10115000AF148111C8CF01DD01C0C70126960FB6BB
:10116000F894DEBF0FBECDBFDF91CF911F910F91DD
:10117000FF90EF90DF90CF90BF90AF909F90089539
:10118000EF92FF920F931F93CF93DF93CDB7DEB70C
:101190002E970FB6F894DEBF0FBECDBF8B0185ED45
:1011A00092E0998788871C861B8680E092E09E8764
:1011B0008D87CB010E942427F801808191810097BF
:1011C00011F48EEB94E09E01285F3F4F3A83298310
:1011D0009C838B833E832D838AE08F83CE0101968F
:1011E0005ADF8C0185ED92E099878887EB85FC8535
:1011F000309759F0828193819E878D87E080F180BE
:10120000CF010E94983BF701F3CFC8012E960FB68D
:10121000F894DEBF0FBECDBFDF91CF911F910F912C
:10122000FF90EF900895CF92DF92EF92FF920F938D
:101230001F93CF93DF937C018B01EA0111DFFC0147
:10124000892B39F4C701C4DBFC01892B91F013838E
:10125000028388819981892B19F480E090E003C092
:101260006E0187E090E095838483C682D78281E017
:1012700001C080E0DF91CF911F910F91FF90EF901F
:10128000DF90CF900895EF92FF920F931F93CF932B
:10129000DF938C01EB017A01E3DEFC01892B39F449
:1012A000C80196DBFC01892BF9F0D383C283D701F7
:1012B0004D915C9157FD07C0052E000C660B770B16
:1012C00084E090E009C0519541955109052E000C2C
:1012D000660B770B85E090E0958384834683578384
:1012E0006087718781E001C080E0DF91CF911F911D
:1012F0000F91FF90EF900895CF92DF92EF92FF92BF
:101300000F931F93CF93DF93CDB7DEB72C970FB614
:10131000F894DEBF0FBECDBF8C01CB01BA01A0DEB9
:101320007C01009709F44CC0FC01C480D580F1E039
:10133000CF16D10461F4FC016681778161157105D6
:1013400031F08FEB94E00E94333D892B69F0F1E09E
:10135000CF1AD10882E0C816D10430F4F7016681B3
:1013600077816115710571F56EEB74E0CE01019620
:101370006C010E94B517DC86CB86CE010B96988750
:101380008F831A861986BE01695F7F4FC701049655
:1013900036DC89819A81F801918380838B819C81DD
:1013A000938382838D819E81958384831A8219829F
:1013B0001C821B821E821D82C6010E94781705C0F6
:1013C0006EEB74E0C8010E94B517C8012C960FB6E9
:1013D000F894DEBF0FBECDBFDF91CF911F910F916B
:1013E000FF90EF90DF90CF900895089508952F9289
:1013F0003F924F925F926F927F928F929F92AF92A5
:10140000BF92CF92DF92EF92FF920F931F93CF93F1
:10141000DF93CDB7DEB727970FB6F894DEBF0FBEC8
:10142000CDBF1B015E834D838901FC0182819381C5
:1014300020910002281721F02F3F09F0D0C205C0EB
:10144000EFEDF2E024912F8304C180930002EFEDD1
:10145000F2E0E491EF3F09F4C2C2E23009F47EC049
:101460006CF5EE2309F459C0E13009F0F1C0109297
:1014700080001092810020918100286020938100DB
:10148000209181002160209381009C013327F90184
:10149000E052FB4FE491F0E0EE0FFF1FE455FB4FED
:1014A000459154915093F9064093F806F901EA5D8D
:1014B000FA4FE491E093F70631E0C8C0E43009F454
:1014C0009DC00CF473C0E53009F0C2C01092200139
:1014D0001092210120912101286020932101209167
:1014E00021012160209321019C013327F901E05261
:1014F000FB4FE491F0E0EE0FFF1FE455FB4F4591E9
:1015000054915093F0064093EF06F901EA5DFA4FCB
:10151000E491E093EE0635E099C014BC15BC24B507
:10152000226024BD25B5216025BD9C013327F9012A
:10153000E052FB4FE491F0E0EE0FFF1FE455FB4F4C
:10154000459154915093FC064093FB06F901EA5DE6
:10155000FA4FE491E093FA061F827EC01092B00029
:101560001092B1002091B00022602093B000209131
:10157000B10021602093B1009C013327F901E052B2
:10158000FB4FE491F0E0EE0FFF1FE455FB4F459158
:10159000549150936B0740936A07F901EA5DFA4F43
:1015A000E491E0936C07E2E0EF8356C01092900064
:1015B0001092910020919100286020939100209139
:1015C00091002160209391009C013327F901E052A2
:1015D000FB4FE491F0E0EE0FFF1FE455FB4F459108
:1015E00054915093F6064093F506F901EA5DFA4FDF
:1015F000E491E093F406F3E0FF832EC01092A00084
:101600001092A1002091A10028602093A1002091B8
:10161000A10021602093A1009C013327F901E05231
:10162000FB4FE491F0E0EE0FFF1FE455FB4F4591B7
:1016300054915093F3064093F206F901EA5DFA4F94
:10164000E491E093F10624E02F8306C03F8304C0B9
:10165000EF83EF81E7FDC3C12801012E000C66086E
:10166000770861E00E9494294101A12CB12C8F815F
:101670008D7F09F0BDC060E072E18AE790E0A501CE
:1016800094010E94C53A29833A834B835C836901A4
:101690007A01F1E0CF1AD108E108F1082FEFC21664
:1016A000D104E104F10409F008F44DC060E472E4EF
:1016B0008FE090E0A50194010E94C53A69017A018A
:1016C00081E0C81AD108E108F1089F81923001F544
:1016D000EFEFCE16D104E104F10409F008F4FCC1E7
:1016E00060E970ED83E090E0A50194010E94C53AA5
:1016F00069017A01F1E0CF1AD108E108F1082FEF72
:10170000C216D104E104F10409F0E0F583E069C0F8
:101710003FEFC316D104E104F104B9F0B0F068E47E
:1017200078EE81E090E0A50194010E94C53A69013C
:101730007A0181E0C81AD108E108F1089F81992354
:1017400009F46FC1C0C181E001C082E09F8199238B
:10175000A1F047C089819A81AB81BC812AE0B5950F
:10176000A795979587952A95D1F76C017D01E1E0C2
:10177000CE1AD108E108F10885E095B5987F892B4C
:1017800085BDA1C068E478EE81E090E0A5019401F8
:101790000E94C53A69017A01F1E0CF1AD108E10847
:1017A000F1082FEFC216D104E104F10409F008F4A6
:1017B00036C164E274EF80E090E0A50194010E94DC
:1017C000C53A69017A01E1E0CE1AD108E108F108D1
:1017D000FFEFCF16D104E104F10411F008F043C18A
:1017E00085E09091B100987F892B8093B1006BC008
:1017F00060E072E18AE790E0A50194010E94C53A99
:1018000069017A01E1E0CE1AD108E108F108C114BA
:10181000D104F1E0EF06F10488F068E478EE81E0AD
:1018200090E0A50194010E94C53A69017A0181E026
:10183000C81AD108E108F10883E001C081E09F8166
:10184000913071F490918100987F892B8093810071
:10185000452846284728D9F52FEF3FEFA90168C052
:10186000EF81E33071F490919100987F892B809300
:10187000910045284628472851F52FEF3FEFA90151
:1018800079C0FF81F43071F49091A100987F892B89
:101890008093A100452846284728C9F42FEF3FEF41
:1018A000A9017AC02F81253071F490912101987F90
:1018B000892B8093210145284628472841F42FEFA2
:1018C0003FEFA9017BC045284628472869F09101D0
:1018D000220F331FD8010E94E93A28EE33E040E09E
:1018E00050E00E94D93903C02FEF3FEFA9018F814B
:1018F000823081F12CF4882361F08130C9F06FC00F
:101900009F81943009F448C0ACF1953009F456C079
:1019100066C0C7BC20930D0730930E0740930F0796
:101920005093100780916E00826080936E0057C0C4
:10193000D0928900C09288002093090730930A074B
:1019400040930B0750930C0780916F008260809347
:101950006F0045C0C092B30020936D0730936E07AF
:1019600040936F075093700780917000826080935E
:10197000700035C0D0929900C0929800209305075E
:101980003093060740930707509308078091710032
:1019900082608093710023C0D092A900C092A800F9
:1019A00020930107309302074093030750930407E5
:1019B0008091720082608093720011C0D0922901E0
:1019C000C09228012093FD063093FE064093FF0647
:1019D0005093000780917300826080937300ED81C3
:1019E000FE81BF01FF0F880B990B27960FB6F89465
:1019F000DEBF0FBECDBFDF91CF911F910F91FF9042
:101A0000EF90DF90CF90BF90AF909F908F907F909E
:101A10006F905F904F903F902F900C94D02984E06E
:101A2000E0CEEFEFCE16D104E104F104D1F0C8F01E
:101A300062E17AE780E090E0A50194010E94C53A56
:101A400069017A0181E0C81AD108E108F1089FEF25
:101A5000C916D104E104F10411F008F07BCE84E052
:101A60008CCE83E08ACE62E17AE780E090E0A50147
:101A700094010E94C53A69017A01F1E0CF1AD108B8
:101A8000E108F1082FEFC216D104E104F104C9F016
:101A9000C0F089819A81AB81BC815AE0B595A79548
:101AA000979587955A95D1F76C017D0121E0C21A6F
:101AB000D108E108F1083F81332309F45DCE87E0C6
:101AC00090CE86E043CE3FEFC316D104E104F1048B
:101AD00009F048F684E03ACE82E083CECF93DF93DC
:101AE0001F92CDB7DEB76983DC01ED91FC910280D6
:101AF000F381E02D41E050E0BE016F5F7F4F19950B
:101B00000F90DF91CF910895089581E090E030919A
:101B1000D2062091D106321710F480E090E0919522
:101B20008195910908958091D2069091D1068917E7
:101B300030F48F5F8093D20680E090E008958FEFBD
:101B40009FEF08958091D10690E02091D206821BEC
:101B500091090895089580E090E0089585ED8093BF
:101B6000BC008091BC0084FDFCCF1092CE0608958D
:101B700040913F07262F30E0240F311D21323105DF
:101B8000DCF42091CE062430C9F4FC0180E090E022
:101B9000861758F430913F072191DC01A35EB84FBE
:101BA000A30FB11D2C930196F3CF80913F07680FCF
:101BB00060933F0780E0089581E0089582E00895F2
:101BC000CF92DF92EF92FF920F931F93CF93DF9309
:101BD0007C01262F972F8A0180919507882391F009
:101BE000C62FD72F6E01C40ED51ECC15DD0569F0AA
:101BF0006991D701ED91FC910190F081E02DC70131
:101C00001995F3CF642F822FB3DFC801DF91CF91F5
:101C10001F910F91FF90EF90DF90CF900895CF9399
:101C2000DF931F92CDB7DEB76983209195072223FA
:101C3000D1F02091CF06203240F021E030E0FC01CD
:101C40003383228380E090E014C08091D006E82F97
:101C5000F0E0EA56F84F998190838F5F8093D00629
:101C60008093CF0604C061E0CE01019681DF81E060
:101C700090E00F90DF91CF910895EF92FF920F9334
:101C80001F93CF93DF93CDB7DEB762970FB6F8946B
:101C9000DEBF0FBECDBF7C01FB0185811F928F93FC
:101CA00084811F928F9383811F928F9382811F92D1
:101CB0008F9322E732E03F932F938E010F5F1F4FE8
:101CC0001F930F93498B5A8B0E942E3449895A894E
:101CD000B801C7010E9412230FB6F894DEBF0FBEF1
:101CE000CDBF62960FB6F894DEBF0FBECDBFDF91B9
:101CF000CF911F910F91FF90EF9008950C941223B4
:101D0000CF92DF92EF92FF920F931F93CF93DF93C7
:101D10008C017B01DC011596CD91DC9116976B014E
:101D20006C177D0708F46E01C60106960E94033BFE
:101D3000FC01892BB1F0D382C282D80113968D9118
:101D40009C911497918380831496FC93EE93139740
:101D5000CC0FDD1F1696DC93CE931597F582E482A7
:101D60003696CF01DF91CF911F910F91FF90EF90A9
:101D7000DF90CF900895DC011396ED91FC911497BC
:101D8000309751F024813581AB01420F531FA2815E
:101D9000B381A417B50708F4B3CFC90106965583DC
:101DA00044838E0F9F1F08958091B8079091B907C3
:101DB000DC01ED91FC910084F185E02D1995181658
:101DC000190664F48091B8079091B907DC01ED9190
:101DD000FC910284F385E02D1995E6CF08953F929A
:101DE0004F925F926F927F928F929F92AF92BF922B
:101DF000CF92DF92EF92FF920F931F93CF93DF93D7
:101E00006C015B01342E8091B9099091BA099093CD
:101E1000BE098093BD090E94082A2B013C01CFEF27
:101E2000DFEF0D2C000CEE08FF080E94082ADC01F1
:101E3000CB0184199509A609B7098C159D05AE0536
:101E4000BF0508F05DC0CF3FFFEFDF0709F058C0C6
:101E50008091B8079091B907DC01ED91FC91008465
:101E6000F185E02D1995892B01F38091B8079091A8
:101E7000B907DC01ED91FC910284F385E02D199501
:101E8000E091BD09F091BE0980838091BD099091D8
:101E9000BE0901969093BE098093BD092091BB09AC
:101EA0003091BC098217930740F08091B909909155
:101EB000BA099093BE098093BD09A114B10439F009
:101EC000C5010E94C822882311F0C5E0D0E033206C
:101ED00009F4ABCF87ED882E82E0982E00E010E069
:101EE000F401819191914F010E94C822811106C095
:101EF0000F5F1F4F0530110599F797CFE80195CF78
:101F00000E94082ADC01CB0184199509A609B709AA
:101F10008C159D05AE05BF0560F064E873E084EFA5
:101F200098E00E94F41962E672E084EF98E00E9463
:101F3000E419CE01DF91CF911F910F91FF90EF90A7
:101F4000DF90CF90BF90AF909F908F907F906F90D9
:101F50005F904F903F900895AF92BF92CF92DF92E3
:101F6000EF92FF920F931F93CF93DF93CDB7DEB71E
:101F700064970FB6F894DEBF0FBECDBF7C015B0146
:101F80008A01DC011C968C91843018F441155105AE
:101F900031F481E090E0F7019383828383C01F9343
:101FA0004F931F928F9384EB92E09F938F939E01A8
:101FB0002F5F3F4F69013F932F930E942E34B6014C
:101FC0008091B8079091B9070E94D41940E067EF5B
:101FD00074E088EE93E003DF0FB6F894DEBF0FBE27
:101FE000CDBF059749F064E873E084EF98E00E9464
:101FF000F41969E972E01EC08091B8079091B907A1
:10200000DC01ED91FC910280F381E02DA801B50186
:10201000199541E060E070E080ED97E0E0DE039725
:1020200009F443C064E873E084EF98E00E94F41977
:102030006EE772E084EF98E00E94E41981E090E09E
:10204000F7019383828364E873E084EF98E00E9451
:10205000F41965EC72E084EF98E00E940D1962EECD
:1020600073E084EF98E00E94F419D7011C964C911C
:1020700050E060E070E02AE084EF98E00E944619AA
:1020800084EF98E00E94D11960EA7FE080E090E060
:102090000E94D029D701ED91FC910488F589E02DAB
:1020A000C701199580E090E001C0C80164960FB6A1
:1020B000F894DEBF0FBECDBFDF91CF911F910F917E
:1020C000FF90EF90DF90CF90BF90AF900895CF93A7
:1020D000DF93CDB7DEB7C85CD1090FB6F894DEBF89
:1020E0000FBECDBF9E012E523F4FC253DF4F4881DE
:1020F0005981CE5CD04068EC70E0CE0101960E9420
:102100005D3481E051DEBE016F5F7F4F8091B80783
:102110009091B9070E94D41941E060E070E0C0538B
:10212000DF4F88819981C05DD04059DEC853DF4FB1
:102130000FB6F894DEBF0FBECDBFDF91CF910895EB
:10214000AF92BF92CF92DF92EF92FF920F931F93C5
:10215000CF93DF935C016B017A01E901188281E082
:1021600023DEB5018091B8079091B9070E94E41968
:1021700041E0B60188EE93E032DE8530910509F04A
:1021800048C08091B9099091BA099093BE09809393
:10219000BD094091B7095091B8094F5F5F4F60E0AA
:1021A00070E00E94213D41E0B70184EF91E017DE2D
:1021B000059731F5A80141505109F7010190002020
:1021C000E9F73197CF018E199F096091B909709194
:1021D000BA09E091BD09F091BE09E61BF70BE81BB7
:1021E000F90B4E175F0708F0AF01CE010E94433D87
:1021F00041E060E070E080ED97E0F1DD81E018C043
:1022000064E873E084EF98E00E94F41963E472E0FC
:102210000AC0059760F064E873E084EF98E00E94DC
:10222000F41965E572E084EF98E00E94E41980E01B
:10223000DF91CF911F910F91FF90EF90DF90CF90A2
:10224000BF90AF9008956F927F928F929F92AF92BE
:10225000BF92CF92DF92EF92FF920F931F93CF9393
:10226000DF9300D01F92CDB7DEB74C015A016DB697
:102270007EB6CB012B833C8369837A830E94EF3344
:1022800001964DB75EB7481B590B0FB6F8945EBF69
:102290000FBE4DBF8DB79EB701967C0169817A81D3
:1022A0000E94E833C5010E94EF3301964DB75EB737
:1022B000481B590B0FB6F8945EBF0FBE4DBF8DB7CC
:1022C0009EB701966C01B5010E94E8332B813C81D9
:1022D000A601B701C40134DF0FB6F8947EBE0FBE6D
:1022E0006DBE0F900F900F900F90DF91CF911F91C7
:1022F0000F91FF90EF90DF90CF90BF90AF909F90A5
:102300008F907F906F900895CF92DF92EF92FF921F
:102310000F931F93CF93DF934091140A5091150AA6
:102320006091160A7091170A1416150616061706FC
:1023300044F49091130A981711F0911102C0CA0148
:1023400005C1182F8091B8079091B907DC01ED9174
:10235000FC910084F185E02D1995892B19F480E01A
:1023600090E0F4C0E090B807F090B907C0E0D0E08A
:10237000C7011CD797FD43C0FE01E750FB4F2081EA
:10238000022E000C330B8217930789F1209781F3FB
:102390006AEF74E09E0121503109F901E750FB4FCB
:1023A0004081042E000C550B84179507E1F421158C
:1023B0003105F1F2E9EFF4E040E050E001916B010A
:1023C000C40ED51ED601DC900D1539F04217530707
:1023D00079F26F5F7F4FE901DDCF4F5F5F4F4217AB
:1023E000530760F3F3CF2115310599F7BFCF21963D
:1023F000C530D10509F0BCCF80E090E002C08FEF7E
:102400009FEF892B09F0ABCF8091B8079091B90766
:102410000E94B6256093130A8091B8079091B9077E
:10242000DC01ED91FC910284F385E02D19958091FA
:10243000B8079091B9070E94B6256093140A70936B
:10244000150A8093160A9093170A8091B807909105
:10245000B907DC01ED91FC910284F385E02D19951B
:102460008091B8079091B9070E94B62560936607DE
:102470008091B8079091B907DC01ED91FC9102843D
:10248000F385E02D19958091B8079091B9070E94C6
:10249000B625609367078091B8079091B907DC0172
:1024A000ED91FC910284F385E02D19958091B80798
:1024B0009091B9070E94B625609368078091B8078C
:1024C0009091B907DC01ED91FC910284F385E02D38
:1024D00019958091B8079091B9070E94B62560932D
:1024E00069078091B8079091B907DC01ED91FC91E3
:1024F0000284F385E02D19958091B8079091B90772
:10250000DC01ED91FC910284F385E02D1995809119
:10251000B8079091B9070E94B6257093650760933C
:1025200064078091B8079091B907DC01ED91FC91A7
:102530000284F385E02D19958091130A811711F01B
:1025400011110DCF8091140A9091150ADF91CF914E
:102550001F910F91FF90EF90DF90CF9008950F9310
:102560001F93CF93DF93CDB7DEB72A970FB6F894BA
:10257000DEBF0FBECDBF0AE010E09E012F5F3F4FD0
:102580004BE252E06EE272E086E392E05CDE88238A
:1025900071F0CE0101960E949D339C0122503109B9
:1025A0002330310530F0059731F080E005C08FEF22
:1025B00003C081E001C083E02A960FB6F894DEBF25
:1025C0000FBECDBFDF91CF911F910F9108951F9244
:1025D0000F920FB60F9211240BB60F922F933F93C9
:1025E0004F935F936F937F938F939F93AF93BF931B
:1025F000EF93FF938091B900887F803609F49CC0E7
:1026000068F5883209F45BC090F4803109F454C055
:1026100038F4882309F4F6C0883009F44DC0F5C0B9
:10262000883109F44CC0803209F45DC0EEC08034BA
:1026300009F468C048F4803309F455C0883309F0C0
:10264000E4C080939407D8C0803509F44FC0883522
:1026500009F45DC0883409F0D8C0D6C0883909F4BF
:10266000C7C0A8F4883709F467C038F4883609F47D
:1026700063C0803709F460C0C8C0883809F4B8C0A6
:10268000803909F45FC0803809F0BFC05BC0803B6F
:1026900009F486C038F4803A09F466C0883A09F42F
:1026A0007FC0B3C0803C09F4A7C0883C09F4A4C033
:1026B000883B09F48AC0A9C08091710710C090912D
:1026C000930780919207981770F5E091930781E046
:1026D0008E0F80939307F0E0EE58F84F808180933F
:1026E000BB0085EC86C0809394078EC0E091930771
:1026F00081E08E0F809393078091BB00F0E0EE584D
:10270000F84F808390919307809192076EC0E0917B
:10271000930781E08E0F809393078091BB00F0E0D8
:10272000EE58F84F80838091CD0681116DC081E015
:102730008093CC0684EA61C083E08093CE06109239
:102740006307CFCF80916307803208F051C0E091DA
:10275000630781E08E0F809363078091BB00F0E0F8
:10276000ED5BF84F8083BDCF85EC8093BC00109269
:10277000CE0680916307803230F4E0916307F0E089
:10278000ED5BF84F10826091630770E0E0914107C4
:10279000F091420783E497E019951092630735C0E2
:1027A00084E08093CE061092400710923F07E0919C
:1027B0003D07F0913E07199580913F07811105C0B3
:1027C00081E080933F0710921D07E091400781E070
:1027D0008E0F80934007F0E0E35EF84F8081809396
:1027E000BB009091400780913F07981708F479CF7C
:1027F00085E88093BC0009C085EC8093BC001092F2
:10280000CE0603C010929407A9D9FF91EF91BF9112
:10281000AF919F918F917F916F915F914F913F9178
:102820002F910F900BBE0F900FBE0F901F90189519
:10283000FF920F931F93CF93DF93EC01F62E8881C5
:102840009981FC01A381B481109771F01496ED91E8
:10285000FC9115979F012F5F3F4F12964D915C9110
:1028600013974217530750F52C813D81B9016F5FD3
:102870007F4F46DA8C016A817B816115710549F0D1
:102880000115110571F04C815D81C8010E94183D50
:1028900003C00115110529F0EC81FD81E00FF11F46
:1028A000F0821B830A838C819D8101969D838C839A
:1028B000DF91CF911F910F91FF9008953696EA0F07
:1028C000FB1F15963C932E93149760838C819D81FA
:1028D000892B49F7FB83EA83E6CFFC01A081B18114
:1028E0008C918D3051F024F489508230B8F505C0B8
:1028F000803219F08F3219F0089511962CC011967C
:102900008C9111978A3219F08F32D1F00895119677
:10291000B183A083A081B181CD0101969183808391
:1029200011968C9111978823C9F08A3299F71296E3
:102930008C9112978F3271F713960DC08A3071F215
:10294000A081B181CD0101969183808311968C91F4
:102950008111F4CF03C0B183A083C0CF08950F933A
:102960001F93CF93DF931F92CDB7DEB78C0169839E
:10297000B4DFD801ED91FC911197808169818613B4
:1029800005C03196ED93FC9381E001C080E00F908B
:10299000DF91CF911F910F910895CF92DF92EF9227
:1029A000FF920F931F93CF93DF936C017A018B01FA
:1029B000C0E0D0E0CE15DF0589F0D8016D918D0122
:1029C000D601ED91FC910190F081E02DC6011995A1
:1029D000892B11F47E0102C02196ECCFC701DF9153
:1029E000CF911F910F91FF90EF90DF90CF900895BE
:1029F000FC01A089B1898C91A689B78982FD0FC09D
:102A00009C91818D8F5F8F73228D821749F0218D6C
:102A1000DF01A20FB11D5D969C93818F08958C916B
:102A20000895FC01538D448D252F30E0842F90E0D4
:102A3000821B930B541710F0CF96089501970895B9
:102A4000FC01918D828D981761F0828DDF01A80FB6
:102A5000B11D5D968C91928D9F5F9F73928F90E0D8
:102A600008958FEF9FEF0895FC01918D828D981747
:102A700031F0828DE80FF11D858D90E008958FEF84
:102A80009FEF0895FC01918D228D892F90E0805C4D
:102A90009F4F821B91098F73992708958AEB97E0C6
:102AA000F1DF21E0892B09F420E0822F089587E5EA
:102AB00098E0E8DF21E0892B09F420E0822F0895D7
:102AC00084EF98E0DFDF21E0892B09F420E0822FFA
:102AD0000895FC01848DDF01A80FB11DA35ABF4FDB
:102AE0002C91848D90E001968F739927848FA6890D
:102AF000B7892C93A089B1898C9180648C93938D34
:102B0000848D981306C00288F389E02D80818F7D23
:102B100080830895EF92FF920F931F93CF93DF93DB
:102B2000EC0181E0888F9B8D8C8D981305C0E8891E
:102B3000F989808185FD23C0F62E0B8D10E00F5F93
:102B40001F4F0F731127E02E8C8DE8120BC00FB6AC
:102B500007FCFACFE889F989808185FFF5CFCE019E
:102B6000B8DFF2CF8B8DFE01E80FF11DE35AFF4F66
:102B7000F0820B8FEA89FB898081806207C0EE8931
:102B8000FF896083E889F98980818064808381E09E
:102B900090E0DF91CF911F910F91FF90EF900895FA
:102BA000CF93DF93EC01888D8823C1F0EA89FB89FC
:102BB000808185FD05C0A889B9898C9186FD0EC0EC
:102BC0000FB607FCF5CF808185FFF2CFA889B989C0
:102BD0008C9185FFEDCFCE017CDFE8CFDF91CF91E7
:102BE000089580E090E0892B19F06ADF81111BC005
:102BF00080E090E0892B19F05ADF811117C080E046
:102C000090E0892B19F04ADF811113C080E090E039
:102C1000892BA1F080E090E0892B81F00E940000D8
:102C200081110AC008950E940000E2CF0E940000B6
:102C3000E6CF0E940000EACF0C94000008950E94A5
:102C4000143D0F931F93CF93DF93EC0188819981FB
:102C5000009729F02A813B812617370788F48B01DA
:102C60006F5F7F4F0E94303C009761F099838883AB
:102C70001B830A832C813D81232B11F4FC011082DC
:102C800081E001C080E0DF91CF911F910F91089505
:102C90000C94983B0C94983B0C94983B0C94983B68
:102CA0000E943008FC01892B09F44BC08481958176
:102CB000833091053CF4813091057CF4009709F450
:102CC00047C038C0853091052CF0059799F566818D
:102CD00077812BC08681978108950680F781E02D4A
:102CE000309779F18081843779F18B3229F08D32F8
:102CF00021F4319691E002C0319690E060E070E0FE
:102D00003AE0819120ED280F2A3068F4369FA00127
:102D1000379F500D1124682F880F770B605371096E
:102D2000640F751FEECF992391F088279927861B92
:102D3000970B089566817781808591850E94793A05
:102D400006C080E090E0089581E090E00895CB0116
:102D50000895FC0124813581FB01448155812417AC
:102D6000350721F5FC0180819181FB016081718132
:102D7000009719F061157105A1F46115710549F00D
:102D8000232BB1F0FB01808190E091958195910911
:102D90000AC0009769F0232B59F0FC01808190E074
:102DA00002C00E94333D21E0892B19F020E001C0D0
:102DB00021E0822F0895EF92FF920F931F93CF93FC
:102DC000DF93FC01248135816115710511F480E0E8
:102DD00018C041155105A1F07B01EC018A01020FD9
:102DE000131FB8012EDF882391F3288139818C814C
:102DF0009D81B701820F931F0E943C3D1D830C8370
:102E000081E0DF91CF911F910F91FF90EF90089596
:102E1000CF93DF931F921F92CDB7DEB769831A82DB
:102E200041E050E0BE016F5F7F4FC5DF0F900F9014
:102E3000DF91CF910895CF93DF93EC018881998141
:102E4000009711F00E94983B198218821D821C8203
:102E50001B821A82DF91CF910895CF93DF93EC010B
:102E60006115710559F0FB0101900020E9F73197D8
:102E7000AF01461B570B9FDF811102C0CE01DBDF84
:102E8000CE01DF91CF910895EF92FF920F931F93A0
:102E9000CF93DF93EC017B018A01BA01D2DE81116D
:102EA00003C0CE01C8DF07C01D830C83B701888132
:102EB00099810E943C3DCE01DF91CF911F910F91EE
:102EC000FF90EF900895CF93DF93EC01FB018617FD
:102ED000970751F0608171816115710521F044817E
:102EE0005581D2DF01C0A7DFCE01DF91CF910895D8
:102EF000FC01808191810C94983BCF93DF93EC018E
:102F00008DE792E099838883CE010896F1DFCE01A8
:102F10000296DF91CF91ECCFCF93DF93EC01EDDF01
:102F2000CE01DF91CF910C94983BCF93DF93EC01CE
:102F300085EE92E099838883CE010C96D9DFCE018D
:102F40000696DF91CF91D4CFCF93DF93EC01EDDFE5
:102F5000CE01DF91CF910C94983BFC01118210823D
:102F60001382128215821482AECFFC01118210826C
:102F700013821282158214826115710549F0FB01DA
:102F800001900020E9F73197AF01461B570B7CCF2A
:102F900008956F927F928F929F92AF92BF92CF923D
:102FA000DF92EF92FF920F931F93CF93DF93EC0189
:102FB0005B014A01690185EE92E0998388833E01B5
:102FC00086E0680E711C6EEB74E0C301CEDF7E01FB
:102FD0008CE0E80EF11C6EEB74E0C701C6DFBB822B
:102FE000AA829D828C82B601C3016DDFB801C70140
:102FF000DF91CF911F910F91FF90EF90DF90CF90D5
:10300000BF90AF909F908F907F906F905CCF1F92FA
:103010000F920FB60F9211240BB60F922F933F937E
:103020004F935F936F937F938F939F93AF93BF93D0
:10303000EF93FF9380916D0790916E07A0916F07BA
:10304000B0917007892B8A2B8B2B59F180916C07DB
:10305000E0916A07F0916B079081892780838091C6
:103060006D0790916E07A0916F07B09170071816C9
:1030700019061A061B060CF056C080916D07909138
:103080006E07A0916F07B09170070197A109B10970
:1030900080936D0790936E07A0936F07B0937007AE
:1030A00042C080910002EFEDF2E0E4919FEF909337
:1030B0000002E230C9F050F4EE2399F0E13081F5DE
:1030C00090916F009D7F90936F002AC0E43019F1BA
:1030D000E0F0E53029F5909173009D7F90937300A7
:1030E0001FC010926E001CC0909170009D7F909345
:1030F000700091E09093B0009091B100987F94603F
:103100009093B1001092B3000BC0909171009D7F1D
:103110009093710005C0909172009D7F9093720012
:1031200060E00E946529FF91EF91BF91AF919F915F
:103130008F917F916F915F914F913F912F910F9060
:103140000BBE0F900FBE0F901F9018950F931F93FB
:10315000CF93DF93EC010E94082A688779878A87DA
:103160009B87E881F9810484F585E02DCE011995CE
:1031700097FF17C00E94082A088519852A853B8574
:10318000DC01CB01801B910BA20BB30B0C811D81C9
:103190002E813F8180179107A207B30710F38FEFAD
:1031A0009FEFDF91CF911F910F9108950F931F9380
:1031B000CF93DF93EC010E94082A688779878A877A
:1031C0009B87E881F9810284F385E02DCE01199572
:1031D00097FF17C00E94082A088519852A853B8514
:1031E000DC01CB01801B910BA20BB30B0C811D8169
:1031F0002E813F8180179107A207B30710F38FEF4D
:103200009FEFDF91CF911F910F910895DC01ED9118
:10321000FC910190F081E02D1994EF92FF920F93B1
:103220001F93CF93DF938C017B01C0E0D0E0F701C7
:10323000EC0FFD1F6491662361F0D801ED91FC91C4
:103240000190F081E02DC8011995892B11F021968C
:10325000EECFCE01DF91CF911F910F91FF90EF90B4
:1032600008956115710579F0FB0101900020E9F7DF
:103270003197AF01461B570BDC01ED91FC910280A9
:10328000F381E02D199480E090E008954F925F92D1
:103290006F927F92EF92FF920F931F93CF93DF93E2
:1032A000CDB7DEB7A1970FB6F894DEBF0FBECDBF86
:1032B0007C01FA01CB0119A2223008F42AE08E0128
:1032C0000F5D1F4F422E512C612C712CBF01A301A9
:1032D00092010E94D939F901CA01015011096A30DD
:1032E00014F4605D01C0695CD8016C93232B242B1E
:1032F000252B61F7B801C701B4DFA1960FB6F8948A
:10330000DEBF0FBECDBFDF91CF911F910F91FF9018
:10331000EF907F906F905F904F9008958F929F9263
:10332000AF92BF92CF92DF92EF92FF920F931F93D3
:10333000CF93DF937C018B016C0182E0C80ED11C1E
:103340004701E5E08E0E911CC0E0D0E0F60141910E
:103350006F0150E060E070E02AE0C80197DF5C0197
:103360006EE2C80153DF8A0D9B1DC80FD91FC81418
:10337000D90461F7F701458150E060E070E02AE090
:10338000C80184DF8C0F9D1FDF91CF911F910F919A
:10339000FF90EF90DF90CF90BF90AF909F908F9075
:1033A000089562E276E05DCF0F931F93CF93DF9392
:1033B000EC0157DF8C01CE01F4DF800F911FDF910C
:1033C000CF911F910F9108950F931F93CF93DF9388
:1033D000EC0123DF8C01CE01E4DF800F911FDF9130
:1033E000CF911F910F9108953CCF1F920F920FB66E
:1033F0000F9211240BB60F922F933F934F935F932D
:103400006F937F938F939F93AF93BF93EF93FF93AC
:103410008AEB97E05EDBFF91EF91BF91AF919F91B7
:103420008F917F916F915F914F913F912F910F906D
:103430000BBE0F900FBE0F901F9018951F920F920A
:103440000FB60F9211240BB60F922F933F934F9309
:103450005F936F937F938F939F93AF93BF93EF93FC
:10346000FF938AEB97E0C4DAFF91EF91BF91AF91A0
:103470009F918F917F916F915F914F913F912F918C
:103480000F900BBE0F900FBE0F901F9018951F92BC
:103490000F920FB60F9211240BB60F922F933F93FA
:1034A0004F935F936F937F938F939F93AF93BF934C
:1034B000EF93FF9387E598E00CDBFF91EF91BF91CD
:1034C000AF919F918F917F916F915F914F913F91BC
:1034D0002F910F900BBE0F900FBE0F901F9018955D
:1034E0001F920F920FB60F9211240BB60F922F93CB
:1034F0003F934F935F936F937F938F939F93AF937C
:10350000BF93EF93FF9387E598E072DAFF91EF9115
:10351000BF91AF919F918F917F916F915F914F91EB
:103520003F912F910F900BBE0F900FBE0F901F90E9
:1035300018951F920F920FB60F9211240BB60F928F
:103540002F933F934F935F936F937F938F939F93AB
:10355000AF93BF93EF93FF9384EF98E0BADAFF91B4
:10356000EF91BF91AF919F918F917F916F915F91FB
:103570004F913F912F910F900BBE0F900FBE0F9068
:103580001F9018951F920F920FB60F9211240BB631
:103590000F922F933F934F935F936F937F938F93EC
:1035A0009F93AF93BF93EF93FF9384EF98E020DA5C
:1035B000FF91EF91BF91AF919F918F917F916F910B
:1035C0005F914F913F912F910F900BBE0F900FBEC7
:1035D0000F901F901895CF92DF92EF92FF920F936A
:1035E0001F93CF93DF93EC016B017A018DE792E09B
:1035F000FE01819391938F016EEB74E0CF01B5DCF6
:1036000028966EEB74E0CE01B0DCB601C8015BDC3D
:10361000B701CE01DF91CF911F910F91FF90EF90F5
:10362000DF90CF9050CC08950E943008009749F069
:10363000FC01248135812730310519F48681978179
:1036400008950C94AD050895AF92BF92CF92DF928A
:10365000EF92FF920F931F93CF93DF93CDB7DEB717
:1036600068970FB6F894DEBF0FBECDBF8B0160E345
:1036700075E0C80115DB6C0167E375E0C80110DB7C
:103680005C014EE355E0B801CE0143960E947C09EF
:1036900045E455E0B801CE010D960E947C09C601B3
:1036A0000E940D28C5010E940D28CE0143960E945C
:1036B0002427CE010D960E942427BE016D5E7F4F08
:1036C000CE0107964ADCBE01635F7F4FCE010196B3
:1036D00044DC82E190E00E94033B7C018E010F5F9D
:1036E0001F4F9E01295F3F4FA501B60152DCC80163
:1036F000FFDBCE010796FCDBCE010D96F9DBCE0198
:103700004396F6DBC70168960FB6F894DEBF0FBE8E
:10371000CDBFDF91CF911F910F91FF90EF90DF9080
:10372000CF90BF90AF900895089508950F931F9381
:10373000CF93DF93EC018B010E94AF12813061F0D7
:1037400064E575E084EF98E02FDEB801CE01DF91EB
:10375000CF911F910F910CC2DF91CF911F910F91CB
:1037600008950895FC0190810180F281E02D892F58
:10377000809560FF12C0F894228182238283818128
:10378000892B8183A3E2B0E01197F1F78281982B16
:103790009283789487ED90E011C0F894228182237F
:1037A00082838181892B8183AFEFB0E01197F1F79C
:1037B0008281982B928378948FE090E00197F1F7C3
:1037C000089521E0FC0184858F3F09F420E0822FD9
:1037D0000895CF93DF93EC01E881F9810084F185AE
:1037E000E02DCE011995892B41F0E881F981028401
:1037F000F385E02DCE011995EFCFDF91CF9108959C
:10380000FC0184858F3F21F00E94841197FF02C044
:1038100080E090E00895CF92DF92EF92FF920F93B5
:103820001F93CF93DF93CDB7DEB76E970FB6F894A3
:10383000DEBF0FBECDBFFC0184858F3FD1F17F017C
:103840000E948411892B11F094E034C0D7011C969A
:103850008C911F928F938BE093E09F938F93FE0147
:1038600031966F01FF93EF930E942E340AE010E02F
:103870009E012B5E3F4F4DEF54E0B6018EEF92E07C
:103880000E94A0100F900F900F900F900F900F902C
:103890008111DACFD7011C96EC911C97F0E0EE0F66
:1038A000FF1FEF5FFD4F8FEF9FEF918380831C968B
:1038B0008C9390E081E0943009F080E06E960FB632
:1038C000F894DEBF0FBECDBFDF91CF911F910F9156
:1038D000FF90EF90DF90CF900895CF93DF93FC019E
:1038E00024852F3FC9F1EC0164E873E084EF98E090
:1038F0007BDD6FEE72E084EF98E08FDC62EE73E0C8
:1039000084EF98E071DD4C8550E060E070E02AE0E3
:1039100084EF98E0BBDC84EF98E043DD8C851F9258
:103920008F938FE08F9380EA8F9380EE92E09F9346
:103930008F930E946710EC85F0E0EE0FFF1FEF5FA2
:10394000FD4F8FEF9FEF918380838C870F900F90B7
:103950000F900F900F900F90DF91CF9108950F93DC
:103960001F93CF93DF931F921F92CDB7DEB78C01C9
:10397000DC01ED91FC910084F185E02D1995892BF6
:1039800029F11982F80184859091130A891309C0DD
:103990009E012F5F3F4F40E0BE016E5F7F4F0E9450
:1039A000142A8981882379F0D8011C96EC911C9700
:1039B000F0E0EE0FFF1FEF5FFD4F8FEF9FEF918362
:1039C00080831C968C938A8190E002C08FEF9FEFDA
:1039D0000F900F90DF91CF911F910F9108950F934A
:1039E0001F93CF93DF931F921F92CDB7DEB78C0149
:1039F000DC01ED91FC910084F185E02D1995892B76
:103A000029F11982F80184859091130A891309C05C
:103A10009E012F5F3F4F41E0BE016E5F7F4F0E94CE
:103A2000142A8981882379F0D8011C96EC911C977F
:103A3000F0E0EE0FFF1FEF5FFD4F8FEF9FEF9183E1
:103A400080831C968C938A8190E002C08FEF9FEF59
:103A50000F900F90DF91CF911F910F9108958F924A
:103A60009F92AF92BF92CF92DF92EF92FF920F930D
:103A70001F93CF93DF931F921F92CDB7DEB77C01C8
:103A80008A01DC01ED91FC910084F185E02D6983D0
:103A90007A83199569817A81892B19F48FEF9FEFC9
:103AA00058C0F70194858091130A981350C08091F3
:103AB000140A9091150AA091160AB091170A4801AC
:103AC000A12CB12C88159905AA05BB050CF48C0115
:103AD0006B017B01E00EF11ECE14DF04B1F10E94F8
:103AE000082A4B015C018091B8079091B907DC016D
:103AF000ED91FC910284F385E02D199597FF0EC09E
:103B00000E94082ADC01CB0188199909AA09BB097E
:103B1000883E9340A105B10530F3C0CFD6018D9307
:103B20006D018091140A9091150AA091160AB09126
:103B3000170A0197A109B1098093140A9093150AF5
:103B4000A093160AB093170AC7CFC80102C080E03D
:103B500090E00F900F90DF91CF911F910F91FF9008
:103B6000EF90DF90CF90BF90AF909F908F9008958F
:103B70005F926F927F928F929F92AF92BF92CF92FD
:103B8000DF92EF92FF920F931F93CF93DF9300D0BA
:103B900000D0CDB7DEB75C018B017B0122E0E20EE5
:103BA000F11CB701CE010196D8D98D819E810E946A
:103BB000033B982E892E6401CE01019699D9B70155
:103BC000CE010196CAD98A818F9389818F9386E726
:103BD000E82E85E0F82EFF92EF928F929F920E943E
:103BE000523DCE01019684D9085F1F4FB801CE0126
:103BF0000196B3D98D819E810E94033B782E692E58
:103C00004301CE01019674D9B801CE010196A5D920
:103C10008A818F9389818F93FF92EF926F927F9227
:103C20000E94523DCE01019663D9F50102811381B4
:103C300060E0F8018281938107D76AE775E0F801B7
:103C400082819381D1DB0FB6F894DEBF0FBECDBF6A
:103C5000E12CF12C772473949EE4692E20E2522EFD
:103C60003CE3A32E34E0B32E6BE875E084EF98E0DC
:103C70009BDB7092B7078F929F92CF92DF926F92E9
:103C80005F92BF92AF920E9467100FB6F894DEBFAA
:103C90000FBECDBF64E873E0892BA9F484EF98E0F0
:103CA000A3DB6AE174E084EF98E0B7DA62EE73E0D8
:103CB00084EF98E099DB6D2D7C2D84EF98E074DB28
:103CC00001E010E01DC084EF98E08EDB67E274E055
:103CD00084EF98E0A2DA62EE73E084EF98E084DB90
:103CE0006D2D7C2D84EF98E05FDB68EE73E080E063
:103CF00090E00E94D02980E00E94D40E02E010E003
:103D000064E670E080E090E00E94D029FFEFEF1AB7
:103D1000FF0A66E975E084EF98E066DBC7010E9460
:103D20000D286FE975E084EF98E05EDB81E090E0BC
:103D30000130110511F080E090E00E940D28013063
:103D4000110539F023E0E216F10409F08DCF02E00D
:103D500010E081E00130110509F080E026960FB6F1
:103D6000F894DEBF0FBECDBFDF91CF911F910F91B1
:103D7000FF90EF90DF90CF90BF90AF909F908F908B
:103D80007F906F905F900895CF93FC01C48121E0F4
:103D900020939507C093B6071092D0061092CF06D5
:103DA0008385682B81E999E00E940F0E8091CF06F0
:103DB000813208F046C09091CE069111FCCF92E07E
:103DC0009093CE0691E09093CD069FEF9093940749
:103DD0001092930780939207A6E9B7E022E737E0B5
:103DE000F9019E2F921B981718F49D919193F9CF8A
:103DF0001092710780917107CC0FC82BC093710787
:103E00008091CC06813061F41092CC0680917107CC
:103E10008093BB008091BC0083FDF8CF85EC01C08E
:103E200085EE8093BC008091CE068230E1F38091D4
:103E300094078F3F31F080919407803211F0809188
:103E400094071092D0061092CF0610929507CF914A
:103E500008950F931F93CF938C01C62F95DF6C2F7E
:103E60006460C80191DF6C2F6B7FC8018DDF83EC2C
:103E700090E00197F1F7CF911F910F9108950F9363
:103E80001F93CF93DF938C01D62FC42F607F642BB9
:103E9000E0DF6D2F6295607F6C2BC801DF91CF91C1
:103EA0001F910F91D6CF41E0EADF81E090E00895C5
:103EB00040E061E0E4DF8BE39FE10197F1F70895D3
:103EC000DC01E0E0615038F08D91E827F0E0E65E3B
:103ED000FC4FE491F7CF8E2F0895CF92DF92EF92AF
:103EE000FF920F931F93CF93DF931F92CDB7DEB74F
:103EF0006C01E62E08E010E0FF24F39461E08F2DC2
:103F00008E2109F460E0C60149832CDCFF0C0150CE
:103F1000110949810115110589F7411115C0F8945E
:103F2000D6011196ED91FC91129791818C9180951B
:103F3000892381831196ED91FC91129792818C9146
:103F400080958923828378940F90DF91CF911F9180
:103F50000F91FF90EF90DF90CF900895CF92DF9276
:103F6000EF92FF920F931F93CF93DF931F92CDB7E2
:103F7000DEB78C01F62E40E065E57983AEDFCF2C0D
:103F80007981D72E760188E0E80EF11CF601619167
:103F90006F0140E0C801A1DFCE14DF04B9F70F9034
:103FA000DF91CF911F910F91FF90EF90DF90CF9015
:103FB0000895FC0190810180F281E02DF8948181C7
:103FC000892B81832281892F809528232283A7E052
:103FD000B0E01197F1F7218182238183A3E2B0E061
:103FE0001197F1F780817894EFECF0E03197F1F7D9
:103FF000982381E009F480E00895FC01908101801C
:10400000F281E02DF8948181292F209582238183EC
:1040100078948DE743E050E0815021F1DA01119767
:10402000F1F730813923C1F3F894828182238283AE
:104030008181892B81837894ABE7B7E01197F1F701
:10404000F894818128232183A3E1B1E01197F1F74E
:104050008081982381E009F080E07894E3E6F6E03F
:104060003197F1F708956F927F928F929F92AF925E
:10407000BF92CF92DF92EF92FF920F931F93CF9355
:10408000DF931F921F92CDB7DEB78C017A01FC013E
:104090008581968169837A83B0DF69817A818823FB
:1040A00071F1F8018581968159DF40E06EEBF801EE
:1040B0008581968112DF37015701F9E0AF0EB11CFF
:1040C000F8018580968088E0C82ED12CEE24E394F8
:1040D000F12CC4016EDF8111FE28EE0CF1E0CF1A45
:1040E000D108B9F7F301F1923F01EA15FB0541F759
:1040F000F8018581968181DF91E0813009F090E0BF
:10410000892F0F900F90DF91CF911F910F91FF900A
:10411000EF90DF90CF90BF90AF909F908F907F9067
:104120006F900895CF93DF93CDB7DEB729970FB681
:10413000F894DEBF0FBECDBFFB012081203109F115
:10414000AE014F5F5F4F8FDF882371F068E0CE01D3
:104150000196B6DE9985891307C008C0803458F0EF
:104160008F3569F08F3769F080E00CC08D818F3317
:10417000A9F78AE007C08F31B9F789E003C08BE067
:1041800001C08CE029960FB6F894DEBF0FBECDBFFC
:10419000DF91CF910895AF92BF92CF92DF92EF92CD
:1041A000FF920F931F93CF93DF931F92CDB7DEB78C
:1041B0005C01E62ED72EFC018585811158C0C50112
:1041C0001CDF811105C0F50113861586148667C0B2
:1041D00040E060EFC50181DE01E0F12CC12C11E06F
:1041E000C501E7DE682FC5016983E3DE69816130BF
:1041F00019F48130B9F432C04F2D50E068131BC060
:10420000F5018385181730F4E40FF51F83818023AF
:1042100049F402C0181731F060E0193058F4F50184
:10422000148708C0F501EF0DF11D8381802B838376
:1042300061E009C0C12EF501E40FF51F9381802FC5
:10424000809589238383C5018DDA1F5F000F11F4E8
:10425000F39401E0F7E0FF1508F0C2CF113438F015
:10426000F501C386C11015C081E0858712C0F50134
:1042700013861586148680E0D5011396EE2DFD2D4C
:104280009501255F3F4F9D919193A217B307D9F7F1
:1042900006C0F5018381882351F381E0EDCF0F90B3
:1042A000DF91CF911F910F91FF90EF90DF90CF9012
:1042B000BF90AF9008954F925F926F927F928F92CE
:1042C0009F92AF92BF92CF92DF92EF92FF920F93A5
:1042D0001F93CF93DF93CDB7DEB7C656D2400FB64C
:1042E000F894DEBF0FBECDBF7C016B015A01CE0139
:1042F00009969C838B8388E592E09E838D83188644
:104300001F8283E193E09A838983CE0101960E9404
:10431000BF058C01F60182819381CF59DD4F9983CE
:104320008883C156D240AE014F595D4F68EA75E0AF
:10433000C8010E944309F601448055806680778059
:104340006CEA75E0C8010E943008FC01892B51F429
:10435000C8010E94E804FC01892B61F08CEA95E019
:104360009383828388E090E095838483468257829A
:1043700060867186F80180819181009781F4809137
:104380000B0A811132C01092080A1092070A10928B
:104390000A0A1092090A81E080930B0A26C00E9443
:1043A0008A053C0161EB75E0C8010E943008009766
:1043B00051F4C8010E94E8040097D9F021EB35E0E0
:1043C000FC0133832283F30120813181232B19F4F3
:1043D00020E030E004C0962C872C26E030E0FC0181
:1043E000358324839682878204C087E0682E8AE022
:1043F000782EF6018085882329F063EA79E0C301ED
:104400000E946F05F6018185882329F06FEA79E023
:10441000C3010E946F0520E030E040E252E4F60163
:1044200064817581868197810E94AA3A18162CF4BE
:1044300069EA79E0C3010E946F05F50182809380EB
:10444000C480D58065EB75E084EF98E00E94D419B4
:10445000F40182819381E1D5F40184819581DDD5D8
:10446000F40186819781009719F00E949A3303C066
:1044700060E070E0CB01FDD4C4010C96E5D4F601F8
:1044800082819381CAD5F60184819581C6D5F601D2
:1044900086819781009719F00E949A3303C060E0EB
:1044A00070E0CB01E6D4C6010C96CED4F501628152
:1044B0007381CE010196E8D54C01F50164817581C7
:1044C000CE010196E1D55C01CE0101960E94BF05A7
:1044D0006C01A40167ED75E00E941309A5016BED65
:1044E00075E0C6010E941309F8018081918100974F
:1044F00019F40E94AD0508C00E94BF05AC0160EE32
:1045000075E0C8010E941309A60160EE75E0C801BC
:104510000E9413096EEB74E0C7010E94B517FE01FB
:10452000EB59FD4FF182E082CF59DD4FF983E883EB
:10453000C156D240CD59DD4F19821882C356D240A0
:10454000BE016F597D4FC8010E94D305F701448118
:1045500055816081718184EF98E00E94CD14C7017C
:10456000CA59DD4F0FB6F894DEBF0FBECDBFDF9145
:10457000CF911F910F91FF90EF90DF90CF90BF9060
:10458000AF909F908F907F906F905F904F90089525
:10459000FC0101900020E9F731979F01281B390B9E
:1045A000E091BD09F091BE09E21BF30B4091B909FE
:1045B0005091BA09E417F50730F46091B70970918A
:1045C000B809E60FF71F280F391F6091BB097091DA
:1045D000BC09DC018217930758F40196BC91A081B5
:1045E000BA1308C03196E617F70799F7FA01F1CF29
:1045F00081E0089580E00895CF93DF93EC0181E09E
:104600000E94D40EBE018091B8079091B9070E9414
:10461000E41941E060E070E088EE93E0DF91CF9133
:104620000C94EF0EEF92FF920F931F93CF93DF93B3
:104630001F921F92CDB7DEB77C01162F072F64E8BB
:1046400073E084EF98E049835A830E94F41964E888
:1046500074E084EF98E00E940D1962EE73E084EF3D
:1046600098E00E94F419612F702F84EF98E00E9467
:10467000D419E9E0F2E023E030E05A8149819291D7
:104680008291019621F021503109C8F72FEFF701EF
:1046900024872F3F21F15F934F930F931F931F9216
:1046A0002F9383E18F9388E88F9387E694E09F931D
:1046B0008F930E9467100FB6F894DEBF0FBECDBF78
:1046C000892BC9F4F701848590E0FC01EE0FFF1FF0
:1046D000EF5FFD4F9183808381E090E00EC064E83E
:1046E00073E084EF98E00E94F41963E574E084EFCE
:1046F00098E00E94E41980E090E00F900F90DF9125
:10470000CF911F910F91FF90EF9008952F923F92BC
:104710004F925F926F927F928F929F92AF92BF92D1
:10472000CF92DF92EF92FF920F931F93CF93DF937D
:10473000CDB7DEB7A6970FB6F894DEBF0FBECDBFDC
:104740004C015B011C821B8288EE93E0A0E0B0E08C
:104750008D839E83AF83B88785EF92E09A838983A8
:104760008FEF8D8740E95FE165EE75E0CE01019640
:104770000E947E0E892B51F461EF75E084EF98E082
:104780000E94D41934E6C32ED12C3FC196E0E92E05
:10479000F12C2FE1622E23E0722E8E01025F1F4F5B
:1047A0007F866E86F50182819381998B888B8481C7
:1047B00095819B8B8A8BA801B401CE0181967BDD0C
:1047C0004DA05EA06CE076E0CE0145960E94B51744
:1047D000BE016B5E7F4FCE014B960E94AD1762E12A
:1047E00076E0CE014B960E942D1769E176E00E949B
:1047F0002D1765E276E00E942D176CE276E00E94AC
:104800002D1762E276E00E942D176DE376E00E949C
:104810002D176EE576E00E942D176C014AE0B80175
:10482000C2010E941534F80101900020E9F7319788
:10483000AF01401B510BB801C6010E94DB1681116C
:1048400003C0C6010E941B1762E276E0C6010E9407
:104850002D1762E276E00E942D176C014DA15EA13A
:1048600069A17AA10E94DB16811103C0C6010E94D2
:104870001B1763E276E0C6010E942D17FC014481FC
:10488000558160817181CE0101960E94AC0FCE01ED
:104890004B960E947817CE0145960E947817CE015C
:1048A0008196D2D260EA7FE080E090E079D5CE01B7
:1048B00001960E94001C892B09F493C06EEB74E0F2
:1048C000CE0145960E94B517CE0101960E94D618DA
:1048D00097FD09C08D30910531F0682FCE014596C6
:1048E0000E940817F1CF6FE676E0C8010E94B51765
:1048F000498D5A8D6D897E89C8010E94DB16811110
:1049000003C0C8010E941B17C8019ED2C8010E94A3
:104910007817C98CDA8CC114D10461F02D883E88D7
:1049200060E270E0C1010E94283D009719F08219F1
:10493000930902C08FEF9FEF2C01FFEF4F1A5F0A20
:10494000C414D50428F4942D852D2601C92ED82E03
:104950006EEB74E0C8010E94B517898D9A8D4816D8
:10496000590630F58C159D0508F46C01ED89FE891A
:10497000EC0DFD1D308010826D897E89640D751DE2
:104980006115710561F0FB0101900020E9F7319795
:10499000AF01461B570BC8010E94441703C0C80152
:1049A0000E941B178D899E89FC01EC0DFD1D308234
:1049B000C8014AD28E859F85009719F00E94BA33AC
:1049C00003C060E070E0CB016B01CE0101960E9454
:1049D000E91BC8010E947817CE0145960E947817FE
:1049E00003C084E6C82ED12CCE0101960E946D1C16
:1049F000CE0181960E94781721E0E21AF10829F091
:104A000088ECC816D10409F0CBCE81E098ECC91629
:104A1000D10409F080E0A6960FB6F894DEBF0FBE71
:104A2000CDBFDF91CF911F910F91FF90EF90DF905D
:104A3000CF90BF90AF909F908F907F906F905F903E
:104A40004F903F902F900895CF93DF93CDB7DEB76F
:104A500028970FB6F894DEBF0FBECDBF28E0E9EE71
:104A6000F2E0DE01119601900D922A95E1F7FC012A
:104A70002085261710F46FEF620FFE013196E60FC6
:104A8000F11DE60FF11D6081606840E028960FB6C9
:104A9000F894DEBF0FBECDBFDF91CF91F0C9CF92AA
:104AA000DF92EF92FF920F931F93CF93DF93EC016E
:104AB0006A017B01E889F98982E080834115514EC2
:104AC00061057105B1F060E079E08DE390E0A70148
:104AD00096010E94D93989019A01015011092109D1
:104AE00031093695279517950795980101151041BD
:104AF000A8F0E889F989108260E874E88EE190E016
:104B0000A70196010E94D939DA01C9010197A109CB
:104B1000B109B695A795979587959C01EC85FD857C
:104B20003083EE85FF852083188EEC89FD8986E031
:104B30008083EA89FB89808180618083EA89FB899F
:104B4000808188608083EA89FB8980818068808396
:104B5000EA89FB8980818F7D8083DF91CF911F91CE
:104B60000F91FF90EF90DF90CF900895AF92BF929A
:104B7000CF92DF92EF92FF921F93CF93DF9300D0FB
:104B80001F92CDB7DEB75C01C5010E94A618FC01DB
:104B900097FD0FC08D32910581F0C0970A9768F09C
:104BA000D501ED91FC910284F385E02DC5011995A5
:104BB000EBCF60E070E0CB014AC020E030E0A9011B
:104BC00010E0E130F105E9F0ED32F105C9F0CF0177
:104BD000C0970A97B0F4AAE0B0E00E94FB396F01D9
:104BE000FF0FEE08FF08DC01CB018C0D9D1DAE1DF3
:104BF000BF1D9C01AD01205331094109510901C07C
:104C000011E0D501ED91FC910284F385E02DC50101
:104C100029833A834B835C831995C5010E94A618AA
:104C2000FC01C09729813A814B815C810A9748F247
:104C3000E130F10531F2112341F066277727CB01EE
:104C4000621B730B840B950B02C0CA01B9010F9054
:104C50000F900F900F90DF91CF911F91FF90EF90E9
:104C6000DF90CF90BF90AF900895CF93DF93EC018A
:104C70006EEB74E00E94B51787E598E00E94D618A5
:104C800097FD05C0682FCE010E940817F5CFCE0111
:104C9000DF91CF9108959F92AF92BF92CF92DF9212
:104CA000EF92FF920F931F93CF93DF93CDB7DEB7B1
:104CB00027970FB6F894DEBF0FBECDBFFC019681DB
:104CC000992309F4ADC07B018F01915096836F0148
:104CD00082E0C80ED11CC6010E946D14D801129644
:104CE000ED91FC91139780818B3521F08B3709F47E
:104CF0005DC070C0F801808191810E948A055C01CD
:104D00006BE5C6010E94AF14882359F16DE5C60119
:104D10000E94AF14811135C086E0982E1A82198244
:104D2000BE016F5F7F4FC801B6DF8823D1F0C50198
:104D30000E944D050097A9F0FE013196DC01129604
:104D4000892D01900D928A95E1F76DE5C6010E94CB
:104D5000AF14811116C06CE2C6010E94AF1481111C
:104D6000DDCF80910B0A81110EC01092080A1092BB
:104D7000070A10920A0A1092090A81E080930B0A2E
:104D800002C0F50102C0E7E0FAE080819181892B41
:104D900011F420E040C086E090E0D70111969C938A
:104DA0008E931396FC93EE93129712C0C8010E9443
:104DB0004B08FC0120813181232B59F327E030E09F
:104DC000D70111963C932E9313969C938E93129732
:104DD00021E021C021E0873219F0823209F020E081
:104DE000C8012F830E9433042F81009791F2222360
:104DF00041F042E050E0F701518340839383828386
:104E00000AC021E030E0D70111963C932E9313960F
:104E10009C938E931297F80186818F5F868301C0E1
:104E200020E0822F27960FB6F894DEBF0FBECDBFCD
:104E3000DF91CF911F910F91FF90EF90DF90CF9076
:104E4000BF90AF909F900895CF93DF93FC01448172
:104E500055816081718184EF98E00E94CD14EC014E
:104E600084EF98E00E94D1198C0F9D1FDF91CF91A4
:104E700008954F925F926F927F928F929F92AF921E
:104E8000BF92CF92DF92EF92FF926B017C019B0168
:104E9000AC010E94AE3A882319F060EB76E01AC0AC
:104EA00046015701E894B7F82FEF3FEF4FE75FE770
:104EB000C501B4010E94AE3A811112C02FEF3FEF3D
:104EC0004FE75FE7C501B4010E94C038181644F4EB
:104ED00064EB76E084EF98E00E9431197C018AC08F
:104EE0002FEF3FEF4FE75FE4C701B6010E94AA3AF8
:104EF00018161CF468EB76E0EDCF2FEF3FEF4FE78D
:104F00005FECC701B6010E94C03887FDF3CF20E0F7
:104F100030E0A901C701B6010E94C03887FF0BC06D
:104F20006DE284EF98E00E9406195C01F7FAF094B4
:104F3000F7F8F09402C0A12CB12C2AE037ED43EA37
:104F40005BE3C701B6010E94153A2B013C010E94A8
:104F50007E3A6B017C010E94C4389B01AC01C30105
:104F6000B2010E94143A2B013C012AE0B701A601CC
:104F700084EF98E00E9446197C01EA0CFB1C6EE26B
:104F800084EF98E00E940619E80EF91E20E030E058
:104F900040E251E4C301B2010E9425392B013C01DA
:104FA0000E947E3A4B01A12CB12C2AE0B501A4014C
:104FB00084EF98E00E944619E80EF91EC501B4017D
:104FC0000E94C4389B01AC01C301B2010E94143A93
:104FD00020E030E040E251E40E9425390E947E3A10
:104FE000AB0160E070E02AE084EF98E00E9446198F
:104FF000E80EF91E84EF98E00E94D1198E0D9F1DD6
:10500000FF90EF90DF90CF90BF90AF909F908F90E8
:105010007F906F905F904F900895CF92DF92EF92C4
:10502000FF92CF93DF936C01990FEE08FF08F7FE14
:1050300016C06DE284EF98E00E940619EC01442747
:105040005527BA014C195D096E097F092AE084EFE2
:1050500098E00E9446197C01EC0EFD1E08C02AE073
:10506000B701A60184EF98E00E9446197C0184EF05
:1050700098E00E94D1198E0D9F1DDF91CF91FF9076
:10508000EF90DF90CF9008958F929F92AF92BF9252
:10509000EF92FF920F931F93CF93DF931F921F9274
:1050A000CDB7DEB77B010E94BF058C01F70182817D
:1050B00093819A838983AE014F5F5F4F68EC73E001
:1050C000C8010E944309F701848195819A838983ED
:1050D000AE014F5F5F4F6CEB76E0C8010E94430961
:1050E000F70186819781009729F00E949A334B013E
:1050F0005C0103C0812C912C540168E775E0C80164
:105100000E943008009751F4C8010E94E8040097FB
:1051100071F028E735E0FC013383228328E030E09A
:10512000FC013583248386829782A086B186FCE0C9
:10513000EF0EF11C6EEB76E0C8010E94300800977C
:1051400051F4C8010E94E804009771F02EEB36E09C
:10515000FC0133832283BC016C5F7F4FA701F80100
:10516000808191810E940A05C8010F900F90DF9104
:10517000CF911F910F91FF90EF90BF90AF909F90B4
:105180008F90089590E0FC013197E231F10508F02D
:105190004EC08827E658FF4F8F4F0C94E13A80911C
:1051A00080008F7703C0809180008F7D8093800086
:1051B000089580918000877FF9CF84B58F7702C0F2
:1051C00084B58F7D84BD08958091B0008F7703C032
:1051D0008091B0008F7D8093B00008958091900001
:1051E0008F7707C0809190008F7D03C080919000E1
:1051F000877F8093900008958091A0008F7707C0EB
:105200008091A0008F7D03C08091A000877F809354
:10521000A0000895809120018F7707C08091200120
:105220008F7D03C080912001877F809320010895A6
:105230003FB7F89480911D0A90911E0AA0911F0A11
:10524000B091200A26B5A89B05C02F3F19F0019602
:10525000A11DB11D3FBFBA2FA92F982F8827820FFC
:10526000911DA11DB11DBC01CD0142E0660F771F4C
:10527000881F991F4A95D1F70895CF93DF93282F60
:1052800030E0F901E459FA4F8491F901EA5DFA4FEF
:10529000D491F901E052FB4FC491CC2389F08111E4
:1052A00071DFEC2FF0E0EE0FFF1FEA53FB4FA591EB
:1052B000B491EC91ED2381E090E021F480E002C014
:1052C00080E090E0DF91CF9108951F93CF93DF931B
:1052D000282F30E0F901E459FA4F8491F901EA5D91
:1052E000FA4FD491F901E052FB4FC491CC23C1F0A5
:1052F000162F811147DFEC2FF0E0EE0FFF1FE45572
:10530000FB4FA591B4918FB7F894111105C09C91F2
:10531000ED2FE095E92302C0EC91ED2BEC938FBFCC
:10532000DF91CF911F910895CF93DF9390E0FC011F
:10533000EA5DFA4F2491FC01E052FB4F84918823EF
:1053400061F190E0880F991FFC01EE56FB4FC5916B
:10535000D491FC01E455FB4FA591B491611109C0B2
:105360009FB7F8948881209582238883EC912E231F
:105370000BC0623061F49FB7F8943881822F80951A
:1053800083238883EC912E2B2C939FBF06C08FB76D
:10539000F894E8812E2B28838FBFDF91CF91089559
:1053A0008F929F92AF92BF92CF92DF92EF92FF9235
:1053B0006B017C013DDF4B015C01C114D104E104B0
:1053C000F104E9F035DFDC01CB0188199909AA095C
:1053D000BB09883E9340A105B10578F321E0C21ACC
:1053E000D108E108F10888EE880E83E0981EA11C20
:1053F000B11CC114D104E104F10421F7DECFFF9008
:10540000EF90DF90CF90BF90AF909F908F900895D6
:105410002FB7F8946091190A70911A0A80911B0AAB
:1054200090911C0A2FBF08958F929F92AF92BF92C6
:10543000CF92DF92EF92FF92CF93DF93F82EEB01A2
:10544000E42E6901E5DF4B015C018091B807909182
:10545000B907DC01ED91FC910084F185E02D1995EF
:10546000892B09F472C08091B8079091B907DC01CB
:10547000ED91FC91EE2031F00484F585E02D199535
:10548000888318C00284F385E02D19958883809164
:10549000140A9091150AA091160AB091170A019763
:1054A000A109B1098093140A9093150AA093160AD2
:1054B000B093170A8091140A9091150AA091160AC8
:1054C000B091170A892B8A2B8B2B11F081E08BC0AE
:1054D00065E070E080E090E063DF8091B807909134
:1054E000B907DC01ED91FC910084F185E02D19955F
:1054F000892B61F38091B8079091B907DC01ED9198
:10550000FC910484F585E02D19952F2D30E0205D68
:105510003F4F82179307D1F640E061EC76E084EFCD
:1055200091E00E94EF0E059761F064E873E084EF6C
:1055300098E00E94F4196BEB75E084EF98E00E940C
:10554000E41981E0F60180834EC062DFDC01CB010B
:1055500088199909AA09BB09803D9740A105B105A1
:1055600008F473CF64E873E084EF98E00E94F419C4
:1055700062EB75E084EF98E00E940D1962EE73E033
:1055800084EF98E00E94F419C090140AD090150A94
:10559000E090160AF090170AF7FE0EC06DE284EF55
:1055A00098E00E94061944275527BA014C195D0955
:1055B0006E097F092AE003C02AE0B701A60184EF43
:1055C00098E00E94461984EF98E00E94D119109249
:1055D000140A1092150A1092160A1092170A1092C5
:1055E000130A188280E0DF91CF91FF90EF90DF9057
:1055F000CF90BF90AF909F908F9008951F920F9281
:105600000FB60F9211242F933F938F939F93AF93D5
:10561000BF938091190A90911A0AA0911B0AB09128
:105620001C0A3091180A23E0230F2D3720F401962D
:10563000A11DB11D05C026E8230F0296A11DB11DB5
:105640002093180A8093190A90931A0AA0931B0AB0
:10565000B0931C0A80911D0A90911E0AA0911F0A06
:10566000B091200A0196A11DB11D80931D0A90934F
:105670001E0AA0931F0AB093200ABF91AF919F9179
:105680008F913F912F910F900FBE0F901F90189503
:10569000CF93DF93CDB7DEB7E0970FB6F894DEBFB8
:1056A0000FBECDBF789484B5826084BD84B581601F
:1056B00084BD85B5826085BD85B5816085BD8091DD
:1056C0006E00816080936E00109281008091810055
:1056D000826080938100809181008160809381004D
:1056E000809180008160809380008091B10084600F
:1056F0008093B1008091B00081608093B000809170
:1057000091008260809391008091910081608093EC
:105710009100809190008160809390008091A10021
:1057200082608093A1008091A10081608093A1009C
:105730008091A00081608093A0008091210182600F
:1057400080932101809121018160809321018091CA
:10575000200181608093200180917A008460809391
:105760007A0080917A00826080937A0080917A003A
:10577000816080937A0080917A00806880937A00BB
:105780001092C10086E090E00E94033B7C0183E11F
:1057900092E0D70111969C938E9380E490E013964B
:1057A0009C938E93129789E290E015969C938E932A
:1057B000149760E0B9DD60E080E4B6DDF092D706D2
:1057C000E092D60686E090E00E94033B8C018BE1DC
:1057D00092E0F8019183808381E490E09383828357
:1057E00087E290E09583848360E09EDD60E081E461
:1057F0009BDD1093D5060093D40684E090E00E94D0
:10580000033B6C0183E292E0D6018D939C938EE082
:1058100090E00E94033B5C0160E086E385DDECE5FF
:10582000F5E0E491D501EC93E6E1F5E0E491F0E0F8
:10583000EE0FFF1FEA53FB4F85919491F501928380
:1058400081831386158614863B96C50103961292B2
:10585000E817F907E1F783E190E00E94033BFC01C0
:1058600081EB9BE1928B818BB682A58214821082A0
:1058700089E08183BB24B394B282B382D6011396AC
:10588000FC93EE931297D092DF06C092DE0688E07A
:1058900090E00E94033BFC018BE292E091838083C5
:1058A000F782E68215830483D382C282F093ED06E9
:1058B000E093EC0640E855E260E070E084EF98E0A9
:1058C000EED840E855E260E070E087E598E0E7D880
:1058D00040E052EC61E070E08AEB97E0E0D88CE0C9
:1058E00090E00E94033B8C01FC011382128283E34F
:1058F00092E09183808387E2848380E1818782E0E4
:105900008287138684E090E00E94033B7C018FE352
:1059100092E0D70111969C938E9313961C930E934D
:105920001297F092E306E092E20684E090E00E9493
:10593000033B8C0187E492E0F8019183808382E04D
:1059400090E09383828361E0EFDC1093E90600939B
:10595000E80684E090E00E94033B2FE432E0DC01A3
:1059600011963C932E931396FC92EE92129790937D
:10597000E7068093E60682E090E00E94033B8C01FC
:105980008FE592E0F8019183808384E090E00E94AB
:10599000033BFC0187E592E09183808313830283BC
:1059A000F093E506E093E406D70112960D911C9161
:1059B00013971092D2061092D1061092D006109230
:1059C000CF061092CE06B092CD061092CC0661E0C2
:1059D00084E17BDC61E085E178DC8091B9008E7F39
:1059E0008093B9008091B9008D7F8093B90088E4DD
:1059F0008093B80085E48093BC00F801158282850D
:105A0000823010F098E09583D80118968C938BE340
:105A10009DE00197F1F7F8016385C8010E94C41E5B
:105A200068EE73E080E090E0BBDC60E3C8010E94B8
:105A3000291FEBE4CE2EE6E4DE2EC6010197F1F736
:105A400060E3C8010E94291FC6010197F1F760E3D6
:105A5000C8010E94291F83E592E00197F1F760E2F7
:105A6000C8010E94291FD80115966C91606240E020
:105A7000C8010E943F1F84E0F801868340E06CE08B
:105A8000C8010E943F1FC8010E94581F82E0D80130
:105A900017968C9340E066E0C8010E943F1F40E0EB
:105AA00062E0C8010E943F1F8BE39FE10197F1F77D
:105AB000F7018281938128E0DC011B962C9360E042
:105AC0000E94C41E0091E2061091E30660E0F80116
:105AD000828193810E94242563E773E0D8011296A6
