:10000000E9C2000018C3000016C3000014C30000BA
:1000100012C3000010C300000EC300000CC3000098
:100020000AC3000008C3000006C3000004C30000A8
:1000300002C300000C94C626FEC20000FCC20000F1
:10004000FAC20000F8C20000F6C20000F4C20000CC
:10005000F2C20000F0C20000EEC200000C94012CBD
:10006000EAC200000C947C290C945329E4C20000DD
:10007000E2C20000E0C20000DEC20000DCC20000FC
:10008000DAC20000D8C20000D6C20000D4C200000C
:100090000C942A290C940129CEC20000B3C300009D
:1000A000CAC20000C8C20000C6C20000C4C200002C
:1000B000C2C20000C0C20000BEC20000BCC200003C
:1000C000BAC20000B8C20000B6C200000C94D82822
:1000D0000C94AF28B0C20000AEC20000ACC2000059
:1000E000AAC20000571E511E691E601E5C1E281EFB
:1000F0004B1EEE1DE829EB29DA29DE29E429222A04
:10010000EF29F329F929FD29012A072A0B2A0F2AA9
:10011000222A152A192A1D2A4E414E494E49545960
:10012000494E46CDCCCC3D0AD7233C17B7D13877C2
:10013000CC2B329595E6241FB14F0A0000204100D8
:1001400000C84200401C4620BCBE4CCA1B0E5AAE22
:10015000C59D740D0A0053444B2076657273696F18
:100160006E3A0041542B474D520041542B435744A3
:100170004843503D312C310041542B435741555495
:100180004F434F4E4E3D300041542B43495044495C
:100190004E464F3D310041542B4349504D55583D3B
:1001A000310041542B43574D4F44453D310041549C
:1001B00045300041542B52535400496E6974696CA8
:1001C000697A6174696F6E207375636365737366B2
:1001D000756C202D005761726E696E673A20556EFE
:1001E000737570706F72746564206669726D776183
:1001F00072650043616E6E6F7420696E6974696127
:100200006C697A6520455350206D6F64756C65008C
:10021000415400496E697469616C697A696E67203E
:10022000455350206D6F64756C65000D0A00535482
:10023000415455533A0041542B434950535441546F
:10024000555300456E6420746167206E6F7420669C
:100250006F756E64004E6F2074616720666F756EF7
:1002600064003E3E3E2054494D454F5554203E3E8D
:100270003E0025642E25642E25642E2564004461ED
:100280007461207061636B65742073656E642065B2
:1002900072726F722028322900446174612070618B
:1002A000636B65742073656E64206572726F722073
:1002B0002831290041542B43495053454E443D2594
:1002C000642C2575004661696C656420746F207725
:1002D0007269746520746F20736F636B657400417D
:1002E000542B434950434C4F53453D2564004469CA
:1002F00073636F6E6E656374696E67200041542B83
:10030000434950535441545553002B43495053547F
:10031000415455533A25642C004E6F20736F636B24
:10032000657420617661696C61626C650041542B73
:1003300043495053544152543D25642C2254435058
:10034000222C222573222C257500436F6E6E656367
:1003500074696E6720746F00005EBCE2613FDD83EC
:10036000C29C7E20A3FD1F419DC3217FFCA2401E95
:100370005F01E3BD3E6082DC237D9FC1421CFEA085
:10038000E1BF5D0380DE3C62BEE0025CDF81633D75
:100390007C22C09E1D43A1FF4618FAA427799BC565
:1003A00084DA3866E5BB5907DB856739BAE4065855
:1003B0001947A5FB7826C49A653BD987045AB8E645
:1003C000A7F91B45C6987A24F8A6441A99C7257B35
:1003D0003A6486D85B05E7B98CD2306EEDB3510F25
:1003E0004E10F2AC2F7193CD114FADF3702ECC9215
:1003F000D38D6F31B2EC0E50AFF1134DCE90722C05
:100400006D33D18F0C52B0EE326C8ED0530DEFB1F4
:10041000F0AE4C1291CF2D73CA947628ABF51749E4
:100420000856B4EA6937D58B5709EBB536688AD4D4
:1004300095CB2977F4AA4816E9B7550B88D6346AC4
:100440002B7597C94A14F6A8742AC896154BA9F7B4
:10045000B6E80A54D7896B35436F6E6E6563746571
:100460006420746F004661696C656420636F6E6E12
:10047000656374696E6720746F0041542B43574A5B
:1004800041505F4355523D222573222C2225732271
:10049000000200002100240027002A002D00300067
:1004A000330001010000040107010A0100002200DD
:1004B000250028002B002E0031003400020100002E
:1004C000050108010B01000020002300260029007F
:1004D0002C002F0032000001000003010601090179
:1004E00005050505070508080808020202020A0AB0
:1004F00008080404040401010101010101010303CE
:10050000030303030303040707070C0C0C0C0C0C78
:100510000C0C0202020206060606060606060B0B75
:100520000B0B0B0B0B0B01021020200808102040B6
:1005300010204080020102010804020101020408A7
:100540001020408080402010080402018004020135
:10055000804020100804020108040201010204087E
:1005600010204080010204081020408000000A0B87
:1005700002090C0D0E080703040100000000000032
:10058000000000000000000000000000000000006B
:100590000000000000000000121110000000000028
:1005A000000000000000000000000000000000004B
:1005B000000054494D454F55543A0054616720435B
:1005C0004C4F534544206E6F7420666F756E640007
:1005D0001A344B3511241FBECFEFD1E2DEBFCDBFA1
:1005E00000E00CBF2AE0A0E6B7E001C01D92A23CEB
:1005F000B207E1F717E0A0E0B2E0E4EDFEE700E0CB
:100600000BBF02C007900D92A036B107D9F712E0D8
:10061000C9EED2E000E006C021970109802FFE015B
:100620000E94B83CC83ED10780E00807A9F70E94A5
:100630004B2C0C94593FE4CC85ED8093BC00809109
:10064000BC0084FDFCCF109262070895FC01268156
:100650003781620F731F848195818617970738F061
:100660008281938177836683820F931F089580E050
:1006700090E00895DB01109749F0ED91FC911197FE
:100680000190F081E02DBC01CD01199480E090E053
:100690000895CF92DF92EF92FF920F931F93CF9323
:1006A000DF938C017B01DC011596CD91DC911697CF
:1006B0006B016C177D0708F46E01C60106960E9457
:1006C000DA3CFC01892BB1F0D382C282D8011396A7
:1006D0008D919C911497918380831496FC93EE9353
:1006E0001397CC0FDD1F1696DC93CE931597F582EA
:1006F000E4823696CF01DF91CF911F910F91FF9049
:10070000EF90DF90CF900895DC011396ED91FC916E
:100710001497309751F024813581AB01420F531F5C
:10072000A281B381A417B50708F4B3CFC901069617
:10073000558344838E0F9F1F0895FF920F931F933D
:10074000CF93DF93EC01F62E88819981FC01A38180
:10075000B481109771F01496ED91FC9115979F015B
:100760002F5F3F4F12964D915C911397421753079D
:1007700050F52C813D81B9016F5F7F4F8ADF8C017D
:100780006A817B816115710549F00115110571F0D0
:100790004C815D81C8010E94EF3E03C00115110527
:1007A00029F0EC81FD81E00FF11FF0821B830A83A9
:1007B0008C819D8101969D838C83DF91CF911F91C8
:1007C0000F91FF9008953696EA0FFB1F15963C9304
:1007D0002E93149760838C819D81892B49F7FB832D
:1007E000EA83E6CF0C946F3D0C946F3D0C946F3D03
:1007F0000C946F3D0C946F3D0C946F3D0C946F3DC9
:100800000C946F3D1F920F920FB60F9211240BB6EE
:100810000F922F933F934F935F936F937F938F9399
:100820009F93AF93BF93EF93FF938091B900887F1D
:10083000803609F49CC068F5883209F45BC090F4F6
:10084000803109F454C038F4882309F4F6C08830A4
:1008500009F44DC0F5C0883109F44CC0803209F468
:100860005DC0EEC0803409F468C048F4803309F4F8
:1008700055C0883309F0E4C080930108D8C08035A2
:1008800009F44FC0883509F45DC0883409F0D8C038
:10089000D6C0883909F4C7C0A8F4883709F467C0FE
:1008A00038F4883609F463C0803709F460C0C8C0E2
:1008B000883809F4B8C0803909F45FC0803809F07D
:1008C000BFC05BC0803B09F486C038F4803A09F4AD
:1008D00066C0883A09F47FC0B3C0803C09F4A7C061
:1008E000883C09F4A4C0883B09F48AC0A9C080915F
:1008F000DE0710C0909100088091FF07981770F5EF
:10090000E091000881E08E0F80930008F0E0E15252
:10091000F84F80818093BB0085EC86C080930108EE
:100920008EC0E091000881E08E0F809300088091D6
:10093000BB00F0E0E152F84F808390910008809175
:10094000FF076EC0E091000881E08E0F80930008E1
:100950008091BB00F0E0E152F84F80838091610705
:1009600081116DC081E08093600784EA61C083E0FB
:10097000809362071092D507CFCF8091D507803240
:1009800008F051C0E091D50781E08E0F8093D50724
:100990008091BB00F0E0EB54F84F8083BDCF85EC35
:1009A0008093BC00109262078091D507803230F4AA
:1009B000E091D507F0E0EB54F84F10826091D50735
:1009C00070E0E091B307F091B40785EB97E01995DB
:1009D0001092D50735C084E0809362071092B20769
:1009E0001092B107E091AF07F091B007199580918F
:1009F000B107811105C081E08093B10710928F0784
:100A0000E091B20781E08E0F8093B207F0E0E157EA
:100A1000F84F80818093BB009091B2078091B1071D
:100A2000981708F479CF85E88093BC0009C085EC5D
:100A30008093BC001092620703C010920108FCDD95
:100A4000FF91EF91BF91AF919F918F917F916F91A6
:100A50005F914F913F912F910F900BBE0F900FBE62
:100A60000F901F9018954091B107262F30E0240F6A
:100A7000311D21323105DCF4209162072430C9F4A4
:100A8000FC0180E090E0861758F43091B107219185
:100A9000DC01A157B84FA30FB11D2C930196F3CFE2
:100AA0008091B107680F6093B10780E0089581E0FD
:100AB000089582E00895FC01A081B1818C918D3070
:100AC00051F024F489508230B8F505C0803219F015
:100AD0008F3219F0089511962CC011968C911197B0
:100AE0008A3219F08F32D1F008951196B183A08324
:100AF000A081B181CD0101969183808311968C9163
:100B000011978823C9F08A3299F712968C9112971F
:100B10008F3271F713960DC08A3071F2A081B181C6
:100B2000CD0101969183808311968C918111F4CF30
:100B300003C0B183A083C0CF08950F931F93CF93B9
:100B4000DF931F92CDB7DEB78C016983B4DFD80184
:100B5000ED91FC91119780816981861305C03196D2
:100B6000ED93FC9381E001C080E00F90DF91CF9185
:100B70001F910F910895EF92FF921F93CF93DF93F0
:100B800000D000D0CDB7DEB77C01DC0114968D918A
:100B90009C9115979A8389831C821B821E821D82D9
:100BA000C701029688DFD7011296ED91FC91139749
:100BB0001081173231F1123221F180ED810F8A302C
:100BC00078F081EA810F8C3158F08FEB810F8A31F8
:100BD00038F01B3229F083ED810F823008F042C0DB
:100BE000F70182819381019693838283612FCE01E5
:100BF0000196A3DDD7011296ED91FC911397108118
:100C0000DCCF3196D7011396FC93EE931297D70160
:100C10001296ED91FC9113976081662319F1CF0133
:100C2000019613969C938E9312976117D9F06C35A9
:100C3000A9F46181ABEDB4E08C91882339F086137F
:100C400003C011966C9102C01296F6CF662351F044
:100C50003296D7011396FC93EE931297CE0101962C
:100C60006CDDD5CF60E0CE01019667DD8B819C8184
:100C700026960FB6F894DEBF0FBECDBFDF91CF91A1
:100C80001F91FF90EF900895089508950895089595
:100C9000CF93DF93EC0166EE74E08BE699E00E945F
:100CA0008E28EA81FB81828193810E94781CEA81EF
:100CB000FB81848195810E94781C8A819B810696A4
:100CC0000E948F1B8A819B810C96DF91CF910C949F
:100CD0008F1B089508950895CF93DF93EC016881E9
:100CE00079818AE090E0C6DC009729F0FC0111824E
:100CF000108215821482EA81FB81309751F02081A5
:100D000031812115310511F0F901F9CF91838083EB
:100D100002C09B838A83DF91CF910895CF92DF92A7
:100D2000EF92FF920F931F93CF93DF937C018B0180
:100D3000EA010E94FD1FFC01892B39F4C701CCDFB9
:100D4000FC01892B91F01383028388819981892B7F
:100D500019F480E090E003C06E0187E090E0958395
:100D60008483C682D78281E001C080E0DF91CF9189
:100D70001F910F91FF90EF90DF90CF900895CF9249
:100D8000DF92EF92FF920F931F93CF93DF93DA01DD
:100D90002D913C91232B01F18A01EB01FA01E480B2
:100DA000F580FFEFEF1AFF0ADC01ED91FC91019055
:100DB000F081E02DB70119956C010097C9F0F80199
:100DC00060817181A7010E94EF3E82E090E09983EB
:100DD0008883DB82CA820AC082E090E0DB01119640
:100DE0009C938E9313961C921E92129781E001C0E1
:100DF00080E0DF91CF911F910F91FF90EF90DF90F6
:100E0000CF900895EF92FF920F931F93CF93DF93AC
:100E10008C01EB017A010E94FD1FFC01892B39F442
:100E2000C8015ADFFC01892BF9F0D383C283D701B3
:100E30004D915C9157FD07C0052E000C660B770B9A
:100E400084E090E009C0519541955109052E000CB0
:100E5000660B770B85E090E0958384834683578308
:100E60006087718781E001C080E0DF91CF911F91A1
:100E70000F91FF90EF900895CF93DF93EC0168817D
:100E8000798188E090E0F6DB009729F0FC0111827F
:100E9000108213821282EA81FB81309751F0208107
:100EA00031812115310511F0F901F9CF918380834A
:100EB00002C09B838A83DF91CF9108950F931F9384
:100EC000CF93DF93EC018B01D7DF009759F0BC0182
:100ED0006E5F7F4FA80188819981DF91CF911F912B
:100EE0000F914DCF80E0DF91CF911F910F91089529
:100EF0000895CF93DF93EC01BC0184E090E0BADB6E
:100F0000FC01009729F0D183C0831382128211C0A3
:100F10008091290881110BC0109226081092250893
:100F2000109228081092270881E08093290885E212
:100F300098E0DF91CF9108958091870781110BC0D0
:100F400010928407109283071092860710928507EB
:100F500081E08093870783E897E00895CF93DF933C
:100F6000EC01BC0184E090E085DB009741F0FC01DE
:100F7000D183C08313821282DF91CF910895DF91D4
:100F8000CF91DACF9F92AF92BF92CF92DF92EF9242
:100F9000FF920F931F93CF93DF9300D000D0CDB774
:100FA000DEB7D82EC92E082F192FF8018191919103
:100FB0008F01D4DF7C016BE7C801BFDD882309F412
:100FC0003DC06DE7C801B9DD81113AC086E0982EB9
:100FD0008D2D9C2DD0DD5C01892B81F16AE3C80148
:100FE000ACDD882359F11A821982BE016F5F7F4FF1
:100FF0008D2D9C2D0E94B61A882301F1B501C701E1
:101000000E94FD1F009739F4C70166DE0097B1F01A
:10101000FC01B382A282FE013196DC011496892D77
:1010200001900D928A95E1F76DE7C80186DD811187
:1010300007C06CE2C80181DD8111CACF7DDF01C02C
:10104000C70126960FB6F894DEBF0FBECDBFDF9165
:10105000CF911F910F91FF90EF90DF90CF90BF90B5
:10106000AF909F900895EF92FF920F931F93CF93AD
:10107000DF93CDB7DEB72E970FB6F894DEBF0FBE65
:10108000CDBF8B018DE892E0998788871C861B86EF
:1010900080E092E09E878D87CB010E948F1BF80134
:1010A00080819181009711F485EE94E09E01285F84
:1010B0003F4F3A8329839C838B833E832D838AE031
:1010C0008F83CE0101965EDF8C018DE892E09987D7
:1010D0008887EB85FC85309759F0828193819E87C4
:1010E0008D87E080F180CF010E946F3DF701F3CF43
:1010F000C8012E960FB6F894DEBF0FBECDBFDF91AC
:10110000CF911F910F91FF90EF9008950F931F9330
:10111000CF93DF93CDB7DEB766970FB6F894DEBFF7
:101120000FBECDBF8C01CB011E8AFE0176962AE050
:1011300030E0B9010E94893C90E3980F9293CB0173
:101140000097B9F7BF01C8010E942F1D66960FB620
:10115000F894DEBF0FBECDBFDF91CF911F910F91ED
:1011600008958F929F92AF92BF92EF92FF920F934A
:101170001F93CF93DF93CDB7DEB766970FB6F89482
:10118000DEBF0FBECDBF7C011E8A8E010A5E1F4FDF
:101190008AE0882E912CA12CB12CCB01BA01A5019B
:1011A00094010E94B03B942F852F605DF8016293FB
:1011B0008F01A901692F782F41155105610571052E
:1011C00061F7BF01C7010E942F1D66960FB6F89404
:1011D000DEBF0FBECDBFDF91CF911F910F91FF906A
:1011E000EF90BF90AF909F908F900895CF93DF9333
:1011F000EC01E881F981808191810E94E7258A8153
:101200009B8101969B838A83DF91CF91089521E092
:10121000FC0184858F3F09F420E0822F0895CF934D
:10122000DF93EC01E881F9810084F185E02DCE01A6
:101230001995892B41F0E881F9810284F385E02D2D
:10124000CE011995EFCFDF91CF910895CF93DF9322
:101250001F92CDB7DEB76983DC01ED91FC9102806E
:10126000F381E02D41E050E0BE016F5F7F4F1995A3
:101270000F90DF91CF910895089581E090E0309133
:10128000660720916507321710F480E090E0919591
:101290008195910908958091660790916507891756
:1012A00030F48F5F8093660780E090E008958FEFC1
:1012B0009FEF08958091650790E020916607821B5B
:1012C00091090895089580E090E008950F931F9389
:1012D000CF93DF931F921F92CDB7DEB78C01DC0155
:1012E000ED91FC910084F185E02D1995892B29F170
:1012F0001982F80184859091620A891309C09E01C0
:101300002F5F3F4F41E0BE016E5F7F4F0E941F2B5A
:101310008981882379F0D8011C96EC911C97F0E024
:10132000EE0FFF1FE050FE4F8FEF9FEF9183808302
:101330001C968C938A8190E002C08FEF9FEF0F90F4
:101340000F90DF91CF911F910F9108950F931F93ED
:10135000CF93DF931F921F92CDB7DEB78C01DC01D4
:10136000ED91FC910084F185E02D1995892B29F1EF
:101370001982F80184859091620A891309C09E013F
:101380002F5F3F4F40E0BE016E5F7F4F0E941F2BDB
:101390008981882379F0D8011C96EC911C97F0E0A4
:1013A000EE0FFF1FE050FE4F8FEF9FEF9183808382
:1013B0001C968C938A8190E002C08FEF9FEF0F9074
:1013C0000F90DF91CF911F910F9108958F929F926F
:1013D000AF92BF92CF92DF92EF92FF920F931F9343
:1013E000CF93DF931F921F92CDB7DEB77C018A01A6
:1013F000DC01ED91FC910084F185E02D69837A8315
:10140000199569817A81892B19F48FEF9FEF58C064
:10141000F70194858091620A981350C08091630A05
:101420009091640AA091650AB091660A4801A12CC6
:10143000B12C88159905AA05BB050CF48C016B012C
:101440007B01E00EF11ECE14DF04B1F10E94132BDC
:101450004B015C018091DC079091DD07DC01ED918F
:10146000FC910284F385E02D199597FF0EC00E9430
:10147000132BDC01CB0188199909AA09BB09883E05
:101480009340A105B10530F3C0CFD6018D936D0116
:101490008091630A9091640AA091650AB091660AEE
:1014A0000197A109B1098093630A9093640AA093FC
:1014B000650AB093660AC7CFC80102C080E090E019
:1014C0000F900F90DF91CF911F910F91FF90EF90B0
:1014D000DF90CF90BF90AF909F908F900895EF9244
:1014E000FF920F931F93CF93DF93CDB7DEB7629731
:1014F0000FB6F894DEBF0FBECDBF7C01FB01858126
:101500001F928F9384811F928F9383811F928F9359
:1015100082811F928F9322E732E03F932F938E01B7
:101520000F5F1F4F1F930F93498B5A8B0E940536F5
:1015300049895A89B801C701F9D70FB6F894DEBFB7
:101540000FBECDBF62960FB6F894DEBF0FBECDBF03
:10155000DF91CF911F910F91FF90EF900895E6C713
:10156000CF92DF92EF92FF920F931F93CF93DF936F
:101570004091630A5091640A6091650A7091660A0D
:10158000141615061606170644F49091620A981769
:1015900011F0911102C0CA01FFC0182F8091DC0721
:1015A0009091DD07DC01ED91FC910084F185E02D47
:1015B0001995892B19F480E090E0EEC0E090DC07EB
:1015C000F090DD07C0E0D0E0C7010E94922797FDB0
:1015D00043C0FE01E250FB4F2081022E000C330B72
:1015E0008217930789F1209779F36FEF74E09E01DA
:1015F00021503109F901E250FB4F4081042E000CCB
:10160000550B84179507E1F421153105E9F2EEEF4A
:10161000F4E040E050E001916B01C40ED51ED6010C
:10162000DC900D1539F04217530771F26F5F7F4F51
:10163000E901DDCF4F5F5F4F4217530760F3F3CFF0
:101640002115310599F7BECF2196C530D10509F096
:10165000BBCF80E090E002C08FEF9FEF892B09F0B5
:10166000AACF8091DC079091DD07CDD66093620A06
:101670008091DC079091DD07DC01ED91FC91028403
:10168000F385E02D19958091DC079091DD07BBD69D
:101690006093630A7093640A8093650A9093660A64
:1016A0008091DC079091DD07DC01ED91FC910284D3
:1016B000F385E02D19958091DC079091DD07A3D685
:1016C0006093D8078091DC079091DD07DC01ED91F4
:1016D000FC910284F385E02D19958091DC079091AF
:1016E000DD0791D66093D9078091DC079091DD07E3
:1016F000DC01ED91FC910284F385E02D1995809138
:10170000DC079091DD077FD66093DA078091DC07D4
:101710009091DD07DC01ED91FC910284F385E02DD1
:1017200019958091DC079091DD076DD66093DB07FA
:101730008091DC079091DD07DC01ED91FC91028442
:10174000F385E02D19958091DC079091DD07DC0190
:10175000ED91FC910284F385E02D19958091DC07D1
:101760009091DD0750D67093D7076093D60780918C
:10177000DC079091DD07DC01ED91FC910284F3859B
:10178000E02D19958091620A811711F0111113CF84
:101790008091630A9091640ADF91CF911F910F911C
:1017A000FF90EF90DF90CF900895FC0184858F3FEC
:1017B00019F0D6DE97FF02C080E090E00895CF9246
:1017C000DF92EF92FF920F931F93CF93DF937C01F1
:1017D000262F972F8A0180910208882391F0C62F27
:1017E000D72F6E01C40ED51ECC15DD0569F06991A9
:1017F000D701ED91FC910190F081E02DC701199581
:10180000F3CF642F822F2FD9C801DF91CF911F9181
:101810000F91FF90EF90DF90CF900895CF93DF93DB
:101820001F92CDB7DEB76983209102082223D1F041
:1018300020916307203240F021E030E0FC01338347
:10184000228380E090E014C080916407E82FF0E0EC
:10185000ED5FF74F998190838F5F8093640780934A
:10186000630704C061E0CE010196FDD881E090E0FD
:101870000F90DF91CF910895FC0190810180F2815A
:10188000E02DF8948181892B81832281892F809595
:1018900028232283A7E0B0E01197F1F7218182236A
:1018A0008183A3E2B0E01197F1F780817894EFECA7
:1018B000F0E03197F1F7982381E009F480E0089592
:1018C000FC0190810180F281E02D892F809560FFDD
:1018D00012C0F8942281822382838181892B8183A3
:1018E000A3E2B0E01197F1F78281982B928378946C
:1018F00087ED90E011C0F894228182238283818158
:10190000892B8183AFEFB0E01197F1F78281982B9B
:10191000928378948FE090E00197F1F70895FC01AD
:1019200090810180F281E02DF8948181292F20950A
:101930008223818378948DE743E050E0815021F148
:10194000DA011197F1F730813923C1F3F8948281DC
:10195000822382838181892B81837894ABE7B7E0EE
:101960001197F1F7F894818128232183A3E1B1E055
:101970001197F1F78081982381E009F080E0789455
:10198000E3E6F6E03197F1F708958091DC07909156
:10199000DD07DC01ED91FC910084F185E02D1995C6
:1019A0001816190664F48091DC079091DD07DC01BC
:1019B000ED91FC910284F385E02D1995E6CF089511
:1019C0003F924F925F926F927F928F929F92AF92CF
:1019D000BF92CF92DF92EF92FF920F931F93CF931C
:1019E000DF936C015B01342E8091980A9091990AE3
:1019F00090939D0A80939C0A0E94132B2B013C011B
:101A0000CFEFDFEF0D2C000CEE08FF080E94132B28
:101A1000DC01CB0184199509A609B7098C159D0530
:101A2000AE05BF0508F05BC0CF3FFFEFDF0709F051
:101A300056C08091DC079091DD07DC01ED91FC91AF
:101A40000084F185E02D1995892B01F38091DC0745
:101A50009091DD07DC01ED91FC910284F385E02D8E
:101A60001995E0919C0AF0919D0A808380919C0ACF
:101A700090919D0A019690939D0A80939C0A2091D3
:101A80009A0A30919B0A8217930740F08091980A36
:101A90009091990A90939D0A80939C0AA114B10495
:101AA00031F0C5017CD4882311F0C5E0D0E03320AB
:101AB00009F4ACCF8FE8882E82E0982E00E010E089
:101AC000F401819191914F016AD4811106C00F5F99
:101AD0001F4F05301105A1F799CFE80197CF0E945C
:101AE000132BDC01CB0184199509A609B7098C15C4
:101AF0009D05AE05BF0560F062E973E08BE699E0F5
:101B00000E94AE2862E672E08BE699E00E949E2871
:101B1000CE01DF91CF911F910F91FF90EF90DF9059
:101B2000CF90BF90AF909F908F907F906F905F907D
:101B30004F903F900895AF92BF92CF92DF92EF9275
:101B4000FF920F931F93CF93DF93CDB7DEB76497C8
:101B50000FB6F894DEBF0FBECDBF7C015B018A01DA
:101B6000DC011C968C91843018F44115510531F438
:101B700081E090E0F7019383828379C01F934F93B4
:101B80001F928F9384EB92E09F938F939E012F5F20
:101B90003F4F69013F932F930E940536B601809114
:101BA000DC079091DD070E948E2840E064E075E03C
:101BB00088EE93E005DF0FB6F894DEBF0FBECDBF11
:101BC000059749F062E973E08BE699E00E94AE2840
:101BD00069E972E01DC08091DC079091DD07DC01AE
:101BE000ED91FC910280F381E02DA801B5011995DA
:101BF00041E060E070E080ED97E0E2DE0397D1F134
:101C000062E973E08BE699E00E94AE286EE772E02D
:101C10008BE699E00E949E2881E090E0F701938393
:101C2000828362E973E08BE699E00E94AE2865EC5E
:101C300072E08BE699E00E94C7276CEE73E08BE6BA
:101C400099E00E94AE28D7011C966C918BE699E032
:101C50008FD360EA7FE080E090E00E94DB2AD7012A
:101C6000ED91FC910488F589E02DC701199580E07C
:101C700090E001C0C80164960FB6F894DEBF0FBEB5
:101C8000CDBFDF91CF911F910F91FF90EF90DF902B
:101C9000CF90BF90AF900895AF92BF92CF92DF9256
:101CA000EF92FF920F931F93CF93DF935C016B0131
:101CB0007A01E901188281E068DEB5018091DC07D4
:101CC0009091DD070E949E2841E0B60188EE93E0E6
:101CD00077DE8530910509F048C08091980A90918F
:101CE000990A90939D0A80939C0A4091960A50917C
:101CF000970A4F5F5F4F60E070E00E94F83E41E05E
:101D0000B70184EF91E05CDE059731F5A801415001
:101D10005109F70101900020E9F73197CF018E19A1
:101D20009F096091980A7091990AE0919C0AF0913C
:101D30009D0AE61BF70BE81BF90B4E175F0708F02F
:101D4000AF01CE010E941A3F41E060E070E080EDFB
:101D500097E036DE81E018C062E973E08BE699E037
:101D60000E94AE2863E472E00AC0059760F062E961
:101D700073E08BE699E00E94AE2865E572E08BE6A1
:101D800099E00E949E2880E0DF91CF911F910F91F2
:101D9000FF90EF90DF90CF90BF90AF900895CF92DB
:101DA000DF92EF92FF920F931F93CF93DF93CDB704
:101DB000DEB76E970FB6F894DEBF0FBECDBFFC0145
:101DC00084858F3FC1F17F01CBDB892B11F084E04B
:101DD00033C0D7011C968C911F928F938AE093E0B9
:101DE0009F938F93FE0131966F01FF93EF930E94B3
:101DF00005360AE010E09E012B5E3F4F42E055E0C1
:101E0000B6018DEF92E048DF0F900F900F900F908A
:101E10000F900F908111DBCFD7011C96EC911C978E
:101E2000F0E0EE0FFF1FE050FE4F8FEF9FEF91832A
:101E300080831C968C9380E06E960FB6F894DEBF7C
:101E40000FBECDBFDF91CF911F910F91FF90EF900B
:101E5000DF90CF900895A3DF91E0843009F090E007
:101E6000892F0895CF93DF93CDB7DEB7C85CD10932
:101E70000FB6F894DEBF0FBECDBF9E012E523F4F6E
:101E8000C253DF4F48815981CE5CD04068EC70E08E
:101E9000CE0101960E94343681E077DDBE016F5F8E
:101EA0007F4F8091DC079091DD070E948E2841E0F2
:101EB00060E070E0C053DF4F88819981C05DD04001
:101EC0007FDDC853DF4F0FB6F894DEBF0FBECDBF26
:101ED000DF91CF910895CF93DF93FC0124852F3FAD
:101EE000A1F1EC0162E973E08BE699E00E94AE2873
:101EF0006EEE72E08BE699E00E94C7276CEE73E00D
:101F00008BE699E00E94AE286C858BE699E030D292
:101F10008C851F928F938FE08F9380EA8F938FED44
:101F200092E09F938F939EDFEC85F0E0EE0FFF1F12
:101F3000E050FE4F8FEF9FEF918380838C870F904F
:101F40000F900F900F900F900F90DF91CF91089509
:101F50006F927F928F929F92AF92BF92CF92DF92B9
:101F6000EF92FF920F931F93CF93DF9300D01F92B6
:101F7000CDB7DEB74C015A016DB67EB6CB012B83CF
:101F80003C8369837A830E94BC3501964DB75EB766
:101F9000481B590B0FB6F8945EBF0FBE4DBF8DB7EF
:101FA0009EB701967C0169817A810E94B535C50191
:101FB0000E94BC3501964DB75EB7481B590B0FB652
:101FC000F8945EBF0FBE4DBF8DB79EB701966C01F2
:101FD000B5010E94B5352B813C81A601B701C40132
:101FE0005BDE0FB6F8947EBE0FBE6DBE0F900F90F5
:101FF0000F900F90DF91CF911F910F91FF90EF9075
:10200000DF90CF90BF90AF909F908F907F906F9018
:1020100008950F931F93CF93DF93CDB7DEB72A9721
:102020000FB6F894DEBF0FBECDBF0AE010E09E01F0
:102030002F5F3F4F4BE252E06EE272E086E392E0A8
:1020400087DF882371F0CE0101960E946A359C01DA
:10205000225031092330310530F0059731F080E00E
:1020600005C08FEF03C081E001C083E02A960FB660
:10207000F894DEBF0FBECDBFDF91CF911F910F91BE
:1020800008954F925F926F927F928F929F92AF923C
:10209000BF92CF92DF92EF92FF920F931F93CF9355
:1020A000DF93CDB7DEB7C656D2400FB6F894DEBF89
:1020B0000FBECDBF7C016B015A01CE0109969C83F6
:1020C0008B8388E592E09E838D8318861F8283EC44
:1020D00092E09A838983CE0101960E94AE078C011B
:1020E000F60182819381CF59DD4F99838883C15650
:1020F000D240AE014F595D4F67E375E0C8010E94C1
:102100000207F60144805580668077806BE375E0B6
:10211000C8010E94FD1FFC01892B51F4C8010E94D7
:102120006C06FC01892B61F08BE395E0938382833D
:1021300088E090E09583848346825782608671862A
:10214000F80180819181009781F4809129088111A3
:1021500032C010922608109225081092280810927A
:10216000270881E08093290826C00E9479073C0156
:1021700060E475E0C8010E94FD1F009751F4C8019A
:102180000E946C060097D9F020E435E0FC0133830F
:102190002283F30120813181232B19F420E030E0E8
:1021A00004C0962C872C26E030E0FC013583248384
:1021B0009682878204C085E2682E88E0782EF60138
:1021C0008085882329F066E77AE0C3010E945E07D4
:1021D000F6018185882329F062E87AE0C3010E9434
:1021E0005E0720E030E040E252E4F6016481758150
:1021F000868197810E94813C18162CF46CE77AE066
:10220000C3010E945E07F50182809380C480D5805F
:1022100064E475E08BE699E00E948E28F4018281E7
:1022200093810E94781CF401848195810E94781C1E
:10223000F40186819781009719F00E94673503C0E9
:1022400060E070E0CB010E94A41BC4010C960E94C8
:102250008F1BF601828193810E94781CF601848194
:1022600095810E94781CF60186819781009719F06C
:102270000E94673503C060E070E0CB010E94A41BA0
:10228000C6010C960E948F1BF50162817381CE01FD
:1022900001960E94AF1C4C01F50164817581CE014D
:1022A00001960E94AF1C5C01CE0101960E94AE0710
:1022B0006C01A40166E675E00E948E06A5016AE63F
:1022C00075E0C6010E948E06F80180819181009719
:1022D00019F40E949C0708C00E94AE07AC016FE68B
:1022E00075E0C8010E948E06A6016FE675E0C80180
:1022F0000E948E0665EE74E0C7010E94B226FE01C0
:10230000EB59FD4FF182E082CF59DD4FF983E8832D
:10231000C156D240CD59DD4F19821882C356D240E2
:10232000BE016F597D4FC8010E94931DF701448182
:102330005581608171818BE699E00E940D24C7016F
:10234000CA59DD4F0FB6F894DEBF0FBECDBFDF9187
:10235000CF911F910F91FF90EF90DF90CF90BF90A2
:10236000AF909F908F907F906F905F904F90089567
:102370000F931F93CF93DF93EC01462F50E060E063
:1023800070E02AE00E9400288C01CE010E948B2878
:10239000800F911FDF91CF911F910F910895FC0144
:1023A00001900020E9F731979F01281B390BE0913C
:1023B0009C0AF0919D0AE21BF30B4091980A509100
:1023C000990AE417F50730F46091960A7091970A1C
:1023D000E60FF71F280F391F60919A0A70919B0A28
:1023E000DC018217930758F40196BC91A081BA13BF
:1023F00008C03196E617F70799F7FA01F1CF81E0A7
:10240000089580E00895AF92BF92CF92DF92EF924D
:10241000FF921F93CF93DF9300D01F92CDB7DEB70B
:102420005C01C5010E946427FC0197FD0FC08D323D
:10243000910581F0C0970A9768F0D501ED91FC9164
:102440000284F385E02DC5011995EBCF60E070E0C3
:10245000CB014AC020E030E0A90110E0E130F105F5
:10246000E9F0ED32F105C9F0CF01C0970A97B0F459
:10247000AAE0B0E00E94D23B6F01FF0FEE08FF0818
:10248000DC01CB018C0D9D1DAE1DBF1D9C01AD015E
:10249000205331094109510901C011E0D501ED91E5
:1024A000FC910284F385E02DC50129833A834B8397
:1024B0005C831995C5010E946427FC01C09729819E
:1024C0003A814B815C810A9748F2E130F10531F2A3
:1024D000112341F066277727CB01621B730B840B16
:1024E000950B02C0CA01B9010F900F900F900F9089
:1024F000DF91CF911F91FF90EF90DF90CF90BF9031
:10250000AF900895CF93DF93EC0181E03EDABE01F6
:102510008091DC079091DD070E949E2841E060E0F9
:1025200070E088EE93E0DF91CF914ACAEF92FF927C
:102530000F931F93CF93DF931F921F92CDB7DEB7F8
:102540007C01162F072F62E973E08BE699E049833F
:102550005A830E94AE286AE473E08BE699E00E94F9
:10256000C7276CEE73E08BE699E00E94AE28612FDE
:10257000702F8BE699E00E948E28E8E0F2E023E0DD
:1025800030E05A81498192918291019621F0215047
:102590003109C8F72FEFF70124872F3F19F15F9317
:1025A0004F930F931F931F922F9383E18F9388E88C
:1025B0008F938DE293E09F938F9354DC0FB6F89442
:1025C000DEBF0FBECDBF892BC9F4F701848590E033
:1025D000FC01EE0FFF1FE050FE4F9183808381E0EE
:1025E00090E00EC062E973E08BE699E00E94AE28AD
:1025F00069E173E08BE699E00E949E2880E090E01C
:102600000F900F90DF91CF911F910F91FF90EF905E
:1026100008952F923F924F925F926F927F928F9286
:102620009F92AF92BF92CF92DF92EF92FF920F9361
:102630001F93CF93DF93CDB7DEB7C354D1090FB645
:10264000F894DEBF0FBECDBF3C0124967FAF6EAFC6
:1026500024976A011E8A1D8A88EE93E0A0E0B0E00C
:102660008F8B988FA98FBA8F85EA92E09C8B8B8B8A
:102670008FEF8F8F4A0122E0820E911CC4010E94CD
:102680008F1BF601808591850E94781CF60140859C
:10269000518562817381CE0143960E94AF0A892BD6
:1026A00051F464E775E08BE699E00E948E2824E6F9
:1026B000E22EF12C69C196E0A92EB12C8E010F5F9C
:1026C0001F4F8FEC92E09A8389832496EEADFFAD85
:1026D0002497828193819C838B83848195819E83BF
:1026E0008D83A801B301CE01CC96CBDC8DE992E0BD
:1026F00099A388A3B401CE0182960E94AA26F6016E
:102700008085918599A788A71BA61AA61DA61CA639
:102710001FA61EA64AE0B8010E94C535B801CE0129
:102720008A960E945326BE016E5D7F4FC8010E94AB
:10273000AA2660E774E0C8010E940C26BE01665D0F
:102740007F4F0E942326BC01CE01C6960E94AA2676
:10275000C8010E947D26CE018A960E947D2622967F
:102760004EAC5FAC22976FE875E0CE018A960E946E
:10277000B226BE01665D7F4FCE01C0960E94AA269A
:1027800065E975E0CE01C0960E940C266CE975E003
:102790000E940C2668EA75E00E940C26BE016A5C65
:1027A0007F4F0E94232665EA75E00E940C266FEA9F
:1027B00075E00E940C2663EC75E00E940C2664EE26
:1027C00075E00E940C267C014AE0B801C2010E941B
:1027D000EC35F80101900020E9F73197AF01401B7B
:1027E000510BB801C7010E94BA25811103C0C7016E
:1027F0000E94FA2565EA75E0C7010E940C2665EA89
:1028000075E00E940C26BE01645C7F4F0E94232667
:1028100066EA75E00E940C26FC01448155816081C6
:102820007181CE01439687D9CE01C0960E947D2644
:10283000CE018A960E947D26CE01CC9670D7CE011D
:10284000C6960E947D26CE0180960E949A2660EA56
:102850007FE080E090E00E94DB2ACE0143960E9458
:10286000D50B892B09F47DC065EE74E0CE0180960E
:102870000E94B226CE0143960E94922797FD09C07E
:102880008D30910531F0682FCE0180960E94E725AA
:10289000F1CF65EF75E0C8010E94B226BE01605E0F
:1028A0007F4FC8010E9423263AD7C8010E947D2687
:1028B0004CA05DA04114510461F028A039A060E251
:1028C00070E0C1010E94FF3E009719F08219930940
:1028D00002C08FEF9FEF7C01FFEFEF1AFF0A4E144B
:1028E0005F0428F49E2D8F2D7201492E582E65EE1F
:1028F00074E0C8010E94B2268CA19DA1E816F906D9
:10290000B8F48415950508F42C01E8A1F9A1E40DAB
:10291000F51D3080108268A179A16E0D7F1DC80160
:102920000E94532688A199A1FC01E40DF51D308277
:10293000C801F5D689819A81009719F00E948735E0
:1029400003C060E070E0CB017B01CE0143960E94A2
:102950000F09C8010E947D26CE0180960E947D2627
:1029600003C084E6E82EF12CCE01CC960E947D2691
:1029700021E0A21AB10829F088ECE816F10409F068
:10298000A0CECE014396A7DA68E873E180E090E03C
:102990000E94DB2ACE01439602DA682F8BE699E08B
:1029A000E7DC81E098ECE916F10409F080E0CD5B0A
:1029B000DF4F0FB6F894DEBF0FBECDBFDF91CF91D2
:1029C0001F910F91FF90EF90DF90CF90BF90AF904D
:1029D0009F908F907F906F905F904F903F902F903F
:1029E0000895CF92DF92EF92FF920F931F93CF93B0
:1029F000DF93EC016A017B01E889F98982E0808339
:102A00004115514E61057105B1F060E079E08DE34B
:102A100090E0A70196010E94B03B89019A01015004
:102A200011092109310936952795179507959801C0
:102A300001151041A8F0E889F989108260E874E86E
:102A40008EE190E0A70196010E94B03BDA01C90136
:102A50000197A109B109B695A795979587959C010E
:102A6000EC85FD853083EE85FF852083188EEC890B
:102A7000FD8986E08083EA89FB898081806180838B
:102A8000EA89FB89808188608083EA89FB8980816B
:102A900080688083EA89FB8980818F7D8083DF91D4
:102AA000CF911F910F91FF90EF90DF90CF900895FD
:102AB00008956F927F928F929F92AF92BF92CF9222
:102AC000DF92EF92FF920F931F93CF93DF93EC016E
:102AD0005B014A0169018FED92E0998388833E0191
:102AE00086E0680E711C65EE74E0C3010E94B22698
:102AF0007E018CE0E80EF11C65EE74E0C7010E94D7
:102B0000B226BB82AA829D828C82B601C3010E943A
:102B10006826B801C701DF91CF911F910F91FF90F7
:102B2000EF90DF90CF90BF90AF909F908F907F906D
:102B30006F900C9468260C946F3D0C946F3D0C9430
:102B40006F3D0C946F3DCF93DF93EC018FED92E0DE
:102B500099838883CE010C960E947D26CE0106962D
:102B6000DF91CF910C947D26CF93DF93EC01EBDFC7
:102B7000CE01DF91CF910C946F3DCF92DF92EF9217
:102B8000FF920F931F93CF93DF938C016B017A0118
:102B9000EC018DE992E08993999365EE74E0CE01A2
:102BA0000E94B226B601CE010E946826F801F18685
:102BB000E086DF91CF911F910F91FF90EF90DF9012
:102BC000CF90089508950E94FD1FFC01892B09F400
:102BD0004BC084819581833091053CF4813091050F
:102BE0007CF4009709F447C038C0853091052CF07B
:102BF000059799F5668177812BC086819781089525
:102C00000680F781E02D309779F18081843779F162
:102C10008B3229F08D3221F4319691E002C0319649
:102C200090E060E070E03AE0819120ED280F2A30DA
:102C300068F4369FA001379F500D1124682F880F2C
:102C4000770B60537109640F751FEECF992391F0D4
:102C500088279927861B970B089566817781808541
:102C600091850E94503C06C080E090E0089581E08C
:102C700090E00895CB0108950E94FD1F009749F050
:102C8000FC01248135812730310519F48681978133
:102C900008950C949C070895AF92BF92CF92DF9253
:102CA000EF92FF920F931F93CF93DF93CDB7DEB7D1
:102CB00068970FB6F894DEBF0FBECDBF8B016FEFE4
:102CC00075E0C80180DF6C0166E076E0C8017BDF5B
:102CD0005C014DE056E0B801CE0143960E941820F9
:102CE00044E156E0B801CE010D960E941820C601BD
:102CF000FFD5C501FDD5CE01439611D5CE010D9668
:102D00000ED5BE016D5E7F4FCE0107960E94AA26AA
:102D1000BE01635F7F4FCE0101960E94AA2682E129
:102D200090E00E94DA3C7C018E010F5F1F4F9E01F4
:102D3000295F3F4FA501B601BCDEC8010E947D2678
:102D4000CE0107960E947D26CE010D960E947D261B
:102D5000CE0143960E947D26C70168960FB6F8946F
:102D6000DEBF0FBECDBFDF91CF911F910F91FF90BE
:102D7000EF90DF90CF90BF90AF90089508950895A1
:102D8000CF93DF93EC0165EE74E00E94B22641D947
:102D9000823091F038F4882361F0813099F46FE348
:102DA00076E012C0833059F08F3F61F463E276E041
:102DB0000BC060E376E008C06CE476E005C06EE529
:102DC00076E002C06EE676E0CE010E945326CE0188
:102DD000DF91CF910895CF93FC01C48121E020932E
:102DE0000208C0932308109264071092630783853A
:102DF000682B88E09AE00E940E0C80916307813274
:102E000008F046C0909162079111FCCF92E0909338
:102E1000620791E0909361079FEF909301081092F1
:102E200000088093FF07A3E0B8E02FED37E0F90139
:102E30009E2F921B981718F49D919193F9CF1092A1
:102E4000DE078091DE07CC0FC82BC093DE07809190
:102E50006007813061F4109260078091DE078093F3
:102E6000BB008091BC0083FDF8CF85EC01C085EEEE
:102E70008093BC00809162078230E1F38091010869
:102E80008F3F31F080910108803211F0809101086C
:102E9000109264071092630710920208CF91089570
:102EA0000F931F93CF938C01C62F95DF6C2F646017
:102EB000C80191DF6C2F6B7FC8018DDF83EC90E040
:102EC0000197F1F7CF911F910F9108950F931F93E1
:102ED000CF93DF938C01D62FC42F607F642BE0DF6C
:102EE0006D2F6295607F6C2BC801DF91CF911F9190
:102EF0000F91D6CF41E0EADF81E090E00895CF93D3
:102F0000DF93CDB7DEB728970FB6F894DEBF0FBEBC
:102F1000CDBF9C0188E0E3EDF2E0DE011196019067
:102F20000D928A95E1F7F9018085841710F44FEF2F
:102F3000480FFE013196E40FF11DE40FF11D908161
:102F4000690F606840E0C90128960FB6F894DEBFAB
:102F50000FBECDBFDF91CF91B9CF5F926F927F92BD
:102F60008F929F92AF92BF92CF92DF92EF92FF9299
:102F70000F931F93CF93DF9300D000D0CDB7DEB770
:102F80005C018B017B0122E0E20EF11CB701CE0156
:102F900001960E94AA268D819E810E94DA3C982E7D
:102FA000892E6401CE0101960E947D26B701CE01D3
:102FB00001960E94AA268A818F9389818F938AE83D
:102FC000E82E86E0F82EFF92EF928F929F920E9459
:102FD000293FCE0101960E947D26085F1F4FB80150
:102FE000CE0101960E94AA268D819E810E94DA3C24
:102FF000782E692E4301CE0101960E947D26B801EC
:10300000CE0101960E94AA268A818F9389818F938F
:10301000FF92EF926F927F920E94293FCE0101961C
:103020000E947D26F5010281138140E060E0F801F5
:103030008281938164DF6EE876E0F801828193817A
:103040000E94AE280FB6F894DEBF0FBECDBFE12CB4
:10305000F12C772473949EE4692E20E2522E3AE7F5
:10306000A32E34E0B32E6FE976E08BE699E00E9460
:103070008E28709224088F929F92CF92DF926F9247
:103080005F92BF92AF920E94320F0FB6F894DEBFEC
:103090000FBECDBF62E973E0892BC9F48BE699E0DE
:1030A0000E94AE2868E574E08BE699E00E94C7278D
:1030B0006CEE73E08BE699E00E94AE286D2D7C2DBE
:1030C0008BE699E00E948E2801E010E021C08BE69B
:1030D00099E00E94AE2865E674E08BE699E00E94D4
:1030E000C7276CEE73E08BE699E00E94AE286D2D49
:1030F0007C2D8BE699E00E948E2868EE73E080E0DC
:1031000090E00E94DB2A80E00E94C50C02E010E003
:1031100064E670E080E090E00E94DB2AFFEFEF1AA7
:10312000FF0A6AEA76E08BE699E00E94AE28C701C2
:10313000DFD363EB76E08BE699E00E94AE2881E076
:1031400090E00130110511F080E090E0D1D3013022
:10315000110539F023E0E216F10409F084CF02E012
:1031600010E081E00130110509F080E026960FB6ED
:10317000F894DEBF0FBECDBFDF91CF911F910F91AD
:10318000FF90EF90DF90CF90BF90AF909F908F9087
:103190007F906F905F90089540E061E097DE8BE351
:1031A0009FE10197F1F708950F931F93CF93DF935A
:1031B000EC018B010E940910813049F06CEB76E044
:1031C0008BE699E00E948E28B801CE01C6DE0A8007
:1031D000DB81C02D8A819B81DFDF6AEC74E08A810C
:1031E0009B81DF91CF911F910F910C94AE28DC0150
:1031F000E0E0615038F08D91E827F0E0E85AFC4FAC
:10320000E491F7CF8E2F0895CF92DF92EF92FF9245
:103210000F931F93CF93DF931F92CDB7DEB76C014F
:10322000E62E08E010E0FF24F39461E08F2D8E215C
:1032300009F460E0C60149830E94600CFF0C015054
:10324000110949810115110581F7411115C0F89443
:10325000D6011196ED91FC91129791818C918095F8
:10326000892381831196ED91FC91129792818C9123
:1032700080958923828378940F90DF91CF911F915D
:103280000F91FF90EF90DF90CF900895AF92BF9293
:10329000CF92DF92EF92FF920F931F93CF93DF9322
:1032A0001F92CDB7DEB75C01E62ED72EFC018585D7
:1032B00081115CC0C5010E948F0C811105C0F50110
:1032C0001386158614866AC040E060EFC5019CDF56
:1032D00001E0F12CC12C11E0C5010E943C0C682FCB
:1032E000C50169830E943C0C6981613019F4813009
:1032F000B9F433C04F2D50E068131BC0F50183852E
:10330000181730F4E40FF51F8381802349F402C0BD
:10331000181731F060E0193058F4F501148708C02F
:10332000F501EF0DF11D8381802B838361E009C0DE
:10333000C12EF501E40FF51F9381802F809589231D
:103340008383C5010E94600C1F5F000F11F4F3948A
:1033500001E0F7E0FF1508F0BFCF113438F0F501B8
:10336000C386C11015C081E0858712C0F5011386A0
:103370001586148680E0D5011396EE2DFD2D95015E
:10338000255F3F4F9D919193A217B307D9F706C0D0
:10339000F5018381882351F381E0EDCF0F90DF9118
:1033A000CF911F910F91FF90EF90DF90CF90BF9042
:1033B000AF900895CF92DF92EF92FF920F931F93F9
:1033C000CF93DF931F92CDB7DEB78C01F62E40E08E
:1033D00065E5798319DFCF2C7981D72E760188E0D6
:1033E000E80EF11CF60161916F0140E0C8010CDFAD
:1033F000CE14DF04B9F70F90DF91CF911F910F9199
:10340000FF90EF90DF90CF9008956F927F928F9210
:103410009F92AF92BF92CF92DF92EF92FF920F9363
:103420001F93CF93DF931F921F92CDB7DEB78C010E
:103430007A01FC018581968169837A830E948F0CD1
:1034400069817A81882381F1F80185819681B2DFD3
:1034500040E06EEBF80185819681D6DE3701570199
:10346000F9E0AF0EB11CF8018580968088E0C82E87
:10347000D12CEE24E394F12CC4010E943C0C811168
:10348000FE28EE0CF1E0CF1AD108B1F7F301F1926A
:103490003F01EA15FB0539F7F801858196810E9405
:1034A0008F0C91E0813009F090E0892F0F900F9000
:1034B000DF91CF911F910F91FF90EF90DF90CF9010
:1034C000BF90AF909F908F907F906F900895CF9313
:1034D000DF93CDB7DEB729970FB6F894DEBF0FBEE6
:1034E000CDBFFB012081203109F1AE014F5F5F4F5D
:1034F0008CDF882371F068E0CE01019678DE998533
:10350000891307C008C0803458F08F3569F08F37B1
:1035100069F080E00CC08D818F33A9F78AE007C085
:103520008F31B9F789E003C08BE001C08CE02996A8
:103530000FB6F894DEBF0FBECDBFDF91CF910895D7
:10354000CF93DF93EC0165EE74E00E94B2268EEC1F
:1035500098E00E94922797FD05C0682FCE010E9437
:10356000E725F5CFCE01DF91CF9108959F92AF92DD
:10357000BF92CF92DF92EF92FF920F931F93CF9360
:10358000DF93CDB7DEB727970FB6F894DEBF0FBE37
:10359000CDBFFC019681992309F4ADC07B018F0159
:1035A000915096836F0182E0C80ED11CC6010E9423
:1035B0005B05D8011296ED91FC91139780818B35B4
:1035C00021F08B3709F45DC070C0F80180819181D2
:1035D0000E9479075C016BE5C6010E949D05882366
:1035E00059F16DE5C6010E949D05811135C086E047
:1035F000982E1A821982BE016F5F7F4FC801B6DF15
:103600008823D1F0C5010E943C070097A9F0FE0174
:103610003196DC011296892D01900D928A95E1F781
:103620006DE5C6010E949D05811116C06CE2C601C0
:103630000E949D058111DDCF8091290881110EC066
:103640001092260810922508109228081092270838
:1036500081E08093290802C0F50102C0E5E2F8E0AC
:1036600080819181892B11F420E040C086E090E0B8
:10367000D70111969C938E931396FC93EE93129719
:1036800012C0C8010E94C207FC0120813181232B96
:1036900059F327E030E0D70111963C932E9313960F
:1036A0009C938E93129721E021C021E0873219F07C
:1036B000823209F020E0C8012F830E94BB052F81D0
:1036C000009791F2222341F042E050E0F70151834C
:1036D0004083938382830AC021E030E0D7011196B2
:1036E0003C932E9313969C938E931297F8018681A8
:1036F0008F5F868301C020E0822F27960FB6F89453
:10370000DEBF0FBECDBFDF91CF911F910F91FF9014
:10371000EF90DF90CF90BF90AF909F900895CF93A0
:10372000DF93FC0144815581608171818BE699E0D2
:103730000E940D24EC018BE699E00E948B288C0FEF
:103740009D1FDF91CF9108954F925F926F927F926C
:103750008F929F92AF92BF92CF92DF92EF92FF92A1
:103760006B017C019B01AC010E94853C882319F010
:1037700064E277E01AC046015701E894B7F82FEFEA
:103780003FEF4FE75FE7C501B4010E94853C81111F
:1037900012C02FEF3FEF4FE75FE7C501B4010E9472
:1037A000973A181644F468E277E08BE699E00E94B5
:1037B000EB277C018AC02FEF3FEF4FE75FE4C701A3
:1037C000B6010E94813C18161CF46CE277E0EDCF44
:1037D0002FEF3FEF4FE75FECC701B6010E94973A2A
:1037E00087FDF3CF20E030E0A901C701B6010E94B8
:1037F000973A87FF0BC06DE28BE699E00E94C027E5
:103800005C01F7FAF094F7F8F09402C0A12CB12C07
:103810002AE037ED43EA5BE3C701B6010E94EC3BC7
:103820002B013C010E94553C6B017C010E949B3A9C
:103830009B01AC01C301B2010E94EB3B2B013C0197
:103840002AE0B701A6018BE699E00E9400287C01DE
:10385000EA0CFB1C6EE28BE699E00E94C027E80EA2
:10386000F91E20E030E040E251E4C301B2010E94C1
:10387000FC3A2B013C010E94553C4B01A12CB12C80
:103880002AE0B501A4018BE699E00E940028E80E29
:10389000F91EC501B4010E949B3A9B01AC01C30112
:1038A000B2010E94EB3B20E030E040E251E40E9494
:1038B000FC3A0E94553CAB0160E070E02AE08BE6E8
:1038C00099E00E940028E80EF91E8BE699E00E941C
:1038D0008B288E0D9F1DFF90EF90DF90CF90BF90B3
:1038E000AF909F908F907F906F905F904F900895D2
:1038F000CF92DF92EF92FF92CF93DF936C01990FFB
:10390000EE08FF08F7FE16C06DE28BE699E00E9414
:10391000C027EC0144275527BA014C195D096E09EF
:103920007F092AE08BE699E00E9400287C01EC0EDA
:10393000FD1E08C02AE0B701A6018BE699E00E94AF
:1039400000287C018BE699E00E948B288E0D9F1D3C
:10395000DF91CF91FF90EF90DF90CF9008958F92FD
:103960009F92AF92BF92EF92FF920F931F93CF93CC
:10397000DF931F921F92CDB7DEB77B010E94AE0787
:103980008C01F701828193819A838983AE014F5F15
:103990005F4F62ED73E0C8010E940207F701848166
:1039A00095819A838983AE014F5F5F4F60E377E033
:1039B000C8010E940207F70186819781009729F0CC
:1039C0000E9467354B015C0103C0812C912C54018E
:1039D0006CE876E0C80111D3009751F4C8010E9449
:1039E0006C06009771F02CE836E0FC0133832283EB
:1039F00028E030E0FC013583248386829782A0860C
:103A0000B186FCE0EF0EF11C62E377E0C801F5D26D
:103A1000009751F4C8010E946C06009771F022E3F0
:103A200037E0FC0133832283BC016C5F7F4FA70129
:103A3000F801808191810E94BF06C8010F900F900C
:103A4000DF91CF911F910F91FF90EF90BF90AF90BA
:103A50009F908F9008950C946F3D0C946F3DEF9262
:103A6000FF920F931F93CF93DF93EC01E880F980CF
:103A7000D7018D919C91FC0104811581611571051F
:103A800051F0FB0101900020E9F73197AF01461B8F
:103A9000570B0E94BA25D701ED91FC918481958145
:103AA0002A813B81280F391F201B310B3B832A833E
:103AB000DF91CF911F910F91FF90EF900895FF92AA
:103AC0000F931F93CF93DF936115710541F465E365
:103AD00077E0DF91CF911F910F91FF90C0CF8B01C5
:103AE000EC0162E2CE010E94F608F80161918F01BB
:103AF000662351F0E7EDF4E0F080FF2099F3918127
:103B0000961759F03296F8CF62E2CE01DF91CF914D
:103B10001F910F91FF900C94F6086CE5CE010E9466
:103B2000F6086F2DDFCF0F931F93CF93DF938C0198
:103B3000EB016BE7CE010E94F608F80102811381C8
:103B40000115110599F0F80162817381CE01B7DF8B
:103B50006AE3CE010E94F608BE01C801049613D0A4
:103B6000F801008111810115110541F46DE7CE01C5
:103B7000DF91CF911F910F910C94F6086CE2CE016A
:103B80000E94F608DDCF2F923F924F925F926F9284
:103B90007F928F929F92AF92BF92CF92DF92EF92DD
:103BA000FF920F931F93CF93DF93CDB7DEB7669746
:103BB0000FB6F894DEBF0FBECDBFDC01ED91FC91D6
:103BC00011973197E830F10508F0FEC11B018C0117
:103BD0008827EE58FF4F8F4F0C94B83CFD01C280F0
:103BE000D380E480F580A7019601C701B6010E9449
:103BF000973A882319F065E477E079C020E030E057
:103C0000A901C701B6010E94973A87FF08C06DE27B
:103C1000C1010E94F608F7FAF094F7F8F09420E05A
:103C200030E0A901C701B6010E94973A882309F440
:103C300061C0A7019601C701B6010E94EC3BA70134
:103C400096010E94973A811155C06CE477E04FC00D
:103C5000FD01028113816BE5C1010E94F608D801C4
:103C600012960D911C9113970115110551F0B10198
:103C7000C801029688DFF801008111810115110544
:103C800029F46DE5C1010E94F6089EC16CE2C101F4
:103C90000E94F608E9CF12968D919C91139743DF0D
:103CA00093C1FD0162817381C10109DF8DC112964B
:103CB0006D917C9113971BC06DE2C1010E94F608C3
:103CC000F8014281538164817581C1010E94B1086C
:103CD0007BC1FD0182819381A481B581892B8A2BCF
:103CE0008B2B19F46FE377E002C06AE377E0C10140
:103CF000B6DE6AC120E836E948E15BE4C701B601F7
:103D00000E94813C87FD59C1A12CB12C00E210E03A
:103D10001A8A198AF501EB5AFC4F2489358946899C
:103D20005789C701B6010E94813C87FD13C0F50188
:103D3000E35CFC4F2489358946895789C701B60160
:103D40000E94FC3A6B017C0189899A89800F911F3E
:103D50009A8B898B1595079594E0A91AB108A8EE5E
:103D6000AA16AFEFBA06B1F699249A9420E030E093
:103D7000A901C701B6010E94813C1816B4F52CEACE
:103D800035EC47E257E3C701B6010E94973A18168F
:103D900064F19FEF991649F1B92DE4E0BE0250019C
:103DA0001124F501EB5DFC4F20813181428153816B
:103DB000C701B6010E94973A87FF13C0F501EB5A7D
:103DC000FC4F2081318142815381C701B6010E949D
:103DD000FC3A6B017C0189899A89801B910B9A8B33
:103DE000898B159507959A94D4CFC701B6010E9487
:103DF000553C4B015C012B013C0106E080E492E460
:103E0000AFE0B0E08B8B9C8BAD8BBE8B102F0FEF98
:103E1000010F9AE04916510461047104C8F06B89DE
:103E20007C898D899E892AE030E040E050E00E9444
:103E3000B03B2B8B3C8B4D8B5E8BC301B2012AE0D8
:103E400030E040E050E00E94B03B29013A01DECF73
:103E5000C501B4010E949B3A9B01AC01C701B601A8
:103E60000E94EB3B6B017C016B897C898D899E896B
:103E70000E949B3A9B01AC01C701B6010E94FC3A2B
:103E80002B013C010E94553C6B017C010E949B3A36
:103E90009B01AC01C301B2010E94EB3B9B01AC0151
:103EA0000E94EC3B0E94553CC60ED71EE81EF91E30
:103EB0008B899C89AD89BE89C816D906EA06FB069E
:103EC000F8F09FEF891A990AA90AB90AA989BA894B
:103ED000AB2B99F0BAE08B169104A104B10468F001
:103EE000E989FA893196FA8BE98BC12CD12C7601BC
:103EF000812C912C5401839403C0C12CD12C7601C8
:103F00002AE0422E512C612C712CC701B601A3016D
:103F100092010E94B03B672B682B692BA1F0012F07
:103F2000B501A401C1010E94B108112351F1188A01
:103F30004E01F0E18F0E911C54019AE0492E512C54
:103F4000612C712C06C0111654F769017A011150C9
:103F5000DCCF015068F0C701B601A30192010E94B5
:103F6000B03B605DD4016E934D0169017A01F1CFE0
:103F7000B501611B71098EE2FB018293BF01C10192
:103F80006EDD89899A8997FF0AC069E477E0C101EB
:103F900066DD69897A897195619571090AC0A98977
:103FA000BA89AB2B89F065E6C1010E94F6086989E0
:103FB0007A89C1010E94860807C000E210E085E00E
:103FC000982E1A8A198AD2CE66960FB6F894DEBF5A
:103FD0000FBECDBFDF91CF911F910F91FF90EF905A
:103FE000DF90CF90BF90AF909F908F907F906F9019
:103FF0005F904F903F902F9008950F931F93CF9312
:10400000DF938B01FC01C281D381209759F06A8133
:104010007B81C8010E940A3F892B21F00990D88139
:10402000C02DF3CFCE01DF91CF911F910F91089555
:10403000CF92DF92EF92FF920F931F93CF93DF9374
:10404000CDB7DEB72C970FB6F894DEBF0FBECDBF4D
:104050008C01CB01BA01D1DF7C01009709F44AC081
:10406000FC01C480D580F1E0CF16D10461F4FC01DD
:10407000668177816115710531F085E397E00E94D3
:104080000A3F892B69F0F1E0CF1AD10882E0C81607
:10409000D10430F4F701668177816115710561F50E
:1040A00065EE74E0CE0101966C015CD6DC86CB86B1
:1040B000CE010B9698878F831A861986BE01695F99
:1040C0007F4FC70104965FDD89819A81F801918352
:1040D00080838B819C81938382838D819E81958354
:1040E00084831A8219821C821B821E821D82C60151
:1040F00004D604C065EE74E0C80134D6C8012C961D
:104100000FB6F894DEBF0FBECDBFDF91CF911F91E8
:104110000F91FF90EF90DF90CF900895089508954C
:104120002F923F924F925F926F927F928F929F92C7
:10413000AF92BF92CF92DF92EF92FF920F931F93B5
:10414000CF93DF93CDB7DEB727970FB6F894DEBFD6
:104150000FBECDBF1B015E834D838901FC018281AF
:10416000938120910802281721F02F3F09F0D0C237
:1041700005C0E1E9F4E024912F8304C18093080293
:10418000E1E9F4E0E491EF3F09F4C2C2E23009F45E
:104190007EC06CF5EE2309F459C0E13009F0F1C09E
:1041A000109280001092810020918100286020935D
:1041B0008100209181002160209381009C013327A0
:1041C000F901E052FB4FE491F0E0EE0FFF1FE455E0
:1041D000FB4F459154915093430A4093420AF90191
:1041E000EA5DFA4FE491E093410A31E0C8C0E4305F
:1041F00009F49DC00CF473C0E53009F0C2C0109200
:104200002001109221012091210128602093210199
:10421000209121012160209321019C013327F90184
:10422000E052FB4FE491F0E0EE0FFF1FE455FB4F2F
:104230004591549150933A0A4093390AF901EA5D45
:10424000FA4FE491E093380A35E099C014BC15BCEC
:1042500024B5226024BD25B5216025BD9C013327EE
:10426000F901E052FB4FE491F0E0EE0FFF1FE4553F
:10427000FB4F459154915093460A4093450AF901EA
:10428000EA5DFA4FE491E093440A1F827EC01092E7
:10429000B0001092B1002091B00022602093B000D5
:1042A0002091B10021602093B1009C013327F901D6
:1042B000E052FB4FE491F0E0EE0FFF1FE455FB4F9F
:1042C0004591549150935C0A40935B0AF901EA5D71
:1042D000FA4FE491E0935D0AE2E0EF8356C010925A
:1042E00090001092910020919100286020939100FD
:1042F000209191002160209391009C013327F901C6
:10430000E052FB4FE491F0E0EE0FFF1FE455FB4F4E
:10431000459154915093400A40933F0AF901EA5D58
:10432000FA4FE491E0933E0AF3E0FF832EC010922F
:10433000A0001092A1002091A10028602093A1006C
:104340002091A10021602093A1009C013327F90155
:10435000E052FB4FE491F0E0EE0FFF1FE455FB4FFE
:104360004591549150933D0A40933C0AF901EA5D0E
:10437000FA4FE491E0933B0A24E02F8306C03F8389
:1043800004C0EF83EF81E7FDC3C12801012E000CBB
:104390006608770861E00E949F2A4101A12CB12C98
:1043A0008F818D7F09F0BDC060E072E18AE790E007
:1043B000A50194010E949C3C29833A834B835C8332
:1043C00069017A01F1E0CF1AD108E108F1082FEF75
:1043D000C216D104E104F10409F008F44DC060E410
:1043E00072E48FE090E0A50194010E949C3C690179
:1043F0007A0181E0C81AD108E108F1089F81923062
:1044000001F5EFEFCE16D104E104F10409F008F450
:10441000FBC160E970ED83E090E0A50194010E948A
:104420009C3C69017A01F1E0CF1AD108E108F1085A
:104430002FEFC216D104E104F10409F0E0F583E0A6
:1044400069C03FEFC316D104E104F104B9F0B0F044
:1044500068E478EE81E090E0A50194010E949C3C24
:1044600069017A0181E0C81AD108E108F1089F8149
:10447000992309F46EC1BFC181E001C082E09F8130
:104480009923A1F047C089819A81AB81BC812AE040
:10449000B595A795979587952A95D1F76C017D01DC
:1044A000E1E0CE1AD108E108F10885E095B5987FE2
:1044B000892B85BDA1C068E478EE81E090E0A5017C
:1044C00094010E949C3C69017A01F1E0CF1AD10865
:1044D000E108F1082FEFC216D104E104F10409F05C
:1044E00008F435C164E274EF80E090E0A501940126
:1044F0000E949C3C69017A01E1E0CE1AD108E108F2
:10450000F108FFEFCF16D104E104F10411F008F037
:1045100042C185E09091B100987F892B8093B100D2
:104520006BC060E072E18AE790E0A50194010E940F
:104530009C3C69017A01E1E0CE1AD108E108F1085A
:10454000C114D104F1E0EF06F10488F068E478EEDC
:1045500081E090E0A50194010E949C3C69017A01F0
:1045600081E0C81AD108E108F10883E001C081E0C8
:104570009F81913071F490918100987F892B809375
:104580008100452846284728D9F52FEF3FEFA9019C
:1045900068C0EF81E33071F490919100987F892B8E
:1045A0008093910045284628472851F52FEF3FEF8B
:1045B000A90179C0FF81F43071F49091A100987F36
:1045C000892B8093A100452846284728C9F42FEF5E
:1045D0003FEFA9017AC02F81253071F4909121011C
:1045E000987F892B8093210145284628472841F44C
:1045F0002FEF3FEFA9017BC045284628472869F0E7
:104600009101220F331FD8010E94C03C28EE33E0F5
:1046100040E050E00E94B03B03C02FEF3FEFA90104
:104620008F81823081F12CF4882361F08130C9F0D0
:104630006FC09F81943009F448C0ACF1953009F403
:1046400056C066C0C7BC2093570A3093580A40939F
:10465000590A50935A0A80916E00826080936E00CE
:1046600057C0D0928900C09288002093530A30939B
:10467000540A4093550A5093560A80916F00826005
:1046800080936F0045C0C092B30020935E0A3093C0
:104690005F0A4093600A5093610A809170008260C3
:1046A0008093700035C0D0929900C09298002093FA
:1046B0004F0A3093500A4093510A5093520A809106
:1046C000710082608093710023C0D092A900C092D3
:1046D000A80020934B0A30934C0A40934D0A509304
:1046E0004E0A8091720082608093720011C0D09255
:1046F0002901C09228012093470A3093480A409329
:10470000490A50934A0A8091730082608093730033
:10471000ED81FE81BF01FF0F880B990B27960FB625
:10472000F894DEBF0FBECDBFDF91CF911F910F91E7
:10473000FF90EF90DF90CF90BF90AF909F908F90C1
:104740007F906F905F904F903F902F9034C784E0A0
:10475000E1CEEFEFCE16D104E104F104D1F0C8F0C0
:1047600062E17AE780E090E0A50194010E949C3C20
:1047700069017A0181E0C81AD108E108F1089FEFC8
:10478000C916D104E104F10411F008F07CCE84E0F4
:104790008DCE83E08BCE62E17AE780E090E0A501E8
:1047A00094010E949C3C69017A01F1E0CF1AD10882
:1047B000E108F1082FEFC216D104E104F104C9F0B9
:1047C000C0F089819A81AB81BC815AE0B595A795EB
:1047D000979587955A95D1F76C017D0121E0C21A12
:1047E000D108E108F1083F81332309F45ECE87E068
:1047F00091CE86E044CE3FEFC316D104E104F1042C
:1048000009F048F684E03BCE82E084CE28EC30E02C
:1048100040E050E068E273E283CCCF92DF92EF9207
:10482000FF920F931F93CF93DF936C017A018B015B
:10483000C0E0D0E0CE15DF0589F0D8016D918D0183
:10484000D601ED91FC910190F081E02DC601199502
:10485000892B11F47E0102C02196ECCFC701DF91B4
:10486000CF911F910F91FF90EF90DF90CF9008951F
:10487000FC01A089B1898C91A689B78982FD0FC0FE
:104880009C91818D8F5F8F73228D821749F0218DCE
:10489000DF01A20FB11D5D969C93818F08958C91CD
:1048A0000895FC01538D448D252F30E0842F90E036
:1048B000821B930B541710F0CF960895019708951B
:1048C000FC01918D828D981761F0828DDF01A80F18
:1048D000B11D5D968C91928D9F5F9F73928F90E03A
:1048E00008958FEF9FEF0895FC01918D828D9817A9
:1048F00031F0828DE80FF11D858D90E008958FEFE6
:104900009FEF0895FC01918D228D892F90E0805CAE
:104910009F4F821B91098F739927089581E398E037
:10492000F1DF21E0892B09F420E0822F08958EEC3D
:1049300098E0E8DF21E0892B09F420E0822F089538
:104940008BE699E0DFDF21E0892B09F420E0822F5C
:104950000895FC01848DDF01A80FB11DA35ABF4F3C
:104960002C91848D90E001968F739927848FA6896E
:10497000B7892C93A089B1898C9180648C93938D95
:10498000848D981306C00288F389E02D80818F7D85
:1049900080830895EF92FF920F931F93CF93DF933D
:1049A000EC0181E0888F9B8D8C8D981305C0E88980
:1049B000F989808185FD23C0F62E0B8D10E00F5FF5
:1049C0001F4F0F731127E02E8C8DE8120BC00FB60E
:1049D00007FCFACFE889F989808185FFF5CFCE0100
:1049E000B8DFF2CF8B8DFE01E80FF11DE35AFF4FC8
:1049F000F0820B8FEA89FB898081806207C0EE8993
:104A0000FF896083E889F98980818064808381E0FF
:104A100090E0DF91CF911F910F91FF90EF9008955B
:104A2000CF93DF93EC01888D8823C1F0EA89FB895D
:104A3000808185FD05C0A889B9898C9186FD0EC04D
:104A40000FB607FCF5CF808185FFF2CFA889B98921
:104A50008C9185FFEDCFCE017CDFE8CFDF91CF9148
:104A6000089580E090E0892B19F06ADF81111BC066
:104A700080E090E0892B19F05ADF811117C080E0A7
:104A800090E0892B19F04ADF811113C080E090E09B
:104A9000892BA1F080E090E0892B81F00E9400003A
:104AA00081110AC008950E940000E2CF0E94000018
:104AB000E6CF0E940000EACF0C94000008950E9407
:104AC000EB3E0F931F93CF93DF93EC018881998185
:104AD000009729F02A813B812617370788F48B013C
:104AE0006F5F7F4F0E94073E009761F09983888334
:104AF0001B830A832C813D81232B11F4FC0110823E
:104B000081E001C080E0DF91CF911F910F91089566
:104B1000FC0124813581FB0144815581241735072F
:104B200021F5FC0180819181FB01608171810097F9
:104B300019F061157105A1F46115710549F0232B78
:104B4000B1F0FB01808190E09195819591090AC0B7
:104B5000009769F0232B59F0FC01808190E002C09E
:104B60000E940A3F21E0892B19F020E001C021E0DA
:104B7000822F0895EF92FF920F931F93CF93DF93AD
:104B8000FC01248135816115710511F480E018C0A4
:104B900041155105A1F07B01EC018A01020F131FA1
:104BA000B8018FDF882391F3288139818C819D8121
:104BB000B701820F931F0E94133F1D830C8381E076
:104BC000DF91CF911F910F91FF90EF900895CF93B8
:104BD000DF931F921F92CDB7DEB769831A8241E03F
:104BE00050E0BE016F5F7F4FC5DF0F900F90DF91E8
:104BF000CF910895CF93DF93EC018881998100973D
:104C000011F00E946F3D198218821D821C821B8246
:104C10001A82DF91CF910895CF93DF93EC01611554
:104C2000710559F0FB0101900020E9F73197AF01C0
:104C3000461B570B9FDF811102C0CE01DBDFCE0187
:104C4000DF91CF910895CF93DF93EC01FB01448175
:104C50005581608171818EDF811102C0CE01CADF72
:104C6000CE01DF91CF910895EF92FF920F931F93A2
:104C7000CF93DF93EC017B018A01BA0122DF81111E
:104C800003C0CE01B7DF07C01D830C83B701888145
:104C900099810E94133FCE01DF91CF911F910F9117
:104CA000FF90EF900895CF93DF93EC0161157105AC
:104CB00051F0FB0101900020E9F73197AF01461B4D
:104CC000570BD2DF01C096DFCE01DF91CF9108955F
:104CD000CF93DF93EC01FB018617970751F06081BA
:104CE00071816115710521F044815581BDDF01C0DD
:104CF00081DFCE01DF91CF910895FC018081918108
:104D00000C946F3DCF93DF93EC018DE792E0998394
:104D10008883CE010896F1DFCE010296DF91CF9114
:104D2000ECCFCF93DF93EC01EDDFCE01DF91CF919C
:104D30000C946F3D2DE932E0FC0121933193CF01BA
:104D4000DCCFCF93DF93EC01F5DFCE01DF91CF9184
:104D50000C946F3DFC011182108213821282158225
:104D60001482B6CFFC011182108213821282158246
:104D700014826115710549F0FB0101900020E9F7EB
:104D80003197AF01461B570B6FCF08951F920F92BB
:104D90000FB60F9211240BB60F922F933F934F93A0
:104DA0005F936F937F938F939F93AF93BF93EF9393
:104DB000FF9380915E0A90915F0AA091600AB09182
:104DC000610A892B8A2B8B2B59F180915D0AE09126
:104DD0005B0AF0915C0A90818927808380915E0A4A
:104DE00090915F0AA091600AB091610A18161906A5
:104DF0001A061B060CF055C080915E0A90915F0A5E
:104E0000A091600AB091610A0197A109B10980934C
:104E10005E0A90935F0AA093600AB093610A41C052
:104E200080910802E1E9F4E0E4919FEF9093080299
:104E3000E230C9F050F4EE2399F0E13081F5909121
:104E40006F009D7F90936F002AC0E43019F1E0F06D
:104E5000E53029F5909173009D7F909373001FC0FA
:104E600010926E001CC0909170009D7F9093700016
:104E700091E09093B0009091B100987F94609093EE
:104E8000B1001092B3000BC0909171009D7F909380
:104E9000710005C0909172009D7F9093720060E058
:104EA0001FD3FF91EF91BF91AF919F918F917F9110
:104EB0006F915F914F913F912F910F900BBE0F908B
:104EC0000FBE0F901F9018950F931F93CF93DF93F2
:104ED000EC01A9D3688779878A879B87E881F98164
:104EE0000484F585E02DCE01199597FF16C09BD35C
:104EF000088519852A853B85DC01CB01801B910B38
:104F0000A20BB30B0C811D812E813F81801791076D
:104F1000A207B30718F38FEF9FEFDF91CF911F9197
:104F20000F9108950F931F93CF93DF93EC017BD3E1
:104F3000688779878A879B87E881F9810284F3856E
:104F4000E02DCE01199597FF16C06DD30885198500
:104F50002A853B85DC01CB01801B910BA20BB30B97
:104F60000C811D812E813F8180179107A207B30715
:104F700018F38FEF9FEFDF91CF911F910F9108955D
:104F8000DC01ED91FC910190F081E02D1994EF92FC
:104F9000FF920F931F93CF93DF938C017B01C0E0AF
:104FA000D0E0F701EC0FFD1F6491662361F0D8019A
:104FB000ED91FC910190F081E02DC8011995892BAC
:104FC00011F02196EECFCE01DF91CF911F910F917D
:104FD000FF90EF9008956115710579F0FB01019044
:104FE0000020E9F73197AF01461B570BDC01ED912B
:104FF000FC910280F381E02D199480E090E0089507
:105000004F925F926F927F92EF92FF920F931F9356
:10501000CF93DF93CDB7DEB7A1970FB6F894DEBF7D
:105020000FBECDBF7C01FA01CB0119A2223008F4DA
:105030002AE08E010F5D1F4F422E512C612C712CE6
:10504000BF01A30192010E94B03BF901CA010150C6
:1050500011096A3014F4605D01C0695CD8016C9379
:10506000232B242B252B61F7B801C701B4DFA196B0
:105070000FB6F894DEBF0FBECDBFDF91CF911F9169
:105080000F91FF90EF907F906F905F904F900895F9
:105090008F929F92AF92BF92CF92DF92EF92FF9248
:1050A0000F931F93CF93DF937C018B016C0182E000
:1050B000C80ED11C4701E5E08E0E911CC0E0D0E087
:1050C000F60141916F0150E060E070E02AE0C80114
:1050D00097DF5C016EE2C80153DF8A0D9B1DC80F8C
:1050E000D91FC814D90461F7F701458150E060E089
:1050F00070E02AE0C80184DF8C0F9D1FDF91CF9103
:105100001F910F91FF90EF90DF90CF90BF90AF90E5
:105110009F908F90089565EA75E05DCF0F931F9380
:10512000CF93DF93EC0157DF8C01CE01F4DF800FCA
:10513000911FDF91CF911F910F9108950F931F93AE
:10514000CF93DF93EC0123DF8C01CE01E4DF800FEE
:10515000911FDF91CF911F910F9108953CCF1F9226
:105160000F920FB60F9211240BB60F922F933F930D
:105170004F935F936F937F938F939F93AF93BF935F
:10518000EF93FF9381E398E0E4DBFF91EF91BF9110
:10519000AF919F918F917F916F915F914F913F91CF
:1051A0002F910F900BBE0F900FBE0F901F90189570
:1051B0001F920F920FB60F9211240BB60F922F93DE
:1051C0003F934F935F936F937F938F939F93AF938F
:1051D000BF93EF93FF9381E398E04ADBFF91EF9158
:1051E000BF91AF919F918F917F916F915F914F91FF
:1051F0003F912F910F900BBE0F900FBE0F901F90FD
:1052000018951F920F920FB60F9211240BB60F92A2
:105210002F933F934F935F936F937F938F939F93BE
:10522000AF93BF93EF93FF938EEC98E092DBFF91E7
:10523000EF91BF91AF919F918F917F916F915F910E
:105240004F913F912F910F900BBE0F900FBE0F907B
:105250001F9018951F920F920FB60F9211240BB644
:105260000F922F933F934F935F936F937F938F93FF
:105270009F93AF93BF93EF93FF938EEC98E0F8DA90
:10528000FF91EF91BF91AF919F918F917F916F911E
:105290005F914F913F912F910F900BBE0F900FBEDA
:1052A0000F901F9018951F920F920FB60F92112416
:1052B0000BB60F922F933F934F935F936F937F9310
:1052C0008F939F93AF93BF93EF93FF938BE699E0F8
:1052D00040DBFF91EF91BF91AF919F918F917F91B3
:1052E0006F915F914F913F912F910F900BBE0F9057
:1052F0000FBE0F901F9018951F920F920FB60F922E
:1053000011240BB60F922F933F934F935F936F939C
:105310007F938F939F93AF93BF93EF93FF938BE60E
:1053200099E0A6DAFF91EF91BF91AF919F918F9194
:105330007F916F915F914F913F912F910F900BBE95
:105340000F900FBE0F901F901895CF92DF92EF92A3
:10535000FF920F931F93CF93DF93EC016B017A01C0
:105360008DE792E0FE01819391938F0165EE74E0E9
:10537000CF01F8DC289665EE74E0CE01F3DCB601CF
:10538000C801A6DCB701CE01DF91CF911F910F912B
:10539000FF90EF90DF90CF909BCC90E0FC01319795
:1053A000E231F10508F04EC08827E658FF4F8F4FD5
:1053B0000C94B83C809180008F7703C0809180006E
:1053C0008F7D80938000089580918000877FF9CF42
:1053D00084B58F7702C084B58F7D84BD0895809198
:1053E000B0008F7703C08091B0008F7D8093B000B4
:1053F0000895809190008F7707C0809190008F7DF5
:1054000003C080919000877F8093900008958091E1
:10541000A0008F7707C08091A0008F7D03C080918E
:10542000A000877F8093A0000895809120018F774E
:1054300007C0809120018F7D03C080912001877F6C
:105440008093200108953FB7F89480916C0A909161
:105450006D0AA0916E0AB0916F0A26B5A89B05C08F
:105460002F3F19F00196A11DB11D3FBFBA2FA92FE3
:10547000982F8827820F911DA11DB11DBC01CD0160
:1054800042E0660F771F881F991F4A95D1F708954C
:10549000CF93DF93282F30E0F901E459FA4F84913C
:1054A000F901EA5DFA4FD491F901E052FB4FC49142
:1054B000CC2389F0811171DFEC2FF0E0EE0FFF1F9C
:1054C000EA53FB4FA591B491EC91ED2381E090E07C
:1054D00021F480E002C080E090E0DF91CF91089558
:1054E0001F93CF93DF93282F30E0F901E459FA4F4F
:1054F0008491F901EA5DFA4FD491F901E052FB4F32
:10550000C491CC23C1F0162F811147DFEC2FF0E0BE
:10551000EE0FFF1FE455FB4FA591B4918FB7F894A0
:10552000111105C09C91ED2FE095E92302C0EC918B
:10553000ED2BEC938FBFDF91CF911F910895CF9307
:10554000DF9390E0FC01EA5DFA4F2491FC01E05208
:10555000FB4F8491882361F190E0880F991FFC0133
:10556000EE56FB4FC591D491FC01E455FB4FA5913C
:10557000B491611109C09FB7F89488812095822366
:105580008883EC912E230BC0623061F49FB7F894AE
:105590003881822F809583238883EC912E2B2C9346
:1055A0009FBF06C08FB7F894E8812E2B28838FBF4A
:1055B000DF91CF9108958F929F92AF92BF92CF9239
:1055C000DF92EF92FF926B017C013DDF4B015C01AA
:1055D000C114D104E104F104E9F035DFDC01CB01B1
:1055E00088199909AA09BB09883E9340A105B1050C
:1055F00078F321E0C21AD108E108F10888EE880E9C
:1056000083E0981EA11CB11CC114D104E104F10473
:1056100021F7DECFFF90EF90DF90CF90BF90AF905B
:105620009F908F9008952FB7F8946091680A7091B9
:10563000690A80916A0A90916B0A2FBF08958F9230
:105640009F92AF92BF92CF92DF92EF92FF92CF9351
:10565000DF93F82EEB01E42E6901E5DF4B015C01DD
:105660008091DC079091DD07DC01ED91FC910084D5
:10567000F185E02D1995892B09F470C08091DC0724
:105680009091DD07DC01ED91FC91EE2031F0048476
:10569000F585E02D1995888318C00284F385E02DE7
:1056A000199588838091630A9091640AA091650A94
:1056B000B091660A0197A109B1098093630A90939A
:1056C000640AA093650AB093660A8091630A909178
:1056D000640AA091650AB091660A892B8A2B8B2BEC
:1056E00011F081E083C065E070E080E090E063DF6E
:1056F0008091DC079091DD07DC01ED91FC91008445
:10570000F185E02D1995892B61F38091DC0790914B
:10571000DD07DC01ED91FC910484F585E02D199500
:105720002F2D30E0205D3F4F82179307D1F640E0E8
:1057300065E577E084EF91E00E94E00C059751F079
:1057400062E973E08BE699E009DD6BEB75E08BE6CF
:1057500099E0F4DC81E0F601808348C064DFDC017D
:10576000CB0188199909AA09BB09803D9740A10579
:10577000B10508F475CF62E973E08BE699E0EEDCE1
:1057800062EB75E08BE699E002DC6CEE73E08BE691
:1057900099E0E4DCC090630AD090640AE090650A66
:1057A000F090660AF7FE0DC06DE28BE699E0E8DB4B
:1057B00044275527BA014C195D096E097F092AE073
:1057C00003C02AE0B701A6018BE699E019DC8BE65D
:1057D00099E0A1DC1092630A1092640A1092650AA3
:1057E0001092660A1092620A188280E0DF91CF91CF
:1057F000FF90EF90DF90CF90BF90AF909F908F90F1
:1058000008951F920F920FB60F9211242F933F937A
:105810008F939F93AF93BF938091680A9091690A89
:10582000A0916A0AB0916B0A3091670A23E0230FB6
:105830002D3720F40196A11DB11D05C026E8230FC8
:105840000296A11DB11D2093670A8093680A909368
:10585000690AA0936A0AB0936B0A80916C0A9091CE
:105860006D0AA0916E0AB0916F0A0196A11DB11D3B
:1058700080936C0A90936D0AA0936E0AB0936F0A9E
:10588000BF91AF919F918F913F912F910F900FBE3C
:105890000F901F901895CF93DF93CDB7DEB7E097A9
:1058A0000FB6F894DEBF0FBECDBF789484B582608A
:1058B00084BD84B5816084BD85B5826085BD85B5B4
:1058C000816085BD80916E00816080936E00109232
:1058D00081008091810082608093810080918100AD
:1058E000816080938100809180008160809380003E
:1058F0008091B10084608093B1008091B00081609C
:105900008093B0008091910082608093910080919B
:1059100091008160809391008091900081608093DC
:1059200090008091A10082608093A1008091A100ED
:1059300081608093A1008091A00081608093A0008D
:1059400080912101826080932101809121018160F9
:1059500080932101809120018160809320018091BA
:105960007A00846080937A0080917A0082608093CC
:105970007A0080917A00816080937A0080917A0029
:10598000806880937A001092C10086E090E00E94C7
:10599000DA3C7C0183E192E0D70111969C938E93CF
:1059A00080E490E013969C938E93129789E290E0A6
:1059B00015969C938E93149760E0C1DD60E080E4BF
:1059C000BEDDF0926B07E0926A0786E090E00E94ED
:1059D000DA3C8C018BE192E0F8019183808381E4D1
:1059E00090E09383828387E290E09583848360E0F4
:1059F000A6DD60E081E4A3DD1093690700936807EA
:105A000084E090E00E94DA3C6C0183E292E0D601EF
:105A10008D939C938EE090E00E94DA3C5C0160E004
:105A200086E38DDDECE5F5E0E491D501EC93E6E16C
:105A3000F5E0E491F0E0EE0FFF1FEA53FB4F859194
:105A40009491F501928381831386158614863B9683
:105A5000C50103961292E817F907E1F783E190E098
:105A60000E94DA3CFC0188E595E1928B818BB6823D
:105A7000A5821482108289E08183BB24B394B28210
:105A8000B382D6011396FC93EE931297D0927307CC
:105A9000C092720788E090E00E94DA3CFC018BE241
:105AA00092E091838083F782E68215830483D38218
:105AB000C282F0938207E093810740E855E260E0FC
:105AC00070E08BE699E00E94F11440E855E260E056
:105AD00070E08EEC98E00E94F11440E052EC61E03E
