:100000007AC00000A9C00000A7C00000A5C0000081
:10001000A3C00000A1C000009FC000009DC0000060
:100020009BC0000099C0000097C0000095C0000070
:1000300093C0000091C000008FC000008DC0000080
:100040008BC0000089C0000087C0000085C0000090
:1000500083C0000081C000007FC000000C94F30C3E
:100060007BC000000C94CA0D0C94A00D75C000005C
:1000700073C0000071C000006FC000006DC00000C0
:100080006BC0000069C0000067C0000065C00000D0
:1000900063C0000061C000005FC000005DC00000E0
:1000A0005BC0000059C0000057C0000055C00000F0
:1000B00053C0000051C000004FC000004DC0000000
:1000C0004BC0000049C0000047C0000045C0000010
:1000D00043C0000041C000003FC000003DC0000020
:1000E0003BC000005A0354036A0362035F030F031B
:1000F0002C03D602740E11241FBECFEFD1E2DEBF57
:10010000CDBF00E00CBF24E0A4ECB3E001C01D9221
:10011000A638B207E1F713E0A0E0B2E0E4EEF5E2C2
:1001200000E00BBF02C007900D92A43CB107D9F7C5
:1001300010E0CBE7D0E000E006C021970109802F56
:10014000FE010E94A610CA37D10780E00807A9F770
:100150000E94000E0C94F01253CFFC01538D448D7D
:10016000252F30E0842F90E0821B930B541710F062
:10017000CF96089501970895FC01918D828D98176F
:1001800061F0828DDF01A80FB11D5D968C91928D7B
:100190009F5F9F73928F90E008958FEF9FEF089578
:1001A000FC01918D828D981731F0828DE80FF11D41
:1001B000858D90E008958FEF9FEF0895FC01918D5C
:1001C000228D892F90E0805C9F4F821B91098F7355
:1001D0009927089580E090E0892B21F00E94E60A9B
:1001E000811125C080E090E0892B41F080E090E013
:1001F000892B21F00E94000081111CC080E090E05A
:10020000892B41F080E090E0892B21F00E940000D2
:10021000811113C080E090E0892BA1F080E090E094
:10022000892B81F00E94000081110AC008950E946C
:100230000000D8CF0E940000E1CF0E940000EACF6A
:100240000C9400000895AF92BF92CF92DF92EF928C
:10025000FF920F931F93CF93DF93FC01C381D4814F
:10026000209751F02C813D81AB01420F531FEA8151
:10027000FB81E417F50708F5FC01E580F6805B01DA
:100280006E157F0508F457016B018C01C5010696B8
:100290000E94C2100097B9F0FC01B382A282D18300
:1002A000C083F80194838383EE0CFF1CF682E58201
:1002B000FC01D582C482069606C0C90106965D83FC
:1002C0004C838C0F9D1FDF91CF911F910F91FF9059
:1002D000EF90DF90CF90BF90AF900895CF92DF92D4
:1002E000EF92FF920F931F93CF93DF931F921F9272
:1002F000CDB7DEB76C01DC01ED91FC91008111817D
:1003000069831A82F801E480F580FFEFEF1AFF0A93
:10031000B701C8010E943D0D882391F0D8012D91AD
:100320003C91119714968D919C911597BE016F5F2A
:100330007F4F820F931F0E94E912F801F582E48239
:10034000D60112968D919C911397019613969C93CA
:100350008E9312970F900F90DF91CF911F910F9175
:10036000FF90EF90DF90CF9008958F929F92AF9281
:10037000BF92CF92DF92EF92FF920F931F93CF9392
:10038000DF937C014B01DC01AD90BC90F501008155
:100390001181D8011496CD90DC90159761157105E7
:1003A00001F1FB0101900020E9F73197E61BF70B03
:1003B000C1F0EF01CC0DDD1DBE01C8010E943D0D55
:1003C000882379F0F8012081318184819581B401FD
:1003D000820F931F0E94E912D8011596DC93CE93E9
:1003E0001497D501ED91FC9124813581F70182812B
:1003F0009381820F931F8C199D0993838283DF91D0
:10040000CF911F910F91FF90EF90DF90CF90BF9011
:10041000AF909F908F9008950F931F93CF93DF938A
:10042000CDB7DEB766970FB6F894DEBF0FBECDBF6F
:100430008C01CB011E8AFE0176962AE030E0B901DC
:100440000E94711090E3980F9293CB010097B9F737
:10045000BF01C8018ADF66960FB6F894DEBF0FBEF3
:10046000CDBFDF91CF911F910F9108958F929F92F1
:10047000AF92BF92EF92FF920F931F93CF93DF93B0
:10048000CDB7DEB766970FB6F894DEBF0FBECDBF0F
:100490007C011E8A8E010A5E1F4F8AE0882E912CF5
:1004A000A12CB12CCB01BA01A50194010E948410AA
:1004B000942F852F605DF80162938F01A901692F48
:1004C000782F411551056105710561F7BF01C7011D
:1004D0004CDF66960FB6F894DEBF0FBECDBFDF913E
:1004E000CF911F910F91FF90EF90BF90AF909F9091
:1004F0008F900895FF920F931F93CF93DF93611511
:10050000710541F465EA72E0DF91CF911F910F917F
:10051000FF902BCF8B01EC0162E2CE01DFDEF80110
:1005200061918F01662351F0E6E9F2E0F080FF204F
:10053000A1F39181961751F03296F8CF62E2CE0185
:10054000DF91CF911F910F91FF90C8CE6CE5CE0146
:10055000C5DE6F2DE2CF2F923F924F925F926F9246
:100560007F928F929F92AF92BF92CF92DF92EF9243
:10057000FF920F931F93CF93DF93CDB7DEB76A97A8
:100580000FB6F894DEBF0FBECDBFDC01ED91FC913C
:1005900011973197E830F10508F014C28B017C0106
:1005A0008827EE58FF4F8F4F0C94A610FD01C28094
:1005B000D380E480F580A7019601C701B6010E94AF
:1005C000A10E882319F065EB72E092C020E030E0C4
:1005D000A901C701B6010E94A10E87FF07C06DE205
:1005E000C8017CDEF7FAF094F7F8F09420E030E0F0
:1005F000A901C701B6010E94A10E882309F47BC09E
:10060000A7019601C701B6010E94D40FA701960168
:100610000E94A10E81116FC06CEB72E069C012964E
:10062000ED90FC9013976BE5C80158DEF701E2806E
:10063000F380E114F10451F0B801C70102968BDF99
:10064000D701ED90FC90E114F10411F46DE529C09F
:100650006CE2C80143DEEDCFFD01E280F3806BE781
:10066000C8013CDED7011296ED90FC90139703C0B1
:100670006CE2C80133DEE114F10491F0F70162810C
:100680007381C80137DF6AE3C80128DEB801C701FA
:10069000049661DFD701ED90FC90E114F10441F77D
:1006A0006DE7C8011BDE8EC1FD0162817381C80147
:1006B00021DF88C112966D917C91139719C06DE26C
:1006C000C8010CDEF7014281538164817581C80144
:1006D000CDDE78C1FD0182819381A481B581892B12
:1006E0008A2B8B2B19F46FEA72E002C06AEA72E07F
:1006F000C8013BDE67C120E836E948E15BE4C70199
:10070000B6010E94691087FD55C1412C512C70E241
:10071000672E712C812C912CF201EA5CFD4F24890B
:10072000358946895789C701B6010E94691087FD3E
:100730000FC0F201E25EFD4F248935894689578951
:10074000C701B6010E94060F6B017C01860C971C45
:1007500075946794F4E04F1A510888EE48168FEFAD
:100760005806D1F655245A9420E030E0A901C7017B
:10077000B6010E946910181694F52CEA35EC47E290
:1007800057E3C701B6010E94A10E181644F1BFEF4E
:100790005B1629F1952DA4E09A0250011124F50170
:1007A000EA5FFD4F2081318142815381C701B6014B
:1007B0000E94A10E87FF0FC0F501EA5CFD4F20816A
:1007C000318142815381C701B6010E94060F6B013E
:1007D0007C0186189708759467945A94D8CFC701FE
:1007E000B6010E943D102B013C016B8B7C8B8D8BE5
:1007F0009E8B46E0A42E80E492E4AFE0B0E08F8BC5
:10080000988FA98FBA8FBA2CAA24AA94AB0C8B8983
:100810009C89AD89BE890A97A105B105E8F06F8969
:10082000788D898D9A8D2AE030E040E050E00E947A
:1008300084102F8B388F498F5A8F6B897C898D89D3
:100840009E892AE030E040E050E00E9484102B8B2B
:100850003C8B4D8B5E8BD7CFC301B2010E94A50E9E
:100860009B01AC01C701B6010E94D30F6B017C0153
:100870006F89788D898D9A8D0E94A50E9B01AC01A0
:10088000C701B6010E94060F6B8B7C8B8D8B9E8BF4
:100890000E943D106B017C010E94A50E9B01AC01E2
:1008A0006B897C898D899E890E94D30F9B01AC0145
:1008B0000E94D40F0E943D10C60ED71EE81EF91EDE
:1008C0008F89988DA98DBA8DC816D906EA06FB06C0
:1008D00010F19FEF491A590A690A790A81149104A3
:1008E00089F0AAE04A1651046104710458F0BFEF80
:1008F0008B1A9B0AC12CD12C7601412C512C320130
:10090000439409C0C12CD12C760105C01B147CF482
:1009100069017A01BA94C701B6012AE030E040E0EB
:1009200050E00E948410672B682B692B79F3AB2C65
:10093000B301A201C8019ADDBB2039F1188A3E013A
:10094000E0E16E0E711C7A8A698A2AE0222E312C2F
:10095000412C512CAA94BFEFAB1669F0C701B60128
:10096000A20191010E948410605DD3016E933D014C
:1009700069017A01EFCF69897A896B1971098EE271
:10098000FB018293BF01C801F0DC97FE09C069EB4F
:1009900072E0C801EADC662777276819790907C081
:1009A0008114910479F065E6C80198DCB401C801AE
:1009B00033DD08C080E2682E712C95E0592E812C21
:1009C000912CD2CE6A960FB6F894DEBF0FBECDBF83
:1009D000DF91CF911F910F91FF90EF90DF90CF901B
:1009E000BF90AF909F908F907F906F905F904F904F
:1009F0003F902F900895FC01848DDF01A80FB11D59
:100A0000A35ABF4F2C91848D90E001968F73992744
:100A1000848FA689B7892C93A089B1898C91806431
:100A20008C93938D848D981306C00288F389E02DF2
:100A300080818F7D808308950F931F93CF93DF93E1
:100A40008B01FC01C281D381209759F06A817B819F
:100A5000C8010E94E012892B21F00990D881C02D95
:100A6000F3CFCE01DF91CF911F910F910895E4DF75
:100A7000FC01892B09F44BC0848195818330910559
:100A80003CF4813091057CF4009709F447C038C0EC
:100A9000853091052CF0059799F5668177812BC0FB
:100AA0008681978108950680F781E02D309779F14E
:100AB0008081843779F18B3229F08D3221F431969F
:100AC00091E002C0319690E060E070E03AE0819100
:100AD00020ED280F2A3068F4369FA001379F500D73
:100AE0001124682F880F770B60537109640F751FED
:100AF000EECF992391F088279927861B970B0895AD
:100B000066817781808591850E94381006C080E0DB
:100B100090E0089581E090E00895CB0108958CDF86
:100B2000009749F0FC01248135812730310519F403
:100B30008681978108953BC1CF92DF92EF92FF9219
:100B40000F931F93CF93DF93CDB7DEB72C970FB6DC
:100B5000F894DEBF0FBECDBF8C01CB01BA016CDFB4
:100B60007C01009709F442C0FC01C480D580F1E00B
:100B7000CF16D10461F4FC0166817781611571059E
:100B800031F085EA92E00E94E012892B69F0F1E0F1
:100B9000CF1AD10882E0C816D10430F4F70166817B
:100BA00077816115710521F564EA72E0CE01019645
:100BB0006C0189D7DC86CB86CE010B9698878F8314
:100BC0001A861986BE01695F7F4FC7010496C3DC90
:100BD00089819A81F801918380838B819C819383A1
:100BE00082838D819E819583848304C064EA72E050
:100BF000C80169D7C8012C960FB6F894DEBF0FBEA6
:100C0000CDBFDF91CF911F910F91FF90EF90DF90BB
:100C1000CF900895FC01A081B1818C918D3051F06D
:100C200024F489508230B8F505C0803219F08F3233
:100C300019F0089511962CC011968C9111978A3253
:100C400019F08F32D1F008951196B183A083A0815D
:100C5000B181CD0101969183808311968C9111977A
:100C60008823C9F08A3299F712968C9112978F32A5
:100C700071F713960DC08A3071F2A081B181CD0158
:100C800001969183808311968C918111F4CF03C0DA
:100C9000B183A083C0CF08950F931F93CF93DF93A9
:100CA0001F92CDB7DEB78C016983B4DFD801ED9117
:100CB000FC91119780816981861305C03196ED936F
:100CC000FC9381E001C080E00F90DF91CF911F91F4
:100CD0000F9108950F931F93CF93DF93EC010C8135
:100CE0001D81029697DFEA81FB819081973231F175
:100CF000923221F180ED890F8A3070F081EA890FFC
:100D00008C3150F08FEB890F8A3130F09B3221F01B
:100D100083ED890F8230F0F52A813B812F5F3F4FB1
:100D20003B832A83EC81FD819F012F5F3F4F3D83F1
:100D30002C839083EA81FB819081DCCF3196FB8309
:100D4000EA83EA81FB812081222321F1AF014F5FF9
:100D50005F4F5B834A832917E9F02C3591F4218199
:100D6000AAE9B2E08C91882339F0821303C011966E
:100D70002C9102C01296F6CF222361F03296FB83AB
:100D8000EA83EC81FD81AF014F5F5F4F5D834C8350
:100D90002083D7CFEC81FD81CF0101969D838C8389
:100DA0001082C801DF91CF911F910F91089580911A
:100DB000C80381110BC01092C5031092C403109296
:100DC000C7031092C60381E08093C80384EC93E0CC
:100DD0000895DB01109749F0ED91FC911197019076
:100DE000F081E02DBC01CD01199480E090E00895E0
:100DF0009F92AF92BF92CF92DF92EF92FF920F93AA
:100E00001F93CF93DF9300D000D0CDB7DEB76C0136
:100E1000FC0100811181B80184E090E0DADF0097E5
:100E200009F471C0FC0111830083138212828C01CA
:100E30007601F2E0EF0EF11C6BE7C7012DDF88238E
:100E400009F45EC06DE7C70127DF81115EC086E04F
:100E5000982EC6013FDF5C01892B09F451C06AE37B
:100E6000C7011ADF882309F44BC01A821982BE0118
:100E70006F5F7F4FC6011CD4882309F441C0B501C0
:100E8000C801DADDDC01892B49F5F8016081718147
:100E90008AE090E09EDFDC01892B39F011961C92EC
:100EA0001E9215961C921E921497F801228133818E
:100EB0002115310551F0F90180819181009711F0E0
:100EC0009C01F9CFB183A08303C0F801B383A2834F
:100ED0001097B1F01396BC92AE921297FE01319624
:100EE0001496892D01900D928A95E1F76DE7C7015F
:100EF000D3DE81110AC06CE2C701CEDE8111A9CF19
:100F000056DF8C0102C053DF92CFC80126960FB680
:100F1000F894DEBF0FBECDBFDF91CF911F910F912F
:100F2000FF90EF90DF90CF90BF90AF909F9008958B
:100F30003F924F925F926F927F928F929F92AF9269
:100F4000BF92CF92DF92EF92FF920F931F93CF93B6
:100F5000DF93CDB7DEB7C35DD1090FB6F894DEBF1E
:100F60000FBECDBFE091E003F091E10382E080830A
:100F7000E091DC03F091DD031082E091DE03F0915B
:100F8000DF038FEC80831092E803E091E403F0919B
:100F9000E50386E08083E091E203F091E303808142
:100FA00080618083E091E203F091E30380818860B7
:100FB0008083E091E203F091E30380818068808385
:100FC000E091E203F091E30380818F7D8083CE0185
:100FD0008E589F4F2CE3E6E1F3E0DC0101900D9287
:100FE0002A95E1F722E832E0CB54DF4F398328839A
:100FF000C55BD040C854DF4F19821882C85BD0400F
:1010000020E032E0C654DF4F39832883CA5BD040EA
:1010100025EB30E02C0F3D1F3A8329839C838B8383
:101020009E838D831AE0D12EDF828E010F5F1F4FCA
:10103000C801DEDE7C0145EC52E0BC01CE018253EA
:101040009F4F7ADD4CEC52E0B701CE0188539F4FA1
:1010500073DD41ED52E0B701CE018E539F4F6CDD41
:10106000CE0188539F4F35D4CE0182539F4F31D448
:10107000CE018E539F4F2DD481E7E2E5F3E0D801F6
:1010800001900D928A95E1F785EB90E08C0F9D1F02
:10109000C255DF4F99838883CE5AD040C055DF4F69
:1010A00019830883C05BD040CE54DF4F1983088377
:1010B000C25BD040CC54DF4FD882C45BD04007978E
:1010C00097DE7C0145EC52E0BC01CE0184549F4F79
:1010D00033DD6AED72E0C70122DD63EE72E0C7DC4A
:1010E0005C016AED72E0C7011ADD6AEE72E0BFDCF6
:1010F0006C016AED72E0C70112DD61EF72E09CDC09
:10110000FC01892B09F41DC18481958183309105EF
:101110003CF481309105D4F4892B09F412C10CC13F
:10112000853091055CF0059709F006C166817781ED
:10113000808591850AD62B013C01F9C066817781B3
:101140008085918502D62B013C0119C10680F7816B
:10115000E02D309709F4F5C080818B3231F08D326B
:1011600029F431963324339402C03196312C808196
:10117000843709F4EAC08F7D8E3409F4EDC08934D8
:1011800009F47EC04F0100E020E030E0A901F40145
:10119000D4011D914D0180ED810F8A30E0F42C3C8B
:1011A0009CEC39079CE0490751059CF4AAE0B0E0AB
:1011B000E1D6212F110F330B205331092901330FB1
:1011C000660877089B01AC01240D351D461D571D8F
:1011D000DECF0F5FDCCF1E3221F54D01F401D401CB
:1011E0001D914D0180ED810F8A30D8F42C3C8CECA0
:1011F00038078CE0480751058CF7AAE0B0E0BAD672
:10120000212F110F330B205331092901330F6608A9
:1012100077089B01AC01240D351D461D571D01505B
:10122000DDCF80818F7D602F000F770B8534E1F556
:1012300081818D3219F43296A1E006C08B3211F013
:10124000319601C03296A0E000E010E0BAE09B2E9B
:10125000B19180ED8B0F8A3008F5909EC001919E70
:10126000900D11240B2FBB0F110B00531109080F08
:10127000191FC801860F971F879754F3A1110AC041
:10128000332009F476C0412C512C60E8662E772477
:101290007A9475C0332009F454C065C0AA2331F094
:1012A00011950195110902C000E010E0060F171F0B
:1012B000CA01B9014CD52B013C0110161106CCF422
:1012C000912C00FF0FC0B4E09B9EF0011124EA595D
:1012D000FD4F2081318142815381C301B20196D5F6
:1012E0002B013C011595079593940115110549F7BC
:1012F0001CC0119501951109912C01151105A9F03A
:1013000000FF0FC024E0929EF0011124E25BFD4F2C
:101310002081318142815381C301B20177D52B01F4
:101320003C01159507959394E8CF332041F177FA66
:10133000709477F8709423C04680578060847184DD
:101340001EC0412C512C32011AC0412C512C30E8C6
:10135000632E3FE3732E13C0412C512C20EC622EE0
:101360002FE7722E0CC0412C512C612C90E8792E65
:1013700006C0412C512C80E8682E8FE7782E6AED4C
:1013800072E0C701CCDB48EF52E0BC01CE018255D0
:101390009F4FD2DBCE0184549F4F9BD2C501F6D222
:1013A000C601F4D2A3019201C301B20196D68823EB
:1013B00019F087E093E018C073016201E894F7F830
:1013C0002FEF3FEF4FE75FE7C701B60186D68111E8
:1013D0000DC02FEF3FEF4FE75FE7C701B601B1D474
:1013E000181624F48BE093E063D260C02FEF3FEF38
:1013F0004FE75FE4C301B2016CD618161CF48FE00E
:1014000093E0F2CF2FEF3FEF4FE75FECC301B20164
:1014100098D487FDF4CF20E030E0A901C301B201E8
:1014200090D487FF06C08DE267D277FA709477F880
:1014300070942AE037ED43EA5BE3C301B201B4D50F
:101440004B015C011AD66B017C017FD49B01AC017E
:10145000C501B401A8D54B015C014AE0C701B60142
:1014600056D28EE249D220E030E040E251E4C5019C
:10147000B401CCD44B015C0100D66B01E12CF12C02
:101480004AE0C701B60143D2C701B6015ED49B0151
:10149000AC01C501B40187D520E030E040E251E461
:1014A000B5D4EBD580E090E04AE031D283E193E01F
:1014B000FFD1CE0182559F4F0CD2C255DF4F88819C
:1014C0009981CE5AD040F3D6C454DF4F8881998198
:1014D000CC5BD040ECD6CE53DF4F88819981C25C83
:1014E000D040E5D6C853DF4F88819981C85CD04091
:1014F000DED6C253DF4F88819981CE5CD040D7D6EB
:1015000082E892E0CB54DF4F99838883C55BD0405B
:10151000C854DF4FE881F981C85BD040309771F043
:1015200082819381C654DF4F99838883CA5BD04000
:1015300000811181CF01BBD6F801F0CFCD52DF4F32
:101540000FB6F894DEBF0FBECDBFDF91CF911F91D4
:101550000F91FF90EF90DF90CF90BF90AF909F9052
:101560008F907F906F905F904F903F900895CF92B3
:10157000DF92EF92FF920F931F93CF93DF936C0153
:101580007A018B01C0E0D0E0CE15DF0589F0D801EB
:101590006D918D01D601ED91FC910190F081E02DCE
:1015A000C6011995892B11F47E0102C02196ECCF5A
:1015B000C701DF91CF911F910F91FF90EF90DF90C6
:1015C000CF900895089580E090E0089580ED93E035
:1015D0000E94DE0021E0892B09F420E0822F08958B
:1015E000E2D7EF92FF920F931F93CF93DF93EC011B
:1015F00081E0888F9B8D8C8D981305C0E889F989CF
:10160000808185FD23C0F62E0B8D10E00F5F1F4FEC
:101610000F731127E02E8C8DE8120BC00FB607FC5C
:10162000FACFE889F989808185FFF5CFCE01E3D92A
:10163000F2CF8B8DFE01E80FF11DE35AFF4FF082D0
:101640000B8FEA89FB898081806207C0EE89FF8960
:101650006083E889F98980818064808381E090E0FB
:10166000DF91CF911F910F91FF90EF900895CF934D
:10167000DF93EC01888D8823C1F0EA89FB898081A2
:1016800085FD05C0A889B9898C9186FD0EC00FB66D
:1016900007FCF5CF808185FFF2CFA889B9898C91AD
:1016A00085FFEDCFCE01A7D9E8CFDF91CF91089587
:1016B0009F92AF92BF92CF92DF92EF92FF920F93E1
:1016C0001F93CF93DF9300D000D0CDB7DEB7FC01DE
:1016D0009681992309F4D8C06B017F0191509683BC
:1016E0005F0182E0A80EB11CC50194DAD701129601
:1016F000ED91FC91139780818B3521F08B3709F4A4
:1017000092C09BC0F70100811181B80184E090E094
:1017100060DB009751F0DC0111961C930E93139639
:101720001C921E9212978C0111C080917A04811133
:101730000BC01092770410927604109279041092E4
:10174000780481E080937A0406E714E06BE5C50134
:10175000A3DA882309F447C06DE5C5019DDA81113C
:1017600053C086E0982E1A821982BE016F5F7F4FA8
:10177000C7019EDF8823B9F1F8016081718188E09B
:1017800090E027DBDC01892B39F011961C921E9228
:1017900013961C921E921297F80122813381211513
:1017A000310551F0F90180819181009711F09C0180
:1017B000F9CFB183A08303C0F801B383A28310974C
:1017C00091F0FE0131961296892D01900D928A9525
:1017D000E1F76DE5C50160DA811116C06CE2C50163
:1017E0005BDA8111C0CF80917A0481110BC0109215
:1017F000770410927604109279041092780481E0B4
:1018000080937A0406E714E0D8018D919C91892B8E
:1018100011F410E031C086E090E0F60191838083FE
:101820001383028328C0C701E3DADC012D913C91C8
:10183000232B79F327E030E019C011E0873219F04B
:10184000823209F010E0C70145DA009711F3112345
:1018500059F022E030E0D60111963C932E93139676
:101860009C938E93129708C021E030E0F6013183FB
:1018700020839383828311E0D70116968C9116976B
:101880008F5F16968C9301C010E0812F26960FB6BD
:10189000F894DEBF0FBECDBFDF91CF911F910F91A6
:1018A000FF90EF90DF90CF90BF90AF909F90089502
:1018B000009761F0FC0101900020E9F73197AF013A
:1018C000481B590BBC0180ED93E051CE80E090E0C5
:1018D0000895CF93DF93FC0144815581608171812C
:1018E00080ED93E044DEEC0183E193E0E1DF8C0FD7
:1018F0009D1FDF91CF910895E091D003F091D10326
:101900000190F081E02D682F80ED93E019948F9283
:101910009F92AF92BF920F931F93CF93DF93CDB758
:10192000DEB7A1970FB6F894DEBF0FBECDBF19A2E8
:10193000423008F44AE08E010F5D1F4F842E912C37
:10194000A12CB12CA5019401DFD3E62FB901CA0166
:1019500001501109EA3014F4E05D01C0E95CD801DE
:10196000EC93232B242B252B69F7C801A1DFA1962B
:101970000FB6F894DEBF0FBECDBFDF91CF911F91A0
:101980000F91BF90AF909F908F900895CF92DF926C
:10199000EF92FF92CF93DF936C01990FEE08FF084F
:1019A000F7FE10C08DE2A8DFEC0166277727CB0198
:1019B0006C197D098E099F094AE0A9DF7C01EC0EB4
:1019C000FD1E05C04AE0C701B601A1DF7C0183E12D
:1019D00093E06EDF8E0D9F1DDF91CF91FF90EF9012
:1019E000DF90CF9008951F920F920FB60F9211249F
:1019F0002F933F938F939F93AF93BF9380917204E4
:101A000090917304A0917404B091750430917104A5
:101A100023E0230F2D3720F40196A11DB11D05C031
:101A200026E8230F0296A11DB11D20937104809317
:101A3000720490937304A0937404B093750480911E
:101A40006D0490916E04A0916F04B09170040196A2
:101A5000A11DB11D80936D0490936E04A0936F043B
:101A6000B0937004BF91AF919F918F913F912F914F
:101A70000F900FBE0F901F9018950F931F93CF9349
:101A8000DF93EC0188819981009729F02A813B81BD
:101A90002617370780F48B016F5F7F4FA0D4009724
:101AA00061F0998388831B830A832C813D81232BDA
:101AB00011F4FC01108281E001C080E0DF91CF9140
:101AC0001F910F910895EF92FF920F931F93CF9361
:101AD000DF93EC01198218821B821A821D821C82FC
:101AE0006115710531F18B01FB0101900020E9F7CF
:101AF00031977F01E61AF70AB701BFDF28813981E4
:101B000081110CC02115310511F0C901D0D3198202
:101B100018821D821C821B821A820BC0FD82EC82FD
:101B2000B801C901DF91CF911F910F91FF90EF9004
:101B300050C5DF91CF911F910F91FF90EF900895C5
:101B40001F920F920FB60F9211240BB60F922F9384
:101B50003F934F935F936F937F938F939F93AF9335
:101B6000BF93EF93FF9380ED93E00E94FB04FF91FE
:101B7000EF91BF91AF919F918F917F916F915F9105
:101B80004F913F912F910F900BBE0F900FBE0F9072
:101B90001F9018951F920F920FB60F9211240BB63B
:101BA0000F922F938F939F93EF93FF93E091E00316
:101BB000F091E1038081E091E603F091E70382FD7B
:101BC00012C090818091E9038F5F8F732091EA03A7
:101BD000821751F0E091E903F0E0E053FC4F958F5C
:101BE0008093E90301C08081FF91EF919F918F91D4
:101BF0002F910F900BBE0F900FBE0F901F90189556
:101C0000789484B5826084BD84B5816084BD85B5D7
:101C1000826085BD85B5816085BD80916E008160E3
:101C200080936E0010928100809181008260809389
:101C3000810080918100816080938100809180008B
:101C40008160809380008091B10084608093B100B6
:101C50008091B00081608093B0008091910082609B
:101C60008093910080919100816080939100809198
:101C700090008160809390008091A10082608093A9
:101C8000A1008091A10081608093A1008091A000BB
:101C900081608093A0008091210182608093210166
:101CA00080912101816080932101809120018160D8
:101CB0008093200180917A00846080937A008091E3
:101CC0007A00826080937A0080917A0081608093AC
:101CD0007A0080917A00806880937A001092C10027
:101CE00027D90E94EA00FDCFE0EDF3E013821282D3
:101CF00088EE93E0A0E0B0E084839583A683B78369
:101D000088E892E09183808385EC90E095878487D2
:101D100084EC90E09787868780EC90E0918B808BB5
:101D200081EC90E0938B828B82EC90E0958B848B9E
:101D300086EC90E0978B868B118E128E138E148E0C
:101D4000089540D008F481E00895E89409C097FB15
:101D50003EF490958095709561957F4F8F4F9F4F82
:101D60009923A9F0F92F96E9BB279395F6958795C6
:101D700077956795B795F111F8CFFAF4BB0F11F489
:101D800060FF1BC06F5F7F4F8F4F9F4F16C0882330
:101D900011F096E911C0772321F09EE8872F762F66
:101DA00005C0662371F096E8862F70E060E02AF0A7
:101DB0009A95660F771F881FDAF7880F9695879593
:101DC00097F90895990F0008550FAA0BE0E8FEEF68
:101DD00016161706E807F907C0F012161306E407EF
:101DE000F50798F0621B730B840B950B39F40A26E8
:101DF00061F0232B242B252B21F408950A2609F4C6
:101E0000A140A6958FEF811D811D08950BD078C04C
:101E100069D028F06ED018F0952309F05AC05FC041
:101E20001124A2C07ED0A0F3959FD1F3950F50E06E
:101E3000551F629FF001729FBB27F00DB11D639F7C
:101E4000AA27F00DB11DAA1F649F6627B00DA11D22
:101E5000661F829F2227B00DA11D621F739FB00DC8
:101E6000A11D621F839FA00D611D221F749F332738
:101E7000A00D611D231F849F600D211D822F762FD1
:101E80006A2F11249F5750408AF0E1F088234AF0CE
:101E9000EE0FFF1FBB1F661F771F881F915050401A
:101EA000A9F79E3F510570F014C05EC05F3FECF390
:101EB000983EDCF3869577956795B795F795E79506
:101EC0009F5FC1F7FE2B880F911D9695879597F917
:101ED000089597F99F6780E870E060E008959FEFAC
:101EE00080EC089500240A941616170618060906B1
:101EF000089500240A941216130614060506089580
:101F0000092E0394000C11F4882352F0BB0F40F407
:101F1000BF2B11F460FF04C06F5F7F4F8F4F9F4F47
:101F2000089557FD9058440F551F59F05F3F71F0C9
:101F30004795880F97FB991F61F09F3F79F0879530
:101F40000895121613061406551FF2CF4695F1DFB9
:101F500008C0161617061806991FF1CF8695710549
:101F6000610508940895E894BB2766277727CB017D
:101F700097F9089509D0A59F900DB49F900DA49F47
:101F8000800D911D11240895A29FB001B39FC0013F
:101F9000A39F700D811D1124911DB29F700D811D95
:101FA0001124911D08955058BB27AA270ED0A8CF01
:101FB00099DF30F09EDF20F031F49F3F11F41EF4E2
:101FC0008ECF0EF4E095E7FB84CFE92FAADF80F3F4
:101FD000BA17620773078407950718F071F49EF526
:101FE000C2CF0EF4E0950B2EBA2FA02D0B01B90134
:101FF00090010C01CA01A0011124FF27591B99F07F
:10200000593F50F4503E68F11A16F040A22F232F8A
:10201000342F4427585FF3CF469537952795A795DA
:10202000F0405395C9F77EF41F16BA0B620B730B81
:10203000840BBAF09150A1F0FF0FBB1F661F771FF2
:10204000881FC2F70EC0BA0F621F731F841F48F4A7
:10205000879577956795B795F7959E3F08F0B3CF2D
:102060009395880F08F09927EE0F97958795089517
:1020700004D06894B11178CF08955BDF88F09F5742
:1020800090F0B92F9927B751A0F0D1F0660F771FC4
:10209000881F991F1AF0BA95C9F712C0B13081F0A4
:1020A00062DFB1E008955FCF672F782F8827B85F90
:1020B00039F0B93FCCF3869577956795B395D9F705
:1020C0003EF490958095709561957F4F8F4F9F4F0F
:1020D000089578DE08F48FEF089574DE880B990B6D
:1020E000089597FB072E16F4009406D077FD08D0CC
:1020F00035D007FC05D03EF4909581959F4F08950B
:10210000709561957F4F0895A1E21A2EAA1BBB1B03
:10211000FD010DC0AA1FBB1FEE1FFF1FA217B307B3
:10212000E407F50720F0A21BB30BE40BF50B661FC9
:10213000771F881F991F1A9469F76095709580958D
:1021400090959B01AC01BD01CF010895EE0FFF1FDB
:10215000881F8BBF0790F691E02D1994AA1BBB1B1B
:1021600051E107C0AA1FBB1FA617B70710F0A61B97
:10217000B70B881F991F5A95A9F780959095BC01B8
:10218000CD010895CF93DF938230910510F482E062
:1021900090E0E0918404F091850420E030E0C0E01C
:1021A000D0E0309711F14081518148175907C0F0B4
:1021B0004817590761F482819381209719F09B8316
:1021C0008A832BC0909385048093840426C02115B4
:1021D000310519F04217530718F49A01BE01DF01C7
:1021E000EF010280F381E02DDCCF2115310509F1EB
:1021F000281B390B2430310590F412968D919C9157
:1022000013976115710521F0FB019383828304C04C
:102210009093850480938404FD01329644C0FD01AF
:10222000E20FF31F81939193225031092D933C9338
:102230003AC02091820430918304232B41F42091F1
:102240000202309103023093830420938204209190
:102250000002309101022115310541F42DB73EB73E
:102260004091040250910502241B350BE091820439
:10227000F0918304E217F307A0F42E1B3F0B2817FD
:10228000390778F0AC014E5F5F4F2417350748F0EF
:102290004E0F5F1F50938304409382048193919368
:1022A00002C0E0E0F0E0CF01DF91CF9108950F93FD
:1022B0001F93CF93DF93009709F48CC0FC013297F2
:1022C0001382128200918404109185040115110576
:1022D00081F420813181820F931F209182043091FB
:1022E00083042817390779F5F0938304E093820477
:1022F00071C0D80140E050E0AE17BF0750F412960D
:102300002D913C911397AD012115310509F1D901AA
:10231000F3CF9D01DA013383228360817181860FBF
:10232000971F8217930769F4EC0128813981260FE2
:10233000371F2E5F3F4F318320838A819B81938398
:102340008283452B29F4F0938504E093840442C0F2
:102350001396FC93EE931297ED01499159919E01CA
:10236000240F351FE217F30771F480819181840FE8
:10237000951F029611969C938E938281938113965A
:102380009C938E931297E0E0F0E0D80112968D9125
:102390009C911397009719F0F8018C01F6CF8D915D
:1023A0009C9198012E5F3F4F820F931F20918204D2
:1023B000309183042817390769F4309729F4109273
:1023C00085041092840402C0138212821093830445
:1023D00000938204DF91CF911F910F9108956F9226
:1023E0007F928F929F92AF92BF92CF92DF92EF92A5
:1023F000FF920F931F93CF93DF93EC01009781F42B
:10240000CB01DF91CF911F910F91FF90EF90DF9063
:10241000CF90BF90AF909F908F907F906F90B2CEF3
:10242000FC01E60FF71F9C0122503109E217F30768
:1024300008F4A8C0D9010D911C9111970617170730
:10244000A8F00530110508F49BC0C8010497861751
:10245000970708F495C002501109061B170B01934A
:1024600011936D937C93CF0122DF8AC05B01A01A88
:10247000B10A4C01800E911EA0918404B091850494
:1024800040E050E0E12CF12C109709F44AC0A81567
:10249000B905D1F56D907C901197630182E0C80E6B
:1024A000D11CCA14DB0480F1A3014A195B096A013B
:1024B00082E0C80ED11C1296BC9012971396AC9174
:1024C000B5E0CB16D10440F0B282A38351834083A0
:1024D000D9016D937C930AC00E5F1F4FC301800F1B
:1024E000911FF90191838083EB2DFA2FE114F10400
:1024F00031F0D7011396FC93EE93129741C0F093FD
:102500008504E09384043CC08D919C9111974817F9
:10251000590708F4AC017D0112960D90BC91A02DD5
:10252000B3CF809182049091830488159905E1F4DA
:1025300046175707C8F48091000290910102009756
:1025400041F48DB79EB74091040250910502841B5F
:10255000950BE817F907B0F4F0938304E093820435
:10256000F901718360830CC0CB010CDE7C01009704
:1025700049F0A801BE011BD0CE0199DEC70104C0FD
:10258000CE0102C080E090E0DF91CF911F910F91CA
:10259000FF90EF90DF90CF90BF90AF909F908F9083
:1025A0007F906F90089581E090E0F89419C0FB014E
:1025B000DC0102C001900D9241505040D8F70895BF
:1025C000FB01DC018D91019080190110D9F3990B69
:1025D0000895FB01DC0101900D920020E1F70895C0
:0425E000F894FFCF9D
:1025E4000000860480000000803FCDCCCC3D6F12FB
:1025F400833A95BFD6337D1D9026B3CE010CCDCC46
:10260400CC3D0AD7233C17B7D13877CC2B329595DC
:10261400E6241FB14F0A000020410000C8420040D8
:102624001C4620BCBE4CCA1B0E5AAEC59D74CDCCF4
:10263400CC3D0AD7233C17B7D13877CC2B329595AC
:10264400E6241FB14F0A000020410000C8420040A8
:102654001C4620BCBE4CCA1B0E5AAEC59D7400005D
:102664000000230100000000F10AB70AAD00370B97
:10267400DE00BC00D00022225C5C6208660C6E0A9C
:10268400720D7409006E756C6C0074727565006669
:10269400616C7365004E614E00652D00496E66697C
:1026A4006E69747900616374696F6E007373696431
:1026B4000070617373776F7264006C617469747510
:1026C400646500646567726565006D696E7574653F
:1026D400007365636F6E640063617264696E616C3C
:1026E4005F706F696E74006E616E00696E66006F74
:1026F4007666000D0A007B22616374696F6E223A6C
:1027040022434F4E4E454354222C22737369642254
:102714003A2022726564222C2270617373776F727F
:1027240064223A22636F6E74726173656E61222053
:102734007D007B2022616374696F6E223A225345C7
:10274400545F4C4F434154494F4E222C20226C611C
:10275400746974756465223A207B2022646567720B
:102764006565223A203333202C226D696E757465B9
:10277400223A31302C20227365636F6E64223A341E
:10278400352E323334352C202263617264696E61D4
:102794006C5F706F696E74223A22534F555448220D
:0427A4007D7D000037
:00000001FF
