:10000000E9C2000018C3000016C3000014C30000BA
:1000100012C3000010C300000EC300000CC3000098
:100020000AC3000008C3000006C3000004C30000A8
:1000300002C300000C94CA0AFEC20000FCC2000009
:10004000FAC20000F8C20000F6C20000F4C20000CC
:10005000F2C20000F0C20000EEC200000C94782A48
:10006000EAC200000C94850D0C945C0DE4C2000003
:10007000E2C20000E0C20000DEC20000DCC20000FC
:10008000DAC20000D8C20000D6C20000D4C200000C
:100090000C94330D0C940A0DCEC200000C94E21E99
:1000A000CAC20000C8C20000C6C20000C4C200002C
:1000B000C2C20000C0C20000BEC20000BCC200003C
:1000C000BAC20000B8C20000B6C200000C94E10C35
:1000D0000C94B80CB0C20000AEC20000ACC200006C
:1000E000AAC20000E315DD15F515EC15E815B415E9
:1000F000D7157A1500270327F226F626FC263A277D
:1001000007270B271127152719271F2723272727FD
:100110003A272D27312735274E414E494E4954590C
:10012000494E46CDCCCC3D0AD7233C17B7D13877C2
:10013000CC2B329595E6241FB14F0A0000204100D8
:1001400000C84200401C4620BCBE4CCA1B0E5AAE22
:10015000C59D740D0A0053444B2076657273696F18
:100160006E3A0041542B474D520041542B435744A3
:100170004843503D312C310041542B435741555495
:100180004F434F4E4E3D300041542B43495044495C
:100190004E464F3D310041542B4349504D55583D3B
:1001A000310041542B43574D4F44453D310041549C
:1001B00045300041542B52535400496E6974696CA8
:1001C000697A6174696F6E207375636365737366B2
:1001D000756C202D005761726E696E673A20556EFE
:1001E000737570706F72746564206669726D776183
:1001F00072650043616E6E6F7420696E6974696127
:100200006C697A6520455350206D6F64756C65008C
:10021000415400496E697469616C697A696E67203E
:10022000455350206D6F64756C65004E6F20736F81
:10023000636B657420617661696C61626C65004115
:10024000542B43495053544152543D25642C22545D
:100250004350222C222573222C257500436F6E6E8D
:10026000656374696E6720746F0002005EBCE261B2
:100270003FDD83C29C7E20A3FD1F419DC3217FFCE7
:10028000A2401E5F01E3BD3E6082DC237D9FC14230
:100290001CFEA0E1BF5D0380DE3C62BEE0025CDFCD
:1002A00081633D7C22C09E1D43A1FF4618FAA4270E
:1002B000799BC584DA3866E5BB5907DB856739BAAF
:1002C000E406581947A5FB7826C49A653BD98704EC
:1002D0005AB8E6A7F91B45C6987A24F8A6441A9995
:1002E000C7257B3A6486D85B05E7B98CD2306EEDC2
:1002F000B3510F4E10F2AC2F7193CD114FADF3707F
:100300002ECC92D38D6F31B2EC0E50AFF1134DCE97
:1003100090722C6D33D18F0C52B0EE326C8ED05364
:100320000DEFB1F0AE4C1291CF2D73CA947628AB7D
:10033000F517490856B4EA6937D58B5709EBB53636
:10034000688AD495CB2977F4AA4816E9B7550B8863
:10035000D6346A2B7597C94A14F6A8742AC896151C
:100360004BA9F7B6E80A54D7896B35436F6E6E65B3
:100370006374656420746F004661696C6564206312
:100380006F6E6E656374696E6720746F0041542BE5
:1003900043574A41505F4355523D222573222C2238
:1003A000257322000D0A005354415455533A00411D
:1003B000542B43495053544154555300456E6420C7
:1003C000746167206E6F7420666F756E64004E6F87
:1003D0002074616720666F756E64003E3E3E205457
:1003E000494D454F5554203E3E3E0025642E256420
:1003F0002E25642E25640044617461207061636B56
:1004000065742073656E64206572726F7220283285
:10041000290044617461207061636B6574207365A9
:100420006E64206572726F72202831290041542B4E
:1004300043495053454E443D25642C257500466183
:10044000696C656420746F20777269746520746FBD
:1004500020736F636B65740041542B434950434CC8
:100460004F53453D256400446973636F6E6E656349
:1004700074696E67200041542B43495053544154D2
:100480005553002B4349505354415455533A256416
:100490002C0000002100240027002A002D0030003D
:1004A000330001010000040107010A0100002200DD
:1004B000250028002B002E0031003400020100002E
:1004C000050108010B01000020002300260029007F
:1004D0002C002F0032000001000003010601090179
:1004E00005050505070508080808020202020A0AB0
:1004F00008080404040401010101010101010303CE
:10050000030303030303040707070C0C0C0C0C0C78
:100510000C0C0202020206060606060606060B0B75
:100520000B0B0B0B0B0B01021020200808102040B6
:1005300010204080020102010804020101020408A7
:100540001020408080402010080402018004020135
:10055000804020100804020108040201010204087E
:1005600010204080010204081020408000000A0B87
:1005700002090C0D0E080703040100000000000032
:10058000000000000000000000000000000000006B
:100590000000000000000000121110000000000028
:1005A000000000000000000000000000000000004B
:1005B000000054494D454F55543A0054616720435B
:1005C0004C4F534544206E6F7420666F756E640007
:1005D000FA31E63111241FBECFEFD1E2DEBFCDBF2D
:1005E00000E00CBF2AE0A0EBB6E001C01D92A330F2
:1005F000B207E1F716E0A0E0B2E0E0E3FAE700E0DE
:100600000BBF02C007900D92A03BB107D9F712E0D3
:10061000C9EED2E000E006C021970109802FFE015B
:100620000E94663AC83ED10780E00807A9F70E94F9
:10063000C22A0C94073DE4CC8F929F92AF92BF9256
:10064000EF92FF920F931F93CF93DF931F921F920E
:10065000CDB7DEB77B010E94AA188C01F701828119
:1006600093819A838983AE014F5F5F4F68EB73E09C
:10067000C8010E94FF17F701848195819A838983BD
:10068000AE014F5F5F4F60EA74E0C8010E94FF1740
:10069000F70186819781009729F00E941F334B0153
:1006A0005C0103C0812C912C540160EB75E0C80102
:1006B0000E940415009751F4C8010E94E2140097AB
:1006C00071F020EB35E0FC013383228328E030E039
:1006D000FC013583248386829782A086B186FCE064
:1006E000EF0EF11C62EA74E0C8010E940415009745
:1006F00051F4C8010E94E214009771F022EA34E03C
:10070000FC0133832283BC016C5F7F4FA701F8019A
:10071000808191810E94BC17C8010F900F90DF91DA
:10072000CF911F910F91FF90EF90BF90AF909F904E
:100730008F9008954F925F926F927F928F929F92C7
:10074000AF92BF92CF92DF92EF92FF920F931F93DF
:10075000CF93DF93CDB7DEB7C656D2400FB6F8942D
:10076000DEBF0FBECDBF7C016B015A01CE010996E1
:100770009C838B8388E592E09E838D8318861F82FD
:1007800089EA92E09A838983CE0101960E94AA1891
:100790008C01F60182819381CF59DD4F9983888343
:1007A000C156D240AE014F595D4F65EA74E0C801B1
:1007B0000E94FF17F601448055806680778069EAC1
:1007C00074E0C8010E940415FC01892B51F4C80192
:1007D0000E94E214FC01892B61F089EA94E0938382
:1007E000828388E090E09583848346825782608686
:1007F0007186F80180819181009781F48091D606FD
:10080000811132C01092D3061092D2061092D506F2
:100810001092D40681E08093D60626C00E947518F7
:100820003C016EEA74E0C8010E940415009751F47F
:10083000C8010E94E2140097D9F02EEA34E0FC01CE
:1008400033832283F30120813181232B19F420E0AB
:1008500030E004C0962C872C26E030E0FC01358384
:1008600024839682878204C082ED682E86E0782EEB
:10087000F6018085882329F06BE879E0C3010E94A6
:100880005A18F6018185882329F067E979E0C301C8
:100890000E945A1820E030E040E252E4F601648100
:1008A0007581868197810E942F3A18162CF461E990
:1008B00079E0C3010E945A18F50182809380C480B8
:1008C000D58062EB74E082EE98E00E94970CF40110
:1008D000828193810E94CE21F401848195810E94BE
:1008E000CE21F40186819781009719F00E941F3371
:1008F00003C060E070E0CB010E94FA20C4010C96B6
:100900000E94E520F601828193810E94CE21F601AA
:10091000848195810E94CE21F6018681978100977E
:1009200019F00E941F3303C060E070E0CB010E9409
:10093000FA20C6010C960E94E520F50162817381C0
:10094000CE01019679DE4C01F50164817581CE01FD
:10095000019672DE5C01CE0101960E94AA186C011C
:10096000A40164ED74E00E948C17A50168ED74E0A9
:10097000C6010E948C17F80180819181009719F4BB
:100980000E94981808C00E94AA18AC016DED74E08E
:10099000C8010E948C17A6016DED74E0C8010E9489
:1009A0008C1769E875E0C701E1D5FE01EB59FD4FF1
:1009B000F182E082CF59DD4FF983E883C156D240FE
:1009C000CD59DD4F19821882C356D240BE016F59EE
:1009D0007D4FC8010E941F15F70144815581608138
:1009E000718182EE98E0E5D2C701CA59DD4F0FB69A
:1009F000F894DEBF0FBECDBFDF91CF911F910F9155
:100A0000FF90EF90DF90CF90BF90AF909F908F902E
:100A10007F906F905F904F900895FC0101900020AF
:100A2000E9F731979F01281B390BE091A509F09157
:100A3000A609E21BF30B4091A1095091A209E4170A
:100A4000F50730F460919F097091A009E60FF71F38
:100A5000280F391F6091A3097091A409DC01821746
:100A6000930758F40196BC91A081BA1308C031963F
:100A7000E617F70799F7FA01F1CF81E0089580E0D2
:100A80000895CF93DF93EC0181E00E947524BE01AD
:100A90008091D0069091D1065AD741E060E070E095
:100AA00088EE93E0DF91CF910C949024EF92FF9227
:100AB0000F931F93CF93DF931F921F92CDB7DEB793
:100AC0007C01162F072F64E773E082EE98E04983DC
:100AD0005A834DD76CE572E082EE98E061D662ED04
:100AE00073E082EE98E043D7612F702F82EE98E09A
:100AF0001ED7E8E0F2E023E030E05A81498192918C
:100B00008291019621F021503109C8F72FEFF701AA
:100B100024872F3F21F15F934F930F931F931F92D1
:100B20002F9383E18F9388E88F938FE392E09F93D5
:100B30008F930E9404260FB6F894DEBF0FBECDBF80
:100B4000892BB9F4F701848590E0FC01EE0FFF1FBB
:100B5000E050FE4F9183808381E090E00CC064E719
:100B600073E082EE98E003D76BE272E082EE98E0E9
:100B7000EED680E090E00F900F90DF91CF911F9123
:100B80000F91FF90EF9008952F923F924F925F92B6
:100B90006F927F928F929F92AF92BF92CF92DF928D
:100BA000EF92FF920F931F93CF93DF93CDB7DEB7F2
:100BB000A6970FB6F894DEBF0FBECDBF4C015B0108
:100BC0001C821B8288EE93E0A0E0B0E08D839E83C0
:100BD000AF83B8878BE892E09A8389838FEF8D8704
:100BE00040E95FE162EE74E0CE0101960E94EA23E3
:100BF000892B49F46EEE74E082EE98E098D634E6E4
:100C0000C32ED12C24C196E0E92EF12C25EB622EC7
:100C100022E0722E8E01025F1F4F7F866E86F501E5
:100C200082819381998B888B848195819B8B8A8B20
:100C3000A801B401CE0181967DDD4DA05EA069E0E2
:100C400075E0CE01459692D4BE016B5E7F4FCE011A
:100C50004B9684D46FE075E0CE014B96FFD366E1EE
:100C600075E0FCD362E275E0F9D369E275E0F6D392
:100C70006FE175E0F3D36AE375E0F0D36BE575E0FF
:100C8000EDD36C014AE0B801C2010E949A33F80129
:100C900001900020E9F73197AF01401B510BB801DB
:100CA000C6018AD3811102C0C601C6D36FE175E0C7
:100CB000C601D4D36FE175E0D1D36C014DA15EA123
:100CC00069A17AA179D3811102C0C601B5D360E2CE
:100CD00075E0C601C3D3FC014481558160817181F7
:100CE000CE0101960E944A25CE014B9602D4CE0138
:100CF0004596FFD3CE0181960E94E52060EA7FE011
:100D000080E090E00E944B29CE0101960E943A2299
:100D1000892B09F489C069E875E0CE01459626D48F
:100D2000CE01019606D597FD08C08D30910529F0BA
:100D3000682FCE0145966DD3F3CF6CE675E0C80100
:100D400015D4498D5A8D6D897E89C80135D381119D
:100D500002C0C80171D3C8010E94E520C801C9D3EF
:100D6000C98CDA8CC114D10461F02D883E8860E210
:100D700070E0C1010E94AD3C009719F082199309FF
:100D800002C08FEF9FEF2C01FFEF4F1A5F0AC414D0
:100D9000D50428F4942D852D2601C92ED82E69E876
:100DA00075E0C801E3D3898D9A8D4816590620F560
:100DB0008C159D0508F46C01ED89FE89EC0DFD1D77
:100DC000308010826D897E89640D751D61157105F5
:100DD00059F0FB0101900020E9F73197AF01461B64
:100DE000570BC80152D302C0C80126D38D899E89F2
:100DF000FC01EC0DFD1D3082C8010E94E5208E85AE
:100E00009F85009719F00E943F3303C060E070E0B7
:100E1000CB016B01CE0101960E940D22C80169D35E
:100E2000CE01459666D303C084E6C82ED12CCE01F0
:100E300001960E943D26CE0181965BD321E0E21A05
:100E4000F10829F088ECC816D10409F0E6CE81E05B
:100E500098ECC916D10409F080E0A6960FB6F89474
:100E6000DEBF0FBECDBFDF91CF911F910F91FF90DD
:100E7000EF90DF90CF90BF90AF909F908F907F903A
:100E80006F905F904F903F902F900895CF93DF9396
:100E9000CDB7DEB728970FB6F894DEBF0FBECDBF33
:100EA00028E0EFE7F2E0DE01119601900D922A951D
:100EB000E1F7FC012085261710F46FEF620FFE01A9
:100EC0003196E60FF11DE60FF11D6081606840E08C
:100ED00028960FB6F894DEBF0FBECDBFDF91CF913D
:100EE0000C94BC12CF92DF92EF92FF920F931F935C
:100EF000CF93DF93EC016A017B01E889F98982E0F5
:100F000080834115514E61057105B1F060E079E0D3
:100F10008DE390E0A70196010E945E3989019A0154
:100F20000150110921093109369527951795079523
:100F3000980101151041A8F0E889F989108260E84C
:100F400074E88EE190E0A70196010E945E39DA0113
:100F5000C9010197A109B109B695A79597958795FC
:100F60009C01EC85FD853083EE85FF852083188EFE
:100F7000EC89FD8986E08083EA89FB898081806134
:100F80008083EA89FB89808188608083EA89FB8984
:100F9000808180688083EA89FB8980818F7D80835E
:100FA000DF91CF911F910F91FF90EF90DF90CF9045
:100FB0000895CF92DF92EF92FF920F931F93CF93FA
:100FC000DF936C017A018B01C0E0D0E0CE15DF0524
:100FD00089F0D8016D918D01D601ED91FC910190C0
:100FE000F081E02DC6011995892B11F47E0102C014
:100FF0002196ECCFC701DF91CF911F910F91FF9008
:10100000EF90DF90CF900895FC01A089B1898C9179
:10101000A689B78982FD0FC09C91818D8F5F8F73E8
:10102000228D821749F0218DDF01A20FB11D5D963F
:101030009C93818F08958C910895FC01538D448D6C
:10104000252F30E0842F90E0821B930B541710F073
:10105000CF96089501970895FC01918D828D981780
:1010600061F0828DDF01A80FB11D5D968C91928D8C
:101070009F5F9F73928F90E008958FEF9FEF089589
:10108000FC01918D828D981731F0828DE80FF11D52
:10109000858D90E008958FEF9FEF0895FC01918D6D
:1010A000228D892F90E0805C9F4F821B91098F7366
:1010B0009927089588EA97E0F1DF21E0892B09F468
:1010C00020E0822F089585E498E0E8DF21E0892B75
:1010D00009F420E0822F089582EE98E0DFDF21E01E
:1010E000892B09F420E0822F0895FC01848DDF0113
:1010F000A80FB11DA35ABF4F2C91848D90E001968B
:101100008F739927848FA689B7892C93A089B18979
:101110008C9180648C93938D848D981306C0028883
:10112000F389E02D80818F7D80830895EF92FF9277
:101130000F931F93CF93DF93EC0181E0888F9B8DFA
:101140008C8D981305C0E889F989808185FD23C0BD
:10115000F62E0B8D10E00F5F1F4F0F731127E02E3F
:101160008C8DE8120BC00FB607FCFACFE889F9891D
:10117000808185FFF5CFCE01B8DFF2CF8B8DFE01E8
:10118000E80FF11DE35AFF4FF0820B8FEA89FB89CC
:101190008081806207C0EE89FF896083E889F989D0
:1011A00080818064808381E090E0DF91CF911F9106
:1011B0000F91FF90EF900895CF93DF93EC01888D0E
:1011C0008823C1F0EA89FB89808185FD05C0A88953
:1011D000B9898C9186FD0EC00FB607FCF5CF8081D2
:1011E00085FFF2CFA889B9898C9185FFEDCFCE011B
:1011F0007CDFE8CFDF91CF91089580E090E0892BEC
:1012000019F06ADF81111BC080E090E0892B19F092
:101210005ADF811117C080E090E0892B19F04ADF76
:10122000811113C080E090E0892BA1F080E090E074
:10123000892B81F00E94000081110AC008950E944C
:101240000000E2CF0E940000E6CF0E940000EACF3B
:101250000C94000008950E94993C0F931F93CF9324
:10126000DF93EC0188819981009729F02A813B81E5
:101270002617370788F48B016F5F7F4F0E94B53BBD
:10128000009761F0998388831B830A832C813D81B9
:10129000232B11F4FC01108281E001C080E0DF917A
:1012A000CF911F910F9108950C941D3BCF92DF9227
:1012B000EF92FF920F931F93CF93DF938C017B01EB
:1012C000DC011596CD91DC9116976B016C177D07AB
:1012D00008F46E01C60106960E94883AFC01892B2B
:1012E000B1F0D382C282D80113968D919C9114974C
:1012F000918380831496FC93EE931397CC0FDD1F9C
:101300001696DC93CE931597F582E4823696CF013C
:10131000DF91CF911F910F91FF90EF90DF90CF90D1
:101320000895DC011396ED91FC911497309751F0DC
:1013300024813581AB01420F531FA281B381A417D1
:10134000B50708F4B3CFC9010696558344838E0FC1
:101350009F1F0895FC0124813581FB014481558143
:101360002417350721F5FC0180819181FB01608103
:101370007181009719F061157105A1F4611571056E
:1013800049F0232BB1F0FB01808190E0919581958C
:1013900091090AC0009769F0232B59F0FC01808164
:1013A00090E002C00E94B83C21E0892B19F020E0B7
:1013B00001C021E0822F0895EF92FF920F931F93B7
:1013C000CF93DF93FC01248135816115710511F400
:1013D00080E018C041155105A1F07B01EC018A01A4
:1013E000020F131FB80139DF882391F32881398157
:1013F0008C819D81B701820F931F0E94C13C1D8388
:101400000C8381E0DF91CF911F910F91FF90EF90BE
:101410000895CF93DF931F921F92CDB7DEB76983F4
:101420001A8241E050E0BE016F5F7F4FC5DF0F9031
:101430000F90DF91CF910895CF93DF93EC018881D6
:101440009981009711F00E941D3B198218821D821C
:101450001C821B821A82DF91CF910895CF93DF9374
:10146000EC016115710559F0FB0101900020E9F7CD
:101470003197AF01461B570B9FDF811102C0CE0190
:10148000DBDFCE01DF91CF910895EF92FF920F93B2
:101490001F93CF93DF93EC017B018A01BA01DDDE5C
:1014A000811103C0CE01C8DF07C01D830C83B701C3
:1014B000888199810E94C13CCE01DF91CF911F911B
:1014C0000F91FF90EF900895CF93DF93EC01FB0114
:1014D0008617970751F0608171816115710521F0C0
:1014E00044815581D2DF01C0A7DFCE01DF91CF91CA
:1014F0000895FC01808191810C941D3BCF93DF9373
:10150000EC0183E792E099838883CE010896F1DFAE
:10151000CE010296DF91CF91ECCFCF93DF93EC0118
:10152000EDDFCE01DF91CF910C941D3BCF93DF9384
:10153000EC018DEB92E099838883CE010C96D9DF84
:10154000CE010696DF91CF91D4CFCF93DF93EC01FC
:10155000EDDFCE01DF91CF910C941D3BFC01118298
:1015600010821382128215821482AECFFC01118286
:10157000108213821282158214826115710549F05E
:10158000FB0101900020E9F73197AF01461B570B93
:101590007CCF08951F920F920FB60F9211240BB6B5
:1015A0000F922F933F934F935F936F937F938F93FC
:1015B0009F93AF93BF93EF93FF938091E106909138
:1015C000E206A091E306B091E406892B8A2B8B2BCF
:1015D00059F18091E006E091DE06F091DF069081FE
:1015E000892780838091E1069091E206A091E3062D
:1015F000B091E406181619061A061B060CF056C020
:101600008091E1069091E206A091E306B091E40694
:101610000197A109B1098093E1069093E206A09396
:10162000E306B093E40642C080910802EAE6F2E0E5
:10163000E4919FEF90930802E230C9F050F4EE235A
:1016400099F0E13081F590916F009D7F90936F004C
:101650002AC0E43019F1E0F0E53029F590917300EB
:101660009D7F909373001FC010926E001CC09091DC
:1016700070009D7F9093700091E09093B0009091E6
:10168000B100987F94609093B1001092B3000BC0AA
:10169000909171009D7F9093710005C090917200B0
:1016A0009D7F9093720060E00E94E028FF91EF918F
:1016B000BF91AF919F918F917F916F915F914F916A
:1016C0003F912F910F900BBE0F900FBE0F901F9068
:1016D00018950F931F93CF93DF93EC010E948329FA
:1016E000688779878A879B87E881F9810484F585F3
:1016F000E02DCE01199597FF17C00E948329088518
:1017000019852A853B85DC01CB01801B910BA20B3F
:10171000B30B0C811D812E813F8180179107A20799
:10172000B30710F38FEF9FEFDF91CF911F910F91D0
:1017300008950F931F93CF93DF93EC010E948329A9
:10174000688779878A879B87E881F9810284F38596
:10175000E02DCE01199597FF17C00E9483290885B7
:1017600019852A853B85DC01CB01801B910BA20BDF
:10177000B30B0C811D812E813F8180179107A20739
:10178000B30710F38FEF9FEFDF91CF911F910F9170
:101790000895DC01ED91FC910190F081E02D199408
:1017A000EF92FF920F931F93CF93DF938C017B01F6
:1017B000C0E0D0E0F701EC0FFD1F6491662361F0FB
:1017C000D801ED91FC910190F081E02DC8011995AF
:1017D000892B11F02196EECFCE01DF91CF911F9191
:1017E0000F91FF90EF9008956115710579F0FB015D
:1017F00001900020E9F73197AF01461B570BDC0140
:10180000ED91FC910280F381E02D199480E090E04D
:1018100008954F925F926F927F92EF92FF920F9393
:101820001F93CF93DF93CDB7DEB7A1970FB6F89490
:10183000DEBF0FBECDBF7C01FA01CB0119A2223061
:1018400008F42AE08E010F5D1F4F422E512C612CAF
:10185000712CBF01A30192010E945E39F901CA01F6
:10186000015011096A3014F4605D01C0695CD8014F
:101870006C93232B242B252B61F7B801C701B4DF10
:10188000A1960FB6F894DEBF0FBECDBFDF91CF910A
:101890001F910F91FF90EF907F906F905F904F900E
:1018A00008958F929F92AF92BF92CF92DF92EF9264
:1018B000FF920F931F93CF93DF937C018B016C01F9
:1018C00082E0C80ED11C4701E5E08E0E911CC0E0FD
:1018D000D0E0F60141916F0150E060E070E02AE055
:1018E000C80197DF5C016EE2C80153DF8A0D9B1DC2
:1018F000C80FD91FC814D90461F7F701458150E01A
:1019000060E070E02AE0C80184DF8C0F9D1FDF914A
:10191000CF911F910F91FF90EF90DF90CF90BF90EC
:10192000AF909F908F9008956FE175E05DCF0F931A
:101930001F93CF93DF93EC0157DF8C01CE01F4DFCF
:10194000800F911FDF91CF911F910F9108950F93F9
:101950001F93CF93DF93EC0123DF8C01CE01E4DFF3
:10196000800F911FDF91CF911F910F9108953CCF70
:101970001F920F920FB60F9211240BB60F922F9356
:101980003F934F935F936F937F938F939F93AF9307
:10199000BF93EF93FF9388EA97E0A7DBFF91EF9166
:1019A000BF91AF919F918F917F916F915F914F9177
:1019B0003F912F910F900BBE0F900FBE0F901F9075
:1019C00018951F920F920FB60F9211240BB60F921B
:1019D0002F933F934F935F936F937F938F939F9337
:1019E000AF93BF93EF93FF9388EA97E00DDBFF91EE
:1019F000EF91BF91AF919F918F917F916F915F9187
:101A00004F913F912F910F900BBE0F900FBE0F90F3
:101A10001F9018951F920F920FB60F9211240BB6BC
:101A20000F922F933F934F935F936F937F938F9377
:101A30009F93AF93BF93EF93FF9385E498E055DBBB
:101A4000FF91EF91BF91AF919F918F917F916F9196
:101A50005F914F913F912F910F900BBE0F900FBE52
:101A60000F901F9018951F920F920FB60F9211248E
:101A70000BB60F922F933F934F935F936F937F9388
:101A80008F939F93AF93BF93EF93FF9385E498E079
:101A9000BBDAFF91EF91BF91AF919F918F917F91B1
:101AA0006F915F914F913F912F910F900BBE0F90CF
:101AB0000FBE0F901F9018951F920F920FB60F92A6
:101AC00011240BB60F922F933F934F935F936F9315
:101AD0007F938F939F93AF93BF93EF93FF9382EE88
:101AE00098E003DBFF91EF91BF91AF919F918F91B0
:101AF0007F916F915F914F913F912F910F900BBE0E
:101B00000F900FBE0F901F9018951F920F920FB657
:101B10000F9211240BB60F922F933F934F935F9325
:101B20006F937F938F939F93AF93BF93EF93FF93A5
:101B300082EE98E069DAFF91EF91BF91AF919F91AA
:101B40008F917F916F915F914F913F912F910F9066
:101B50000BBE0F900FBE0F901F901895CF92DF9283
:101B6000EF92FF920F931F93CF93DF93EC016B01E2
:101B70007A0183E792E0FE01819391938F0169E8F6
:101B800075E0CF01F3DC289669E875E0CE01EEDC64
:101B9000B601C80199DCB701CE01DF91CF911F9149
:101BA0000F91FF90EF90DF90CF908ECC08956F92C1
:101BB0007F928F929F92AF92BF92CF92DF92EF92DD
:101BC000FF920F931F93CF93DF93EC015B014A01C8
:101BD00069018DEB92E0998388833E0186E0680E6F
:101BE000711C69E875E0C301C1DC7E018CE0E80E80
:101BF000F11C69E875E0C701B9DCBB82AA829D824D
:101C00008C82B601C30160DCB801C701DF91CF91BE
:101C10001F910F91FF90EF90DF90CF90BF90AF900A
:101C20009F908F907F906F904FCCEED6FC01892BC8
:101C300009F44BC084819581833091053CF4813057
:101C400091057CF4009709F447C038C085309105B0
:101C50002CF0059799F5668177812BC08681978155
:101C600008950680F781E02D309779F180818437DF
:101C700079F18B3229F08D3221F4319691E002C056
:101C8000319690E060E070E03AE0819120ED280F1D
:101C90002A3068F4369FA001379F500D1124682F19
:101CA000880F770B60537109640F751FEECF99236E
:101CB00091F088279927861B970B08956681778175
:101CC000808591850E94FE3906C080E090E00895ED
:101CD00081E090E00895CB010895FF920F931F9348
:101CE000CF93DF93EC01F62E88819981FC01A381CB
:101CF000B481109771F01496ED91FC9115979F01A6
:101D00002F5F3F4F12964D915C91139742175307E7
:101D100050F52C813D81B9016F5F7F4FC7DA8C018F
:101D20006A817B816115710549F00115110571F01A
:101D30004C815D81C8010E949D3C03C001151105C5
:101D400029F0EC81FD81E00FF11FF0821B830A83F3
:101D50008C819D8101969D838C83DF91CF911F9112
:101D60000F91FF9008953696EA0FFB1F15963C934E
:101D70002E93149760838C819D81892B49F7FB8377
:101D8000EA83E6CFFC01A081B1818C918D3051F0C6
:101D900024F489508230B8F505C0803219F08F32B2
:101DA00019F0089511962CC011968C9111978A32D2
:101DB00019F08F32D1F008951196B183A083A081DC
:101DC000B181CD0101969183808311968C911197F9
:101DD0008823C9F08A3299F712968C9112978F3224
:101DE00071F713960DC08A3071F2A081B181CD01D7
:101DF00001969183808311968C918111F4CF03C059
:101E0000B183A083C0CF08950F931F93CF93DF9327
:101E10001F92CDB7DEB78C016983B4DFD801ED9195
:101E2000FC91119780816981861305C03196ED93ED
:101E3000FC9381E001C080E00F90DF91CF911F9172
:101E40000F910895E1D5009749F0FC012481358177
:101E50002730310519F48681978108950C949818DC
:101E600008950C941D3B0C941D3B0C941D3BCF928C
:101E7000DF92EF92FF920F931F93CF93DF93CDB733
:101E8000DEB72C970FB6F894DEBF0FBECDBF8C0126
:101E9000CB01BA01B9D57C01009709F44AC0FC0115
:101EA000C480D580F1E0CF16D10461F4FC016681D5
:101EB00077816115710531F086E795E00E94B83CA5
:101EC000892B69F0F1E0CF1AD10882E0C816D1045D
:101ED00030F4F701668177816115710561F569E874
:101EE00075E0CE0101966C0141DBDC86CB86CE012C
:101EF0000B9698878F831A861986BE01695F7F4F7C
:101F0000C7010496CCD589819A81F8019183808399
:101F10008B819C81938382838D819E819583848331
:101F20001A8219821C821B821E821D82C601E1DA7E
:101F300004C069E875E0C80119DBC8012C960FB62A
:101F4000F894DEBF0FBECDBFDF91CF911F910F91EF
:101F5000FF90EF90DF90CF900895EF92FF921F9344
:101F6000CF93DF9300D000D0CDB7DEB77C01DC018A
:101F700014968D919C9115979A8389831C821B825C
:101F80001E821D82C7010296FDDED7011296ED91D9
:101F9000FC9113971081173231F1123221F180ED4B
:101FA000810F8A3078F081EA810F8C3158F08FEB05
:101FB000810F8A3138F01B3229F083ED810F823096
:101FC00008F042C0F7018281938101969383828356
:101FD000612FCE01019681DED7011296ED91FC9121
:101FE00013971081DCCF3196D7011396FC93EE93B3
:101FF0001297D7011296ED91FC9113976081662399
:1020000019F1CF01019613969C938E931297611745
:10201000D9F06C35A9F46181AFE7B5E08C918823E4
:1020200039F0861303C011966C9102C01296F6CF58
:10203000662351F03296D7011396FC93EE931297D4
:10204000CE0101964ADED5CF60E0CE01019645DE95
:102050008B819C8126960FB6F894DEBF0FBECDBF54
:10206000DF91CF911F91FF90EF9008959F92AF92D3
:10207000BF92CF92DF92EF92FF920F931F93CF9375
:10208000DF9300D000D0CDB7DEB7D82EC92E082FF1
:10209000192FF801819191918F010E94AA187C015A
:1020A0006BE7C801B1DE882309F43CC06DE7C801C5
:1020B000ABDE81113AC086E0982E8D2D9C2D4DDF30
:1020C0005C01892B79F16AE3C8019EDE882351F116
:1020D0001A821982BE016F5F7F4F8D2D9C2D0E9449
:1020E00060278823F9F0B501C7018ED4009739F431
:1020F000C70168D40097B1F0FC01B382A282FE014F
:102100003196DC011496892D01900D928A95E1F7A4
:102110006DE7C80179DE811108C06CE2C80174DE88
:102120008111CBCF0E94981801C0C70126960FB627
:10213000F894DEBF0FBECDBFDF91CF911F910F91FD
:10214000FF90EF90DF90CF90BF90AF909F90089559
:102150000895AF92BF92CF92DF92EF92FF920F93CA
:102160001F93CF93DF93CDB7DEB768970FB6F89480
:10217000DEBF0FBECDBF8B016AE875E0C80155DD3B
:102180006C0161E975E0C80150DD5C0148E955E08A
:10219000B801CE0143966BDE4FE955E0B801CE01A0
:1021A0000D9665DEC6010E94CE21C5010E94CE219A
:1021B000CE0143960E94E520CE010D960E94E520B7
:1021C000BE016D5E7F4FCE010796C8D9BE01635F29
:1021D0007F4FCE010196C2D982E190E00E94883AF9
:1021E0007C018E010F5F1F4F9E01295F3F4FA501AC
:1021F000B601DDDCC8017DD9CE0107967AD9CE01C2
:102200000D9677D9CE01439674D9C70168960FB65B
:10221000F894DEBF0FBECDBFDF91CF911F910F911C
:10222000FF90EF90DF90CF90BF90AF90089508950A
:1022300008955F926F927F928F929F92AF92BF921A
:10224000CF92DF92EF92FF920F931F93CF93DF9382
:1022500000D000D0CDB7DEB75C018B017B0122E05E
:10226000E20EF11CB701CE01019678D98D819E81D5
:102270000E94883A982E892E6401CE01019639D9A0
:10228000B701CE0101966AD98A818F9389818F9394
:102290008EEAE82E85E0F82EFF92EF928F929F92C1
:1022A0000E94D73CCE01019624D9085F1F4FB80188
:1022B000CE01019653D98D819E810E94883A782E55
:1022C000692E4301CE01019614D9B801CE010196C1
:1022D00045D98A818F9389818F93FF92EF926F9274
:1022E0007F920E94D73CCE01019603D9F50102816D
:1022F000138160E0F801828193810E94460762EBBE
:1023000075E0F8018281938132DB0FB6F894DEBF6D
:102310000FBECDBFE12CF12C772473949EE4692E7F
:1023200020E2522E3DE8A32E33E0B32E63EC75E09D
:1023300082EE98E0FCDA70922B078F929F92CF92F8
:10234000DF926F925F92BF92AF920E9404260FB607
:10235000F894DEBF0FBECDBF64E773E0892BA9F40C
:1023600082EE98E004DB6BE673E082EE98E018DA28
:1023700062ED73E082EE98E0FADA6D2D7C2D82EE4C
:1023800098E0D5DA01E010E01DC082EE98E0EFDAC7
:1023900068E773E082EE98E003DA62ED73E082EEC4
:1023A00098E0E5DA6D2D7C2D82EE98E0C0DA68EEDB
:1023B00073E080E090E00E944B2980E00E94752449
:1023C00002E010E064E670E080E090E00E944B29BB
:1023D000FFEFEF1AFF0A6EEC75E082EE98E0C7DAC5
:1023E000C7010E94CE2167ED75E082EE98E0BFDA6A
:1023F00081E090E00130110511F080E090E00E9452
:10240000CE210130110539F023E0E216F10409F084
:102410008DCF02E010E081E00130110509F080E08D
:1024200026960FB6F894DEBF0FBECDBFDF91CF91D9
:102430001F910F91FF90EF90DF90CF90BF90AF90E2
:102440009F908F907F906F905F9008950F931F9350
:10245000CF93DF93EC018B010E94AA1E813061F0C3
:1024600060EE75E082EE98E062DAB801CE01DF91AD
:10247000CF911F910F91DDCEDF91CF911F910F91E1
:102480000895CF93FC01C48121E020930907C093F4
:102490002A071092B4061092B3068385682B8FE743
:1024A00099E00E94C11C8091B306813208F046C0B9
:1024B0009091B2069111FCCF92E09093B20691E018
:1024C0009093B1069FEF90930807109207078093AF
:1024D0000607AAE0B7E026EE36E0F9019E2F921B30
:1024E000981718F49D919193F9CF1092E506809179
:1024F000E506CC0FC82BC093E5068091B00681306D
:1025000061F41092B0068091E5068093BB00809143
:10251000BC0083FDF8CF85EC01C085EE8093BC0044
:102520008091B2068230E1F3809108078F3F31F04D
:1025300080910807803211F0809108071092B4064C
:102540001092B30610920907CF9108950F931F932D
:10255000CF938C01C62F95DF6C2F6460C80191DF8B
:102560006C2F6B7FC8018DDF83EC90E00197F1F752
:10257000CF911F910F9108950F931F93CF93DF93E6
:102580008C01D62FC42F607F642BE0DF6D2F629506
:10259000607F6C2BC801DF91CF911F910F91D6CF37
:1025A00041E0EADF81E090E0089540E061E0E4DFAF
:1025B0008BE39FE10197F1F70895DC01E0E06150C2
:1025C00038F08D91E827F0E0E559FD4FE491F7CF21
:1025D0008E2F0895CF92DF92EF92FF920F931F9369
:1025E000CF93DF931F92CDB7DEB76C01E62E08E0E4
:1025F00010E0FF24F39461E08F2D8E2109F460E058
:10260000C60149830E941024FF0C01501109498121
:102610000115110581F7411115C0F894D6011196E5
:10262000ED91FC91129791818C9180958923818302
:102630001196ED91FC91129792818C91809589234E
:10264000828378940F90DF91CF911F910F91FF902B
:10265000EF90DF90CF900895AF92BF92CF92DF922C
:10266000EF92FF920F931F93CF93DF931F92CDB7FB
:10267000DEB75C01E62ED72EFC01858581115CC09A
:10268000C5010E943F24811105C0F50113861586FE
:1026900014866AC040E060EFC5019CDF01E0F12CC8
:1026A000C12C11E0C5010E94EC23682FC50169838C
:1026B0000E94EC236981613019F48130B9F433C090
:1026C0004F2D50E068131BC0F5018385181730F4B7
:1026D000E40FF51F8381802349F402C0181731F0FD
:1026E00060E0193058F4F501148708C0F501EF0DCA
:1026F000F11D8381802B838361E009C0C12EF50128
:10270000E40FF51F9381802F809589238383C50172
:102710000E9410241F5F000F11F4F39401E0F7E012
:10272000FF1508F0BFCF113438F0F501C386C11092
:1027300015C081E0858712C0F501138615861486C1
:1027400080E0D5011396EE2DFD2D9501255F3F4FBD
:102750009D919193A217B307D9F706C0F501838124
:10276000882351F381E0EDCF0F90DF91CF911F913E
:102770000F91FF90EF90DF90CF90BF90AF900895B2
:10278000CF92DF92EF92FF920F931F93CF93DF933D
:102790001F92CDB7DEB78C01F62E40E065E5798358
:1027A00019DFCF2C7981D72E760188E0E80EF11C55
:1027B000F60161916F0140E0C8010CDFCE14DF0427
:1027C000B9F70F90DF91CF911F910F91FF90EF908C
:1027D000DF90CF9008956F927F928F929F92AF92E9
:1027E000BF92CF92DF92EF92FF920F931F93CF93FE
:1027F000DF931F921F92CDB7DEB78C017A01FC01E7
:102800008581968169837A830E943F2469817A81D8
:10281000882381F1F80185819681B2DF40E06EEB7B
:10282000F80185819681D6DE37015701F9E0AF0EB8
:10283000B11CF8018580968088E0C82ED12CEE244A
:10284000E394F12CC4010E94EC238111FE28EE0CCC
:10285000F1E0CF1AD108B1F7F301F1923F01EA1587
:10286000FB0539F7F801858196810E943F2491E0AC
:10287000813009F090E0892F0F900F90DF91CF9178
:102880001F910F91FF90EF90DF90CF90BF90AF908E
:102890009F908F907F906F900895CF93DF93CDB7E7
:1028A000DEB729970FB6F894DEBF0FBECDBFFB0190
:1028B0002081203109F1AE014F5F5F4F8CDF88230B
:1028C00071F068E0CE01019678DE9985891307C022
:1028D00008C0803458F08F3569F08F3769F080E098
:1028E0000CC08D818F33A9F78AE007C08F31B9F70B
:1028F00089E003C08BE001C08CE029960FB6F89404
:10290000DEBF0FBECDBFDF91CF910895FC012681C0
:102910003781620F731F848195818617970738F07E
:102920008281938177836683820F931F089580E06D
:1029300090E00895DB01109749F0ED91FC9111971B
:102940000190F081E02DBC01CD01199480E090E070
:102950000895FF920F931F93CF93DF936115710535
:1029600049F466E775E0DF91CF911F910F91FF90D9
:102970000C9436208B01EC0162E2CE010E94D4203F
:10298000F80161918F01662351F0EBE7F5E0F080EB
:10299000FF2099F39181961759F03296F8CF62E2B1
:1029A000CE01DF91CF911F910F91FF900C94D42015
:1029B0006CE5CE010E94D4206F2DDFCF0C941D3B1F
:1029C0000C941D3BCF93DF93EC01688179818AE001
:1029D00090E0B0DF009729F0FC011182108215828F
:1029E0001482EA81FB81309751F0208131812115D9
:1029F000310511F0F901F9CF9183808302C09B83E7
:102A00008A83DF91CF9108950F931F93CF93DF9324
:102A10008B01FC01C281D381209759F06A817B81AF
:102A2000C8010E94B83C892B21F00990D881C02DA3
:102A3000F3CFCE01DF91CF911F910F9108950F93A6
:102A40001F93CF93DF938C01EB016BE7CE010E94C4
:102A5000D420F801028113810115110599F0F801C4
:102A600062817381CE0175DF6AE3CE010E94D420BA
:102A7000BE01C801049613D0F8010081118101152F
:102A8000110541F46DE7CE01DF91CF911F910F91B8
:102A90000C94D4206CE2CE010E94D420DDCF2F9282
:102AA0003F924F925F926F927F928F929F92AF92DE
:102AB000BF92CF92DF92EF92FF920F931F93CF932B
:102AC000DF93CDB7DEB766970FB6F894DEBF0FBEC3
:102AD000CDBFDC01ED91FC9111973197E830F10504
:102AE00008F001C21B018C018827EE58FF4F8F4F61
:102AF0000C94663AFD01C280D380E480F580A70182
:102B00009601C701B6010E944538882319F06DE08F
:102B100076E079C020E030E0A901C701B6010E944B
:102B2000453887FF08C06DE2C1010E94D420F7FA42
:102B3000F094F7F8F09420E030E0A901C701B60165
:102B40000E944538882309F462C0A7019601C70195
:102B5000B6010E949A39A70196010E944538811159
:102B600056C064E176E04FC0FD01028113816BE540
:102B7000C1010E94D420D80112960D911C91139787
:102B80000115110551F0B101C801029688DFF80165
:102B9000008111810115110529F46DE5C1010E9423
:102BA000D420A1C16CE2C1010E94D420E9CF1296C9
:102BB0008D919C91139743DF96C1FD0162817381D2
:102BC000C101C7DE90C112966D917C9113971BC015
:102BD0006DE2C1010E94D420F801428153816481D9
:102BE0007581C1010E9490207EC1FD018281938187
:102BF000A481B581892B8A2B8B2B19F467E076E0B1
:102C000002C062E076E0C1010E9436206CC120E87B
:102C100036E948E15BE4C701B6010E942F3A87FD1F
:102C20005BC1A12CB12C00E210E01A8A198AF501CF
:102C3000EF50FD4F2489358946895789C701B60170
:102C40000E942F3A87FD13C0F501E752FD4F2489FA
:102C5000358946895789C701B6010E94AA386B0198
:102C60007C0189899A89800F911F9A8B898B159590
:102C7000079594E0A91AB108A8EEAA16AFEFBA0614
:102C8000B1F699249A9420E030E0A901C701B60179
:102C90000E942F3A1816B4F52CEA35EC47E257E3B8
:102CA000C701B6010E944538181664F19FEF9916C6
:102CB00049F1B92DE4E0BE0250011124F501EF53B2
:102CC000FD4F2081318142815381C701B6010E94AD
:102CD000453887FF13C0F501EF50FD4F208131814A
:102CE00042815381C701B6010E94AA386B017C0161
:102CF00089899A89801B910B9A8B898B15950795E9
:102D00009A94D4CFC701B6010E94033A4B015C01EB
:102D10002B013C0106E080E492E4AFE0B0E08B8B55
:102D20009C8BAD8BBE8B102F0FEF010F9AE04916D5
:102D3000510461047104C8F06B897C898D899E8976
:102D40002AE030E040E050E00E945E392B8B3C8B63
:102D50004D8B5E8BC301B2012AE030E040E050E0D1
:102D60000E945E3929013A01DECFC501B4010E94FB
:102D700049389B01AC01C701B6010E9499396B012A
:102D80007C016B897C898D899E890E9449389B01D1
:102D9000AC01C701B6010E94AA382B013C010E9478
:102DA000033A6B017C010E9449389B01AC01C301CD
:102DB000B2010E9499399B01AC010E949A390E948C
:102DC000033AC60ED71EE81EF91E8B899C89AD8971
:102DD000BE89C816D906EA06FB06F8F09FEF891AE5
:102DE000990AA90AB90AA989BA89AB2B99F0BAE05C
:102DF0008B169104A104B10468F0E989FA8931962F
:102E0000FA8BE98BC12CD12C7601812C912C5401A9
:102E1000839403C0C12CD12C76012AE0422E512C80
:102E2000612C712CC701B601A30192010E945E3989
:102E3000672B682B692BA1F0012FB501A401C101FB
:102E40000E949020112359F1188A4E01F0E18F0E53
:102E5000911C54019AE0492E512C612C712C06C012
:102E6000111654F769017A011150DCCF015068F056
:102E7000C701B601A30192010E945E39605DD401D1
:102E80006E934D0169017A01F1CFB501611B7109A2
:102E90008EE2FB018293BF01C1010E943620898925
:102EA0009A8997FF0BC061E176E0C1010E9436204C
:102EB00069897A897195619571090AC0A989BA8968
:102EC000AB2B89F065E6C1010E94D42069897A891B
:102ED000C1010E94662007C000E210E085E0982E44
:102EE0001A8A198AD0CE66960FB6F894DEBF0FBE46
:102EF000CDBFDF91CF911F910F91FF90EF90DF90A9
:102F0000CF90BF90AF909F908F907F906F905F9089
:102F10004F903F902F900895CF92DF92EF92FF92C3
:102F20000F931F93CF93DF937C018B01EA016CDD3C
:102F3000FC01892B39F4C70145DDFC01892B91F097
:102F40001383028388819981892B19F480E090E0B2
:102F500003C06E0187E090E095838483C682D782A8
:102F600081E001C080E0DF91CF911F910F91FF9030
:102F7000EF90DF90CF900895CF92DF92EF92FF9283
:102F80000F931F93CF93DF93DA012D913C91232B65
:102F900001F18A01EB01FA01E480F580FFEFEF1AFD
:102FA000FF0ADC01ED91FC910190F081E02DB70169
:102FB00019956C010097C9F0F80160817181A70132
:102FC0000E949D3C82E090E099838883DB82CA82E4
:102FD0000AC082E090E0DB0111969C938E931396D9
:102FE0001C921E92129781E001C080E0DF91CF9188
:102FF0001F910F91FF90EF90DF90CF900895EF9287
:10300000FF920F931F93CF93DF938C01EB017A0113
:10301000FBDCFC01892B39F4C801D4DCFC01892BD1
:10302000F9F0D383C283D7014D915C9157FD07C05E
:10303000052E000C660B770B84E090E009C05195DB
:1030400041955109052E000C660B770B85E090E049
:1030500095838483468357836087718781E001C0AD
:1030600080E0DF91CF911F910F91FF90EF90089535
:10307000CF93DF93EC016881798188E090E05ADC9E
:10308000009729F0FC011182108213821282EA81DA
:10309000FB81309751F0208131812115310511F0EC
:1030A000F901F9CF9183808302C09B838A83DF91EA
:1030B000CF9108950F931F93CF93DF93EC018B0172
:1030C000D7DF009759F0BC016E5F7F4FA801888160
:1030D0009981DF91CF911F910F914ECF80E0DF91C9
:1030E000CF911F910F9108950895CF93DF93EC0135
:1030F000BC0184E090E01EDCFC01009729F0D18344
:10310000C0831382128211C08091D60681110BC038
:103110001092D3061092D2061092D5061092D406C1
:1031200081E08093D60682ED96E0DF91CF910895FD
:103130008091530781110BC01092500710924F07D6
:10314000109252071092510781E0809353078FE449
:1031500097E00895CF93DF93EC01BC0184E090E009
:10316000E9DB009741F0FC01D183C0831382128216
:10317000DF91CF910895DF91CF91DACF08952F920B
:103180003F924F925F926F927F928F929F92AF92F7
:10319000BF92CF92DF92EF92FF920F931F93CF9344
:1031A000DF93CDB7DEB727970FB6F894DEBF0FBE1B
:1031B000CDBF1B015E834D838901FC018281938118
:1031C00020910802281721F02F3F09F0D0C205C036
:1031D000EAE6F2E024912F8304C180930802EAE634
:1031E000F2E0E491EF3F09F4C2C2E23009F47EC09C
:1031F0006CF5EE2309F459C0E13009F0F1C01092EA
:10320000800010928100209181002860209381002D
:10321000209181002160209381009C013327F901D6
:10322000E052FB4FE491F0E0EE0FFF1FE455FB4F3F
:10323000459154915093370740933607F901EA5D61
:10324000FA4FE491E093350731E0C8C0E43009F467
:103250009DC00CF473C0E53009F0C2C0109220018B
:1032600010922101209121012860209321012091B9
:1032700021012160209321019C013327F901E052B3
:10328000FB4FE491F0E0EE0FFF1FE455FB4F45913B
:10329000549150932E0740932D07F901EA5DFA4FA0
:1032A000E491E0932C0735E099C014BC15BC24B51B
:1032B000226024BD25B5216025BD9C013327F9017D
:1032C000E052FB4FE491F0E0EE0FFF1FE455FB4F9F
:1032D0004591549150933A0740933907F901EA5DBB
:1032E000FA4FE491E09338071F827EC01092B0003D
:1032F0001092B1002091B00022602093B000209184
:10330000B10021602093B1009C013327F901E05204
:10331000FB4FE491F0E0EE0FFF1FE455FB4F4591AA
:1033200054915093DF064093DE06F901EA5DFA4FAF
:10333000E491E093E006E2E0EF8356C01092900043
:10334000109291002091910028602093910020918B
:1033500091002160209391009C013327F901E052F4
:10336000FB4FE491F0E0EE0FFF1FE455FB4F45915A
:1033700054915093340740933307F901EA5DFA4FB3
:10338000E491E0933207F3E0FF832EC01092A00097
:103390001092A1002091A10028602093A10020910B
:1033A000A10021602093A1009C013327F901E05284
:1033B000FB4FE491F0E0EE0FFF1FE455FB4F45910A
:1033C00054915093310740933007F901EA5DFA4F69
:1033D000E491E0932F0724E02F8306C03F8304C0CD
:1033E000EF83EF81E7FDC3C12801012E000C6608C1
:1033F000770861E00E940F294101A12CB12C8F8137
:103400008D7F09F0BDC060E072E18AE790E0A50120
:1034100094010E944A3A29833A834B835C83690171
:103420007A01F1E0CF1AD108E108F1082FEFC216B6
:10343000D104E104F10409F008F44DC060E472E441
:103440008FE090E0A50194010E944A3A69017A0157
:1034500081E0C81AD108E108F1089F81923001F596
:10346000EFEFCE16D104E104F10409F008F4FCC139
:1034700060E970ED83E090E0A50194010E944A3A72
:1034800069017A01F1E0CF1AD108E108F1082FEFC4
:10349000C216D104E104F10409F0E0F583E069C04B
:1034A0003FEFC316D104E104F104B9F0B0F068E4D1
:1034B00078EE81E090E0A50194010E944A3A69010A
:1034C0007A0181E0C81AD108E108F1089F819923A7
:1034D00009F46FC1C0C181E001C082E09F819923DE
:1034E000A1F047C089819A81AB81BC812AE0B59562
:1034F000A795979587952A95D1F76C017D01E1E015
:10350000CE1AD108E108F10885E095B5987F892B9E
:1035100085BDA1C068E478EE81E090E0A50194014A
:103520000E944A3A69017A01F1E0CF1AD108E10814
:10353000F1082FEFC216D104E104F10409F008F4F8
:1035400036C164E274EF80E090E0A50194010E942E
:103550004A3A69017A01E1E0CE1AD108E108F1089E
:10356000FFEFCF16D104E104F10411F008F043C1DC
:1035700085E09091B100987F892B8093B1006BC05A
:1035800060E072E18AE790E0A50194010E944A3A66
:1035900069017A01E1E0CE1AD108E108F108C1140D
:1035A000D104F1E0EF06F10488F068E478EE81E000
:1035B00090E0A50194010E944A3A69017A0181E0F4
:1035C000C81AD108E108F10883E001C081E09F81B9
:1035D000913071F490918100987F892B80938100C4
:1035E000452846284728D9F52FEF3FEFA90168C0A5
:1035F000EF81E33071F490919100987F892B809353
:10360000910045284628472851F52FEF3FEFA901A3
:1036100079C0FF81F43071F49091A100987F892BDB
:103620008093A100452846284728C9F42FEF3FEF93
:10363000A9017AC02F81253071F490912101987FE2
:10364000892B8093210145284628472841F42FEFF4
:103650003FEFA9017BC045284628472869F0910122
:10366000220F331FD8010E946E3A28EE33E040E06B
:1036700050E00E945E3903C02FEF3FEFA9018F8118
:10368000823081F12CF4882361F08130C9F06FC061
:103690009F81943009F448C0ACF1953009F456C0CC
:1036A00066C0C7BC20934B0730934C0740934D072F
:1036B00050934E0780916E00826080936E0057C0D9
:1036C000D0928900C0928800209347073093480722
:1036D0004093490750934A0780916F00826080931E
:1036E0006F0045C0C092B3002093E1063093E2061C
:1036F0004093E3065093E4068091700082608093CB
:10370000700035C0D0929900C09298002093430772
:1037100030934407409345075093460780917100CA
:1037200082608093710023C0D092A900C092A8004B
:1037300020933F073093400740934107509342073F
:103740008091720082608093720011C0D092290132
:10375000C092280120933B0730933C0740933D07DC
:1037600050933E0780917300826080937300ED81D7
:10377000FE81BF01FF0F880B990B27960FB6F894B7
:10378000DEBF0FBECDBFDF91CF911F910F91FF9094
:10379000EF90DF90CF90BF90AF909F908F907F90F1
:1037A0006F905F904F903F902F900C944B2984E046
:1037B000E0CEEFEFCE16D104E104F104D1F0C8F071
:1037C00062E17AE780E090E0A50194010E944A3A24
:1037D00069017A0181E0C81AD108E108F1089FEF78
:1037E000C916D104E104F10411F008F07BCE84E0A5
:1037F0008CCE83E08ACE62E17AE780E090E0A5019A
:1038000094010E944A3A69017A01F1E0CF1AD10885
:10381000E108F1082FEFC216D104E104F104C9F068
:10382000C0F089819A81AB81BC815AE0B595A7959A
:10383000979587955A95D1F76C017D0121E0C21AC1
:10384000D108E108F1083F81332309F45DCE87E018
:1038500090CE86E043CE3FEFC316D104E104F104DD
:1038600009F048F684E03ACE82E083CE089581E004
:1038700090E03091B6062091B506321710F480E042
:1038800090E091958195910908958091B606909167
:10389000B506891730F48F5F8093B60680E090E01C
:1038A00008958FEF9FEF08958091B50690E02091E5
:1038B000B606821B91090895089580E090E008956E
:1038C00085ED8093BC008091BC0084FDFCCF1092FC
:1038D000B206089540917D07262F30E0240F311D58
:1038E00021323105DCF42091B2062430C9F4FC0108
:1038F00080E090E0861758F430917D072191DC013B
:10390000A55AB84FA30FB11D2C930196F3CF809108
:103910007D07680F60937D0780E0089581E008953A
:1039200082E00895CF92DF92EF92FF920F931F9360
:10393000CF93DF937C01262F972F8A01809109076F
:10394000882391F0C62FD72F6E01C40ED51ECC153B
:10395000DD0569F06991D701ED91FC910190F0814D
:10396000E02DC7011995F3CF642F822FB3DFC80173
:10397000DF91CF911F910F91FF90EF90DF90CF904B
:103980000895CF93DF931F92CDB7DEB7698320915F
:1039900009072223D1F02091B306203240F021E024
:1039A00030E0FC013383228380E090E014C08091FA
:1039B000B406E82FF0E0E65FF84F998190838F5FBF
:1039C0008093B4068093B30604C061E0CE010196F3
:1039D00081DF81E090E00F90DF91CF9108950C940A
:1039E0001D3B0C941D3B0C941D3B0C941D3B0C94F7
:1039F0001D3B0C941D3BAF92BF92CF92DF92EF9292
:103A0000FF920F931F93CF93DF935C016B017A01B9
:103A1000E901188281E069D7B5018091D0069091C3
:103A2000D1060E94A70C41E0B60188EE93E078D75A
:103A30008530910509F048C08091A1099091A209B3
:103A40009093A6098093A50940919F095091A009E0
:103A50004F5F5F4F60E070E00E94A63C41E0B7011D
:103A600084EF91E05DD7059731F5A80141505109E8
:103A7000F70101900020E9F73197CF018E199F09D6
:103A80006091A1097091A209E091A509F091A609A0
:103A9000E61BF70BE81BF90B4E175F0708F0AF01A9
:103AA000CE010E94C83C41E060E070E080ED97E00C
:103AB00037D781E018C064E773E082EE98E00E9497
:103AC000B70C6CEB73E00AC0059760F064E773E035
:103AD00082EE98E00E94B70C6EEC73E082EE98E004
:103AE0000E94A70C80E0DF91CF911F910F91FF9072
:103AF000EF90DF90CF90BF90AF900895CF92DF927C
:103B0000EF92FF920F931F93CF93DF934091F009B1
:103B10005091F1096091F2097091F309141615069C
:103B20001606170644F49091EF09981711F09111B9
:103B300002C0CA0106C1182F8091D0069091D1060B
:103B4000DC01ED91FC910084F185E02D1995892B24
:103B500019F480E090E0F5C0E090D006F090D10636
:103B6000C0E0D0E0C7010E94990B97FD43C0FE0161
:103B7000E35EF94F2081022E000C330B821793076E
:103B800089F1209779F36EE176E09E0121503109A9
:103B9000F901E35EF94F4081042E000C550B8417A8
:103BA0009507E1F421153105E9F2EDE1F6E040E099
:103BB00050E001916B01C40ED51ED601DC900D15AD
:103BC00039F04217530771F26F5F7F4FE901DDCF84
:103BD0004F5F5F4F4217530760F3F3CF2115310555
:103BE00099F7BECF2196C530D10509F0BBCF80E053
:103BF00090E002C08FEF9FEF892B09F0AACF809150
:103C0000D0069091D1060E9439286093EF098091E7
:103C1000D0069091D106DC01ED91FC910284F385F0
:103C2000E02D19958091D0069091D1060E943928F7
:103C30006093F0097093F1098093F2099093F3096E
:103C40008091D0069091D106DC01ED91FC91028427
:103C5000F385E02D19958091D0069091D1060E94B0
:103C600039286093A4078091D0069091D106DC0199
:103C7000ED91FC910284F385E02D19958091D00699
:103C80009091D1060E9439286093A5078091D006B3
:103C90009091D106DC01ED91FC910284F385E02D39
:103CA00019958091D0069091D1060E943928609391
:103CB000A6078091D0069091D106DC01ED91FC9190
:103CC0000284F385E02D19958091D0069091D1065C
:103CD0000E9439286093A7078091D0069091D10661
:103CE000DC01ED91FC910284F385E02D1995809122
:103CF000D0069091D106DC01ED91FC910284F38510
:103D0000E02D19958091D0069091D1060E94392816
:103D10007093A3076093A2078091D0069091D1067B
:103D2000DC01ED91FC910284F385E02D19958091E1
:103D3000EF09811711F011110CCF8091F0099091CA
:103D4000F109DF91CF911F910F91FF90EF90DF90DC
:103D5000CF9008950F931F93CF93DF93CDB7DEB726
:103D60002A970FB6F894DEBF0FBECDBF0AE010E071
:103D70009E012F5F3F4F44EA53E067EA73E08FEA0A
:103D800093E0C1D7882371F0CE0101960E942233BF
:103D90009C01225031092330310530F0059731F074
:103DA00080E005C08FEF03C081E001C083E02A9668
:103DB0000FB6F894DEBF0FBECDBFDF91CF911F913C
:103DC0000F9108951F920F920FB60F9211240BB608
:103DD0000F922F933F934F935F936F937F938F93A4
:103DE0009F93AF93BF93EF93FF938091B900887F28
:103DF000803609F49CC068F5883209F45BC090F401
:103E0000803109F454C038F4882309F4F6C08830AE
:103E100009F44DC0F5C0883109F44CC0803209F472
:103E20005DC0EEC0803409F468C048F4803309F402
:103E300055C0883309F0E4C080930807D8C08035A6
:103E400009F44FC0883509F45DC0883409F0D8C042
:103E5000D6C0883909F4C7C0A8F4883709F467C008
:103E600038F4883609F463C0803709F460C0C8C0EC
:103E7000883809F4B8C0803909F45FC0803809F087
:103E8000BFC05BC0803B09F486C038F4803A09F4B7
:103E900066C0883A09F47FC0B3C0803C09F4A7C06B
:103EA000883C09F4A4C0883B09F48AC0A9C0809169
:103EB000E50610C09091070780910607981770F5E6
:103EC000E091070781E08E0F80930707F0E0EA5149
:103ED000F94F80818093BB0085EC86C080930807F2
:103EE0008EC0E091070781E08E0F809307078091D5
:103EF000BB00F0E0EA51F94F808390910707809171
:103F000006076EC0E091070781E08E0F80930707D8
:103F10008091BB00F0E0EA51F94F80838091B106B7
:103F200081116DC081E08093B00684EA61C083E0B6
:103F30008093B2061092A107CFCF8091A107803263
:103F400008F051C0E091A10781E08E0F8093A10796
:103F50008091BB00F0E0EF57F84F8083BDCF85EC38
:103F60008093BC001092B2068091A107803230F499
:103F7000E091A107F0E0EF57F84F10826091A107A0
:103F800070E0E0917F07F091800781E897E0199554
:103F90001092A10735C084E08093B20610927E078C
:103FA00010927D07E0917B07F0917C071995809135
:103FB0007D07811105C081E080937D0710925B072A
:103FC000E0917E0781E08E0F80937E07F0E0E55A56
:103FD000F84F80818093BB0090917E0780917D0790
:103FE000981708F479CF85E88093BC0009C085EC68
:103FF0008093BC001092B20603C01092080760DCE8
:10400000FF91EF91BF91AF919F918F917F916F91B0
:104010005F914F913F912F910F900BBE0F900FBE6C
:104020000F901F901895089508950895CF93DF93EA
:10403000EC0163E276E082EE98E00E94970CEA8160
:10404000FB8182819381AAD1EA81FB818481958160
:10405000A5D18A819B810696B8D08A819B810C96D6
:10406000DF91CF91B2C0089508950895EF92FF9225
:104070000F931F93CF93DF93EC01E880F980D70172
:104080008D919C91FC01048115816115710551F0A0
:10409000FB0101900020E9F73197AF01461B570B58
:1040A0000E94DC09D701ED91FC91848195812A81E0
:1040B0003B81280F391F201B310B3B832A83DF9163
:1040C000CF911F910F91FF90EF9008950F931F9341
:1040D000CF93DF93CDB7DEB766970FB6F894DEBF08
:1040E0000FBECDBF8C01CB011E8AFE0176962AE061
:1040F00030E0B9010E94373A90E3980F9293CB01D8
:104100000097B9F7BF01C801B1DF66960FB6F89402
:10411000DEBF0FBECDBFDF91CF911F910F910895EC
:104120008F929F92AF92BF92EF92FF920F931F9345
:10413000CF93DF93CDB7DEB766970FB6F894DEBFA7
:104140000FBECDBF7C011E8A8E010A5E1F4F8AE022
:10415000882E912CA12CB12CCB01BA01A501940180
:104160000E945E39942F852F605DF80162938F0164
:10417000A901692F782F411551056105710561F776
:10418000BF01C70173DF66960FB6F894DEBF0FBE9E
:10419000CDBFDF91CF911F910F91FF90EF90BF9016
:1041A000AF909F908F900895CF93DF93EC01E881BB
:1041B000F981808191810E94090A8A819B810196FF
:1041C0009B838A83DF91CF910895CF93DF93FC0186
:1041D000448155816081718182EE98E00E94D90707
:1041E000EC0182EE98E00E94940C8C0F9D1FDF91F1
:1041F000CF9108954F925F926F927F928F929F928C
:10420000AF92BF92CF92DF92EF92FF926B017C014F
:104210009B01AC010E94333A882319F067E676E0EF
:104220001AC046015701E894B7F82FEF3FEF4FE768
:104230005FE7C501B4010E94333A811112C02FEF2C
:104240003FEF4FE75FE7C501B4010E9445381816FC
:1042500044F46BE676E082EE98E00E94F40B7C0179
:104260008AC02FEF3FEF4FE75FE4C701B6010E941E
:104270002F3A18161CF46FE676E0EDCF2FEF3FEFE4
:104280004FE75FECC701B6010E94453887FDF3CFC9
:1042900020E030E0A901C701B6010E94453887FF40
:1042A0000BC06DE282EE98E00E94C90B5C01F7FA48
:1042B000F094F7F8F09402C0A12CB12C2AE037ED6D
:1042C00043EA5BE3C701B6010E949A392B013C0126
:1042D0000E94033A6B017C010E9449389B01AC01AA
:1042E000C301B2010E9499392B013C012AE0B701B8
:1042F000A60182EE98E00E94090C7C01EA0CFB1CEE
:104300006EE282EE98E00E94C90BE80EF91E20E0F2
:1043100030E040E251E4C301B2010E94AA382B010F
:104320003C010E94033A4B01A12CB12C2AE0B501BB
:10433000A40182EE98E00E94090CE80EF91EC50166
:10434000B4010E9449389B01AC01C301B2010E9433
:10435000993920E030E040E251E40E94AA380E94FE
:10436000033AAB0160E070E02AE082EE98E00E9440
:10437000090CE80EF91E82EE98E00E94940C8E0D56
:104380009F1DFF90EF90DF90CF90BF90AF909F90D8
:104390008F907F906F905F904F900895CF92DF92B3
:1043A000EF92FF92CF93DF936C01990FEE08FF0815
:1043B000F7FE16C06DE282EE98E00E94C90BEC0198
:1043C00044275527BA014C195D096E097F092AE077
:1043D00082EE98E00E94090C7C01EC0EFD1E08C0E4
:1043E0002AE0B701A60182EE98E00E94090C7C0148
:1043F00082EE98E00E94940C8E0D9F1DDF91CF916C
:10440000FF90EF90DF90CF90089521E0FC0184852C
:104410008F3F09F420E0822F0895CF93DF93EC01C2
:10442000E881F9810084F185E02DCE011995892B71
:1044300041F0E881F9810284F385E02DCE011995E0
:10444000EFCFDF91CF910895CF93DF931F92CDB738
:10445000DEB76983DC01ED91FC910280F381E02DF0
:1044600041E050E0BE016F5F7F4F19950F90DF91E3
:10447000CF910895FC0184858F3F19F03FDB97FFB2
:1044800002C080E090E00895CF92DF92EF92FF9219
:104490000F931F93CF93DF93CDB7DEB76E970FB611
:1044A000F894DEBF0FBECDBFFC0184858F3FC1F104
:1044B0007F0124DB892B11F094E033C0D7011C96D7
:1044C0008C911F928F9383E894E09F938F93FE01CA
:1044D00031966F01FF93EF930E94B3330AE010E02F
:1044E0009E012B5E3F4F41E256E0B60186E794E025
:1044F00082DA0F900F900F900F900F900F90811114
:10450000DBCFD7011C96EC911C97F0E0EE0FFF1F5C
:10451000E050FE4F8FEF9FEF918380831C968C932A
:1045200090E081E0943009F080E06E960FB6F89448
:10453000DEBF0FBECDBFDF91CF911F910F91FF90D6
:10454000EF90DF90CF9008950F931F93CF93DF9359
:104550001F921F92CDB7DEB78C01DC01ED91FC916B
:104560000084F185E02D1995892B21F11982F8013C
:1045700084859091EF09891308C09E012F5F3F4FFA
:1045800040E0BE016E5F7F4FCAD68981882379F0F3
:10459000D8011C96EC911C97F0E0EE0FFF1FE05045
:1045A000FE4F8FEF9FEF918380831C968C938A81BF
:1045B00090E002C08FEF9FEF0F900F90DF91CF91AF
:1045C0001F910F9108950F931F93CF93DF931F9225
:1045D0001F92CDB7DEB78C01DC01ED91FC91008418
:1045E000F185E02D1995892B21F11982F801848537
:1045F0009091EF09891308C09E012F5F3F4F41E062
:10460000BE016E5F7F4F8BD68981882379F0D801F8
:104610001C96EC911C97F0E0EE0FFF1FE050FE4F50
:104620008FEF9FEF918380831C968C938A8190E01B
:1046300002C08FEF9FEF0F900F90DF91CF911F91EE
:104640000F9108958F929F92AF92BF92CF92DF9277
:10465000EF92FF920F931F93CF93DF931F921F92BE
:10466000CDB7DEB77C018A01DC01ED91FC910084BD
:10467000F185E02D69837A83199569817A81892B87
:1046800019F48FEF9FEF56C0F70194858091EF09E1
:1046900098134EC08091F0099091F109A091F20910
:1046A000B091F3094801A12CB12C88159905AA05F0
:1046B000BB050CF48C016B017B01E00EF11ECE14E6
:1046C000DF04A1F120D64B015C018091D0069091CE
:1046D000D106DC01ED91FC910284F385E02D199562
:1046E00097FF0DC010D6DC01CB0188199909AA09E2
:1046F000BB09883E9340A105B10538F3C2CFD6016E
:104700008D936D018091F0099091F109A091F209CA
:10471000B091F3090197A109B1098093F009909331
:10472000F109A093F209B093F309C9CFC80102C0FF
:1047300080E090E00F900F90DF91CF911F910F914B
:10474000FF90EF90DF90CF90BF90AF909F908F90B1
:104750000895EF92FF920F931F93CF93DF93CDB7FE
:10476000DEB762970FB6F894DEBF0FBECDBF7C01F7
:10477000FB0185811F928F9384811F928F93838188
:104780001F928F9382811F928F932BEE33E03F9382
:104790002F938E010F5F1F4F1F930F93498B5A8BDF
:1047A0000E94B33349895A89B801C7010E9456054E
:1047B0000FB6F894DEBF0FBECDBF62960FB6F89469
:1047C000DEBF0FBECDBFDF91CF911F910F91FF9044
:1047D000EF9008950C945605FC0190810180F281C0
:1047E000E02DF8948181892B81832281892F809506
:1047F00028232283A7E0B0E01197F1F721818223DB
:104800008183A3E2B0E01197F1F780817894EFEC17
:10481000F0E03197F1F7982381E009F480E0089502
:10482000FC0190810180F281E02D892F809560FF4D
:1048300012C0F8942281822382838181892B818313
:10484000A3E2B0E01197F1F78281982B92837894DC
:1048500087ED90E011C0F8942281822382838181C8
:10486000892B8183AFEFB0E01197F1F78281982B0C
:10487000928378948FE090E00197F1F70895FC011E
:1048800090810180F281E02DF8948181292F20957B
:104890008223818378948DE743E050E0815021F1B9
:1048A000DA011197F1F730813923C1F3F89482814D
:1048B000822382838181892B81837894ABE7B7E05F
:1048C0001197F1F7F894818128232183A3E1B1E0C6
:1048D0001197F1F78081982381E009F080E07894C6
:1048E000E3E6F6E03197F1F708958091D0069091D4
:1048F000D106DC01ED91FC910084F185E02D199544
:104900001816190664F48091D0069091D106DC0146
:10491000ED91FC910284F385E02D1995E6CF089581
:104920003F924F925F926F927F928F929F92AF923F
:10493000BF92CF92DF92EF92FF920F931F93CF938C
:10494000DF936C015B01342E8091A1099091A20943
:104950009093A6098093A509D6D42B013C01CFEFF3
:10496000DFEF0D2C000CEE08FF08CDD4DC01CB01ED
:1049700084199509A609B7098C159D05AE05BF05D3
:1049800008F05DC0CF3FFFEFDF0709F058C080910E
:10499000D0069091D106DC01ED91FC910084F18567
:1049A000E02D1995892B09F38091D0069091D106BD
:1049B000DC01ED91FC910284F385E02D1995E091E5
:1049C000A509F091A60980838091A5099091A60977
:1049D00001969093A6098093A5092091A30930918F
:1049E000A4098217930740F08091A1099091A20930
:1049F0009093A6098093A509A114B10439F0C501CB
:104A00000E940D05882311F0C5E0D0E0332009F4A1
:104A1000ACCF89E5882E83E0982E00E010E0F40109
:104A2000819191914F010E940D05811106C00F5F88
:104A30001F4F0530110599F798CFE80196CF63D441
:104A4000DC01CB0184199509A609B7098C159D05D0
:104A5000AE05BF0560F064E773E082EE98E00E9467
:104A6000B70C6BED73E082EE98E00E94A70CCE01CC
:104A7000DF91CF911F910F91FF90EF90DF90CF903A
:104A8000BF90AF909F908F907F906F905F904F906E
:104A90003F900895AF92BF92CF92DF92EF92FF9234
:104AA0000F931F93CF93DF93CDB7DEB764970FB605
:104AB000F894DEBF0FBECDBF7C015B018A01DC0133
:104AC0001C968C91843018F44115510531F481E025
:104AD00090E0F7019383828382C01F934F931F92CC
:104AE0008F938DE294E09F938F939E012F5F3F4FB2
:104AF00069013F932F930E94B333B6018091D00692
:104B00009091D1060E94970C40E063E776E088EE32
:104B100093E006DF0FB6F894DEBF0FBECDBF05975A
:104B200049F064E773E082EE98E00E94B70C62E11E
:104B300074E01EC08091D0069091D106DC01ED9109
:104B4000FC910280F381E02DA801B501199541E0A7
:104B500060E070E080ED97E0E3DE039709F442C087
:104B600064E773E082EE98E00E94B70C67EF73E0B1
:104B700082EE98E00E94A70C81E090E0F701938319
:104B8000828364E773E082EE98E00E94B70C6EE3E4
:104B900074E082EE98E00E94D00B62ED73E082EE4A
:104BA00098E00E94B70CD7011C964C9150E060E051
:104BB00070E02AE082EE98E00E94090C82EE98E014
:104BC0000E94940C60EA7FE080E090E064D3D7011B
:104BD000ED91FC910488F589E02DC701199580E0DD
:104BE00090E001C0C80164960FB6F894DEBF0FBE16
:104BF000CDBFDF91CF911F910F91FF90EF90DF908C
:104C0000CF90BF90AF900895CF93DF93CDB7DEB72D
:104C1000C85CD1090FB6F894DEBF0FBECDBF9E01B0
:104C20002E523F4FC253DF4F48815981CE5CD04056
:104C300068EC70E0CE0101960E94E23381E055DE1F
:104C4000BE016F5F7F4F8091D0069091D1060E9488
:104C5000970C41E060E070E0C053DF4F888199819C
:104C6000C05DD0405DDEC853DF4F0FB6F894DEBFA5
:104C70000FBECDBFDF91CF910895CF93DF93FC019D
:104C800024852F3FE9F1EC0164E773E082EE98E0C0
:104C90000E94B70C67E674E082EE98E00E94D00BA9
:104CA00062ED73E082EE98E00E94B70C4C8550E014
:104CB00060E070E02AE082EE98E00E94090C82EE4B
:104CC00098E00E94940C8C851F928F938FE08F93B5
:104CD00080EA8F9388E594E09F938F9395DFEC852E
:104CE000F0E0EE0FFF1FE050FE4F8FEF9FEF91833C
:104CF00080838C870F900F900F900F900F900F90E4
:104D0000DF91CF9108956F927F928F929F92AF9291
:104D1000BF92CF92DF92EF92FF920F931F93CF93A8
:104D2000DF9300D01F92CDB7DEB74C015A016DB6AC
:104D30007EB6CB012B833C8369837A830E947433D4
:104D400001964DB75EB7481B590B0FB6F8945EBF7E
:104D50000FBE4DBF8DB79EB701967C0169817A81E8
:104D60000E946D33C5010E94743301964DB75EB742
:104D7000481B590B0FB6F8945EBF0FBE4DBF8DB7E1
:104D80009EB701966C01B5010E946D332B813C8169
:104D9000A601B701C4010E94FB1C0FB6F8947EBEA9
:104DA0000FBE6DBE0F900F900F900F90DF91CF91BF
:104DB0001F910F91FF90EF90DF90CF90BF90AF9039
:104DC0009F908F907F906F90089590E0FC013197B5
:104DD000E231F10508F04EC08827E658FF4F8F4FAB
:104DE0000C94663A809180008F7703C08091800098
:104DF0008F7D80938000089580918000877FF9CF18
:104E000084B58F7702C084B58F7D84BD089580916D
:104E1000B0008F7703C08091B0008F7D8093B00089
:104E20000895809190008F7707C0809190008F7DCA
:104E300003C080919000877F8093900008958091B7
:104E4000A0008F7707C08091A0008F7D03C0809164
:104E5000A000877F8093A0000895809120018F7724
:104E600007C0809120018F7D03C080912001877F42
:104E70008093200108953FB7F8948091F9099091AB
:104E8000FA09A091FB09B091FC0926B5A89B05C0C1
:104E90002F3F19F00196A11DB11D3FBFBA2FA92FB9
:104EA000982F8827820F911DA11DB11DBC01CD0136
:104EB00042E0660F771F881F991F4A95D1F7089522
:104EC0009F92AF92BF92CF92DF92EF92FF920F9399
:104ED0001F93CF93DF93CDB7DEB727970FB6F89424
:104EE000DEBF0FBECDBFFC019681992309F4ADC092
:104EF0007B018F01915096836F0182E0C80ED11C17
:104F0000C6010E94C20ED8011296ED91FC91139732
:104F100080818B3521F08B3709F45DC070C0F801BA
:104F2000808191810E9475185C016BE5C6010E9429
:104F3000040F882359F16DE5C6010E94040F811109
:104F400035C086E0982E1A821982BE016F5F7F4FAE
:104F5000C801B6DF8823D1F0C5010E943818009738
:104F6000A9F0FE013196DC011296892D01900D9277
:104F70008A95E1F76DE5C6010E94040F811116C004
:104F80006CE2C6010E94040F8111DDCF8091D6062C
:104F900081110EC01092D3061092D2061092D5063F
:104FA0001092D40681E08093D60602C0F50102C0BB
:104FB000E2EDF6E080819181892B11F420E040C080
:104FC00086E090E0D70111969C938E931396FC9304
:104FD000EE93129712C0C8010E943610FC01208186
:104FE0003181232B59F327E030E0D70111963C9310
:104FF0002E9313969C938E93129721E021C021E06B
:10500000873219F0823209F020E0C8012F830E9414
:10501000AD0F2F81009791F2222341F042E050E042
:10502000F70151834083938382830AC021E030E0FB
:10503000D70111963C932E9313969C938E931297BF
:10504000F80186818F5F868301C020E0822F27963A
:105050000FB6F894DEBF0FBECDBFDF91CF911F9189
:105060000F91FF90EF90DF90CF90BF90AF909F9007
:105070000895AF92BF92CF92DF92EF92FF921F936B
:10508000CF93DF9300D01F92CDB7DEB75C01C5018F
:105090000E94690BFC0197FD0FC08D32910581F0D4
:1050A000C0970A9768F0D501ED91FC910284F385D1
:1050B000E02DC5011995EBCF60E070E0CB014AC04F
:1050C00020E030E0A90110E0E130F105E9F0ED3237
:1050D000F105C9F0CF01C0970A97B0F4AAE0B0E09B
:1050E0000E9480396F01FF0FEE08FF08DC01CB0141
:1050F0008C0D9D1DAE1DBF1D9C01AD0120533109BE
:105100004109510901C011E0D501ED91FC910284E2
:10511000F385E02DC50129833A834B835C83199580
:10512000C5010E94690BFC01C09729813A814B811E
:105130005C810A9748F2E130F10531F2112341F028
:1051400066277727CB01621B730B840B950B02C07C
:10515000CA01B9010F900F900F900F90DF91CF917E
:105160001F91FF90EF90DF90CF90BF90AF90089588
:10517000CF93DF93282F30E0F901E459FA4F84915F
:10518000F901EA5DFA4FD491F901E052FB4FC49165
:10519000CC2389F0811119DEEC2FF0E0EE0FFF1F18
:1051A000EA53FB4FA591B491EC91ED2381E090E09F
:1051B00021F480E002C080E090E0DF91CF9108957B
:1051C0001F93CF93DF93282F30E0F901E459FA4F72
:1051D0008491F901EA5DFA4FD491F901E052FB4F55
:1051E000C491CC23C1F0162F8111EFDDEC2FF0E03C
:1051F000EE0FFF1FE455FB4FA591B4918FB7F894C4
:10520000111105C09C91ED2FE095E92302C0EC91AE
:10521000ED2BEC938FBFDF91CF911F910895CF932A
:10522000DF9390E0FC01EA5DFA4F2491FC01E0522B
:10523000FB4F8491882361F190E0880F991FFC0156
:10524000EE56FB4FC591D491FC01E455FB4FA5915F
:10525000B491611109C09FB7F89488812095822389
:105260008883EC912E230BC0623061F49FB7F894D1
:105270003881822F809583238883EC912E2B2C9369
:105280009FBF06C08FB7F894E8812E2B28838FBF6D
:10529000DF91CF9108958F929F92AF92BF92CF925C
:1052A000DF92EF92FF926B017C01E5DD4B015C0127
:1052B000C114D104E104F104E9F0DDDDDC01CB012E
:1052C00088199909AA09BB09883E9340A105B1052F
:1052D00078F321E0C21AD108E108F10888EE880EBF
:1052E00083E0981EA11CB11CC114D104E104F10497
:1052F00021F7DECFFF90EF90DF90CF90BF90AF907F
:105300009F908F9008952FB7F8946091F509709150
:10531000F6098091F7099091F8092FBF08958F92AF
:105320009F92AF92BF92CF92DF92EF92FF92CF9374
:10533000DF93F82EEB01E42E6901E5DF4B015C0100
:105340008091D0069091D106DC01ED91FC91008412
:10535000F185E02D1995892B09F471C08091D00653
:105360009091D106DC01ED91FC91EE2031F00484A6
:10537000F585E02D1995888318C00284F385E02D0A
:10538000199588838091F0099091F109A091F20913
:10539000B091F3090197A109B1098093F0099093A5
:1053A000F109A093F209B093F3098091F00990916B
:1053B000F109A091F209B091F309892B8A2B8B2B6B
:1053C00011F081E08AC065E070E080E090E063DF8A
:1053D0008091D0069091D106DC01ED91FC91008482
:1053E000F185E02D1995892B61F38091D00690917C
:1053F000D106DC01ED91FC910484F585E02D199531
:105400002F2D30E0205D3F4F82179307D1F640E00B
:1054100066EA76E084EF91E083DA059761F064E76D
:1054200073E082EE98E00E94B70C6BEB75E082EEC1
:1054300098E00E94A70C81E0F60180834EC063DFF4
:10544000DC01CB0188199909AA09BB09803D974065
:10545000A105B10508F474CF64E773E082EE98E02B
:105460000E94B70C62EB75E082EE98E00E94D00BD0
:1054700062ED73E082EE98E00E94B70CC090F009F4
:10548000D090F109E090F209F090F309F7FE0EC018
:105490006DE282EE98E00E94C90B44275527BA01BD
:1054A0004C195D096E097F092AE003C02AE0B701A3
:1054B000A60182EE98E00E94090C82EE98E00E941C
:1054C000940C1092F0091092F1091092F2091092C6
:1054D000F3091092EF09188280E0DF91CF91FF90DD
:1054E000EF90DF90CF90BF90AF909F908F900895F6
:1054F0001F920F920FB60F9211242F933F938F9309
:105500009F93AF93BF938091F5099091F609A09175
:10551000F709B091F8093091F40923E0230F2D37F2
:1055200020F40196A11DB11D05C026E8230F0296A7
:10553000A11DB11D2093F4098093F5099093F609FC
:10554000A093F709B093F8098091F9099091FA09AD
:10555000A091FB09B091FC090196A11DB11D80939A
:10556000F9099093FA09A093FB09B093FC09BF9144
:10557000AF919F918F913F912F910F900FBE0F9000
:105580001F901895CF93DF93CDB7DEB7E1970FB695
:10559000F894DEBF0FBECDBF789484B5826084BD21
:1055A00084B5816084BD85B5826085BD85B5816027
:1055B00085BD80916E00816080936E0010928100A5
:1055C0008091810082608093810080918100816060
:1055D0008093810080918000816080938000809121
:1055E000B10084608093B1008091B00081608093AD
:1055F000B000809191008260809391008091910031
:1056000081608093910080919000816080939000F0
:105610008091A10082608093A1008091A1008160AF
:105620008093A1008091A00081608093A000809170
:10563000210182608093210180912101816080930A
:1056400021018091200181608093200180917A0066
:10565000846080937A0080917A00826080937A00DF
:1056600080917A00816080937A0080917A008068CE
:1056700080937A001092C10086E090E00E94883A00
:105680007C0183E192E0D70111969C938E9380E494
:1056900090E013969C938E93129789E290E0159672
:1056A0009C938E93149760E0BADD60E080E4B7DDF0
:1056B000F092BB06E092BA0686E090E00E94883A3B
:1056C0008C018BE192E0F8019183808381E490E08A
:1056D0009383828387E290E09583848360E09FDDFB
:1056E00060E081E49CDD1093B9060093B80684E085
:1056F00090E00E94883A6C0183E292E0D6018D939B
:105700009C938EE090E00E94883A5C0160E086E322
:1057100086DDECE5F5E0E491D501EC93E6E1F5E01A
:10572000E491F0E0EE0FFF1FEA53FB4F8591949157
:10573000F501928381831386158614863B96C501F5
:1057400003961292E817F907E1F783E190E00E94CF
:10575000883AFC0180E39FE0928B818BB682A58220
:105760001482108289E08183BB24B394B282B38215
:10577000D6011396FC93EE931297D092C306C09273
:10578000C20688E090E00E94883AFC018BE292E039
:1057900091838083F782E68215830483D382C28259
:1057A000F093CF06E093CE0640E855E260E070E06B
:1057B00082EE98E00E94720740E855E260E070E0F7
:1057C00085E498E00E94720740E052EC61E070E0EE
:1057D00088EA97E00E9472078CE090E00E94883A85
:1057E0008C01FC011382128283E392E09183808317
:1057F00087E2848380E1818782E08287138684E068
:1058000090E00E94883A7C018FE392E0D7011196E4
:105810009C938E9313961C930E931297F092C70647
:10582000E092C60684E090E00E94883A8C0187E40A
:1058300092E0F8019183808382E090E093838283F9
:1058400061E0EDDC1093CB060093CA0684E090E0A3
:105850000E94883A2FE432E0DC0111963C932E93AB
:105860001396FC92EE9212979093C9068093C80605
:10587000F701028113811092B6061092B5061092BC
:10588000B4061092B3061092B206B092B10610920E
:10589000B00661E084E194DC61E085E191DC809117
:1058A000B9008E7F8093B9008091B9008D7F80937D
:1058B000B90088E48093B80085E48093BC00D801E7
:1058C00015961C9215971A968C911A97823018F09B
:1058D00098E015969C93F80180878BE39DE00197F3
:1058E000F1F76385C8010E94411268EE73E080E021
:1058F00090E0D1DC60E3C8010E94A612ABE4CA2E9E
:10590000A6E4DA2EC6010197F1F760E3C8010E9410
:10591000A612C6010197F1F760E3C8010E94A61222
:1059200083E592E00197F1F760E2C8010E94A612B8
:10593000F8016581606240E0C8010E94BC1284E009
:10594000D80116968C9340E06CE0C8010E94BC120E
:10595000C8010E94D51282E0F801878340E066E02A
:10596000C8010E94BC1240E062E0C8010E94BC1263
:105970008BE39FE10197F1F7D70112968D919C91EE
:10598000139728E0FC01238760E00E9441120091F8
:10599000C6061091C70660E0D80112968D919C91C1
:1059A00013970E94460763E673E0F80182819381B2
:1059B0000E94B70CE091C206F091C30602811381E8
:1059C000D8011596ED91FC911697138615861486CD
:1059D000DF011B9633961E92AE17BF07E1F7F80161
:1059E0001482FF24F394BE01615F7F4FD8011596A6
:1059F0008D919C9116970E942C13882309F456C010
:105A000067E0CE010F960E94DD129E898913EBCFCD
:105A1000D8018C91811127C015968D919C91169774
:105A20000E943F24BE01615F7F4FF801858196810E
:105A30000E94C01340E064EBD80115968D919C91B3
:105A400016970E94EA12F801858196810E94EC2344
:105A5000E82ED80115968D919C9116970E943F24AF
:105A6000EE2009F45AC0AE014F5F5F4FBE01615F87
:105A70007F4FC8010E94EB13F801E180BE01615F16
:105A80007F4FC8010E944D148E1520F4D801119645
:105A90008C9106C0BE01615F7F4FC8010E944D140A
:105AA000F801818384818F5F84839DCFE090C80655
:105AB000F090C90664E773E082EE98E00E94B70CAC
:105AC00063E172E082EE98E00E94A70C88EA97E01A
:105AD0009093D1068093D00605E010E080E192E03B
