:10000000E9C2000018C3000016C3000014C30000BA
:1000100012C3000010C300000EC300000CC3000098
:100020000AC3000008C3000006C3000004C30000A8
:1000300002C300000C94CF17FEC20000FCC20000F7
:10004000FAC20000F8C20000F6C20000F4C20000CC
:10005000F2C20000F0C20000EEC200000C94892B36
:10006000EAC200000C948A1A0C94611AE4C20000DF
:10007000E2C20000E0C20000DEC20000DCC20000FC
:10008000DAC20000D8C20000D6C20000D4C200000C
:100090000C94381A0C940F1ACEC200000C94E7127C
:1000A000CAC20000C8C20000C6C20000C4C200002C
:1000B000C2C20000C0C20000BEC20000BCC200003C
:1000C000BAC20000B8C20000B6C200000C94E61923
:1000D0000C94BD19B0C20000AEC20000ACC200005A
:1000E000AAC200008F0689069F069706940663063B
:1000F00083062A0668296B295A295E296429A229C0
:100100006F29732979297D29812987298B298F29AD
:10011000A229952999299D294E414E494E49545964
:10012000494E46CDCCCC3D0AD7233C17B7D13877C2
:10013000CC2B329595E6241FB14F0A0000204100D8
:1001400000C84200401C4620BCBE4CCA1B0E5AAE22
:10015000C59D740D0A0053444B2076657273696F18
:100160006E3A0041542B474D520041542B435744A3
:100170004843503D312C310041542B435741555495
:100180004F434F4E4E3D300041542B43495044495C
:100190004E464F3D310041542B4349504D55583D3B
:1001A000310041542B43574D4F44453D310041549C
:1001B00045300041542B52535400496E6974696CA8
:1001C000697A6174696F6E207375636365737366B2
:1001D000756C202D005761726E696E673A20556EFE
:1001E000737570706F72746564206669726D776183
:1001F00072650043616E6E6F7420696E6974696127
:100200006C697A6520455350206D6F64756C65008C
:10021000415400496E697469616C697A696E67203E
:10022000455350206D6F64756C65000D0A00535482
:10023000415455533A0041542B434950535441546F
:10024000555300456E6420746167206E6F7420669C
:100250006F756E64004E6F2074616720666F756EF7
:1002600064003E3E3E2054494D454F5554203E3E8D
:100270003E0025642E25642E25642E2564004461ED
:100280007461207061636B65742073656E642065B2
:1002900072726F722028322900446174612070618B
:1002A000636B65742073656E64206572726F722073
:1002B0002831290041542B43495053454E443D2594
:1002C000642C2575004661696C656420746F207725
:1002D0007269746520746F20736F636B65740002BC
:1002E0004E6F20736F636B657420617661696C611A
:1002F000626C650041542B43495053544152543D64
:1003000025642C22544350222C222573222C25753F
:1003100000436F6E6E656374696E6720746F004191
:10032000542B434950434C4F53453D256400446989
:1003300073636F6E6E656374696E67200041542B42
:10034000434950535441545553002B43495053543F
:10035000415455533A25642C00005EBCE2613FDDF8
:1003600083C29C7E20A3FD1F419DC3217FFCA24030
:100370001E5F01E3BD3E6082DC237D9FC1421CFE07
:10038000A0E1BF5D0380DE3C62BEE0025CDF816312
:100390003D7C22C09E1D43A1FF4618FAA427799BED
:1003A000C584DA3866E5BB5907DB856739BAE406E8
:1003B000581947A5FB7826C49A653BD987045AB8D3
:1003C000E6A7F91B45C6987A24F8A6441A99C725CA
:1003D0007B3A6486D85B05E7B98CD2306EEDB351B9
:1003E0000F4E10F2AC2F7193CD114FADF3702ECC98
:1003F00092D38D6F31B2EC0E50AFF1134DCE90729F
:100400002C6D33D18F0C52B0EE326C8ED0530DEF79
:10041000B1F0AE4C1291CF2D73CA947628ABF5177C
:10042000490856B4EA6937D58B5709EBB536688A5F
:10043000D495CB2977F4AA4816E9B7550B88D6345A
:100440006A2B7597C94A14F6A8742AC896154BA941
:10045000F7B6E80A54D7896B35436F6E6E656374DF
:10046000656420746F004661696C656420636F6E1B
:100470006E656374696E6720746F0041542B435737
:100480004A41505F4355523D222573222C22257349
:10049000220000002100240027002A002D00300047
:1004A000330001010000040107010A0100002200DD
:1004B000250028002B002E0031003400020100002E
:1004C000050108010B01000020002300260029007F
:1004D0002C002F0032000001000003010601090179
:1004E00005050505070508080808020202020A0AB0
:1004F00008080404040401010101010101010303CE
:10050000030303030303040707070C0C0C0C0C0C78
:100510000C0C0202020206060606060606060B0B75
:100520000B0B0B0B0B0B01021020200808102040B6
:1005300010204080020102010804020101020408A7
:100540001020408080402010080402018004020135
:10055000804020100804020108040201010204087E
:1005600010204080010204081020408000000A0B87
:1005700002090C0D0E080703040100000000000032
:10058000000000000000000000000000000000006B
:100590000000000000000000121110000000000028
:1005A000000000000000000000000000000000004B
:1005B000000054494D454F55543A0054616720435B
:1005C0004C4F534544206E6F7420666F756E640007
:1005D00086336A3311241FBECFEFD1E2DEBFCDBF19
:1005E00000E00CBF2AE0AEECB6E001C01D92A033E3
:1005F000B207E1F716E0A0E0B2E0E4E7FDE700E0D3
:100600000BBF02C007900D92AE3CB107D9F712E0C4
:10061000C9EED2E000E006C021970109802FFE015B
:100620000E94083CC83ED10780E00807A9F70E9455
:10063000D32B0C94A93EE4CCFC0126813781620FB8
:10064000731F848195818617970738F08281938183
:1006500077836683820F931F089580E090E008956A
:10066000DB01109749F0ED91FC9111970190F08119
:10067000E02DBC01CD01199480E090E008950C9428
:10068000BF3C0C94BF3C0C94BF3C0C94BF3C0C94FE
:10069000BF3C0C94BF3C0C94BF3C0C94BF3C0C94EE
:1006A000BF3C0C94BF3CCF93DF93EC01E881F98110
:1006B000808191810E94AF168A819B8101969B83E4
:1006C0008A83DF91CF910895EF92FF920F931F934A
:1006D000CF93DF93EC01E880F980D7018D919C9155
:1006E000FC01048115816115710551F0FB01019038
:1006F0000020E9F73197AF01461B570B0E94821685
:10070000D701ED91FC91848195812A813B81280F4D
:10071000391F201B310B3B832A83DF91CF911F911F
:100720000F91FF90EF9008950F931F93CF93DF9356
:10073000CDB7DEB766970FB6F894DEBF0FBECDBF5C
:100740008C01CB011E8AFE0176962AE030E0B901C9
:100750000E94D93B90E3980F9293CB010097B9F791
:10076000BF01C801B1DF66960FB6F894DEBF0FBEB9
:10077000CDBFDF91CF911F910F9108958F929F92DE
:10078000AF92BF92EF92FF920F931F93CF93DF939D
:10079000CDB7DEB766970FB6F894DEBF0FBECDBFFC
:1007A0007C011E8A8E010A5E1F4F8AE0882E912CE2
:1007B000A12CB12CCB01BA01A50194010E94003BF0
:1007C000942F852F605DF80162938F01A901692F35
:1007D000782F411551056105710561F7BF01C7010A
:1007E00073DF66960FB6F894DEBF0FBECDBFDF9104
:1007F000CF911F910F91FF90EF90BF90AF909F907E
:100800008F900895FF920F931F93CF93DF936115FD
:10081000710541F46FEC74E0DF91CF911F910F915E
:10082000FF9052CF8B01EC0162E2CE013CDFF80178
:1008300061918F01662351F0E0ECF4E0F080FF203D
:10084000A1F39181961751F03296F8CF62E2CE0172
:10085000DF91CF911F910F91FF9025CF6CE5CE01D5
:1008600022DF6F2DE2CFEF92FF921F93CF93DF93A2
:1008700000D000D0CDB7DEB77C01DC0114968D919D
:100880009C9115979A8389831C821B821E821D82EC
:10089000C70102960E946D14D7011296ED91FC914A
:1008A00013971081173239F1123229F180ED810F3F
:1008B0008A3078F081EA810F8C3158F08FEB810F0C
:1008C0008A3138F01B3229F083ED810F823008F035
:1008D00044C0F70182819381019693838283612FC3
:1008E000CE0101960E941814D7011296ED91FC9149
:1008F00013971081DBCF3196D7011396FC93EE93BB
:100900001297D7011296ED91FC911397608166239F
:1009100021F1CF01019613969C938E931297611744
:10092000E1F06C35A9F46181A4ECB4E08C918823EA
:1009300039F0861303C011966C9102C01296F6CF5F
:10094000662359F03296D7011396FC93EE931297D3
:10095000CE0101960E941814D4CF60E0CE0101961A
:100960000E9418148B819C8126960FB6F894DEBFE6
:100970000FBECDBFDF91CF911F91FF90EF900895F3
:100980000895089508950895CF93DF93EC0164EDE1
:1009900074E087EF98E00E949C19EA81FB818281D4
:1009A00093810E949828EA81FB81848195810E942D
:1009B00098288A819B8106960E94AF278A819B8115
:1009C0000C96DF91CF910C94AF2708950895089568
:1009D000CF93DF93EC01688179818AE090E040DE7B
:1009E000009729F0FC011182108215821482EA819D
:1009F000FB81309751F0208131812115310511F0B3
:100A0000F901F9CF9183808302C09B838A83DF91B0
:100A1000CF910895CF92DF92EF92FF920F931F93A1
:100A2000CF93DF93DA012D913C91232B01F18A01C1
:100A3000EB01FA01E480F580FFEFEF1AFF0ADC0119
:100A4000ED91FC910190F081E02DB70119956C01B9
:100A50000097C9F0F80160817181A7010E943F3EB3
:100A600082E090E099838883DB82CA820AC082E0B8
:100A700090E0DB0111969C938E9313961C921E922C
:100A8000129781E001C080E0DF91CF911F910F911B
:100A9000FF90EF90DF90CF900895CF93DF93EC011C
:100AA0006881798188E090E0DBDD009729F0FC0126
:100AB0001182108213821282EA81FB81309751F0F9
:100AC000208131812115310511F0F901F9CF918390
:100AD000808302C09B838A83DF91CF9108950F9317
:100AE0001F93CF93DF93EC018B01D7DF009759F071
:100AF000BC016E5F7F4FA80188819981DF91CF9102
:100B00001F910F9187CF80E0DF91CF911F910F91BF
:100B100008950895CF93DF93EC01BC0184E090E049
:100B20009FDDFC01009729F0D183C08313821282DC
:100B300011C08091140A81110BC01092110A1092F9
:100B4000100A1092130A1092120A81E08093140A7C
:100B500080E19AE0DF91CF9108958091180781118B
:100B60000BC01092150710921407109217071092DD
:100B7000160781E08093180784E197E00895CF93EA
:100B8000DF93EC01BC0184E090E06ADD009741F066
:100B9000FC01D183C08313821282DF91CF9108952B
:100BA000DF91CF91DACF0F931F93CF93DF938C0117
:100BB000EB016BE7CE0177DDF801028113810115AE
:100BC000110591F0F80162817381CE011BDE6AE3A9
:100BD000CE0169DDBE01C801049611D0F801008183
:100BE00011810115110539F46DE7CE01DF91CF9127
:100BF0001F910F9158CD6CE2CE0155DDE0CF2F92C1
:100C00003F924F925F926F927F928F929F92AF929C
:100C1000BF92CF92DF92EF92FF920F931F93CF93E9
:100C2000DF93CDB7DEB766970FB6F894DEBF0FBE81
:100C3000CDBFDC01ED91FC9111973197E830F105C2
:100C400008F0F5C11B018C018827EE58FF4F8F4F2C
:100C50000C94083CFD01C280D380E480F580A7019C
:100C60009601C701B6010E94E739882319F067EFA2
:100C700074E073C020E030E0A901C701B6010E9412
:100C8000E73987FF07C06DE2C1010DDDF7FAF09487
:100C9000F7F8F09420E030E0A901C701B6010E9406
:100CA000E739882309F45CC0A7019601C701B601A2
:100CB0000E943C3BA70196010E94E739811150C078
:100CC0006EEF74E04AC0FD01028113816BE5C10142
:100CD000EADCD80112960D911C91139701151105AC
:100CE00051F0B101C80102968ADFF801008111813B
:100CF0000115110521F46DE5C101D5DC98C16CE247
:100D0000C101D1DCEBCF12968D919C9113974BDFF3
:100D10008EC1FD0162817381C10174DD88C11296AB
:100D20006D917C91139719C06DE2C101BCDCF80193
:100D30004281538164817581C10120DD78C1FD014B
:100D400082819381A481B581892B8A2B8B2B19F405
:100D500061EF74E002C06CEE74E0C101B5DC67C104
:100D600020E836E948E15BE4C701B6010E94D13BC7
:100D700087FD56C1A12CB12C00E210E01A8A198A15
:100D8000F501E754FD4F2489358946895789C70104
:100D9000B6010E94D13B87FD13C0F501EF55FD4F11
:100DA0002489358946895789C701B6010E944C3A82
:100DB0006B017C0189899A89800F911F9A8B898B9D
:100DC0001595079594E0A91AB108A8EEAA16AFEFF9
:100DD000BA06B1F699249A9420E030E0A901C7013F
:100DE000B6010E94D13B1816B4F52CEA35EC47E267
:100DF00057E3C701B6010E94E739181664F19FEF67
:100E0000991649F1B92DE4E0BE0250011124F50113
:100E1000E757FD4F2081318142815381C701B601DF
:100E20000E94E73987FF13C0F501E754FD4F208189
:100E3000318142815381C701B6010E944C3A6B0156
:100E40007C0189899A89801B910B9A8B898B1595D6
:100E500007959A94D4CFC701B6010E94A53B4B01D8
:100E60005C012B013C0106E080E492E4AFE0B0E0DD
:100E70008B8B9C8BAD8BBE8B102F0FEF010F9AE0ED
:100E80004916510461047104C8F06B897C898D890D
:100E90009E892AE030E040E050E00E94003B2B8B2E
:100EA0003C8B4D8B5E8BC301B2012AE030E040E009
:100EB00050E00E94003B29013A01DECFC501B40198
:100EC0000E94EB399B01AC01C701B6010E943B3B7C
:100ED0006B017C016B897C898D899E890E94EB392D
:100EE0009B01AC01C701B6010E944C3A2B013C01A9
:100EF0000E94A53B6B017C010E94EB399B01AC0178
:100F0000C301B2010E943B3B9B01AC010E943C3BF0
:100F10000E94A53BC60ED71EE81EF91E8B899C8930
:100F2000AD89BE89C816D906EA06FB06F8F09FEF20
:100F3000891A990AA90AB90AA989BA89AB2B99F021
:100F4000BAE08B169104A104B10468F0E989FA892A
:100F50003196FA8BE98BC12CD12C7601812C912C06
:100F60005401839403C0C12CD12C76012AE0422E77
:100F7000512C612C712CC701B601A30192010E9472
:100F8000003B672B682B692B99F0012FB501A40159
:100F9000C101F4DB112351F1188A4E01F0E18F0EEB
:100FA000911C54019AE0492E512C612C712C06C0E1
:100FB00011165CF769017A011150DDCF015068F01C
:100FC000C701B601A30192010E94003B605DD401FC
:100FD0006E934D0169017A01F1CFB501611B710971
:100FE0008EE2FB018293BF01C1016EDB89899A8980
:100FF00097FF0AC06BEF74E0C10166DB69897A89EB
:1010000071956195710909C0A989BA89AB2B79F0ED
:1010100065E6C10148DB69897A89C10185DB07C0C2
:1010200000E210E085E0982E1A8A198AD5CE6696DD
:101030000FB6F894DEBF0FBECDBFDF91CF911F91E9
:101040000F91FF90EF90DF90CF90BF90AF909F9067
:101050008F907F906F905F904F903F902F9008956A
:101060000F931F93CF93DF938B01FC01C281D38138
:10107000209759F06A817B81C8010E945A3E892BD2
:1010800021F00990D881C02DF3CFCE01DF91CF910F
:101090001F910F9108959F92AF92BF92CF92DF92CE
:1010A000EF92FF920F931F93CF93DF9300D000D066
:1010B000CDB7DEB7D82EC92E082F192FF801819190
:1010C00091918F015CDD7C016BE7C8010E94AF1438
:1010D000882309F440C06DE7C8010E94AF14811154
:1010E0003CC086E0982E8D2D9C2DBDDB5C01892BAC
:1010F00091F16AE3C8010E94AF14882361F11A825A
:101100001982BE016F5F7F4F8D2D9C2D0E94D626C8
:10111000882309F1B501C701A3DF009739F4C7019E
:1011200057DC0097C1F0FC01B382A282FE01319628
:10113000DC011496892D01900D928A95E1F76DE7F7
:10114000C8010E94AF14811108C06CE2C8010E945E
:10115000AF148111C8CF01DD01C0C70126960FB6BB
:10116000F894DEBF0FBECDBFDF91CF911F910F91DD
:10117000FF90EF90DF90CF90BF90AF909F90089539
:10118000EF92FF920F931F93CF93DF93CDB7DEB70C
:101190002E970FB6F894DEBF0FBECDBF8B0185ED45
:1011A00092E0998788871C861B8680E092E09E8764
:1011B0008D87CB010E94AF27F80180819181009734
:1011C00011F48EEC94E09E01285F3F4F3A8329830F
:1011D0009C838B833E832D838AE08F83CE0101968F
:1011E0005ADF8C0185ED92E099878887EB85FC8535
:1011F000309759F0828193819E878D87E080F180BE
:10120000CF010E94BF3CF701F3CFC8012E960FB665
:10121000F894DEBF0FBECDBFDF91CF911F910F912C
:10122000FF90EF900895CF92DF92EF92FF920F938D
:101230001F93CF93DF937C018B01EA0111DFFC0147
:10124000892B39F4C701C4DBFC01892B91F013838E
:10125000028388819981892B19F480E090E003C092
:101260006E0187E090E095838483C682D78281E017
:1012700001C080E0DF91CF911F910F91FF90EF901F
:10128000DF90CF900895EF92FF920F931F93CF932B
:10129000DF938C01EB017A01E3DEFC01892B39F449
:1012A000C80196DBFC01892BF9F0D383C283D701F7
:1012B0004D915C9157FD07C0052E000C660B770B16
:1012C00084E090E009C0519541955109052E000C2C
:1012D000660B770B85E090E0958384834683578384
:1012E0006087718781E001C080E0DF91CF911F911D
:1012F0000F91FF90EF900895CF92DF92EF92FF92BF
:101300000F931F93CF93DF93CDB7DEB72C970FB614
:10131000F894DEBF0FBECDBF8C01CB01BA01A0DEB9
:101320007C01009709F44CC0FC01C480D580F1E039
:10133000CF16D10461F4FC016681778161157105D6
:1013400031F08FEC94E00E945A3E892B69F0F1E075
:10135000CF1AD10882E0C816D10430F4F7016681B3
:1013600077816115710571F56EEC74E0CE0101961F
:101370006C010E947D17DC86CB86CE010B96988788
:101380008F831A861986BE01695F7F4FC701049655
:1013900036DC89819A81F801918380838B819C81DD
:1013A000938382838D819E81958384831A8219829F
:1013B0001C821B821E821D82C6010E94301705C03E
:1013C0006EEC74E0C8010E947D17C8012C960FB620
:1013D000F894DEBF0FBECDBFDF91CF911F910F916B
:1013E000FF90EF90DF90CF900895089508952F9289
:1013F0003F924F925F926F927F928F929F92AF92A5
:10140000BF92CF92DF92EF92FF920F931F93CF93F1
:10141000DF93CDB7DEB727970FB6F894DEBF0FBEC8
:10142000CDBF1B015E834D838901FC0182819381C5
:1014300020910002281721F02F3F09F0D0C205C0EB
:10144000EFEDF2E024912F8304C180930002EFEDD1
:10145000F2E0E491EF3F09F4C2C2E23009F47EC049
:101460006CF5EE2309F459C0E13009F0F1C0109297
:1014700080001092810020918100286020938100DB
:10148000209181002160209381009C013327F90184
:10149000E052FB4FE491F0E0EE0FFF1FE455FB4FED
:1014A000459154915093FC064093FB06F901EA5D87
:1014B000FA4FE491E093FA0631E0C8C0E43009F451
:1014C0009DC00CF473C0E53009F0C2C01092200139
:1014D0001092210120912101286020932101209167
:1014E00021012160209321019C013327F901E05261
:1014F000FB4FE491F0E0EE0FFF1FE455FB4F4591E9
:1015000054915093F3064093F206F901EA5DFA4FC5
:10151000E491E093F10635E099C014BC15BC24B504
:10152000226024BD25B5216025BD9C013327F9012A
:10153000E052FB4FE491F0E0EE0FFF1FE455FB4F4C
:10154000459154915093FF064093FE06F901EA5DE0
:10155000FA4FE491E093FD061F827EC01092B00026
:101560001092B1002091B00022602093B000209131
:10157000B10021602093B1009C013327F901E052B2
:10158000FB4FE491F0E0EE0FFF1FE455FB4F459158
:10159000549150936E0740936D07F901EA5DFA4F3D
:1015A000E491E0936F07E2E0EF8356C01092900061
:1015B0001092910020919100286020939100209139
:1015C00091002160209391009C013327F901E052A2
:1015D000FB4FE491F0E0EE0FFF1FE455FB4F459108
:1015E00054915093F9064093F806F901EA5DFA4FD9
:1015F000E491E093F706F3E0FF832EC01092A00081
:101600001092A1002091A10028602093A1002091B8
:10161000A10021602093A1009C013327F901E05231
:10162000FB4FE491F0E0EE0FFF1FE455FB4F4591B7
:1016300054915093F6064093F506F901EA5DFA4F8E
:10164000E491E093F40624E02F8306C03F8304C0B6
:10165000EF83EF81E7FDC3C12801012E000C66086E
:10166000770861E00E941F2A4101A12CB12C8F81D3
:101670008D7F09F0BDC060E072E18AE790E0A501CE
:1016800094010E94EC3B29833A834B835C8369017C
:101690007A01F1E0CF1AD108E108F1082FEFC21664
:1016A000D104E104F10409F008F44DC060E472E4EF
:1016B0008FE090E0A50194010E94EC3B69017A0162
:1016C00081E0C81AD108E108F1089F81923001F544
:1016D000EFEFCE16D104E104F10409F008F4FCC1E7
:1016E00060E970ED83E090E0A50194010E94EC3B7D
:1016F00069017A01F1E0CF1AD108E108F1082FEF72
:10170000C216D104E104F10409F0E0F583E069C0F8
:101710003FEFC316D104E104F104B9F0B0F068E47E
:1017200078EE81E090E0A50194010E94EC3B690114
:101730007A0181E0C81AD108E108F1089F81992354
:1017400009F46FC1C0C181E001C082E09F8199238B
:10175000A1F047C089819A81AB81BC812AE0B5950F
:10176000A795979587952A95D1F76C017D01E1E0C2
:10177000CE1AD108E108F10885E095B5987F892B4C
:1017800085BDA1C068E478EE81E090E0A5019401F8
:101790000E94EC3B69017A01F1E0CF1AD108E1081F
:1017A000F1082FEFC216D104E104F10409F008F4A6
:1017B00036C164E274EF80E090E0A50194010E94DC
:1017C000EC3B69017A01E1E0CE1AD108E108F108A9
:1017D000FFEFCF16D104E104F10411F008F043C18A
:1017E00085E09091B100987F892B8093B1006BC008
:1017F00060E072E18AE790E0A50194010E94EC3B71
:1018000069017A01E1E0CE1AD108E108F108C114BA
:10181000D104F1E0EF06F10488F068E478EE81E0AD
:1018200090E0A50194010E94EC3B69017A0181E0FE
:10183000C81AD108E108F10883E001C081E09F8166
:10184000913071F490918100987F892B8093810071
:10185000452846284728D9F52FEF3FEFA90168C052
:10186000EF81E33071F490919100987F892B809300
:10187000910045284628472851F52FEF3FEFA90151
:1018800079C0FF81F43071F49091A100987F892B89
:101890008093A100452846284728C9F42FEF3FEF41
:1018A000A9017AC02F81253071F490912101987F90
:1018B000892B8093210145284628472841F42FEFA2
:1018C0003FEFA9017BC045284628472869F09101D0
:1018D000220F331FD8010E94103C28EE33E040E075
:1018E00050E00E94003B03C02FEF3FEFA9018F8122
:1018F000823081F12CF4882361F08130C9F06FC00F
:101900009F81943009F448C0ACF1953009F456C079
:1019100066C0C7BC2093100730931107409312078D
:101920005093130780916E00826080936E0057C0C1
:10193000D0928900C092880020930C0730930D0745
:1019400040930E0750930F0780916F008260809341
:101950006F0045C0C092B3002093700730937107A9
:101960004093720750937307809170008260809358
:10197000700035C0D0929900C0929800209308075B
:101980003093090740930A0750930B078091710029
:1019900082608093710023C0D092A900C092A800F9
:1019A00020930407309305074093060750930707D9
:1019B0008091720082608093720011C0D0922901E0
:1019C000C09228012093000730930107409302073B
:1019D0005093030780917300826080937300ED81C0
:1019E000FE81BF01FF0F880B990B27960FB6F89465
:1019F000DEBF0FBECDBFDF91CF911F910F91FF9042
:101A0000EF90DF90CF90BF90AF909F908F907F909E
:101A10006F905F904F903F902F900C945B2A84E0E2
:101A2000E0CEEFEFCE16D104E104F104D1F0C8F01E
:101A300062E17AE780E090E0A50194010E94EC3B2E
:101A400069017A0181E0C81AD108E108F1089FEF25
:101A5000C916D104E104F10411F008F07BCE84E052
:101A60008CCE83E08ACE62E17AE780E090E0A50147
:101A700094010E94EC3B69017A01F1E0CF1AD10890
:101A8000E108F1082FEFC216D104E104F104C9F016
:101A9000C0F089819A81AB81BC815AE0B595A79548
:101AA000979587955A95D1F76C017D0121E0C21A6F
:101AB000D108E108F1083F81332309F45DCE87E0C6
:101AC00090CE86E043CE3FEFC316D104E104F1048B
:101AD00009F048F684E03ACE82E083CECF93DF93DC
:101AE0001F92CDB7DEB76983DC01ED91FC910280D6
:101AF000F381E02D41E050E0BE016F5F7F4F19950B
:101B00000F90DF91CF910895089581E090E030919A
:101B1000D4062091D306321710F480E090E091951E
:101B20008195910908958091D4069091D3068917E3
:101B300030F48F5F8093D40680E090E008958FEFBB
:101B40009FEF08958091D30690E02091D406821BE8
:101B500091090895089580E090E0089585ED8093BF
:101B6000BC008091BC0084FDFCCF1092D00608958B
:101B700040914207262F30E0240F311D21323105DC
:101B8000DCF42091D0062430C9F4FC0180E090E020
:101B9000861758F4309142072191DC01A05EB84FBE
:101BA000A30FB11D2C930196F3CF80914207680FCC
:101BB0006093420780E0089581E0089582E00895EF
:101BC000CF92DF92EF92FF920F931F93CF93DF9309
:101BD0007C01262F972F8A0180919A07882391F004
:101BE000C62FD72F6E01C40ED51ECC15DD0569F0AA
:101BF0006991D701ED91FC910190F081E02DC70131
:101C00001995F3CF642F822FB3DFC801DF91CF91F5
:101C10001F910F91FF90EF90DF90CF900895CF9399
:101C2000DF931F92CDB7DEB7698320919A072223F5
:101C3000D1F02091D106203240F021E030E0FC01CB
:101C40003383228380E090E014C08091D206E82F95
:101C5000F0E0E556F84F998190838F5F8093D2062C
:101C60008093D10604C061E0CE01019681DF81E05E
:101C700090E00F90DF91CF910895EF92FF920F9334
:101C80001F93CF93DF93CDB7DEB762970FB6F8946B
:101C9000DEBF0FBECDBF7C01FB0185811F928F93FC
:101CA00084811F928F9383811F928F9382811F92D1
:101CB0008F9322E732E03F932F938E010F5F1F4FE8
:101CC0001F930F93498B5A8B0E94553549895A8926
:101CD000B801C7010E94B31D0FB6F894DEBF0FBE56
:101CE000CDBF62960FB6F894DEBF0FBECDBFDF91B9
:101CF000CF911F910F91FF90EF9008950C94B31D19
:101D0000CF92DF92EF92FF920F931F93CF93DF93C7
:101D10008C017B01DC011596CD91DC9116976B014E
:101D20006C177D0708F46E01C60106960E942A3CD6
:101D3000FC01892BB1F0D382C282D80113968D9118
:101D40009C911497918380831496FC93EE93139740
:101D5000CC0FDD1F1696DC93CE931597F582E482A7
:101D60003696CF01DF91CF911F910F91FF90EF90A9
:101D7000DF90CF900895DC011396ED91FC911497BC
:101D8000309751F024813581AB01420F531FA2815E
:101D9000B381A417B50708F4B3CFC90106965583DC
:101DA00044838E0F9F1F089580917407909175074B
:101DB000DC01ED91FC910084F185E02D1995181658
:101DC000190664F48091740790917507DC01ED9118
:101DD000FC910284F385E02D1995E6CF08953F929A
:101DE0004F925F926F927F928F929F92AF92BF922B
:101DF000CF92DF92EF92FF920F931F93CF93DF93D7
:101E00006C015B01342E8091BC099091BD099093C7
:101E1000C1098093C0090E94932A2B013C01CFEF96
:101E2000DFEF0D2C000CEE08FF080E94932ADC0166
:101E3000CB0184199509A609B7098C159D05AE0536
:101E4000BF0508F05DC0CF3FFFEFDF0709F058C0C6
:101E50008091740790917507DC01ED91FC910084ED
:101E6000F185E02D1995892B01F3809174079091EC
:101E70007507DC01ED91FC910284F385E02D199545
:101E8000E091C009F091C10980838091C0099091CF
:101E9000C10901969093C1098093C0092091BE09A0
:101EA0003091BF098217930740F08091BC0990914F
:101EB000BD099093C1098093C009A114B10439F000
:101EC000C5010E946A1D882311F0C5E0D0E03320CF
:101ED00009F4ABCF87ED882E82E0982E00E010E069
:101EE000F401819191914F010E946A1D811106C0F8
:101EF0000F5F1F4F0530110599F797CFE80195CF78
:101F00000E94932ADC01CB0184199509A609B7091F
:101F10008C159D05AE05BF0560F06CE873E087EF9A
:101F200098E00E94BC1962E672E087EF98E00E9498
:101F3000AC19CE01DF91CF911F910F91FF90EF90DF
:101F4000DF90CF90BF90AF909F908F907F906F90D9
:101F50005F904F903F900895AF92BF92CF92DF92E3
:101F6000EF92FF920F931F93CF93DF93CDB7DEB71E
:101F700064970FB6F894DEBF0FBECDBF7C015B0146
:101F80008A01DC011C968C91843018F441155105AE
:101F900031F481E090E0F7019383828383C01F9343
:101FA0004F931F928F9384EB92E09F938F939E01A8
:101FB0002F5F3F4F69013F932F930E945535B60124
:101FC00080917407909175070E949C1940E067E02A
:101FD00075E088EE93E003DF0FB6F894DEBF0FBE26
:101FE000CDBF059749F06CE873E087EF98E00E9459
:101FF000BC1969E972E01EC0809174079091750761
:10200000DC01ED91FC910280F381E02DA801B50186
:10201000199541E060E070E080ED97E0E0DE039725
:1020200009F443C06CE873E087EF98E00E94BC19A4
:102030006EE772E087EF98E00E94AC1981E090E0D3
:10204000F701938382836CE873E087EF98E00E9446
:10205000BC1965EC72E087EF98E00E94D5186AEE33
:1020600073E087EF98E00E94BC19D7011C964C9151
:1020700050E060E070E02AE087EF98E00E940E19DF
:1020800087EF98E00E94991960EA7FE080E090E095
:102090000E945B2AD701ED91FC910488F589E02D1F
:1020A000C701199580E090E001C0C80164960FB6A1
:1020B000F894DEBF0FBECDBFDF91CF911F910F917E
:1020C000FF90EF90DF90CF90BF90AF900895CF93A7
:1020D000DF93CDB7DEB7C85CD1090FB6F894DEBF89
:1020E0000FBECDBF9E012E523F4FC253DF4F4881DE
:1020F0005981CE5CD04068EC70E0CE0101960E9420
:10210000843581E051DEBE016F5F7F4F809174079F
:10211000909175070E949C1941E060E070E0C05307
:10212000DF4F88819981C05DD04059DEC853DF4FB1
:102130000FB6F894DEBF0FBECDBFDF91CF910895EB
:10214000AF92BF92CF92DF92EF92FF920F931F93C5
:10215000CF93DF935C016B017A01E901188281E082
:1021600023DEB50180917407909175070E94AC1928
:1021700041E0B60188EE93E032DE8530910509F04A
:1021800048C08091BC099091BD099093C10980938A
:10219000C0094091BA095091BB094F5F5F4F60E0A1
:1021A00070E00E94483E41E0B70184EF91E017DE05
:1021B000059731F5A80141505109F7010190002020
:1021C000E9F73197CF018E199F096091BC09709191
:1021D000BD09E091C009F091C109E61BF70BE81BAE
:1021E000F90B4E175F0708F0AF01CE010E946A3E5F
:1021F00041E060E070E080ED97E0F1DD81E018C043
:102200006CE873E087EF98E00E94BC1963E472E029
:102210000AC0059760F06CE873E087EF98E00E94D1
:10222000BC1965E572E087EF98E00E94AC1980E088
:10223000DF91CF911F910F91FF90EF90DF90CF90A2
:10224000BF90AF9008956F927F928F929F92AF92BE
:10225000BF92CF92DF92EF92FF920F931F93CF9393
:10226000DF9300D01F92CDB7DEB74C015A016DB697
:102270007EB6CB012B833C8369837A830E940C3525
:1022800001964DB75EB7481B590B0FB6F8945EBF69
:102290000FBE4DBF8DB79EB701967C0169817A81D3
:1022A0000E940535C5010E940C3501964DB75EB7F9
:1022B000481B590B0FB6F8945EBF0FBE4DBF8DB7CC
:1022C0009EB701966C01B5010E9405352B813C81BA
:1022D000A601B701C40134DF0FB6F8947EBE0FBE6D
:1022E0006DBE0F900F900F900F90DF91CF911F91C7
:1022F0000F91FF90EF90DF90CF90BF90AF909F90A5
:102300008F907F906F900895CF92DF92EF92FF921F
:102310000F931F93CF93DF9340911D0A50911E0A94
:1023200060911F0A7091200A1416150616061706EA
:1023300044F490911C0A981711F0911102C0CA013F
:1023400005C1182F8091740790917507DC01ED91FC
:10235000FC910084F185E02D1995892B19F480E01A
:1023600090E0F4C0E0907407F0907507C0E0D0E012
:10237000C701E4D697FD43C0FE01E75FFA4F208115
:10238000022E000C330B8217930789F1209781F3FB
:102390006AE075E09E0121503109F901E75FFA4FCB
:1023A0004081042E000C550B84179507E1F421158C
:1023B0003105F1F2E9E0F5E040E050E001916B0118
:1023C000C40ED51ED601DC900D1539F04217530707
:1023D00079F26F5F7F4FE901DDCF4F5F5F4F4217AB
:1023E000530760F3F3CF2115310599F7BFCF21963D
:1023F000C530D10509F0BCCF80E090E002C08FEF7E
:102400009FEF892B09F0ABCF8091740790917507EE
:102410000E94842060931C0A809174079091750734
:10242000DC01ED91FC910284F385E02D19958091FA
:102430007407909175070E94842060931D0A709321
:102440001E0A80931F0A9093200A8091740790912E
:102450007507DC01ED91FC910284F385E02D19955F
:1024600080917407909175070E948420609369079A
:102470008091740790917507DC01ED91FC910284C5
:10248000F385E02D199580917407909175070E944E
:10249000842060936A078091740790917507DC012E
:1024A000ED91FC910284F385E02D199580917407DC
:1024B000909175070E94842060936B078091740748
:1024C00090917507DC01ED91FC910284F385E02D7C
:1024D000199580917407909175070E9484206093EC
:1024E0006C078091740790917507DC01ED91FC9168
:1024F0000284F385E02D19958091740790917507FA
:10250000DC01ED91FC910284F385E02D1995809119
:102510007407909175070E948420709368076093F8
:1025200067078091740790917507DC01ED91FC912C
:102530000284F385E02D199580911C0A811711F012
:1025400011110DCF80911D0A90911E0ADF91CF913C
:102550001F910F91FF90EF90DF90CF9008950F9310
:102560001F93CF93DF93CDB7DEB72A970FB6F894BA
:10257000DEBF0FBECDBF0AE010E09E012F5F3F4FD0
:102580004BE252E06EE272E086E392E05CDE88238A
:1025900071F0CE0101960E94BA349C01225031099B
:1025A0002330310530F0059731F080E005C08FEF22
:1025B00003C081E001C083E02A960FB6F894DEBF25
:1025C0000FBECDBFDF91CF911F910F9108951F9244
:1025D0000F920FB60F9211240BB60F922F933F93C9
:1025E0004F935F936F937F938F939F93AF93BF931B
:1025F000EF93FF938091B900887F803609F49CC0E7
:1026000068F5883209F45BC090F4803109F454C055
:1026100038F4882309F4F6C0883009F44DC0F5C0B9
:10262000883109F44CC0803209F45DC0EEC08034BA
:1026300009F468C048F4803309F455C0883309F0C0
:10264000E4C080939907D8C0803509F44FC088351D
:1026500009F45DC0883409F0D8C0D6C0883909F4BF
:10266000C7C0A8F4883709F467C038F4883609F47D
:1026700063C0803709F460C0C8C0883809F4B8C0A6
:10268000803909F45FC0803809F0BFC05BC0803B6F
:1026900009F486C038F4803A09F466C0883A09F42F
:1026A0007FC0B3C0803C09F4A7C0883C09F4A4C033
:1026B000883B09F48AC0A9C08091760710C0909128
:1026C000980780919707981770F5E091980781E037
:1026D0008E0F80939807F0E0E958F84F808180933F
:1026E000BB0085EC86C0809399078EC0E091980767
:1026F00081E08E0F809398078091BB00F0E0E9584D
:10270000F84F808390919807809197076EC0E09171
:10271000980781E08E0F809398078091BB00F0E0CE
:10272000E958F84F80838091CF0681116DC081E018
:102730008093CE0684EA61C083E08093D006109235
:102740006607CFCF80916607803208F051C0E091D4
:10275000660781E08E0F809366078091BB00F0E0F2
:10276000EA5BF84F8083BDCF85EC8093BC0010926C
:10277000D00680916607803230F4E0916607F0E081
:10278000EA5BF84F10826091660770E0E0914407C1
:10279000F091450786E497E019951092660735C0D9
:1027A00084E08093D0061092430710924207E09194
:1027B0004007F0914107199580914207811105C0AA
:1027C00081E08093420710922007E091430781E067
:1027D0008E0F80934307F0E0E05EF84F8081809396
:1027E000BB009091430780914207981708F479CF76
:1027F00085E88093BC0009C085EC8093BC001092F2
:10280000D00603C010929907A9D9FF91EF91BF910B
:10281000AF919F918F917F916F915F914F913F9178
:102820002F910F900BBE0F900FBE0F901F90189519
:10283000FF920F931F93CF93DF93EC01F62E8881C5
:102840009981FC01A381B481109771F01496ED91E8
:10285000FC9115979F012F5F3F4F12964D915C9110
:1028600013974217530750F52C813D81B9016F5FD3
:102870007F4F46DA8C016A817B816115710549F0D1
:102880000115110571F04C815D81C8010E943F3E28
:1028900003C00115110529F0EC81FD81E00FF11F46
:1028A000F0821B830A838C819D8101969D838C839A
:1028B000DF91CF911F910F91FF9008953696EA0F07
:1028C000FB1F15963C932E93149760838C819D81FA
:1028D000892B49F7FB83EA83E6CFFC01A081B18114
:1028E0008C918D3051F024F489508230B8F505C0B8
:1028F000803219F08F3219F0089511962CC011967C
:102900008C9111978A3219F08F32D1F00895119677
:10291000B183A083A081B181CD0101969183808391
:1029200011968C9111978823C9F08A3299F71296E3
:102930008C9112978F3271F713960DC08A3071F215
:10294000A081B181CD0101969183808311968C91F4
:102950008111F4CF03C0B183A083C0CF08950F933A
:102960001F93CF93DF931F92CDB7DEB78C0169839E
:10297000B4DFD801ED91FC911197808169818613B4
:1029800005C03196ED93FC9381E001C080E00F908B
:10299000DF91CF911F910F910895CF92DF92EF9227
:1029A000FF920F931F93CF93DF936C017A018B01FA
:1029B000C0E0D0E0CE15DF0589F0D8016D918D0122
:1029C000D601ED91FC910190F081E02DC6011995A1
:1029D000892B11F47E0102C02196ECCFC701DF9153
:1029E000CF911F910F91FF90EF90DF90CF900895BE
:1029F000FC01A089B1898C91A689B78982FD0FC09D
:102A00009C91818D8F5F8F73228D821749F0218D6C
:102A1000DF01A20FB11D5D969C93818F08958C916B
:102A20000895FC01538D448D252F30E0842F90E0D4
:102A3000821B930B541710F0CF96089501970895B9
:102A4000FC01918D828D981761F0828DDF01A80FB6
:102A5000B11D5D968C91928D9F5F9F73928F90E0D8
:102A600008958FEF9FEF0895FC01918D828D981747
:102A700031F0828DE80FF11D858D90E008958FEF84
:102A80009FEF0895FC01918D228D892F90E0805C4D
:102A90009F4F821B91098F73992708958DEB97E0C3
:102AA000F1DF21E0892B09F420E0822F08958AE5E7
:102AB00098E0E8DF21E0892B09F420E0822F0895D7
:102AC00087EF98E0DFDF21E0892B09F420E0822FF7
:102AD0000895FC01848DDF01A80FB11DA35ABF4FDB
:102AE0002C91848D90E001968F739927848FA6890D
:102AF000B7892C93A089B1898C9180648C93938D34
:102B0000848D981306C00288F389E02D80818F7D23
:102B100080830895EF92FF920F931F93CF93DF93DB
:102B2000EC0181E0888F9B8D8C8D981305C0E8891E
:102B3000F989808185FD23C0F62E0B8D10E00F5F93
:102B40001F4F0F731127E02E8C8DE8120BC00FB6AC
:102B500007FCFACFE889F989808185FFF5CFCE019E
:102B6000B8DFF2CF8B8DFE01E80FF11DE35AFF4F66
:102B7000F0820B8FEA89FB898081806207C0EE8931
:102B8000FF896083E889F98980818064808381E09E
:102B900090E0DF91CF911F910F91FF90EF900895FA
:102BA000CF93DF93EC01888D8823C1F0EA89FB89FC
:102BB000808185FD05C0A889B9898C9186FD0EC0EC
:102BC0000FB607FCF5CF808185FFF2CFA889B989C0
:102BD0008C9185FFEDCFCE017CDFE8CFDF91CF91E7
:102BE000089580E090E0892B19F06ADF81111BC005
:102BF00080E090E0892B19F05ADF811117C080E046
:102C000090E0892B19F04ADF811113C080E090E039
:102C1000892BA1F080E090E0892B81F00E940000D8
:102C200081110AC008950E940000E2CF0E940000B6
:102C3000E6CF0E940000EACF0C94000008950E94A5
:102C40003B3E0F931F93CF93DF93EC0188819981D3
:102C5000009729F02A813B812617370788F48B01DA
:102C60006F5F7F4F0E94573D009761F09983888383
:102C70001B830A832C813D81232B11F4FC011082DC
:102C800081E001C080E0DF91CF911F910F91089505
:102C90000C94BF3C0C94BF3C0C94BF3C0C94BF3CC8
:102CA000FC0124813581FB014481558124173507BE
:102CB00021F5FC0180819181FB0160817181009788
:102CC00019F061157105A1F46115710549F0232B07
:102CD000B1F0FB01808190E09195819591090AC046
:102CE000009769F0232B59F0FC01808190E002C02D
:102CF0000E945A3E21E0892B19F020E001C021E01A
:102D0000822F0895EF92FF920F931F93CF93DF933B
:102D1000FC01248135816115710511F480E018C032
:102D200041155105A1F07B01EC018A01020F131F2F
:102D3000B80187DF882391F3288139818C819D81B7
:102D4000B701820F931F0E94633E1D830C8381E0B5
:102D5000DF91CF911F910F91FF90EF900895CF9346
:102D6000DF931F921F92CDB7DEB769831A8241E0CD
:102D700050E0BE016F5F7F4FC5DF0F900F90DF9176
:102D8000CF910895CF93DF93EC01888199810097CB
:102D900011F00E94BF3C198218821D821C821B8286
:102DA0001A82DF91CF910895CF93DF93EC016115E3
:102DB000710559F0FB0101900020E9F73197AF014F
:102DC000461B570B9FDF811102C0CE01DBDFCE0116
:102DD000DF91CF910895CF93DF93EC01FB01448104
:102DE0005581608171818EDF811102C0CE01CADF01
:102DF000CE01DF91CF910895EF92FF920F931F9331
:102E0000CF93DF93EC017B018A01BA011ADF8111B4
:102E100003C0CE01B7DF07C01D830C83B7018881D3
:102E200099810E94633ECE01DF91CF911F910F9156
:102E3000FF90EF900895CF93DF93EC01FB0186178D
:102E4000970751F0608171816115710521F044810E
:102E50005581D2DF01C096DFCE01DF91CF91089579
:102E6000FC01808191810C94BF3CCF93DF93EC01F6
:102E70008DE792E099838883CE010896F1DFCE0139
:102E80000296DF91CF91ECCFCF93DF93EC01EDDF92
:102E9000CE01DF91CF910C94BF3C25EF32E0FC01D5
:102EA00021933193CF01DCCFCF93DF93EC01F5DF9A
:102EB000CE01DF91CF910C94BF3CCF93DF93EC0117
:102EC00085EE92E099838883CE010C96C9DFCE010E
:102ED0000696DF91CF91C4CFCF93DF93EC01EDDF66
:102EE000CE01DF91CF910C94BF3CFC011182108286
:102EF00013821282158214829ECFFC0111821082ED
:102F000013821282158214826115710549F0FB014A
:102F100001900020E9F73197AF01461B570B6CCFAA
:102F200008956F927F928F929F92AF92BF92CF92AD
:102F3000DF92EF92FF920F931F93CF93DF93EC01F9
:102F40005B014A01690185EE92E0998388833E0125
:102F500086E0680E711C6EEC74E0C301CEDF7E016A
:102F60008CE0E80EF11C6EEC74E0C701C6DFBB829A
:102F7000AA829D828C82B601C3015DDFB801C701C0
:102F8000DF91CF911F910F91FF90EF90DF90CF9045
:102F9000BF90AF909F908F907F906F904CCF1F927B
:102FA0000F920FB60F9211240BB60F922F933F93EF
:102FB0004F935F936F937F938F939F93AF93BF9341
:102FC000EF93FF938091700790917107A091720722
:102FD000B0917307892B8A2B8B2B59F180916F0746
:102FE000E0916D07F0916E07908189278083809131
:102FF000700790917107A0917207B091730718162E
:1030000019061A061B060CF056C0809170079091A5
:103010007107A0917207B09173070197A109B109D7
:103020008093700790937107A0937207B093730712
:1030300042C080910002EFEDF2E0E4919FEF9093A7
:103040000002E230C9F050F4EE2399F0E13081F54E
:1030500090916F009D7F90936F002AC0E43019F12A
:10306000E0F0E53029F5909173009D7F9093730017
:103070001FC010926E001CC0909170009D7F9093B5
:10308000700091E09093B0009091B100987F9460AF
:103090009093B1001092B3000BC0909171009D7F8E
:1030A0009093710005C0909172009D7F9093720083
:1030B00060E00E94F029FF91EF91BF91AF919F9145
:1030C0008F917F916F915F914F913F912F910F90D1
:1030D0000BBE0F900FBE0F901F9018950F931F936C
:1030E000CF93DF93EC010E94932A688779878A87C0
:1030F0009B87E881F9810484F585E02DCE0119953F
:1031000097FF17C00E94932A088519852A853B8559
:10311000DC01CB01801B910BA20BB30B0C811D8139
:103120002E813F8180179107A207B30710F38FEF1D
:103130009FEFDF91CF911F910F9108950F931F93F0
:10314000CF93DF93EC010E94932A688779878A875F
:103150009B87E881F9810284F385E02DCE011995E2
:1031600097FF17C00E94932A088519852A853B85F9
:10317000DC01CB01801B910BA20BB30B0C811D81D9
:103180002E813F8180179107A207B30710F38FEFBD
:103190009FEFDF91CF911F910F910895DC01ED9189
:1031A000FC910190F081E02D1994EF92FF920F9322
:1031B0001F93CF93DF938C017B01C0E0D0E0F70138
:1031C000EC0FFD1F6491662361F0D801ED91FC9135
:1031D0000190F081E02DC8011995892B11F02196FD
:1031E000EECFCE01DF91CF911F910F91FF90EF9025
:1031F00008956115710579F0FB0101900020E9F750
:103200003197AF01461B570BDC01ED91FC91028019
:10321000F381E02D199480E090E008954F925F9241
:103220006F927F92EF92FF920F931F93CF93DF9352
:10323000CDB7DEB7A1970FB6F894DEBF0FBECDBFF6
:103240007C01FA01CB0119A2223008F42AE08E0198
:103250000F5D1F4F422E512C612C712CBF01A30119
:1032600092010E94003BF901CA01015011096A3024
:1032700014F4605D01C0695CD8016C93232B242B8E
:10328000252B61F7B801C701B4DFA1960FB6F894FA
:10329000DEBF0FBECDBFDF91CF911F910F91FF9089
:1032A000EF907F906F905F904F9008958F929F92D4
:1032B000AF92BF92CF92DF92EF92FF920F931F9344
:1032C000CF93DF937C018B016C0182E0C80ED11C8F
:1032D0004701E5E08E0E911CC0E0D0E0F60141917F
:1032E0006F0150E060E070E02AE0C80197DF5C0108
:1032F0006EE2C80153DF8A0D9B1DC80FD91FC81489
:10330000D90461F7F701458150E060E070E02AE000
:10331000C80184DF8C0F9D1FDF91CF911F910F910A
:10332000FF90EF90DF90CF90BF90AF909F908F90E5
:10333000089564EF75E05DCF0F931F93CF93DF93F4
:10334000EC0157DF8C01CE01F4DF800F911FDF917C
:10335000CF911F910F9108950F931F93CF93DF93F8
:10336000EC0123DF8C01CE01E4DF800F911FDF91A0
:10337000CF911F910F9108953CCF1F920F920FB6DE
:103380000F9211240BB60F922F933F934F935F939D
:103390006F937F938F939F93AF93BF93EF93FF931D
:1033A0008DEB97E096DBFF91EF91BF91AF919F91ED
:1033B0008F917F916F915F914F913F912F910F90DE
:1033C0000BBE0F900FBE0F901F9018951F920F927B
:1033D0000FB60F9211240BB60F922F933F934F937A
:1033E0005F936F937F938F939F93AF93BF93EF936D
:1033F000FF938DEB97E0FCDAFF91EF91BF91AF91D6
:103400009F918F917F916F915F914F913F912F91FC
:103410000F900BBE0F900FBE0F901F9018951F922C
:103420000F920FB60F9211240BB60F922F933F936A
:103430004F935F936F937F938F939F93AF93BF93BC
:10344000EF93FF938AE598E044DBFF91EF91BF9102
:10345000AF919F918F917F916F915F914F913F912C
:103460002F910F900BBE0F900FBE0F901F901895CD
:103470001F920F920FB60F9211240BB60F922F933B
:103480003F934F935F936F937F938F939F93AF93EC
:10349000BF93EF93FF938AE598E0AADAFF91EF914B
:1034A000BF91AF919F918F917F916F915F914F915C
:1034B0003F912F910F900BBE0F900FBE0F901F905A
:1034C00018951F920F920FB60F9211240BB60F9200
:1034D0002F933F934F935F936F937F938F939F931C
:1034E000AF93BF93EF93FF9387EF98E0F2DAFF91EA
:1034F000EF91BF91AF919F918F917F916F915F916C
:103500004F913F912F910F900BBE0F900FBE0F90D8
:103510001F9018951F920F920FB60F9211240BB6A1
:103520000F922F933F934F935F936F937F938F935C
:103530009F93AF93BF93EF93FF9387EF98E058DA91
:10354000FF91EF91BF91AF919F918F917F916F917B
:103550005F914F913F912F910F900BBE0F900FBE37
:103560000F901F901895CF92DF92EF92FF920F93DA
:103570001F93CF93DF93EC016B017A018DE792E00B
:10358000FE01819391938F016EEC74E0CF01B5DC65
:1035900028966EEC74E0CE01B0DCB601C8014BDCBD
:1035A000B701CE01DF91CF911F910F91FF90EF9066
:1035B000DF90CF9040CCCF92DF92EF92FF920F93AB
:1035C0001F93CF93DF938C016B017A01EC0185EFA0
:1035D00092E0899399936EEC74E0CE018EDCB60193
:1035E000CE0129DCF801F186E086DF91CF911F91B1
:1035F0000F91FF90EF90DF90CF90089508950E9473
:103600003008FC01892B09F44BC0848195818330FB
:1036100091053CF4813091057CF4009709F447C092
:1036200038C0853091052CF0059799F56681778132
:103630002BC08681978108950680F781E02D309711
:1036400079F18081843779F18B3229F08D3221F440
:10365000319691E002C0319690E060E070E03AE08F
:10366000819120ED280F2A3068F4369FA001379F02
:10367000500D1124682F880F770B60537109640F68
:10368000751FEECF992391F088279927861B970BFA
:10369000089566817781808591850E94A03B06C050
:1036A00080E090E0089581E090E00895CB010895D6
:1036B0000E943008009749F0FC01248135812730B1
:1036C000310519F48681978108950C94AD0508950C
:1036D000AF92BF92CF92DF92EF92FF920F931F9320
:1036E000CF93DF93CDB7DEB768970FB6F894DEBF00
:1036F0000FBECDBF8B0160E475E0C80180DF6C01B7
:1037000067E475E0C8017BDF5C014EE455E0B80179
:10371000CE0143960E947C0945E555E0B801CE01F3
:103720000D960E947C09C6010E949828C5010E943E
:103730009828CE0143960E94AF27CE010D960E9495
:10374000AF27BE016D5E7F4FCE010796CEDBBE0177
:10375000635F7F4FCE010196C8DB82E190E00E945B
:103760002A3C7C018E010F5F1F4F9E01295F3F4F56
:10377000A501B601D6DBC80173DBCE01079670DB6D
:10378000CE010D966DDBCE0143966ADBC7016896CC
:103790000FB6F894DEBF0FBECDBFDF91CF911F9162
:1037A0000F91FF90EF90DF90CF90BF90AF90089572
:1037B000089508950F931F93CF93DF93EC018B012E
:1037C0000E94AF12813061F064E675E087EF98E007
:1037D000B3DDB801CE01DF91CF911F910F911DC7CD
:1037E000DF91CF911F910F9108954F925F926F9249
:1037F0007F928F929F92AF92BF92CF92DF92EF9281
:10380000FF920F931F93CF93DF93CDB7DEB7C656CA
:10381000D2400FB6F894DEBF0FBECDBF7C016B0166
:103820005A01CE0109969C838B8388E592E09E83A2
:103830008D8318861F828BE193E09A838983CE0162
:1038400001960E94BF058C01F60182819381CF59B8
:10385000DD4F99838883C156D240AE014F595D4FE9
:1038600066E875E0C8010E944309F601448055806E
:10387000668077806AE875E0C8010E943008FC0124
:10388000892B51F4C8010E94E804FC01892B61F0E6
:103890008AE895E09383828388E090E0958384832F
:1038A0004682578260867186F801808191810097F7
:1038B00081F48091140A811132C01092110A109281
:1038C000100A1092130A1092120A81E08093140ACF
:1038D00026C00E948A053C016FE875E0C8010E947D
:1038E0003008009751F4C8010E94E8040097D9F00D
:1038F0002FE835E0FC0133832283F30120813181FD
:10390000232B19F420E030E004C0962C872C26E00D
:1039100030E0FC01358324839682878204C080E1F5
:10392000682E8AE0782EF6018085882329F066EAE1
:1039300079E0C3010E946F05F6018185882329F093
:1039400062EB79E0C3010E946F0520E030E040E2C5
:1039500052E4F60164817581868197810E94D13B92
:1039600018162CF46CEA79E0C3010E946F05F5018A
:1039700082809380C480D58063E975E087EF98E00A
:10398000DBDCF401828193810E949828F401848118
:1039900095810E949828F40186819781009719F0FB
:1039A0000E94B73403C060E070E0CB010E94C427DE
:1039B000C4010C960E94AF27F601828193810E9478
:1039C0009828F601848195810E949828F6018681C5
:1039D0009781009719F00E94B73403C060E070E04F
:1039E000CB010E94C427C6010C960E94AF27F501A7
:1039F00062817381CE0101960E94CF284C01F501AE
:103A000064817581CE0101960E94CF285C01CE01B0
:103A100001960E94BF056C01A40165EB75E00E9450
:103A20001309A50169EB75E0C6010E941309F801AD
:103A300080819181009719F40E94AD0508C00E9411
:103A4000BF05AC016EEB75E0C8010E941309A60129
:103A50006EEB75E0C8010E9413096EEC74E0C701BB
:103A60004CDAFE01EB59FD4FF182E082CF59DD4F78
:103A7000F983E883C156D240CD59DD4F19821882AF
:103A8000C356D240BE016F597D4FC8010E94D30575
:103A9000F701448155816081718187EF98E00E9430
:103AA000CD14C701CA59DD4F0FB6F894DEBF0FBE63
:103AB000CDBFDF91CF911F910F91FF90EF90DF90DD
:103AC000CF90BF90AF909F908F907F906F905F90BE
:103AD0004F900895FC0101900020E9F731979F0174
:103AE000281B390BE091C009F091C109E21BF30BCF
:103AF0004091BC095091BD09E417F50730F460917D
:103B0000BA097091BB09E60FF71F280F391F6091A2
:103B1000BE097091BF09DC018217930758F4019622
:103B2000BC91A081BA1308C03196E617F70799F740
:103B3000FA01F1CF81E0089580E00895CF93DF93FB
:103B4000EC0181E00E94D40EBE0180917407909137
:103B5000750702DC41E060E070E088EE93E0DF9101
:103B6000CF910C94EF0EEF92FF920F931F93CF9390
:103B7000DF931F921F92CDB7DEB77C01162F072F60
:103B80006CE873E087EF98E049835A83F5DB61E1E5
:103B900073E087EF98E009DB6AEE73E087EF98E067
:103BA000EBDB612F702F87EF98E0C6DBE9E0F2E0F6
:103BB00023E030E05A81498192918291019621F06F
:103BC00021503109C8F72FEFF70124872F3F21F14A
:103BD0005F934F930F931F931F922F9383E18F93C4
:103BE00088E88F9384EF92E09F938F930E946710F1
:103BF0000FB6F894DEBF0FBECDBF892BB9F4F70125
:103C0000848590E0FC01EE0FFF1FEF5FFD4F918375
:103C1000808381E090E00CC06CE873E087EF98E06F
:103C2000ABDB60EE72E087EF98E096DB80E090E03F
:103C30000F900F90DF91CF911F910F91FF90EF9018
:103C400008952F923F924F925F926F927F928F9240
:103C50009F92AF92BF92CF92DF92EF92FF920F931B
:103C60001F93CF93DF93CDB7DEB7C354D1090FB6FF
:103C7000F894DEBF0FBECDBF3C014B017A011E8A16
:103C80001D8A88EE93E0A0E0B0E08F8B988FA98F1B
:103C9000BA8F8DEF92E09C8B8B8B8FEF8F8FFA0119
:103CA0004085518562817381CE0143960E947E0ECC
:103CB000892B49F463EC75E087EF98E03DDB24E65F
:103CC000A22EB12C6FC196E0C92ED12C8E010F5FB0
:103CD0001F4FC701029624969FAF8EAF2497E7E24D
:103CE000F3E0FA83E983F401828193819C838B83DF
:103CF000848195819E838D83A801B301CE01CC96EA
:103D000074DD85EF92E099A388A324966EAD7FAD14
:103D10002497CE018296E9D8F7018085918599A7ED
:103D200088A71BA61AA61DA61CA61FA61EA64AE0AB
:103D3000B8010E941535F80101900020E9F731978C
:103D4000AF01401B510BB801CE018A9655D8BE0178
:103D50006E5D7F4FC801C9D86DE674E0C80124D8F4
:103D6000BE01665D7F4F37D8BC01CE01C696BDD877
:103D7000C80176D8CE018A9673D822964EAC5FAC35
:103D800022976EED75E0CE018A96B7D8BE01665DCA
:103D90007F4FCE01C096A9D864EE75E0CE01C096E3
:103DA00003D86BEE75E000D867EF75E00E94D4167B
:103DB000BE016A5C7F4F0FD864EF75E00E94D41695
:103DC0006EEF75E00E94D4166FE176E00E94D41683
:103DD0005C014AE0B801C2010E943C35F801019043
:103DE0000020E9F73197AF01401B510BB801C50125
:103DF0000E948216811103C0C5010E94C21664EFA1
:103E000075E0C5010E94D41664EF75E00E94D416D7
:103E1000BE01645C7F4F0E94EB1665EF75E00E9467
:103E2000D416FC014481558160817181CE01439695
:103E30000E94AC0FCE01C09613D8CE018A9610D83E
:103E4000CE01CC960E94AF27CE01C69609D8CE01EE
:103E5000809623D860EA7FE080E090E00E945B2AB1
:103E6000CE0143961FD2892B09F489C06EEC74E011
:103E7000CE01809642D8CE01439660D997FD09C005
:103E80008D30910531F0682FCE0180960E94AF16DB
:103E9000F2CF60E376E0C80130D8BE01605E7F4FAC
:103EA000C8010E94EB160E94AF27C8010E9430177C
:103EB000ACA0BDA0A114B10461F028A039A060E2BB
:103EC00070E0C1010E944F3E009719F082199309DA
:103ED00002C08FEF9FEF2C01FFEF4F1A5F0AA4146F
:103EE000B50428F4942D852D2501A92EB82E6EEC4D
:103EF00074E0C80102D88CA19DA14816590630F57E
:103F00008A159B0508F45C01E8A1F9A1EA0DFB1DE7
:103F10003080108268A179A1640D751D611571054D
:103F200061F0FB0101900020E9F73197AF01461BDA
:103F3000570BC8010E94FC1603C0C8010E94C2169C
:103F400088A199A1FC01EA0DFB1D3082C8010E94E5
:103F5000AF2789819A81009719F00E94D73403C056
:103F600060E070E0CB015B01CE01439684D1C801D3
:103F70000E943017CE0180960E94301703C084E65D
:103F8000A82EB12CCE014396FAD1CE01CC960E9438
:103F9000301721E0C21AD10829F088ECA816B10424
:103FA00009F09DCE81E098ECA916B10409F080E0FB
:103FB000CD5BDF4F0FB6F894DEBF0FBECDBFDF91F4
:103FC000CF911F910F91FF90EF90DF90CF90BF9016
:103FD000AF909F908F907F906F905F904F903F90A9
:103FE0002F900895CF93DF93CDB7DEB728970FB604
:103FF000F894DEBF0FBECDBF28E0E9EEF2E0DE01AF
:10400000119601900D922A95E1F7FC012085261763
:1040100010F46FEF620FFE013196E60FF11DE60F0F
:10402000F11D6081606840E028960FB6F894DEBF0D
:104030000FBECDBFDF91CF9187C4CF92DF92EF92B9
:10404000FF920F931F93CF93DF93EC016A017B01E3
:10405000E889F98982E080834115514E6105710537
:10406000B1F060E079E08DE390E0A70196010E9455
:10407000003B89019A010150110921093109369546
:10408000279517950795980101151041A8F0E88923
:10409000F989108260E874E88EE190E0A70196014A
:1040A0000E94003BDA01C9010197A109B109B69547
:1040B000A795979587959C01EC85FD853083EE85C6
:1040C000FF852083188EEC89FD8986E08083EA894C
:1040D000FB89808180618083EA89FB898081886097
:1040E0008083EA89FB89808180688083EA89FB89F3
:1040F00080818F7D8083DF91CF911F910F91FF9001
:10410000EF90DF90CF900895AF92BF92CF92DF9261
:10411000EF92FF921F93CF93DF9300D01F92CDB702
:10412000DEB75C01C5010E946E18FC0197FD0FC04F
:104130008D32910581F0C0970A9768F0D501ED9115
:10414000FC910284F385E02DC5011995EBCF60E069
:1041500070E0CB014AC020E030E0A90110E0E1307E
:10416000F105E9F0ED32F105C9F0CF01C0970A97EA
:10417000B0F4AAE0B0E00E94223B6F01FF0FEE080E
:10418000FF08DC01CB018C0D9D1DAE1DBF1D9C01E8
:10419000AD01205331094109510901C011E0D50198
:1041A000ED91FC910284F385E02DC50129833A83CA
:1041B0004B835C831995C5010E946E18FC01C09762
:1041C00029813A814B815C810A9748F2E130F105FF
:1041D00031F2112341F066277727CB01621B730B65
:1041E000840B950B02C0CA01B9010F900F900F907C
:1041F0000F90DF91CF911F91FF90EF90DF90CF90C4
:10420000BF90AF9008950895FC0190810180F281E4
:10421000E02D892F809560FF12C0F89422818223BF
:1042200082838181892B8183A3E2B0E01197F1F72A
:104230008281982B9283789487ED90E011C0F89456
:104240002281822382838181892B8183AFEFB0E039
:104250001197F1F78281982B928378948FE090E008
:104260000197F1F7089521E0FC0184858F3F09F45F
:1042700020E0822F0895CF93DF93EC01E881F9814C
:104280000084F185E02DCE011995892B41F0E8815C
:10429000F9810284F385E02DCE011995EFCFDF91EE
:1042A000CF910895FC0184858F3F21F00E948411F5
:1042B00097FF02C080E090E00895CF92DF92EF92E6
:1042C000FF920F931F93CF93DF93CDB7DEB76E9717
:1042D0000FB6F894DEBF0FBECDBFFC0184858F3FC3
:1042E000D1F17F010E948411892B11F094E034C038
:1042F000D7011C968C911F928F938AE493E09F9331
:104300008F93FE0131966F01FF93EF930E94553515
:104310000AE010E09E012B5E3F4F4DE055E0B601F4
:104320008DE393E00E94A0100F900F900F900F90DC
:104330000F900F908111DACFD7011C96EC911C974A
:10434000F0E0EE0FFF1FEF5FFD4F8FEF9FEF9183C8
:1043500080831C968C9390E081E0943009F080E09B
:104360006E960FB6F894DEBF0FBECDBFDF91CF9132
:104370001F910F91FF90EF90DF90CF900895CF9312
:10438000DF93FC0124852F3FF1F1EC016CE873E031
:1043900087EF98E00E94BC196EE273E087EF98E027
:1043A0000E94D5186AEE73E087EF98E00E94BC196E
:1043B0004C8550E060E070E02AE087EF98E00E94D2
:1043C0000E1987EF98E00E9499198C851F928F93A0
:1043D0008FE08F9380EA8F938FE193E09F938F9389
:1043E0000E946710EC85F0E0EE0FFF1FEF5FFD4FBE
:1043F0008FEF9FEF918380838C870F900F900F90AA
:104400000F900F900F90DF91CF9108950F931F930E
:10441000CF93DF931F921F92CDB7DEB78C01DC01E3
:10442000ED91FC910084F185E02D1995892B29F1FE
:104430001982F801848590911C0A891309C09E0194
:104440002F5F3F4F40E0BE016E5F7F4F0E949F2A6B
:104450008981882379F0D8011C96EC911C97F0E0B3
:10446000EE0FFF1FEF5FFD4F8FEF9FEF9183808374
:104470001C968C938A8190E002C08FEF9FEF0F9083
:104480000F90DF91CF911F910F9108950F931F937C
:10449000CF93DF931F921F92CDB7DEB78C01DC0163
:1044A000ED91FC910084F185E02D1995892B29F17E
:1044B0001982F801848590911C0A891309C09E0114
:1044C0002F5F3F4F41E0BE016E5F7F4F0E949F2AEA
:1044D0008981882379F0D8011C96EC911C97F0E033
:1044E000EE0FFF1FEF5FFD4F8FEF9FEF91838083F4
:1044F0001C968C938A8190E002C08FEF9FEF0F9003
:104500000F90DF91CF911F910F9108958F929F92FD
:10451000AF92BF92CF92DF92EF92FF920F931F93D1
:10452000CF93DF931F921F92CDB7DEB77C018A0134
:10453000DC01ED91FC910084F185E02D69837A83A3
:10454000199569817A81892B19F48FEF9FEF56C0F5
:10455000F701948580911C0A98134EC080911D0A22
:1045600090911E0AA0911F0AB091200A4801A12C27
:10457000B12C88159905AA05BB050CF48C016B01BB
:104580007B01E00EF11ECE14DF04A1F1CCD74B016C
:104590005C018091740790917507DC01ED91FC91AD
:1045A0000284F385E02D199597FF0DC0BCD7DC017F
:1045B000CB0188199909AA09BB09883E9340A10536
:1045C000B10538F3C2CFD6018D936D0180911D0ADC
:1045D00090911E0AA0911F0AB091200A0197A1098B
:1045E000B10980931D0A90931E0AA0931F0AB093ED
:1045F000200AC9CFC80102C080E090E00F900F9060
:10460000DF91CF911F910F91FF90EF90DF90CF90AE
:10461000BF90AF909F908F9008955F926F927F921E
:104620008F929F92AF92BF92CF92DF92EF92FF92C2
:104630000F931F93CF93DF9300D000D0CDB7DEB799
:104640005C018B017B0122E0E20EF11CB701CE017F
:1046500001960E9475178D819E810E942A3C982E9A
:10466000892E6401CE0101960E943017B701CE0158
:1046700001960E9475178A818F9389818F938AE3AF
:10468000E82E86E0F82EFF92EF928F929F920E9482
:10469000793ECE0101960E943017085F1F4FB80186
:1046A000CE0101960E9475178D819E810E942A3C41
:1046B000782E692E4301CE0101960E943017B80171
:1046C000CE0101960E9475178A818F9389818F93FD
:1046D000FF92EF926F927F920E94793ECE010196F7
:1046E0000E943017F5010281138160E0F801828198
:1046F000938178DC6EE376E0F801828193810E94F9
:10470000BC190FB6F894DEBF0FBECDBFE12CF12C63
:10471000772473949EE4692E20E2522E3BE7A32E69
:1047200034E0B32E6FE476E087EF98E00E949C19A6
:104730007092BC078F929F92CF92DF926F925F929E
:10474000BF92AF920E9467100FB6F894DEBF0FBE03
:10475000CDBF6CE873E0892BC9F487EF98E00E9425
:10476000BC1969E574E087EF98E00E94D5186AEEFD
:1047700073E087EF98E00E94BC196D2D7C2D87EFC8
:1047800098E00E949C1901E010E020C087EF98E0BB
:104790000E94BC1966E674E087EF98E00E94D51885
:1047A0006AEE73E087EF98E00E94BC196D2D7C2DB6
:1047B00087EF98E00E949C1968EE73E080E090E03B
:1047C0007AD680E00E94D40E02E010E064E670E049
:1047D00080E090E070D6FFEFEF1AFF0A6AE576E01E
:1047E00087EF98E00E94BC19C701A2D463E676E087
:1047F00087EF98E00E94BC1981E090E0013011053C
:1048000011F080E090E094D40130110539F023E0FC
:10481000E216F10409F086CF02E010E081E00130F9
:10482000110509F080E026960FB6F894DEBF0FBEA2
:10483000CDBFDF91CF911F910F91FF90EF90DF904F
:10484000CF90BF90AF909F908F907F906F905F9030
:104850000895CF93FC01C48121E020939A07C0936F
:10486000BB071092D2061092D1068385682B84E98B
:1048700099E00E940F0E8091D106813208F046C067
:104880009091D0069111FCCF92E09093D00691E0E8
:104890009093CF069FEF909399071092980780937B
:1048A0009707ABE9B7E027E737E0F9019E2F921BA6
:1048B000981718F49D919193F9CF109276078091F3
:1048C0007607CC0FC82BC09376078091CE06813037
:1048D00061F41092CE06809176078093BB008091A0
:1048E000BC0083FDF8CF85EC01C085EE8093BC0051
:1048F0008091D0068230E1F3809199078F3F31F0AB
:1049000080919907803211F0809199071092D20618
:104910001092D10610929A07CF9108950F931F938A
:10492000CF938C01C62F95DF6C2F6460C80191DF97
:104930006C2F6B7FC8018DDF83EC90E00197F1F75E
:10494000CF911F910F9108950F931F93CF93DF93F2
:104950008C01D62FC42F607F642BE0DF6D2F629512
:10496000607F6C2BC801DF91CF911F910F91D6CF43
:1049700041E0EADF81E090E0089540E061E0E4DFBB
:104980008BE39FE10197F1F70895DC01E0E06150CE
:1049900038F08D91E827F0E0E75AFC4FE491F7CF2B
:1049A0008E2F0895CF92DF92EF92FF920F931F9375
:1049B000CF93DF931F92CDB7DEB76C01E62E08E0F0
:1049C00010E0FF24F39461E08F2D8E2109F460E064
:1049D000C601498319DCFF0C0150110949810115F9
:1049E000110589F7411115C0F894D6011196ED9182
:1049F000FC91129791818C918095892381831196E6
:104A0000ED91FC91129792818C91809589238283FC
:104A100078940F90DF91CF911F910F91FF90EF90BD
:104A2000DF90CF900895CF92DF92EF92FF920F9395
:104A30001F93CF93DF931F92CDB7DEB78C01F62E75
:104A400040E065E57983AEDFCF2C7981D72E760102
:104A500088E0E80EF11CF60161916F0140E0C801A9
:104A6000A1DFCE14DF04B9F70F90DF91CF911F9132
:104A70000F91FF90EF90DF90CF900895FC0190810F
:104A80000180F281E02DF8948181892B818322813C
:104A9000892F809528232283A7E0B0E01197F1F7B2
:104AA000218182238183A3E2B0E01197F1F7808115
:104AB0007894EFECF0E03197F1F7982381E009F476
:104AC00080E00895FC0190810180F281E02DF8944E
:104AD0008181292F20958223818378948DE743E07B
:104AE00050E0815021F1DA011197F1F7308139233B
:104AF000C1F3F8948281822382838181892B81830F
:104B00007894ABE7B7E01197F1F7F8948181282307
:104B10002183A3E1B1E01197F1F78081982381E02F
:104B200009F080E07894E3E6F6E03197F1F7089534
:104B30006F927F928F929F92AF92BF92CF92DF92AD
:104B4000EF92FF920F931F93CF93DF931F921F92C9
:104B5000CDB7DEB78C017A01FC018581968169832E
:104B60007A83B0DF69817A81882371F1F8018581C8
:104B7000968159DF40E06EEBF8018581968112DF66
:104B800037015701F9E0AF0EB11CF801858096801E
:104B900088E0C82ED12CEE24E394F12CC4016EDF02
:104BA0008111FE28EE0CF1E0CF1AD108B9F7F3011C
:104BB000F1923F01EA15FB0541F7F80185819681E5
:104BC00081DF91E0813009F090E0892F0F900F9004
:104BD000DF91CF911F910F91FF90EF90DF90CF90D9
:104BE000BF90AF909F908F907F906F900895CF93DC
:104BF000DF93CDB7DEB729970FB6F894DEBF0FBEAF
:104C0000CDBFFB012081203109F1AE014F5F5F4F25
:104C10008FDF882371F068E0CE010196B6DE9985BA
:104C2000891307C008C0803458F08F3569F08F377A
:104C300069F080E00CC08D818F33A9F78AE007C04E
:104C40008F31B9F789E003C08BE001C08CE0299671
:104C50000FB6F894DEBF0FBECDBFDF91CF910895A0
:104C6000AF92BF92CF92DF92EF92FF920F931F937A
:104C7000CF93DF931F92CDB7DEB75C01E62ED72E20
:104C8000FC018585811158C0C5011CDF811105C05B
:104C9000F50113861586148667C040E060EFC501F4
:104CA00081DE01E0F12CC12C11E0C501E7DE682FA7
:104CB000C5016983E3DE6981613019F48130B9F49B
:104CC00032C04F2D50E068131BC0F50183851817C3
:104CD00030F4E40FF51F8381802349F402C01817D4
:104CE00031F060E0193058F4F501148708C0F5017F
:104CF000EF0DF11D8381802B838361E009C0C12EFC
:104D0000F501E40FF51F9381802F8095892383831C
:104D1000C5017ADA1F5F000F11F4F39401E0F7E0A8
:104D2000FF1508F0C2CF113438F0F501C386C11069
:104D300015C081E0858712C0F5011386158614869B
:104D400080E0D5011396EE2DFD2D9501255F3F4F97
:104D50009D919193A217B307D9F706C0F5018381FE
:104D6000882351F381E0EDCF0F90DF91CF911F9118
:104D70000F91FF90EF90DF90CF90BF90AF9008958C
:104D8000CF93DF93EC016EEC74E00E947D178AE50F
:104D900098E00E949E1897FD05C0682FCE010E94E2
:104DA000AF16F5CFCE01DF91CF9108959F92AF92CC
:104DB000BF92CF92DF92EF92FF920F931F93CF9308
:104DC000DF93CDB7DEB727970FB6F894DEBF0FBEDF
:104DD000CDBFFC019681992309F4ADC07B018F0101
:104DE000915096836F0182E0C80ED11CC6010E94CB
:104DF0006D14D8011296ED91FC91139780818B353B
:104E000021F08B3709F45DC070C0F8018081918179
:104E10000E948A055C016BE5C6010E94AF148823DD
:104E200059F16DE5C6010E94AF14811135C086E0CD
:104E3000982E1A821982BE016F5F7F4FC801B6DFBC
:104E40008823D1F0C5010E944D050097A9F0FE010D
:104E50003196DC011296892D01900D928A95E1F729
:104E60006DE5C6010E94AF14811116C06CE2C60147
:104E70000E94AF148111DDCF8091140A81110EC000
:104E80001092110A1092100A1092130A1092120A2C
:104E900081E08093140A02C0F50102C0E0E1FAE06B
:104EA00080819181892B11F420E040C086E090E060
:104EB000D70111969C938E931396FC93EE931297C1
:104EC00012C0C8010E944B08FC0120813181232BB4
:104ED00059F327E030E0D70111963C932E931396B7
:104EE0009C938E93129721E021C021E0873219F024
:104EF000823209F020E0C8012F830E9433042F8101
:104F0000009791F2222341F042E050E0F7015183F3
:104F10004083938382830AC021E030E0D701119659
:104F20003C932E9313969C938E931297F80186814F
:104F30008F5F868301C020E0822F27960FB6F894FA
:104F4000DEBF0FBECDBFDF91CF911F910F91FF90BC
:104F5000EF90DF90CF90BF90AF909F900895CF9348
:104F6000DF93FC01448155816081718187EF98E076
:104F70000E94CD14EC0187EF98E00E9499198C0FE4
:104F80009D1FDF91CF9108954F925F926F927F9214
:104F90008F929F92AF92BF92CF92DF92EF92FF9249
:104FA0006B017C019B01AC010E94D53B882319F069
:104FB00062EB76E01AC046015701E894B7F82FEF8C
:104FC0003FEF4FE75FE7C501B4010E94D53B811178
:104FD00012C02FEF3FEF4FE75FE7C501B4010E941A
:104FE000E739181644F466EB76E087EF98E00E9404
:104FF000F9187C018AC02FEF3FEF4FE75FE4C7014C
:10500000B6010E94D13B18161CF46AEB76E0EDCF96
:105010002FEF3FEF4FE75FECC701B6010E94E73982
:1050200087FDF3CF20E030E0A901C701B6010E945F
:10503000E73987FF0BC06DE287EF98E00E94CE183A
:105040005C01F7FAF094F7F8F09402C0A12CB12CAF
:105050002AE037ED43EA5BE3C701B6010E943C3B1F
:105060002B013C010E94A53B6B017C010E94EB39A6
:105070009B01AC01C301B2010E943B3B2B013C01EF
:105080002AE0B701A60187EF98E00E940E197C0183
:10509000EA0CFB1C6EE287EF98E00E94CE18E80E47
:1050A000F91E20E030E040E251E4C301B2010E9469
:1050B0004C3A2B013C010E94A53B4B01A12CB12C89
:1050C0002AE0B501A40187EF98E00E940E19E80ECE
:1050D000F91EC501B4010E94EB399B01AC01C3016B
:1050E000B2010E943B3B20E030E040E251E40E94EC
:1050F0004C3A0E94A53BAB0160E070E02AE087EFEC
:1051000098E00E940E19E80EF91E87EF98E00E94C1
:1051100099198E0D9F1DFF90EF90DF90CF90BF905B
:10512000AF909F908F907F906F905F904F90089579
:10513000CF92DF92EF92FF92CF93DF936C01990FA2
:10514000EE08FF08F7FE16C06DE287EF98E00E94B8
:10515000CE18EC0144275527BA014C195D096E0998
:105160007F092AE087EF98E00E940E197C01EC0E7F
:10517000FD1E08C02AE0B701A60187EF98E00E9453
:105180000E197C0187EF98E00E9499198E0D9F1DE2
:10519000DF91CF91FF90EF90DF90CF9008958F92A5
:1051A0009F92AF92BF92EF92FF920F931F93CF9374
:1051B000DF931F921F92CDB7DEB77B010E94BF0520
:1051C0008C01F701828193819A838983AE014F5FBD
:1051D0005F4F60ED73E0C8010E944309F7018481CD
:1051E00095819A838983AE014F5F5F4F6EEB76E0C6
:1051F000C8010E944309F70186819781009729F031
:105200000E94B7344B015C0103C0812C912C5401E6
:105210006CE376E0C8010E943008009751F4C801A1
:105220000E94E804009771F02CE336E0FC01338320
:10523000228328E030E0FC01358324838682978234
:10524000A086B186FCE0EF0EF11C60EC76E0C801B0
:105250000E943008009751F4C8010E94E8040097AA
:1052600071F020EC36E0FC0133832283BC016C5FDB
:105270007F4FA701F801808191810E940A05C80132
:105280000F900F90DF91CF911F910F91FF90EF90B2
:10529000BF90AF909F908F90089590E0FC01319760
:1052A000E231F10508F04EC08827E658FF4F8F4FD6
:1052B0000C94083C809180008F7703C0809180001F
:1052C0008F7D80938000089580918000877FF9CF43
:1052D00084B58F7702C084B58F7D84BD0895809199
:1052E000B0008F7703C08091B0008F7D8093B000B5
:1052F0000895809190008F7707C0809190008F7DF6
:1053000003C080919000877F8093900008958091E2
:10531000A0008F7707C08091A0008F7D03C080918F
:10532000A000877F8093A0000895809120018F774F
:1053300007C0809120018F7D03C080912001877F6D
:105340008093200108953FB7F8948091260A9091A8
:10535000270AA091280AB091290A26B5A89B05C062
:105360002F3F19F00196A11DB11D3FBFBA2FA92FE4
:10537000982F8827820F911DA11DB11DBC01CD0161
:1053800042E0660F771F881F991F4A95D1F708954D
:10539000CF93DF93282F30E0F901E459FA4F84913D
:1053A000F901EA5DFA4FD491F901E052FB4FC49143
:1053B000CC2389F0811171DFEC2FF0E0EE0FFF1F9D
:1053C000EA53FB4FA591B491EC91ED2381E090E07D
:1053D00021F480E002C080E090E0DF91CF91089559
:1053E0001F93CF93DF93282F30E0F901E459FA4F50
:1053F0008491F901EA5DFA4FD491F901E052FB4F33
:10540000C491CC23C1F0162F811147DFEC2FF0E0BF
:10541000EE0FFF1FE455FB4FA591B4918FB7F894A1
:10542000111105C09C91ED2FE095E92302C0EC918C
:10543000ED2BEC938FBFDF91CF911F910895CF9308
:10544000DF9390E0FC01EA5DFA4F2491FC01E05209
:10545000FB4F8491882361F190E0880F991FFC0134
:10546000EE56FB4FC591D491FC01E455FB4FA5913D
:10547000B491611109C09FB7F89488812095822367
:105480008883EC912E230BC0623061F49FB7F894AF
:105490003881822F809583238883EC912E2B2C9347
:1054A0009FBF06C08FB7F894E8812E2B28838FBF4B
:1054B000DF91CF9108958F929F92AF92BF92CF923A
:1054C000DF92EF92FF926B017C013DDF4B015C01AB
:1054D000C114D104E104F104E9F035DFDC01CB01B2
:1054E00088199909AA09BB09883E9340A105B1050D
:1054F00078F321E0C21AD108E108F10888EE880E9D
:1055000083E0981EA11CB11CC114D104E104F10474
:1055100021F7DECFFF90EF90DF90CF90BF90AF905C
:105520009F908F9008952FB7F8946091220A709100
:10553000230A8091240A9091250A2FBF08958F9203
:105540009F92AF92BF92CF92DF92EF92FF92CF9352
:10555000DF93F82EEB01E42E6901E5DF4B015C01DE
:105560008091740790917507DC01ED91FC910084A6
:10557000F185E02D1995892B09F472C0809174078B
:1055800090917507DC01ED91FC91EE2031F00484DF
:10559000F585E02D1995888318C00284F385E02DE8
:1055A0001995888380911D0A90911E0AA0911F0A67
:1055B000B091200A0197A109B10980931D0A909327
:1055C0001E0AA0931F0AB093200A80911D0A909191
:1055D0001E0AA0911F0AB091200A892B8A2B8B2BBF
:1055E00011F081E08BC065E070E080E090E063DF67
:1055F0008091740790917507DC01ED91FC91008416
:10560000F185E02D1995892B61F3809174079091B4
:105610007507DC01ED91FC910484F585E02D199569
:105620002F2D30E0205D3F4F82179307D1F640E0E9
:1056300063EC76E084EF91E00E94EF0E059761F055
:105640006CE873E087EF98E00E94BC196BEB75E0A3
:1056500087EF98E00E94AC1981E0F60180834EC08C
:1056600062DFDC01CB0188199909AA09BB09803DD9
:105670009740A105B10508F473CF6CE873E087EF9C
:1056800098E00E94BC1962EB75E087EF98E00E94F9
:10569000D5186AEE73E087EF98E00E94BC19C090BD
:1056A0001D0AD0901E0AE0901F0AF090200AF7FE13
:1056B0000EC06DE287EF98E00E94CE184427552770
:1056C000BA014C195D096E097F092AE003C02AE07E
:1056D000B701A60187EF98E00E940E1987EF98E0C6
:1056E0000E94991910921D0A10921E0A10921F0A08
:1056F0001092200A10921C0A188280E0DF91CF914C
:10570000FF90EF90DF90CF90BF90AF909F908F90E1
:1057100008951F920F920FB60F9211242F933F936B
:105720008F939F93AF93BF938091220A9091230A06
:10573000A091240AB091250A3091210A23E0230F79
:105740002D3720F40196A11DB11D05C026E8230FB9
:105750000296A11DB11D2093210A8093220A9093E5
:10576000230AA093240AB093250A8091260A9091D7
:10577000270AA091280AB091290A0196A11DB11DFE
:105780008093260A9093270AA093280AB093290AA7
:10579000BF91AF919F918F913F912F910F900FBE2D
:1057A0000F901F901895CF93DF93CDB7DEB7E0979A
:1057B0000FB6F894DEBF0FBECDBF789484B582607B
:1057C00084BD84B5816084BD85B5826085BD85B5A5
:1057D000816085BD80916E00816080936E00109223
:1057E000810080918100826080938100809181009E
:1057F000816080938100809180008160809380002F
:105800008091B10084608093B1008091B00081608C
:105810008093B0008091910082608093910080918C
:1058200091008160809391008091900081608093CD
:1058300090008091A10082608093A1008091A100DE
:1058400081608093A1008091A00081608093A0007E
:1058500080912101826080932101809121018160EA
:1058600080932101809120018160809320018091AB
:105870007A00846080937A0080917A0082608093BD
:105880007A0080917A00816080937A0080917A001A
:10589000806880937A001092C10086E090E00E94B8
:1058A0002A3C7C0183E192E0D70111969C938E9370
:1058B00080E490E013969C938E93129789E290E097
:1058C00015969C938E93149760E0B9DD60E080E4B8
:1058D000B6DDF092D906E092D80686E090E00E940C
:1058E0002A3C8C018BE192E0F8019183808381E472
:1058F00090E09383828387E290E09583848360E0E5
:105900009EDD60E081E49BDD1093D7060093D60610
:1059100084E090E00E942A3C6C0183E292E0D60190
:105920008D939C938EE090E00E942A3C5C0160E0A5
:1059300086E385DDECE5F5E0E491D501EC93E6E165
:10594000F5E0E491F0E0EE0FFF1FEA53FB4F859185
:105950009491F501928381831386158614863B9674
:10596000C50103961292E817F907E1F783E190E089
:105970000E942A3CFC0183E091E2928B818BB682EB
:10598000A5821482108289E08183BB24B394B28201
:10599000B382D6011396FC93EE931297D092E10650
:1059A000C092E00688E090E00E942A3CFC018BE275
:1059B00092E091838083F782E68215830483D38209
:1059C000C282F093F006E093EF0640E855E260E013
:1059D00070E087EF98E00E941D2040E855E260E00B
:1059E00070E08AE598E00E941D2040E052EC61E002
:1059F00070E08DEB97E00E941D208CE090E00E940B
:105A00002A3C8C01FC011382128283E392E0918391
:105A1000808387E2848380E1818782E082871386A6
:105A200084E090E00E942A3C7C018FE392E0D70161
:105A300011969C938E9313961C930E931297F0924B
:105A4000E606E092E50684E090E00E942A3C8C01A4
:105A500087E492E0F8019183808382E090E0938371
:105A6000828361E0ECDC1093EC060093EB0684E0AB
:105A700090E00E942A3C2FE432E0DC0111963C9336
:105A80002E931396FC92EE9212979093EA068093CF
:105A9000E90682E090E00E942A3C8C018FE592E0CA
:105AA000F8019183808384E090E00E942A3CFC010D
:105AB00087E592E09183808313830283F093E80665
:105AC000E093E706D70112960D911C91139710925F
:105AD000D4061092D3061092D2061092D1061092DC
