:10000000B1C10000E0C10000DEC10000DCC10000A1
:10001000DAC10000D8C10000D6C10000D4C1000080
:10002000D2C10000D0C10000CEC10000CCC1000090
:10003000CAC100000C943E14C6C10000C4C1000037
:10004000C2C10000C0C10000BEC10000BCC10000B0
:10005000BAC10000B8C10000B6C100000C94ED1890
:10006000B2C100000C94C5160C949C16ACC10000E3
:10007000AAC10000A8C10000A6C10000A4C10000E0
:10008000A2C10000A0C100009EC100009CC10000F0
:100090000C9473160C944A1696C10000D2C5000049
:1000A00092C1000090C100008EC100008CC1000010
:1000B0008AC1000088C1000086C1000084C1000020
:1000C00082C1000080C100007EC100000C94211696
:1000D0000C94F81578C1000076C1000074C10000CE
:1000E00072C10000AD0CA70CBD0CB50CB20C620CBB
:1000F0007F0C290C5B185E184D185118551895186F
:10010000621866186C18701874187A187E1882189D
:10011000951888188C1890183E3E3E2054494D453D
:100120004F5554203E3E3E00456E6420746167206A
:100130006E6F7420666F756E64004E6F2074616719
:1001400020666F756E64000D0A0053444B2076657F
:100150007273696F6E3A0041542B474D52004154FF
:100160002B4357444843503D312C310041542B43DD
:10017000574155544F434F4E4E3D300041542B4351
:10018000495044494E464F3D310041542B4349505C
:100190004D55583D310041542B43574D4F44453D3B
:1001A0003100415445300041542B52535400496EA4
:1001B0006974696C697A6174696F6E2073756363C1
:1001C00065737366756C202D005761726E696E677A
:1001D0003A20556E737570706F727465642066692D
:1001E000726D776172650043616E6E6F7420696E27
:1001F000697469616C697A6520455350206D6F643C
:10020000756C6500415400496E697469616C697A66
:10021000696E6720455350206D6F64756C650043AF
:100220006F6E6E656374656420746F004661696CFF
:10023000656420636F6E6E656374696E6720746FAA
:100240000041542B43574A41505F4355523D2225AC
:1002500073222C2225732200000022002500280092
:100260002B002E00310034000201000005010801BE
:100270000B0100002100240027002A002D0030007F
:10028000330001010000040107010A01050505050D
:10029000070508080808020202020A0A08080404FE
:1002A000040401010101010101010303030303032C
:1002B0000303040707070C0C0C0C0C0C0C0C0202BB
:1002C000020206060606060606060B0B0B0B0B0BB8
:1002D0000B0B010210202008081020401020408045
:1002E00002010201080402010102040810204080FA
:1002F0008040201008040201800402018040201088
:1003000008040201080402010102040810204080D0
:1003100001020408102040800200000A0B02090CB0
:100320000D0E08070304010000000000000000009B
:1003300000000000000000000000000000000000BD
:10034000000000000012111000000000000000007A
:10035000000000000000000000000000000000009D
:10036000691E611E11241FBECFEFD1E2DEBFCDBFDB
:1003700000E00CBF27E0A6E5B4E001C01D92A7375E
:10038000B207E1F714E0A0E0B2E0E6E1FEE400E04D
:100390000BBF02C007900D92A635B107D9F711E047
:1003A000C1EBD1E000E006C021970109802FFE01DA
:1003B0000E946524C03BD10780E00807A9F70E948E
:1003C00037190C94FA261CCE089581E090E0309104
:1003D000180520911705321710F480E090E09195F0
:1003E00081959109089580911805909117058917B5
:1003F00030F48F5F8093180580E090E008958FEFD0
:100400009FEF08958091170590E020911805821BB9
:1004100091090895089580E090E0089585ED809316
:10042000BC008091BC0084FDFCCF1092140508959F
:1004300040919B04262F30E0240F311D21323105DD
:10044000DCF4209114052430C9F4FC0180E090E034
:10045000861758F430919B042191DC01A758BB4FBB
:10046000A30FB11D2C930196F3CF80919B04680FCD
:1004700060939B0480E0089581E0089582E00895F0
:10048000CF92DF92EF92FF920F931F93CF93DF9360
:100490007C01262F972F8A018091E404882391F014
:1004A000C62FD72F6E01C40ED51ECC15DD0569F001
:1004B0006991D701ED91FC910190F081E02DC70188
:1004C0001995F3CF642F822FB3DFC801DF91CF914D
:1004D0001F910F91FF90EF90DF90CF900895CF93F1
:1004E000DF931F92CDB7DEB769832091E404222306
:1004F000D1F020911505203240F021E030E0FC01E0
:100500003383228380E090E014C080911605E82FA9
:10051000F0E0EB51FB4F998190838F5F809316053C
:100520008093150504C061E0CE01019681DF81E072
:1005300090E00F90DF91CF9108950C941C250C94BE
:100540001C250C941C250C941C250C941C25EF9246
:10055000FF921F93CF93DF9300D000D0CDB7DEB7CB
:100560007C01DC0114968D919C9115979A83898367
:100570001C821B821E821D82C70102960E94D10F1F
:10058000D7011296ED91FC9113971081173239F132
:10059000123229F180ED810F8A3078F081EA810FE3
:1005A0008C3158F08FEB810F8A3138F01B3229F0F3
:1005B00083ED810F823008F044C0F701828193817E
:1005C000019693838283612FCE0101960E947C0F56
:1005D000D7011296ED91FC9113971081DBCF3196E4
:1005E000D7011396FC93EE931297D7011296ED91D3
:1005F000FC9113976081662321F1CF010196139638
:100600009C938E9312976117E1F06C35A9F4618188
:10061000ADEEB2E08C91882339F0861303C01196B9
:100620006C9102C01296F6CF662359F03296D7012C
:100630001396FC93EE931297CE0101960E947C0FC5
:10064000D4CF60E0CE0101960E947C0F8B819C810B
:1006500026960FB6F894DEBF0FBECDBFDF91CF91C7
:100660001F91FF90EF9008950895AF92BF92CF929F
:10067000DF92EF92FF920F931F93CF93DF93CDB74B
:10068000DEB768970FB6F894DEBF0FBECDBF7C0112
:100690008A0168EF72E0CA010E94240F6C016FEFBB
:1006A00072E0C8010E94240F5C0146E053E0B801EB
:1006B000CE0107960E943F104DE053E0B801CE01F5
:1006C00001960E943F10C6010E946711C5010E9459
:1006D0006711CE0107960E94A311CE0101960E94D8
:1006E000A311BE016F5F7F4FCE0143960E9422147B
:1006F000BE01695F7F4FCE010D960E9422148E01CC
:100700000D5E1F4F9E01235F3F4FA501B601C7013C
:100710000E94CB0ECE010D960E941D14C8010E94AE
:100720001D14CE0101960E941D14CE0107960E9451
:100730001D14C70168960FB6F894DEBF0FBECDBF7B
:10074000DF91CF911F910F91FF90EF90DF90CF90AD
:10075000BF90AF90089580910A0581110BC010924F
:10076000070510920605109209051092080581E010
:1007700080930A0586E095E00895DB01109749F023
:10078000ED91FC9111970190F081E02DBC01CD011C
:10079000199480E090E008959F92AF92BF92CF921B
:1007A000DF92EF92FF920F931F93CF93DF9300D0CE
:1007B00000D0CDB7DEB76C01FC0100811181B8011A
:1007C00084E090E0DADF009709F478C0FC0111833F
:1007D0000083138212828C017601F2E0EF0EF11C8D
:1007E0006BE7C7010E941310882309F464C06DE70A
:1007F000C7010E941310811163C086E0982EC601C4
:10080000A6DE5C01892B09F456C06AE3C7010E9489
:100810001310882309F44FC01A821982BE016F5F3A
:100820007F4FC6010E941317882309F444C0B50105
:10083000C8010E94090FDC01892B49F5F80160818C
:1008400071818AE090E099DFDC01892B39F0119603
:100850001C921E9215961C921E921497F8012281EA
:1008600033812115310551F0F90180819181009783
:1008700011F09C01F9CFB183A08303C0F801B383C9
:10088000A2831097C1F01396BC92AE921297FE010C
:1008900031961496892D01900D928A95E1F76DE7B6
:1008A000C7010E94131081110BC06CE2C7010E94A6
:1008B00013108111A4CF4FDF8C0102C04CDF8BCF0E
:1008C000C80126960FB6F894DEBF0FBECDBFDF91EC
:1008D000CF911F910F91FF90EF90DF90CF90BF903D
:1008E000AF909F90089508950895CF93FC01C4811F
:1008F00021E02093E404C0930505109216051092A0
:1009000015058385682B89EF96E0E9DD8091150553
:10091000813208F046C0909114059111FCCF92E00D
:100920009093140591E0909313059FEF9093E30447
:100930001092E2048093E104A5EEB4E021EC34E0EF
:10094000F9019E2F921B981718F49D919193F9CF5E
:100950001092C0048091C004CC0FC82BC093C00477
:1009600080911205813061F4109212058091C004CB
:100970008093BB008091BC0083FDF8CF85EC01C063
:1009800085EE8093BC00809114058230E1F3809164
:10099000E3048F3F31F08091E304803211F08091C5
:1009A000E30410921605109215051092E404CF91FD
:1009B00008950F931F93CF938C01C62F96DF6C2F52
:1009C0006460C80192DF6C2F6B7FC8018EDF83ECFF
:1009D00090E00197F1F7CF911F910F9108950F9338
:1009E0001F93CF93DF938C01D62FC42F607F642B8E
:1009F000E0DF6D2F6295607F6C2BC801DF91CF9196
:100A00001F910F91D6CF41E0EADF81E090E0089599
:100A100040E061E0E4DF8BE39FE10197F1F70895A7
:100A200080915C0790915D07DC01ED91FC91008461
:100A3000F185E02D19951816190664F480915C076C
:100A400090915D07DC01ED91FC910284F385E02D2E
:100A50001995E6CF08953F924F925F926F927F92E1
:100A60008F929F92AF92BF92CF92DF92EF92FF92BE
:100A70000F931F93CF93DF936C015B01342E809112
:100A80000D0790910E0790931207809311070E9413
:100A9000E1182B013C01CFEFDFEF0D2C000CEE082D
:100AA000FF080E94E118DC01CB0184199509A60911
:100AB000B7098C159D05AE05BF0508F05DC0CF3F99
:100AC000FFEFDF0709F058C080915C0790915D0748
:100AD000DC01ED91FC910084F185E02D1995892BC5
:100AE00001F380915C0790915D07DC01ED91FC9131
:100AF0000284F385E02D1995E0911107F09112071A
:100B000080838091110790911207019690931207AC
:100B10008093110720910F073091100782179307D8
:100B200040F080910D0790910E07909312078093EB
:100B30001107A114B10439F0C5010E94B81188232E
:100B400011F0C5E0D0E0332009F4ABCF87E0882E68
:100B500082E0982E00E010E0F401819191914F0124
:100B60000E94B811811106C00F5F1F4F053011059B
:100B700099F797CFE80195CF0E94E118DC01CB01EE
:100B800084199509A609B7098C159D05AE05BF0501
:100B900060F06CE173E08CE596E00E94F71568E187
:100BA00071E08CE596E00E94E515CE01DF91CF91D2
:100BB0001F910F91FF90EF90DF90CF90BF90AF907B
:100BC0009F908F907F906F905F904F903F9008958F
:100BD000CF93DF93CDB7DEB7C85CD1090FB6F894D9
:100BE000DEBF0FBECDBF9E012E523F4FC253DF4F1F
:100BF00048815981CE5CD04068EC70E0CE0101960E
:100C00000E94801F81E00CDFBE016F5F7F4F8091EB
:100C10005C0790915D070E94D31541E060E070E0B1
:100C2000C053DF4F88819981C05DD04014DFC85325
:100C3000DF4F0FB6F894DEBF0FBECDBFDF91CF916F
:100C400008951F920F920FB60F9211240BB60F92B8
:100C50002F933F934F935F936F937F938F939F93C4
:100C6000AF93BF93EF93FF938091B900887F803655
:100C700009F49CC068F5883209F45BC090F48031B7
:100C800009F454C038F4882309F4F6C0883009F414
:100C90004DC0F5C0883109F44CC0803209F45DC004
:100CA000EEC0803409F468C048F4803309F455C0BC
:100CB000883309F0E4C08093E304D8C0803509F498
:100CC0004FC0883509F45DC0883409F0D8C0D6C05B
:100CD000883909F4C7C0A8F4883709F467C038F424
:100CE000883609F463C0803709F460C0C8C088380A
:100CF00009F4B8C0803909F45FC0803809F0BFC07A
:100D00005BC0803B09F486C038F4803A09F466C0C1
:100D1000883A09F47FC0B3C0803C09F4A7C0883C7E
:100D200009F4A4C0883B09F48AC0A9C08091C0041A
:100D300010C09091E2048091E104981770F5E09161
:100D4000E20481E08E0F8093E204F0E0EF53FB4F6A
:100D500080818093BB0085EC86C08093E3048EC0C5
:100D6000E091E20481E08E0F8093E2048091BB0069
:100D7000F0E0EF53FB4F80839091E2048091E10417
:100D80006EC0E091E20481E08E0F8093E2048091D6
:100D9000BB00F0E0EF53FB4F80838091130581117E
:100DA0006DC081E08093120584EA61C083E0809386
:100DB00014051092BF04CFCF8091BF04803208F099
:100DC00051C0E091BF0481E08E0F8093BF048091F9
:100DD000BB00F0E0E156FB4F8083BDCF85EC8093F4
:100DE000BC00109214058091BF04803230F4E09171
:100DF000BF04F0E0E156FB4F10826091BF0470E049
:100E0000E0919D04F0919E048FE994E01995109271
:100E1000BF0435C084E08093140510929C041092A6
:100E20009B04E0919904F0919A04199580919B0498
:100E3000811105C081E080939B0410927904E091B8
:100E40009C0481E08E0F80939C04F0E0E758FB4FF8
:100E500080818093BB0090919C0480919B049817A3
:100E600008F479CF85E88093BC0009C085EC8093B5
:100E7000BC001092140503C01092E304CFDAFF9176
:100E8000EF91BF91AF919F918F917F916F915F9102
:100E90004F913F912F910F900BBE0F900FBE0F906F
:100EA0001F901895089508952F923F924F925F9248
:100EB0006F927F928F929F92AF92BF92CF92DF926A
:100EC000EF92FF920F931F93CF93DF93CDB7DEB7CF
:100ED00027970FB6F894DEBF0FBECDBF1B015E8310
:100EE0004D838901FC0182819381209100022817A2
:100EF00021F02F3F09F0CFC205C0E8E1F3E02491D3
:100F00002F8304C180930002E8E1F3E0E491EF3F16
:100F100009F4C1C2E23009F47EC06CF5EE2309F495
:100F200059C0E13009F0F1C01092800010928100A8
:100F30002091810028602093810020918100216010
:100F4000209381009C013327F901E457FD4FE49180
:100F5000F0E0EE0FFF1FE85AFD4F4591549150937A
:100F6000610440936004F901EE52FD4FE491E09377
:100F70005F0431E0C8C0E43009F49DC00CF473C0D4
:100F8000E53009F0C2C01092200110922101209199
:100F900021012860209321012091210121602093CB
:100FA00021019C013327F901E457FD4FE491F0E062
:100FB000EE0FFF1FE85AFD4F45915491509358048E
:100FC00040935704F901EE52FD4FE491E09356042B
:100FD00035E099C014BC15BC24B5226024BD25B5EC
:100FE000216025BD9C013327F901E457FD4FE491B1
:100FF000F0E0EE0FFF1FE85AFD4F459154915093DA
:10100000640440936304F901EE52FD4FE491E093D0
:1010100062041F827EC01092B0001092B100209135
:10102000B00022602093B0002091B1002160209395
:10103000B1009C013327F901E457FD4FE491F0E042
:10104000EE0FFF1FE85AFD4F4591549150935607FC
:1010500040935507F901EE52FD4FE491E093570795
:10106000E2E0EF8356C01092900010929100209120
:10107000910028602093910020919100216020939D
:1010800091009C013327F901E457FD4FE491F0E012
:10109000EE0FFF1FE85AFD4F4591549150935E04A7
:1010A00040935D04F901EE52FD4FE491E0935C043E
:1010B000F3E0FF832EC01092A0001092A1002091B7
:1010C000A10028602093A1002091A100216020931D
:1010D000A1009C013327F901E457FD4FE491F0E0B2
:1010E000EE0FFF1FE85AFD4F4591549150935B045A
:1010F00040935A04F901EE52FD4FE491E0935904F4
:1011000024E02F8306C03F8304C0EF83EF81E7FD17
:10111000C2C12801012E000C660877080E94B51094
:101120004101A12CB12C8F818D7F09F0BDC060E001
:1011300072E18AE790E0A50194010E944924298385
:101140003A834B835C8369017A01F1E0CF1AD108BD
:10115000E108F1082FEFC216D104E104F10409F00F
:1011600008F44DC060E472E48FE090E0A5019401C2
:101170000E94492469017A0181E0C81AD108E10876
:10118000F1089F81923001F5EFEFCE16D104E10412
:10119000F10409F008F4FCC160E970ED83E090E02F
:1011A000A50194010E94492469017A01F1E0CF1A56
:1011B000D108E108F1082FEFC216D104E104F104CF
:1011C00009F0E0F583E069C03FEFC316D104E10404
:1011D000F104B9F0B0F068E478EE81E090E0A501A8
:1011E00094010E94492469017A0181E0C81AD1085A
:1011F000E108F1089F81992309F46FC1C0C181E022
:1012000001C082E09F819923A1F047C089819A8122
:10121000AB81BC812AE0B595A795979587952A95CE
:10122000D1F76C017D01E1E0CE1AD108E108F108A7
:1012300085E095B5987F892B85BDA1C068E478EEDF
:1012400081E090E0A50194010E94492469017A019E
:10125000F1E0CF1AD108E108F1082FEFC216D1044E
:10126000E104F10409F008F436C164E274EF80E0AF
:1012700090E0A50194010E94492469017A01E1E00E
:10128000CE1AD108E108F108FFEFCF16D104E1042E
:10129000F10411F008F043C185E09091B100987F0E
:1012A000892B8093B1006BC060E072E18AE790E027
:1012B000A50194010E94492469017A01E1E0CE1A56
:1012C000D108E108F108C114D104F1E0EF06F104FE
:1012D00088F068E478EE81E090E0A50194010E9436
:1012E000492469017A0181E0C81AD108E108F108AE
:1012F00083E001C081E09F81913071F49091810081
:10130000987F892B80938100452846284728D9F566
:101310002FEF3FEFA90168C0EF81E33071F49091A6
:101320009100987F892B8093910045284628472873
:1013300051F52FEF3FEFA90179C0FF81F43071F42F
:101340009091A100987F892B8093A1004528462881
:101350004728C9F42FEF3FEFA9017AC02F8125302C
:1013600071F490912101987F892B80932101452868
:101370004628472841F42FEF3FEFA9017BC04528BD
:101380004628472869F09101220F331FD8010E9497
:101390006D2428EE33E040E050E00E946B2303C050
:1013A0002FEF3FEFA9018F81823081F12CF4882348
:1013B00061F08130C9F06FC09F81943009F448C05A
:1013C000ACF1953009F456C066C0C7BC20937504D3
:1013D00030937604409377045093780480916E00A4
:1013E000826080936E0057C0D0928900C0928800BE
:1013F00020937104309372044093730450937404E7
:1014000080916F00826080936F0045C0C092B300EE
:10141000209358073093590740935A0750935B071E
:101420008091700082608093700035C0D0929900E6
:10143000C092980020936D0430936E0440936F0423
:10144000509370048091710082608093710023C07A
:10145000D092A900C092A8002093690430936A0436
:1014600040936B0450936C0480917200826080936F
:10147000720011C0D0922901C09228012093650406
:10148000309366044093670450936804809173001E
:10149000826080937300ED81FE81BF01FF0F880B96
:1014A000990B27960FB6F894DEBF0FBECDBFDF9124
:1014B000CF911F910F91FF90EF90DF90CF90BF9051
:1014C000AF909F908F907F906F905F904F903F90E4
:1014D0002F900C94A91884E0E0CEEFEFCE16D10443
:1014E000E104F104D1F0C8F062E17AE780E090E035
:1014F000A50194010E94492469017A0181E0C81A7A
:10150000D108E108F1089FEFC916D104E104F10404
:1015100011F008F07BCE84E08CCE83E08ACE62E1CD
:101520007AE780E090E0A50194010E9449246901D6
:101530007A01F1E0CF1AD108E108F1082FEFC216C5
:10154000D104E104F104C9F0C0F089819A81AB8132
:10155000BC815AE0B595A795979587955A95D1F78F
:101560006C017D0121E0C21AD108E108F1083F8138
:10157000332309F45DCE87E090CE86E043CE3FEF83
:10158000C316D104E104F10409F048F684E03ACE30
:1015900082E083CECF93DF93EC018FE992E09983D1
:1015A0008883CE0108960E941D14CE010296DF9119
:1015B000CF910C941D14CF93DF93EC0187E992E057
:1015C00099838883CE010C960E941D14CE01069645
:1015D000DF91CF910C941D140C941C25CF93DF93B5
:1015E000EC01E9DFCE01DF91CF910C941C25CF9364
:1015F000DF93EC01E881F981808191810E94A3133E
:101600008A819B8101969B838A83DF91CF91089584
:101610008F929F92AF92BF92CF92DF92EF92FF9202
:101620000F931F93CF93DF937C014B01DC01AD90AF
:10163000BC90F50100811181D8011496CD90DC9009
:1016400015976115710501F1FB0101900020E9F783
:101650003197E61BF70BC1F0EF01CC0DDD1DBE018C
:10166000C8010E947C13882379F0F8012081318120
:1016700084819581B401820F931F0E94B526D80101
:101680001596DC93CE931497D501ED91FC912481AE
:101690003581F70182819381820F931F8C199D09F7
:1016A00093838283DF91CF911F910F91FF90EF90F1
:1016B000DF90CF90BF90AF909F908F9008950F9341
:1016C0001F93CF93DF93CDB7DEB766970FB6F8942D
:1016D000DEBF0FBECDBF8C01CB011E8AFE01769608
:1016E0002AE030E0B9010E94362490E3980F9293EB
:1016F000CB010097B9F7BF01C8018ADF66960FB624
:10170000F894DEBF0FBECDBFDF91CF911F910F9137
:1017100008958F929F92AF92BF92EF92FF920F9394
:101720001F93CF93DF93CDB7DEB766970FB6F894CC
:10173000DEBF0FBECDBF7C011E8A8E010A5E1F4F29
:101740008AE0882E912CA12CB12CCB01BA01A501E5
:1017500094010E946B23942F852F605DF8016293A2
:101760008F01A901692F782F411551056105710578
:1017700061F7BF01C7014CDF66960FB6F894DEBF74
:101780000FBECDBFDF91CF911F910F91FF90EF90D2
:10179000BF90AF909F908F900895FF920F931F93EB
:1017A000CF93DF936115710541F461E274E0DF913D
:1017B000CF911F910F91FF902BCF8B01EC0162E233
:1017C000CE0115DFF80161918F01662351F0E9EE3A
:1017D000F2E0F080FF20A1F39181961751F032964C
:1017E000F8CF62E2CE01DF91CF911F910F91FF9070
:1017F000FECE6CE5CE01FBDE6F2DE2CF2F923F9245
:101800004F925F926F927F928F929F92AF92BF9210
:10181000CF92DF92EF92FF920F931F93CF93DF93BC
:10182000CDB7DEB76A970FB6F894DEBF0FBECDBF57
:10183000DC01ED91FC9111973197E830F10508F04A
:1018400014C28B017C018827EE58FF4F8F4F0C94F8
:101850006524FD01C280D380E480F580A701960154
:10186000C701B6010E945222882319F061E374E097
:1018700092C020E030E0A901C701B6010E945222C7
:1018800087FF07C06DE2C801B2DEF7FAF094F7F8FF
:10189000F09420E030E0A901C701B6010E94522275
:1018A000882309F47BC0A7019601C701B6010E94F5
:1018B0009D23A70196010E94522281116FC068E307
:1018C00074E069C01296ED90FC9013976BE5C80127
:1018D0008EDEF701E280F380E114F10451F0B801EB
:1018E000C70102968BDFD701ED90FC90E114F10463
:1018F00011F46DE529C06CE2C80179DEEDCFFD0180
:10190000E280F3806BE7C80172DED7011296ED909A
:10191000FC90139703C06CE2C80169DEE114F10486
:1019200091F0F70162817381C80137DF6AE3C80172
:101930005EDEB801C701049661DFD701ED90FC902F
:10194000E114F10441F76DE7C80151DE8EC1FD01DC
:1019500062817381C80121DF88C112966D917C91EB
:10196000139719C06DE2C80142DEF701428153812D
:1019700064817581C801CDDE78C1FD0182819381CA
:10198000A481B581892B8A2B8B2B19F46BE274E02F
:1019900002C066E274E0C8013BDE67C120E836E9B8
:1019A00048E15BE4C701B6010E94322487FD55C1BE
:1019B000412C512C70E2672E712C812C912CF2015C
:1019C000E558FD4F2489358946895789C701B601F5
:1019D0000E94322487FD0FC0F201ED59FD4F24898A
:1019E000358946895789C701B6010E94B7226B0124
:1019F0007C01860C971C75946794F4E04F1A51088B
:101A000088EE48168FEF5806D1F655245A9420E0F8
:101A100030E0A901C701B6010E943224181694F5DE
:101A20002CEA35EC47E257E3C701B6010E94522287
:101A3000181644F1BFEF5B1629F1952DA4E09A0228
:101A400050011124F501E55BFD4F20813181428178
:101A50005381C701B6010E94522287FF0FC0F501D2
:101A6000E558FD4F2081318142815381C701B60184
:101A70000E94B7226B017C018618970875946794C1
:101A80005A94D8CFC701B6010E9406242B013C010D
:101A90006B8B7C8B8D8B9E8B46E0A42E80E492E436
:101AA000AFE0B0E08F8B988FA98FBA8FBA2CAA24A1
:101AB000AA94AB0C8B899C89AD89BE890A97A10534
:101AC000B105E8F06F89788D898D9A8D2AE030E034
:101AD00040E050E00E946B232F8B388F498F5A8F44
:101AE0006B897C898D899E892AE030E040E050E056
:101AF0000E946B232B8B3C8B4D8B5E8BD7CFC3010E
:101B0000B2010E9456229B01AC01C701B6010E949E
:101B10009C236B017C016F89788D898D9A8D0E9441
:101B200056229B01AC01C701B6010E94B7226B8B04
:101B30007C8B8D8B9E8B0E9406246B017C010E9406
:101B400056229B01AC016B897C898D899E890E94FC
:101B50009C239B01AC010E949D230E940624C60E7B
:101B6000D71EE81EF91E8F89988DA98DBA8DC816CB
:101B7000D906EA06FB0610F19FEF491A590A690ACD
:101B8000790A8114910489F0AAE04A16510461048B
:101B9000710458F0BFEF8B1A9B0AC12CD12C76012F
:101BA000412C512C3201439409C0C12CD12C760117
:101BB00005C01B147CF469017A01BA94C701B6010F
:101BC0002AE030E040E050E00E946B23672B682B56
:101BD000692B79F3AB2CB301A201C8019ADDBB20BC
:101BE00039F1188A3E01E0E16E0E711C7A8A698A29
:101BF0002AE0222E312C412C512CAA94BFEFAB1697
:101C000069F0C701B601A20191010E946B23605DDA
:101C1000D3016E933D0169017A01EFCF69897A8919
:101C20006B1971098EE2FB018293BF01C801F0DCE0
:101C300097FE09C065E374E0C801EADC66277727F0
:101C40006819790907C08114910479F065E6C80123
:101C5000CEDCB401C80133DD08C080E2682E712CEF
:101C600095E0592E812C912CD2CE6A960FB6F8941D
:101C7000DEBF0FBECDBFDF91CF911F910F91FF90BF
:101C8000EF90DF90CF90BF90AF909F908F907F901C
:101C90006F905F904F903F902F900895CF92DF927A
:101CA000EF92FF920F931F93CF93DF938C017B01F1
:101CB000DC011596CD91DC9116976B016C177D07B1
:101CC00008F46E01C60106960E948724FC01892B48
:101CD000B1F0D382C282D80113968D919C91149752
:101CE000918380831496FC93EE931397CC0FDD1FA2
:101CF0001696DC93CE931597F582E4823696CF0143
:101D0000DF91CF911F910F91FF90EF90DF90CF90D7
:101D10000895DC011396ED91FC911497309751F0E2
:101D200024813581AB01420F531FA281B381A417D7
:101D3000B50708F4B3CFC9010696558344838E0FC7
:101D40009F1F0895CF92DF92EF92FF920F931F9300
:101D5000CF93DF93EC016B017A018FE992E0FE01F2
:101D6000819391938F0167EF72E0CF0173D528962D
:101D700067EF72E0CE016ED5B601C8013ED5B7015E
:101D8000CE01DF91CF911F910F91FF90EF90DF90E7
:101D9000CF9033C508956F927F928F929F92AF92AA
:101DA000BF92CF92DF92EF92FF920F931F93CF9348
:101DB000DF93EC015B014A01690187E992E09983B5
:101DC00088833E0186E0680E711C67EF72E0C301F4
:101DD00041D57E018CE0E80EF11C67EF72E0C7018F
:101DE00039D5BB82AA829D828C82B601C30105D5FA
:101DF000B801C701DF91CF911F910F91FF90EF9034
:101E0000DF90CF90BF90AF909F908F907F906F901A
:101E1000F4C40F931F93CF93DF938B01FC01C28116
:101E2000D381209759F06A817B81C8010E94AC263A
:101E3000892B21F00990D881C02DF3CFCE01DF91FD
:101E4000CF911F910F910895E4DFFC01892B09F4D4
:101E50004BC084819581833091053CF4813091059C
:101E60007CF4009709F447C038C0853091052CF008
:101E7000059799F5668177812BC0868197810895B2
:101E80000680F781E02D309779F18081843779F1F0
:101E90008B3229F08D3221F4319691E002C03196D7
:101EA00090E060E070E03AE0819120ED280F2A3068
:101EB00068F4369FA001379F500D1124682F880FBA
:101EC000770B60537109640F751FEECF992391F062
:101ED00088279927861B970B0895668177818085CF
:101EE00091850E94012406C080E090E0089581E081
:101EF00090E00895CB010895FF920F931F93CF9325
:101F0000DF93EC01F62E88819981FC01A381B481D5
:101F1000109771F01496ED91FC9115979F012F5F2A
:101F20003F4F12964D915C9113974217530750F50E
:101F30002C813D81B9016F5F7F4FB0DE8C016A81DA
:101F40007B816115710549F00115110571F04C8116
:101F50005D81C8010E949C2603C00115110529F06E
:101F6000EC81FD81E00FF11FF0821B830A838C81DD
:101F70009D8101969D838C83DF91CF911F910F915D
:101F8000FF9008953696EA0FFB1F15963C932E930B
:101F9000149760838C819D81892B49F7FB83EA83A9
:101FA000E6CFFC01A081B1818C918D3051F024F4F9
:101FB00089508230B8F505C0803219F08F3219F09F
:101FC000089511962CC011968C9111978A3219F0B0
:101FD0008F32D1F008951196B183A083A081B18191
:101FE000CD0101969183808311968C91119788235E
:101FF000C9F08A3299F712968C9112978F3271F745
:1020000013960DC08A3071F2A081B181CD01019685
:102010009183808311968C918111F4CF03C0B18399
:10202000A083C0CF08950F931F93CF93DF931F9288
:10203000CDB7DEB78C016983B4DFD801ED91FC9197
:10204000119780816981861305C03196ED93FC93C9
:1020500081E001C080E00F90DF91CF911F910F913F
:102060000895D7DE009749F0FC012481358127309F
:10207000310519F48681978108950C94AB03CF92B2
:10208000DF92EF92FF920F931F93CF93DF93CDB721
:10209000DEB72C970FB6F894DEBF0FBECDBF8C0114
:1020A000CB01BA01B6DE7C01009709F44AC0FC01FD
:1020B000C480D580F1E0CF16D10461F4FC016681C3
:1020C00077816115710531F081E294E00E94AC26C0
:1020D000892B69F0F1E0CF1AD10882E0C816D1044B
:1020E00030F4F701668177816115710561F567EF5D
:1020F00072E0CE0101966C01ADD3DC86CB86CE01B9
:102100000B9698878F831A861986BE01695F7F4F69
:10211000C701049673DB89819A81F80191838083DA
:102120008B819C81938382838D819E81958384831F
:102130001A8219821C821B821E821D82C6017DD3D7
:1021400004C067EF72E0C80185D3C8012C960FB6B2
:10215000F894DEBF0FBECDBFDF91CF911F910F91DD
:10216000FF90EF90DF90CF90089590E0FC01EE5249
:10217000FD4F2491FC01E457FD4F8491882399F091
:1021800090E0880F991FFC01EE58FD4FA591B49186
:10219000FC01E85AFD4F859194918FB7F894EC912A
:1021A000E22BEC938FBF0895CF93DF93CDB7DEB7CB
:1021B00028970FB6F894DEBF0FBECDBF28E0E3EA44
:1021C000F2E0DE01119601900D922A95E1F7FC01F3
:1021D0002085261710F46FEF620FFE013196E60F8F
:1021E000F11DE60FF11D6081606840E028960FB692
:1021F000F894DEBF0FBECDBFDF91CF910C94EF04FA
:10220000CF92DF92EF92FF920F931F93CF93DF93C2
:10221000EC016A017B01E889F98982E0808341153C
:10222000514E61057105B1F060E079E08DE390E019
:10223000A70196010E946B2389019A01015011099F
:1022400021093109369527951795079598010115AC
:102250001041A8F0E889F989108260E874E88EE1FD
:1022600090E0A70196010E946B23DA01C901019752
:10227000A109B109B695A795979587959C01EC851D
:10228000FD853083EE85FF852083188EEC89FD89DE
:1022900086E08083EA89FB89808180618083EA8986
:1022A000FB89808188608083EA89FB8980818068DE
:1022B0008083EA89FB8980818F7D8083DF91CF9144
:1022C0001F910F91FF90EF90DF90CF900895CF92E4
:1022D000DF92EF92FF92CF93DF936C01990FEE089C
:1022E000FF08F7FE1BC0E0915C06F0915D060190CF
:1022F000F081E02D6DE28CE596E01995EC01442724
:102300005527BA014C195D096E097F092AE08CE551
:1023100096E0B9D37C01EC0EFD1E07C02AE0B701A0
:10232000A6018CE596E0AFD37C016BE273E08CE50F
:1023300096E094D38E0D9F1DDF91CF91FF90EF908B
:10234000DF90CF900895CF93DF93FC0144815581B6
:10235000608171818CE596E03FD0EC016BE273E027
:102360008CE596E07BD38C0F9D1FDF91CF91089574
:10237000FC0101900020E9F731979F01281B390BE0
:10238000E0911107F0911207E21BF30B40910D074A
:1023900050910E07E417F50730F460910B07709128
:1023A0000C07E60FF71F280F391F60910F07709178
:1023B0001007DC018217930758F40196BC91A081A5
:1023C000BA1308C03196E617F70799F7FA01F1CF6B
:1023D00081E0089580E00895CF92DF92EF92FF921E
:1023E0000F931F93CF93DF936C017A018B01C0E0B1
:1023F000D0E0CE15DF0589F0D8016D918D01D601B1
:10240000ED91FC910190F081E02DC6011995892B89
:1024100011F47E0102C02196ECCFC701DF91CF916C
:102420001F910F91FF90EF90DF90CF900895FC01E6
:10243000A089B1898C91A689B78982FD0FC09C9132
:10244000818D8F5F8F73228D821749F0218DDF017F
:10245000A20FB11D5D969C93818F08958C91089574
:10246000FC01538D448D252F30E0842F90E0821B9A
:10247000930B541710F0CF96089501970895FC011F
:10248000918D828D981761F0828DDF01A80FB11DAB
:102490005D968C91928D9F5F9F73928F90E00895CF
:1024A0008FEF9FEF0895FC01918D828D981731F089
:1024B000828DE80FF11D858D90E008958FEF9FEFDD
:1024C0000895FC01918D228D892F90E0805C9F4FB3
:1024D000821B91098F739927089582E295E0F1DFBD
:1024E00021E0892B09F420E0822F08958FEB95E0FD
:1024F000E8DF21E0892B09F420E0822F08958CE5A4
:1025000096E0DFDF21E0892B09F420E0822F089597
:10251000FC01848DDF01A80FB11DA35ABF4F2C9180
:10252000848D90E001968F739927848FA689B7894F
:102530002C93A089B1898C9180648C93938D848D28
:10254000981306C00288F389E02D80818F7D8083F7
:102550000895EF92FF920F931F93CF93DF93EC01B7
:1025600081E0888F9B8D8C8D981305C0E889F9894F
:10257000808185FD23C0F62E0B8D10E00F5F1F4F6D
:102580000F731127E02E8C8DE8120BC00FB607FCDD
:10259000FACFE889F989808185FFF5CFCE01B8DFD0
:1025A000F2CF8B8DFE01E80FF11DE35AFF4FF08251
:1025B0000B8FEA89FB898081806207C0EE89FF89E1
:1025C0006083E889F98980818064808381E090E07C
:1025D000DF91CF911F910F91FF90EF900895CF93CE
:1025E000DF93EC01888D8823C1F0EA89FB89808123
:1025F00085FD05C0A889B9898C9186FD0EC00FB6EE
:1026000007FCF5CF808185FFF2CFA889B9898C912D
:1026100085FFEDCFCE017CDFE8CFDF91CF9108952C
:1026200080E090E0892B19F06ADF81111BC080E007
:1026300090E0892B19F05ADF811117C080E090E0FB
:10264000892B19F04ADF811113C080E090E0892BBB
:10265000A1F080E090E0892B81F00E9400008111C0
:102660000AC008950E940000E2CF0E940000E6CF59
:102670000E940000EACF0C94000008950E94982662
:10268000CF93DF93EC010E94CA0ACE01DF91CF9174
:102690000C941C25FC0124813581FB01448155816A
:1026A0002417350721F5FC0180819181FB016081B0
:1026B0007181009719F061157105A1F4611571051B
:1026C00049F0232BB1F0FB01808190E09195819539
:1026D00091090AC0009769F0232B59F0FC01808111
:1026E00090E002C00E94AC2621E0892B19F020E086
:1026F00001C021E0822F08950F931F93CF93DF93A2
:10270000EC0188819981009729F02A813B81261765
:10271000370788F48B016F5F7F4F0E94B4250097C5
:1027200061F0998388831B830A832C813D81232B4D
:1027300011F4FC01108281E001C080E0DF91CF91B3
:102740001F910F910895EF92FF920F931F93CF93D4
:10275000DF931F921F92CDB7DEB78C0169831A8277
:10276000FC01E480F580FFEFEF1AFF0AB701C4DF38
:10277000882381F0F8012081318184819581BE0117
:102780006F5F7F4F820F931F0E94B526F801F5827D
:10279000E48281E00F900F90DF91CF911F910F9114
:1027A000FF90EF900895EF92FF920F931F93CF93B6
:1027B000DF93EC017B018A01BA019EDF2881398118
:1027C00081110DC02115310519F0C9010E941C2588
:1027D000198218821D821C821B821A8206C01D83E8
:1027E0000C83B701C9010E94B526CE01DF91CF91BC
:1027F0001F910F91FF90EF900895CF93DF93EC011D
:10280000FB0186179707A9F0608171816115710539
:1028100021F044815581C7DF0CC0888199810097E0
:1028200011F00E941C25198218821D821C821B82B5
:102830001A82CE01DF91CF910895FC0180819181B0
:102840000C941C25FC0111821082138212821582C5
:102850001482D3CFFC01118210821382128215825E
:1028600014826115710549F0FB0101900020E9F720
:102870003197AF01461B570B96CF08951F920F92C9
:102880000FB60F9211240BB60F922F933F934F93D5
:102890005F936F937F938F939F93AF93BF93EF93C8
:1028A000FF938091580790915907A0915A07B091D2
:1028B0005B07892B8A2B8B2B59F180915707E0916D
:1028C0005507F0915607908189278083809158079A
:1028D00090915907A0915A07B0915B0718161906F5
:1028E0001A061B060CF055C08091580790915907A5
:1028F000A0915A07B0915B070197A109B109809394
:10290000580790935907A0935A07B0935B0741C0AB
:1029100080910002E8E1F3E0E4919FEF90930002E0
:10292000E230C9F050F4EE2399F0E13081F5909156
:102930006F009D7F90936F002AC0E43019F1E0F0A2
:10294000E53029F5909173009D7F909373001FC02F
:1029500010926E001CC0909170009D7F909370004B
:1029600091E09093B0009091B100987F9460909323
:10297000B1001092B3000BC0909171009D7F9093B5
:10298000710005C0909172009D7F9093720060E08D
:1029900063D3FF91EF91BF91AF919F918F917F9101
:1029A0006F915F914F913F912F910F900BBE0F90C0
:1029B0000FBE0F901F9018950F931F93CF93DF9327
:1029C000EC01FFD3688779878A879B87E881F98143
:1029D0000284F385E02DCE01199597FF16C0F1D33F
:1029E000088519852A853B85DC01CB01801B910B6D
:1029F000A20BB30B0C811D812E813F8180179107A3
:102A0000A207B30718F38FEF9FEFDF91CF911F91CC
:102A10000F910895EF92FF920F931F93CF93DF933F
:102A20008C017B01C0E0D0E0F701EC0FFD1F649149
:102A3000662361F0D801ED91FC910190F081E02DC9
:102A4000C8011995892B11F02196EECFCE01DF91A7
:102A5000CF911F910F91FF90EF900895611571052F
:102A600079F0FB0101900020E9F73197AF01461B97
:102A7000570BDC01ED91FC910280F381E02D19945C
:102A800080E090E008954F925F926F927F92EF9274
:102A9000FF920F931F93CF93DF93CDB7DEB7A1972C
:102AA0000FB6F894DEBF0FBECDBF7C01FA01CB019B
:102AB00019A2223008F42AE08E010F5D1F4F422E2A
:102AC000512C612C712CBF01A30192010E946B2338
:102AD000F901CA01015011096A3014F4605D01C0A6
:102AE000695CD8016C93232B242B252B61F7B8014B
:102AF000C701B4DFA1960FB6F894DEBF0FBECDBFFD
:102B0000DF91CF911F910F91FF90EF907F906F9089
:102B10005F904F9008958F929F92AF92BF92CF9205
:102B2000DF92EF92FF920F931F93CF93DF937C017D
:102B3000EB016C0182E0C80ED11C4701E5E08E0E6E
:102B4000911C00E010E0F60141916F0150E060E05F
:102B500070E02AE0CE0197DF5C01E881F981019005
:102B6000F081E02D6EE2CE0119958A0D9B1D080FB4
:102B7000191FC814D90439F7F701458150E060E006
:102B800070E02AE0CE017FDF800F911FDF91CF91AF
:102B90001F910F91FF90EF90DF90CF90BF90AF907B
:102BA0009F908F9008950F931F93CF93DF93EC0125
:102BB00055DF8C016BE273E0CE0150DF800F911F77
:102BC000DF91CF911F910F9108950F931F93CF9392
:102BD000DF93EC011FDF8C016BE273E0CE013EDF7F
:102BE000800F911FDF91CF911F910F91089536CFE4
:102BF0001F920F920FB60F9211240BB60F922F93C4
:102C00003F934F935F936F937F938F939F93AF9374
:102C1000BF93EF93FF9382E295E07ADCFF91EF910F
:102C2000BF91AF919F918F917F916F915F914F91E4
:102C30003F912F910F900BBE0F900FBE0F901F90E2
:102C400018951F920F920FB60F9211240BB60F9288
:102C50002F933F934F935F936F937F938F939F93A4
:102C6000AF93BF93EF93FF9382E295E0E0DBFF9198
:102C7000EF91BF91AF919F918F917F916F915F91F4
:102C80004F913F912F910F900BBE0F900FBE0F9061
:102C90001F9018951F920F920FB60F9211240BB62A
:102CA0000F922F933F934F935F936F937F938F93E5
:102CB0009F93AF93BF93EF93FF938FEB95E028DC47
:102CC000FF91EF91BF91AF919F918F917F916F9104
:102CD0005F914F913F912F910F900BBE0F900FBEC0
:102CE0000F901F9018951F920F920FB60F921124FC
:102CF0000BB60F922F933F934F935F936F937F93F6
:102D00008F939F93AF93BF93EF93FF938FEB95E0D8
:102D10008EDBFF91EF91BF91AF919F918F917F914A
:102D20006F915F914F913F912F910F900BBE0F903C
:102D30000FBE0F901F9018951F920F920FB60F9213
:102D400011240BB60F922F933F934F935F936F9382
:102D50007F938F939F93AF93BF93EF93FF938CE5F4
:102D600096E0D6DBFF91EF91BF91AF919F918F914C
:102D70007F916F915F914F913F912F910F900BBE7B
:102D80000F900FBE0F901F9018951F920F920FB6C5
:102D90000F9211240BB60F922F933F934F935F9393
:102DA0006F937F938F939F93AF93BF93EF93FF9313
:102DB0008CE596E03CDBFF91EF91BF91AF919F9145
:102DC0008F917F916F915F914F913F912F910F90D4
:102DD0000BBE0F900FBE0F901F9018953FB7F89441
:102DE0008091630790916407A0916507B091660791
:102DF00026B5A89B05C02F3F19F00196A11DB11D56
:102E00003FBFBA2FA92F982F8827820F911DA11D90
:102E1000B11DBC01CD0142E0660F771F881F991FCD
:102E20004A95D1F708959F92AF92BF92CF92DF92C9
:102E3000EF92FF920F931F93CF93DF9300D000D0B8
:102E4000CDB7DEB7FC019681992309F4DCC06B0194
:102E50007F01915096835F0182E0A80EB11CC501ED
:102E6000A0D8D7011296ED91FC91139780818B35F4
:102E700021F08B3709F494C09EC0F70100811181C5
:102E8000B80184E090E00E94BD03009751F0DC019E
:102E900011961C930E9313961C921E9212978C01FE
:102EA00011C080916B0781110BC0109268071092BE
:102EB000670710926A071092690781E080936B0799
:102EC00007E617E06BE5C501AED8882309F448C0D2
:102ED0006DE5C501A8D8811154C086E0982E1A82EC
:102EE0001982BE016F5F7F4FC7019DDF8823C1F14B
:102EF000F8016081718188E090E00E94BD03DC01EF
:102F0000892B39F011961C921E9213961C921E92D8
:102F10001297F801228133812115310551F0F90111
:102F200080819181009711F09C01F9CFB183A0833A
:102F300003C0F801B383A283109791F0FE0131968C
:102F40001296892D01900D928A95E1F76DE5C501E4
:102F50006AD8811116C06CE2C50165D88111BFCF56
:102F600080916B0781110BC0109268071092670760
:102F700010926A071092690781E080936B0707E659
:102F800017E0D8018D919C91892B11F410E033C08A
:102F900086E090E0F60191838083138302832AC048
:102FA000C7010E94CC03DC012D913C91232B71F3CE
:102FB00027E030E01AC011E0873219F0823209F0C0
:102FC00010E0C7010E94A702009701F3112359F0F6
:102FD00022E030E0D60111963C932E9313969C93F9
:102FE0008E93129708C021E030E0F60131832083F0
:102FF0009383828311E0D70116968C9116978F5F89
:1030000016968C9301C010E0812F26960FB6F89487
:10301000DEBF0FBECDBFDF91CF911F910F91FF900B
:10302000EF90DF90CF90BF90AF909F900895CF9397
:10303000DF93EC0181E00E941005BE0180915C07E6
:1030400090915D07C2DD41E060E070E088EE93E0C2
:10305000DF91CF910C942B05362F90E0FC01E75EB9
:10306000FC4F4491FC01EE52FD4F2491FC01E457CA
:10307000FD4F9491992309F46BC0442309F455C082
:1030800050E0FA013197E231F10508F04EC088278F
:10309000E658FF4F8F4F0C946524809180008F7706
:1030A00007C0809180008F7D03C080918000877F62
:1030B000809380003AC084B58F7702C084B58F7D3D
:1030C00084BD33C08091B0008F7703C08091B00081
:1030D0008F7D8093B00029C0809190008F7707C0CA
:1030E000809190008F7D03C080919000877F8093B6
:1030F00090001BC08091A0008F7707C08091A00036
:103100008F7D03C08091A000877F8093A0000DC0B9
:10311000809120018F7707C0809120018F7D03C0AF
:1031200080912001877F80932001E92FF0E0EE0F4E
:10313000FF1FE85AFD4FA591B4918FB7F894EC9119
:10314000311103C020952E2301C02E2B2C938FBF4D
:1031500008958F929F92AF92BF92CF92DF92EF929B
:10316000FF926B017C013ADE4B015C01C114D1047A
:10317000E104F104E9F032DEDC01CB0188199909A0
:10318000AA09BB09883E9340A105B10578F321E067
:10319000C21AD108E108F10888EE880E83E0981E73
:1031A000A11CB11CC114D104E104F10421F7DECF4C
:1031B000FF90EF90DF90CF90BF90AF909F908F9057
:1031C00008952FB7F89460915F0770916007809120
:1031D0006107909162072FBF08951F920F920FB65B
:1031E0000F9211242F933F938F939F93AF93BF938D
:1031F00080915F0790916007A0916107B09162078D
:1032000030915E0723E0230F2D3720F40196A11D96
:10321000B11D05C026E8230F0296A11DB11D209304
:103220005E0780935F0790936007A0936107B09358
:1032300062078091630790916407A0916507B09140
:1032400066070196A11DB11D8093630790936407E3
:10325000A0936507B0936607BF91AF919F918F913F
:103260003F912F910F900FBE0F901F901895CF9305
:10327000DF93CDB7DEB7CA56D1090FB6F894DEBFDB
:103280000FBECDBF789484B5826084BD84B5816063
:1032900084BD85B5826085BD85B5816085BD809121
:1032A0006E00816080936E00109281008091810099
:1032B0008260809381008091810081608093810091
:1032C000809180008160809380008091B100846053
:1032D0008093B1008091B00081608093B0008091B4
:1032E0009100826080939100809191008160809331
:1032F0009100809190008160809390008091A10066
:1033000082608093A1008091A10081608093A100E0
:103310008091A00081608093A00080912101826053
:10332000809321018091210181608093210180910E
:10333000200181608093200180917A0084608093D5
:103340007A0080917A00826080937A0080917A007E
:10335000816080937A0080917A00806880937A00FF
:103360001092C10040E855E260E070E08CE596E024
:103370000E94001140E855E260E070E08FEB95E0BC
:103380000E94001140E052EC61E070E082E295E0C2
:103390000E94001118A61FA285E192E09EA38DA3B2
:1033A00087E289A780E18EA782E08FA718AA87E429
:1033B00092E0A1969FAF8EAFA1978E010B5D1F4F3C
:1033C000A3961FAF0EAFA397109218051092170582
:1033D00010921605109215051092140581E0809345
:1033E00013051092120561E084E136DE61E085E1AB
:1033F00033DE8091B9008E7F8093B9008091B9004F
:103400008D7F8093B90088E48093B80085E4809331
:10341000BC001AA68FA5823010F098E09AA78DA75D
:103420008BE39DE00197F1F768A9C8010E9475043C
:1034300068EE73E080E090E08CDE60E3C8010E94FB
:10344000D9044BE4E42E46E4F42EC7010197F1F7CA
:1034500060E3C8010E94D904C7010197F1F760E356
:10346000C8010E94D90483E592E00197F1F760E278
:10347000C8010E94D9046AA5606240E0C8010E94A8
:10348000EF0484E08BA740E06CE0C8010E94EF04E9
:10349000C8010E94080582E08CA740E066E0C801F0
:1034A0000E94EF0440E062E0C8010E94EF048BE359
:1034B0009FE10197F1F7A3968EAD9FADA39728E00A
:1034C000FC01238760E00E947504A3968EAD9FAD3A
:1034D000A3970E94080568E573E0A3968EAD9FADA3
:1034E000A39785DB61E0A3968EAD9FADA3970E9465
:1034F000D41065E673E0A3968EAD9FADA39777DBFE
:103500008E01055A1F4F8FE392E0F801918380836B
:1035100082E090E0938382830E94B5107E01F7E5FC
:10352000EF0EF11C87E392E0F701918380832FE592
:1035300030E02C0F3D1F338322836CE173E08CE578
:1035400096E055DB67E072E08CE596E03EDB82E2D8
:1035500095E090935D0780935C0755E0C52ED12CD4
:1035600084E092E064DD892B09F463C268EE73E0C5
:1035700080E090E0EEDD31E0C31AD10889F76CE11C
:1035800073E08CE596E033DB67EE71E08CE596E066
:103590001CDB68E873E180E090E0DBDD8FE292E025
:1035A0009AAB89AB8FE590E08C0F9D1F9CAB8BABEA
:1035B0001EAB0DABF8AEEFAAA4961FAEA497A596CE
:1035C0001FAEA597A6961FAEA697A7961FAEA79764
:1035D0008E010D5E1F4FFE0131967F0131E4432EB7
:1035E00032E0532E5E01FBE4AF0EB11C8091210549
:1035F000811119C28FEB95E00E946112892BB1F302
:1036000067EF72E0CE01C99625D98FEB95E0D4D94A
:1036100097FD05C0682FCE01C99695D8F6CF81E2F7
:1036200092E09C8B8B8B1F8A1E8A80E092E0998FA0
:10363000888FCE01C9960E94A31189AD9AAD0097DB
:1036400011F487EF92E01A8309839C838B831E8396
:103650000D838AE08F83C7010E94CC036C0181E255
:1036600092E09C8B8B8BEE89FF89309759F0828199
:103670009381998F888F80809180CF010E941C2533
:10368000F401F3CFCE01C996D8D846E753E0B6018E
:10369000CE018F5A9F4F0E943F1069E177E0CE0123
:1036A0008F5A9F4F0E944A13882309F464C14DE743
:1036B00053E0B601CE018B5B9F4F0E943F1042E862
:1036C00053E0B601CE01CF960E943F10CE018F5A33
:1036D0009F4F0E94A311CE018B5B9F4F0E94A311AD
:1036E000CE01CF960E94A31164E670E080E090E0E6
:1036F00030DDBE01615C7F4FC801A4D8BE016B5BA9
:103700007F4FCE01C9969ED8A801BE01675C7F4F4E
:10371000C7010E94A20ECE01C9968FD8C8018DD8CC
:103720006FA878ACBE016D5F7F4FC8018BD88F89C1
:10373000988D0E9487249C01382E232EC801AA96BA
:103740002FAFAA97AB963FAFAB9777D8BE016D5F0F
:103750007F4FC80177D88C898F938B898F932BE803
:10376000822E23E0922E9F928F92AB963FADAB9725
:103770003F93AA962FADAA972F930E94CB26C801FC
:103780005CD8BE01675F7F4FC8015CD88F89988D78
:103790000E9487249C01A8968FAFA897A9963FAF57
:1037A000A997C801AA962FAFAA97AB963FAFAB9740
:1037B00044D8BE01675F7F4FC80144D88C898F937E
:1037C0008B898F939F928F92AB963FADAB973F9330
:1037D000AA962FADAA972F930E94CB26C8012DD869
:1037E000F3018280938060E0F401828193810E94E2
:1037F000D4106FE873E0F40182819381F8D90FB699
:10380000F894DEBF0FBECDBF812C912C60EA73E02F
:103810008CE596E0C8D931E030931F05A9962FAD0D
:10382000A9972F93A8963FADA8973F932F923F92C9
:103830008EE48F9390E29F935F924F920E94E805EF
:103840000FB6F894DEBF0FBECDBF6CE173E0892BDD
:10385000B1F48CE596E0CBD96FE172E08CE596E0AF
:10386000D9D860EF73E08CE596E0C1D9632D722D55
:103870008CE596E098D966246394712C1DC08CE584
:1038800096E0B5D96CE272E08CE596E0C3D860EFC3
:1038900073E08CE596E0ABD9632D722D8CE596E054
:1038A00082D968EE73E080E090E053DC80E00E9413
:1038B000100582E0682E712C64E670E080E090E0F4
:1038C00048DCFFEF8F1A9F0A6BEA73E08CE596E005
:1038D0008ED9C4010E94671164EB73E08CE596E019
:1038E00086D981E090E021E06216710411F080E059
:1038F00090E00E9467116A94672809F478C183E018
:103900008816910409F082CF8BA89CA860E0F4018E
:10391000828193810E94D41062EF73E0F40182816E
:10392000938165D98DA89EA828EE33E048EE53E038
:1039300060ED77E0C4010E94540728EE33E048EEC2
:1039400053E060ED77E0C4010E94540728EE33E0B5
:1039500048EE53E060ED77E0C4010E945407C701D0
:103960000E94CA0ACE01CF960E941D14CE018B5B25
:103970009F4F0E941D1463E177E0CE018F5A9F4F45
:103980000E944A13882309F448C06DEB73E0C60116
:103990000E943110AC01BE016F5C7F4FC8010E94D4
:1039A000350366EC73E0C6010E943110AC01BE0124
:1039B0006F5C7F4FC7010E94350387E292E0F501FB
:1039C0009183808313830283F582E48281E0809374
:1039D0002005CBA8DCA861E0F601828193810E94DA
:1039E000D41060ED73E0F6018281938100D928EC58
:1039F00030E040E050E068E273E28DA99EA90E94A9
:103A00005407C7010E94DB0AC8010E94DB0AA49682
:103A1000AFAEA497A596BFAEA597CE018F5A9F4F84
:103A20000E941D14E3CD80912005882309F4E2CD86
:103A300001C187EA91E0FBDA68EB7BE080E090E08F
:103A400088DB80E00E94100582EA91E0F0DA86E9E6
:103A500091E0EDDA68EC70E080E090E07ADB8AE8F3
:103A600091E0E5DA8CE791E0E2DA8CE691E0DFDAEA
:103A70008EE591E0DCDA68EC70E080E090E069DBF4
:103A8000109219056AE471E0CE01019632D25E010E
:103A9000F3E1AF0EB11C67E471E0C5012AD21092C8
:103AA000190581E00E94100567E571E080915C07CF
:103AB00090915D078AD841E0BE016F5F7F4F88EE2D
:103AC00093E00E942B058530910509F046C0809156
:103AD0000D0790910E079093120780931107409164
:103AE0000B0750910C074F5F5F4F60E070E00E9442
:103AF000A52641E0B50184EF91E00E942B050597D2
:103B000021F5F50101900020E9F73197EA19FB0949
:103B100060910D0770910E074091110750911207A7
:103B2000461B570B4E1B5F0B4630510510F045E00E
:103B300050E089E195E00E94BC2641E060E070E041
:103B400080ED97E00E942B0514C06CE173E08CE5DA
:103B500096E04DD868E271E009C0059750F06CE13D
:103B600073E08CE596E043D86AE371E08CE596E07B
:103B70002CD80FB6F894DEBF0FBECDBF80911905CB
:103B800081536CE173E0823020F480911A058E320B
:103B9000C9F08CE596E02BD869EC71E08CE596E0F5
:103BA0000E940A1560EF73E08CE596E020D869E189
:103BB00075E08CE596E00E94D31560EA7FE080E036
:103BC00090E0EBCC8CE596E012D86EEA71E08CE5E3
:103BD00096E00E940A1560EF73E08CE596E007D846
:103BE00069E175E08CE596E00E94D315D7CC81E0C1
:103BF000809321058BA89CA860E0F40182819381C9
:103C00000E94D41061EE73E0F401828193810E94DE
:103C1000F71528EC30E040E050E068E273E28DA94F
:103C20009EA90E945407A696EFAEA697A796FFAE50
:103C3000A79795CE63E074E08CE596E00E94D315DB
:103C40000BA91CA9F801828193810E94080564E1F7
:103C500074E0F801828193810E94F7150DA91EA9D5
:103C600028EC30E044EF51E068E273E2C8010E94C2
:103C7000540728EC30E044EF51E068E273E2C801F9
:103C80000E945407A696FFADA697F0930707A79644
:103C90002FADA79720930807A4963FADA497309324
:103CA0000907A5968FADA59780930A0780912105F6
:103CB00081118091200590E00E9467110E941013ED
:103CC000FDCF83E197E00E941D1489E197E00C94F9
:103CD0001D14CF92DF92EF92FF920F931F93CF9319
:103CE000DF93EFE1F7E0C7EED2E0D183C083128229
:103CF000138214821582E2E2F5E01382128288EECA
:103D0000C82E83E0D82EE12CF12CC482D582E68225
:103D1000F7828FEA92E09183808325ED30E035874A
:103D2000248724ED30E03787268720ED30E0318B83
:103D3000208B21ED30E0338B228B22ED30E0358B70
:103D4000248B26ED30E0378B268B118E128E138E4E
:103D5000148EEFEBF5E013821282C482D582E682E4
:103D6000F782918380832DEC30E0358724872CEC1B
:103D700030E03787268728EC30E0318B208B29EC28
:103D800030E0338B228B2AEC30E0358B248B2EEC09
:103D900030E0378B268B118E128E138E148EECE54D
:103DA000F6E013821282C482D582E682F782918382
:103DB000808385EC90E09587848784EC90E09787FA
:103DC000868780EC90E0918B808B81EC90E0938BE8
:103DD000828B82EC90E0958B848B86EC90E0978BC5
:103DE000868B118E128E138E148EEFE4F7E0D18342
:103DF000C083128213821482158261E474E089E127
:103E000097E00E942A1469E474E083E197E00E943D
:103E10002A14E5E2F7E0D183C08312821382148270
:103E20001582EBE2F7E0D183C08312821382148201
:103E30001582E1E3F7E0D183C083128213821482FA
:103E40001582E7E3F7E0D183C083128213821482E4
:103E50001582EDE3F7E0D183C083128213821482CE
:103E60001582E9E4F7E0D183C083128213821482C1
:103E700015820BE017E080E290E0F80191838083E7
:103E800081E290E044D5F801938382839C01205E17
:103E90003F4F358324839783868321E2FC0111926F
:103EA0002A95E9F7E9EFF6E013821282C482D582FF
:103EB000E682F78281EC92E091838083E3E4F7E08D
:103EC000D183C0831282138214821582E5E0F7E069
:103ED0008FED92E091838083138212821582148287
:103EE000DF91CF911F910F91FF90EF90DF90CF90D6
:103EF0000895FB01DC0105900D920020E1F7089583
:103F00000F931F93CF93DF93CDB7DEB72E970FB6E6
:103F1000F894DEBF0FBECDBF8C01CA014EE04C83CA
:103F20001A83098377FF02C060E070E8FB013197D4
:103F3000FE83ED83A901BC01CE01019619D04D810C
:103F40005E8157FD0AC02F813885421753070CF454
:103F50009A01F801E20FF31F10822E960FB6F89423
:103F6000DEBF0FBECDBFDF91CF911F910F9108959E
:103F70002F923F924F925F926F927F928F929F9279
:103F8000AF92BF92CF92DF92EF92FF920F931F9367
:103F9000CF93DF93CDB7DEB72C970FB6F894DEBF83
:103FA0000FBECDBF7C016B018A01FC011782168216
:103FB000838181FFB0C1CE0101964C01F70193814D
:103FC000F60193FD859193FF81916F01882309F498
:103FD0009EC1853239F493FD859193FF81916F01E4
:103FE000853221F4B70190E0C7D1E8CF512C312CB4
:103FF00020E02032A0F48B3269F030F4803259F0A6
:10400000833269F420612CC08D3239F0803339F469
:10401000216026C02260246023C0286021C027FDC3
:1040200027C030ED380F3A3078F426FF06C0FAE0AA
:104030005F9E300D1124532E13C08AE0389E300D40
:104040001124332E20620CC08E3221F426FD5FC174
:10405000206406C08C3611F4206802C0883641F412
:10406000F60193FD859193FF81916F018111C1CF7D
:10407000982F9F7D9554933028F40C5F1F4FFFE3DA
:10408000F9830DC0833631F0833771F0833509F041
:1040900057C021C0F801808189830E5F1F4F4424DF
:1040A0004394512C540114C03801F2E06F0E711C7E
:1040B000F801A080B18026FF03C0652D70E002C02A
:1040C0006FEF7FEFC5012C874CD12C0183012C852C
:1040D0002F77222E16C03801F2E06F0E711CF80106
:1040E000A080B18026FF03C0652D70E002C06FEF95
:1040F0007FEFC5012C872AD12C012C852068222E28
:10410000830123FC19C0832D90E048165906A0F4C2
:10411000B70180E290E030D13A94F5CFF50127FC69
:10412000859127FE81915F01B70190E025D1311083
:104130003A94F1E04F1A51084114510479F7DEC066
:10414000843611F0893631F5F80127FF07C0608108
:104150007181828193810C5F1F4F08C060817181E2
:10416000072E000C880B990B0E5F1F4F2F76722EB7
:1041700097FF09C090958095709561957F4F8F4FFF
:104180009F4F2068722E2AE030E0A4012DD1A82E86
:10419000A81843C0853729F42F7EB22E2AE030E0DC
:1041A00025C0F22FF97FBF2E8F36C1F018F4883565
:1041B00079F0ADC0803719F0883721F0A8C02F2FD3
:1041C0002061B22EB4FE0DC08B2D8460B82E09C0C4
:1041D00024FF0AC09F2F9660B92E06C028E030E069
:1041E00005C020E130E002C020E132E0F801B7FE76
:1041F00007C060817181828193810C5F1F4F06C06F
:104200006081718180E090E00E5F1F4FA401ECD0CF
:10421000A82EA818FB2DFF777F2E76FE0BC0372D1A
:104220003E7FA51450F474FE0AC072FC08C0372DFE
:104230003E7E05C0BA2C372D03C0BA2C01C0B52C68
:1042400034FF0DC0FE01EA0DF11D8081803311F4B1
:10425000397E09C032FF06C0B394B39404C0832FE3
:10426000867809F0B39433FD12C030FF06C05A2C93
:10427000B31418F4530C5B18B32CB31460F4B701E7
:1042800080E290E03C8778D0B3943C85F6CFB314BD
:1042900010F43B1801C0312C34FF11C0B70180E38A
:1042A00090E03C8769D03C8532FF16C031FD03C0E9
:1042B00088E790E002C088E590E0B7010CC0832F4A
:1042C000867851F031FF02C08BE201C080E237FDF9
:1042D0008DE2B70190E050D0A51430F4B70180E32F
:1042E00090E04AD05A94F8CFAA94F401EA0DF11D57
:1042F0008081B70190E040D0A110F6CF332009F4BF
:104300005DCEB70180E290E037D03A94F7CFF70165
:104310008681978102C08FEF9FEF2C960FB6F8949D
:10432000DEBF0FBECDBFDF91CF911F910F91FF90E8
:10433000EF90DF90CF90BF90AF909F908F907F9045
:104340006F905F904F903F902F900895FC010590E3
:10435000615070400110D8F7809590958E0F9F1F87
:104360000895FC016150704001900110D8F78095CC
:1043700090958E0F9F1F08950F931F93CF93DF93F8
:10438000FB01238121FD03C08FEF9FEF28C022FF97
:1043900016C046815781248135814217530744F462
:1043A000A081B1819D012F5F3F4F318320838C938A
:1043B000268137812F5F3F4F3783268310C0EB0163
:1043C000092F182F0084F185E02D1995892BE1F62E
:1043D0008E819F8101969F838E83812F902FDF9105
:1043E000CF911F910F910895FA01AA27283051F11A
:1043F000203181F1E8946F936E7F6E5F7F4F8F4F16
:104400009F4FAF4FB1E03ED0B4E03CD0670F781F74
:10441000891F9A1FA11D680F791F8A1F911DA11D59
:104420006A0F711D811D911DA11D20D009F4689492
:104430003F912AE0269F11243019305D3193DEF63A
:10444000CF010895462F4770405D4193B3E00FD0F0
:10445000C9F7F6CF462F4F70405D4A3318F0495DDB
:1044600031FD4052419302D0A9F7EACFB4E0A695BE
:104470009795879577956795BA95C9F700976105E0
:10448000710508959B01AC010A2E06945795479536
:1044900037952795BA95C9F7620F731F841F951F2B
:1044A000A01D089540D008F481E00895E89409C063
:1044B00097FB3EF490958095709561957F4F8F4F57
:1044C0009F4F9923A9F0F92F96E9BB279395F6956D
:1044D000879577956795B795F111F8CFFAF4BB0FEB
:1044E00011F460FF1BC06F5F7F4F8F4F9F4F16C04F
:1044F000882311F096E911C0772321F09EE8872FD9
:10450000762F05C0662371F096E8862F70E060E094
:104510002AF09A95660F771F881FDAF7880F96950D
:10452000879597F90895990F0008550FAA0BE0E8B1
:10453000FEEF16161706E807F907C0F01216130665
:10454000E407F50798F0621B730B840B950B39F4A5
:104550000A2661F0232B242B252B21F408950A260B
:1045600009F4A140A6958FEF811D811D08950BD000
:1045700078C069D028F06ED018F0952309F05AC0A1
:104580005FC01124A2C07ED0A0F3959FD1F3950FF8
:1045900050E0551F629FF001729FBB27F00DB11DC7
:1045A000639FAA27F00DB11DAA1F649F6627B00D57
:1045B000A11D661F829F2227B00DA11D621F739F40
:1045C000B00DA11D621F839FA00D611D221F749F4E
:1045D0003327A00D611D231F849F600D211D822F95
:1045E000762F6A2F11249F5750408AF0E1F08823DC
:1045F0004AF0EE0FFF1FBB1F661F771F881F9150E9
:104600005040A9F79E3F510570F014C05EC05F3F57
:10461000ECF3983EDCF3869577956795B795F7951B
:10462000E7959F5FC1F7FE2B880F911D96958795A3
:1046300097F9089597F99F6780E870E060E0089522
:104640009FEF80EC089500240A94161617061806AA
:104650000906089500240A94121613061406050686
:104660000895092E0394000C11F4882352F0BB0F17
:1046700040F4BF2B11F460FF04C06F5F7F4F8F4F7A
:104680009F4F089557FD9058440F551F59F05F3FB5
:1046900071F04795880F97FB991F61F09F3F79F064
:1046A00087950895121613061406551FF2CF4695E6
:1046B000F1DF08C0161617061806991FF1CF869568
:1046C0007105610508940895E894BB27662777274C
:1046D000CB0197F90895A1E21A2EAA1BBB1BFD017D
:1046E0000DC0AA1FBB1FEE1FFF1FA217B307E407D1
:1046F000F50720F0A21BB30BE40BF50B661F771F29
:10470000881F991F1A9469F7609570958095909508
:104710009B01AC01BD01CF010895A29FB001B39FE1
:10472000C001A39F700D811D1124911DB29F700DBA
:10473000811D1124911D08955058BB27AA270ED022
:1047400090CF81DF30F086DF20F031F49F3F11F40D
:104750001EF476CF0EF4E095E7FB6CCFE92F92DFE5
:1047600080F3BA17620773078407950718F071F48E
:104770009EF5AACF0EF4E0950B2EBA2FA02D0B01BB
:10478000B90190010C01CA01A0011124FF27591B96
:1047900099F0593F50F4503E68F11A16F040A22F9C
:1047A000232F342F4427585FF3CF4695379527950D
:1047B000A795F0405395C9F77EF41F16BA0B620B0C
:1047C000730B840BBAF09150A1F0FF0FBB1F661F53
:1047D000771F881FC2F70EC0BA0F621F731F841F96
:1047E00048F4879577956795B795F7959E3F08F0BC
:1047F000B3CF9395880F08F09927EE0F979587957B
:10480000089504D06894B11160CF089543DF88F013
:104810009F5790F0B92F9927B751A0F0D1F0660FAC
:10482000771F881F991F1AF0BA95C9F712C0B130C7
:1048300081F04ADFB1E0089547CF672F782F8827AE
:10484000B85F39F0B93FCCF3869577956795B39506
:10485000D9F73EF490958095709561957F4F8F4F75
:104860009F4F089560DE08F48FEF089597FB072EA1
:1048700016F4009406D077FD08D035D007FC05D09B
:104880003EF4909581959F4F0895709561957F4F67
:104890000895052E97FB16F400940FD057FD05D010
:1048A0001ADF07FC02D046F408C0509540953095B9
:1048B00021953F4F4F4F5F4F08959095809570958C
:1048C00061957F4F8F4F9F4F0895EE0FFF1F881FF9
:1048D0008BBF0790F691E02D19941FDFB7FF089565
:1048E000821B930B0895AA1BBB1B51E107C0AA1F93
:1048F000BB1FA617B70710F0A61BB70B881F991F81
:104900005A95A9F780959095BC01CD010895CF9354
:10491000DF938230910510F482E090E0E09175071A
:10492000F091760720E030E0C0E0D0E0309711F160
:104930004081518148175907C0F04817590761F461
:1049400082819381209719F09B838A832BC0909357
:1049500076078093750726C02115310519F0421797
:10496000530718F49A01BE01DF01EF010280F381C1
:10497000E02DDCCF2115310509F1281B390B24303E
:10498000310590F412968D919C91139761157105E4
:1049900021F0FB019383828304C090937607809378
:1049A0007507FD01329644C0FD01E20FF31F8193AC
:1049B0009193225031092D933C933AC02091730773
:1049C00030917407232B41F42091030230910402AB
:1049D00030937407209373072091010230910202F3
:1049E0002115310541F42DB73EB740910502509194
:1049F0000602241B350BE0917307F0917407E21750
:104A0000F307A0F42E1B3F0B2817390778F0AC01F1
:104A10004E5F5F4F2417350748F04E0F5F1F5093CE
:104A20007407409373078193919302C0E0E0F0E034
:104A3000CF01DF91CF9108950F931F93CF93DF9311
:104A4000009709F48CC0FC01329713821282009106
:104A50007507109176070115110581F420813181C8
:104A6000820F931F2091730730917407281739071D
:104A700079F5F0937407E093730771C0D80140E0B3
:104A800050E0AE17BF0750F412962D913C9113974A
:104A9000AD012115310509F1D901F3CF9D01DA01ED
:104AA0003383228360817181860F971F821793075A
:104AB00069F4EC0128813981260F371F2E5F3F4FA3
:104AC000318320838A819B8193838283452B29F4C0
:104AD000F0937607E093750742C01396FC93EE932C
:104AE0001297ED01499159919E01240F351FE2174C
:104AF000F30771F480819181840F951F02961196BE
:104B00009C938E938281938113969C938E9312979C
:104B1000E0E0F0E0D80112968D919C9113970097F8
:104B200019F0F8018C01F6CF8D919C9198012E5FC0
:104B30003F4F820F931F20917307309174072817FE
:104B4000390769F4309729F41092760710927507A7
:104B500002C0138212821093740700937307DF91CF
:104B6000CF911F910F9108956F927F928F929F9294
:104B7000AF92BF92CF92DF92EF92FF920F931F936B
:104B8000CF93DF93EC01009781F4CB01DF91CF91BC
:104B90001F910F91FF90EF90DF90CF90BF90AF905B
:104BA0009F908F907F906F90B2CEFC01E60FF71F21
:104BB0009C0122503109E217F30708F4A8C0D9017B
:104BC0000D911C91119706171707A8F005301105D4
:104BD00008F49BC0C80104978617970708F495C08E
:104BE00002501109061B170B019311936D937C93CF
:104BF000CF0122DF8AC05B01A01AB10A4C01800EEE
:104C0000911EA0917507B091760740E050E0E12C2D
:104C1000F12C109709F44AC0A815B905D1F56D908B
:104C20007C901197630182E0C80ED11CCA14DB048A
:104C300080F1A3014A195B096A0182E0C80ED11C08
:104C40001296BC9012971396AC91B5E0CB16D10496
:104C500040F0B282A38351834083D9016D937C934A
:104C60000AC00E5F1F4FC301800F911FF90191838E
:104C70008083EB2DFA2FE114F10431F0D701139664
:104C8000FC93EE93129741C0F0937607E09375077B
:104C90003CC08D919C9111974817590708F4AC01BD
:104CA0007D0112960D90BC91A02DB3CF809173071A
:104CB0009091740788159905E1F446175707C8F4D1
:104CC0008091010290910202009741F48DB79EB746
:104CD0004091050250910602841B950BE817F907D5
:104CE000B0F4F0937407E0937307F9017183608364
:104CF0000CC0CB010CDE7C01009749F0A801BE017D
:104D00001BD0CE0199DEC70104C0CE0102C080E0F5
:104D100090E0DF91CF911F910F91FF90EF90DF9086
:104D2000CF90BF90AF909F908F907F906F9008959D
:104D300081E090E0F8945EC0FB01DC0102C00190CC
:104D40000D9241505040D8F70895DC0101C06D9399
:104D500041505040E0F70895FB01DC018D91019036
:104D600080190110D9F3990B0895FB01DC01019022
:104D70000D920020E1F70895FB01DC014150504005
:104D800048F001900D920020C9F701C01D924150DA
:104D90005040E0F708950F931F93CF93DF93CDB763
:104DA000DEB72E970FB6F894DEBF0FBECDBF0E89CB
:104DB0001F8986E08C831A8309838FEF9FE79E8388
:104DC0008D83AE01465E5F4F688D798DCE01019671
:104DD000CFD82F813885F801E20FF31F10822E966D
:104DE0000FB6F894DEBF0FBECDBFDF91CF911F91FC
:104DF0000F91089511E0C1EBD1E000E005C0802FD4
:104E0000FE0163DD2196011DC23BD10780E008074A
:064E1000B1F7F894FFCF9A
:104E1600FF00007707800027032E03380341034D68
:104E260003000000000305EC110B020A020000005B
:104E360000890E00000000CA0EEC0A0000000034D3
:104E4600039D02000000007404A10200000000534C
:104E560007A502000000005207A3020000803FCD14
:104E6600CCCC3D6F12833A95BFD6337D1D9026B3C9
:104E7600CE010CCDCCCC3D0AD7233C17B7D1387721
:104E8600CC2B329595E6241FB14F0A000020410035
:104E960000C84200401C4620BCBE4CCA1B0E5AAE7F
:104EA600C59D7400000000DB0AEE0A00000000CA7F
:104EB6000A4013000040001400540000000000A93E
:104EC60012EC113012EF1261123F12531200000061
:104ED600006F0240020B02E4010202F301E5010049
:104EE6000000003E13EC110B020A020000000073E2
:104EF600049F02000000008B1522225C5C6208669B
:104F06000C6E0A720D740900646567726565006D42
:104F1600696E757465007365636F6E6400636172B4
:104F260064696E616C5F706F696E74005B57694689
:104F3600694573705D20000D0A4F4B0D0A000D0A7E
:104F46004552524F520D0A000D0A4641494C0D0A70
:104F5600000D0A53454E44204F4B0D0A0020434F87
:104F66004E4E4543540D0A0057696669206F6666C2
:104F76006C696E65004C6F636174696F6E206F6655
:104F8600666C696E6500616374696F6E0073736940
:104F9600640070617373776F726400253173004328
:104FA6006F6E6E656374696E672E2E2E202020004C
:104FB600636F6E6E656374696E670072657472699D
:104FC60065733A00636F6E6E6563743A006C617464
:104FD6006974756465006C6F6E67697475646500E5
:104FE6004C4F434154494F4E204F4B202020202008
:104FF6000057494649204F4B2020202020202020C2
:10500600200057696669206E6F7420636F6E6E6547
:10501600637400414C41524D20434F4E464947551B
:1050260052454400414C41524D204F4E4C494E454D
:10503600006E756C6C00747275650066616C7365E4
:10504600004E614E00652D00496E66696E69747981
:1050560000434F4E4E454354005345545F4C4F4317
:065066004154494F4E00C9
:00000001FF
