:10000000E9C2000018C3000016C3000014C30000BA
:1000100012C3000010C300000EC300000CC3000098
:100020000AC3000008C3000006C3000004C30000A8
:1000300002C300000C94D019FEC20000FCC20000F4
:10004000FAC20000F8C20000F6C20000F4C20000CC
:10005000F2C20000F0C20000EEC200000C94FA28C8
:10006000EAC200000C948B1C0C94621CE4C20000D9
:10007000E2C20000E0C20000DEC20000DCC20000FC
:10008000DAC20000D8C20000D6C20000D4C200000C
:100090000C94391C0C94101CCEC20000EAC3000062
:1000A000CAC20000C8C20000C6C20000C4C200002C
:1000B000C2C20000C0C20000BEC20000BCC200003C
:1000C000BAC20000B8C20000B6C200000C94E71B20
:1000D0000C94BE1BB0C20000AEC20000ACC2000057
:1000E000AAC20000B206AC06C206BA06B706860669
:1000F000A6064D0681258425732577257D25BB25FC
:1001000088258C25922596259A25A025A425A82505
:10011000BB25AE25B225B6254E414E494E49545910
:10012000494E46CDCCCC3D0AD7233C17B7D13877C2
:10013000CC2B329595E6241FB14F0A0000204100D8
:1001400000C84200401C4620BCBE4CCA1B0E5AAE22
:10015000C59D740D0A0053444B2076657273696F18
:100160006E3A0041542B474D520041542B435744A3
:100170004843503D312C310041542B435741555495
:100180004F434F4E4E3D300041542B43495044495C
:100190004E464F3D310041542B4349504D55583D3B
:1001A000310041542B43574D4F44453D310041549C
:1001B00045300041542B52535400496E6974696CA8
:1001C000697A6174696F6E207375636365737366B2
:1001D000756C202D005761726E696E673A20556EFE
:1001E000737570706F72746564206669726D776183
:1001F00072650043616E6E6F7420696E6974696127
:100200006C697A6520455350206D6F64756C65008C
:10021000415400496E697469616C697A696E67203E
:10022000455350206D6F64756C65000D0A00535482
:10023000415455533A0041542B434950535441546F
:10024000555300436F6E6E656374656420746F0070
:100250004661696C656420636F6E6E656374696E78
:100260006720746F0041542B43574A41505F4355F8
:10027000523D222573222C222573220041542B4308
:100280004950535441545553002B43495053544102
:100290005455533A25642C00005EBCE2613FDD8377
:1002A000C29C7E20A3FD1F419DC3217FFCA2401E56
:1002B0005F01E3BD3E6082DC237D9FC1421CFEA046
:1002C000E1BF5D0380DE3C62BEE0025CDF81633D36
:1002D0007C22C09E1D43A1FF4618FAA427799BC526
:1002E00084DA3866E5BB5907DB856739BAE4065816
:1002F0001947A5FB7826C49A653BD987045AB8E606
:10030000A7F91B45C6987A24F8A6441A99C7257BF5
:100310003A6486D85B05E7B98CD2306EEDB3510FE5
:100320004E10F2AC2F7193CD114FADF3702ECC92D5
:10033000D38D6F31B2EC0E50AFF1134DCE90722CC5
:100340006D33D18F0C52B0EE326C8ED0530DEFB1B5
:10035000F0AE4C1291CF2D73CA947628ABF51749A5
:100360000856B4EA6937D58B5709EBB536688AD495
:1003700095CB2977F4AA4816E9B7550B88D6346A85
:100380002B7597C94A14F6A8742AC896154BA9F775
:10039000B6E80A54D7896B354E6F20736F636B656F
:1003A0007420617661696C61626C650041542B4315
:1003B000495053544152543D25642C2254435022F9
:1003C0002C222573222C257500436F6E6E65637495
:1003D000696E6720746F0002456E64207461672047
:1003E0006E6F7420666F756E64004E6F2074616767
:1003F00020666F756E64003E3E3E2054494D454F69
:100400005554203E3E3E0025642E25642E25642E44
:1004100025640044617461207061636B65742073AE
:10042000656E64206572726F722028322900446103
:100430007461207061636B65742073656E64206500
:1004400072726F72202831290041542B4349505356
:10045000454E443D25642C2575004661696C6564F4
:1004600020746F20777269746520746F20736F63D6
:100470006B65740041542B434950434C4F53453DE9
:10048000256400446973636F6E6E656374696E679B
:10049000200000002100240027002A002D00300049
:1004A000330001010000040107010A0100002200DD
:1004B000250028002B002E0031003400020100002E
:1004C000050108010B01000020002300260029007F
:1004D0002C002F0032000001000003010601090179
:1004E00005050505070508080808020202020A0AB0
:1004F00008080404040401010101010101010303CE
:10050000030303030303040707070C0C0C0C0C0C78
:100510000C0C0202020206060606060606060B0B75
:100520000B0B0B0B0B0B01021020200808102040B6
:1005300010204080020102010804020101020408A7
:100540001020408080402010080402018004020135
:10055000804020100804020108040201010204087E
:1005600010204080010204081020408000000A0B87
:1005700002090C0D0E080703040100000000000032
:10058000000000000000000000000000000000006B
:100590000000000000000000121110000000000028
:1005A000000000000000000000000000000000004B
:1005B000000054494D454F55543A0054616720435B
:1005C0004C4F534544206E6F7420666F756E640007
:1005D0005E314A3111241FBECFEFD1E2DEBFCDBF65
:1005E00000E00CBF29E0AEE8B6E001C01D92A03EDD
:1005F000B207E1F716E0A0E0B2E0E8EFF8E700E0CC
:100600000BBF02C007900D92AE38B107D9F712E0C8
:10061000C9EED2E000E006C021970109802FFE015B
:100620000E94CA39C83ED10780E00807A9F70E9496
:1006300044290C946B3CE4CC85ED8093BC00809104
:10064000BC0084FDFCCF109290060895FC01268129
:100650003781620F731F848195818617970738F061
:100660008281938177836683820F931F089580E050
:1006700090E00895DB01109749F0ED91FC911197FE
:100680000190F081E02DBC01CD01199480E090E053
:1006900008950C94813A0C94813A0C94813A0C940C
:1006A000813A0C94813A0C94813A0C94813A0C94DE
:1006B000813AEF92FF920F931F93CF93DF93EC0158
:1006C000E880F980D7018D919C91FC01048115810E
:1006D0006115710551F0FB0101900020E9F7319798
:1006E000AF01461B570B0E94E218D701ED91FC9118
:1006F000848195812A813B81280F391F201B310B72
:100700003B832A83DF91CF911F910F91FF90EF9050
:1007100008950F931F93CF93DF93CDB7DEB76697FE
:100720000FB6F894DEBF0FBECDBF8C01CB011E8A81
:10073000FE0176962AE030E0B9010E949B3990E3F1
:10074000980F9293CB010097B9F7BF01C801B1DFB1
:1007500066960FB6F894DEBF0FBECDBFDF91CF9186
:100760001F910F9108958F929F92AF92BF92EF9237
:10077000FF920F931F93CF93DF93CDB7DEB76697AA
:100780000FB6F894DEBF0FBECDBF7C011E8A8E016E
:100790000A5E1F4F8AE0882E912CA12CB12CCB0130
:1007A000BA01A50194010E94C238942F852F605D83
:1007B000F80162938F01A901692F782F4115510526
:1007C0006105710561F7BF01C70173DF66960FB65A
:1007D000F894DEBF0FBECDBFDF91CF911F910F9177
:1007E000FF90EF90BF90AF909F908F900895CF9320
:1007F000DF93EC01E881F981808191810E940F19DA
:100800008A819B8101969B838A83DF91CF91089592
:10081000FF920F931F93CF93DF936115710541F4FE
:1008200061EE74E0DF91CF911F910F91FF9041CF66
:100830008B01EC0162E2CE01DADFF80161918F01F8
:10084000662351F0E2EDF4E0F080FF20A1F3918106
:10085000961751F03296F8CF62E2CE01DF91CF9138
:100860001F910F91FF90C3CF6CE5CE01C0DF6F2DBC
:10087000E2CF1F920F920FB60F9211240BB60F9278
:100880002F933F934F935F936F937F938F939F9398
:10089000AF93BF93EF93FF938091B900887F803629
:1008A00009F49CC068F5883209F45BC090F480318B
:1008B00009F454C038F4882309F4F6C0883009F4E8
:1008C0004DC0F5C0883109F44CC0803209F45DC0D8
:1008D000EEC0803409F468C048F4803309F455C090
:1008E000883309F0E4C080934707D8C0803509F405
:1008F0004FC0883509F45DC0883409F0D8C0D6C02F
:10090000883909F4C7C0A8F4883709F467C038F4F7
:10091000883609F463C0803709F460C0C8C08838DD
:1009200009F4B8C0803909F45FC0803809F0BFC04D
:100930005BC0803B09F486C038F4803A09F466C095
:10094000883A09F47FC0B3C0803C09F4A7C0883C52
:1009500009F4A4C0883B09F48AC0A9C08091240787
:1009600010C09091460780914507981770F5E09167
:10097000460781E08E0F80934607F0E0EB5DF84F6D
:1009800080818093BB0085EC86C0809347078EC032
:10099000E091460781E08E0F809346078091BB006F
:1009A000F0E0EB5DF84F808390914607809145071A
:1009B0006EC0E091460781E08E0F809346078091DC
:1009C000BB00F0E0EB5DF84F808380918F068111D2
:1009D0006DC081E080938E0684EA61C083E08093DD
:1009E000900610922307CFCF80912307803208F022
:1009F00051C0E091230781E08E0F809323078091FF
:100A0000BB00F0E0ED5FF84F8083BDCF85EC8093B5
:100A1000BC001092900680912307803230F4E09160
:100A20002307F0E0ED5FF84F10826091230770E03C
:100A3000E0910107F091020783E097E01995109289
:100A4000230735C084E0809390061092000710922F
:100A5000FF06E091FD06F091FE0619958091FF06D4
:100A6000811105C081E08093FF061092DD06E091C0
:100A7000000781E08E0F80930007F0E0E352F94F0A
:100A800080818093BB00909100078091FF069817AA
:100A900008F479CF85E88093BC0009C085EC809389
:100AA000BC001092900603C010924707C5DDFF916D
:100AB000EF91BF91AF919F918F917F916F915F91D6
:100AC0004F913F912F910F900BBE0F900FBE0F9043
:100AD0001F9018954091FF06262F30E0240F311DFE
:100AE00021323105DCF4209190062430C9F4FC0158
:100AF00080E090E0861758F43091FF062191DC01E8
:100B0000A352B94FA30FB11D2C930196F3CF80913F
:100B1000FF06680F6093FF0680E0089581E0089566
:100B200082E00895089508950895CF93DF93EC012E
:100B300066EE74E08FEB98E00E949D1BEA81FB81DA
:100B4000828193810E942F25EA81FB818481958196
:100B50000E942F258A819B8106960E9446248A81C5
:100B60009B810C96DF91CF910C94462408950895B3
:100B70000895CF93DF93EC01688179818AE090E05A
:100B800079DD009729F0FC01118210821582148210
:100B9000EA81FB81309751F02081318121153105A7
:100BA00011F0F901F9CF9183808302C09B838A837E
:100BB000DF91CF9108950F931F93CF93DF938B0114
:100BC000FC01C281D381209759F06A817B81C801E1
:100BD0000E941C3C892B21F00990D881C02DF3CFB5
:100BE000CE01DF91CF911F910F9108950F931F9325
:100BF000CF93DF938C01EB016BE7CE01F8DDF801B9
:100C0000028113810115110591F0F8016281738150
:100C1000CE01FEDD6AE3CE01EADDBE01C801049625
:100C200011D0F801008111810115110539F46DE72A
:100C3000CE01DF91CF911F910F91D9CD6CE2CE0102
:100C4000D6DDE0CF2F923F924F925F926F927F92CC
:100C50008F929F92AF92BF92CF92DF92EF92FF92CC
:100C60000F931F93CF93DF93CDB7DEB766970FB681
:100C7000F894DEBF0FBECDBFDC01ED91FC91119762
:100C80003197E830F10508F0F5C11B018C01882788
:100C9000EE58FF4F8F4F0C94CA39FD01C280D380AC
:100CA000E480F580A7019601C701B6010E94A9372B
:100CB000882319F069E075E073C020E030E0A901F5
:100CC000C701B6010E94A93787FF07C06DE2C101C5
:100CD0008EDDF7FAF094F7F8F09420E030E0A90107
:100CE000C701B6010E94A937882309F45CC0A70197
:100CF0009601C701B6010E94FE38A70196010E9425
:100D0000A937811150C060E175E04AC0FD01028140
:100D100013816BE5C1016BDDD80112960D911C9119
:100D200013970115110551F0B101C80102968ADF30
:100D3000F801008111810115110521F46DE5C10152
:100D400056DD98C16CE2C10152DDEBCF12968D9158
:100D50009C9113974BDF8EC1FD0162817381C101AC
:100D600057DD88C112966D917C91139719C06DE281
:100D7000C1013DDDF8014281538164817581C1016A
:100D8000F2DC78C1FD0182819381A481B581892B38
:100D90008A2B8B2B19F463E075E002C06EEF74E0D0
:100DA000C10187DC67C120E836E948E15BE4C7019F
:100DB000B6010E94933987FD56C1A12CB12C00E2E7
:100DC00010E01A8A198AF501E955FD4F2489358901
:100DD00046895789C701B6010E94933987FD13C020
:100DE000F501E157FD4F2489358946895789C701A7
:100DF000B6010E940E386B017C0189899A89800FA7
:100E0000911F9A8B898B1595079594E0A91AB108C3
:100E1000A8EEAA16AFEFBA06B1F699249A9420E08C
:100E200030E0A901C701B6010E9493391816B4F544
:100E30002CEA35EC47E257E3C701B6010E94A93717
:100E4000181664F19FEF991649F1B92DE4E0BE023E
:100E500050011124F501E958FD4F20813181428173
:100E60005381C701B6010E94A93787FF13C0F5015E
:100E7000E955FD4F2081318142815381C701B6017F
:100E80000E940E386B017C0189899A89801B910B25
:100E90009A8B898B159507959A94D4CFC701B60183
:100EA0000E9467394B015C012B013C0106E080E4A4
:100EB00092E4AFE0B0E08B8B9C8BAD8BBE8B102FA0
:100EC0000FEF010F9AE04916510461047104C8F054
:100ED0006B897C898D899E892AE030E040E050E072
:100EE0000E94C2382B8B3C8B4D8B5E8BC301B201B1
:100EF0002AE030E040E050E00E94C23829013A0187
:100F0000DECFC501B4010E94AD379B01AC01C70122
:100F1000B6010E94FD386B017C016B897C898D894B
:100F20009E890E94AD379B01AC01C701B6010E94AA
:100F30000E382B013C010E9467396B017C010E9435
:100F4000AD379B01AC01C301B2010E94FD389B018A
:100F5000AC010E94FE380E946739C60ED71EE81EFB
:100F6000F91E8B899C89AD89BE89C816D906EA0607
:100F7000FB06F8F09FEF891A990AA90AB90AA9890C
:100F8000BA89AB2B99F0BAE08B169104A104B10495
:100F900068F0E989FA893196FA8BE98BC12CD12C5A
:100FA0007601812C912C5401839403C0C12CD12C47
:100FB00076012AE0422E512C612C712CC701B6011A
:100FC000A30192010E94C238672B682B692B99F00C
:100FD000012FB501A401C101C6DB112351F1188A0B
:100FE0004E01F0E18F0E911C54019AE0492E512CD4
:100FF000612C712C06C011165CF769017A01115041
:10100000DDCF015068F0C701B601A30192010E9433
:10101000C238605DD4016E934D0169017A01F1CF50
:10102000B501611B71098EE2FB018293BF01C10111
:1010300040DB89899A8997FF0AC06DE075E0C1019C
:1010400038DB69897A8971956195710909C0A98927
:10105000BA89AB2B79F065E6C101C9DB69897A8968
:10106000C10157DB07C000E210E085E0982E1A8A24
:10107000198AD5CE66960FB6F894DEBF0FBECDBFE7
:10108000DF91CF911F910F91FF90EF90DF90CF9064
:10109000BF90AF909F908F907F906F905F904F9098
:1010A0003F902F900895CF92DF92EF92FF920F938F
:1010B0001F93CF93DF937C018B01EA017CDDFC0160
:1010C000892B39F4C70155DDFC01892B91F013837D
:1010D000028388819981892B19F480E090E003C014
:1010E0006E0187E090E095838483C682D78281E099
:1010F00001C080E0DF91CF911F910F91FF90EF90A1
:10110000DF90CF900895CF92DF92EF92FF920F93EE
:101110001F93CF93DF93DA012D913C91232B01F1A3
:101120008A01EB01FA01E480F580FFEFEF1AFF0A74
:10113000DC01ED91FC910190F081E02DB701199552
:101140006C010097C9F0F80160817181A7010E94CC
:10115000013C82E090E099838883DB82CA820AC0E6
:1011600082E090E0DB0111969C938E9313961C9283
:101170001E92129781E001C080E0DF91CF911F9114
:101180000F91FF90EF90DF90CF900895EF92FF9234
:101190000F931F93CF93DF938C01EB017A010BDD4B
:1011A000FC01892B39F4C801E4DCFC01892BF9F03E
:1011B000D383C283D7014D915C9157FD07C0052EA3
:1011C000000C660B770B84E090E009C051954195C7
:1011D0005109052E000C660B770B85E090E0958396
:1011E0008483468357836087718781E001C080E0F4
:1011F000DF91CF911F910F91FF90EF900895CF93C2
:10120000DF93EC016881798188E090E033DA009720
:1012100029F0FC011182108213821282EA81FB8183
:10122000309751F0208131812115310511F0F901FC
:10123000F9CF9183808302C09B838A83DF91CF9112
:1012400008950F931F93CF93DF93EC018B01D7DFAA
:10125000009759F0BC016E5F7F4FA801888199818A
:10126000DF91CF911F910F914ECF80E0DF91CF9111
:101270001F910F9108950895CF93DF93EC01BC0166
:1012800084E090E0F7D9FC01009729F0D183C08376
:101290001382128211C08091700781110BC01092CD
:1012A0006D0710926C0710926F0710926E0781E025
:1012B000809370078CE697E0DF91CF91089580913D
:1012C000D50681110BC01092D2061092D106109251
:1012D000D4061092D30681E08093D50681ED96E086
:1012E0000895CF93DF93EC01BC0184E090E0C2D974
:1012F000009741F0FC01D183C08313821282DF91F9
:10130000CF910895DF91CF91DACF08952F923F9238
:101310004F925F926F927F928F929F92AF92BF9205
:10132000CF92DF92EF92FF920F931F93CF93DF93B1
:10133000CDB7DEB727970FB6F894DEBF0FBECDBF8F
:101340001B015E834D838901FC0182819381209181
:101350000802281721F02F3F09F0D0C205C0E7EDA1
:10136000F3E024912F8304C180930802E7EDF3E0BA
:10137000E491EF3F09F4C2C2E23009F47EC06CF59B
:10138000EE2309F459C0E13009F0F1C01092800059
:10139000109281002091810028602093810020918B
:1013A00081002160209381009C013327F901E052E4
:1013B000FB4FE491F0E0EE0FFF1FE455FB4F45912A
:1013C00054915093B9064093B806F901EA5DFA4F7B
:1013D000E491E093B70631E0C8C0E43009F49DC061
:1013E0000CF473C0E53009F0C2C0109220011092D5
:1013F00021012091210128602093210120912101C8
:101400002160209321019C013327F901E052FB4F19
:10141000E491F0E0EE0FFF1FE455FB4F459154912E
:101420005093B0064093AF06F901EA5DFA4FE4919C
:10143000E093AE0635E099C014BC15BC24B522601B
:1014400024BD25B5216025BD9C013327F901E0525B
:10145000FB4FE491F0E0EE0FFF1FE455FB4F459189
:1014600054915093BC064093BB06F901EA5DFA4FD4
:10147000E491E093BA061F827EC01092B0001092F1
:10148000B1002091B00022602093B0002091B10003
:1014900021602093B1009C013327F901E052FB4FFA
:1014A000E491F0E0EE0FFF1FE455FB4F459154919E
:1014B0005093790740937807F901EA5DFA4FE49178
:1014C000E0937A07E2E0EF8356C01092900010920A
:1014D000910020919100286020939100209191002B
:1014E0002160209391009C013327F901E052FB4FCA
:1014F000E491F0E0EE0FFF1FE455FB4F459154914E
:101500005093B6064093B506F901EA5DFA4FE491AF
:10151000E093B406F3E0FF832EC01092A000109277
:10152000A1002091A10028602093A1002091A1009A
:1015300021602093A1009C013327F901E052FB4F69
:10154000E491F0E0EE0FFF1FE455FB4F45915491FD
:101550005093B3064093B206F901EA5DFA4FE49165
:10156000E093B10624E02F8306C03F8304C0EF83DD
:10157000EF81E7FDC3C12801012E000C6608770842
:1015800061E00E9490274101A12CB12C8F818D7FB9
:1015900009F0BDC060E072E18AE790E0A501940126
:1015A0000E94AE3929833A834B835C8369017A01B7
:1015B000F1E0CF1AD108E108F1082FEFC216D104EB
:1015C000E104F10409F008F44DC060E472E48FE036
:1015D00090E0A50194010E94AE3969017A0181E091
:1015E000C81AD108E108F1089F81923001F5EFEFA8
:1015F000CE16D104E104F10409F008F4FCC160E95D
:1016000070ED83E090E0A50194010E94AE3969017C
:101610007A01F1E0CF1AD108E108F1082FEFC216E4
:10162000D104E104F10409F0E0F583E069C03FEF83
:10163000C316D104E104F104B9F0B0F068E478EE27
:1016400081E090E0A50194010E94AE3969017A0120
:1016500081E0C81AD108E108F1089F81992309F4B3
:101660006FC1C0C181E001C082E09F819923A1F0D8
:1016700047C089819A81AB81BC812AE0B595A79545
:10168000979587952A95D1F76C017D01E1E0CE1AF7
:10169000D108E108F10885E095B5987F892B85BDD3
:1016A000A1C068E478EE81E090E0A50194010E9479
:1016B000AE3969017A01F1E0CF1AD108E108F108E9
:1016C0002FEFC216D104E104F10409F008F436C189
:1016D00064E274EF80E090E0A50194010E94AE39CD
:1016E00069017A01E1E0CE1AD108E108F108FFEFC3
:1016F000CF16D104E104F10411F008F043C185E0F4
:101700009091B100987F892B8093B1006BC060E00D
:1017100072E18AE790E0A50194010E94AE39690167
:101720007A01E1E0CE1AD108E108F108C114D10430
:10173000F1E0EF06F10488F068E478EE81E090E0F3
:10174000A50194010E94AE3969017A0181E0C81AAD
:10175000D108E108F10883E001C081E09F81913068
:1017600071F490918100987F892B809381004528A6
:1017700046284728D9F52FEF3FEFA90168C0EF8130
:10178000E33071F490919100987F892B80939100C0
:1017900045284628472851F52FEF3FEFA90179C08A
:1017A000FF81F43071F49091A100987F892B809390
:1017B000A100452846284728C9F42FEF3FEFA9018B
:1017C0007AC02F81253071F490912101987F892B67
:1017D0008093210145284628472841F42FEF3FEF09
:1017E000A9017BC045284628472869F09101220FAE
:1017F000331FD8010E94D23928EE33E040E050E098
:101800000E94C23803C02FEF3FEFA9018F818230C1
:1018100081F12CF4882361F08130C9F06FC09F8181
:10182000943009F448C0ACF1953009F456C066C054
:10183000C7BC2093CD063093CE064093CF0650937D
:10184000D00680916E00826080936E0057C0D09267
:101850008900C09288002093C9063093CA0640933D
:10186000CB065093CC0680916F00826080936F000E
:1018700045C0C092B30020937B0730937C07409310
:101880007D0750937E078091700082608093700086
:1018900035C0D0929900C09298002093C50630932D
:1018A000C6064093C7065093C806809171008260B7
:1018B0008093710023C0D092A900C092A800209309
:1018C000C1063093C2064093C3065093C40680916C
:1018D000720082608093720011C0D0922901C09280
:1018E00028012093BD063093BE064093BF06509357
:1018F000C00680917300826080937300ED81FE8149
:10190000BF01FF0F880B990B27960FB6F894DEBF27
:101910000FBECDBFDF91CF911F910F91FF90EF9040
:10192000DF90CF90BF90AF909F908F907F906F90FF
:101930005F904F903F902F900C94CC2784E0E0CEA6
:10194000EFEFCE16D104E104F104D1F0C8F062E16A
:101950007AE780E090E0A50194010E94AE39690128
:101960007A0181E0C81AD108E108F1089FEFC91691
:10197000D104E104F10411F008F07BCE84E08CCEB8
:1019800083E08ACE62E17AE780E090E0A5019401ED
:101990000E94AE3969017A01F1E0CF1AD108E1085D
:1019A000F1082FEFC216D104E104F104C9F0C0F030
:1019B00089819A81AB81BC815AE0B595A7959795AD
:1019C00087955A95D1F76C017D0121E0C21AD108A3
:1019D000E108F1083F81332309F45DCE87E090CE22
:1019E00086E043CE3FEFC316D104E104F10409F0D1
:1019F00048F684E03ACE82E083CE0895FC019081DF
:101A00000180F281E02D892F809560FF12C0F8944B
:101A10002281822382838181892B8183A3E2B0E0AA
:101A20001197F1F78281982B9283789487ED90E05B
:101A300011C0F8942281822382838181892B818342
:101A4000AFEFB0E01197F1F78281982B92837894F1
:101A50008FE090E00197F1F7089521E0FC01848583
:101A60008F3F09F420E0822F08950C94813A0C9462
:101A7000813A0C94813ACF92DF92EF92FF920F93CA
:101A80001F93CF93DF93CDB7DEB76E970FB6F89461
:101A9000DEBF0FBECDBFFC0184858F3FD1F17F013A
:101AA0000E941723892B11F094E034C0D7011C96B3
:101AB0008C911F928F9389E892E09F938F93FE0100
:101AC00031966F01FF93EF930E9417330AE010E005
:101AD0009E012B5E3F4F49E156E0B6018CE792E054
:101AE0000E9437220F900F900F900F900F900F9041
:101AF0008111DACFD7011C96EC911C97F0E0EE0F24
:101B0000FF1FE050FE4F8FEF9FEF918380831C9665
:101B10008C9390E081E0943009F080E06E960FB6EF
:101B2000F894DEBF0FBECDBFDF91CF911F910F9113
:101B3000FF90EF90DF90CF900895CF92DF92EF92D9
:101B4000FF920F931F93CF93DF93CDB7DEB72C9700
:101B50000FB6F894DEBF0FBECDBF8C01CB01BA012A
:101B60002AD87C01009709F44CC0FC01C480D580C0
:101B7000F1E0CF16D10461F4FC0166817781611533
:101B8000710531F081EE94E00E941C3C892B69F0D4
:101B9000F1E0CF1AD10882E0C816D10430F4F70181
:101BA000668177816115710571F560EE74E0CE0193
:101BB00001966C010E94BC19DC86CB86CE010B9687
:101BC00098878F831A861986BE01695F7F4FC70188
:101BD000049638D889819A81F801918380838B811A
:101BE0009C81938382838D819E81958384831A82D5
:101BF00019821C821B821E821D82C6010E947F19CF
:101C000005C060EE74E0C8010E94BC19C8012C96A2
:101C10000FB6F894DEBF0FBECDBFDF91CF911F91FD
:101C20000F91FF90EF90DF90CF900895EF92FF9289
:101C30001F93CF93DF9300D000D0CDB7DEB77C01E8
:101C4000DC0114968D919C9115979A8389831C824F
:101C50001B821E821D82C70102960E94C91DD701E8
:101C60001296ED91FC9113971081173239F11232CF
:101C700029F180ED810F8A3078F081EA810F8C3173
:101C800058F08FEB810F8A3138F01B3229F083ED49
:101C9000810F823008F044C0F70182819381019660
:101CA00093838283612FCE0101960E94741DD70118
:101CB0001296ED91FC9113971081DBCF3196D701ED
:101CC0001396FC93EE931297D7011296ED91FC9127
:101CD00013976081662321F1CF01019613969C939F
:101CE0008E9312976117E1F06C35A9F46181A6ED2E
:101CF000B4E08C91882339F0861303C011966C915F
:101D000002C01296F6CF662359F03296D701139689
:101D1000FC93EE931297CE0101960E94741DD4CFCE
:101D200060E0CE0101960E94741D8B819C812696F5
:101D30000FB6F894DEBF0FBECDBFDF91CF911F91DC
:101D4000FF90EF9008959F92AF92BF92CF92DF9253
:101D5000EF92FF920F931F93CF93DF9300D000D0A9
:101D6000CDB7DEB7D82EC92E082F192FF8018191D3
:101D700091918F01B6DA7C016BE7C8010E940B1EBE
:101D8000882309F442C06DE7C8010E940B1E81112F
:101D90003EC086E0982E8D2D9C2D48DF5C01892B5E
:101DA000A1F16AE3C8010E940B1E882371F11A8217
:101DB0001982BE016F5F7F4F8D2D9C2D0E94E12502
:101DC000882319F1B501C7010E94DB05009741F492
:101DD000C7010E94B9050097C1F0FC01B382A2823D
:101DE000FE013196DC011496892D01900D928A95A1
:101DF000E1F76DE7C8010E940B1E811108C06CE27B
:101E0000C8010E940B1E8111C6CF59DA01C0C7015B
:101E100026960FB6F894DEBF0FBECDBFDF91CF91EF
:101E20001F910F91FF90EF90DF90CF90BF90AF90F8
:101E30009F9008950895AF92BF92CF92DF92EF9254
:101E4000FF920F931F93CF93DF93CDB7DEB76897C1
:101E50000FB6F894DEBF0FBECDBF8B0169E175E010
:101E6000C8010E941B1D6C0160E275E0C8010E9460
:101E70001B1D5C0147E255E0B801CE0143965DDED3
:101E80004EE255E0B801CE010D9657DEC6010E9424
:101E90002F25C5010E942F25BE016D5E7F4FCE010B
:101EA00007960E94B419BE01635F7F4FCE01019671
:101EB0000E94B41982E190E00E94EC397C018E010D
:101EC0000F5F1F4F9E01295F3F4FA501B6010E9482
:101ED000DD1CC8010E947F19CE0107960E947F1960
:101EE000CE010D960E947F19CE0143960E947F1964
:101EF000C70168960FB6F894DEBF0FBECDBFDF9165
:101F0000CF911F910F91FF90EF90DF90CF90BF90F6
:101F1000AF90089508950895CF93FC01C48121E006
:101F200020934807C0936907109292061092910679
:101F30008385682B8CE599E00E940B2080919106A7
:101F4000813208F046C0909190069111FCCF92E04A
:101F50009093900691E090938F069FEF90934707A0
:101F60001092460780934507A9E4B7E025E237E0E1
:101F7000F9019E2F921B981718F49D919193F9CF18
:101F80001092240780912407CC0FC82BC0932407FC
:101F900080918E06813061F410928E068091240724
:101FA0008093BB008091BC0083FDF8CF85EC01C01D
:101FB00085EE8093BC00809190068230E1F38091A1
:101FC00047078F3F31F080914707803211F08091B1
:101FD0004707109292061092910610924807CF91EF
:101FE00008950F931F93CF938C01C62F95DF6C2F0D
:101FF0006460C80191DF6C2F6B7FC8018DDF83ECBB
:1020000090E00197F1F7CF911F910F9108950F93F1
:102010001F93CF93DF938C01D62FC42F607F642B47
:10202000E0DF6D2F6295607F6C2BC801DF91CF914F
:102030001F910F91D6CF41E0EADF81E090E0089553
:1020400040E061E0E4DF8BE39FE10197F1F7089561
:10205000DC01E0E0615038F08D91E827F0E0E856CF
:10206000FD4FE491F7CF8E2F0895CF92DF92EF923C
:10207000FF920F931F93CF93DF931F92CDB7DEB7DD
:102080006C01E62E08E010E0FF24F39461E08F2D50
:102090008E2109F460E0C6014983B0DCFF0C0150D9
:1020A000110949810115110589F7411115C0F894ED
:1020B000D6011196ED91FC91129791818C918095AA
:1020C000892381831196ED91FC91129792818C91D5
:1020D00080958923828378940F90DF91CF911F910F
:1020E0000F91FF90EF90DF90CF900895CF92DF9205
:1020F000EF92FF920F931F93CF93DF931F92CDB771
:10210000DEB78C01F62E40E065E57983AEDFCF2C9B
:102110007981D72E760188E0E80EF11CF6016191F5
:102120006F0140E0C801A1DFCE14DF04B9F70F90C2
:10213000DF91CF911F910F91FF90EF90DF90CF90A3
:102140000895FC0190810180F281E02DF894818155
:10215000892B81832281892F809528232283A7E0E0
:10216000B0E01197F1F7218182238183A3E2B0E0EF
:102170001197F1F780817894EFECF0E03197F1F767
:10218000982381E009F480E00895FC0190810180AA
:10219000F281E02DF8948181292F2095822381837B
:1021A00078948DE743E050E0815021F1DA011197F6
:1021B000F1F730813923C1F3F8948281822382833D
:1021C0008181892B81837894ABE7B7E01197F1F790
:1021D000F894818128232183A3E1B1E01197F1F7DD
:1021E0008081982381E009F080E07894E3E6F6E0CE
:1021F0003197F1F708956F927F928F929F92AF92ED
:10220000BF92CF92DF92EF92FF920F931F93CF93E3
:10221000DF931F921F92CDB7DEB78C017A01FC01CC
:102220008581968169837A83B0DF69817A81882389
:1022300071F1F8018581968159DF40E06EEBF8017C
:102240008581968112DF37015701F9E0AF0EB11C8D
:10225000F8018580968088E0C82ED12CEE24E39486
:10226000F12CC4016EDF8111FE28EE0CF1E0CF1AD3
:10227000D108B9F7F301F1923F01EA15FB0541F7E7
:10228000F8018581968181DF91E0813009F090E04D
:10229000892F0F900F90DF91CF911F910F91FF9099
:1022A000EF90DF90CF90BF90AF909F908F907F90F6
:1022B0006F900895CF93DF93CDB7DEB729970FB610
:1022C000F894DEBF0FBECDBFFB012081203109F1A4
:1022D000AE014F5F5F4F8FDF882371F068E0CE0162
:1022E0000196B6DE9985891307C008C0803458F07E
:1022F0008F3569F08F3769F080E00CC08D818F33A6
:10230000A9F78AE007C08F31B9F789E003C08BE0F5
:1023100001C08CE029960FB6F894DEBF0FBECDBF8A
:10232000DF91CF910895AF92BF92CF92DF92EF925B
:10233000FF920F931F93CF93DF931F92CDB7DEB71A
:102340005C01E62ED72EFC018585811158C0C501A0
:102350001CDF811105C0F50113861586148667C040
:1023600040E060EFC50181DE01E0F12CC12C11E0FD
:10237000C501E7DE682FC5016983E3DE698161304D
:1023800019F48130B9F432C04F2D50E068131BC0EE
:10239000F5018385181730F4E40FF51F838180233E
:1023A00049F402C0181731F060E0193058F4F50113
:1023B000148708C0F501EF0DF11D8381802B838305
:1023C00061E009C0C12EF501E40FF51F9381802F54
:1023D000809589238383C50111DB1F5F000F11F4F2
:1023E000F39401E0F7E0FF1508F0C2CF113438F0A4
:1023F000F501C386C11015C081E0858712C0F501C3
:1024000013861586148680E0D5011396EE2DFD2DDA
:102410009501255F3F4F9D919193A217B307D9F77F
:1024200006C0F5018381882351F381E0EDCF0F9041
:10243000DF91CF911F910F91FF90EF90DF90CF90A0
:10244000BF90AF9008958F929F92AF92BF92EF92FC
:10245000FF920F931F93CF93DF931F921F92CDB7DD
:10246000DEB77B010E9471098C01F70182819381A3
:102470009A838983AE014F5F5F4F68EB73E0C801B9
:102480000E94C608F701848195819A838983AE01F1
:102490004F5F5F4F6DE375E0C8010E94C608F7010A
:1024A00086819781009729F00E9483324B015C015D
:1024B00003C0812C912C540165EC73E0C8010E948B
:1024C000DB05009751F4C8010E94B905009771F02F
:1024D00025EC33E0FC013383228328E030E0FC016B
:1024E0003583248386829782A086B186FCE0EF0E36
:1024F000F11C6FE375E0C8010E94DB05009751F401
:10250000C8010E94B905009771F02FE335E0FC0186
:1025100033832283BC016C5F7F4FA701F801808168
:1025200091810E948308C8010F900F90DF91CF9195
:102530001F910F91FF90EF90BF90AF909F908F9061
:1025400008954F925F926F927F928F929F92AF9277
:10255000BF92CF92DF92EF92FF920F931F93CF9390
:10256000DF93CDB7DEB7C656D2400FB6F894DEBFC4
:102570000FBECDBF7C016B015A01CE0109969C8331
:102580008B8388E592E09E838D8318861F8289EE77
:1025900092E09A838983CE0101960E9471098C0191
:1025A000F60182819381CF59DD4F99838883C1568B
:1025B000D240AE014F595D4F62E475E0C8010E9400
:1025C000C608F601448055806680778066E475E031
:1025D000C8010E94DB05FC01892B51F4C8010E944F
:1025E000B905FC01892B61F086E495E09383828331
:1025F00088E090E095838483468257826086718666
:10260000F80180819181009781F480917007811198
:1026100032C010926D0710926C0710926F071092E3
:102620006E0781E08093700726C00E943C093C0140
:102630006BE475E0C8010E94DB05009751F4C80106
:102640000E94B9050097D9F02BE435E0FC013383F3
:102650002283F30120813181232B19F420E030E023
:1026600004C0962C872C26E030E0FC0135832483BF
:102670009682878204C08CE6682E87E0782EF60169
:102680008085882329F068E679E0C3010E9421094A
:10269000F6018185882329F064E779E0C3010E946F
:1026A000210920E030E040E252E4F60164817581C6
:1026B000868197810E94933918162CF46EE679E092
:1026C000C3010E942109F50182809380C480D580D6
:1026D0006FE475E08FEB98E00E949D1BF40182810E
:1026E00093810E942F25F401848195810E942F25DA
:1026F000F40186819781009719F00E94833203C00C
:1027000060E070E0CB010E945B24C4010C960E9443
:102710004624F601828193810E942F25F60184814F
:1027200095810E942F25F60186819781009719F0E7
:102730000E94833203C060E070E0CB010E945B2402
:10274000C6010C960E944624F50162817381CE0178
:10275000019679DE4C01F50164817581CE01019607
:1027600072DE5C01CE0101960E9471096C01A40128
:1027700061E775E00E945308A50165E775E0C601B1
:102780000E945308F80180819181009719F40E94FA
:102790005F0908C00E947109AC016AE775E0C801D1
:1027A0000E945308A6016AE775E0C8010E94530819
:1027B00060EE74E0C701E0D5FE01EB59FD4FF182F8
:1027C000E082CF59DD4FF983E883C156D240CD591D
:1027D000DD4F19821882C356D240BE016F597D4F1A
:1027E000C8010E94F605F70144815581608171811D
:1027F0008FEB98E0E4D2C701CA59DD4F0FB6F894C9
:10280000DEBF0FBECDBFDF91CF911F910F91FF9023
:10281000EF90DF90CF90BF90AF909F908F907F9080
:102820006F905F904F900895FC0101900020E9F7B0
:1028300031979F01281B390BE0918209F0918309A0
:10284000E21BF30B40917E0950917F09E417F507D5
:1028500030F460917C0970917D09E60FF71F280F15
:10286000391F6091800970918109DC0182179307FB
:1028700058F40196BC91A081BA1308C03196E617AE
:10288000F70799F7FA01F1CF81E0089580E0089504
:10289000CF93DF93EC0181E00E943A20BE0180914A
:1028A0006A0790916B0759D741E060E070E088EECD
:1028B00093E0DF91CF910C945520EF92FF920F930C
:1028C0001F93CF93DF931F921F92CDB7DEB77C018A
:1028D000162F072F64E773E08FEB98E049835A8344
:1028E0004CD769EC73E08FEB98E060D661EA74E056
:1028F0008FEB98E042D7612F702F8FEB98E01DD7B8
:10290000E8E0F2E023E030E05A814981929182913F
:10291000019621F021503109C8F72FEFF7012487E4
:102920002F3F21F15F934F930F931F931F922F938C
:1029300083E18F9388E88F938CEA93E09F938F9342
:102940000E94BE210FB6F894DEBF0FBECDBF892B0B
:10295000B9F4F701848590E0FC01EE0FFF1FE05011
:10296000FE4F9183808381E090E00CC064E773E0C8
:102970008FEB98E002D768E973E08FEB98E0EDD633
:1029800080E090E00F900F90DF91CF911F910F9119
:10299000FF90EF9008952F923F924F925F926F9227
:1029A0007F928F929F92AF92BF92CF92DF92EF92DF
:1029B000FF920F931F93CF93DF93CDB7DEB7A69708
:1029C0000FB6F894DEBF0FBECDBF4C015B011C8279
:1029D0001B8288EE93E0A0E0B0E08D839E83AF83FE
:1029E000B8878BEC92E09A8389838FEF8D8740E9DB
:1029F0005FE16FE775E0CE0101960E94D91F892B38
:102A000049F46BE875E08FEB98E097D634E6C32E77
:102A1000D12C24C196E0E92EF12C25EF622E22E084
:102A2000722E8E01025F1F4F7F866E86F5018281B6
:102A30009381998B888B848195819B8B8A8BA8014C
:102A4000B401CE0181967DDD4DA05EA066EA75E001
:102A5000CE01459691D4BE016B5E7F4FCE014B9661
:102A600083D46CEA75E0CE014B96FED363EB75E040
:102A7000FBD36FEB75E0F8D366EC75E0F5D36CEB48
:102A800075E0F2D367ED75E0EFD368EF75E0ECD356
:102A90006C014AE0B801C2010E94FE32F8010190C7
:102AA0000020E9F73197AF01401B510BB801C60177
:102AB00089D3811102C0C601C5D36CEB75E0C60194
:102AC000D3D36CEB75E0D0D36C014DA15EA169A1AD
:102AD0007AA178D3811102C0C601B4D36DEB75E041
:102AE000C601C2D3FC014481558160817181CE0150
:102AF00001960E940D21CE014B9601D4CE01459640
:102B0000FED3CE0181960E94462460EA7FE080E0F9
:102B100090E00E94CC27CE0101960E943C24892B94
:102B200009F489C060EE74E0CE01459625D4CE014B
:102B3000019605D597FD08C08D30910529F0682FC5
:102B4000CE0145966CD3F3CF69E076E0C80114D48A
:102B5000498D5A8D6D897E89C80134D3811102C097
:102B6000C80170D3C8010E944624C801C8D3C98CCB
:102B7000DA8CC114D10461F02D883E8860E270E0E7
:102B8000C1010E94113C009719F08219930902C0FB
:102B90008FEF9FEF2C01FFEF4F1A5F0AC414D5048B
:102BA00028F4942D852D2601C92ED82E60EE74E0D0
:102BB000C801E2D3898D9A8D4816590620F58C15E7
:102BC0009D0508F46C01ED89FE89EC0DFD1D30803A
:102BD00010826D897E89640D751D6115710559F02E
:102BE000FB0101900020E9F73197AF01461B570B1D
:102BF000C80151D302C0C80125D38D899E89FC012B
:102C0000EC0DFD1D3082C8010E9446248E859F85F3
:102C1000009719F00E94A33203C060E070E0CB017E
:102C20006B01CE0101960E94381EC80168D3CE0107
:102C3000459665D303C084E6C82ED12CCE010196FB
:102C40000E94F621CE0181965AD321E0E21AF108C2
:102C500029F088ECC816D10409F0E6CE81E098ECA2
:102C6000C916D10409F080E0A6960FB6F894DEBF2D
:102C70000FBECDBFDF91CF911F910F91FF90EF90CD
:102C8000DF90CF90BF90AF909F908F907F906F908C
:102C90005F904F903F902F900895CF93DF93CDB7E3
:102CA000DEB728970FB6F894DEBF0FBECDBF28E081
:102CB000EFEBF2E0DE01119601900D922A95E1F71B
:102CC000FC012085261710F46FEF620FFE0131968C
:102CD000E60FF11DE60FF11D6081606840E0289667
:102CE0000FB6F894DEBF0FBECDBFDF91CF918FC975
:102CF000CF92DF92EF92FF920F931F93CF93DF93C8
:102D0000EC016A017B01E889F98982E08083411541
:102D1000514E61057105B1F060E079E08DE390E01E
:102D2000A70196010E94C23889019A010150110938
:102D300021093109369527951795079598010115B1
:102D40001041A8F0E889F989108260E874E88EE102
:102D500090E0A70196010E94C238DA01C9010197EB
:102D6000A109B109B695A795979587959C01EC8522
:102D7000FD853083EE85FF852083188EEC89FD89E3
:102D800086E08083EA89FB89808180618083EA898B
:102D9000FB89808188608083EA89FB8980818068E3
:102DA0008083EA89FB8980818F7D8083DF91CF9149
:102DB0001F910F91FF90EF90DF90CF900895CF92E9
:102DC000DF92EF92FF920F931F93CF93DF936C01EB
:102DD0007A018B01C0E0D0E0CE15DF0589F0D80183
:102DE0006D918D01D601ED91FC910190F081E02D66
:102DF000C6011995892B11F47E0102C02196ECCFF2
:102E0000C701DF91CF911F910F91FF90EF90DF905D
:102E1000CF900895FC01A089B1898C91A689B789CA
:102E200082FD0FC09C91818D8F5F8F73228D8217E1
:102E300049F0218DDF01A20FB11D5D969C93818F1A
:102E400008958C910895FC01538D448D252F30E019
:102E5000842F90E0821B930B541710F0CF960895A7
:102E600001970895FC01918D828D981761F0828DF4
:102E7000DF01A80FB11D5D968C91928D9F5F9F73AE
:102E8000928F90E008958FEF9FEF0895FC01918D50
:102E9000828D981731F0828DE80FF11D858D90E0BD
:102EA00008958FEF9FEF0895FC01918D228D892F5A
:102EB00090E0805C9F4F821B91098F739927089542
:102EC00085E897E0F1DF21E0892B09F420E0822FEB
:102ED000089582E298E0E8DF21E0892B09F420E000
:102EE000822F08958FEB98E0DFDF21E0892B09F432
:102EF00020E0822F0895FC01848DDF01A80FB11D11
:102F0000A35ABF4F2C91848D90E001968F7399271F
:102F1000848FA689B7892C93A089B1898C9180640C
:102F20008C93938D848D981306C00288F389E02DCD
:102F300080818F7D80830895EF92FF920F931F937E
:102F4000CF93DF93EC0181E0888F9B8D8C8D98135C
:102F500005C0E889F989808185FD23C0F62E0B8D97
:102F600010E00F5F1F4F0F731127E02E8C8DE812BA
:102F70000BC00FB607FCFACFE889F989808185FF7D
:102F8000F5CFCE01B8DFF2CF8B8DFE01E80FF11D3A
:102F9000E35AFF4FF0820B8FEA89FB8980818062C0
:102FA00007C0EE89FF896083E889F98980818064A0
:102FB000808381E090E0DF91CF911F910F91FF908E
:102FC000EF900895CF93DF93EC01888D8823C1F0B3
:102FD000EA89FB89808185FD05C0A889B9898C9122
:102FE00086FD0EC00FB607FCF5CF808185FFF2CFBE
:102FF000A889B9898C9185FFEDCFCE017CDFE8CF20
:10300000DF91CF91089580E090E0892B19F06ADF7D
:1030100081111BC080E090E0892B19F05ADF8111EB
:1030200017C080E090E0892B19F04ADF811113C0AE
:1030300080E090E0892BA1F080E090E0892B81F086
:103040000E94000081110AC008950E940000E2CF92
:103050000E940000E6CF0E940000EACF0C9400001E
:1030600008950E94FD3B0F931F93CF93DF93EC01D4
:1030700088819981009729F02A813B81261737079B
:1030800088F48B016F5F7F4F0E94193B009761F0BE
:10309000998388831B830A832C813D81232B11F420
:1030A000FC01108281E001C080E0DF91CF911F918F
:1030B0000F9108950C94813ACF92DF92EF92FF9294
:1030C0000F931F93CF93DF938C017B01DC01159647
:1030D000CD91DC9116976B016C177D0708F46E019A
:1030E000C60106960E94EC39FC01892BB1F0D3820F
:1030F000C282D80113968D919C91149791838083FD
:103100001496FC93EE931397CC0FDD1F1696DC9369
:10311000CE931597F582E4823696CF01DF91CF9159
:103120001F910F91FF90EF90DF90CF900895DC01F9
:103130001396ED91FC911497309751F024813581CD
:10314000AB01420F531FA281B381A417B50708F446
:10315000B3CFC9010696558344838E0F9F1F0895F0
:10316000FC0124813581FB014481558124173507F9
:1031700021F5FC0180819181FB01608171810097C3
:1031800019F061157105A1F46115710549F0232B42
:10319000B1F0FB01808190E09195819591090AC081
:1031A000009769F0232B59F0FC01808190E002C068
:1031B0000E941C3C21E0892B19F020E001C021E095
:1031C000822F0895EF92FF920F931F93CF93DF9377
:1031D000FC01248135816115710511F480E018C06E
:1031E00041155105A1F07B01EC018A01020F131F6B
:1031F000B80139DF882391F3288139818C819D8141
:10320000B701820F931F0E94253C1D830C8381E030
:10321000DF91CF911F910F91FF90EF900895CF9381
:10322000DF931F921F92CDB7DEB769831A8241E008
:1032300050E0BE016F5F7F4FC5DF0F900F90DF91B1
:10324000CF910895CF93DF93EC0188819981009706
:1032500011F00E94813A198218821D821C821B8201
:103260001A82DF91CF910895CF93DF93EC0161151E
:10327000710559F0FB0101900020E9F73197AF018A
:10328000461B570B9FDF811102C0CE01DBDFCE0151
:10329000DF91CF910895EF92FF920F931F93CF93F9
:1032A000DF93EC017B018A01BA01DDDE811103C0ED
:1032B000CE01C8DF07C01D830C83B70188819981C7
:1032C0000E94253CCE01DF91CF911F910F91FF907D
:1032D000EF900895CF93DF93EC01FB0186179707DA
:1032E00051F0608171816115710521F04481558132
:1032F000D2DF01C0A7DFCE01DF91CF910895FC019D
:10330000808191810C94813ACF93DF93EC0185E029
:1033100093E099838883CE010896F1DFCE0102966F
:10332000DF91CF91ECCFCF93DF93EC01EDDFCE01B6
:10333000DF91CF910C94813ACF93DF93EC018DEF25
:1033400092E099838883CE010C96D9DFCE01069650
:10335000DF91CF91D4CFCF93DF93EC01EDDFCE019E
:10336000DF91CF910C94813AFC011182108213827B
:10337000128215821482AECFFC0111821082138258
:103380001282158214826115710549F0FB010190CA
:103390000020E9F73197AF01461B570B7CCF08950A
:1033A0001F920F920FB60F9211240BB60F922F930C
:1033B0003F934F935F936F937F938F939F93AF93BD
:1033C000BF93EF93FF9380917B0790917C07A0912F
:1033D0007D07B0917E07892B8A2B8B2B59F1809129
:1033E0007A07E0917807F0917907908189278083A7
:1033F00080917B0790917C07A0917D07B0917E071B
:10340000181619061A061B060CF056C080917B0789
:1034100090917C07A0917D07B0917E070197A1094B
:10342000B10980937B0790937C07A0937D07B093AD
:103430007E0742C080910802E7EDF3E0E4919FEF40
:1034400090930802E230C9F050F4EE2399F0E13095
:1034500081F590916F009D7F90936F002AC0E430BA
:1034600019F1E0F0E53029F5909173009D7F90937C
:1034700073001FC010926E001CC0909170009D7F61
:103480009093700091E09093B0009091B100987F7C
:1034900094609093B1001092B3000BC090917100B2
:1034A0009D7F9093710005C0909172009D7F9093D5
:1034B000720060E00E946127FF91EF91BF91AF9190
:1034C0009F918F917F916F915F914F913F912F913C
:1034D0000F900BBE0F900FBE0F901F9018950F937B
:1034E0001F93CF93DF93EC010E94042868877987AC
:1034F0008A879B87E881F9810484F585E02DCE01D8
:10350000199597FF17C00E940428088519852A85F8
:103510003B85DC01CB01801B910BA20BB30B0C8113
:103520001D812E813F8180179107A207B30710F3F9
:103530008FEF9FEFDF91CF911F910F9108950F9320
:103540001F93CF93DF93EC010E940428688779874B
:103550008A879B87E881F9810284F385E02DCE017B
:10356000199597FF17C00E940428088519852A8598
:103570003B85DC01CB01801B910BA20BB30B0C81B3
:103580001D812E813F8180179107A207B30710F399
:103590008FEF9FEFDF91CF911F910F910895DC0185
:1035A000ED91FC910190F081E02D1994EF92FF9242
:1035B0000F931F93CF93DF938C017B01C0E0D0E08A
:1035C000F701EC0FFD1F6491662361F0D801ED91C6
:1035D000FC910190F081E02DC8011995892B11F023
:1035E0002196EECFCE01DF91CF911F910F91FF90E9
:1035F000EF9008956115710579F0FB0101900020AD
:10360000E9F73197AF01461B570BDC01ED91FC91B7
:103610000280F381E02D199480E090E008954F92AC
:103620005F926F927F92EF92FF920F931F93CF93CF
:10363000DF93CDB7DEB7A1970FB6F894DEBF0FBE0C
:10364000CDBF7C01FA01CB0119A2223008F42AE097
:103650008E010F5D1F4F422E512C612C712CBF012A
:10366000A30192010E94C238F901CA010150110957
:103670006A3014F4605D01C0695CD8016C93232B3F
:10368000242B252B61F7B801C701B4DFA1960FB633
:10369000F894DEBF0FBECDBFDF91CF911F910F9188
:1036A000FF90EF907F906F905F904F9008958F9272
:1036B0009F92AF92BF92CF92DF92EF92FF920F93C1
:1036C0001F93CF93DF937C018B016C0182E0C80EC6
:1036D000D11C4701E5E08E0E911CC0E0D0E0F60160
:1036E00041916F0150E060E070E02AE0C80197DF8F
:1036F0005C016EE2C80153DF8A0D9B1DC80FD91F04
:10370000C814D90461F7F701458150E060E070E02A
:103710002AE0C80184DF8C0F9D1FDF91CF911F919C
:103720000F91FF90EF90DF90CF90BF90AF909F9060
:103730008F9008956CEB75E05DCF0F931F93CF933F
:10374000DF93EC0157DF8C01CE01F4DF800F911F76
:10375000DF91CF911F910F9108950F931F93CF93F6
:10376000DF93EC0123DF8C01CE01E4DF800F911F9A
:10377000DF91CF911F910F9108953CCF1F920F922F
:103780000FB60F9211240BB60F922F933F934F93C6
:103790005F936F937F938F939F93AF93BF93EF93B9
:1037A000FF9385E897E0A7DBFF91EF91BF91AF9181
:1037B0009F918F917F916F915F914F913F912F9149
:1037C0000F900BBE0F900FBE0F901F9018951F9279
:1037D0000F920FB60F9211240BB60F922F933F93B7
:1037E0004F935F936F937F938F939F93AF93BF9309
:1037F000EF93FF9385E897E00DDBFF91EF91BF9189
:10380000AF919F918F917F916F915F914F913F9178
:103810002F910F900BBE0F900FBE0F901F90189519
:103820001F920F920FB60F9211240BB60F922F9387
:103830003F934F935F936F937F938F939F93AF9338
:10384000BF93EF93FF9382E298E055DBFF91EF91F6
:10385000BF91AF919F918F917F916F915F914F91A8
:103860003F912F910F900BBE0F900FBE0F901F90A6
:1038700018951F920F920FB60F9211240BB60F924C
:103880002F933F934F935F936F937F938F939F9368
:10389000AF93BF93EF93FF9382E298E0BBDAFF917F
:1038A000EF91BF91AF919F918F917F916F915F91B8
:1038B0004F913F912F910F900BBE0F900FBE0F9025
:1038C0001F9018951F920F920FB60F9211240BB6EE
:1038D0000F922F933F934F935F936F937F938F93A9
:1038E0009F93AF93BF93EF93FF938FEB98E003DB2E
:1038F000FF91EF91BF91AF919F918F917F916F91C8
:103900005F914F913F912F910F900BBE0F900FBE83
:103910000F901F9018951F920F920FB60F921124BF
:103920000BB60F922F933F934F935F936F937F93B9
:103930008F939F93AF93BF93EF93FF938FEB98E099
:1039400069DAFF91EF91BF91AF919F918F917F9134
:103950006F915F914F913F912F910F900BBE0F9000
:103960000FBE0F901F901895CF92DF92EF92FF92AB
:103970000F931F93CF93DF93EC016B017A0185E0E6
:1039800093E0FE01819391938F0160EE74E0CF018B
:10399000F3DC289660EE74E0CE01EEDCB601C801DF
:1039A00099DCB701CE01DF91CF911F910F91FF906C
:1039B000EF90DF90CF908ECC08956F927F928F9290
:1039C0009F92AF92BF92CF92DF92EF92FF920F93AE
:1039D0001F93CF93DF93EC015B014A0169018DEFE7
:1039E00092E0998388833E0186E0680E711C60EE48
:1039F00074E0C301C1DC7E018CE0E80EF11C60EED6
:103A000074E0C701B9DCBB82AA829D828C82B601B8
:103A1000C30160DCB801C701DF91CF911F910F9105
:103A2000FF90EF90DF90CF90BF90AF909F908F90DE
:103A30007F906F904FCC0E94DB05FC01892B09F42D
:103A40004BC084819581833091053CF48130910590
:103A50007CF4009709F447C038C0853091052CF0FC
:103A6000059799F5668177812BC0868197810895A6
:103A70000680F781E02D309779F18081843779F1E4
:103A80008B3229F08D3221F4319691E002C03196CB
:103A900090E060E070E03AE0819120ED280F2A305C
:103AA00068F4369FA001379F500D1124682F880FAE
:103AB000770B60537109640F751FEECF992391F056
:103AC00088279927861B970B0895668177818085C3
:103AD00091850E94623906C080E090E0089581E0FF
:103AE00090E00895CB010895FF920F931F93CF9319
:103AF000DF93EC01F62E88819981FC01A381B481CA
:103B0000109771F01496ED91FC9115979F012F5F1E
:103B10003F4F12964D915C9113974217530750F502
:103B20002C813D81B9016F5F7F4FC6DA8C016A81BC
:103B30007B816115710549F00115110571F04C810A
:103B40005D81C8010E94013C03C00115110529F0E7
:103B5000EC81FD81E00FF11FF0821B830A838C81D1
:103B60009D8101969D838C83DF91CF911F910F9151
:103B7000FF9008953696EA0FFB1F15963C932E93FF
:103B8000149760838C819D81892B49F7FB83EA839D
:103B9000E6CFFC01A081B1818C918D3051F024F4ED
:103BA00089508230B8F505C0803219F08F3219F093
:103BB000089511962CC011968C9111978A3219F0A4
:103BC0008F32D1F008951196B183A083A081B18185
:103BD000CD0101969183808311968C911197882352
:103BE000C9F08A3299F712968C9112978F3271F739
:103BF00013960DC08A3071F2A081B181CD0101967A
:103C00009183808311968C918111F4CF03C0B1838D
:103C1000A083C0CF08950F931F93CF93DF931F927C
:103C2000CDB7DEB78C016983B4DFD801ED91FC918B
:103C3000119780816981861305C03196ED93FC93BD
:103C400081E001C080E00F90DF91CF911F910F9133
:103C500008950E94DB05009749F0FC01248135811D
:103C60002730310519F48681978108950C945F09F6
:103C7000CF93DF93EC01E881F9810084F185E02D99
:103C8000CE011995892B41F0E881F9810284F385F1
:103C9000E02DCE011995EFCFDF91CF910895CF930D
:103CA000DF931F92CDB7DEB76983DC01ED91FC9104
:103CB0000280F381E02D41E050E0BE016F5F7F4F55
:103CC00019950F90DF91CF910895089581E090E0CC
:103CD0003091940620919306321710F480E090E022
:103CE00091958195910908958091940690919306FC
:103CF000891730F48F5F8093940680E090E00895F8
:103D00008FEF9FEF08958091930690E020919406A5
:103D1000821B91090895089580E090E008950F9323
:103D20001F93CF93DF931F921F92CDB7DEB78C0105
:103D3000DC01ED91FC910084F185E02D1995892B32
:103D400029F11982F80184859091CC09891309C061
:103D50009E012F5F3F4F40E0BE016E5F7F4F0E948C
:103D600010288981882379F0D8011C96EC911C9742
:103D7000F0E0EE0FFF1FE050FE4F8FEF9FEF9183BB
:103D800080831C968C938A8190E002C08FEF9FEF16
:103D90000F900F90DF91CF911F910F9108950F9386
:103DA0001F93CF93DF931F921F92CDB7DEB78C0185
:103DB000DC01ED91FC910084F185E02D1995892BB2
:103DC00029F11982F80184859091CC09891309C0E1
:103DD0009E012F5F3F4F41E0BE016E5F7F4F0E940B
:103DE00010288981882379F0D8011C96EC911C97C2
:103DF000F0E0EE0FFF1FE050FE4F8FEF9FEF91833B
:103E000080831C968C938A8190E002C08FEF9FEF95
:103E10000F900F90DF91CF911F910F9108958F9286
:103E20009F92AF92BF92CF92DF92EF92FF920F9349
:103E30001F93CF93DF931F921F92CDB7DEB77C0104
:103E40008A01DC01ED91FC910084F185E02D69830C
:103E50007A83199569817A81892B19F48FEF9FEF05
:103E600058C0F70194858091CC09981350C0809177
:103E7000CD099091CE09A091CF09B091D009480108
:103E8000A12CB12C88159905AA05BB050CF48C0151
:103E90006B017B01E00EF11ECE14DF04B1F10E9434
:103EA00004284B015C0180916A0790916B07DC014B
:103EB000ED91FC910284F385E02D199597FF0EC0DA
:103EC0000E940428DC01CB0188199909AA09BB09C1
:103ED000883E9340A105B10530F3C0CFD6018D9344
:103EE0006D018091CD099091CE09A091CF09B0913B
:103EF000D0090197A109B1098093CD099093CE090A
:103F0000A093CF09B093D009C7CFC80102C080E009
:103F100090E00F900F90DF91CF911F910F91FF9044
:103F2000EF90DF90CF90BF90AF909F908F900895CB
:103F3000EF92FF920F931F93CF93DF93CDB7DEB72E
:103F400062970FB6F894DEBF0FBECDBF7C01FB01B8
:103F500085811F928F9384811F928F9383811F92FB
:103F60008F9382811F928F9327E034E03F932F93AA
:103F70008E010F5F1F4F1F930F93498B5A8B0E9427
:103F8000173349895A89B801C7010E945D140FB6D9
:103F9000F894DEBF0FBECDBF62960FB6F894DEBFB9
:103FA0000FBECDBFDF91CF911F910F91FF90EF908A
:103FB00008950C945D14CF92DF92EF92FF920F93CD
:103FC0001F93CF93DF937C01262F972F8A01809137
:103FD0004807882391F0C62FD72F6E01C40ED51E37
:103FE000CC15DD0571F06991D701ED91FC9101903F
:103FF000F081E02DC7011995F3CF642F822F0E9425
:104000006A05C801DF91CF911F910F91FF90EF904A
:10401000DF90CF900895CF93DF931F92CDB7DEB797
:104020006983209148072223D1F020919106203204
:1040300040F021E030E0FC013383228380E090E017
:1040400015C080919206E82FF0E0E75BF84F998168
:1040500090838F5F809392068093910605C061E004
:10406000CE0101960E946A0581E090E00F90DF91F9
:10407000CF91089580916A0790916B07DC01ED91D3
:10408000FC910084F185E02D19951816190664F449
:1040900080916A0790916B07DC01ED91FC9102849D
:1040A000F385E02D1995E6CF08953F924F925F92E8
:1040B0006F927F928F929F92AF92BF92CF92DF9238
:1040C000EF92FF920F931F93CF93DF936C015B01ED
:1040D000342E80917E0990917F099093830980937B
:1040E000820992D72B013C01CFEFDFEF0D2C000CA2
:1040F000EE08FF0889D7DC01CB0184199509A609D0
:10410000B7098C159D05AE05BF0508F05DC0CF3F12
:10411000FFEFDF0709F058C080916A0790916B07A5
:10412000DC01ED91FC910084F185E02D1995892B3E
:1041300009F380916A0790916B07DC01ED91FC9186
:104140000284F385E02D1995E0918209F0918309AD
:1041500080838091820990918309019690938309CD
:1041600080938209209180093091810982179307F9
:1041700040F080917E0990917F099093830980930C
:104180008209A114B10439F0C5010E9414148823D6
:1041900011F0C5E0D0E0332009F4ACCF89E0882EDF
:1041A00083E0982E00E010E0F401819191914F019D
:1041B0000E941414811106C00F5F1F4F05301105B6
:1041C00099F798CFE80196CF1FD7DC01CB0184196E
:1041D0009509A609B7098C159D05AE05BF0550F0D8
:1041E00064E773E08FEB98E0C8DA67EF73E08FEB7A
:1041F00098E0B3DACE01DF91CF911F910F91FF903C
:10420000EF90DF90CF90BF90AF909F908F907F9076
:104210006F905F904F903F900895AF92BF92CF9272
:10422000DF92EF92FF920F931F93CF93DF93CDB75F
:10423000DEB764970FB6F894DEBF0FBECDBF7C012A
:104240005B018A01DC011C968C91843018F44115C5
:10425000510531F481E090E0F7019383828379C0C6
:104260001F934F931F928F9389E494E09F938F93B2
:104270009E012F5F3F4F69013F932F930E94173399
:10428000B60180916A0790916B0757DA40E063E1CD
:1042900076E088EE93E009DF0FB6F894DEBF0FBE3C
:1042A000CDBF059741F064E773E08FEB98E065DAE6
:1042B0006EE274E01DC080916A0790916B07DC018B
:1042C000ED91FC910280F381E02DA801B5011995D3
:1042D00041E060E070E080ED97E0E7DE039709F4ED
:1042E0003BC064E773E08FEB98E047DA63E174E08A
:1042F0008FEB98E032DA81E090E0F70193838283DC
:1043000064E773E08FEB98E038DA6AE574E08FEBEE
:1043100098E04CD961EA74E08FEB98E02EDAD7018F
:104320001C964C9150E060E070E02AE08FEB98E042
:1043300076D98FEB98E0FED960EA7FE080E090E0EC
:104340002BD6D701ED91FC910488F589E02DC701AA
:10435000199580E090E001C0C80164960FB6F8940A
:10436000DEBF0FBECDBFDF91CF911F910F91FF90A8
:10437000EF90DF90CF90BF90AF900895CF93DF93F1
:10438000CDB7DEB7C85CD1090FB6F894DEBF0FBE5B
:10439000CDBF9E012E523F4FC253DF4F48815981FE
:1043A000CE5CD04068EC70E0CE0101960E944633AE
:1043B00081E060DEBE016F5F7F4F80916A07909160
:1043C0006B07BBD941E060E070E0C053DF4F8881EC
:1043D0009981C05DD04069DEC853DF4F0FB6F894B5
:1043E000DEBF0FBECDBFDF91CF910895CF93DF9396
:1043F000FC0124852F3FC1F1EC0164E773E08FEBF2
:1044000098E0BBD963E874E08FEB98E0CFD861EA1D
:1044100074E08FEB98E0B1D94C8550E060E070E03B
:104420002AE08FEB98E0FBD88FEB98E083D98C855E
:104430001F928F938FE08F9380EA8F9384E794E0AD
:104440009F938F939BDFEC85F0E0EE0FFF1FE05012
:10445000FE4F8FEF9FEF918380838C870F900F909B
:104460000F900F900F900F90DF91CF910895AF9222
:10447000BF92CF92DF92EF92FF920F931F93CF9351
:10448000DF935C016B017A01E901188281E0F2DDC2
:10449000B50180916A0790916B075FD941E0B60141
:1044A00088EE93E002DE8530910509F047C08091E7
:1044B0007E0990917F0990938309809382094091AE
:1044C0007C0950917D094F5F5F4F60E070E00E9472
:1044D0000A3C41E0B70184EF91E0E7DD059731F553
:1044E000A80141505109F70101900020E9F73197E7
:1044F000CF018E199F0960917E0970917F09E0912B
:104500008209F0918309E61BF70BE81BF90B4E17A4
:104510005F0708F0AF01CE010E942C3C41E060E053
:1045200070E080ED97E0C1DD81E015C064E773E0E5
:104530008FEB98E022D968ED73E009C0059750F041
:1045400064E773E08FEB98E018D96AEE73E08FEBC5
:1045500098E003D980E0DF91CF911F910F91FF90F8
:10456000EF90DF90CF90BF90AF9008956F927F92C1
:104570008F929F92AF92BF92CF92DF92EF92FF9273
:104580000F931F93CF93DF9300D01F92CDB7DEB769
:104590004C015A016DB67EB6CB012B833C836983F7
:1045A0007A830E94D83201964DB75EB7481B590BEB
:1045B0000FB6F8945EBF0FBE4DBF8DB79EB7019684
:1045C0007C0169817A810E94D132C5010E94D83272
:1045D00001964DB75EB7481B590B0FB6F8945EBFF6
:1045E0000FBE4DBF8DB79EB701966C01B5010E94FD
:1045F000D1322B813C81A601B701C40138DF0FB64F
:10460000F8947EBE0FBE6DBE0F900F900F900F906E
:10461000DF91CF911F910F91FF90EF90DF90CF909E
:10462000BF90AF909F908F907F906F900895CF92A2
:10463000DF92EF92FF920F931F93CF93DF934091FE
:10464000CD095091CE096091CF097091D00914160F
:1046500015061606170644F49091CC09981711F028
:10466000911102C0CA01FFC0182F80916A07909172
:104670006B07DC01ED91FC910084F185E02D19952B
:10468000892B19F480E090E0EEC0E0906A07F0908A
:104690006B07C0E0D0E0C7010E949F1A97FD43C09E
:1046A000FE01EB5EF94F2081022E000C330B8217C6
:1046B000930789F1209779F366E176E09E01215016
:1046C0003109F901EB5EF94F4081042E000C550BC6
:1046D00084179507E1F421153105E9F2E5E1F6E0EB
:1046E00040E050E001916B01C40ED51ED601DC9074
:1046F0000D1539F04217530771F26F5F7F4FE901D3
:10470000DDCF4F5F5F4F4217530760F3F3CF2115A3
:10471000310599F7BECF2196C530D10509F0BBCF41
:1047200080E090E002C08FEF9FEF892B09F0AACFC5
:1047300080916A0790916B071DD36093CC0980919B
:104740006A0790916B07DC01ED91FC910284F3857F
:10475000E02D199580916A0790916B070BD36093B8
:10476000CD097093CE098093CF099093D0098091A1
:104770006A0790916B07DC01ED91FC910284F3854F
:10478000E02D199580916A0790916B07F3D26093A1
:10479000810780916A0790916B07DC01ED91FC9194
:1047A0000284F385E02D199580916A0790916B073B
:1047B000E1D26093820780916A0790916B07DC01D8
:1047C000ED91FC910284F385E02D199580916A07A3
:1047D00090916B07CFD26093830780916A07909185
:1047E0006B07DC01ED91FC910284F385E02D1995B6
:1047F00080916A0790916B07BDD260938407809186
:104800006A0790916B07DC01ED91FC910284F385BE
:10481000E02D199580916A0790916B07DC01ED916D
:10482000FC910284F385E02D199580916A0790919F
:104830006B07A0D27093800760937F0780916A070F
:1048400090916B07DC01ED91FC910284F385E02DE2
:1048500019958091CC09811711F0111113CF809116
:10486000CD099091CE09DF91CF911F910F91FF90CB
:10487000EF90DF90CF900895FC0184858F3F19F071
:10488000D6DE97FF02C080E090E00895CF93DF93DB
:10489000FC0144815581608171818FEB98E00E9419
:1048A000DF16EC018FEB98E00E949A1B8C0F9D1F86
:1048B000DF91CF9108954F925F926F927F928F9286
:1048C0009F92AF92BF92CF92DF92EF92FF926B01D5
:1048D0007C019B01AC010E949739882319F068E79D
:1048E00076E01AC046015701E894B7F82FEF3FEF82
:1048F0004FE75FE7C501B4010E949739811112C0EB
:104900002FEF3FEF4FE75FE7C501B4010E94A937E2
:10491000181644F46CE776E08FEB98E00E94FA1AE0
:104920007C018AC02FEF3FEF4FE75FE4C701B6017C
:104930000E94933918161CF460E876E0EDCF2FEF53
:104940003FEF4FE75FECC701B6010E94A93787FD33
:10495000F3CF20E030E0A901C701B6010E94A937DA
:1049600087FF0BC06DE28FEB98E00E94CF1A5C01CD
:10497000F7FAF094F7F8F09402C0A12CB12C2AE0D9
:1049800037ED43EA5BE3C701B6010E94FE382B0115
:104990003C010E9467396B017C010E94AD379B018D
:1049A000AC01C301B2010E94FD382B013C012AE099
:1049B000B701A6018FEB98E00E940F1B7C01EA0C67
:1049C000FB1C6EE28FEB98E00E94CF1AE80EF91EF6
:1049D00020E030E040E251E4C301B2010E940E3811
:1049E0002B013C010E9467394B01A12CB12C2AE01C
:1049F000B501A4018FEB98E00E940F1BE80EF91E91
:104A0000C501B4010E94AD379B01AC01C301B201E5
:104A10000E94FD3820E030E040E251E40E940E3870
:104A20000E946739AB0160E070E02AE08FEB98E00C
:104A30000E940F1BE80EF91E8FEB98E00E949A1B54
:104A40008E0D9F1DFF90EF90DF90CF90BF90AF90A5
:104A50009F908F907F906F905F904F900895CF922E
:104A6000DF92EF92FF92CF93DF936C01990FEE08E4
:104A7000FF08F7FE16C06DE28FEB98E00E94CF1A98
:104A8000EC0144275527BA014C195D096E097F09CD
:104A90002AE08FEB98E00E940F1B7C01EC0EFD1EBC
:104AA00008C02AE0B701A6018FEB98E00E940F1B17
:104AB0007C018FEB98E00E949A1B8E0D9F1DDF9169
:104AC000CF91FF90EF90DF90CF90089590E0FC01A0
:104AD0003197E231F10508F04EC08827E658FF4FC4
:104AE0008F4F0C94CA39809180008F7703C08091DA
:104AF00080008F7D80938000089580918000877F63
:104B0000F9CF84B58F7702C084B58F7D84BD0895B9
:104B10008091B0008F7703C08091B0008F7D80932B
:104B2000B0000895809190008F7707C08091900029
:104B30008F7D03C080919000877F809390000895BF
:104B40008091A0008F7707C08091A0008F7D03C067
:104B50008091A000877F8093A0000895809120011C
:104B60008F7707C0809120018F7D03C08091200145
:104B7000877F8093200108953FB7F8948091D609EC
:104B80009091D709A091D809B091D90926B5A89BD1
:104B900005C02F3F19F00196A11DB11D3FBFBA2FCF
:104BA000A92F982F8827820F911DA11DB11DBC012F
:104BB000CD0142E0660F771F881F991F4A95D1F7F4
:104BC00008959F92AF92BF92CF92DF92EF92FF92A1
:104BD0000F931F93CF93DF93CDB7DEB727970FB611
:104BE000F894DEBF0FBECDBFFC019681992309F476
:104BF000ADC07B018F01915096836F0182E0C80E9A
:104C0000D11CC6010E94C91DD8011296ED91FC91DC
:104C1000139780818B3521F08B3709F45DC070C00C
:104C2000F801808191810E943C095C016BE5C6011D
:104C30000E940B1E882359F16DE5C6010E940B1ED0
:104C4000811135C086E0982E1A821982BE016F5FED
:104C50007F4FC801B6DF8823D1F0C5010E94FF084D
:104C60000097A9F0FE013196DC011296892D019082
:104C70000D928A95E1F76DE5C6010E940B1E811128
:104C800016C06CE2C6010E940B1E8111DDCF80911F
:104C9000700781110EC010926D0710926C07109270
:104CA0006F0710926E0781E08093700702C0F501D4
:104CB00002C0ECE6F7E080819181892B11F420E0BD
:104CC00040C086E090E0D70111969C938E93139696
:104CD000FC93EE93129712C0C8010E94A30EFC0130
:104CE00020813181232B59F327E030E0D701119641
:104CF0003C932E9313969C938E93129721E021C0A0
:104D000021E0873219F0823209F020E0C8012F83B8
:104D10000E94160E2F81009791F2222341F042E06B
:104D200050E0F70151834083938382830AC021E0DE
:104D300030E0D70111963C932E9313969C938E935B
:104D40001297F80186818F5F868301C020E0822F51
:104D500027960FB6F894DEBF0FBECDBFDF91CF917F
:104D60001F910F91FF90EF90DF90CF90BF90AF9089
:104D70009F900895AF92BF92CF92DF92EF92FF92F1
:104D80001F93CF93DF9300D01F92CDB7DEB75C01A6
:104D9000C5010E946F1AFC0197FD0FC08D3291056D
:104DA00081F0C0970A9768F0D501ED91FC910284DB
:104DB000F385E02DC5011995EBCF60E070E0CB01E4
:104DC0004AC020E030E0A90110E0E130F105E9F04F
:104DD000ED32F105C9F0CF01C0970A97B0F4AAE00F
:104DE000B0E00E94E4386F01FF0FEE08FF08DC011D
:104DF000CB018C0D9D1DAE1DBF1D9C01AD0120532F
:104E000031094109510901C011E0D501ED91FC9131
:104E10000284F385E02DC50129833A834B835C83AB
:104E20001995C5010E946F1AFC01C09729813A812A
:104E30004B815C810A9748F2E130F10531F2112390
:104E400041F066277727CB01621B730B840B950B10
:104E500002C0CA01B9010F900F900F900F90DF911F
:104E6000CF911F91FF90EF90DF90CF90BF90AF90C8
:104E70000895CF93DF93282F30E0F901E459FA4FDA
:104E80008491F901EA5DFA4FD491F901E052FB4FA8
:104E9000C491CC2389F0811119DEEC2FF0E0EE0FE4
:104EA000FF1FEA53FB4FA591B491EC91ED2381E0F4
:104EB00090E021F480E002C080E090E0DF91CF91AB
:104EC00008951F93CF93DF93282F30E0F901E45921
:104ED000FA4F8491F901EA5DFA4FD491F901E05259
:104EE000FB4FC491CC23C1F0162F8111EFDDEC2FC5
:104EF000F0E0EE0FFF1FE455FB4FA591B4918FB783
:104F0000F894111105C09C91ED2FE095E92302C0A2
:104F1000EC91ED2BEC938FBFDF91CF911F91089512
:104F2000CF93DF9390E0FC01EA5DFA4F2491FC01FE
:104F3000E052FB4F8491882361F190E0880F991F24
:104F4000FC01EE56FB4FC591D491FC01E455FB4F9B
:104F5000A591B491611109C09FB7F89488812095FB
:104F600082238883EC912E230BC0623061F49FB7BB
:104F7000F8943881822F809583238883EC912E2B9F
:104F80002C939FBF06C08FB7F894E8812E2B2883FF
:104F90008FBFDF91CF9108958F929F92AF92BF9272
:104FA000CF92DF92EF92FF926B017C01E5DD4B0126
:104FB0005C01C114D104E104F104E9F0DDDDDC01A0
:104FC000CB0188199909AA09BB09883E9340A1051C
:104FD000B10578F321E0C21AD108E108F10888EEA2
:104FE000880E83E0981EA11CB11CC114D104E104F9
:104FF000F10421F7DECFFF90EF90DF90CF90BF90CC
:10500000AF909F908F9008952FB7F8946091D20938
:105010007091D3098091D4099091D5092FBF08953B
:105020008F929F92AF92BF92CF92DF92EF92FF92B8
:10503000CF93DF93F82EEB01E42E6901E5DF4B01FE
:105040005C0180916A0790916B07DC01ED91FC9106
:105050000084F185E02D1995892B09F472C08091A7
:105060006A0790916B07DC01ED91FC91EE2031F025
:105070000484F585E02D1995888318C00284F38592
:10508000E02D199588838091CD099091CE09A0914A
:10509000CF09B091D0090197A109B1098093CD0939
:1050A0009093CE09A093CF09B093D0098091CD09F8
:1050B0009091CE09A091CF09B091D009892B8A2B6C
:1050C0008B2B11F081E08BC065E070E080E090E018
:1050D00063DF80916A0790916B07DC01ED91FC9191
:1050E0000084F185E02D1995892B61F380916A0781
:1050F00090916B07DC01ED91FC910484F585E02D26
:1051000019952F2D30E0205D3F4F82179307D1F680
:1051100040E064E876E084EF91E00E945520059736
:1051200061F064E773E08FEB98E00E94BD1B6BEBCE
:1051300075E08FEB98E00E94AD1B81E0F601808363
:105140004EC062DFDC01CB0188199909AA09BB09AD
:10515000803D9740A105B10508F473CF64E773E083
:105160008FEB98E00E94BD1B62EB75E08FEB98E03F
:105170000E94D61A61EA74E08FEB98E00E94BD1B92
:10518000C090CD09D090CE09E090CF09F090D00921
:10519000F7FE0EC06DE28FEB98E00E94CF1A442715
:1051A0005527BA014C195D096E097F092AE003C031
:1051B0002AE0B701A6018FEB98E00E940F1B8FEB4E
:1051C00098E00E949A1B1092CD091092CE0910927D
:1051D000CF091092D0091092CC09188280E0DF919B
:1051E000CF91FF90EF90DF90CF90BF90AF909F90C6
:1051F0008F9008951F920F920FB60F9211242F9344
:105200003F938F939F93AF93BF938091D2099091D7
:10521000D309A091D409B091D5093091D10923E0E7
:10522000230F2D3720F40196A11DB11D05C026E8DE
:10523000230F0296A11DB11D2093D1098093D2099D
:105240009093D309A093D409B093D5098091D6093E
:105250009091D709A091D809B091D9090196A11DC3
:10526000B11D8093D6099093D709A093D809B09324
:10527000D909BF91AF919F918F913F912F910F903D
:105280000FBE0F901F901895CF93DF93CDB7DEB769
:10529000E9970FB6F894DEBF0FBECDBF789484B502
:1052A000826084BD84B5816084BD85B5826085BD22
:1052B00085B5816085BD80916E00816080936E00B0
:1052C00010928100809181008260809381008091A2
:1052D0008100816080938100809180008160809353
:1052E00080008091B10084608093B1008091B00013
:1052F00081608093B00080919100826080939100E2
:1053000080919100816080939100809190008160F4
:10531000809390008091A10082608093A100809191
:10532000A10081608093A1008091A00081608093A2
:10533000A000809121018260809321018091210150
:105340008160809321018091200181608093200100
:1053500080917A00846080937A0080917A008260E4
:1053600080937A0080917A00816080937A008091A6
:105370007A00806880937A001092C10086E090E005
:105380000E94EC397C0183E192E0D70111969C9355
:105390008E9380E490E013969C938E93129789E20B
:1053A00090E015969C938E93149760E0B9DD60E0D1
:1053B00080E4B6DDF0929806E092970686E090E0F1
:1053C0000E94EC398C018BE192E0F801918380839B
:1053D00081E490E09383828387E290E095838483E5
:1053E00060E09EDD60E081E49BDD10939606009313
:1053F000950684E090E00E94EC396C0183E292E033
:10540000D6018D939C938EE090E00E94EC395C0174
:1054100060E086E385DDECE5F5E0E491D501EC9311
:10542000E6E1F5E0E491F0E0EE0FFF1FEA53FB4FF9
:1054300085919491F5019283818313861586148654
:105440003B96C50103961292E817F907E1F783E14D
:1054500090E00E94EC39FC018DEF9CE0928B818BF7
:10546000B682A5821482108289E08183BB24B39422
:10547000B282B382D6011396FC93EE931297D09228
:10548000A006C0929F0688E090E00E94EC39FC01E3
:105490008BE292E091838083F782E6821583048316
:1054A000D382C282F093AD06E093AC0640E855E2A9
:1054B00060E070E08FEB98E00E94781640E855E2DB
:1054C00060E070E082E298E00E94781640E052ECE2
:1054D00061E070E085E897E00E9478168CE090E04B
:1054E0000E94EC398C01FC011382128283E392E06A
:1054F0009183808387E2848380E1818782E0828751
:10550000138684E090E00E94EC397C018FE392E006
:10551000D70111969C938E9313961C930E9312971A
:10552000F092A506E092A40684E090E00E94EC3997
:105530008C0187E492E0F8019183808382E090E01F
:105540009383828361E0ECDC1093A9060093A806A4
:1055500084E090E00E94EC392FE432E0DC01119607
:105560003C932E931396FC92EE9212979093A7067B
:105570008093A606F701028113811092940610927F
:105580009306109292061092910610929006B09295
:105590008F0610928E0661E084E193DC61E085E184
:1055A00090DC8091B9008E7F8093B9008091B90022
:1055B0008D7F8093B90088E48093B80085E4809360
:1055C000BC00D80115961C9215971A968C911A97C3
:1055D000823018F098E015969C93F80180878BE351
:1055E0009DE00197F1F76385C8010E948C0F68EE7A
:1055F00073E080E090E0D0DC60E3C8010E94F10F2E
:105600008BE4C82E86E4D82EC6010197F1F760E33B
:10561000C8010E94F10FC6010197F1F760E3C801CC
:105620000E94F10F83E592E00197F1F760E2C80173
:105630000E94F10FF8016581606240E0C8010E949C
:10564000071084E0D80116968C9340E06CE0C80106
:105650000E940710C8010E94201082E0F801878391
:1056600040E066E0C8010E94071040E062E0C80127
:105670000E9407108BE39FE10197F1F7D701129683
:105680008D919C91139728E0FC01238760E00E9494
:105690008C0F0091A4061091A50660E0D801129627
:1056A0008D919C9113970E944D1663E673E0F8016B
:1056B000828193810E94BD1BE0919F06F091A0061C
:1056C00002811381D8011596ED91FC9116971386EE
:1056D00015861486DF011B9633961E92AE17BF0700
:1056E000E1F7F8011482FF24F394BE01615F7F4F5C
:1056F000D80115968D919C9116970E949311D82EE2
:10570000882309F456C067E0CE010F960E94281046
:105710009E898913EACFD8018C91811127C01596F3
:105720008D919C9116970E94C510BE01615F7F4FBD
:10573000F801858196810E94761040E064EBD801E3
:1057400015968D919C9116970E943510F8018581D0
:1057500096810E94A110E82ED80115968D919C91FA
:1057600016970E94C510EE2009F45AC0AE014F5F93
:105770005F4FBE01615F7F4FC8010E94FB10F801BF
:10578000E180BE01615F7F4FC8010E945A118E15F2
:1057900020F4D80111968C9106C0BE01615F7F4F45
:1057A000C8010E945A11F801818384818F5F84832C
:1057B0009CCFA090A606B090A70664E773E08FEB9D
:1057C00098E00E94BD1B63E172E08FEB98E00E94BD
:1057D000AD1B85E897E090936B0780936A0705E01F
:1057E00010E080E192E00E944814892BE1F068EE1D
:1057F00073E080E090E0D0DB0150110991F764E79D
:1058000073E08FEB98E00E94BD1B63EF71E08FEBBC
:1058100098E00E94AD1B68E873E180E090E065C00D
:10582000F801F082A3CF83EB91E00E94481468EB6B
:105830007BE080E090E0B0DB80E00E943A208EEADE
:1058400091E00E94481482EA91E00E94481468ECBA
:1058500070E080E090E0A0DB86E991E00E944814CF
:1058600088E891E00E94481488E791E00E9448147B
:105870008AE691E00E94481468EC70E080E090E0D5
:105880008BDB1092990606E010E029E936E043E54B
:1058900051E066E571E083E691E00E94B6228091D6
:1058A00099068153823028F480919A068E3209F449
:1058B00080C464E773E08FEB98E00E94BD1B65ED48
:1058C00071E08FEB98E00E94D61A61EA74E08FEBEA
:1058D00098E00E94BD1B69E976E08FEB98E00E949A
:1058E0009D1B60EA7FE080E090E056DB0AE010E07C
:1058F000FE0131967F019F014BE252E06EE272E0C1
:1059000086E392E00E94B622882369F0C701FED5A3
:105910009C01225031092330310540F0059741F4B4
:10592000B3E0DB2E05C0DD24DA9402C0DD24D3947D
:1059300011E0FFEFDF1215C010E0D5011296CD90F7
:10594000DC90139760E0F601828193810E944D16EE
:105950006FE773E0D60112968D919C9113970E9488
:10596000BD1B111101C0FFCF0091A4061091A50627
:10597000F801828193810E94201060E973E0D801D0
:1059800012968D919C9113970E94BD1B61E0F801C6
:10599000828193810E944D166DE973E0D8011296C1
:1059A0008D919C9113970E94BD1B8091A6069091AA
:1059B000A7062091A8063091A9064091A40650910F
:1059C000A50665E672E0788B6F875A8B498B3C8B16
:1059D0002B8B9E8B8D8B86E090E00E94EC396C01C6
:1059E00087E592E0F601918380831382128215820B
:1059F00014828E01095E1F4FA5E64A2EA2E05A2EA0
:105A00008091A30681113BC282E298E00E94541764
:105A1000892BB1F360EE74E0CE014E960E94BC1962
:105A200082E298E00E949F1A97FD06C0682FCE017F
:105A30004E960E940F19F4CF8FE592E0988F8F8BCE
:105A40001B8E1A8E80E092E09D8F8C8FCE014E9639
:105A50000E9446248E8D9F8D009711F480EE94E075
:105A60001A8309839C838B831E830D838AE08F8333
:105A7000C7010E94A30E5C018FE592E0988F8F8B87
:105A8000EA8DFB8D309759F0828193819D8F8C8FA9
:105A900080809180CF010E94813AF401F3CFCE0142
:105AA0004E960E947F194EEA53E0B501CE01C09692
:105AB0000E949D0D6AE879E0CE01C0960E94B01860
:105AC000882309F488C145EB53E0B501CE018A96DD
:105AD0000E949D0D4AEB53E0B501CE0184960E94D1
