:1000000003C1000032C1000030C100002EC1000059
:100010002CC100002AC1000028C1000026C1000038
:1000200024C1000022C1000020C100001EC1000048
:100030001CC100001AC1000018C1000016C1000058
:1000400014C1000012C1000010C100000EC1000068
:100050000CC100000AC1000008C100000C944D1141
:1000600004C10000A0C7000075C70000FEC000006A
:10007000FCC00000FAC00000F8C00000F6C000009C
:10008000F4C00000F2C00000F0C00000EEC00000AC
:1000900038C700000DC70000E8C0000097C400008A
:1000A000E4C00000E2C00000E0C00000DEC00000CC
:1000B000DCC00000DAC00000D8C00000D6C00000DC
:1000C000D4C00000D2C00000D0C00000CEC00000EC
:1000D000CCC00000CAC00000C8C00000C6C00000FC
:1000E000C4C00000AE0BA80BBE0BB60BB30B630B6A
:1000F000800B2A0BA50EA80E970E9B0E9F0EDF0EEF
:10010000AC0EB00EB60EBA0EBE0EC40EC80ECC0E9D
:10011000DF0ED20ED60EDA0E0000220025002800D7
:100120002B002E00310034000201000005010801FF
:100130000B0105050505070508080808020202026B
:100140000A0A080804040404010101010101010173
:100150000303030303030303040707070C0C0C0C3E
:100160000C0C0C0C02020202060606060606060627
:100170000B0B0B0B0B0B0B0B0102102020080810B4
:100180002040102040800201020108040201010207
:1001900004081020408080402010080402018004E0
:1001A000020180402010080402010804020101023B
:1001B0000408102040800102040810204080000044
:1001C0000A0B02090C0D0E080703040100000000D1
:1001D000000000000000000000000000000000001F
:1001E00000000000000000000000121110000000DC
:1001F00000000000000000000000000000000000FF
:10020000000000006914611411241FBECFEFD1E279
:10021000DEBFCDBF00E00CBF25E0AAEBB3E001C01C
:100220001D92AD3CB207E1F713E0A0E0B2E0E6E5D5
:10023000F2E300E00BBF02C007900D92AA3BB107AA
:10024000D9F711E0C3E0D1E000E006C02197010931
:10025000802FFE010E94D016C230D10780E008072F
:10026000A9F70E9497110C941A19CACE80914B04D9
:1002700081110BC0109248041092470410924A0456
:100280001092490481E080934B0487E494E0089540
:10029000089581E090E0309159042091580432177C
:1002A00010F480E090E091958195910908958091F6
:1002B000590490915804891730F48F5F8093590442
:1002C00080E090E008958FEF9FEF089580915804AB
:1002D00090E020915904821B91090895089580E0CF
:1002E00090E0089585ED8093BC008091BC0084FD72
:1002F000FCCF1092550408954091DC03262F30E086
:10030000240F311D21323105DCF4209155042430B5
:10031000C9F4FC0180E090E0861758F43091DC03CA
:100320002191DC01A654BC4FA30FB11D2C93019663
:10033000F3CF8091DC03680F6093DC0380E00895C5
:1003400081E0089582E00895CF92DF92EF92FF92CC
:100350000F931F93CF93DF937C01262F972F8A0152
:1003600080912504882391F0C62FD72F6E01C40EEB
:10037000D51ECC15DD0569F06991D701ED91FC9191
:100380000190F081E02DC7011995F3CF642F822FE2
:10039000B3DFC801DF91CF911F910F91FF90EF90D4
:1003A000DF90CF900895CF93DF931F92CDB7DEB744
:1003B0006983209125042223D1F020915604203214
:1003C00040F021E030E0FC013383228380E090E0C4
:1003D00014C080915704E82FF0E0EA5DFB4F99814B
:1003E00090838F5F809357048093560404C061E02C
:1003F000CE01019681DF81E090E00F90DF91CF91F7
:1004000008950C9481170C9481170C9481170E9405
:100410004F0D009749F0FC012481358127303105CB
:1004200019F486819781089521CFCF92DF92EF92C0
:10043000FF920F931F93CF93DF93CDB7DEB72C9727
:100440000FB6F894DEBF0FBECDBF8C01CB01BA0151
:100450000E944F0D7C01009709F44BC0FC01C48041
:10046000D580F1E0CF16D10461F4FC01668177817B
:100470006115710531F088EC92E00E940A19892B10
:1004800069F0F1E0CF1AD10882E0C816D10430F447
:10049000F701668177816115710569F56BED72E091
:1004A000CE0101966C01DBD4DC86CB86CE010B96A7
:1004B00098878F831A861986BE01695F7F4FC701AF
:1004C00004960E94FF0A89819A81F80191838083B2
:1004D0008B819C81938382838D819E81958384838C
:1004E0001A8219821C821B821E821D82C601B2D40E
:1004F00004C06BED72E0C801B2D4C8012C960FB6EF
:10050000F894DEBF0FBECDBFDF91CF911F910F9149
:10051000FF90EF90DF90CF900895EF92FF921F939E
:10052000CF93DF9300D000D0CDB7DEB77C01DC01E4
:1005300014968D919C9115979A8389831C821B82B6
:100540001E821D82C70102960E94170ED7011296C5
:10055000ED91FC9113971081173239F1123229F184
:1005600080ED810F8A3078F081EA810F8C3158F06C
:100570008FEB810F8A3138F01B3229F083ED810F28
:10058000823008F044C0F701828193810196938301
:100590008283612FCE0101960E94C20DD70112966F
:1005A000ED91FC9113971081DBCF3196D701139613
:1005B000FC93EE931297D7011296ED91FC9113974D
:1005C0006081662321F1CF01019613969C938E934F
:1005D00012976117E1F06C35A9F46181A1EDB2E0E9
:1005E0008C91882339F0861303C011966C9102C058
:1005F0001296F6CF662359F03296D7011396FC93E4
:10060000EE931297CE0101960E94C20DD4CF60E006
:10061000CE0101960E94C20D8B819C8126960FB659
:10062000F894DEBF0FBECDBFDF91CF911F91FF9039
:10063000EF9008950895AF92BF92CF92DF92EF921C
:10064000FF920F931F93CF93DF93CDB7DEB76897D9
:100650000FB6F894DEBF0FBECDBF7C018A016CEDF2
:1006600072E0CA010E946A0D6C0163EE72E0C8017B
:100670000E946A0D5C014AEE52E0B801CE01079675
:10068000D4DE41EF52E0B801CE010196CEDEC601C4
:100690000E94410FC5010E94410FCE0107960E94A2
:1006A000C70FCE0101960E94C70F1C8A1B8A1E8AA3
:1006B0001D8A188E1F8ABE016F5F7F4FCE01439641
:1006C000A9D31E861D86188A1F861A8A198ABE011A
:1006D000695F7F4FCE010D969DD38E010D5E1F4F3A
:1006E0009E01235F3F4FA501B601C7014AD7CE0146
:1006F0000D96B0D3C801AED3CE010196ABD3CE01D7
:100700000796A8D3C70168960FB6F894DEBF0FBE50
:10071000CDBFDF91CF911F910F91FF90EF90DF90B0
:10072000CF90BF90AF900895DB01109749F0ED9105
:10073000FC9111970190F081E02DBC01CD0119943D
:1007400080E090E008959F92AF92BF92CF92DF92A7
:10075000EF92FF920F931F93CF93DF9300D000D0BF
:10076000CDB7DEB76C01FC0100811181B80184E0D6
:1007700090E0DADF009709F478C0FC011183008370
:10078000138212828C017601F2E0EF0EF11C6BE70E
:10079000C7010E94590E882309F464C06DE7C701A0
:1007A0000E94590E811163C086E0982EC601B5DE05
:1007B0005C01892B09F456C06AE3C7010E94590EF7
:1007C000882309F44FC01A821982BE016F5F7F4FE0
:1007D000C6010E94DE0F882309F444C0B501C80198
:1007E0000E944F0DDC01892B49F5F8016081718170
:1007F0008AE090E099DFDC01892B39F011961C9298
:100800001E9215961C921E921497F8012281338134
:100810002115310551F0F90180819181009711F086
:100820009C01F9CFB183A08303C0F801B383A283F5
:100830001097C1F01396BC92AE921297FE013196BA
:100840001496892D01900D928A95E1F76DE7C70105
:100850000E94590E81110BC06CE2C7010E94590E13
:100860008111A4CF03DD8C0102C000DD8BCFC80154
:1008700026960FB6F894DEBF0FBECDBFDF91CF91A5
:100880001F910F91FF90EF90DF90CF90BF90AF90AE
:100890009F9008950895CF93FC01C48121E0209397
:1008A0002504C09346041092570410925604838581
:1008B000682B86E995E077DD80915604813208F057
:1008C00046C0909155049111FCCF92E0909355044D
:1008D00091E0909354049FEF90932404109223048A
:1008E00080932204A6E2B4E022E034E0F9019E2FD6
:1008F000921B981718F49D919193F9CF10920104CF
:1009000080910104CC0FC82BC09301048091530443
:10091000813061F410925304809101048093BB00F4
:100920008091BC0083FDF8CF85EC01C085EE8093FB
:10093000BC00809155048230E1F3809124048F3F04
:1009400031F080912404803211F0809124041092BF
:1009500057041092560410922504CF9108950F93D6
:100960001F93CF938C01C62F96DF6C2F6460C80154
:1009700092DF6C2F6B7FC8018EDF83EC90E00197D4
:10098000F1F7CF911F910F9108950F931F93CF937C
:10099000DF938C01D62FC42F607F642BE0DF6D2F97
:1009A0006295607F6C2BC801DF91CF911F910F91F1
:1009B000D6CF41E0EADF81E090E0089540E061E0D9
:1009C000E4DF8BE39FE10197F1F708951F920F9207
:1009D0000FB60F9211240BB60F922F933F934F93A4
:1009E0005F936F937F938F939F93AF93BF93EF9397
:1009F000FF938091B900887F803609F49CC068F528
:100A0000883209F45BC090F4803109F454C038F4A2
:100A1000882309F4F6C0883009F44DC0F5C0883148
:100A200009F44CC0803209F45DC0EEC0803409F492
:100A300068C048F4803309F455C0883309F0E4C035
:100A400080932404D8C0803509F44FC0883509F458
:100A50005DC0883409F0D8C0D6C0883909F4C7C051
:100A6000A8F4883709F467C038F4883609F463C0FD
:100A7000803709F460C0C8C0883809F4B8C080392C
:100A800009F45FC0803809F0BFC05BC0803B09F447
:100A900086C038F4803A09F466C0883A09F47FC009
:100AA000B3C0803C09F4A7C0883C09F4A4C0883BCB
:100AB00009F48AC0A9C08091010410C09091230458
:100AC00080912204981770F5E091230481E08E0F45
:100AD00080932304F0E0EE5FFB4F80818093BB00A6
:100AE00085EC86C0809324048EC0E091230481E0CD
:100AF0008E0F809323048091BB00F0E0EE5FFB4FEC
:100B0000808390912304809122046EC0E09123049D
:100B100081E08E0F809323048091BB00F0E0EE5FB4
:100B2000FB4F80838091540481116DC081E08093DC
:100B3000530484EA61C083E080935504109200045A
:100B4000CFCF80910004803208F051C0E0910004C2
:100B500081E08E0F809300048091BB00F0E0E052B2
:100B6000FC4F8083BDCF85EC8093BC001092550470
:100B700080910004803230F4E0910004F0E0E05213
:100B8000FC4F10826091000470E0E091DE03F09170
:100B9000DF0380EE93E019951092000435C084E0E5
:100BA000809355041092DD031092DC03E091DA0388
:100BB000F091DB0319958091DC03811105C081E080
:100BC0008093DC031092BA03E091DD0381E08E0F85
:100BD0008093DD03F0E0E654FC4F80818093BB00FE
:100BE0009091DD038091DC03981708F479CF85E8B4
:100BF0008093BC0009C085EC8093BC001092550422
:100C000003C0109224046EDBFF91EF91BF91AF916E
:100C10009F918F917F916F915F914F913F912F9114
:100C20000F900BBE0F900FBE0F901F901895089558
:100C3000CF92DF92EF92FF920F931F93CF93DF93A8
:100C40006C017A018B01C0E0D0E0CE15DF0589F0A0
:100C5000D8016D918D01D601ED91FC910190F0814B
:100C6000E02DC6011995892B11F47E0102C0219651
:100C7000ECCFC701DF91CF911F910F91FF90EF90C3
:100C8000DF90CF9008958CE594E0E7D121E0892BA7
:100C900009F420E0822F089589EF94E0DED121E06D
:100CA000892B09F420E0822F08950E94FD18FC0191
:100CB00024813581FB01448155812417350721F5B5
:100CC000FC0180819181FB0160817181009719F0A5
:100CD00061157105A1F46115710549F0232BB1F07F
:100CE000FB01808190E09195819591090AC0009760
:100CF00069F0232B59F0FC01808190E002C00E9432
:100D00000A1921E0892B19F020E001C021E0822F8F
:100D100008950F931F93CF93DF93EC0188819981FE
:100D2000009729F02A813B812617370788F48B0129
:100D30006F5F7F4F0E941918009761F09983888335
:100D40001B830A832C813D81232B11F4FC0110822B
:100D500081E001C080E0DF91CF911F910F91089554
:100D6000EF92FF920F931F93CF93DF931F921F92E7
:100D7000CDB7DEB78C0169831A82FC01E480F5806F
:100D8000FFEFEF1AFF0AB701C4DF882381F0F801F3
:100D90002081318184819581BE016F5F7F4F820FF9
:100DA000931F0E941319F801F582E48281E00F90ED
:100DB0000F90DF91CF911F910F91FF90EF900895C9
:100DC000EF92FF920F931F93CF93DF93EC017B0180
:100DD0008A01BA019EDF2881398181110DC0211558
:100DE000310519F0C9010E948117198218821D82EC
:100DF0001C821B821A8206C01D830C83B701C901A5
:100E00000E941319CE01DF91CF911F910F91FF9096
:100E1000EF900895CF93DF93EC01FB0186179707BE
:100E2000A9F0608171816115710521F044815581BE
:100E3000C7DF0CC088819981009711F00E9481174B
:100E4000198218821D821C821B821A82CE01DF91B8
:100E5000CF910895FC01808191810C948117FC0150
:100E6000118210821382128215821482611571051B
:100E700049F0FB0101900020E9F73197AF01461BD3
:100E8000570B9ECF08956115710579F0FB01019014
:100E90000020E9F73197AF01461B570BDC01ED91BC
:100EA000FC910280F381E02D199480E090E0089598
:100EB0001F920F920FB60F9211240BB60F922F9321
:100EC0003F934F935F936F937F938F939F93AF93D2
:100ED000BF93EF93FF938CE594E0A2D2FF91EF9143
:100EE000BF91AF919F918F917F916F915F914F9142
:100EF0003F912F910F900BBE0F900FBE0F901F9040
:100F000018951F920F920FB60F9211240BB60F92E5
:100F10002F933F934F935F936F937F938F939F9301
:100F2000AF93BF93EF93FF938CE594E060D2FF9172
:100F3000EF91BF91AF919F918F917F916F915F9151
:100F40004F913F912F910F900BBE0F900FBE0F90BE
:100F50001F9018951F920F920FB60F9211240BB687
:100F60000F922F933F934F935F936F937F938F9342
:100F70009F93AF93BF93EF93FF9389EF94E050D289
:100F8000FF91EF91BF91AF919F918F917F916F9161
:100F90005F914F913F912F910F900BBE0F900FBE1D
:100FA0000F901F9018951F920F920FB60F92112459
:100FB0000BB60F922F933F934F935F936F937F9353
:100FC0008F939F93AF93BF93EF93FF9389EF94E039
:100FD0000ED2FF91EF91BF91AF919F918F917F9131
:100FE0006F915F914F913F912F910F900BBE0F909A
:100FF0000FBE0F901F901895FC01538D448D252F27
:1010000030E0842F90E0821B930B541710F0CF96A2
:10101000089501970895FC01918D828D981761F0D4
:10102000828DDF01A80FB11D5D968C91928D9F5F1F
:101030009F73928F90E008958FEF9FEF0895FC01CA
:10104000918D828D981731F0828DE80FF11D858D7D
:1010500090E008958FEF9FEF0895FC01918D228D10
:10106000892F90E0805C9F4F821B91098F73992795
:10107000089580E090E0892B19F00EDE811120C0E8
:1010800080E090E0892B19F0FEDD81111CC080E02A
:1010900090E0892B41F080E090E0892B21F00E94C4
:1010A0000000811113C080E090E0892BA1F080E066
:1010B00090E0892B81F00E94000081110AC0089500
:1010C0000E940000DDCF0E940000E1CF0E940000DE
:1010D000EACF0C94000008950C948117CF93DF930E
:1010E000EC0184E892E099838883CE010896B2DE11
:1010F000CE010296DF91CF91ADCECF93DF93EC017D
:10110000EDDFCE01DF91CF910C948117CF93DF9368
:10111000EC018CE792E099838883CE010C969ADEED
:10112000CE010696DF91CF9195CECF93DF93EC0160
:10113000EDDFCE01DF91CF910C948117CF93DF9338
:10114000EC01E881F981808191810ADE8A819B81AD
:1011500001969B838A83DF91CF9108958F929F920E
:10116000AF92BF92CF92DF92EF92FF920F931F93B5
:10117000CF93DF937C014B01DC01AD90BC90F50176
:1011800000811181D8011496CD90DC9015976115DE
:101190007105F9F0FB0101900020E9F73197E61B9A
:1011A000F70BB9F0EF01CC0DDD1DBE01C801B1DDBB
:1011B000882379F0F8012081318184819581B401FF
:1011C000820F931F0E941319D8011596DC93CE93BA
:1011D0001497D501ED91FC9124813581F70182812D
:1011E0009381820F931F8C199D0993838283DF91D2
:1011F000CF911F910F91FF90EF90DF90CF90BF9014
:10120000AF909F908F9008950F931F93CF93DF938C
:10121000CDB7DEB766970FB6F894DEBF0FBECDBF71
:101220008C01CB011E8AFE0176962AE030E0B901DE
:101230000E949B1690E3980F9293CB010097B9F709
:10124000BF01C8018BDF66960FB6F894DEBF0FBEF4
:10125000CDBFDF91CF911F910F9108958F929F92F3
:10126000AF92BF92EF92FF920F931F93CF93DF93B2
:10127000CDB7DEB766970FB6F894DEBF0FBECDBF11
:101280007C011E8A8E010A5E1F4F8AE0882E912CF7
:10129000A12CB12CCB01BA01A50194010E94AE167C
:1012A000942F852F605DF80162938F01A901692F4A
:1012B000782F411551056105710561F7BF01C7011F
:1012C0004DDF66960FB6F894DEBF0FBECDBFDF913F
:1012D000CF911F910F91FF90EF90BF90AF909F9093
:1012E0008F900895FF920F931F93CF93DF93611513
:1012F000710541F468EC72E0DF91CF911F910F917D
:10130000FF902CCF8B01EC0162E2CE0117DFF801D8
:1013100061918F01662351F0EDECF2E0F080FF2047
:10132000A1F39181961751F03296F8CF62E2CE0187
:10133000DF91CF911F910F91FF9000CF6CE5CE010F
:10134000FDDE6F2DE2CFCF92DF92EF92FF920F93EF
:101350001F93CF93DF938C017B01DC011596CD9118
:10136000DC9116976B016C177D0708F46E01C601BE
:1013700006960E94EC16FC01892BB1F0D382C28242
:10138000D80113968D919C91149791838083149624
:10139000FC93EE931397CC0FDD1F1696DC93CE9340
:1013A0001597F582E4823696CF01DF91CF911F9198
:1013B0000F91FF90EF90DF90CF900895DC0113968E
:1013C000ED91FC911497309751F024813581AB0158
:1013D000420F531FA281B381A417B50708F4B3CFFE
:1013E000C9010696558344838E0F9F1F0895FC0103
:1013F000A089B1898C91A689B78982FD0FC09C9183
:10140000818D8F5F8F73228D821749F0218DDF01CF
:10141000A20FB11D5D969C93818F08958C910895C4
:10142000FC01848DDF01A80FB11DA35ABF4F2C9181
:10143000848D90E001968F739927848FA689B78950
:101440002C93A089B1898C9180648C93938D848D29
:10145000981306C00288F389E02D80818F7D8083F8
:101460000895EF92FF920F931F93CF93DF93EC01B8
:1014700081E0888F9B8D8C8D981305C0E889F98950
:10148000808185FD23C0F62E0B8D10E00F5F1F4F6E
:101490000F731127E02E8C8DE8120BC00FB607FCDE
:1014A000FACFE889F989808185FFF5CFCE01B8DFD1
:1014B000F2CF8B8DFE01E80FF11DE35AFF4FF08252
:1014C0000B8FEA89FB898081806207C0EE89FF89E2
:1014D0006083E889F98980818064808381E090E07D
:1014E000DF91CF911F910F91FF90EF900895CF93CF
:1014F000DF93EC01888D8823C1F0EA89FB89808124
:1015000085FD05C0A889B9898C9186FD0EC00FB6EE
:1015100007FCF5CF808185FFF2CFA889B9898C912E
:1015200085FFEDCFCE017CDFE8CFDF91CF9108952D
:10153000CF92DF92EF92FF920F931F93CF93DF939F
:10154000EC016B017A0184E892E0FE0181939193B2
:101550008F016BED72E0CF0182DC28966BED72E0BB
:10156000CE017DDCB601C80155DCB701CE01DF91AB
:10157000CF911F910F91FF90EF90DF90CF904ACCC9
:1015800008956F927F928F929F92AF92BF92CF9267
:10159000DF92EF92FF920F931F93CF93DF93EC01B3
:1015A0005B014A0169018CE792E0998388833E01DF
:1015B00086E0680E711C6BED72E0C30150DC7E01A9
:1015C0008CE0E80EF11C6BED72E0C70148DCBB82D9
:1015D000AA829D828C82B601C3011CDCB801C701BE
:1015E000DF91CF911F910F91FF90EF90DF90CF90FF
:1015F000BF90AF909F908F907F906F900BCC2F9269
:101600003F924F925F926F927F928F929F92AF9292
:10161000BF92CF92DF92EF92FF920F931F93CF93DF
:10162000DF93CDB7DEB76A970FB6F894DEBF0FBE73
:10163000CDBFDC01ED91FC9111973197E830F105B8
:1016400008F014C28B017C018827EE58FF4F8F4FA2
:101650000C94D016FD01C280D380E480F580A701F0
:101660009601C701B6010E94E814882319F064E9C5
:1016700073E092C020E030E0A901C701B6010E94EA
:10168000E81487FF07C06DE2C80158DDF7FAF0944F
:10169000F7F8F09420E030E0A901C701B6010E94FC
:1016A000E814882309F47BC0A7019601C701B6019D
:1016B0000E940216A70196010E94E81481116FC0D2
:1016C0006BE973E069C01296ED90FC9013976BE59F
:1016D000C80134DDF701E280F380E114F10451F038
:1016E000B801C70102968BDFD701ED90FC90E114A1
:1016F000F10411F46DE529C06CE2C8011FDDEDCFE6
:10170000FD01E280F3806BE7C80118DDD701129676
:10171000ED90FC90139703C06CE2C8010FDDE1145B
:10172000F10491F0F70162817381C801DBDD6AE3A6
:10173000C80104DDB801C701049661DFD701ED904F
:10174000FC90E114F10441F76DE7C801F7DC8EC1AC
:10175000FD0162817381C801C5DD88C112966D915A
:101760007C91139719C06DE2C801E8DCF701428152
:10177000538164817581C80171DD78C1FD01828169
:101780009381A481B581892B8A2B8B2B19F46EE868
:1017900073E002C069E873E0C801E0DC67C120E8DB
:1017A00036E948E15BE4C701B6010E94971687FD60
:1017B00055C1412C512C70E2672E712C812C912C3B
:1017C000F201E05AFD4F2489358946895789C701BE
:1017D000B6010E94971687FD0FC0F201E85BFD4F2E
:1017E0002489358946895789C701B6010E944D155C
:1017F0006B017C01860C971C75946794F4E04F1A7A
:10180000510888EE48168FEF5806D1F655245A94A1
:1018100020E030E0A901C701B6010E949716181612
:1018200094F52CEA35EC47E257E3C701B6010E9474
:10183000E814181644F1BFEF5B1629F1952DA4E0CA
:101840009A0250011124F501E05DFD4F20813181A4
:1018500042815381C701B6010E94E81487FF0FC07F
:10186000F501E05AFD4F2081318142815381C7014A
:10187000B6010E944D156B017C018618970875947E
:1018800067945A94D8CFC701B6010E946B162B01FA
:101890003C016B8B7C8B8D8B9E8B46E0A42E80E471
:1018A00092E4AFE0B0E08F8B988FA98FBA8FBA2CFB
:1018B000AA24AA94AB0C8B899C89AD89BE890A970E
:1018C000A105B105E8F06F89788D898D9A8D2AE0A0
:1018D00030E040E050E00E94AE162F8B388F498FE9
:1018E0005A8F6B897C898D899E892AE030E040E09F
:1018F00050E00E94AE162B8B3C8B4D8B5E8BD7CF6E
:10190000C301B2010E94EC149B01AC01C701B601F6
:101910000E9401166B017C016F89788D898D9A8DEB
:101920000E94EC149B01AC01C701B6010E944D1549
:101930006B8B7C8B8D8B9E8B0E946B166B017C015D
:101940000E94EC149B01AC016B897C898D899E8976
:101950000E9401169B01AC010E9402160E946B16A8
:10196000C60ED71EE81EF91E8F89988DA98DBA8DD7
:10197000C816D906EA06FB0610F19FEF491A590A64
:10198000690A790A8114910489F0AAE04A1651047F
:101990006104710458F0BFEF8B1A9B0AC12CD12C43
:1019A0007601412C512C3201439409C0C12CD12C19
:1019B000760105C01B147CF469017A01BA94C70151
:1019C000B6012AE030E040E050E00E94AE16672BFE
:1019D000682B692B79F3AB2CB301A201C8013EDC63
:1019E000BB2039F1188A3E01E0E16E0E711C7A8A43
:1019F000698A2AE0222E312C412C512CAA94BFEF67
:101A0000AB1669F0C701B601A20191010E94AE16A2
:101A1000605DD3016E933D0169017A01EFCF698961
:101A20007A896B1971098EE2FB018293BF01C801AB
:101A300095DB97FE09C068E973E0C8018FDB662774
:101A400077276819790907C08114910479F065E650
:101A5000C80174DBB401C801D7DB08C080E2682E7E
:101A6000712C95E0592E812C912CD2CE6A960FB60E
:101A7000F894DEBF0FBECDBFDF91CF911F910F91C4
:101A8000FF90EF90DF90CF90BF90AF909F908F909E
:101A90007F906F905F904F903F902F9008950F939D
:101AA0001F93CF93DF938B01FC01C281D3812097D9
:101AB00059F06A817B81C8010E940A19892B21F0A3
:101AC0000990D881C02DF3CFCE01DF91CF911F9126
:101AD0000F910895E4DFFC01892B09F44BC0848148
:101AE0009581833091053CF4813091057CF4009719
:101AF00009F447C038C0853091052CF0059799F559
:101B0000668177812BC08681978108950680F78151
:101B1000E02D309779F18081843779F18B3229F08B
:101B20008D3221F4319691E002C0319690E060E070
:101B300070E03AE0819120ED280F2A3068F4369F5A
:101B4000A001379F500D1124682F880F770B605329
:101B50007109640F751FEECF992391F0882799279B
:101B6000861B970B089566817781808591850E94F9
:101B7000661606C080E090E0089581E090E0089548
:101B8000CB010895FF920F931F93CF93DF93EC0146
:101B9000F62E88819981FC01A381B481109771F0A0
:101BA0001496ED91FC9115979F012F5F3F4F129670
:101BB0004D915C9113974217530750F52C813D814D
:101BC000B9016F5F7F4FBFDB8C016A817B8161153B
:101BD000710549F00115110571F04C815D81C80155
:101BE0000E94011903C00115110529F0EC81FD8146
:101BF000E00FF11FF0821B830A838C819D81019687
:101C00009D838C83DF91CF911F910F91FF90089559
:101C10003696EA0FFB1F15963C932E93149760831C
:101C20008C819D81892B49F7FB83EA83E6CFFC01F8
:101C3000A081B1818C918D3051F024F48950823093
:101C4000B8F505C0803219F08F3219F00895119659
:101C50002CC011968C9111978A3219F08F32D1F0E5
:101C600008951196B183A083A081B181CD01019621
:101C70009183808311968C9111978823C9F08A32C1
:101C800099F712968C9112978F3271F713960DC0B7
:101C90008A3071F2A081B181CD0101969183808358
:101CA00011968C918111F4CF03C0B183A083C0CF72
:101CB00008950F931F93CF93DF931F92CDB7DEB795
:101CC0008C016983B4DFD801ED91FC91119780817B
:101CD0006981861305C03196ED93FC9381E001C0C4
:101CE00080E00F90DF91CF911F910F91089590E0C8
:101CF000FC01E254FE4F4491FC01E858FE4F249150
:101D0000FC01EE5CFE4F9491992309F466C04423D4
:101D100009F455C050E0FA013197E231F10508F0BD
:101D20004EC08827E658FF4F8F4F0C94D0168091F5
:101D300080008F7707C0809180008F7D03C08091E5
:101D40008000877F809380003AC084B58F7702C07F
:101D500084B58F7D84BD33C08091B0008F7703C080
:101D60008091B0008F7D8093B00029C08091900059
:101D70008F7707C0809190008F7D03C08091900085
:101D8000877F809390001BC08091A0008F7707C051
:101D90008091A0008F7D03C08091A000877F8093F9
:101DA000A0000DC0809120018F7707C08091200195
:101DB0008F7D03C080912001877F80932001E92FD0
:101DC000F0E0EE0FFF1FE85EFE4FA591B4918FB7D4
:101DD000F894EC912E2B2C938FBF0895CF93DF9323
:101DE000CDB7DEB728970FB6F894DEBF0FBECDBFD4
:101DF00028E0E8E8F2E0DE01119601900D922A95C4
:101E0000E1F7FC012085261710F46FEF620FFE0149
:101E10003196E60FF11DE60FF11D6081606840E02C
:101E200028960FB6F894DEBF0FBECDBFDF91CF91DD
:101E30000C94C504FC01A089B18982E08C93A4852F
:101E4000B5851C92A685B7858FEC8C93108EA489DE
:101E5000B58986E08C93A289B3898C9180618C933B
:101E6000A289B3898C9188608C93A289B3898C9163
:101E700080688C930288F389E02D80818F7D808338
:101E800008958F929F92AF92BF92CF92DF92EF927E
:101E9000FF920F931F93CF93DF93CDB7DEB7A19738
:101EA0000FB6F894DEBF0FBECDBF6C01990FEE08E0
:101EB000FF08F7FE32C0E091F904F091FA040190B6
:101EC000F081E02D6DE289EF94E019958C012227D5
:101ED0003327A9012C193D094E095F0919A2CE012A
:101EE00081967C019AE0892E912CA12CB12CCA01FB
:101EF000B901A501940132D7605DF70162937F01BA
:101F0000211531054105510591F7BF0189EF94E095
:101F10000E944307080F191F1FC0A701960119A2AD
:101F20008E010F5D1F4F8AE0C82ED12CE12CF12CC1
:101F3000CA01B901A701960111D7605DF80162934A
:101F40008F01211531054105510591F7BF0189EF39
:101F500094E00E9443078C0169E773E089EF94E005
:101F60000E944307800F911FA1960FB6F894DEBF21
:101F70000FBECDBFDF91CF911F910F91FF90EF90DA
:101F8000DF90CF90BF90AF909F908F900895CF93A8
:101F9000DF93FC01448155816081718189EF94E078
:101FA0000E941806EC0169E773E089EF94E00E9453
:101FB00043078C0F9D1FDF91CF9108959F92AF92A1
:101FC000BF92CF92DF92EF92FF920F931F93CF9326
:101FD000DF9300D000D0CDB7DEB7FC019681992306
:101FE00009F4DCC06B017F01915096835F0182E0B0
:101FF000A80EB11CC5011BDED7011296ED91FC9114
:10200000139780818B3521F08B3709F494C09EC0E3
:10201000F70100811181B80184E090E00E949403EF
:10202000009751F0DC0111961C930E9313961C92AD
:102030001E9212978C0111C08091C10581110BC0B5
:102040001092BE051092BD051092C0051092BF05FA
:1020500081E08093C1050DEB15E06BE5C50129DE3C
:10206000882309F448C06DE5C50123DE811154C001
:1020700086E0982E1A821982BE016F5F7F4FC701DA
:102080009DDF8823C1F1F8016081718188E090E0D3
:102090000E949403DC01892B39F011961C921E9248
:1020A00013961C921E921297F801228133812115FA
:1020B000310551F0F90180819181009711F09C0167
:1020C000F9CFB183A08303C0F801B383A283109733
:1020D00091F0FE0131961296892D01900D928A950C
:1020E000E1F76DE5C501E5DD811116C06CE2C501C2
:1020F000E0DD8111BFCF8091C10581110BC010922D
:10210000BE051092BD051092C0051092BF0581E07A
:102110008093C1050DEB15E0D8018D919C91892B21
:1021200011F410E033C086E090E0F60191838083E3
:10213000138302832AC0C7010E94A303DC012D91EF
:102140003C91232B71F327E030E01AC011E0873275
:1021500019F0823209F010E0C7010E948D02009749
:1021600001F3112359F022E030E0D60111963C939F
:102170002E9313969C938E93129708C021E030E023
:10218000F601318320839383828311E0D701169671
:102190008C9116978F5F16968C9301C010E0812F5B
:1021A00026960FB6F894DEBF0FBECDBFDF91CF915C
:1021B0001F910F91FF90EF90DF90CF90BF90AF9065
:1021C0009F9008952FB7F8948091B9059091BA0522
:1021D000A091BB05B091BC052FBF80936404909380
:1021E0006504A0936604B0936704E0915C04F091E9
:1021F0005D040284F385E02D8CE594E0199597FF4A
:1022000026C02FB7F8948091B9059091BA05A09196
:10221000BB05B091BC052FBF40916404509165048B
:102220006091660470916704841B950BA60BB70B35
:102230004091600450916104609162047091630464
:1022400084179507A607B70780F28FEF9FEF0895D1
:102250003FB7F8948091B5059091B605A091B70568
:10226000B091B80526B5A89B05C02F3F19F001967F
:10227000A11DB11D3FBFBA2FA92F982F8827820F0C
:10228000911DA11DB11DBC01CD0142E0660F771F5C
:10229000881F991F4A95D1F708951F920F920FB684
:1022A0000F9211242F933F938F939F93AF93BF93DC
:1022B0008091B9059091BA05A091BB05B091BC057C
:1022C0003091B40523E0230F2D3720F40196A11D92
:1022D000B11D05C026E8230F0296A11DB11D209354
:1022E000B4058093B9059093BA05A093BB05B0934C
:1022F000BC058091B5059091B605A091B705B09148
:10230000B8050196A11DB11D8093B5059093B60542
:10231000A093B705B093B805BF91AF919F918F91EE
:102320003F912F910F900FBE0F901F901895CF9354
:10233000DF93CDB7DEB7C256D1090FB6F894DEBF32
:102340000FBECDBF789484B5826084BD84B58160B2
:1023500084BD85B5826085BD85B5816085BD809170
:102360006E00816080936E001092810080918100E8
:1023700082608093810080918100816080938100E0
:10238000809180008160809380008091B1008460A2
:102390008093B1008091B00081608093B000809103
:1023A0009100826080939100809191008160809380
:1023B0009100809190008160809390008091A100B5
:1023C00082608093A1008091A10081608093A10030
:1023D0008091A00081608093A000809121018260A3
:1023E000809321018091210181608093210180915E
:1023F000200181608093200180917A008460809325
:102400007A0080917A00826080937A0080917A00CD
:10241000816080937A0080917A00806880937A004E
:102420001092C1001EAA1DAA8AE092E09CAB8BAB61
:1024300087E28FAB80E18CAF82E08DAF1EAE7E0174
:102440002BE5E20EF11C8CE292E0F7019183808390
:102450008E010D5C1F4F138302831092590410925A
:10246000580410925704109256041092550481E0BB
:10247000809354041092530484E139DC85E137DC05
:102480008091B9008E7F8093B9008091B9008D7FD3
:102490008093B90088E48093B80085E48093BC0001
:1024A00018AE8DAD823010F098E098AF8BAF8BE313
:1024B0009DE00197F1F76EADC8010E944B04C8DEA4
:1024C0002B013C0138EE832E33E0932EA12CB12C4E
:1024D000BFDEDC01CB0184199509A609B709883E46
:1024E0009340A105B10558F0F1E08F1A9108A108B9
:1024F000B10828EE420E23E0521E611C711C8114AB
:102500009104A104B10421F760E3C8010E94AF0463
:102510008BE4C82E86E4D82EC6010197F1F760E35C
:10252000C8010E94AF04C6010197F1F760E3C8013A
:102530000E94AF0483E592E00197F1F760E2C801E1
:102540000E94AF0468AD606240E0C8010E94C5040B
:1025500084E089AF40E06CE0C8010E94C504C80176
:102560000E94DE0482E08AAF40E066E0C8010E947B
:10257000C50440E062E0C8010E94C5048BE39FE10E
:102580000197F1F7F7018281938128E0FC0123870D
:1025900060E00E944B0489EF94E04CDC8CE594E011
:1025A00049DCF701828193810E94DE0460E073E0E0
:1025B000F701828193810E94430761E0F7018281E4
:1025C00093810CDC6DE073E0F701828193810E94BE
:1025D000430784E292E069969FAF8EAF69976B964E
:1025E000FFAEEEAE6B97A0961FAEA097A1961FAE62
:1025F000A197A2961FAEA297A3961FAEA39796E1AE
:10260000692E92E0792E212C22E0322E8E010D5E71
:102610001F4FCE0101967C014E0195E2890E911C5F
:102620006E01EBE4CE0ED11C80915B0481110AC1D6
:102630008CE594E00E942D08892BB1F36BED72E0DC
:10264000CE01CF960E942F07BDDD97FD06C0682FF3
:10265000CE01CF960E94B006F7CF7C8A6B8A1F8A84
:102660001E8A398E288ECE01CF9691DC21968EADB2
:102670009FAD2197009711F48BED92E01A830983A7
:102680009C838B831E830D83FAE0FF83C7010E9426
:10269000A3035C017C8A6B8AEE89FF89309751F035
:1026A00082819381998F888F40805180CF0129D476
:1026B000F201F4CFCE01CF960E942A074EE153E0FB
:1026C000B501CE018F5A9F4F0E9415026EEA75E048
:1026D000CE018F5A9F4F0E945706882309F462C08B
:1026E00045E253E0B501CE018B5B9F4F0E9415027E
:1026F0004AE253E0B501CE01CF960E941502CE0109
:102700008F5A9F4F44DCCE018B5B9F4F40DCCE0144
:10271000CF963DDC1A8219821C821B821E821D828A
:10272000BE01615C7F4FC7010E940A071C8A1B8A99
:102730001E8A1D8A188E1F8ABE016B5B7F4FC801DF
:102740000E940A07A701B801C4010E94980AC801A3
:102750000E942A07C7010E942A0721E020935B04F8
:102760006B964EAC5FAC6B9760E0F2018281938117
:1027700035DB63E373E0F201828193810E944307BA
:10278000C4010E946E08CE01CF960E942A07CE0196
:102790008B5B9F4F0E942A07A2968FAEA297A396AB
:1027A0009FAEA39768EA75E0CE018F5A9F4F0E94B3
:1027B0005706882309F440C064E473E0C5010E9411
:1027C0000702AC01BE01695A7F4FC8010E941B037A
:1027D0006DE473E0C5010E940702AC01BE01695AB5
:1027E0007F4FC7010E941B038CE192E0F6019183A9
:1027F000808313830283F582E48291E090935A04EC
:102800006B96AEACBFAC6B9761E0F50182819381B2
:10281000E5DA67E573E0F501828193810E94430761
:10282000C7010E948608C8010E948608A096CFAE04
:10283000A097A196DFAEA197CE018F5A9F4F0E941D
:102840002A07F2CE80915A04882309F4F1CE68E673
:1028500073E089EF94E00E94430769E773E089EF32
:1028600094E00E9443076B960EAD1FAD6B97F80185
:10287000828193810E94DE046CE773E0F80182811B
:1028800093810E944307A2962FADA2972093A4059F
:10289000A3962FADA3972093A505A0962FADA09743
:1028A0002093A605A1962FADA1972093A70580910F
:1028B0005B04811180915A0490E0E3DA0E943908A8
:1028C000FDCF88EA95E00E942A078EEA95E00C94F5
:1028D0002A07CF92DF92EF92FF92ECE5F4E01382A9
:1028E000128288EEC82E83E0D82EE12CF12CC4820F
:1028F000D582E682F78284E992E0918380832DEC91
:1029000030E0358724872CEC30E03787268728ECA9
:1029100030E0318B208B29EC30E0338B228B2AEC9A
:1029200030E0358B248B2EEC30E0378B268B118EEC
:10293000128E138E148EE9EFF4E013821282C48299
:10294000D582E682F7829183808385EC90E095873B
:10295000848784EC90E09787868780EC90E0918B69
:10296000808B81EC90E0938B828B82EC90E0958B56
:10297000848B86EC90E0978B868B118E128E138E53
:10298000148E64EA73E08EEA95E00E942F076CEAE9
:1029900073E088EA95E00E942F07E6E9F5E01382EC
:1029A0001282C482D582E682F78286EA92E091831F
:1029B0008083E2EAF5E084EC92E0918380831382E5
:1029C000128215821482FF90EF90DF90CF900895CD
:1029D00040D008F481E00895E89409C097FB3EF4E4
:1029E00090958095709561957F4F8F4F9F4F99235C
:1029F000A9F0F92F96E9BB279395F69587957795DA
:102A00006795B795F111F8CFFAF4BB0F11F460FF99
:102A10001BC06F5F7F4F8F4F9F4F16C0882311F0F1
:102A200096E911C0772321F09EE8872F762F05C005
:102A3000662371F096E8862F70E060E02AF09A95A0
:102A4000660F771F881FDAF7880F9695879597F995
:102A50000895990F0008550FAA0BE0E8FEEF16162F
:102A60001706E807F907C0F012161306E407F50782
:102A700098F0621B730B840B950B39F40A2661F0F6
:102A8000232B242B252B21F408950A2609F4A14099
:102A9000A6958FEF811D811D08950BD078C069D058
:102AA00028F06ED018F0952309F05AC05FC01124A9
:102AB000A2C07ED0A0F3959FD1F3950F50E0551F93
:102AC000629FF001729FBB27F00DB11D639FAA2783
:102AD000F00DB11DAA1F649F6627B00DA11D661FD2
:102AE000829F2227B00DA11D621F739FB00DA11DF3
:102AF000621F839FA00D611D221F749F3327A00DAD
:102B0000611D231F849F600D211D822F762F6A2F48
:102B100011249F5750408AF0E1F088234AF0EE0FCD
:102B2000FF1FBB1F661F771F881F91505040A9F7DA
:102B30009E3F510570F014C05EC05F3FECF3983EBD
:102B4000DCF3869577956795B795F795E7959F5F41
:102B5000C1F7FE2B880F911D9695879597F90895DB
:102B600097F99F6780E870E060E008959FEF80EC40
:102B7000089500240A9416161706180609060895E3
:102B800000240A9412161306140605060895092E49
:102B90000394000C11F4882352F0BB0F40F4BF2BB8
:102BA00011F460FF04C06F5F7F4F8F4F9F4F0895F8
:102BB00057FD9058440F551F59F05F3F71F04795EE
:102BC000880F97FB991F61F09F3F79F087950895D3
:102BD000121613061406551FF2CF4695F1DF08C0F2
:102BE000161617061806991FF1CF8695710561050F
:102BF00008940895E894BB2766277727CB0197F9B7
:102C000008955058BB27AA270ED0C1CFB2DF30F0AD
:102C1000B7DF20F031F49F3F11F41EF4A7CF0EF47C
:102C2000E095E7FB9DCFE92FC3DF80F3BA1762077A
:102C300073078407950718F071F49EF5DBCF0EF447
:102C4000E0950B2EBA2FA02D0B01B90190010C01BC
:102C5000CA01A0011124FF27591B99F0593F50F4D4
:102C6000503E68F11A16F040A22F232F342F44272C
:102C7000585FF3CF469537952795A795F040539524
:102C8000C9F77EF41F16BA0B620B730B840BBAF0F4
:102C90009150A1F0FF0FBB1F661F771F881FC2F75F
:102CA0000EC0BA0F621F731F841F48F48795779573
:102CB0006795B795F7959E3F08F0B3CF9395880F2A
:102CC00008F09927EE0F97958795089504D068949A
:102CD000B11191CF089574DF88F09F5790F0B92F0C
:102CE0009927B751A0F0D1F0660F771F881F991F61
:102CF0001AF0BA95C9F712C0B13081F07BDFB1E0AC
:102D0000089578CF672F782F8827B85F39F0B93FBB
:102D1000CCF3869577956795B395D9F73EF4909562
:102D20008095709561957F4F8F4F9F4F089591DEED
:102D300008F48FEF089597FB072E16F4009406D041
:102D400077FD08D035D007FC05D03EF490958195ED
:102D50009F4F0895709561957F4F0895A1E21A2EB7
:102D6000AA1BBB1BFD010DC0AA1FBB1FEE1FFF1F2F
:102D7000A217B307E407F50720F0A21BB30BE40B7F
:102D8000F50B661F771F881F991F1A9469F76095C6
:102D90007095809590959B01AC01BD01CF01089580
:102DA000EE0FFF1F881F8BBF0790F691E02D19943F
:102DB000AA1BBB1B51E107C0AA1FBB1FA617B70761
:102DC00010F0A61BB70B881F991F5A95A9F780957D
:102DD0009095BC01CD010895CF93DF93823091058A
:102DE00010F482E090E0E091CB05F091CC0520E07A
:102DF00030E0C0E0D0E0309711F1408151814817B8
:102E00005907C0F04817590761F4828193812097D0
:102E100019F09B838A832BC09093CC058093CB05BC
:102E200026C02115310519F04217530718F49A01ED
:102E3000BE01DF01EF010280F381E02DDCCF21151F
:102E4000310509F1281B390B2430310590F4129615
:102E50008D919C9113976115710521F0FB0193836E
:102E6000828304C09093CC058093CB05FD013296FC
:102E700044C0FD01E20FF31F819391932250310969
:102E80002D933C933AC02091C9053091CA05232B5C
:102E900041F420910202309103023093CA0520933D
:102EA000C90520910002309101022115310541F43C
:102EB0002DB73EB74091040250910502241B350BFB
:102EC000E091C905F091CA05E217F307A0F42E1BA3
:102ED0003F0B2817390778F0AC014E5F5F4F24177E
:102EE000350748F04E0F5F1F5093CA054093C90540
:102EF0008193919302C0E0E0F0E0CF01DF91CF91A8
:102F000008950F931F93CF93DF93009709F48CC01C
:102F1000FC013297138212820091CB051091CC05EF
:102F20000115110581F420813181820F931F2091B9
:102F3000C9053091CA052817390779F5F093CA05F4
:102F4000E093C90571C0D80140E050E0AE17BF075B
:102F500050F412962D913C911397AD012115310536
:102F600009F1D901F3CF9D01DA0133832283608116
:102F70007181860F971F8217930769F4EC012881EE
:102F80003981260F371F2E5F3F4F318320838A817F
:102F90009B8193838283452B29F4F093CC05E093A6
:102FA000CB0542C01396FC93EE931297ED01499125
:102FB00059919E01240F351FE217F30771F48081A8
:102FC0009181840F951F029611969C938E93828116
:102FD000938113969C938E931297E0E0F0E0D801D2
:102FE00012968D919C911397009719F0F8018C011E
:102FF000F6CF8D919C9198012E5F3F4F820F931FCA
:103000002091C9053091CA052817390769F430970E
:1030100029F41092CC051092CB0502C013821282C3
:103020001093CA050093C905DF91CF911F910F91AD
:1030300008956F927F928F929F92AF92BF92CF929C
:10304000DF92EF92FF920F931F93CF93DF93EC01E8
:10305000009781F4CB01DF91CF911F910F91FF90E9
:10306000EF90DF90CF90BF90AF909F908F907F9028
:103070006F90B2CEFC01E60FF71F9C012250310980
:10308000E217F30708F4A8C0D9010D911C9111971C
:1030900006171707A8F00530110508F49BC0C801F2
:1030A00004978617970708F495C002501109061B6C
:1030B000170B019311936D937C93CF0122DF8AC08C
:1030C0005B01A01AB10A4C01800E911EA091CB05A4
:1030D000B091CC0540E050E0E12CF12C109709F4C0
:1030E0004AC0A815B905D1F56D907C901197630180
:1030F00082E0C80ED11CCA14DB0480F1A3014A1976
:103100005B096A0182E0C80ED11C1296BC9012972E
:103110001396AC91B5E0CB16D10440F0B282A383F4
:1031200051834083D9016D937C930AC00E5F1F4F7A
:10313000C301800F911FF90191838083EB2DFA2F3A
:10314000E114F10431F0D7011396FC93EE9312973A
:1031500041C0F093CC05E093CB053CC08D919C9190
:1031600011974817590708F4AC017D0112960D908C
:10317000BC91A02DB3CF8091C9059091CA05881547
:103180009905E1F446175707C8F480910002909121
:103190000102009741F48DB79EB74091040250910F
:1031A0000502841B950BE817F907B0F4F093CA05E4
:1031B000E093C905F901718360830CC0CB010CDE7B
:1031C0007C01009749F0A801BE011BD0CE0199DE19
:1031D000C70104C0CE0102C080E090E0DF91CF9132
:1031E0001F910F91FF90EF90DF90CF90BF90AF9025
:1031F0009F908F907F906F90089581E090E0F89479
:1032000019C0FB01DC0102C001900D9241505040F9
:10321000D8F70895FB01DC018D9101908019011010
:10322000D9F3990B0895FB01DC0101900D92002068
:10323000E1F7089511E0C3E0D1E000E005C0802F80
:10324000FE01AEDD2196011DC430D10780E00807E4
:06325000B1F7F894FFCF76
:103256000000CD05800000000000D90418066F01AB
:103266006E0100000000DE0900000000C00A6C08C4
:10327600000000001A030302000000001706010206
:103286000000803FCDCCCC3D6F12833A95BFD6333C
:103296007D1D9026B3CE010CCDCCCC3D0AD7233C68
:1032A60017B7D13877CC2B329595E6241FB14F0A44
:1032B600000020410000C84200401C4620BCBE4C15
:1032C600CA1B0E5AAEC59D740000000086089508FC
:1032D600000000006E087D08000040001400540045
:1032E60000000000310A1806FC07770A2D080B08B3
:1032F6001F0800000000D301A4016F014801660108
:103306005701490100000000550618066F016E01BD
:10331600000000004A0405026E756C6C0022225CF7
:103326005C6208660C6E0A720D7409006465677249
:103336006565006D696E757465007365636F6E64AF
:103346000063617264696E616C5F706F696E7400B0
:1033560057696669206F66666C696E65004C6F63B7
:103366006174696F6E206F66666C696E6500616375
:1033760074696F6E00737369640070617373776F3D
:1033860072640057494649204F4B202020202020B8
:10339600202020006C61746974756465006C6F6E22
:1033A600676974756465004C4F434154494F4E201C
:1033B6004F4B202020202000414C41524D20434FAE
:1033C6004E46494755524544000D0A00414C41526C
:1033D6004D204F4E4C494E4500747275650066612E
:1033E6006C7365004E614E00652D00496E66696E10
:1033F60069747900434F4E4E454354005345545F1C
:0A3406004C4F434154494F4E000063
:00000001FF
