:10000000DDC200000CC300000AC3000008C30000EA
:1000100006C3000004C3000002C3000000C30000C8
:10002000FEC20000FCC20000FAC20000F8C20000DC
:10003000F6C200000C94951AF2C20000F0C2000053
:10004000EEC20000ECC20000EAC20000E8C20000FC
:10005000E6C20000E4C20000E2C200000C941628D0
:10006000DEC200000C94501D0C94271DD8C2000065
:10007000D6C20000D4C20000D2C20000D0C200002C
:10008000CEC20000CCC20000CAC20000C8C200003C
:100090000C94FE1C0C94D51CC2C200000C9443119D
:1000A000BEC20000BCC20000BAC20000B8C200005C
:1000B000B6C20000B4C20000B2C20000B0C200006C
:1000C000AEC20000ACC20000AAC200000C94AC1C7E
:1000D0000C94831CA4C20000A2C20000A0C20000B5
:1000E0009EC2000088058205980590058D055C0577
:1000F0007C052305A224A524942498249E24DC2492
:10010000A924AD24B324B724BB24C124C524C92405
:10011000DC24CF24D324D7244E414E494E49545990
:10012000494E46CDCCCC3D0AD7233C17B7D13877C2
:10013000CC2B329595E6241FB14F0A0000204100D8
:1001400000C84200401C4620BCBE4CCA1B0E5AAE22
:10015000C59D740D0A0053444B2076657273696F18
:100160006E3A0041542B474D520041542B435744A3
:100170004843503D312C310041542B435741555495
:100180004F434F4E4E3D300041542B43495044495C
:100190004E464F3D310041542B4349504D55583D3B
:1001A000310041542B43574D4F44453D310041549C
:1001B00045300041542B52535400496E6974696CA8
:1001C000697A6174696F6E207375636365737366B2
:1001D000756C202D005761726E696E673A20556EFE
:1001E000737570706F72746564206669726D776183
:1001F00072650043616E6E6F7420696E6974696127
:100200006C697A6520455350206D6F64756C65008C
:10021000415400496E697469616C697A696E67203E
:10022000455350206D6F64756C6500436F6E6E654D
:100230006374656420746F004661696C6564206353
:100240006F6E6E656374696E6720746F0041542B26
:1002500043574A41505F4355523D222573222C2279
:1002600025732200456E6420746167206E6F7420D0
:10027000666F756E64004E6F2074616720666F75DF
:100280006E64003E3E3E2054494D454F5554203E3D
:100290003E3E0025642E25642E25642E25640044F0
:1002A000617461207061636B65742073656E642096
:1002B0006572726F72202832290044617461207067
:1002C00061636B65742073656E64206572726F7212
:1002D000202831290041542B43495053454E443D79
:1002E00025642C2575004661696C656420746F2057
:1002F000777269746520746F20736F636B65740027
:1003000041542B434950434C4F53453D25640044D1
:100310006973636F6E6E656374696E672000415424
:100320002B434950535441545553002B4349505388
:1003300054415455533A25642C00005EBCE2613FA1
:10034000DD83C29C7E20A3FD1F419DC3217FFCA2B3
:10035000401E5F01E3BD3E6082DC237D9FC1421CE5
:10036000FEA0E1BF5D0380DE3C62BEE0025CDF8197
:10037000633D7C22C09E1D43A1FF4618FAA4277945
:100380009BC584DA3866E5BB5907DB856739BAE473
:1003900006581947A5FB7826C49A653BD987045AA5
:1003A000B8E6A7F91B45C6987A24F8A6441A99C757
:1003B000257B3A6486D85B05E7B98CD2306EEDB305
:1003C000510F4E10F2AC2F7193CD114FADF3702E33
:1003D000CC92D38D6F31B2EC0E50AFF1134DCE9065
:1003E000722C6D33D18F0C52B0EE326C8ED0530D17
:1003F000EFB1F0AE4C1291CF2D73CA947628ABF5C5
:1004000017490856B4EA6937D58B5709EBB53668F2
:100410008AD495CB2977F4AA4816E9B7550B88D624
:10042000346A2B7597C94A14F6A8742AC896154BD6
:10043000A9F7B6E80A54D7896B35024E6F20736F5F
:10044000636B657420617661696C61626C65004103
:10045000542B43495053544152543D25642C22544B
:100460004350222C222573222C257500436F6E6E7B
:10047000656374696E6720746F00000021002400BA
:1004800027002A002D003000330001010000040184
:1004900007010A0100002200250028002B002E0081
:1004A0003100340002010000050108010B010000C9
:1004B00020002300260029002C002F00320000011C
:1004C00000000301060109010505050507050808E7
:1004D0000808020202020A0A0808040404040101CE
:1004E00001010101010103030303030303030407E3
:1004F00007070C0C0C0C0C0C0C0C0202020206067A
:100500000606060606060B0B0B0B0B0B0B0B01026C
:100510001020200808102040102040800201020115
:1005200008040201010204081020408080402010CD
:100530000804020180040201804020100804020126
:10054000080402010102040810204080010204088E
:100550001020408000000A0B02090C0D0E08070352
:100560000401000000000000000000000000000086
:10057000000000000000000000000000000000007B
:100580001211100000000000000000000000000038
:100590000000000000000000000054494D454F5588
:1005A000543A0054616720434C4F534544206E6FCA
:1005B0007420666F756E6400EC2FE42F11241FBE4B
:1005C000CFEFD1E2DEBFCDBF00E00CBF29E0A8E550
:1005D000B6E001C01D92A639B207E1F716E0A0E02F
:1005E000B2E0EAE0F5E700E00BBF02C007900D9231
:1005F000A835B107D9F712E0CDEDD2E000E006C092
:1006000021970109802FFE010E94DE37CC3DD107E2
:1006100080E00807A9F70E9460280C94743AF0CC97
:10062000FC0126813781620F731F848195818617B3
:10063000970738F08281938177836683820F931FB7
:10064000089580E090E00895DB01109749F0ED9166
:10065000FC9111970190F081E02DBC01CD0119941E
:1006600080E090E008950C9495380C9495380C94A3
:1006700095380C9495380C9495380C9495380C94C6
:1006800095380C9495380F931F93CF93DF931F9257
:100690001F92CDB7DEB78C01DC01ED91FC9180811A
:1006A000918169831A8241E050E0BE016F5F7F4F04
:1006B0000E94A119F801828193810196938382831C
:1006C0000F900F90DF91CF911F910F910895EF92AE
:1006D000FF920F931F93CF93DF93EC01E880F98093
:1006E000D7018D919C91FC010481158161157105E3
:1006F00051F0FB0101900020E9F73197AF01461B53
:10070000570B0E94A119D701ED91FC91848195812D
:100710002A813B81280F391F201B310B3B832A8301
:10072000DF91CF911F910F91FF90EF9008950F935C
:100730001F93CF93DF93CDB7DEB766970FB6F894CC
:10074000DEBF0FBECDBF8C01CB011E8AFE017696A7
:100750002AE030E0B9010E94AF3790E3980F9293FE
:10076000CB010097B9F7BF01C801B1DF66960FB69C
:10077000F894DEBF0FBECDBFDF91CF911F910F91D7
:1007800008958F929F92AF92BF92EF92FF920F9334
:100790001F93CF93DF93CDB7DEB766970FB6F8946C
:1007A000DEBF0FBECDBF7C011E8A8E010A5E1F4FC9
:1007B0008AE0882E912CA12CB12CCB01BA01A50185
:1007C00094010E94D636942F852F605DF8016293C4
:1007D0008F01A901692F782F411551056105710518
:1007E00061F7BF01C70173DF66960FB6F894DEBFED
:1007F0000FBECDBFDF91CF911F910F91FF90EF9072
:10080000BF90AF909F908F900895FF920F931F938A
:10081000CF93DF936115710541F46FEB74E0DF91C5
:10082000CF911F910F91FF9052CF8B01EC0162E2AB
:10083000CE0129DFF80161918F01662351F0E0EBD1
:10084000F4E0F080FF20A1F39181961751F03296E9
:10085000F8CF62E2CE01DF91CF911F910F91FF900F
:1008600012CF6CE5CE010FDF6F2DE2CF85ED8093C7
:10087000BC008091BC0084FDFCCF10925A06089504
:100880004091C506262F30E0240F311D213231055D
:10089000DCF420915A062430C9F4FC0180E090E099
:1008A000861758F43091C5062191DC01AB55B94F3C
:1008B000A30FB11D2C930196F3CF8091C506680F4D
:1008C0006093C50680E0089581E0089582E0089570
:1008D000089508950895CF93DF93EC0164EC74E0DC
:1008E00087E898E00E94621CEA81FB818281938103
:1008F0000E94D423EA81FB81848195810E94D423C4
:100900008A819B8106960E94F3228A819B810C96A4
:10091000DF91CF910C94F322089508950895CF9319
:10092000DF93EC01688179818AE090E08DDE0097A9
:1009300029F0FC011182108215821482EA81FB8168
:10094000309751F0208131812115310511F0F901E5
:10095000F9CF9183808302C09B838A83DF91CF91FB
:1009600008950F931F93CF93DF938B01FC01C281F6
:10097000D381209759F06A817B81C8010E94253A72
:10098000892B21F00990D881C02DF3CFCE01DF91C2
:10099000CF911F910F9108950F931F93CF93DF93E2
:1009A0008C01EB016BE7CE016EDEF8010281138151
:1009B0000115110591F0F80162817381CE0125DFE7
:1009C0006AE3CE0160DEBE01C801049611D0F801D1
:1009D000008111810115110539F46DE7CE01DF9118
:1009E000CF911F910F914FCE6CE2CE014CDEE0CF44
:1009F0002F923F924F925F926F927F928F929F922F
:100A0000AF92BF92CF92DF92EF92FF920F931F931C
:100A1000CF93DF93CDB7DEB766970FB6F894DEBFFE
:100A20000FBECDBFDC01ED91FC9111973197E830FD
:100A3000F10508F0F5C11B018C018827EE58FF4F26
:100A40008F4F0C94DE37FD01C280D380E480F580A7
:100A5000A7019601C701B6010E94BD35882319F090
:100A600067EE74E073C020E030E0A901C701B60171
:100A70000E94BD3587FF07C06DE2C10104DEF7FAB1
:100A8000F094F7F8F09420E030E0A901C701B60136
:100A90000E94BD35882309F45CC0A7019601C701F7
:100AA000B6010E941237A70196010E94BD3581113F
:100AB00050C06EEE74E04AC0FD01028113816BE507
:100AC000C101E1DDD80112960D911C91139701151A
:100AD000110551F0B101C80102968ADFF8010081C9
:100AE00011810115110521F46DE5C101CCDD98C11D
:100AF0006CE2C101C8DDEBCF12968D919C911397EA
:100B00004BDF8EC1FD0162817381C1017EDE88C130
:100B100012966D917C91139719C06DE2C101B3DDFE
:100B2000F8014281538164817581C1012ADE78C157
:100B3000FD0182819381A481B581892B8A2B8B2B26
:100B400019F461EE74E002C06CED74E0C101BFDD28
:100B500067C120E836E948E15BE4C701B6010E94BD
:100B6000A73787FD56C1A12CB12C00E210E01A8AEC
:100B7000198AF501E955FD4F248935894689578938
:100B8000C701B6010E94A73787FD13C0F501E157E1
:100B9000FD4F2489358946895789C701B6010E94CE
:100BA00022366B017C0189899A89800F911F9A8B6B
:100BB000898B1595079594E0A91AB108A8EEAA1695
:100BC000AFEFBA06B1F699249A9420E030E0A9017B
:100BD000C701B6010E94A7371816B4F52CEA35EC08
:100BE00047E257E3C701B6010E94BD35181664F10C
:100BF0009FEF991649F1B92DE4E0BE02500111248E
:100C0000F501E958FD4F2081318142815381C701AF
:100C1000B6010E94BD3587FF13C0F501E955FD4FB0
:100C20002081318142815381C701B6010E94223661
:100C30006B017C0189899A89801B910B9A8B898B26
:100C4000159507959A94D4CFC701B6010E947B37BA
:100C50004B015C012B013C0106E080E492E4AFE033
:100C6000B0E08B8B9C8BAD8BBE8B102F0FEF010FE9
:100C70009AE04916510461047104C8F06B897C89BB
:100C80008D899E892AE030E040E050E00E94D6360F
:100C90002B8B3C8B4D8B5E8BC301B2012AE030E085
:100CA00040E050E00E94D63629013A01DECFC5016E
:100CB000B4010E94C1359B01AC01C701B6010E947D
:100CC00011376B017C016B897C898D899E890E941B
:100CD000C1359B01AC01C701B6010E9422362B0130
:100CE0003C010E947B376B017C010E94C1359B0156
:100CF000AC01C301B2010E9411379B01AC010E94FB
:100D000012370E947B37C60ED71EE81EF91E8B894C
:100D10009C89AD89BE89C816D906EA06FB06F8F09B
:100D20009FEF891A990AA90AB90AA989BA89AB2B2E
:100D300099F0BAE08B169104A104B10468F0E98936
:100D4000FA893196FA8BE98BC12CD12C7601812C52
:100D5000912C5401839403C0C12CD12C76012AE03C
:100D6000422E512C612C712CC701B601A3019201B6
:100D70000E94D636672B682B692B99F0012FB5019D
:100D8000A401C101FEDC112351F1188A4E01F0E1EA
:100D90008F0E911C54019AE0492E512C612C712C1C
:100DA00006C011165CF769017A011150DDCF0150C0
:100DB00068F0C701B601A30192010E94D636605DBA
:100DC000D4016E934D0169017A01F1CFB501611B28
:100DD00071098EE2FB018293BF01C10178DC898930
:100DE0009A8997FF0AC06BEE74E0C10170DC6989D3
:100DF0007A8971956195710909C0A989BA89AB2B66
:100E000079F065E6C1013FDC69897A89C1018FDC2F
:100E100007C000E210E085E0982E1A8A198AD5CE24
:100E200066960FB6F894DEBF0FBECDBFDF91CF91AF
:100E30001F910F91FF90EF90DF90CF90BF90AF90F8
:100E40009F908F907F906F905F904F903F902F90EA
:100E50000895CF92DF92EF92FF920F931F93CF935B
:100E6000DF937C018B01EA017CDDFC01892B39F4E5
:100E7000C70155DDFC01892B91F013830283888122
:100E80009981892B19F480E090E003C06E0187E01E
:100E900090E095838483C682D78281E001C080E0A0
:100EA000DF91CF911F910F91FF90EF90DF90CF9046
:100EB0000895EF92FF920F931F93CF93DF938C01CE
:100EC000EB017A014EDDFC01892B39F4C80127DDE5
:100ED000FC01892BF9F0D383C283D7014D915C913A
:100EE00057FD07C0052E000C660B770B84E090E0E1
:100EF00009C0519541955109052E000C660B770BE1
:100F000085E090E09583848346835783608771876B
:100F100081E001C080E0DF91CF911F910F91FF90A0
:100F2000EF900895CF93DF93EC016881798188E099
:100F300090E08ADB009729F0FC0111821082138275
:100F40001282EA81FB81309751F020813181211595
:100F5000310511F0F901F9CF9183808302C09B83A1
:100F60008A83DF91CF9108950895CF93DF93EC01A9
:100F7000BC0184E090E068DBFC01009729F0D1839C
:100F8000C0831382128211C08091450781110BC06A
:100F900010924207109241071092440710924307A3
:100FA00081E08093450781E497E0DF91CF91089538
:100FB00080919D0681110BC010929A06109299069D
:100FC00010929C0610929B0681E080939D0689E911
:100FD00096E00895CF93DF93EC01BC0184E090E0AC
:100FE00033DB009741F0FC01D183C083138212826E
:100FF000DF91CF910895DF91CF91DACF08952F92AD
:101000003F924F925F926F927F928F929F92AF9298
:10101000BF92CF92DF92EF92FF920F931F93CF93E5
:10102000DF93CDB7DEB727970FB6F894DEBF0FBEBC
:10103000CDBF1B015E834D838901FC0182819381B9
:1010400020910002281721F02F3F09F0D0C205C0DF
:10105000EAE3F4E024912F8304C180930002EAE3E1
:10106000F4E0E491EF3F09F4C2C2E23009F47EC03B
:101070006CF5EE2309F459C0E13009F0F1C010928B
:1010800080001092810020918100286020938100CF
:10109000209181002160209381009C013327F90178
:1010A000E853FB4FE491F0E0EE0FFF1FEC56FB4FCF
:1010B000459154915093810640938006F901E25F77
:1010C000FA4FE491E0937F0631E0C8C0E43009F4C0
:1010D0009DC00CF473C0E53009F0C2C0109220012D
:1010E000109221012091210128602093210120915B
:1010F00021012160209321019C013327F901E8534C
:10110000FB4FE491F0E0EE0FFF1FEC56FB4F4591D3
:1011100054915093780640937706F901E25FFA4FB5
:10112000E491E093760635E099C014BC15BC24B573
:10113000226024BD25B5216025BD9C013327F9011E
:10114000E853FB4FE491F0E0EE0FFF1FEC56FB4F2E
:10115000459154915093840640938306F901E25FD0
:10116000FA4FE491E09382061F827EC01092B00095
:101170001092B1002091B00022602093B000209125
:10118000B10021602093B1009C013327F901E8539D
:10119000FB4FE491F0E0EE0FFF1FEC56FB4F459143
:1011A00054915093390740933807F901E25FFA4FA1
:1011B000E491E0933A07E2E0EF8356C0109290008A
:1011C000109291002091910028602093910020912D
:1011D00091002160209391009C013327F901E8538D
:1011E000FB4FE491F0E0EE0FFF1FEC56FB4F4591F3
:1011F000549150937E0640937D06F901E25FFA4FC9
:10120000E491E0937C06F3E0FF832EC01092A000EF
:101210001092A1002091A10028602093A1002091AC
:10122000A10021602093A1009C013327F901E8531C
:10123000FB4FE491F0E0EE0FFF1FEC56FB4F4591A2
:10124000549150937B0640937A06F901E25FFA4F7E
:10125000E491E093790624E02F8306C03F8304C025
:10126000EF83EF81E7FDC3C12801012E000C660862
:10127000770861E00E94AC264101A12CB12C8F813E
:101280008D7F09F0BDC060E072E18AE790E0A501C2
:1012900094010E94C23729833A834B835C8369019E
:1012A0007A01F1E0CF1AD108E108F1082FEFC21658
:1012B000D104E104F10409F008F44DC060E472E4E3
:1012C0008FE090E0A50194010E94C23769017A0184
:1012D00081E0C81AD108E108F1089F81923001F538
:1012E000EFEFCE16D104E104F10409F008F4FCC1DB
:1012F00060E970ED83E090E0A50194010E94C2379F
:1013000069017A01F1E0CF1AD108E108F1082FEF65
:10131000C216D104E104F10409F0E0F583E069C0EC
:101320003FEFC316D104E104F104B9F0B0F068E472
:1013300078EE81E090E0A50194010E94C237690136
:101340007A0181E0C81AD108E108F1089F81992348
:1013500009F46FC1C0C181E001C082E09F8199237F
:10136000A1F047C089819A81AB81BC812AE0B59503
:10137000A795979587952A95D1F76C017D01E1E0B6
:10138000CE1AD108E108F10885E095B5987F892B40
:1013900085BDA1C068E478EE81E090E0A5019401EC
:1013A0000E94C23769017A01F1E0CF1AD108E10841
:1013B000F1082FEFC216D104E104F10409F008F49A
:1013C00036C164E274EF80E090E0A50194010E94D0
:1013D000C23769017A01E1E0CE1AD108E108F108CB
:1013E000FFEFCF16D104E104F10411F008F043C17E
:1013F00085E09091B100987F892B8093B1006BC0FC
:1014000060E072E18AE790E0A50194010E94C23792
:1014100069017A01E1E0CE1AD108E108F108C114AE
:10142000D104F1E0EF06F10488F068E478EE81E0A1
:1014300090E0A50194010E94C23769017A0181E020
:10144000C81AD108E108F10883E001C081E09F815A
:10145000913071F490918100987F892B8093810065
:10146000452846284728D9F52FEF3FEFA90168C046
:10147000EF81E33071F490919100987F892B8093F4
:10148000910045284628472851F52FEF3FEFA90145
:1014900079C0FF81F43071F49091A100987F892B7D
:1014A0008093A100452846284728C9F42FEF3FEF35
:1014B000A9017AC02F81253071F490912101987F84
:1014C000892B8093210145284628472841F42FEF96
:1014D0003FEFA9017BC045284628472869F09101C4
:1014E000220F331FD8010E94E63728EE33E040E098
:1014F00050E00E94D63603C02FEF3FEFA9018F8145
:10150000823081F12CF4882361F08130C9F06FC002
:101510009F81943009F448C0ACF1953009F456C06D
:1015200066C0C7BC209395063093960640939706F5
:101530005093980680916E00826080936E0057C031
:10154000D0928900C0928800209391063093920631
:10155000409393065093940680916F00826080932D
:101560006F0045C0C092B30020933B0730933C0707
:1015700040933D0750933E078091700082608093B6
:10158000700035C0D0929900C092980020938D06CB
:1015900030938E0640938F06509390068091710091
:1015A00082608093710023C0D092A900C092A800ED
:1015B0002093890630938A0640938B0650938C06BD
:1015C0008091720082608093720011C0D0922901D4
:1015D000C0922801209385063093860640938706A3
:1015E0005093880680917300826080937300ED8130
:1015F000FE81BF01FF0F880B990B27960FB6F89459
:10160000DEBF0FBECDBFDF91CF911F910F91FF9035
:10161000EF90DF90CF90BF90AF909F908F907F9092
:101620006F905F904F903F902F900C94E82684E04D
:10163000E0CEEFEFCE16D104E104F104D1F0C8F012
:1016400062E17AE780E090E0A50194010E94C23750
:1016500069017A0181E0C81AD108E108F1089FEF19
:10166000C916D104E104F10411F008F07BCE84E046
:101670008CCE83E08ACE62E17AE780E090E0A5013B
:1016800094010E94C23769017A01F1E0CF1AD108B2
:10169000E108F1082FEFC216D104E104F104C9F00A
:1016A000C0F089819A81AB81BC815AE0B595A7953C
:1016B000979587955A95D1F76C017D0121E0C21A63
:1016C000D108E108F1083F81332309F45DCE87E0BA
:1016D00090CE86E043CE3FEFC316D104E104F1047F
:1016E00009F048F684E03ACE82E083CECF93DF93D0
:1016F000EC01E881F9810084F185E02DCE01199596
:10170000892B41F0E881F9810284F385E02DCE0137
:101710001995EFCFDF91CF910895CF93DF931F926B
:10172000CDB7DEB76983DC01ED91FC910280F381D6
:10173000E02D41E050E0BE016F5F7F4F19950F90A3
:10174000DF91CF910895089581E090E030915E0699
:1017500020915D06321710F480E090E0919581951C
:101760009109089580915E0690915D06891730F485
:101770008F5F80935E0680E090E008958FEF9FEF8B
:10178000089580915D0690E020915E06821B91098C
:101790000895089580E090E008950F931F93CF93EC
:1017A000DF931F921F92CDB7DEB78C01DC01ED9164
:1017B000FC910084F185E02D1995892B29F119827E
:1017C000F801848590918209891309C09E012F5FD9
:1017D0003F4F40E0BE016E5F7F4F0E942C27898102
:1017E000882379F0D8011C96EC911C97F0E0EE0F5D
:1017F000FF1FEF5FFD4F8FEF9FEF918380831C965C
:101800008C938A8190E002C08FEF9FEF0F900F9032
:10181000DF91CF911F910F9108950F931F93CF9355
:10182000DF931F921F92CDB7DEB78C01DC01ED91E3
:10183000FC910084F185E02D1995892B29F11982FD
:10184000F801848590918209891309C09E012F5F58
:101850003F4F41E0BE016E5F7F4F0E942C27898180
:10186000882379F0D8011C96EC911C97F0E0EE0FDC
:10187000FF1FEF5FFD4F8FEF9FEF918380831C96DB
:101880008C938A8190E002C08FEF9FEF0F900F90B2
:10189000DF91CF911F910F9108958F929F92AF92F8
:1018A000BF92CF92DF92EF92FF920F931F93CF934D
:1018B000DF931F921F92CDB7DEB77C018A01DC0156
:1018C000ED91FC910084F185E02D69837A8319956F
:1018D00069817A81892B19F48FEF9FEF58C0F70146
:1018E000948580918209981350C0809183099091CA
:1018F0008409A0918509B09186094801A12CB12CD9
:1019000088159905AA05BB050CF48C016B017B01B8
:10191000E00EF11ECE14DF04B1F10E9420274B012E
:101920005C0180913F0790914007DC01ED91FC91B3
:101930000284F385E02D199597FF0EC00E942027A1
:10194000DC01CB0188199909AA09BB09883E93409B
:10195000A105B10530F3C0CFD6018D936D01809103
:10196000830990918409A0918509B0918609019716
:10197000A109B1098093830990938409A0938509F3
:10198000B0938609C7CFC80102C080E090E00F90F5
:101990000F90DF91CF911F910F91FF90EF90DF900B
:1019A000CF90BF90AF909F908F900895EF92FF924D
:1019B0000F931F93CF93DF93CDB7DEB762970FB628
:1019C000F894DEBF0FBECDBF7C01FB0185811F9265
:1019D0008F9384811F928F9383811F928F93828133
:1019E0001F928F9323E932E03F932F938E010F5F75
:1019F0001F4F1F930F93498B5A8B0E942B3149899C
:101A00005A89B801C7010E9424210FB6F894DEBF9D
:101A10000FBECDBF62960FB6F894DEBF0FBECDBF2E
:101A2000DF91CF911F910F91FF90EF9008950C944B
:101A30002421CF92DF92EF92FF920F931F93CF93C7
:101A4000DF937C01262F972F8A0180911607882328
:101A500091F0C62FD72F6E01C40ED51ECC15DD0513
:101A600071F06991D701ED91FC910190F081E02D29
:101A7000C7011995F3CF642F822F0E944004C8013B
:101A8000DF91CF911F910F91FF90EF90DF90CF905A
:101A90000895CF93DF931F92CDB7DEB7698320916E
:101AA00016072223D1F020915B06203240F021E07E
:101AB00030E0FC013383228380E090E015C0809108
:101AC0005C06E82FF0E0E95EF84F998190838F5F24
:101AD00080935C0680935B0605C061E0CE010196B1
:101AE0000E94400481E090E00F90DF91CF91089533
:101AF00080913F0790914007DC01ED91FC910084BB
:101B0000F185E02D19951816190664F480913F07A8
:101B100090914007DC01ED91FC910284F385E02D6A
:101B20001995E6CF08953F924F925F926F927F9200
:101B30008F929F92AF92BF92CF92DF92EF92FF92DD
:101B40000F931F93CF93DF936C015B01342E809131
:101B500034099091350990933909809338090E948E
:101B600020272B013C01CFEFDFEF0D2C000CEE08FE
:101B7000FF080E942027DC01CB0184199509A609E2
:101B8000B7098C159D05AE05BF0508F05DC0CF3FB8
:101B9000FFEFDF0709F058C080913F0790914007A1
:101BA000DC01ED91FC910084F185E02D1995892BE4
:101BB00001F380913F0790914007DC01ED91FC918A
:101BC0000284F385E02D1995E0913809F0913909E7
:101BD0008083809138099091390901969093390951
:101BE000809338092091360930913709821793077D
:101BF00040F0809134099091350990933909809390
:101C00003809A114B10439F0C5010E94DB208823F2
:101C100011F0C5E0D0E0332009F4ABCF8FEB882E74
:101C200082E0982E00E010E0F401819191914F0143
:101C30000E94DB20811106C00F5F1F4F0530110588
:101C400099F797CFE80195CF0E942027DC01CB01BF
:101C500084199509A609B7098C159D05AE05BF0520
:101C600060F061E873E087E898E00E94821C63E816
:101C700072E087E898E00E94721CCE01DF91CF915C
:101C80001F910F91FF90EF90DF90CF90BF90AF909A
:101C90009F908F907F906F905F904F903F900895AE
:101CA000AF92BF92CF92DF92EF92FF920F931F936A
:101CB000CF93DF93CDB7DEB764970FB6F894DEBF4E
:101CC0000FBECDBF7C015B018A01DC011C968C91AB
:101CD000843018F44115510531F481E090E0F701AA
:101CE0009383828383C01F934F931F928F9385EDBD
:101CF00092E09F938F939E012F5F3F4F69013F9327
:101D00002F930E942B31B60180913F07909140079D
:101D10000E94621C40E067EF74E088EE93E003DF0E
:101D20000FB6F894DEBF0FBECDBF059749F061E84E
:101D300073E087E898E00E94821C6AEB72E01EC0A4
:101D400080913F0790914007DC01ED91FC9102806A
:101D5000F381E02DA801B501199541E060E070E044
:101D600080ED97E0E0DE039709F443C061E873E09B
:101D700087E898E00E94821C6FE972E087E898E0AB
:101D80000E94721C81E090E0F7019383828361E8F6
:101D900073E087E898E00E94821C66EE72E087E8B4
:101DA00098E00E949B1B6FE774E087E898E00E9430
:101DB000821CD7011C964C9150E060E070E02AE054
:101DC00087E898E00E94D41B87E898E00E945F1C97
:101DD00060EA7FE080E090E00E94E826D701ED9184
:101DE000FC910488F589E02DC701199580E090E009
:101DF00001C0C80164960FB6F894DEBF0FBECDBF18
:101E0000DF91CF911F910F91FF90EF90DF90CF90D6
:101E1000BF90AF900895CF93DF93CDB7DEB7C85C86
:101E2000D1090FB6F894DEBF0FBECDBF9E012E5272
:101E30003F4FC253DF4F48815981CE5CD04068ECA0
:101E400070E0CE0101960E945A3181E051DEBE0160
:101E50006F5F7F4F80913F07909140070E94621C07
:101E600041E060E070E0C053DF4F88819981C05D40
:101E7000D04059DEC853DF4F0FB6F894DEBF0FBE17
:101E8000CDBFDF91CF910895CF93DF93FC012485DF
:101E90002F3FE9F1EC0161E873E087E898E00E94E8
:101EA000821C6FE073E087E898E00E949B1B6FE75D
:101EB00074E087E898E00E94821C4C8550E060E066
:101EC00070E02AE087E898E00E94D41B87E898E059
:101ED0000E945F1C8C851F928F938FE08F9380EA06
:101EE0008F9380E093E09F938F9395DFEC85F0E0F4
:101EF000EE0FFF1FEF5FFD4F8FEF9FEF918380830A
:101F00008C870F900F900F900F900F900F90DF9194
:101F1000CF910895AF92BF92CF92DF92EF92FF924E
:101F20000F931F93CF93DF935C016B017A01E9015B
:101F3000188281E0DDDDB50180913F079091400777
:101F40000E94721C41E0B60188EE93E0ECDD853022
:101F5000910509F048C0809134099091350990931A
:101F600039098093380940913209509133094F5F04
:101F70005F4F60E070E00E941E3A41E0B70184EFDD
:101F800091E0D1DD059731F5A80141505109F701E4
:101F900001900020E9F73197CF018E199F096091D8
:101FA000340970913509E0913809F0913909E61B3F
:101FB000F70BE81BF90B4E175F0708F0AF01CE01D6
:101FC0000E94353A41E060E070E080ED97E0ABDDE3
:101FD00081E018C061E873E087E898E00E94821C05
:101FE00064E672E00AC0059760F061E873E087E894
:101FF00098E00E94821C66E772E087E898E00E9401
:10200000721C80E0DF91CF911F910F91FF90EF90B4
:10201000DF90CF90BF90AF900895CF92DF92EF9274
:10202000FF920F931F93CF93DF93409183095091B9
:1020300084096091850970918609141615061606A3
:10204000170644F490918209981711F0911102C07B
:10205000CA0106C1182F80913F0790914007DC010B
:10206000ED91FC910084F185E02D1995892B19F4EF
:1020700080E090E0F5C0E0903F07F0904007C0E0BE
:10208000D0E0C7010E94641B97FD43C0FE01E750EA
:10209000FB4F2081022E000C330B8217930789F12E
:1020A000209779F36AEF74E09E0121503109F9011C
:1020B000E750FB4F4081042E000C550B8417950709
:1020C000E1F421153105E9F2E9EFF4E040E050E0F8
:1020D00001916B01C40ED51ED601DC900D1539F0AF
:1020E0004217530771F26F5F7F4FE901DDCF4F5FFA
:1020F0005F4F4217530760F3F3CF2115310599F76E
:10210000BECF2196C530D10509F0BBCF80E090E06D
:1021100002C08FEF9FEF892B09F0AACF80913F0774
:10212000909140070E94D6256093820980913F07D5
:1021300090914007DC01ED91FC910284F385E02D44
:10214000199580913F07909140070E94D625609392
:1021500083097093840980938509909386098091FF
:102160003F0790914007DC01ED91FC910284F385DB
:10217000E02D199580913F07909140070E94D62548
:102180006093EE0680913F0790914007DC01ED914E
:10219000FC910284F385E02D199580913F07909181
:1021A00040070E94D6256093EF0680913F079091EB
:1021B0004007DC01ED91FC910284F385E02D199537
:1021C00080913F07909140070E94D6256093F006CA
:1021D00080913F0790914007DC01ED91FC910284D2
:1021E000F385E02D199580913F07909140070E945B
:1021F000D6256093F10680913F0790914007DC015E
:10220000ED91FC910284F385E02D199580913F07B3
:1022100090914007DC01ED91FC910284F385E02D63
:10222000199580913F07909140070E94D6257093A1
:10223000ED066093EC0680913F0790914007DC012A
:10224000ED91FC910284F385E02D1995809182092E
:10225000811711F011110CCF80918309909184099D
:10226000DF91CF911F910F91FF90EF90DF90CF9072
:102270000895FC0184858F3F19F0CFDE97FF02C0DF
:1022800080E090E008951F920F920FB60F921124F4
:102290000BB60F922F933F934F935F936F937F9360
:1022A0008F939F93AF93BF93EF93FF938091B90068
:1022B000887F803609F49CC068F5883209F45BC0D9
:1022C00090F4803109F454C038F4882309F4F6C03E
:1022D000883009F44DC0F6C0883109F44CC0803212
:1022E00009F45DC0EFC0803409F468C048F480335D
:1022F00009F455C0883309F0E5C080931507D8C0AC
:10230000803509F44FC0883509F45DC0883409F080
:10231000D9C0D6C0883909F4C7C0A8F4883709F4F1
:1023200067C038F4883609F463C0803709F460C0A8
:10233000C9C0883809F4B8C0803909F45FC0803852
:1023400009F0C0C05BC0803B09F486C038F4803A15
:1023500009F466C0883A09F47FC0B4C0803C09F42F
:10236000A7C0883C09F4A4C0883B09F48AC0AAC06D
:102370008091F20610C0909114078091130798176E
:1023800070F5E091140781E08E0F80931407F0E060
:10239000ED50F94F80818093BB0085EC86C080931F
:1023A00015078EC0E091140781E08E0F809314070B
:1023B0008091BB00F0E0ED50F94F808390911407BD
:1023C000809113076EC0E091140781E08E0F809317
:1023D00014078091BB00F0E0ED50F94F80838091AD
:1023E000590681116DC081E08093580684EA61C06E
:1023F00083E080935A061092EB06CFCF8091EB06D4
:10240000803208F051C0E091EB0681E08E0F80939E
:10241000EB068091BB00F0E0E553F94F8083BDCF20
:1024200085EC8093BC0010925A068091EB068032B6
:1024300030F4E091EB06F0E0E553F94F1082609143
:10244000EB0670E0E091C906F091CA068BEC96E0CD
:1024500019951092EB0636C084E080935A061092CC
:10246000C8061092C506E091C606F091C7061995F8
:102470008091C506811105C081E08093C506109248
:10248000A506E091C80681E08E0F8093C806F0E0B3
:10249000EB55F94F80818093BB009091C8068091E5
:1024A000C506981708F479CF85E88093BC000AC068
:1024B00085EC8093BC0010925A0604C01092150758
:1024C0000E943604FF91EF91BF91AF919F918F9140
:1024D0007F916F915F914F913F912F910F900BBE24
:1024E0000F900FBE0F901F9018950895FC019081DA
:1024F0000180F281E02D892F809560FF12C0F89451
:102500002281822382838181892B8183A3E2B0E0AF
:102510001197F1F78281982B9283789487ED90E060
:1025200011C0F8942281822382838181892B818347
:10253000AFEFB0E01197F1F78281982B92837894F6
:102540008FE090E00197F1F7089521E0FC01848588
:102550008F3F09F420E0822F08950C9495380C9455
:1025600095380C949538CF92DF92EF92FF920F93AB
:102570001F93CF93DF93CDB7DEB76E970FB6F89466
:10258000DEBF0FBECDBFFC0184858F3FC1F17F014F
:1025900044DD892B11F094E033C0D7011C968C9157
:1025A0001F928F938BE293E09F938F93FE0131965E
:1025B0006F01FF93EF930E942B310AE010E09E0120
:1025C0002B5E3F4F4DEF54E0B6018EE193E0A2DC6D
:1025D0000F900F900F900F900F900F908111DBCF05
:1025E000D7011C96EC911C97F0E0EE0FFF1FEF5FF8
:1025F000FD4F8FEF9FEF918380831C968C9390E02B
:1026000081E0943009F080E06E960FB6F894DEBF5A
:102610000FBECDBFDF91CF911F910F91FF90EF9033
:10262000DF90CF900895CF92DF92EF92FF920F93B9
:102630001F93CF93DF93CDB7DEB72C970FB6F894E7
:10264000DEBF0FBECDBF8C01CB01BA010E94B10429
:102650007C01009709F44BC0FC01C480D580F1E0F7
:10266000CF16D10461F4FC01668177816115710593
:1026700031F08FEB94E00E94253A892B69F0F1E06C
:10268000CF1AD10882E0C816D10430F4F701668170
:1026900077816115710569F56EEB74E0CE010196E5
:1026A0006C010AD7DC86CB86CE010B9698878F8388
:1026B0001A861986BE01695F7F4FC70104960E9482
:1026C000F80489819A81F801918380838B819C81B0
:1026D000938382838D819E81958384831A8219825C
:1026E0001C821B821E821D82C601A9D604C06EEB0D
:1026F00074E0C801E1D6C8012C960FB6F894DEBF8D
:102700000FBECDBFDF91CF911F910F91FF90EF9042
:10271000DF90CF900895EF92FF921F93CF93DF93B6
:1027200000D000D0CDB7DEB77C01DC0114968D91CE
:102730009C9115979A8389831C821B821E821D821D
:10274000C70102960E948E1ED7011296ED91FC9150
:1027500013971081173239F1123229F180ED810F70
:102760008A3078F081EA810F8C3158F08FEB810F3D
:102770008A3138F01B3229F083ED810F823008F066
:1027800044C0F70182819381019693838283612FF4
:10279000CE0101960E94391ED7011296ED91FC914F
:1027A00013971081DBCF3196D7011396FC93EE93EC
:1027B0001297D7011296ED91FC91139760816623D1
:1027C00021F1CF01019613969C938E931297611776
:1027D000E1F06C35A9F46181A4EBB4E08C9188231D
:1027E00039F0861303C011966C9102C01296F6CF91
:1027F000662359F03296D7011396FC93EE93129705
:10280000CE0101960E94391ED4CF60E0CE01019620
:102810000E94391E8B819C8126960FB6F894DEBFEC
:102820000FBECDBFDF91CF911F91FF90EF90089524
:102830009F92AF92BF92CF92DF92EF92FF920F934F
:102840001F93CF93DF9300D000D0CDB7DEB7D82E43
:10285000C92E082F192FF801819191918F010E94A3
:10286000EA077C016BE7C8010E94D01E882309F4A7
:1028700042C06DE7C8010E94D01E81113FC086E0B2
:10288000982E8D2D9C2D47DF5C01892BA1F16AE3E9
:10289000C8010E94D01E882371F11A821982BE01DC
:1028A0006F5F7F4F8D2D9C2D0E940225882319F18B
:1028B000B501C7010E94B104009741F4C7010E940D
:1028C0008F040097C1F0FC01B382A282FE01319611
:1028D000DC011496892D01900D928A95E1F76DE740
:1028E000C8010E94D01E811109C06CE2C8010E947B
:1028F000D01E8111C6CF0E94D80701C0C7012696FD
:102900000FB6F894DEBF0FBECDBFDF91CF911F9100
:102910000F91FF90EF90DF90CF90BF90AF909F907E
:1029200008950895AF92BF92CF92DF92EF92FF92F7
:102930000F931F93CF93DF93CDB7DEB768970FB692
:10294000F894DEBF0FBECDBF8B0160E375E0C80118
:102950000E94E01D6C0167E375E0C8010E94E01D64
:102960005C014EE355E0B801CE0143965CDE45E4E0
:1029700055E0B801CE010D9656DEC6010E94D42363
:10298000C5010E94D423BE016D5E7F4FCE01079624
:102990008BD5BE01635F7F4FCE01019685D582E165
:1029A00090E00E9400387C018E010F5F1F4F9E0156
:1029B000295F3F4FA501B6010E94A21DC8013FD566
:1029C000CE0107963CD5CE010D9639D5CE01439662
:1029D00036D5C70168960FB6F894DEBF0FBECDBFDF
:1029E000DF91CF911F910F91FF90EF90DF90CF90EB
:1029F000BF90AF90089508950895CF93FC01C481CE
:102A000021E020931607C093370710925C061092BE
:102A10005B068385682B84E299E03BD880915B0656
:102A2000813208F046C090915A069111FCCF92E095
:102A300090935A0691E0909359069FEF9093150753
:102A40001092140780931307A7E1B7E023EF36E055
:102A5000F9019E2F921B981718F49D919193F9CF2D
:102A60001092F2068091F206CC0FC82BC093F206AA
:102A700080915806813061F4109258068091F206D8
:102A80008093BB008091BC0083FDF8CF85EC01C032
:102A900085EE8093BC0080915A068230E1F38091EC
:102AA00015078F3F31F080911507803211F080912A
:102AB000150710925C0610925B0610921607CF91D4
:102AC00008950F931F93CF938C01C62F96DF6C2F21
:102AD0006460C80192DF6C2F6B7FC8018EDF83ECCE
:102AE00090E00197F1F7CF911F910F9108950F9307
:102AF0001F93CF93DF938C01D62FC42F607F642B5D
:102B0000E0DF6D2F6295607F6C2BC801DF91CF9164
:102B10001F910F91D6CF41E0EADF81E090E0089568
:102B200040E061E0E4DF8BE39FE10197F1F7089576
:102B3000DC01E0E0615038F08D91E827F0E0E65CE0
:102B4000FC4FE491F7CF8E2F0895CF92DF92EF9252
:102B5000FF920F931F93CF93DF931F92CDB7DEB7F2
:102B60006C01E62E08E010E0FF24F39461E08F2D65
:102B70008E2109F460E0C6014983B8DCFF0C0150E6
:102B8000110949810115110589F7411115C0F89402
:102B9000D6011196ED91FC91129791818C918095BF
:102BA000892381831196ED91FC91129792818C91EA
:102BB00080958923828378940F90DF91CF911F9124
:102BC0000F91FF90EF90DF90CF900895CF92DF921A
:102BD000EF92FF920F931F93CF93DF931F92CDB786
:102BE000DEB78C01F62E40E065E57983AEDFCF2CB1
:102BF0007981D72E760188E0E80EF11CF60161910B
:102C00006F0140E0C801A1DFCE14DF04B9F70F90D7
:102C1000DF91CF911F910F91FF90EF90DF90CF90B8
:102C20000895FC0190810180F281E02DF89481816A
:102C3000892B81832281892F809528232283A7E0F5
:102C4000B0E01197F1F7218182238183A3E2B0E004
:102C50001197F1F780817894EFECF0E03197F1F77C
:102C6000982381E009F480E00895FC0190810180BF
:102C7000F281E02DF8948181292F20958223818390
:102C800078948DE743E050E0815021F1DA0111970B
:102C9000F1F730813923C1F3F89482818223828352
:102CA0008181892B81837894ABE7B7E01197F1F7A5
:102CB000F894818128232183A3E1B1E01197F1F7F2
:102CC0008081982381E009F080E07894E3E6F6E0E3
:102CD0003197F1F708956F927F928F929F92AF9202
:102CE000BF92CF92DF92EF92FF920F931F93CF93F9
:102CF000DF931F921F92CDB7DEB78C017A01FC01E2
:102D00008581968169837A83B0DF69817A8188239E
:102D100071F1F8018581968159DF40E06EEBF80191
:102D20008581968112DF37015701F9E0AF0EB11CA2
:102D3000F8018580968088E0C82ED12CEE24E3949B
:102D4000F12CC4016EDF8111FE28EE0CF1E0CF1AE8
:102D5000D108B9F7F301F1923F01EA15FB0541F7FC
:102D6000F8018581968181DF91E0813009F090E062
:102D7000892F0F900F90DF91CF911F910F91FF90AE
:102D8000EF90DF90CF90BF90AF909F908F907F900B
:102D90006F900895CF93DF93CDB7DEB729970FB625
:102DA000F894DEBF0FBECDBFFB012081203109F1B9
:102DB000AE014F5F5F4F8FDF882371F068E0CE0177
:102DC0000196B6DE9985891307C008C0803458F093
:102DD0008F3569F08F3769F080E00CC08D818F33BB
:102DE000A9F78AE007C08F31B9F789E003C08BE00B
:102DF00001C08CE029960FB6F894DEBF0FBECDBFA0
:102E0000DF91CF910895AF92BF92CF92DF92EF9270
:102E1000FF920F931F93CF93DF931F92CDB7DEB72F
:102E20005C01E62ED72EFC018585811158C0C501B5
:102E30001CDF811105C0F50113861586148667C055
:102E400040E060EFC50181DE01E0F12CC12C11E012
:102E5000C501E7DE682FC5016983E3DE6981613062
:102E600019F48130B9F432C04F2D50E068131BC003
:102E7000F5018385181730F4E40FF51F8381802353
:102E800049F402C0181731F060E0193058F4F50128
:102E9000148708C0F501EF0DF11D8381802B83831A
:102EA00061E009C0C12EF501E40FF51F9381802F69
:102EB000809589238383C50119DB1F5F000F11F4FF
:102EC000F39401E0F7E0FF1508F0C2CF113438F0B9
:102ED000F501C386C11015C081E0858712C0F501D8
:102EE00013861586148680E0D5011396EE2DFD2DF0
:102EF0009501255F3F4F9D919193A217B307D9F795
:102F000006C0F5018381882351F381E0EDCF0F9056
:102F1000DF91CF911F910F91FF90EF90DF90CF90B5
:102F2000BF90AF900895CF92DF92EF92FF920F93F0
:102F30001F93CF93DF936C017A018B01C0E0D0E047
:102F4000CE15DF0589F0D8016D918D01D601ED9187
:102F5000FC910190F081E02DC6011995892B11F4A7
:102F60007E0102C02196ECCFC701DF91CF911F9166
:102F70000F91FF90EF90DF90CF900895FC01A08912
:102F8000B1898C91A689B78982FD0FC09C91818DF2
:102F90008F5F8F73228D821749F0218DDF01A20F81
:102FA000B11D5D969C93818F08958C910895FC01CD
:102FB000538D448D252F30E0842F90E0821B930B9E
:102FC000541710F0CF96089501970895FC01918D44
:102FD000828D981761F0828DDF01A80FB11D5D967B
:102FE0008C91928D9F5F9F73928F90E008958FEFE9
:102FF0009FEF0895FC01918D828D981731F0828D9D
:10300000E80FF11D858D90E008958FEF9FEF0895F3
:10301000FC01918D228D892F90E0805C9F4F821B57
:1030200091098F73992708958DE497E0F1DF21E0EE
:10303000892B09F420E0822F08958AEE97E0E8DFDB
:1030400021E0892B09F420E0822F089587E898E099
:10305000DFDF21E0892B09F420E0822F0895FC01B5
:10306000848DDF01A80FB11DA35ABF4F2C91848D11
:1030700090E001968F739927848FA689B7892C9346
:10308000A089B1898C9180648C93938D848D9813E1
:1030900006C00288F389E02D80818F7D80830895AA
:1030A000EF92FF920F931F93CF93DF93EC0181E098
:1030B000888F9B8D8C8D981305C0E889F989808154
:1030C00085FD23C0F62E0B8D10E00F5F1F4F0F7391
:1030D0001127E02E8C8DE8120BC00FB607FCFACF3B
:1030E000E889F989808185FFF5CFCE01B8DFF2CF7D
:1030F0008B8DFE01E80FF11DE35AFF4FF0820B8F1D
:10310000EA89FB898081806207C0EE89FF8960833C
:10311000E889F98980818064808381E090E0DF9193
:10312000CF911F910F91FF90EF900895CF93DF9370
:10313000EC01888D8823C1F0EA89FB89808185FDB7
:1031400005C0A889B9898C9186FD0EC00FB607FC11
:10315000F5CF808185FFF2CFA889B9898C9185FF51
:10316000EDCFCE017CDFE8CFDF91CF91089580E0F5
:1031700090E0892B19F06ADF81111BC080E090E09C
:10318000892B19F05ADF811117C080E090E0892B5C
:1031900019F04ADF811113C080E090E0892BA1F083
:1031A00080E090E0892B81F00E94000081110AC02C
:1031B00008950E940000E2CF0E940000E6CF0E9426
:1031C0000000EACF0C94000008950E94113A0F937A
:1031D0001F93CF93DF93EC0188819981009729F0A9
:1031E0002A813B812617370788F48B016F5F7F4F59
:1031F0000E942D39009761F0998388831B830A838D
:103200002C813D81232B11F4FC01108281E001C04F
:1032100080E0DF91CF911F910F9108950C94953824
:10322000CF92DF92EF92FF920F931F93CF93DF9392
:103230008C017B01DC011596CD91DC9116976B0119
:103240006C177D0708F46E01C60106960E940038CF
:10325000FC01892BB1F0D382C282D80113968D91E3
:103260009C911497918380831496FC93EE9313970B
:10327000CC0FDD1F1696DC93CE931597F582E48272
:103280003696CF01DF91CF911F910F91FF90EF9074
:10329000DF90CF900895DC011396ED91FC91149787
:1032A000309751F024813581AB01420F531FA28129
:1032B000B381A417B50708F4B3CFC90106965583A7
:1032C00044838E0F9F1F0895FC0180819181009798
:1032D00011F00C94003160E070E0CB010895FC0126
:1032E00024813581FB01448155812417350721F55F
:1032F000FC0180819181FB0160817181009719F04F
:1033000061157105A1F46115710549F0232BB1F028
:10331000FB01808190E09195819591090AC0009709
:1033200069F0232B59F0FC01808190E002C00E94DB
:10333000253A21E0892B19F020E001C021E0822FFD
:103340000895EF92FF920F931F93CF93DF93FC01A9
:10335000248135816115710511F480E018C0411593
:103360005105A1F07B01EC018A01020F131FB80186
:103370002EDF882391F3288139818C819D81B701CB
:10338000820F931F0E942E3A1D830C8381E0DF91F0
:10339000CF911F910F91FF90EF900895CF93DF93FE
:1033A000EC0188819981009711F00E94953819826B
:1033B00018821D821C821B821A82DF91CF91089590
:1033C000CF93DF93EC016115710559F0FB0101907A
:1033D0000020E9F73197AF01461B570BB2DF81118F
:1033E00002C0CE01DBDFCE01DF91CF910895EF92D5
:1033F000FF920F931F93CF93DF93EC01FB0186178E
:103400009707A9F0008111810115110531F0E480C1
:10341000F580B701DCDE811103C0CE01BFDF07C03C
:10342000FD82EC82B801888199810E942E3ACE01FA
:10343000DF91CF911F910F91FF90EF900895FC01C4
:10344000808191810C949538CF93DF93EC0185EDC9
:1034500092E099838883CE010896F1DFCE0102962F
:10346000DF91CF91ECCFCF93DF93EC01EDDFCE0175
:10347000DF91CF910C949538CF93DF93EC018DECD5
:1034800092E099838883CE010C96D9DFCE0106960F
:10349000DF91CF91D4CFCF93DF93EC01EDDFCE015D
:1034A000DF91CF910C949538FC0111821082138228
:1034B0001282158214829BCFEF92FF920F931F937B
:1034C000CF93DF93EC01198218821B821A821D822E
:1034D0001C826115710511F18B01FB010190002027
:1034E000E9F731977F01E61AF70AB70170DE81111B
:1034F00008C0CE01DF91CF911F910F91FF90EF9007
:103500004DCFFD82EC82B80188819981DF91CF9106
:103510001F910F91FF90EF900C942E3ADF91CF9175
:103520001F910F91FF90EF9008951F920F920FB689
:103530000F9211240BB60F922F933F934F935F93EB
:103540006F937F938F939F93AF93BF93EF93FF936B
:1035500080913B0790913C07A0913D07B0913E07B9
:10356000892B8A2B8B2B59F180913A07E0913807F0
:10357000F091390790818927808380913B07909152
:103580003C07A0913D07B0913E07181619061A0690
:103590001B060CF056C080913B0790913C07A09110
:1035A0003D07B0913E070197A109B10980933B0700
:1035B00090933C07A0933D07B0933E0742C0809193
:1035C0000002EAE3F4E0E4919FEF90930002E2301E
:1035D000C9F050F4EE2399F0E13081F590916F003D
:1035E0009D7F90936F002AC0E43019F1E0F0E53040
:1035F00029F5909173009D7F909373001FC01092E6
:103600006E001CC0909170009D7F9093700091E0BF
:103610009093B0009091B100987F94609093B10026
:103620001092B3000BC0909171009D7F9093710038
:1036300005C0909172009D7F9093720060E00E949F
:103640007D26FF91EF91BF91AF919F918F917F91D7
:103650006F915F914F913F912F910F900BBE0F9003
:103660000FBE0F901F9018950F931F93CF93DF936A
:10367000EC010E942027688779878A879B87E881E9
:10368000F9810484F585E02DCE01199597FF17C0C7
:103690000E942027088519852A853B85DC01CB01FE
:1036A000801B910BA20BB30B0C811D812E813F81DE
:1036B00080179107A207B30710F38FEF9FEFDF91F9
:1036C000CF911F910F9108950F931F93CF93DF9385
:1036D000EC010E942027688779878A879B87E88189
:1036E000F9810284F385E02DCE01199597FF17C06B
:1036F0000E942027088519852A853B85DC01CB019E
:10370000801B910BA20BB30B0C811D812E813F817D
:1037100080179107A207B30710F38FEF9FEFDF9198
:10372000CF911F910F910895DC01ED91FC910190D3
:10373000F081E02D1994EF92FF920F931F93CF9396
:10374000DF938C017B01C0E0D0E0F701EC0FFD1F9F
:103750006491662361F0D801ED91FC910190F081B4
:10376000E02DC8011995892B11F02196EECFCE01DD
:10377000DF91CF911F910F91FF90EF900895611508
:10378000710579F0FB0101900020E9F73197AF0155
:10379000461B570BDC01ED91FC910280F381E02D7B
:1037A000199480E090E008954F925F926F927F921B
:1037B000EF92FF920F931F93CF93DF93CDB7DEB7B6
:1037C000A1970FB6F894DEBF0FBECDBF7C01FA0102
:1037D000CB0119A2223008F42AE08E010F5D1F4FA1
:1037E000422E512C612C712CBF01A30192010E9429
:1037F000D636F901CA01015011096A3014F4605D2E
:1038000001C0695CD8016C93232B242B252B61F715
:10381000B801C701B4DFA1960FB6F894DEBF0FBEA2
:10382000CDBFDF91CF911F910F91FF90EF907F90CF
:103830006F905F904F9008958F929F92AF92BF923A
:10384000CF92DF92EF92FF920F931F93CF93DF936C
:103850007C018B016C0182E0C80ED11C4701E5E0C0
:103860008E0E911CC0E0D0E0F60141916F0150E056
:1038700060E070E02AE0C80197DF5C016EE2C801F9
:1038800053DF8A0D9B1DC80FD91FC814D90461F7D7
:10389000F701458150E060E070E02AE0C80184DF74
:1038A0008C0F9D1FDF91CF911F910F91FF90EF9093
:1038B000DF90CF90BF90AF909F908F9008956CED68
:1038C00075E05DCF0F931F93CF93DF93EC0157DF2C
:1038D0008C01CE01F4DF800F911FDF91CF911F91FA
:1038E0000F9108950F931F93CF93DF93EC0123DF84
:1038F0008C01CE01E4DF800F911FDF91CF911F91EA
:103900000F9108953CCF1F920F920FB60F92112482
:103910000BB60F922F933F934F935F936F937F93C9
:103920008F939F93AF93BF93EF93FF938DE497E0B3
:1039300096DBFF91EF91BF91AF919F918F917F9116
:103940006F915F914F913F912F910F900BBE0F9010
:103950000FBE0F901F9018951F920F920FB60F92E7
:1039600011240BB60F922F933F934F935F936F9356
:103970007F938F939F93AF93BF93EF93FF938DE4C8
:1039800097E0FCDAFF91EF91BF91AF919F918F91FA
:103990007F916F915F914F913F912F910F900BBE4F
:1039A0000F900FBE0F901F9018951F920F920FB699
:1039B0000F9211240BB60F922F933F934F935F9367
:1039C0006F937F938F939F93AF93BF93EF93FF93E7
:1039D0008AEE97E044DBFF91EF91BF91AF919F9109
:1039E0008F917F916F915F914F913F912F910F90A8
:1039F0000BBE0F900FBE0F901F9018951F920F9245
:103A00000FB60F9211240BB60F922F933F934F9343
:103A10005F936F937F938F939F93AF93BF93EF9336
:103A2000FF938AEE97E0AADAFF91EF91BF91AF91F1
:103A30009F918F917F916F915F914F913F912F91C6
:103A40000F900BBE0F900FBE0F901F9018951F92F6
:103A50000F920FB60F9211240BB60F922F933F9334
:103A60004F935F936F937F938F939F93AF93BF9386
:103A7000EF93FF9387E898E0F2DAFF91EF91BF911F
:103A8000AF919F918F917F916F915F914F913F91F6
:103A90002F910F900BBE0F900FBE0F901F90189597
:103AA0001F920F920FB60F9211240BB60F922F9305
:103AB0003F934F935F936F937F938F939F93AF93B6
:103AC000BF93EF93FF9387E898E058DAFF91EF9167
:103AD000BF91AF919F918F917F916F915F914F9126
:103AE0003F912F910F900BBE0F900FBE0F901F9024
:103AF0001895CF92DF92EF92FF920F931F93CF937F
:103B0000DF93EC016B017A0185ED92E0FE01819378
:103B100091938F016EEB74E0CF01CEDC28966EEBB3
:103B200074E0CE01C9DCB601C80161DCB701CE0189
:103B3000DF91CF911F910F91FF90EF90DF90CF9089
:103B400056CC08956F927F928F929F92AF92BF92C0
:103B5000CF92DF92EF92FF920F931F93CF93DF9359
:103B6000EC015B014A0169018DEC92E09983888345
:103B70003E0186E0680E711C6EEB74E0C3019CDCB4
:103B80007E018CE0E80EF11C6EEB74E0C70194DC62
:103B9000BB82AA829D828C82B601C30128DCB80157
:103BA000C701DF91CF911F910F91FF90EF90DF90B0
:103BB000CF90BF90AF909F908F907F906F9017CCD9
:103BC0000E94B104FC01892B09F44BC084819581CA
:103BD000833091053CF4813091057CF4009709F421
:103BE00047C038C0853091052CF0059799F566815E
:103BF00077812BC08681978108950680F781E02D1B
:103C0000309779F18081843779F18B3229F08D32C8
:103C100021F4319691E002C0319690E060E070E0CE
:103C20003AE0819120ED280F2A3068F4369FA001F8
:103C3000379F500D1124682F880F770B605371093F
:103C4000640F751FEECF992391F088279927861B63
:103C5000970B089566817781808591850E947637DC
:103C600006C080E090E0089581E090E00895CB01E7
:103C70000895FF920F931F93CF93DF93EC01F62EDD
:103C800088819981FC01A381B481109771F0149609
:103C9000ED91FC9115979F012F5F3F4F12964D912B
:103CA0005C9113974217530750F52C813D81B90160
:103CB0006F5F7F4FB5DA8C016A817B816115710579
:103CC00049F00115110571F04C815D81C8010E9418
:103CD000153A03C00115110529F0EC81FD81E00FB3
:103CE000F11FF0821B830A838C819D8101969D8345
:103CF0008C83DF91CF911F910F91FF90089536969D
:103D0000EA0FFB1F15963C932E93149760838C81CA
:103D10009D81892B49F7FB83EA83E6CFFC01A081D3
:103D2000B1818C918D3051F024F489508230B8F5F6
:103D300005C0803219F08F3219F0089511962CC009
:103D400011968C9111978A3219F08F32D1F0089523
:103D50001196B183A083A081B181CD010196918399
:103D6000808311968C9111978823C9F08A3299F734
:103D700012968C9112978F3271F713960DC08A307C
:103D800071F2A081B181CD0101969183808311965A
:103D90008C918111F4CF03C0B183A083C0CF08956B
:103DA0000F931F93CF93DF931F92CDB7DEB78C0194
:103DB0006983B4DFD801ED91FC911197808169810D
:103DC000861305C03196ED93FC9381E001C080E03D
:103DD0000F90DF91CF911F910F9108950E94B10430
:103DE000009749F0FC01248135812730310519F411
:103DF0008681978108950C94D8074F925F926F92B5
:103E00007F928F929F92AF92BF92CF92DF92EF926A
:103E1000FF920F931F93CF93DF93CDB7DEB7C656B4
:103E2000D2400FB6F894DEBF0FBECDBF5C016B0170
:103E30007A01CE0109969C838B8388E592E09E836C
:103E40008D8318861F8283E093E09A838983CE0155
:103E500001960E94EA078C01D60112968D919C91E1
:103E60001397CF59DD4F99838883C156D240AE0155
:103E70004F595D4F64E575E0C8010E945907F6018E
:103E8000448055806680778068E575E0C8010E94AF
:103E9000B104009761F4C8010E948F04009781F07B
:103EA00028E535E0DC0113963C932E93129728E029
:103EB00030E0FC0135832483468257826086718618
:103EC000F80180819181009781F4809145078111EB
:103ED00038C0109242071092410710924407109286
:103EE000430781E0809345072CC00E94B5076C0111
:103EF0006DE575E0C8010E94B104009761F4C80146
:103F00000E948F04009701F12DE535E0DC01139646
:103F10003C932E931297F60120813181232B19F4C3
:103F200020E030E003C0460126E030E0DC011596D9
:103F30003C932E93149716968C92169717969C92F4
:103F400003C081E497E001C0C6010E949207009778
:103F500049F022E030E0FC013383228321E635E0A2
:103F600035832483D70112968D909C9013971496D5
:103F7000CD90DC9015976DE675E087E898E0A2DCBF
:103F8000F4018281938110D4D40114968D919C9177
:103F900015970AD4C401069697D939D3C4010C9653
:103FA00022D3F60182819381FFD3D60114968D919D
:103FB0009C911597F9D3C601069686D928D3C601D8
:103FC0000C9611D3CE0101960E94EA074C01D7014D
:103FD0001296ED91FC91139782819381CF59DD4F19
:103FE00099838883C156D240AE014F595D4F66E92F
:103FF00073E0C4010E945907D7011296ED91FC911C
:10400000139784819581CF59DD4F99838883C15659
:10401000D240AE014F595D4F6FE875E0C4010E9478
:104020005907F7018281938106964ED9CF59DD4F0A
:10403000688379838A839B83C156D240BE016F59BE
:104040007D4FC401E7D3D70112966D917C911397F0
:10405000645F7F4FC4010AD4CE0101960E94EA0733
:104060006C01D7011496ED91FC9115978281938193
:10407000CF59DD4F99838883C156D240AE014F5945
:104080005D4F66E973E0C6010E945907D701149697
:10409000ED91FC91159784819581CF59DD4F9983DE
:1040A0008883C156D240AE014F595D4F6FE875E02D
:1040B000C6010E945907F70184819581069604D9AB
:1040C000CF59DD4F688379838A839B83C156D24061
:1040D000BE016F597D4FC6019DD3D70114966D91D6
:1040E0007C911597645F7F4FC601C0D3CE010196C6
:1040F0000E94EA077C01A40161E975E00E9429079A
:10410000A60165E975E0C7010E942907F8018081D1
:104110009181009719F40E94D80708C00E94EA070D
:10412000AC016AE975E0C8010E942907A7016AE9A4
:1041300075E0C8010E9429076EEB74E0C501BCD987
:10414000FE01EB59FD4FB182A082CF59DD4FF983BB
:10415000E883C156D240CD59DD4F19821882C3562B
:10416000D240BE016F597D4FC8010E94CC04D501D9
:1041700014964D915C9115976D917C9187E898E02C
:104180000E949317C501CA59DD4F0FB6F894DEBFE0
:104190000FBECDBFDF91CF911F910F91FF90EF9098
:1041A000DF90CF90BF90AF909F908F907F906F9057
:1041B0005F904F900895FC0101900020E9F731973E
:1041C0009F01281B390BE0913809F0913909E21B56
:1041D000F30B4091340950913509E417F50730F499
:1041E0006091320970913309E60FF71F280F391FCC
:1041F0006091360970913709DC018217930758F4F2
:104200000196BC91A081BA1308C03196E617F70752
:1042100099F7FA01F1CF81E0089580E00895CF93F6
:10422000DF93EC0181E00E94780DBE0180913F0791
:104230009091400757DB41E060E070E088EE93E04A
:10424000DF91CF910C94930DEF92FF920F931F93F8
:10425000CF93DF931F921F92CDB7DEB77C01162F4D
:10426000072F61E873E087E898E049835A834ADBC7
:104270006CE674E087E898E05EDA6FE774E087E860
:1042800098E040DB612F702F87E898E01BDBE9E0C6
:10429000F2E023E030E05A814981929182910196C7
:1042A00021F021503109C8F72FEFF70124872F3F64
:1042B00021F15F934F930F931F931F922F9383E1ED
:1042C0008F9388E88F938FE494E09F938F930E945D
:1042D0000B0F0FB6F894DEBF0FBECDBF892BB9F41C
:1042E000F701848590E0FC01EE0FFF1FEF5FFD4FAB
:1042F0009183808381E090E00CC061E873E087E8FF
:1043000098E000DB6BE374E087E898E0EBDA80E0AC
:1043100090E00F900F90DF91CF911F910F91FF9040
:10432000EF900895CF92DF92EF92FF920F931F9339
:10433000CF93DF93CDB7DEB7A6970FB6F894DEBF65
:104340000FBECDBF7C018B011C821B8288EE93E0E7
:10435000A0E0B0E08D839E83AF83B88785EE92E0C6
:104360009A8389838FEF8D8740E95FE16FE975E07C
:10437000CE0101960E94170D892B31F46BEA75E08E
:1043800087E898E09FDA8DC08FE093E09F878E8763
:10439000F80182819381998B888B848195819B8B95
:1043A0008A8B8E01025F1F4FA801B701CE01819653
:1043B00024DDCDA0DEA066EC75E0CE014B967CD866
:1043C000BE01655E7F4FCE0145966ED86CEC75E000
:1043D000CE0145960E94E01963ED75E00E94E01958
:1043E0006FED75E00E94E01966EE75E00E94E0193D
:1043F0006CED75E00E94E01967EF75E00E94E0192E
:1044000068E176E00E94E0197C014AE0B801C6014B
:104410000E941231F80101900020E9F73197AF01B5
:10442000401B510BB801C7010E94A119811103C0A3
:10443000C7010E94CE196CED75E0C7010E94E0191A
:104440006CED75E00E94E0198C014DA15EA169A19F
:104450007AA10E94A119811103C0C8010E94CE193E
:104460006DED75E0C8010E94E019FC0144815581A1
:1044700060817181CE0101960E94500ECE01459659
:104480000E941F1ACE014B960E941F1ACE018196E0
:10449000AAD0CE0101960E94440FCE0181960E94BF
:1044A0001F1AA6960FB6F894DEBF0FBECDBFDF91E0
:1044B000CF911F910F91FF90EF90DF90CF900895D3
:1044C000CF93DF93CDB7DEB728970FB6F894DEBF52
:1044D0000FBECDBF28E0E9EDF2E0DE0111960190BC
:1044E0000D922A95E1F7FC012085261710F46FEF55
:1044F000620FFE013196E60FF11DE60FF11D60819E
:10450000606840E028960FB6F894DEBF0FBECDBFBE
:10451000DF91CF910C947715CF92DF92EF92FF92BB
:104520000F931F93CF93DF93EC016A017B01E8891E
:10453000F98982E080834115514E61057105B1F022
:1045400060E079E08DE390E0A70196010E94D63605
:1045500089019A01015011092109310936952795E0
:1045600017950795980101151041A8F0E889F98978
:10457000108260E874E88EE190E0A70196010E9445
:10458000D636DA01C9010197A109B109B695A795F7
:10459000979587959C01EC85FD853083EE85FF8599
:1045A0002083188EEC89FD8986E08083EA89FB8967
:1045B000808180618083EA89FB8980818860808333
:1045C000EA89FB89808180688083EA89FB89808110
:1045D0008F7D8083DF91CF911F910F91FF90EF909E
:1045E000DF90CF900895CF93DF93FC0144815581F4
:1045F0006081718187E898E00E949317EC0187E859
:1046000098E05DD98C0F9D1FDF91CF9108954F9257
:104610005F926F927F928F929F92AF92BF92CF9252
:10462000DF92EF92FF926B017C019B01AC010E9433
:10463000AB37882319F06EE376E01AC046015701C4
:10464000E894B7F82FEF3FEF4FE75FE7C501B401FC
:104650000E94AB37811111C02FEF3FEF4FE75FE7AB
:10466000C501B4010E94BD3518163CF462E476E041
:1046700087E898E084D87C0185C02FEF3FEF4FE7B3
:104680005FE4C701B6010E94A73718161CF466E460
:1046900076E0EECF2FEF3FEF4FE75FECC701B601BB
:1046A0000E94BD3587FDF3CF20E030E0A901C701AE
:1046B000B6010E94BD3587FF0AC06DE287E898E029
:1046C00033D85C01F7FAF094F7F8F09402C0A12C0B
:1046D000B12C2AE037ED43EA5BE3C701B6010E9443
:1046E00012372B013C010E947B376B017C010E9439
:1046F000C1359B01AC01C301B2010E9411372B01EE
:104700003C012AE0B701A60187E898E04DD87C017A
:10471000EA0CFB1C6EE287E898E006D8E80EF91E6A
:1047200020E030E040E251E4C301B2010E942236B1
:104730002B013C010E947B374B01A12CB12C2AE0BC
:10474000B501A40187E898E02FD8E80EF91EC5014D
:10475000B4010E94C1359B01AC01C301B2010E94AA
:10476000113720E030E040E251E40E9422360E94FE
:104770007B37AB0160E070E02AE087E898E014D86E
:10478000E80EF91E87E898E09AD88E0D9F1DFF90DD
:10479000EF90DF90CF90BF90AF909F908F907F90E1
:1047A0006F905F904F900895CF92DF92EF92FF92BB
:1047B000CF93DF936C01990FEE08FF08F7FE16C048
:1047C0006DE287E898E00E94941BEC01442755278E
:1047D000BA014C195D096E097F092AE087E898E063
:1047E0000E94D41B7C01EC0EFD1E08C02AE0B7011C
:1047F000A60187E898E00E94D41B7C0187E898E036
:104800005ED88E0D9F1DDF91CF91FF90EF90DF90CE
:10481000CF9008950F931F93CF93DF93EC018B01FB
:1048200063EA73E00E94B104FC01892B51F4CE01CC
:104830000E948F04FC01892B99F083EA93E0938313
:104840008283E80188819981AA81BB8128E030E0D8
:104850003583248386839783A087B18781E001C055
:1048600080E0DF91CF911F910F910895CF92DF9259
:10487000EF92FF920F931F93CF93DF938C016B0105
:104880006AE476E00E94B104EC01892B61F4C8016E
:104890000E948F04EC01892B11F480E02FC08AE480
:1048A00096E09B838A83D8018D919C91F6012081AB
:1048B0003181232BE1F0048115810F5F1F4FDC0153
:1048C000ED91FC910190F081E02DB80119957C01EA
:1048D000009719F3F60160817181A8010E94153AD1
:1048E00082E090E09D838C83FF82EE8206C082E0AE
:1048F00090E09D838C831F821E8281E0DF91CF91A7
:104900001F910F91FF90EF90DF90CF90089590E06E
:10491000FC013197E231F10508F04EC08827E658D6
:10492000FF4F8F4F0C94DE37809180008F7703C04C
:10493000809180008F7D8093800008958091800019
:10494000877FF9CF84B58F7702C084B58F7D84BD12
:1049500008958091B0008F7703C08091B0008F7D63
:104960008093B0000895809190008F7707C0809168
:1049700090008F7D03C080919000877F809390008E
:1049800008958091A0008F7707C08091A0008F7D4F
:1049900003C08091A000877F8093A000089580913C
:1049A00020018F7707C0809120018F7D03C0809107
:1049B0002001877F8093200108953FB7F89480916C
:1049C0008C0990918D09A0918E09B0918F0926B51F
:1049D000A89B05C02F3F19F00196A11DB11D3FBF37
:1049E000BA2FA92F982F8827820F911DA11DB11DC5
:1049F000BC01CD0142E0660F771F881F991F4A95C1
:104A0000D1F708959F92AF92BF92CF92DF92EF922B
:104A1000FF920F931F93CF93DF93CDB7DEB7279706
:104A20000FB6F894DEBF0FBECDBFFC01968199236F
:104A300009F4A8C07B018F01915096836F0182E039
:104A4000C80ED11CC6016AD9D8011296ED91FC910D
:104A5000139780818B3521F08B3709F459C06CC0D6
:104A6000F801808191810E94B5075C016BE5C60168
:104A700097D9882341F16DE5C60192D9811133C0E0
:104A800086E0982E1A821982BE016F5F7F4FC8019F
:104A9000B9DF8823C1F0C5010E949207009799F001
:104AA000FE013196DC011296892D01900D928A95B6
:104AB000E1F76DE5C60174D9811115C06CE2C6013C
:104AC0006FD98111DFCF8091450781110EC01092FF
:104AD000420710924107109244071092430781E069
:104AE0008093450702C0F50102C0E1E4F7E0808150
:104AF0009181892B11F420E040C086E090E0D7013D
:104B000011969C938E931396FC93EE93129712C07A
:104B1000C8010E941814FC0120813181232B59F314
:104B200027E030E0D70111963C932E9313969C9387
:104B30008E93129721E021C021E0873219F0823252
:104B400009F020E0C8012F830E948B132F8100976A
:104B500091F2222341F042E050E0F701518340837B
:104B6000938382830AC021E030E0D70111963C9301
:104B70002E9313969C938E931297F80186818F5FE4
:104B8000868301C020E0822F27960FB6F894DEBFFF
:104B90000FBECDBFDF91CF911F910F91FF90EF908E
:104BA000DF90CF90BF90AF909F900895AF92BF924B
:104BB000CF92DF92EF92FF921F93CF93DF9300D0BB
:104BC0001F92CDB7DEB75C01C5010E94341BFC010A
:104BD00097FD0FC08D32910581F0C0970A9768F05C
:104BE000D501ED91FC910284F385E02DC501199565
:104BF000EBCF60E070E0CB014AC020E030E0A901DB
:104C000010E0E130F105E9F0ED32F105C9F0CF0136
:104C1000C0970A97B0F4AAE0B0E00E94F8366F019E
:104C2000FF0FEE08FF08DC01CB018C0D9D1DAE1DB2
:104C3000BF1D9C01AD01205331094109510901C03B
:104C400011E0D501ED91FC910284F385E02DC501C1
:104C500029833A834B835C831995C5010E94341BD9
:104C6000FC01C09729813A814B815C810A9748F207
:104C7000E130F10531F2112341F066277727CB01AE
:104C8000621B730B840B950B02C0CA01B9010F9014
:104C90000F900F900F90DF91CF911F91FF90EF90A9
:104CA000DF90CF90BF90AF900895CF93DF93282FE0
:104CB00030E0F901EC5AFA4F8491F901E25FFA4FC2
:104CC000D491F901E853FB4FC491CC2389F08111B1
:104CD0001EDEEC2FF0E0EE0FFF1FE255FB4FA5911B
:104CE000B491EC91ED2381E090E021F480E002C0EA
:104CF00080E090E0DF91CF9108951F93CF93DF93F1
:104D0000282F30E0F901EC5AFA4F8491F901E25F63
:104D1000FA4FD491F901E853FB4FC491CC23C1F071
:104D2000162F8111F4DDEC2FF0E0EE0FFF1FEC5693
:104D3000FB4FA591B4918FB7F894111105C09C91C8
:104D4000ED2FE095E92302C0EC91ED2BEC938FBFA2
:104D5000DF91CF911F910895CF93DF9390E0FC01F5
:104D6000E25FFA4F2491FC01E853FB4F84918823C2
:104D700061F190E0880F991FFC01E658FB4FC59147
:104D8000D491FC01EC56FB4FA591B491611109C07F
:104D90009FB7F8948881209582238883EC912E23F5
:104DA0000BC0623061F49FB7F8943881822F8095F0
:104DB00083238883EC912E2B2C939FBF06C08FB743
:104DC000F894E8812E2B28838FBFDF91CF9108952F
:104DD0008F929F92AF92BF92CF92DF92EF92FF920B
:104DE0006B017C01EADD4B015C01C114D104E104DB
:104DF000F104E9F0E2DDDC01CB0188199909AA0987
:104E0000BB09883E9340A105B10578F321E0C21AA1
:104E1000D108E108F10888EE880E83E0981EA11CF5
:104E2000B11CC114D104E104F10421F7DECFFF90DD
:104E3000EF90DF90CF90BF90AF909F908F900895AC
:104E40002FB7F894609188097091890980918A0937
:104E500090918B092FBF08958F929F92AF92BF922E
:104E6000CF92DF92EF92FF92CF93DF93F82EEB0178
:104E7000E42E6901E5DF4B015C0180913F079091D1
:104E80004007DC01ED91FC910084F185E02D19953E
:104E9000892B09F472C080913F0790914007DC0193
:104EA000ED91FC91EE2031F00484F585E02D19950B
:104EB000888318C00284F385E02D1995888380913A
:104EC000830990918409A0918509B0918609019781
:104ED000A109B1098093830990938409A09385095E
:104EE000B09386098091830990918409A0918509E6
:104EF000B0918609892B8A2B8B2B11F081E08BC016
:104F000065E070E080E090E063DF80913F07909182
:104F10004007DC01ED91FC910084F185E02D1995AD
:104F2000892B61F380913F0790914007DC01ED915F
:104F3000FC910484F585E02D19952F2D30E0205D3E
:104F40003F4F82179307D1F640E06DE476E084EF9F
:104F500091E00E94930D059761F061E873E087E8A6
:104F600098E00E94821C63EA75E087E898E00E945E
:104F7000721C81E0F60180834EC062DFDC01CB0150
:104F800088199909AA09BB09803D9740A105B10577
:104F900008F473CF61E873E087E898E00E94821C10
:104FA0006AE975E087E898E00E949B1B6FE774E070
:104FB00087E898E00E94821CC0908309D090840901
:104FC000E0908509F0908609F7FE0EC06DE287E853
:104FD00098E00E94941B44275527BA014C195D099B
:104FE0006E097F092AE003C02AE0B701A60187E81D
:104FF00098E00E94D41B87E898E00E945F1C109202
:1050000083091092840910928509109286091092E2
:105010008209188280E0DF91CF91FF90EF90DF90BE
:10502000CF90BF90AF909F908F9008951F920F9256
:105030000FB60F9211242F933F938F939F93AF93AB
:10504000BF938091880990918909A0918A09B091B4
:105050008B093091870923E0230F2D3720F4019627
:10506000A11DB11D05C026E8230F0296A11DB11D8B
:10507000209387098093880990938909A0938A09CE
:10508000B0938B0980918C0990918D09A0918E0924
:10509000B0918F090196A11DB11D80938C09909349
:1050A0008D09A0938E09B0938F09BF91AF919F9105
:1050B0008F913F912F910F900FBE0F901F901895D9
:1050C000CF93DF93CDB7DEB7C954D1090FB6F894AB
:1050D000DEBF0FBECDBF789484B5826084BD84B539
:1050E000816084BD85B5826085BD85B5816085BDE3
:1050F00080916E00816080936E001092810080919B
:105100008100826080938100809181008160809322
:105110008100809180008160809380008091B10047
:1051200084608093B1008091B00081608093B00072
:1051300080919100826080939100809191008160C4
:105140008093910080919000816080939000809185
:10515000A10082608093A1008091A1008160809372
:10516000A1008091A00081608093A0008091210126
:1051700082608093210180912101816080932101CF
:105180008091200181608093200180917A00846069
:1051900080937A0080917A00826080937A00809177
:1051A0007A00816080937A0080917A008068809391
:1051B0007A001092C10086E090E00E9400386C01F5
:1051C00083E192E0D60111969C938E9380E490E067
:1051D00013969C938E93129789E290E015969C9378
:1051E0008E93149760E0B8DD60E080E4B5DDD09286
:1051F0007106C092700686E090E00E9400385C0163
:105200008BE192E0F5019183808381E490E09383C8
:10521000828387E290E09583848360E09DDD60E097
:1052200081E49ADDB0926F06A0926E0684E090E071
:105230000E9400384C0183E292E0D4018D939C934C
:105240008EE090E00E9400387C0160E086E384DD1F
:10525000E4E4F5E0E491D701EC93EEEFF4E0E491BF
:10526000F0E0EE0FFF1FE255FB4F85919491F7019F
:10527000928381831386158614863701FBE06F0EB7
:10528000711C270123E0420E511CF3011292E41518
:10529000F505E1F783E190E00E9400388C0185E795
:1052A00092E1D80152969C938E9351971696FC9258
:1052B000EE9215971C9289E011968C93119781E0DC
:1052C00012968C93129713968C93F4011383028396
:1052D000D3011E923D01A415B505D1F7F801148242
:1052E0007E01FFE0EF0EF11C77247394B701D80123
:1052F00015968D919C9116970E940317882309F4A7
:105300004DC067E0C7010E9498159E898913EECFB2
:10531000D8018C91811125C015968D919C9116977D
:105320000E943516B701F801858196810E94E61525
:1053300040E064EBD80115968D919C9116970E94E0
:10534000A515F801858196810E941116682ED80155
:1053500015968D919C9116970E943516662009F43A
:105360005EC1AE014F5F5F4FB701C8010E946B166F
:10537000F8016180B701C8010E94CA16861520F4A1
:10538000D80111968C9104C0B701C8010E94CA16B9
:10539000F801818384818F5F8483A8CF90926D060A
:1053A00080926C0688E090E00E940038FC018BE25D
:1053B00092E091838083D782C682B582A482938251
:1053C0008282F0937506E093740640E855E260E04F
:1053D00070E087E898E0A0D840E855E260E070E02F
:1053E0008AEE97E099D840E052EC61E070E08DE4FD
:1053F00097E092D81A8A198A83E392E0988B8F8774
:1054000087E28B8B80E1888F82E0898F1A8E84E01F
:1054100090E00E9400388C018FE392E0F8019183C4
:105420008083F382E28210925E0610925D061092F3
:105430005C0610925B0610925A0681E08093590632
:105440001092580661E084E158DC61E085E155DCAA
:105450008091B9008E7F8093B9008091B9008D7FD3
:105460008093B90088E48093B80085E48093BC0001
:105470001C8A898D823010F098E09C8B8F8B8BE397
:105480009DE00197F1F76A8DC7010E94FD1468EE57
:1054900073E080E090E09CDC60E3C7010E9461154E
:1054A0008BE4C82E86E4D82EC6010197F1F760E39D
:1054B000C7010E946115C6010197F1F760E3C701BA
:1054C0000E94611583E592E00197F1F760E2C70160
:1054D0000E9461156C89606240E0C7010E947715E7
:1054E00084E08D8B40E06CE0C7010E947715C70116
:1054F0000E94901582E08E8B40E066E0C7010E941A
:10550000771540E062E0C7010E9477158BE39FE1C9
:105510000197F1F7D80112968D919C91139728E08D
:10552000FC01238760E00E94FD1410936B0600933A
:105530006A06D80112968D919C9113970E9490153E
:1055400063E673E0F801828193810E94821C61E02E
:10555000D80112968D919C9113970E94602260E76A
:1055600073E0F801828193810E94821C84E090E0C4
:105570000E9400388C0187E492E0D80111969C9338
:105580008E9382E090E013969C938E93129761E045
:10559000E3DB109369060093680680916A06909198
:1055A0006B066E01B2E4CB0ED11C25E632E0F601AB
:1055B000318320839383828361E873E087E898E0F6
:1055C0000E94821C63E172E087E898E00E94721CEE
:1055D0008DE497E09093400780933F0705E010E04B
:1055E00080E192E00E940F21892BE1F068EE73E0E8
:1055F00080E090E0EDDB0150110991F761E873E084
:1056000087E898E00E94821C63EF71E087E898E0E9
:105610000E94721C68E873E180E090E071C0F801BC
:1056200070829FCE83EB91E00E940F2168EB7BE0BC
:1056300080E090E0CDDB80E00E94780D8EEA91E082
:105640000E940F2182EA91E00E940F2168EC70E035
:1056500080E090E0BDDB86E991E00E940F2188E8C0
:1056600091E00E940F2188E791E00E940F218AE6D5
:1056700091E00E940F2168EC70E080E090E0A8DBF0
:1056800010925F0666E571E0CE010196C4D563E530
:1056900071E0CE014B96BFD506E010E02FE536E075
:1056A000AE01455E5F4FBE016F5F7F4F83E691E0C5
:1056B0000E948A0F80915F068153823028F4809186
:1056C00060068E3209F4ABC261E873E087E898E0C7
:1056D0000E94821C65ED71E087E898E00E949B1BA8
:1056E0006FE774E087E898E00E94821C6FE576E03F
:1056F00087E898E00E94621C60EA7FE080E090E02A
:1057000067DB809168069091690620916A06309166
:105710006B064DE552E05C8F4B8F3E8F2D8F98A32B
:105720008F8FDAA2C9A286E090E00E9400383C0187
:105730008FE492E0D30111969C938E9313961C9262
:105740001E92129715961C921E921497FE01319686
:105750005F018E010D5D1F4F80916706811159C257
:105760008AEE97E00E940818892BB1F36EEB74E083
:10577000CE018A960E945C1A8AEE97E00E94641B12
:1057800097FD0AC089831A8241E050E0B501CE013D
:105790008A960E94A119F0CF87E592E09CA38BA383
:1057A0001FA21EA280E092E099A788A7CE018A9648
:1057B0000E94F3228AA59BA5009711F48EEB94E03A
:1057C0001A8309839C838B831E830D838AE08F83D6
:1057D000C5010E9418146C0187E592E09CA38BA37D
:1057E000EEA1FFA1309759F08281938199A788A7F4
:1057F00080809180CF010E949538F401F3CFCE01D3
:105800008A960E941F1A4CE853E0B601CE01CC964E
:105810000E94131360E479E0CE01CC960E946F19C8
:10582000882309F4A2C143E953E0B601CE01C6962C
:105830000E94131348E953E0B601CE01C0960E94BE
:105840001313CE01CC960E94F322CE01C6960E947D
:10585000F322CE01C0960E94F32264E670E080E05D
:1058600090E0B6DABE01605D7F4FC8010E94541A15
:10587000BE016A5C7F4FCE018A960E94541AA8012D
:10588000BE01665D7F4FC5010E94791DCE018A96DB
:105890000E941F1AC8010E941F1A49A05AA0BE01E7
:1058A0006D5F7F4FC8010E94541A8FA198A50E9476
:1058B00000389C01382E232EC80129962FAF299736
:1058C0002A963FAF2A970E941F1ABE016D5F7F4F35
:1058D000C8010E94541A8CA18F938BA18F93B1EAB7
:1058E0008B2EB3E09B2E9F928F922A963FAD2A97E4
:1058F0003F9329962FAD29972F930E94443AC801D0
:105900000E941F1ABE01675F7F4FC8010E94541A90
:105910008FA198A50E9400389C0127968FAF2797EA
:1059200028963FAF2897C80129962FAF29972A9626
:105930003FAF2A970E941F1ABE01675F7F4FC801C1
:105940000E94541A8CA18F938BA18F939F928F9258
:105950002A963FAD2A973F9329962FAD29972F93EB
:105960000E94443AC8010E941F1AD20112968D90DB
:105970009C90139760E0F401828193810E946022E1
:1059800065EA73E0D40112968D919C9113970E9461
:10599000821C0FB6F894DEBF0FBECDBF812C912CB8
:1059A00066EB73E087E898E00E94621CF1E0F093F8
:1059B000650628962FAD28972F9327963FAD2797FA
:1059C0003F932F923F924EE44F9350E25F93ADE4AA
:1059D000B2E0BF93AF930E940B0F0FB6F894DEBFF7
:1059E0000FBECDBF61E873E0892BD1F487E898E062
:1059F0000E94821C6BE272E087E898E00E949B1B89
:105A00006FE774E087E898E00E94821C632D722D96
:105A100087E898E00E94621C44244394512C21C0E2
:105A200087E898E00E94821C68E372E087E898E0CB
:105A30000E949B1B6FE774E087E898E00E94821C3D
:105A4000632D722D87E898E00E94621C68EE73E077
:105A500080E090E0BDD980E00E94780DF2E04F2E0A
:105A6000512C64E670E080E090E0B2D93FEF831AF9
:105A7000930A61EC73E087E898E00E94821CC401FD
:105A80000E94D4236AEC73E087E898E00E94821CAD
:105A900081E090E041E04416510411F080E090E094
:105AA0000E94D4234A94452891F183E088169104FA
:105AB00009F076CF8D8C9E8C60E0F4018281938119
:105AC0000E94602261E874E0D40112968D919C914D
:105AD00013970E94821C8F8C98A028EE33E048EE2A
