:1000000011C1000040C100003EC100003CC1000021
:100010003AC1000038C1000036C1000034C1000000
:1000200032C1000030C100002EC100002CC1000010
:100030002AC100000C94601026C1000024C10000F9
:1000400022C1000020C100001EC100001CC1000030
:100050001AC1000018C1000016C100000C94BC0AAF
:1000600012C100000C94EF140C94C6140CC10000D3
:100070000AC1000008C1000006C1000004C1000060
:1000800002C1000000C10000FEC00000FCC0000072
:100090000C949D140C947414F6C000000C942F0959
:1000A000F2C00000F0C00000EEC00000ECC0000094
:1000B000EAC00000E8C00000E6C00000E4C00000A4
:1000C000E2C00000E0C00000DEC00000DCC00000B4
:1000D000DAC00000D8C00000D6C00000D4C00000C4
:1000E000D2C00000CB03C503DD03D403D0037A03E1
:1000F000990340032C0E2F0E1E0E220E260E660EA6
:10010000330E370E3D0E410E450E4B0E4F0E530E65
:10011000660E590E5D0E610E00000A0B02090C0DF1
:100120000E080703040100000000000000000000AA
:1001300000000000000000000000000000000000BF
:10014000000000001211100000000000000000007C
:10015000000000000000000000000000000000009F
:100160002200250028002B002E003100340002015F
:100170000000050108010B010000210024002700F8
:100180002A002D00300033000101000004010701A6
:100190000A0105050505070508080808020202020C
:1001A0000A0A080804040404010101010101010113
:1001B0000303030303030303040707070C0C0C0CDE
:1001C0000C0C0C0C020202020606060606060606C7
:1001D0000B0B0B0B0B0B0B0B010210202008081054
:1001E00020401020408002010201080402010102A7
:1001F0000408102040808040201008040201800480
:1002000002018040201008040201080402010102DA
:1002100004081020408001020408102040800200E1
:100220001019081911241FBECFEFD1E2DEBFCDBFD8
:1002300000E00CBF25E0A2ECB3E001C01D92AF3F8F
:10024000B207E1F713E0A0E0B2E0EEE0FCE300E08B
:100250000BBF02C007900D92A23CB107D9F711E085
:10026000C1E1D1E000E006C021970109802FFE0125
:100270000E94AC1BC031D10780E00807A9F70E949B
:1002800002160C94F61DBCCE8091530481110BC054
:100290001092500410924F04109252041092510484
:1002A00081E0809353048FE494E00895089581E001
:1002B00090E03091610420916004321710F480E0E6
:1002C00090E09195819591090895809161049091B4
:1002D0006004891730F48F5F8093610480E090E0C0
:1002E00008958FEF9FEF08958091600490E0209132
:1002F0006104821B91090895089580E090E00895BB
:1003000085ED8093BC008091BC0084FDFCCF1092F1
:100310005D0408954091E403262F30E0240F311D41
:1003200021323105DCF420915D042430C9F4FC0154
:1003300080E090E0861758F43091E4032191DC01CD
:10034000AE53BC4FA30FB11D2C930196F3CF8091F8
:10035000E403680F6093E40380E0089581E008956A
:1003600082E00895CF92DF92EF92FF920F931F9356
:10037000CF93DF937C01262F972F8A0180912D0444
:10038000882391F0C62FD72F6E01C40ED51ECC1531
:10039000DD0569F06991D701ED91FC910190F08143
:1003A000E02DC7011995F3CF642F822FB3DFC80169
:1003B000DF91CF911F910F91FF90EF90DF90CF9041
:1003C0000895CF93DF931F92CDB7DEB76983209155
:1003D0002D042223D1F020915E04203240F021E050
:1003E00030E0FC013383228380E090E014C08091F0
:1003F0005F04E82FF0E0E25DFB4F998190838F5F0F
:1004000080935F0480935E0404C061E0CE01019696
:1004100081DF81E090E00F90DF91CF9108950F93FD
:100420001F93CF93DF938B01FC01C281D38120976F
:1004300059F06A817B81C8010E94E61D892B21F059
:100440000990D881C02DF3CFCE01DF91CF911F91BC
:100450000F910895E4DFFC01892B09F44BC08481DE
:100460009581833091053CF4813091057CF40097AF
:1004700009F447C038C0853091052CF0059799F5EF
:10048000668177812BC08681978108950680F781E8
:10049000E02D309779F18081843779F18B3229F022
:1004A0008D3221F4319691E002C0319690E060E007
:1004B00070E03AE0819120ED280F2A3068F4369FF1
:1004C000A001379F500D1124682F880F770B6053C0
:1004D0007109640F751FEECF992391F08827992732
:1004E000861B970B089566817781808591850E9490
:1004F000261B06C080E090E0089581E090E008951A
:10050000CB0108950C945D1C0C945D1C0C945D1C37
:100510000C945D1C8F929F92AF92BF92CF92DF920C
:10052000EF92FF920F931F93CF93DF937C014B01C8
:10053000DC01AD90BC90F50100811181D8011496C9
:10054000CD90DC9015976115710501F1FB010190CB
:100550000020E9F73197E61BF70BC1F0EF01CC0D56
:10056000DD1DBE01C8010E94060B882379F0F80149
:100570002081318184819581B401820F931F0E9473
:10058000EF1DD8011596DC93CE931497D501ED910C
:10059000FC9124813581F70182819381820F931F21
:1005A0008C199D0993838283DF91CF911F910F91C5
:1005B000FF90EF90DF90CF90BF90AF909F908F9083
:1005C0000895FF920F931F93CF93DF9361157105E9
:1005D00041F460EE72E0DF91CF911F910F91FF9097
:1005E00099CF8B01EC0162E2CE010E94F115F80176
:1005F00061918F01662351F0E1EDF2E0F080FF2080
:1006000099F39181961759F03296F8CF62E2CE01B4
:10061000DF91CF911F910F91FF900C94F1156CE534
:10062000CE010E94F1156F2DDFCF2F923F924F9296
:100630005F926F927F928F929F92AF92BF92CF9272
:10064000DF92EF92FF920F931F93CF93DF93CDB77B
:10065000DEB76A970FB6F894DEBF0FBECDBFDC01E0
:10066000ED91FC9111973197E830F10508F020C227
:100670008B017C018827EE58FF4F8F4F0C94AC1BE9
:10068000FD01C280D380E480F580A7019601C701F7
:10069000B6010E948F19882319F060EF72E09BC0A9
:1006A00020E030E0A901C701B6010E948F1987FF41
:1006B00008C06DE2C8010E94F115F7FAF094F7F84E
:1006C000F09420E030E0A901C701B6010E948F1923
:1006D000882309F483C0A7019601C701B6010E94CF
:1006E000C21AA70196010E948F19811177C067EF86
:1006F00072E071C01296ED90FC9013976BE5C80103
:100700000E94F115F701E280F380E114F10451F049
:10071000B801C701029689DFD701ED90FC90E11482
:10072000F10411F46DE52DC06CE2C8010E94F115D1
:10073000ECCFFD01E280F3806BE7C8010E94F11568
:10074000D7011296ED90FC90139704C06CE2C8019B
:100750000E94F115E114F10499F0F70162817381AF
:10076000C8012FDF6AE3C8010E94F115B801C70173
:1007700004965BDFD701ED90FC90E114F10431F7B2
:100780006DE7C8010E94F11593C1FD01628173817B
:10079000C80117DF8DC112966D917C9113971BC014
:1007A0006DE2C8010E94F115F70142815381648115
:1007B0007581C8010E94AD157BC1FD0182819381C5
:1007C000A481B581892B8A2B8B2B19F46AEE72E0F8
:1007D00002C065EE72E0C8019DDE6AC120E836E91C
:1007E00048E15BE4C701B6010E94571B87FD58C171
:1007F000412C512C70E2672E712C812C912CF2012E
:10080000E95CFD4F2489358946895789C701B601BE
:100810000E94571B87FD0FC0F201E15EFD4F248946
:10082000358946895789C701B6010E94F4196B01C1
:100830007C01860C971C75946794F4E04F1A51085C
:1008400088EE48168FEF5806D1F655245A9420E0CA
:1008500030E0A901C701B6010E94571B181694F594
:100860002CEA35EC47E257E3C701B6010E948F1925
:10087000181644F1BFEF5B1629F1952DA4E09A02FA
:1008800050011124F501E95FFD4F20813181428142
:100890005381C701B6010E948F1987FF0FC0F50170
:1008A000E95CFD4F2081318142815381C701B6014E
:1008B0000E94F4196B017C0186189708759467945F
:1008C0005A94D8CFC701B6010E942B1B2B013C01C3
:1008D0006B8B7C8B8D8B9E8B46E0A42E80E492E408
:1008E000AFE0B0E08F8B988FA98FBA8FBA2CAA2473
:1008F000AA94AB0C8B899C89AD89BE890A97A10506
:10090000B105E8F06F89788D898D9A8D2AE030E005
:1009100040E050E00E946E1B2F8B388F498F5A8F1A
:100920006B897C898D899E892AE030E040E050E027
:100930000E946E1B2B8B3C8B4D8B5E8BD7CFC301E4
:10094000B2010E9493199B01AC01C701B6010E943C
:10095000C11A6B017C016F89788D898D9A8D0E94F7
:1009600093199B01AC01C701B6010E94F4196B8B6E
:100970007C8B8D8B9E8B0E942B1B6B017C010E94BC
:1009800093199B01AC016B897C898D899E890E949A
:10099000C11A9B01AC010E94C21A0E942B1BC60EF9
:1009A000D71EE81EF91E8F89988DA98DBA8DC8169D
:1009B000D906EA06FB0610F19FEF491A590A690A9F
:1009C000790A8114910489F0AAE04A16510461045D
:1009D000710458F0BFEF8B1A9B0AC12CD12C760101
:1009E000412C512C3201439409C0C12CD12C7601E9
:1009F00005C01B147CF469017A01BA94C701B601E1
:100A00002AE030E040E050E00E946E1B672B682B2C
:100A1000692B79F3AB2CB301A201C8010E94AD157B
:100A2000BB2039F1188A3E01E0E16E0E711C7A8A12
:100A3000698A2AE0222E312C412C512CAA94BFEF36
:100A4000AB1669F0C701B601A20191010E946E1BAD
:100A5000605DD3016E933D0169017A01EFCF698931
:100A60007A896B1971098EE2FB018293BF01C8017B
:100A700051DD97FE09C064EF72E0C8014BDD6627C7
:100A800077276819790908C08114910489F065E60F
:100A9000C8010E94F115B401C8010E94831508C065
:100AA00080E2682E712C95E0592E812C912CCFCEAE
:100AB0006A960FB6F894DEBF0FBECDBFDF91CF911F
:100AC0001F910F91FF90EF90DF90CF90BF90AF906C
:100AD0009F908F907F906F905F904F903F902F905E
:100AE0000895CF92DF92EF92FF920F931F93CF93CF
:100AF000DF938C017B01DC011596CD91DC9116977B
:100B00006B016C177D0708F46E01C60106960E9402
:100B1000C81BFC01892BB1F0D382C282D801139685
:100B20008D919C911497918380831496FC93EE93FE
:100B30001397CC0FDD1F1696DC93CE931597F58295
:100B4000E4823696CF01DF91CF911F910F91FF90F4
:100B5000EF90DF90CF900895FF920F931F93CF9364
:100B6000DF93EC01F62E88819981FC01A381B48189
:100B7000109771F01496ED91FC9115979F012F5FDE
:100B80003F4F12964D915C9113974217530750F5C2
:100B90002C813D81B9016F5F7F4FA3DF8C016A819A
:100BA0007B816115710549F00115110571F04C81CA
:100BB0005D81C8010E94DD1D03C00115110529F0EA
:100BC000EC81FD81E00FF11FF0821B830A838C8191
:100BD0009D8101969D838C83DF91CF911F910F9111
:100BE000FF9008953696EA0FFB1F15963C932E93BF
:100BF000149760838C819D81892B49F7FB83EA835D
:100C0000E6CFFC01A081B1818C918D3051F024F4AC
:100C100089508230B8F505C0803219F08F3219F052
:100C2000089511962CC011968C9111978A3219F063
:100C30008F32D1F008951196B183A083A081B18144
:100C4000CD0101969183808311968C911197882311
:100C5000C9F08A3299F712968C9112978F3271F7F8
:100C600013960DC08A3071F2A081B181CD01019639
:100C70009183808311968C918111F4CF03C0B1834D
:100C8000A083C0CF08950F931F93CF93DF931F923C
:100C9000CDB7DEB78C016983B4DFD801ED91FC914B
:100CA000119780816981861305C03196ED93FC937D
:100CB00081E001C080E00F90DF91CF911F910F91F3
:100CC0000895ADDB009749F0FC0124813581273080
:100CD000310519F4868197810895D6CACF92DF92A3
:100CE000EF92FF920F931F93CF93DF93CDB7DEB7B1
:100CF0002C970FB6F894DEBF0FBECDBF8C01CB0191
:100D0000BA018DDB7C01009709F44BC0FC01C48063
:100D1000D580F1E0CF16D10461F4FC0166817781C2
:100D20006115710531F080EE92E00E94E61D892B7D
:100D300069F0F1E0CF1AD10882E0C816D10430F48E
:100D4000F701668177816115710569F56FED72E0D4
:100D5000CE0101966C010E944C10DC86CB86CE0140
:100D60000B9698878F831A861986BE01695F7F4F1D
:100D7000C70104965ADC89819A81F80191838083A6
:100D80008B819C81938382838D819E8195838483D3
:100D90001A8219821C821B821E821D82C601D7D430
:100DA00005C06FED72E0C8010E944C10C8012C967E
:100DB0000FB6F894DEBF0FBECDBFDF91CF911F916C
:100DC0000F91FF90EF90DF90CF900895EF92FF92F8
:100DD0001F93CF93DF9300D000D0CDB7DEB77C0157
:100DE000DC0114968D919C9115979A8389831C82BE
:100DF0001B821E821D82C701029603DFD701129655
:100E0000ED91FC9113971081173231F1123221F1DB
:100E100080ED810F8A3078F081EA810F8C3158F0B3
:100E20008FEB810F8A3138F01B3229F083ED810F6F
:100E3000823008F042C0F70182819381019693834A
:100E40008283612FCE01019687DED7011296ED9144
:100E5000FC9113971081DCCF3196D7011396FC9348
:100E6000EE931297D7011296ED91FC911397608142
:100E7000662319F1CF01019613969C938E931297D6
:100E80006117D9F06C35A9F46181A5EDB2E08C91C0
:100E9000882339F0861303C011966C9102C0129614
:100EA000F6CF662351F03296D7011396FC93EE935A
:100EB0001297CE01019650DED5CF60E0CE010196AB
:100EC0004BDE8B819C8126960FB6F894DEBF0FBE59
:100ED000CDBFDF91CF911F91FF90EF9008950895BE
:100EE000AF92BF92CF92DF92EF92FF920F931F9338
:100EF000CF93DF93CDB7DEB768970FB6F894DEBF18
:100F00000FBECDBF7C018A0160E073E0CA01A2DAA6
:100F10006C0167E073E0C8019DDA5C014EE053E0CC
:100F2000B801CE010796DADE45E153E0B801CE0103
:100F30000196D4DEC60181D4C5017FD4CE010796C7
:100F400001D5CE010196FED41C8A1B8A1E8A1D8AF9
:100F5000188E1F8ABE016F5F7F4FCE014396D7D395
:100F60001E861D86188A1F861A8A198ABE01695F25
:100F70007F4FCE010D96CBD38E010D5E1F4F9E018C
:100F8000235F3F4FA501B601C7010E944315CE0163
:100F90000D96DDD3C801DBD3CE010196D8D3CE01A7
:100FA0000796D5D3C70168960FB6F894DEBF0FBE7B
:100FB000CDBFDF91CF911F910F91FF90EF90DF9008
:100FC000CF90BF90AF900895DB01109749F0ED915D
:100FD000FC9111970190F081E02DBC01CD01199495
:100FE00080E090E008959F92AF92BF92CF92DF92FF
:100FF000EF92FF920F931F93CF93DF9300D000D017
:10100000CDB7DEB76C01FC0100811181B80184E02D
:1010100090E0DADF009709F471C0FC0111830083CE
:10102000138212828C017601F2E0EF0EF11C6BE765
:10103000C70129DE882309F45EC06DE7C70123DEFE
:1010400081115EC086E0982EC601C0DE5C01892B4E
:1010500009F451C06AE3C70116DE882309F44BC0C6
:101060001A821982BE016F5F7F4FC60180D4882328
:1010700009F441C0B501C801D2D9DC01892B49F579
:10108000F801608171818AE090E09EDFDC01892BAC
:1010900039F011961C921E9215961C921E9214976E
:1010A000F801228133812115310551F0F901808148
:1010B0009181009711F09C01F9CFB183A08303C007
:1010C000F801B383A2831097B1F01396BC92AE924D
:1010D0001297FE0131961496892D01900D928A95F2
:1010E000E1F76DE7C701CFDD81110AC06CE2C701EE
:1010F000CADD8111A9CFC8D88C0102C0C5D892CF52
:10110000C80126960FB6F894DEBF0FBECDBFDF91A3
:10111000CF911F910F91FF90EF90DF90CF90BF90F4
:10112000AF909F9008950895CF93FC01C48121E072
:1011300020932D04C0934E0410925F0410925E041D
:101140008385682B87EA95E03CD980915E048132E3
:1011500008F046C090915D049111FCCF92E090930D
:101160005D0491E090935C049FEF90932C041092A7
:101170002B0480932A04AEE2B4E02AE034E0F901C3
:101180009E2F921B981718F49D919193F9CF10926E
:10119000090480910904CC0FC82BC09309048091E5
:1011A0005B04813061F410925B04809109048093A8
:1011B000BB008091BC0083FDF8CF85EC01C085EEBB
:1011C0008093BC0080915D048230E1F380912C0417
:1011D0008F3F31F080912C04803211F080912C04EB
:1011E00010925F0410925E0410922D04CF91089526
:1011F0000F931F93CF938C01C62F96DF6C2F6460E3
:10120000C80192DF6C2F6B7FC8018EDF83EC90E00A
:101210000197F1F7CF911F910F9108950F931F93AD
:10122000CF93DF938C01D62FC42F607F642BE0DF38
:101230006D2F6295607F6C2BC801DF91CF911F915C
:101240000F91D6CF41E0EADF81E090E0089540E0E1
:1012500061E0E4DF8BE39FE10197F1F708951F92CE
:101260000F920FB60F9211240BB60F922F933F934C
:101270004F935F936F937F938F939F93AF93BF939E
:10128000EF93FF938091B900887F803609F49CC06A
:1012900068F5883209F45BC090F4803109F454C0D9
:1012A00038F4882309F4F6C0883009F44DC0F6C03C
:1012B000883109F44CC0803209F45DC0EFC080343D
:1012C00009F468C048F4803309F455C0883309F044
:1012D000E5C080932C04D8C0803509F44FC0883510
:1012E00009F45DC0883409F0D9C0D6C0883909F442
:1012F000C7C0A8F4883709F467C038F4883609F401
:1013000063C0803709F460C0C9C0883809F4B8C028
:10131000803909F45FC0803809F0C0C05BC0803BF1
:1013200009F486C038F4803A09F466C0883A09F4B2
:101330007FC0B4C0803C09F4A7C0883C09F4A4C0B5
:10134000883B09F48AC0AAC08091090410C090911A
:101350002B0480912A04981770F5E0912B0481E00A
:101360008E0F80932B04F0E0E65FFB4F808180932B
:10137000BB0085EC86C080932C048EC0E0912B04CA
:1013800081E08E0F80932B048091BB00F0E0E65F3C
:10139000FB4F808390912B0480912A046EC0E091D2
:1013A0002B0481E08E0F80932B048091BB00F0E032
:1013B000E65FFB4F808380915C0481116DC081E00A
:1013C00080935B0484EA61C083E080935D041092A3
:1013D0000804CFCF80910804803208F051C0E0911A
:1013E000080481E08E0F809308048091BB00F0E038
:1013F000E851FC4F8083BDCF85EC8093BC001092F8
:101400005D0480910804803230F4E0910804F0E03B
:10141000E851FC4F10826091080470E0E091E6030F
:10142000F091E70388EE93E019951092080436C016
:1014300084E080935D041092E5031092E403E09150
:10144000E203F091E30319958091E403811105C053
:1014500081E08093E4031092C203E091E50381E010
:101460008E0F8093E503F0E0EE53FC4F8081809374
:10147000BB009091E5038091E403981708F479CFBD
:1014800085E88093BC000AC085EC8093BC00109274
:101490005D0404C010922C040E948001FF91EF9122
:1014A000BF91AF919F918F917F916F915F914F917C
:1014B0003F912F910F900BBE0F900FBE0F901F907A
:1014C0001895089508950E94D91DFC012481358145
:1014D000FB01448155812417350721F5FC018081EA
:1014E0009181FB0160817181009719F0611571058F
:1014F000A1F46115710549F0232BB1F0FB01808146
:1015000090E09195819591090AC0009769F0232B8D
:1015100059F0FC01808190E002C00E94E61D21E0AC
:10152000892B19F020E001C021E0822F08953FB7F8
:10153000F8948091650490916604A0916704B0913D
:10154000680426B5A89B05C02F3F19F00196A11D80
:10155000B11D3FBFBA2FA92F982F8827820F911D49
:10156000A11DB11DBC01CD0142E0660F771F881F90
:10157000991F4A95D1F708951F920F920FB60F92B7
:1015800011242F933F938F939F93AF93BF93809199
:10159000690490916A04A0916B04B0916C0430913D
:1015A000640423E0230F2D3720F40196A11DB11D03
:1015B00005C026E8230F0296A11DB11D20936404E7
:1015C0008093690490936A04A0936B04B0936C04B5
:1015D0008091650490916604A0916704B0916804BD
:1015E0000196A11DB11D8093650490936604A0939C
:1015F0006704B0936804BF91AF919F918F913F9121
:101600002F910F900FBE0F901F9018950F931F935F
:10161000CF93DF93EC0188819981009729F02A818B
:101620003B812617370788F48B016F5F7F4F0E943D
:10163000F51C009761F0998388831B830A832C81B2
:101640003D81232B11F4FC01108281E001C080E078
:10165000DF91CF911F910F910895EF92FF920F9319
:101660001F93CF93DF931F921F92CDB7DEB78C01EC
:1016700069831A82FC01E480F580FFEFEF1AFF0A0C
:10168000B701C4DF882381F0F80120813181848192
:101690009581BE016F5F7F4F820F931F0E94EF1DE8
:1016A000F801F582E48281E00F900F90DF91CF91F5
:1016B0001F910F91FF90EF900895EF92FF920F937B
:1016C0001F93CF93DF93EC017B018A01BA019EDF68
:1016D0002881398181110DC02115310519F0C90109
:1016E0000E945D1C198218821D821C821B821A8234
:1016F00006C01D830C83B701C9010E94EF1DCE01F6
:10170000DF91CF911F910F91FF90EF900895CF93AC
:10171000DF93EC01FB0186179707A9F060817181C7
:101720006115710521F044815581C7DF0CC08881A6
:101730009981009711F00E945D1C198218821D8208
:101740001C821B821A82CE01DF91CF910895FC0189
:10175000808191810C945D1C90E0FC01E852FE4F69
:101760002491FC01EE56FE4F8491882399F090E07D
:10177000880F991FFC01E858FE4FA591B491FC0118
:10178000E25AFE4F859194918FB7F894EC91E22B39
:10179000EC938FBF0895CF93DF93CDB7DEB7289733
:1017A0000FB6F894DEBF0FBECDBF28E0E1E8F2E04F
:1017B000DE01119601900D922A95E1F7FC0120853A
:1017C000261710F46FEF620FFE013196E60FF11D40
:1017D000E60FF11D6081606840E028960FB6F8942E
:1017E000DEBF0FBECDBFDF91CF9118CDFC01A08928
:1017F000B18982E08C93A485B5851C92A685B785B6
:101800008FEC8C93108EA489B58986E08C93A28985
:10181000B3898C9180618C93A289B3898C91886003
:101820008C93A289B3898C9180688C930288F38908
:10183000E02D80818F7D808308958F929F92AF925B
:10184000BF92CF92DF92EF92FF920F931F93CF93AD
:10185000DF93CDB7DEB7A1970FB6F894DEBF0FBE0A
:10186000CDBF6C01990FEE08FF08F7FE32C0E09182
:101870000A05F0910B050190F081E02D6DE28AE000
:1018800095E019958C0122273327A9012C193D09D0
:101890004E095F0919A2CE0181967C019AE0892E3A
:1018A000912CA12CB12CCA01B901A50194010E946F
:1018B0006E1B605DF70162937F01211531054105C3
:1018C000510589F7BF018AE095E0F9D7080F191F84
:1018D0001FC0A701960119A28E010F5D1F4F8AE05C
:1018E000C82ED12CE12CF12CCA01B901A701960117
:1018F0000E946E1B605DF80162938F012115310516
:101900004105510589F7BF018AE095E0D8D78C01E0
:101910006DE973E08AE095E0D2D7800F911FA19620
:101920000FB6F894DEBF0FBECDBFDF91CF911F91F0
:101930000F91FF90EF90DF90CF90BF90AF909F906E
:101940008F900895CF93DF93FC014481558160818E
:1019500071818AE095E006D2EC016DE973E08AE0DE
:1019600095E0ADD78C0F9D1FDF91CF9108959F9289
:10197000AF92BF92CF92DF92EF92FF920F931F939D
:10198000CF93DF9300D000D0CDB7DEB7FC019681B6
:10199000992309F4D8C06B017F01915096835F01B0
:1019A00082E0A80EB11CC5012CD9D7011296ED9189
:1019B000FC91139780818B3521F08B3709F492C00D
:1019C0009BC0F70100811181B80184E090E0FCDA4E
:1019D000009751F0DC0111961C930E9313961C9204
:1019E0001E9212978C0111C08091C90581110BC004
:1019F0001092C6051092C5051092C8051092C70531
:101A000081E08093C90505EC15E06BE5C5013BD984
:101A1000882309F447C06DE5C50135D9811153C04C
:101A200086E0982E1A821982BE016F5F7F4FC70130
:101A30009EDF8823B9F1F8016081718188E090E030
:101A4000C3DADC01892B39F011961C921E92139691
:101A50001C921E921297F8012281338121153105C3
:101A600051F0F90180819181009711F09C01F9CF2B
:101A7000B183A08303C0F801B383A283109791F0D0
:101A8000FE0131961296892D01900D928A95E1F70B
:101A90006DE5C501F8D8811116C06CE2C501F3D817
:101AA0008111C0CF8091C90581110BC01092C6056C
:101AB0001092C5051092C8051092C70581E0809369
:101AC000C90505EC15E0D8018D919C91892B11F485
:101AD00010E031C086E090E0F601918380831383AB
:101AE000028328C0C7017FDADC012D913C91232BB2
:101AF00079F327E030E019C011E0873219F0823223
:101B000009F010E0C70162D9009711F3112359F0D1
:101B100022E030E0D60111963C932E9313969C93CD
:101B20008E93129708C021E030E0F60131832083C4
:101B30009383828311E0D70116968C9116978F5F5D
:101B400016968C9301C010E0812F26960FB6F8945C
:101B5000DEBF0FBECDBFDF91CF911F910F91FF90E0
:101B6000EF90DF90CF90BF90AF909F9008952FB7E8
:101B7000F8948091690490916A04A0916B04B091EB
:101B80006C042FBF8093750490937604A093770420
:101B9000B0937804E0916D04F0916E040284F385B3
:101BA000E02D8DE694E0199597FF26C02FB7F894A5
:101BB0008091690490916A04A0916B04B0916C04C7
:101BC0002FBF409175045091760460917704709115
:101BD0007804841B950BA60BB70B409171045091B0
:101BE0007204609173047091740484179507A607BA
:101BF000B70780F28FEF9FEF0895362F90E0FC013A
:101C0000E85EFE4F4491FC01E852FE4F2491FC0136
:101C1000EE56FE4F9491992309F46BC0442309F4C6
:101C200055C050E0FA013197E231F10508F04EC09D
:101C30008827E658FF4F8F4F0C94AC1B8091800093
:101C40008F7707C0809180008F7D03C080918000D6
:101C5000877F809380003AC084B58F7702C084B5B7
:101C60008F7D84BD33C08091B0008F7703C0809199
:101C7000B0008F7D8093B00029C0809190008F7755
:101C800007C0809190008F7D03C080919000877F76
:101C9000809390001BC08091A0008F7707C0809137
:101CA000A0008F7D03C08091A000877F8093A0005B
:101CB0000DC0809120018F7707C0809120018F7D1A
:101CC00003C080912001877F80932001E92FF0E0FD
:101CD000EE0FFF1FE25AFE4FA591B4918FB7F89413
:101CE000EC91311103C020952E2301C02E2B2C9393
:101CF0008FBF08958F929F92AF92BF92CF92DF9243
:101D0000EF92FF926B017C0112DC4B015C01C1146C
:101D1000D104E104F104E9F00ADCDC01CB0188190B
:101D20009909AA09BB09883E9340A105B10578F33A
:101D300021E0C21AD108E108F10888EE880E83E09C
:101D4000981EA11CB11CC114D104E104F10421F7B7
:101D5000DECFFF90EF90DF90CF90BF90AF909F903D
:101D60008F900895CF92DF92EF92FF920F931F937F
:101D7000CF93DF936C017A018B01C0E0D0E0CE15E8
:101D8000DF0589F0D8016D918D01D601ED91FC91AF
:101D90000190F081E02DC6011995892B11F47E0187
:101DA00002C02196ECCFC701DF91CF911F910F9117
:101DB000FF90EF90DF90CF900895FC01A089B1894A
:101DC0008C91A689B78982FD0FC09C91818D8F5F10
:101DD0008F73228D821749F0218DDF01A20FB11D73
:101DE0005D969C93818F08958C910895FC01538D8D
:101DF000448D252F30E0842F90E0821B930B5417E5
:101E000010F0CF96089501970895FC01918D828D71
:101E1000981761F0828DDF01A80FB11D5D968C913E
:101E2000928D9F5F9F73928F90E008958FEF9FEF49
:101E30000895FC01918D828D981731F0828DE80F05
:101E4000F11D858D90E008958FEF9FEF0895FC01BF
:101E5000918D228D892F90E0805C9F4F821B91098C
:101E60008F73992708958DE694E0F1DF21E0892BA7
:101E700009F420E0822F08958AE095E0E8DF21E070
:101E8000892B09F420E0822F0895FC01848DDF0165
:101E9000A80FB11DA35ABF4F2C91848D90E00196DD
:101EA0008F739927848FA689B7892C93A089B189CC
:101EB0008C9180648C93938D848D981306C00288D6
:101EC000F389E02D80818F7D80830895EF92FF92CA
:101ED0000F931F93CF93DF93EC0181E0888F9B8D4D
:101EE0008C8D981305C0E889F989808185FD23C010
:101EF000F62E0B8D10E00F5F1F4F0F731127E02E92
:101F00008C8DE8120BC00FB607FCFACFE889F9896F
:101F1000808185FFF5CFCE01B8DFF2CF8B8DFE013A
:101F2000E80FF11DE35AFF4FF0820B8FEA89FB891E
:101F30008081806207C0EE89FF896083E889F98922
:101F400080818064808381E090E0DF91CF911F9158
:101F50000F91FF90EF900895CF93DF93EC01888D60
:101F60008823C1F0EA89FB89808185FD05C0A889A5
:101F7000B9898C9186FD0EC00FB607FCF5CF808124
:101F800085FFF2CFA889B9898C9185FFEDCFCE016D
:101F90007CDFE8CFDF91CF91089580E090E0892B3E
:101FA00019F06ADF811120C080E090E0892B19F0E0
:101FB0005ADF81111CC080E090E0892B41F080E065
:101FC00090E0892B21F00E940000811113C080E075
:101FD00090E0892BA1F080E090E0892B81F00E94B5
:101FE000000081110AC008950E940000DDCF0E9408
:101FF0000000E1CF0E940000EACF0C940000089599
:102000000C945D1CCF93DF93EC018DEC92E09983EF
:102010008883CE0108969BDBCE010296DF91CF919B
:1020200096CBCF93DF93EC01EDDFCE01DF91CF9123
:102030000C945D1CCF93DF93EC0185EC92E09983C7
:102040008883CE010C9683DBCE010696DF91CF917B
:102050007ECBCF93DF93EC01EDDFCE01DF91CF910B
:102060000C945D1CDC011396ED91FC911497309754
:1020700051F024813581AB01420F531FA281B381FE
:10208000A417B50710F40C947105C9010696558381
:1020900044838E0F9F1F0895FC01118210821382CA
:1020A0001282158214826115710549F0FB010190BD
:1020B0000020E9F73197AF01461B570BFECA089580
:1020C0001F920F920FB60F9211240BB60F922F93FF
:1020D0003F934F935F936F937F938F939F93AF93B0
:1020E000BF93EF93FF938091F7059091F805A0912E
:1020F000F905B091FA05892B8A2B8B2B59F1809128
:10210000F605E091F405F091F5059081892780832B
:102110008091F7059091F805A091F905B091FA0525
:10212000181619061A061B060CF055C08091F70503
:102130009091F805A091F905B091FA050197A109D0
:10214000B1098093F7059093F805A093F905B09332
:10215000FA0541C080910002EEE1F2E0E4919FEFC8
:1021600090930002E230C9F050F4EE2399F0E13090
:1021700081F590916F009D7F90936F002AC0E430AD
:1021800019F1E0F0E53029F5909173009D7F90936F
:1021900073001FC010926E001CC0909170009D7F54
:1021A0009093700091E09093B0009091B100987F6F
:1021B00094609093B1001092B3000BC090917100A5
:1021C0009D7F9093710005C0909172009D7F9093C8
:1021D000720060E012DDFF91EF91BF91AF919F918E
:1021E0008F917F916F915F914F913F912F910F90C0
:1021F0000BBE0F900FBE0F901F9018953F924F92FD
:102200005F926F927F928F929F92AF92BF92CF9286
:10221000DF92EF92FF920F931F93CF93DF9300D043
:102220001F92CDB7DEB729013A01909100029817AD
:1022300021F09F3F09F02DC304C0EEE1F2E034909D
:1022400004C180930002EEE1F2E0E491EF3F09F473
:1022500020C3E23009F480C074F5EE2309F45BC0BA
:10226000E13009F0F1C0109280001092810090914D
:10227000810098609093810090918100916090938B
:102280008100282F30E0F901EE56FE4FE491F0E096
:10229000EE0FFF1FE25AFE4F459154915093DC051B
:1022A0004093DB05F901E852FE4FE491E093DA0533
:1022B00033243394CCC0E43009F49EC00CF474C0D1
:1022C000E53009F0C1C010922001109221019091D7
:1022D0002101986090932101909121019160909348
:1022E0002101482F50E0FA01EE56FE4FE491F0E054
:1022F000EE0FFF1FE25AFE4F259134913093D30524
:102300002093D205FA01E852FE4FE491E093D10503
:10231000B5E03B2E9CC014BC15BC94B5926094BD36
:1023200095B5916095BD282F30E0F901EE56FE4F2E
:10233000E491F0E0EE0FFF1FE25AFE4F45915491F9
:102340005093DF054093DE05F901E852FE4FE4911A
:10235000E093DD05312C7BC01092B0001092B100EB
:102360009091B00092609093B0009091B100916014
:102370009093B100282F30E0F901EE56FE4FE49122
:10238000F0E0EE0FFF1FE25AFE4F4591549150933B
:10239000F5054093F405F901E852FE4FE491E0930E
:1023A000F60552E0352E53C0109290001092910025
:1023B000909191009860909391009091910091601C
:1023C00090939100282F30E0F901EE56FE4FE491F2
:1023D000F0E0EE0FFF1FE25AFE4F459154915093EB
:1023E000D9054093D805F901E852FE4FE491E093F6
:1023F000D70523E0322E2BC01092A0001092A1002E
:102400009091A10098609093A1009091A10091609B
:102410009093A100282F30E0F901EE56FE4FE49191
:10242000F0E0EE0FFF1FE25AFE4F4591549150939A
:10243000D6054093D505F901E852FE4FE491E093AB
:10244000D40504E0302E03C03E2E37FC22C28B019F
:1024500083D94801A12CB12C832D8D7F09F0BBC0FD
:1024600060E072E18AE790E0A50194010E94901B70
:1024700029833A834B835C8369017A0121E0C21A84
:10248000D108E108F1088FEFC816D104E104F10486
:1024900009F008F44CC060E472E48FE090E0A5011C
:1024A00094010E94901B69017A0191E0C91AD10838
:1024B000E108F108E2E03E1220C0FFEFCF16D104A0
:1024C000E104F10409F008F4E2C160E970ED83E091
:1024D00090E0A50194010E94901B69017A0181E0BE
:1024E000C81AD108E108F1089FEFC916D104E10428
:1024F000F10409F0D0F583E067C0EFEFCE16D10408
:10250000E104F104B1F0A8F068E478EE81E090E035
:10251000A50194010E94901B69017A01F1E0CF1A94
:10252000D108E108F108332009F459C1A7C181E0BD
:1025300001C082E03320A1F047C089819A81AB813C
:10254000BC812AE0B595A795979587952A95D1F7EF
:102550006C017D01F1E0CF1AD108E108F10885E0B6
:1025600095B5987F892B85BDA6C068E478EE81E09B
:1025700090E0A50194010E94901B69017A0181E01D
:10258000C81AD108E108F1089FEFC916D104E10487
:10259000F10409F008F421C164E274EF80E090E0F6
:1025A000A50194010E94901B69017A0181E0C81A7B
:1025B000D108E108F1089FEFC916D104E104F10444
:1025C00011F008F02DC185E09091B100987F892B22
:1025D0008093B10070C060E072E18AE790E0A501ED
:1025E00094010E94901B69017A01F1E0CF1AD10891
:1025F000E108F108C114D10421E0E206F10488F0F9
:1026000068E478EE81E090E0A50194010E94901BBF
:1026100069017A0181E0C81AD108E108F10883E074
:1026200001C081E091E0391210C090918100987F43
:10263000892B80938100411451046104710409F0D5
:102640003FC02FEF3FEFA90170C0E3E03E120FC083
:1026500090919100987F892B8093910041145104AF
:102660006104710469F52FEF3FEFA90180C0F4E028
:102670003F120FC09091A100987F892B8093A100F9
:102680004114510461047104D9F42FEF3FEFA90103
:1026900080C025E032120FC090912101987F892BD4
:1026A00080932101411451046104710449F42FEF16
:1026B0003FEFA90180C0411451046104710469F025
:1026C000D801AA0FBB1FA301920142D728EE33E025
:1026D00040E050E00E946E1B03C02FEF3FEFA901C6
:1026E00082E03816A1F1831534F0332079F091E0BF
:1026F0003916D9F0CEC0E4E03E1609F44AC03E16C1
:10270000B4F1F5E03F1609F456C0C3C0C7BC20932E
:10271000F0053093F1054093F2055093F305809155
:102720006E00826080936E00B4C0D0928900C09227
:1027300088002093EC053093ED054093EE0550930F
:10274000EF0580916F00826080936F00A2C0C092FD
:10275000B3002093F7053093F8054093F9055093A3
:10276000FA058091700082608093700092C0D092D0
:102770009900C09298002093E8053093E9054093B2
:10278000EA055093EB05809171008260809371009F
:1027900080C0D092A900C092A8002093E405309395
:1027A000E5054093E6055093E7058091720082604D
:1027B000809372006EC0D0922901C09228012093AC
:1027C000E0053093E1054093E2055093E3058091E5
:1027D00073008260809373005CC084E0F5CE2FEFBD
:1027E000C216D104E104F104C9F0C0F062E17AE755
:1027F00080E090E0A501940193D769017A01E1E0BE
:10280000CE1AD108E108F108FFEFCF16D104E10498
:10281000F10411F008F091CE84E0A2CE83E0A0CEC6
:1028200062E17AE780E090E0A501940179D769013F
:102830007A0181E0C81AD108E108F1089FEFC916B2
:10284000D104E104F104C1F0B8F089819A81AB812F
:10285000BC814AE0B595A795979587954A95D1F79C
:102860006C017D01E1E0CE1AD108E108F1083320C6
:1028700009F475CE87E0A8CE86E05CCEEFEFCE16E9
:10288000D104E104F10409F058F684E053CE82E06B
:102890009BCE0F900F900F900F90DF91CF911F91D3
:1028A0000F91FF90EF90DF90CF90BF90AF909F90EF
:1028B0008F907F906F905F904F903F90089561153B
:1028C000710579F0FB0101900020E9F73197AF0124
:1028D000461B570BDC01ED91FC910280F381E02D4A
:1028E000199480E090E008951F920F920FB60F9216
:1028F00011240BB60F922F933F934F935F936F93D7
:102900007F938F939F93AF93BF93EF93FF938DE646
:1029100094E0BBDAFF91EF91BF91AF919F918F91BE
:102920007F916F915F914F913F912F910F900BBECF
:102930000F900FBE0F901F9018951F920F920FB619
:102940000F9211240BB60F922F933F934F935F93E7
:102950006F937F938F939F93AF93BF93EF93FF9367
:102960008DE694E02ADAFF91EF91BF91AF919F91AC
:102970008F917F916F915F914F913F912F910F9028
:102980000BBE0F900FBE0F901F9018951F920F92C5
:102990000FB60F9211240BB60F922F933F934F93C4
:1029A0005F936F937F938F939F93AF93BF93EF93B7
:1029B000FF938AE095E069DAFF91EF91BF91AF91C3
:1029C0009F918F917F916F915F914F913F912F9147
:1029D0000F900BBE0F900FBE0F901F9018951F9277
:1029E0000F920FB60F9211240BB60F922F933F93B5
:1029F0004F935F936F937F938F939F93AF93BF9307
:102A0000EF93FF938AE095E0D8D9FF91EF91BF91C2
:102A1000AF919F918F917F916F915F914F913F9176
:102A20002F910F900BBE0F900FBE0F901F90189517
:102A3000CF92DF92EF92FF920F931F93CF93DF938A
:102A4000EC016B017A018DEC92E0FE018193919390
:102A50008F016FED72E0CF011FDB28966FED72E002
:102A6000CE011ADBB601C8010E94870BB701CE0167
:102A7000DF91CF911F910F91FF90EF90DF90CF905A
:102A80000C94870B08956F927F928F929F92AF92D2
:102A9000BF92CF92DF92EF92FF920F931F93CF934B
:102AA000DF93EC015B014A01690185EC92E09983B7
:102AB00088833E0186E0680E711C6FED72E0C301F1
:102AC000EBDA7E018CE0E80EF11C6FED72E0C701DD
:102AD000E3DABB82AA829D828C82B601C3010E9486
:102AE000870BB801C701DF91CF911F910F91FF9024
:102AF000EF90DF90CF90BF90AF909F908F907F909E
:102B00006F900C94870B0F931F93CF93DF93CDB7E8
:102B1000DEB766970FB6F894DEBF0FBECDBF8C014F
:102B2000CB011E8AFE0176962AE030E0B901C3D5BA
:102B300090E3980F9293CB010097C1F7BF01C801B2
:102B40000E948A0266960FB6F894DEBF0FBECDBF14
:102B5000DF91CF911F910F9108958F929F92AF9225
:102B6000BF92EF92FF920F931F93CF93DF93CDB756
:102B7000DEB766970FB6F894DEBF0FBECDBF7C01FF
:102B80001E8A8E010A5E1F4F8AE0882E912CA12C8E
:102B9000B12CCB01BA01A5019401A0D5942F852FAA
:102BA000605DF80162938F01A901692F782F4115AB
:102BB00051056105710569F7BF01C7010E948A02CD
:102BC00066960FB6F894DEBF0FBECDBFDF91CF91F2
:102BD0001F910F91FF90EF90BF90AF909F908F90BB
:102BE0000895CF93DF93EC01E881F9818081918191
:102BF0000E942D0B8A819B8101969B838A83DF91A2
:102C0000CF910895CF93DF93CDB7DEB7C856D109E2
:102C10000FB6F894DEBF0FBECDBF789484B5826046
:102C200084BD84B5816084BD85B5826085BD85B570
:102C3000816085BD80916E00816080936E001092EE
:102C40008100809181008260809381008091810069
:102C500081608093810080918000816080938000FA
:102C60008091B10084608093B1008091B000816058
:102C70008093B00080919100826080939100809158
:102C80009100816080939100809190008160809399
:102C900090008091A10082608093A1008091A100AA
:102CA00081608093A1008091A00081608093A0004A
:102CB00080912101826080932101809121018160B6
:102CC0008093210180912001816080932001809177
:102CD0007A00846080937A0080917A008260809389
:102CE0007A0080917A00816080937A0080917A00E6
:102CF000806880937A001092C1001EAA1DAA83E505
:102D000092E09CAB8BAB87E28FAB80E18CAF82E033
:102D10008DAF1EAE7E0181E6E80EF11C8DE792E0DC
:102D2000F701918380838E010D5C1F4F1383028313
:102D3000109261041092600410925F0410925E047D
:102D400010925D0481E080935C0410925B0461E06A
:102D500084E10E94FD0D61E085E10E94FD0D8091FE
:102D6000B9008E7F8093B9008091B9008D7F8093E8
:102D7000B90088E48093B80085E48093BC0018AE65
:102D80008DAD823010F098E098AF8BAF8BE39DE073
:102D90000197F1F76EADC8010E94940868EE73E0E8
:102DA00080E090E00E947A0E60E3C8010E94F8087B
:102DB0008BE4C82E86E4D82EC6010197F1F760E3B4
:102DC000C8010E94F808C6010197F1F760E3C80145
:102DD0000E94F80883E592E00197F1F760E2C801EC
:102DE0000E94F80868AD606240E0C8010E940E09C8
:102DF00084E089AF40E06CE0C8010E940E09C80180
:102E00000E94270982E08AAF40E066E0C8010E9484
:102E10000E0940E062E0C8010E940E098BE39FE1C9
:102E20000197F1F7F7018281938128E0FC01238764
:102E300060E00E9494088E01035A1F4F85E792E0DC
:102E4000F8019183808382E090E0938382830E94E3
:102E5000AC0B8AE095E00E94F60B8DE694E00E94B0
:102E6000F60BF701828193810E94270964E273E0E7
:102E7000F7018281938123DD61E0F70182819381F3
:102E80000E94CB0B61E373E0F7018281938117DD30
:102E90008DE692E069969FAF8EAF69976B96FFAE15
:102EA000EEAE6B976D961FAF0EAF6D97A6961FAEE9
:102EB000A697A7961FAEA797A8961FAEA897A99604
:102EC0001FAEA9979FE5692E92E0792E212C22E072
:102ED000322E0A541109CE0101967C014E0195E271
:102EE000890E911C6E01EBE4CE0ED11C809163041F
:102EF00081112FC18DE694E00E94270F892BB1F339
:102F00006FED72E0CE01CF96C7D80E94B70D97FD46
:102F100006C0682FCE01CF960E942D0BF6CF7C8A7B
:102F20006B8A1F8A1E8A398E288ECE01CF960E9408
:102F3000A20C21968EAD9FAD2197009711F48FEDD5
:102F400092E01A8309839C838B831E830D83FAE0AE
:102F5000FF83C7010E94F3075C017C8A6B8AEE89BC
:102F6000FF89309751F082819381998F888F4080BB
:102F70005180CF01A2D4F201F4CFCE01CF960E94AE
:102F8000A70B42E453E0B501CE018F5A9F4F0E9438
:102F90006E066FEB75E0CE018F5A9F4F0E94650A57
:102FA000882309F475C049E453E0B501CE018B5B79
:102FB0009F4F0E946E064EE453E0B501CE01CF96BE
:102FC0000E946E06CE018F5A9F4F0E94A20CCE0126
:102FD0008B5B9F4F0E94A20CCE01CF960E94A20C49
:102FE0001A8219821C821B821E821D82BE01615CB4
:102FF0007F4FC7010E94870B1C8A1B8A1E8A1D8A6D
:10300000188E1F8ABE016B5B7F4FC8010E94870B21
:10301000A701B801C4010CDDC8010E94A70BC701BC
:103020000E94A70B81E0809363046B964EAC5FAC6B
:103030006B9760E0F201828193810E94CB0B67E580
:1030400073E0F201828193813ADC6D96EEADFFADC3
:103050006D9728EC30E040E050E068E273E2828156
:10306000CDD860E070E0CB010E947A0EC4010E94CE
:103070000210CE01CF960E94A70BCE018B5B9F4F13
:103080000E94A70BA8968FAEA897A9969FAEA99766
:1030900069EB75E0CE018F5A9F4F0E94650A882325
:1030A00009F451C068E673E0C5010E946106AC01F5
:1030B000BE01695A7F4FC8010E94700761E773E043
:1030C000C5010E946106AC01BE01695A7F4FC7016C
:1030D0000E94700785E692E0F60191838083138356
:1030E0000283F582E48291E0909362046B96AEAC29
:1030F000BFAC6B9761E0F501828193810E94CB0B9D
:103100006BE773E0F50182819381D9DB6D96EEADBB
:10311000FFAD6D9728EC30E040E050E068E273E2EC
:1031200082816CD860E070E0CB010E947A0EC7010A
:103130000E941A10C8010E941A10A696CFAEA69738
:10314000A796DFAEA797CE018F5A9F4F0E94A70B7D
:10315000CDCE80916204882309F4CCCE6CE873E074
:103160008AE095E0ACDB6DE973E08AE095E0A7DBEF
:103170006B960EAD1FAD6B97F801828193810E9413
:10318000270960EA73E0F8018281938198DB6D96EC
:103190000EAD1FAD6D9728EC30E040E050E068E2E6
:1031A00073E2F80182812AD864EF71E080E090E058
:1031B0000E947A0E28EC30E040E050E068E273E2D2
:1031C000F80182811BD864EF71E080E090E00E94FA
:1031D0007A0EA896FFADA897F093B505A9968FAD86
:1031E000A9978093B605A6969FADA6979093B7052D
:1031F000A796EFADA797E093B8058091630481117E
:103200008091620490E00E941D0C0E94CD0FFDCFC2
:1032100089EB95E00E94A70B8FEB95E00C94A70B30
:10322000CF92DF92EF92FF92EDE6F4E013821282EA
:1032300088EEC82E83E0D82EE12CF12CC482D582F2
:10324000E682F7828DE892E0918380832DEC30E076
:10325000358724872CEC30E03787268728EC30E050
:10326000318B208B29EC30E0338B228B2AEC30E041
:10327000358B248B2EEC30E0378B268B118E128E03
:10328000138E148EEAE0F5E013821282C482D58296
:10329000E682F7829183808385EC90E0958784872E
:1032A00084EC90E09787868780EC90E0918B808B10
:1032B00081EC90E0938B828B82EC90E0958B848BF9
:1032C00086EC90E0978B868B118E128E138E148E67
:1032D0006DEA73E08FEB95E00E944C1065EB73E0B4
:1032E00089EB95E00E944C10E7EAF5E01382128228
:1032F000C482D582E682F7828FE992E0918380834F
:10330000E3EBF5E08DEB92E09183808313821282F0
:1033100015821482FF90EF90DF90CF90089540D0F7
:1033200008F481E00895E89409C097FB3EF4909575
:103330008095709561957F4F8F4F9F4F9923A9F08E
:10334000F92F96E9BB279395F6958795779567951D
:10335000B795F111F8CFFAF4BB0F11F460FF1BC061
:103360006F5F7F4F8F4F9F4F16C0882311F096E9F4
:1033700011C0772321F09EE8872F762F05C06623A2
:1033800071F096E8862F70E060E02AF09A95660F5B
:10339000771F881FDAF7880F9695879597F9089514
:1033A000990F0008550FAA0BE0E8FEEF1616170656
:1033B000E807F907C0F012161306E407F50798F0BE
:1033C000621B730B840B950B39F40A2661F0232BD7
:1033D000242B252B21F408950A2609F4A140A69553
:1033E0008FEF811D811D08950BD078C069D028F022
:1033F0006ED018F0952309F05AC05FC01124A2C006
:103400007ED0A0F3959FD1F3950F50E0551F629F9A
:10341000F001729FBB27F00DB11D639FAA27F00D2D
:10342000B11DAA1F649F6627B00DA11D661F829F54
:103430002227B00DA11D621F739FB00DA11D621F39
:10344000839FA00D611D221F749F3327A00D611D56
:10345000231F849F600D211D822F762F6A2F112438
:103460009F5750408AF0E1F088234AF0EE0FFF1F8B
:10347000BB1F661F771F881F91505040A9F79E3FC2
:10348000510570F014C05EC05F3FECF3983EDCF372
:10349000869577956795B795F795E7959F5FC1F7FF
:1034A000FE2B880F911D9695879597F9089597F9AA
:1034B0009F6780E870E060E008959FEF80EC0895DA
:1034C00000240A9416161706180609060895002403
:1034D0000A9412161306140605060895092E03947D
:1034E000000C11F4882352F0BB0F40F4BF2B11F4F1
:1034F00060FF04C06F5F7F4F8F4F9F4F089557FD50
:103500009058440F551F59F05F3F71F04795880F51
:1035100097FB991F61F09F3F79F0879508951216E8
:1035200013061406551FF2CF4695F1DF08C0161694
:1035300017061806991FF1CF869571056105089445
:103540000895E894BB2766277727CB0197F908955C
:1035500009D0A59F900DB49F900DA49F800D911D43
:1035600011240895A29FB001B39FC001A39F700DC5
:10357000811D1124911DB29F700D811D1124911D7B
:1035800008955058BB27AA270ED0A8CF99DF30F056
:103590009EDF20F031F49F3F11F41EF48ECF0EF425
:1035A000E095E7FB84CFE92FAADF80F3BA17620723
:1035B00073078407950718F071F49EF5C2CF0EF4D7
:1035C000E0950B2EBA2FA02D0B01B90190010C0133
:1035D000CA01A0011124FF27591B99F0593F50F44B
:1035E000503E68F11A16F040A22F232F342F4427A3
:1035F000585FF3CF469537952795A795F04053959B
:10360000C9F77EF41F16BA0B620B730B840BBAF06A
:103610009150A1F0FF0FBB1F661F771F881FC2F7D5
:103620000EC0BA0F621F731F841F48F487957795E9
:103630006795B795F7959E3F08F0B3CF9395880FA0
:1036400008F09927EE0F97958795089504D0689410
:10365000B11178CF08955BDF88F09F5790F0B92FB4
:103660009927B751A0F0D1F0660F771F881F991FD7
:103670001AF0BA95C9F712C0B13081F062DFB1E03B
:1036800008955FCF672F782F8827B85F39F0B93F4B
:10369000CCF3869577956795B395D9F73EF49095D9
:1036A0008095709561957F4F8F4F9F4F089578DE7D
:1036B00008F48FEF089597FB072E16F4009406D0B8
:1036C00077FD08D051D007FC05D03EF49095819548
:1036D0009F4F0895709561957F4F0895A1E21A2E2E
:1036E000AA1BBB1BFD010DC0AA1FBB1FEE1FFF1FA6
:1036F000A217B307E407F50720F0A21BB30BE40BF6
:10370000F50B661F771F881F991F1A9469F760953C
:103710007095809590959B01AC01BD01CF010895F6
:10372000052E97FB16F400940FD057FD05D0D6DF79
:1037300007FC02D046F408C050954095309521957D
:103740003F4F4F4F5F4F08959095809570956195CD
:103750007F4F8F4F9F4F0895EE0FFF1F881F8BBF26
:103760000790F691E02D1994AA1BBB1B51E107C0ED
:10377000AA1FBB1FA617B70710F0A61BB70B881F01
:10378000991F5A95A9F780959095BC01CD01089590
:10379000CF93DF938230910510F482E090E0E091C6
:1037A000FD05F091FE0520E030E0C0E0D0E030976C
:1037B00011F14081518148175907C0F04817590746
:1037C00061F482819381209719F09B838A832BC0B7
:1037D0009093FE058093FD0526C02115310519F053
:1037E0004217530718F49A01BE01DF01EF0102806E
:1037F000F381E02DDCCF2115310509F1281B390BB0
:103800002430310590F412968D919C911397611597
:10381000710521F0FB019383828304C09093FE0520
:103820008093FD05FD01329644C0FD01E20FF31FB8
:1038300081939193225031092D933C933AC020916A
:10384000FB053091FC05232B41F4209103023091BC
:1038500004023093FC052093FB0520910102309176
:1038600002022115310541F42DB73EB74091050202
:1038700050910602241B350BE091FB05F091FC05ED
:10388000E217F307A0F42E1B3F0B2817390778F037
:10389000AC014E5F5F4F2417350748F04E0F5F1F96
:1038A0005093FC054093FB058193919302C0E0E0A7
:1038B000F0E0CF01DF91CF9108950F931F93CF9345
:1038C000DF93009709F48CC0FC01329713821282B7
:1038D0000091FD051091FE050115110581F420816F
:1038E0003181820F931F2091FB053091FC05281731
:1038F000390779F5F093FC05E093FB0571C0D80119
:1039000040E050E0AE17BF0750F412962D913C9165
:103910001397AD012115310509F1D901F3CF9D01AF
:10392000DA013383228360817181860F971F8217AA
:10393000930769F4EC0128813981260F371F2E5F28
:103940003F4F318320838A819B8193838283452BE0
:1039500029F4F093FE05E093FD0542C01396FC9315
:10396000EE931297ED01499159919E01240F351F55
:10397000E217F30771F480819181840F951F0296FD
:1039800011969C938E938281938113969C938E9330
:103990001297E0E0F0E0D80112968D919C91139778
:1039A000009719F0F8018C01F6CF8D919C91980148
:1039B0002E5F3F4F820F931F2091FB053091FC0536
:1039C0002817390769F4309729F41092FE051092F0
:1039D000FD0502C0138212821093FC050093FB05C3
:1039E000DF91CF911F910F9108956F927F928F92E7
:1039F0009F92AF92BF92CF92DF92EF92FF920F937E
:103A00001F93CF93DF93EC01009781F4CB01DF91FB
:103A1000CF911F910F91FF90EF90DF90CF90BF90CB
:103A2000AF909F908F907F906F90B2CEFC01E60F89
:103A3000F71F9C0122503109E217F30708F4A8C0D0
:103A4000D9010D911C91119706171707A8F00530A1
:103A5000110508F49BC0C80104978617970708F45E
:103A600095C002501109061B170B019311936D931A
:103A70007C93CF0122DF8AC05B01A01AB10A4C01FE
:103A8000800E911EA091FD05B091FE0540E050E032
:103A9000E12CF12C109709F44AC0A815B905D1F50D
:103AA0006D907C901197630182E0C80ED11CCA14FE
:103AB000DB0480F1A3014A195B096A0182E0C80EA8
:103AC000D11C1296BC9012971396AC91B5E0CB1610
:103AD000D10440F0B282A38351834083D9016D9316
:103AE0007C930AC00E5F1F4FC301800F911FF90125
:103AF00091838083EB2DFA2FE114F10431F0D7018B
:103B00001396FC93EE93129741C0F093FE05E09359
:103B1000FD053CC08D919C9111974817590708F4F9
:103B2000AC017D0112960D90BC91A02DB3CF809178
:103B3000FB059091FC0588159905E1F44617570798
:103B4000C8F48091010290910202009741F48DB770
:103B50009EB74091050250910602841B950BE81711
:103B6000F907B0F4F093FC05E093FB05F9017183CC
:103B700060830CC0CB010CDE7C01009749F0A801EA
:103B8000BE011BD0CE0199DEC70104C0CE0102C028
:103B900080E090E0DF91CF911F910F91FF90EF9027
:103BA000DF90CF90BF90AF909F908F907F906F905D
:103BB000089581E090E0F89419C0FB01DC0102C097
:103BC00001900D9241505040D8F70895FB01DC015F
:103BD0008D91019080190110D9F3990B0895FB0183
:103BE000DC0101900D920020E1F7089511E0C1E1A0
:103BF000D1E000E005C0802FFE01AEDD2196011D61
:0E3C0000C231D10780E00807B1F7F894FFCF7A
:103C0E00FF0000FF0580000000803FCDCCCC3D6F53
:103C1E0012833A95BFD6337D1D9026B3CE010CCDBF
:103C2E00CCCC3D0AD7233C17B7D13877CC2B329565
:103C3E0095E6241FB14F0A000020410000C8420043
:103C4E00401C4620BCBE4CCA1B0E5AAEC59D74000D
:103C5E000000002209B20E7D017C0100000000323E
:103C6E00100000000042150010000000006F0784D5
:103C7E000200000000620A820200000000610A8851
:103C8E0002000040001400540000000000660FB255
:103C9E000EF60EAC0F270F050F190F00000000E1F6
:103CAE0001B2017D0156017401650157010000004A
:103CBE0000630AB20E7D017C0100000000930886AD
:103CCE0002000000001A102910000000000210115E
:103CDE001022225C5C6208660C6E0A720D7409007A
:103CEE006E756C6C00747275650066616C73650040
:103CFE004E614E00652D00496E66696E69747900DD
:103D0E00646567726565006D696E757465007365CF
:103D1E00636F6E640063617264696E616C5F706F75
:103D2E00696E740057696669206F66666C696E65A8
:103D3E00004C6F636174696F6E206F66666C696E9E
:103D4E006500616374696F6E0073736964007061FE
:103D5E007373776F72640057494649204F4B20208A
:103D6E0020202020202020006C6174697475646509
:103D7E00006C6F6E676974756465004C4F434154F7
:103D8E00494F4E204F4B202020202000414C4152C5
:103D9E004D20434F4E46494755524544000D0A00AB
:103DAE00414C41524D204F4E4C494E4500434F4ED3
:103DBE004E454354005345545F4C4F434154494F75
:023DCE004E00A5
:00000001FF
